{
  "_format": "hh-sol-artifact-1",
  "contractName": "GreeterSetup",
  "sourceName": "contracts/GreeterSetup.sol",
  "abi": [
    {
      "inputs": [],
      "name": "implementation",
      "outputs": [
        {
          "internalType": "address",
          "name": "",
          "type": "address"
        }
      ],
      "stateMutability": "view",
      "type": "function"
    },
    {
      "inputs": [
        {
          "internalType": "address",
          "name": "_dao",
          "type": "address"
        },
        {
          "internalType": "bytes",
          "name": "",
          "type": "bytes"
        }
      ],
      "name": "prepareInstallation",
      "outputs": [
        {
          "internalType": "address",
          "name": "plugin",
          "type": "address"
        },
        {
          "components": [
            {
              "internalType": "address[]",
              "name": "helpers",
              "type": "address[]"
            },
            {
              "components": [
                {
                  "internalType": "enum PermissionLib.Operation",
                  "name": "operation",
                  "type": "uint8"
                },
                {
                  "internalType": "address",
                  "name": "where",
                  "type": "address"
                },
                {
                  "internalType": "address",
                  "name": "who",
                  "type": "address"
                },
                {
                  "internalType": "address",
                  "name": "condition",
                  "type": "address"
                },
                {
                  "internalType": "bytes32",
                  "name": "permissionId",
                  "type": "bytes32"
                }
              ],
              "internalType": "struct PermissionLib.MultiTargetPermission[]",
              "name": "permissions",
              "type": "tuple[]"
            }
          ],
          "internalType": "struct IPluginSetup.PreparedSetupData",
          "name": "",
          "type": "tuple"
        }
      ],
      "stateMutability": "nonpayable",
      "type": "function"
    },
    {
      "inputs": [
        {
          "internalType": "address",
          "name": "_dao",
          "type": "address"
        },
        {
          "components": [
            {
              "internalType": "address",
              "name": "plugin",
              "type": "address"
            },
            {
              "internalType": "address[]",
              "name": "currentHelpers",
              "type": "address[]"
            },
            {
              "internalType": "bytes",
              "name": "data",
              "type": "bytes"
            }
          ],
          "internalType": "struct IPluginSetup.SetupPayload",
          "name": "_payload",
          "type": "tuple"
        }
      ],
      "name": "prepareUninstallation",
      "outputs": [
        {
          "components": [
            {
              "internalType": "enum PermissionLib.Operation",
              "name": "operation",
              "type": "uint8"
            },
            {
              "internalType": "address",
              "name": "where",
              "type": "address"
            },
            {
              "internalType": "address",
              "name": "who",
              "type": "address"
            },
            {
              "internalType": "address",
              "name": "condition",
              "type": "address"
            },
            {
              "internalType": "bytes32",
              "name": "permissionId",
              "type": "bytes32"
            }
          ],
          "internalType": "struct PermissionLib.MultiTargetPermission[]",
          "name": "",
          "type": "tuple[]"
        }
      ],
      "stateMutability": "pure",
      "type": "function"
    },
    {
      "inputs": [
        {
          "internalType": "address",
          "name": "_dao",
          "type": "address"
        },
        {
          "internalType": "uint16",
          "name": "_currentBuild",
          "type": "uint16"
        },
        {
          "components": [
            {
              "internalType": "address",
              "name": "plugin",
              "type": "address"
            },
            {
              "internalType": "address[]",
              "name": "currentHelpers",
              "type": "address[]"
            },
            {
              "internalType": "bytes",
              "name": "data",
              "type": "bytes"
            }
          ],
          "internalType": "struct IPluginSetup.SetupPayload",
          "name": "_payload",
          "type": "tuple"
        }
      ],
      "name": "prepareUpdate",
      "outputs": [
        {
          "internalType": "bytes",
          "name": "initData",
          "type": "bytes"
        },
        {
          "components": [
            {
              "internalType": "address[]",
              "name": "helpers",
              "type": "address[]"
            },
            {
              "components": [
                {
                  "internalType": "enum PermissionLib.Operation",
                  "name": "operation",
                  "type": "uint8"
                },
                {
                  "internalType": "address",
                  "name": "where",
                  "type": "address"
                },
                {
                  "internalType": "address",
                  "name": "who",
                  "type": "address"
                },
                {
                  "internalType": "address",
                  "name": "condition",
                  "type": "address"
                },
                {
                  "internalType": "bytes32",
                  "name": "permissionId",
                  "type": "bytes32"
                }
              ],
              "internalType": "struct PermissionLib.MultiTargetPermission[]",
              "name": "permissions",
              "type": "tuple[]"
            }
          ],
          "internalType": "struct IPluginSetup.PreparedSetupData",
          "name": "preparedSetupData",
          "type": "tuple"
        }
      ],
      "stateMutability": "nonpayable",
      "type": "function"
    },
    {
      "inputs": [
        {
          "internalType": "bytes4",
          "name": "_interfaceId",
          "type": "bytes4"
        }
      ],
      "name": "supportsInterface",
      "outputs": [
        {
          "internalType": "bool",
          "name": "",
          "type": "bool"
        }
      ],
      "stateMutability": "view",
      "type": "function"
    }
  ],
  "bytecode": "0x608060405234801561001057600080fd5b506112bf806100206000396000f3fe60806040523480156200001157600080fd5b50600436106200005e5760003560e01c806301ffc9a714620000635780635c60da1b14620000995780639cb0a12414620000bb578063a8a9c29e14620000f1578063f10832f11462000128575b600080fd5b6200008160048036038101906200007b91906200034e565b6200015f565b6040516200009091906200039d565b60405180910390f35b620000a3620001dc565b604051620000b29190620003ff565b60405180910390f35b620000d96004803603810190620000d3919062000474565b620001e1565b604051620000e89190620006b5565b60405180910390f35b6200010f600480360381019062000109919062000718565b620001e9565b6040516200011f929190620009ad565b60405180910390f35b62000146600480360381019062000140919062000b39565b620001fd565b6040516200015692919062000b9f565b60405180910390f35b60007f99718b50000000000000000000000000000000000000000000000000000000007bffffffffffffffffffffffffffffffffffffffffffffffffffffffff1916827bffffffffffffffffffffffffffffffffffffffffffffffffffffffff19161480620001d55750620001d4826200024b565b5b9050919050565b600090565b606092915050565b6060620001f5620002b5565b935093915050565b600062000209620002b5565b836040516200021890620002cf565b62000224919062000c3e565b604051809103906000f08015801562000241573d6000803e3d6000fd5b5091509250929050565b60007f01ffc9a7000000000000000000000000000000000000000000000000000000007bffffffffffffffffffffffffffffffffffffffffffffffffffffffff1916827bffffffffffffffffffffffffffffffffffffffffffffffffffffffff1916149050919050565b604051806040016040528060608152602001606081525090565b61062e8062000c5c83390190565b6000604051905090565b600080fd5b600080fd5b60007fffffffff0000000000000000000000000000000000000000000000000000000082169050919050565b6200032881620002f1565b81146200033457600080fd5b50565b60008135905062000348816200031d565b92915050565b600060208284031215620003675762000366620002e7565b5b6000620003778482850162000337565b91505092915050565b60008115159050919050565b620003978162000380565b82525050565b6000602082019050620003b460008301846200038c565b92915050565b600073ffffffffffffffffffffffffffffffffffffffff82169050919050565b6000620003e782620003ba565b9050919050565b620003f981620003da565b82525050565b6000602082019050620004166000830184620003ee565b92915050565b6200042781620003da565b81146200043357600080fd5b50565b60008135905062000447816200041c565b92915050565b600080fd5b6000606082840312156200046b576200046a6200044d565b5b81905092915050565b600080604083850312156200048e576200048d620002e7565b5b60006200049e8582860162000436565b925050602083013567ffffffffffffffff811115620004c257620004c1620002ec565b5b620004d08582860162000452565b9150509250929050565b600081519050919050565b600082825260208201905092915050565b6000819050602082019050919050565b7f4e487b7100000000000000000000000000000000000000000000000000000000600052602160045260246000fd5b6003811062000549576200054862000506565b5b50565b60008190506200055c8262000535565b919050565b60006200056e826200054c565b9050919050565b620005808162000561565b82525050565b6200059181620003da565b82525050565b6000819050919050565b620005ac8162000597565b82525050565b60a082016000820151620005ca600085018262000575565b506020820151620005df602085018262000586565b506040820151620005f4604085018262000586565b50606082015162000609606085018262000586565b5060808201516200061e6080850182620005a1565b50505050565b6000620006328383620005b2565b60a08301905092915050565b6000602082019050919050565b60006200065882620004da565b620006648185620004e5565b93506200067183620004f6565b8060005b83811015620006a85781516200068c888262000624565b975062000699836200063e565b92505060018101905062000675565b5085935050505092915050565b60006020820190508181036000830152620006d181846200064b565b905092915050565b600061ffff82169050919050565b620006f281620006d9565b8114620006fe57600080fd5b50565b6000813590506200071281620006e7565b92915050565b600080600060608486031215620007345762000733620002e7565b5b6000620007448682870162000436565b9350506020620007578682870162000701565b925050604084013567ffffffffffffffff8111156200077b576200077a620002ec565b5b620007898682870162000452565b9150509250925092565b600081519050919050565b600082825260208201905092915050565b60005b83811015620007cf578082015181840152602081019050620007b2565b60008484015250505050565b6000601f19601f8301169050919050565b6000620007f98262000793565b6200080581856200079e565b935062000817818560208601620007af565b6200082281620007db565b840191505092915050565b600081519050919050565b600082825260208201905092915050565b6000819050602082019050919050565b600062000867838362000586565b60208301905092915050565b6000602082019050919050565b60006200088d826200082d565b62000899818562000838565b9350620008a68362000849565b8060005b83811015620008dd578151620008c1888262000859565b9750620008ce8362000873565b925050600181019050620008aa565b5085935050505092915050565b600082825260208201905092915050565b60006200090882620004da565b620009148185620008ea565b93506200092183620004f6565b8060005b83811015620009585781516200093c888262000624565b975062000949836200063e565b92505060018101905062000925565b5085935050505092915050565b6000604083016000830151848203600086015262000984828262000880565b91505060208301518482036020860152620009a08282620008fb565b9150508091505092915050565b60006040820190508181036000830152620009c98185620007ec565b90508181036020830152620009df818462000965565b90509392505050565b600080fd5b600080fd5b7f4e487b7100000000000000000000000000000000000000000000000000000000600052604160045260246000fd5b62000a2c82620007db565b810181811067ffffffffffffffff8211171562000a4e5762000a4d620009f2565b5b80604052505050565b600062000a63620002dd565b905062000a71828262000a21565b919050565b600067ffffffffffffffff82111562000a945762000a93620009f2565b5b62000a9f82620007db565b9050602081019050919050565b82818337600083830152505050565b600062000ad262000acc8462000a76565b62000a57565b90508281526020810184848401111562000af15762000af0620009ed565b5b62000afe84828562000aac565b509392505050565b600082601f83011262000b1e5762000b1d620009e8565b5b813562000b3084826020860162000abb565b91505092915050565b6000806040838503121562000b535762000b52620002e7565b5b600062000b638582860162000436565b925050602083013567ffffffffffffffff81111562000b875762000b86620002ec565b5b62000b958582860162000b06565b9150509250929050565b600060408201905062000bb66000830185620003ee565b818103602083015262000bca818462000965565b90509392505050565b6000819050919050565b600062000bfe62000bf862000bf284620003ba565b62000bd3565b620003ba565b9050919050565b600062000c128262000bdd565b9050919050565b600062000c268262000c05565b9050919050565b62000c388162000c19565b82525050565b600060208201905062000c55600083018462000c2d565b9291505056fe60a060405234801561001057600080fd5b5060405161062e38038061062e833981810160405281019061003291906100e5565b80808073ffffffffffffffffffffffffffffffffffffffff1660808173ffffffffffffffffffffffffffffffffffffffff1681525050505050610112565b600080fd5b600073ffffffffffffffffffffffffffffffffffffffff82169050919050565b60006100a082610075565b9050919050565b60006100b282610095565b9050919050565b6100c2816100a7565b81146100cd57600080fd5b50565b6000815190506100df816100b9565b92915050565b6000602082840312156100fb576100fa610070565b5b6000610109848285016100d0565b91505092915050565b60805161050161012d600039600061015901526105016000f3fe608060405234801561001057600080fd5b506004361061004c5760003560e01c806301ffc9a7146100515780634162169f1461008157806341de68301461009f578063cfae3217146100bd575b600080fd5b61006b6004803603810190610066919061028a565b6100db565b60405161007891906102d2565b60405180910390f35b610089610155565b604051610096919061036c565b60405180910390f35b6100a761017d565b6040516100b491906103fe565b60405180910390f35b6100c5610186565b6040516100d291906104a9565b60405180910390f35b60007f41de6830000000000000000000000000000000000000000000000000000000007bffffffffffffffffffffffffffffffffffffffffffffffffffffffff1916827bffffffffffffffffffffffffffffffffffffffffffffffffffffffff1916148061014e575061014d826101c3565b5b9050919050565b60007f0000000000000000000000000000000000000000000000000000000000000000905090565b60006002905090565b60606040518060400160405280600c81526020017f48656c6c6f20776f726c64210000000000000000000000000000000000000000815250905090565b60007f01ffc9a7000000000000000000000000000000000000000000000000000000007bffffffffffffffffffffffffffffffffffffffffffffffffffffffff1916827bffffffffffffffffffffffffffffffffffffffffffffffffffffffff1916149050919050565b600080fd5b60007fffffffff0000000000000000000000000000000000000000000000000000000082169050919050565b61026781610232565b811461027257600080fd5b50565b6000813590506102848161025e565b92915050565b6000602082840312156102a05761029f61022d565b5b60006102ae84828501610275565b91505092915050565b60008115159050919050565b6102cc816102b7565b82525050565b60006020820190506102e760008301846102c3565b92915050565b600073ffffffffffffffffffffffffffffffffffffffff82169050919050565b6000819050919050565b600061033261032d610328846102ed565b61030d565b6102ed565b9050919050565b600061034482610317565b9050919050565b600061035682610339565b9050919050565b6103668161034b565b82525050565b6000602082019050610381600083018461035d565b92915050565b7f4e487b7100000000000000000000000000000000000000000000000000000000600052602160045260246000fd5b600381106103c7576103c6610387565b5b50565b60008190506103d8826103b6565b919050565b60006103e8826103ca565b9050919050565b6103f8816103dd565b82525050565b600060208201905061041360008301846103ef565b92915050565b600081519050919050565b600082825260208201905092915050565b60005b83811015610453578082015181840152602081019050610438565b60008484015250505050565b6000601f19601f8301169050919050565b600061047b82610419565b6104858185610424565b9350610495818560208601610435565b61049e8161045f565b840191505092915050565b600060208201905081810360008301526104c38184610470565b90509291505056fea26469706673582212206b56c00fdbdece61f53409aa647a858d273f9fb661616638db6561fa43a062bf64736f6c63430008110033a2646970667358221220a5f0568eb4c61cbb3cbeb02e884674b3f0c2a5f4290d2184a00afbde1d41950864736f6c63430008110033",
  "linkReferences": {},
  "deployedLinkReferences": {}
}