{"@sismo-core/sismo-connect-solidity/contracts/libs/utils/SignatureBuilder.sol":{"SignatureBuilder":{"abi":[{"inputs":[],"name":"DEFAULT_SIGNATURE_REQUEST_EXTRA_DATA","outputs":[{"internalType":"bytes","name":"","type":"bytes"}],"stateMutability":"view","type":"function"},{"inputs":[],"name":"DEFAULT_SIGNATURE_REQUEST_IS_SELECTABLE_BY_USER","outputs":[{"internalType":"bool","name":"","type":"bool"}],"stateMutability":"view","type":"function"},{"inputs":[],"name":"DEFAULT_SIGNATURE_REQUEST_MESSAGE","outputs":[{"internalType":"bytes","name":"","type":"bytes"}],"stateMutability":"view","type":"function"},{"inputs":[{"internalType":"bytes","name":"message","type":"bytes"},{"internalType":"bool","name":"isSelectableByUser","type":"bool"},{"internalType":"bytes","name":"extraData","type":"bytes"}],"name":"build","outputs":[{"components":[{"internalType":"bytes","name":"message","type":"bytes"},{"internalType":"bool","name":"isSelectableByUser","type":"bool"},{"internalType":"bytes","name":"extraData","type":"bytes"}],"internalType":"struct SignatureRequest","name":"","type":"tuple"}],"stateMutability":"pure","type":"function"},{"inputs":[{"internalType":"bool","name":"isSelectableByUser","type":"bool"}],"name":"build","outputs":[{"components":[{"internalType":"bytes","name":"message","type":"bytes"},{"internalType":"bool","name":"isSelectableByUser","type":"bool"},{"internalType":"bytes","name":"extraData","type":"bytes"}],"internalType":"struct SignatureRequest","name":"","type":"tuple"}],"stateMutability":"pure","type":"function"},{"inputs":[{"internalType":"bytes","name":"message","type":"bytes"},{"internalType":"bytes","name":"extraData","type":"bytes"}],"name":"build","outputs":[{"components":[{"internalType":"bytes","name":"message","type":"bytes"},{"internalType":"bool","name":"isSelectableByUser","type":"bool"},{"internalType":"bytes","name":"extraData","type":"bytes"}],"internalType":"struct SignatureRequest","name":"","type":"tuple"}],"stateMutability":"pure","type":"function"},{"inputs":[{"internalType":"bytes","name":"message","type":"bytes"},{"internalType":"bool","name":"isSelectableByUser","type":"bool"}],"name":"build","outputs":[{"components":[{"internalType":"bytes","name":"message","type":"bytes"},{"internalType":"bool","name":"isSelectableByUser","type":"bool"},{"internalType":"bytes","name":"extraData","type":"bytes"}],"internalType":"struct SignatureRequest","name":"","type":"tuple"}],"stateMutability":"pure","type":"function"},{"inputs":[{"internalType":"bytes","name":"message","type":"bytes"}],"name":"build","outputs":[{"components":[{"internalType":"bytes","name":"message","type":"bytes"},{"internalType":"bool","name":"isSelectableByUser","type":"bool"},{"internalType":"bytes","name":"extraData","type":"bytes"}],"internalType":"struct SignatureRequest","name":"","type":"tuple"}],"stateMutability":"pure","type":"function"},{"inputs":[{"internalType":"bool","name":"isSelectableByUser","type":"bool"},{"internalType":"bytes","name":"extraData","type":"bytes"}],"name":"build","outputs":[{"components":[{"internalType":"bytes","name":"message","type":"bytes"},{"internalType":"bool","name":"isSelectableByUser","type":"bool"},{"internalType":"bytes","name":"extraData","type":"bytes"}],"internalType":"struct SignatureRequest","name":"","type":"tuple"}],"stateMutability":"pure","type":"function"},{"inputs":[],"name":"buildEmpty","outputs":[{"components":[{"internalType":"bytes","name":"message","type":"bytes"},{"internalType":"bool","name":"isSelectableByUser","type":"bool"},{"internalType":"bytes","name":"extraData","type":"bytes"}],"internalType":"struct SignatureRequest","name":"","type":"tuple"}],"stateMutability":"pure","type":"function"}],"evm":{"bytecode":{"linkReferences":{},"object":"608060405234801561001057600080fd5b50610703806100206000396000f3fe608060405234801561001057600080fd5b506004361061009e5760003560e01c80636835f32c116100665780636835f32c1461022557806372915d89146102725780637476d1ac14610295578063800e65f214610304578063ac799cb31461036e57600080fd5b80631f785c95146100a35780633ed8572e146101005780635c4b7b60146101785780635de3b44c1461019057806364009b99146101d5575b600080fd5b6100ea6100b136600461045d565b60408051606080820183528082526000602083015291810191909152506040805160608101825293845291151560208401529082015290565b6040516100f79190610517565b60405180910390f35b6100ea61010e366004610565565b604080516060808201835280825260006020808401829052928401829052835160a08101855260189281019283527726a2a9a9a0a3a2afa9a2a622a1aa22a22fa12cafaaa9a2a960411b608082015291825293151581830152825191820183529281529082015290565b610180600081565b60405190151581526020016100f7565b6100ea61019e366004610587565b6040805160608082018352808252600060208301529181019190915250604080516060810182529283526000602084015282015290565b6100ea6101e33660046105eb565b60408051606080820183528082526000602080840182905292840182905283519182018452948152921515838201528151908101825292835281019190915290565b6100ea610233366004610639565b60408051606080820183528082526000602080840182905292840182905283519182018452938152808201849052825191820183529281529082015290565b6102886040518060200160405280600081525081565b6040516100f79190610676565b6100ea6102a3366004610689565b60408051606080820183528082526000602083015291810191909152506040805160a0810182526018606082019081527726a2a9a9a0a3a2afa9a2a622a1aa22a22fa12cafaaa9a2a960411b60808301528152921515602084015282015290565b604080516060808201835280825260006020808401829052928401829052835160a08101855260189281019283527726a2a9a9a0a3a2afa9a2a622a1aa22a22fa12cafaaa9a2a960411b6080820152918252818301819052835192830184528252918201526100ea565b6102886040518060400160405280601881526020017726a2a9a9a0a3a2afa9a2a622a1aa22a22fa12cafaaa9a2a960411b81525081565b634e487b7160e01b600052604160045260246000fd5b600082601f8301126103cc57600080fd5b813567ffffffffffffffff808211156103e7576103e76103a5565b604051601f8301601f19908116603f0116810190828211818310171561040f5761040f6103a5565b8160405283815286602085880101111561042857600080fd5b836020870160208301376000602085830101528094505050505092915050565b8035801515811461045857600080fd5b919050565b60008060006060848603121561047257600080fd5b833567ffffffffffffffff8082111561048a57600080fd5b610496878388016103bb565b94506104a460208701610448565b935060408601359150808211156104ba57600080fd5b506104c7868287016103bb565b9150509250925092565b6000815180845260005b818110156104f7576020818501810151868301820152016104db565b506000602082860101526020601f19601f83011685010191505092915050565b60208152600082516060602084015261053360808401826104d1565b90506020840151151560408401526040840151601f1984830301606085015261055c82826104d1565b95945050505050565b60006020828403121561057757600080fd5b61058082610448565b9392505050565b6000806040838503121561059a57600080fd5b823567ffffffffffffffff808211156105b257600080fd5b6105be868387016103bb565b935060208501359150808211156105d457600080fd5b506105e1858286016103bb565b9150509250929050565b600080604083850312156105fe57600080fd5b823567ffffffffffffffff81111561061557600080fd5b610621858286016103bb565b92505061063060208401610448565b90509250929050565b60006020828403121561064b57600080fd5b813567ffffffffffffffff81111561066257600080fd5b61066e848285016103bb565b949350505050565b60208152600061058060208301846104d1565b6000806040838503121561069c57600080fd5b6106a583610448565b9150602083013567ffffffffffffffff8111156106c157600080fd5b6105e1858286016103bb56fea2646970667358221220a2e759c32b327b4cfb79d7e35191e1084d4bc26ea0a95af545e33ec4e0a8dee364736f6c63430008110033","opcodes":"PUSH1 0x80 PUSH1 0x40 MSTORE CALLVALUE DUP1 ISZERO PUSH2 0x10 JUMPI PUSH1 0x0 DUP1 REVERT JUMPDEST POP PUSH2 0x703 DUP1 PUSH2 0x20 PUSH1 0x0 CODECOPY PUSH1 0x0 RETURN INVALID PUSH1 0x80 PUSH1 0x40 MSTORE CALLVALUE DUP1 ISZERO PUSH2 0x10 JUMPI PUSH1 0x0 DUP1 REVERT JUMPDEST POP PUSH1 0x4 CALLDATASIZE LT PUSH2 0x9E JUMPI PUSH1 0x0 CALLDATALOAD PUSH1 0xE0 SHR DUP1 PUSH4 0x6835F32C GT PUSH2 0x66 JUMPI DUP1 PUSH4 0x6835F32C EQ PUSH2 0x225 JUMPI DUP1 PUSH4 0x72915D89 EQ PUSH2 0x272 JUMPI DUP1 PUSH4 0x7476D1AC EQ PUSH2 0x295 JUMPI DUP1 PUSH4 0x800E65F2 EQ PUSH2 0x304 JUMPI DUP1 PUSH4 0xAC799CB3 EQ PUSH2 0x36E JUMPI PUSH1 0x0 DUP1 REVERT JUMPDEST DUP1 PUSH4 0x1F785C95 EQ PUSH2 0xA3 JUMPI DUP1 PUSH4 0x3ED8572E EQ PUSH2 0x100 JUMPI DUP1 PUSH4 0x5C4B7B60 EQ PUSH2 0x178 JUMPI DUP1 PUSH4 0x5DE3B44C EQ PUSH2 0x190 JUMPI DUP1 PUSH4 0x64009B99 EQ PUSH2 0x1D5 JUMPI JUMPDEST PUSH1 0x0 DUP1 REVERT JUMPDEST PUSH2 0xEA PUSH2 0xB1 CALLDATASIZE PUSH1 0x4 PUSH2 0x45D JUMP JUMPDEST PUSH1 0x40 DUP1 MLOAD PUSH1 0x60 DUP1 DUP3 ADD DUP4 MSTORE DUP1 DUP3 MSTORE PUSH1 0x0 PUSH1 0x20 DUP4 ADD MSTORE SWAP2 DUP2 ADD SWAP2 SWAP1 SWAP2 MSTORE POP PUSH1 0x40 DUP1 MLOAD PUSH1 0x60 DUP2 ADD DUP3 MSTORE SWAP4 DUP5 MSTORE SWAP2 ISZERO ISZERO PUSH1 0x20 DUP5 ADD MSTORE SWAP1 DUP3 ADD MSTORE SWAP1 JUMP JUMPDEST PUSH1 0x40 MLOAD PUSH2 0xF7 SWAP2 SWAP1 PUSH2 0x517 JUMP JUMPDEST PUSH1 0x40 MLOAD DUP1 SWAP2 SUB SWAP1 RETURN JUMPDEST PUSH2 0xEA PUSH2 0x10E CALLDATASIZE PUSH1 0x4 PUSH2 0x565 JUMP JUMPDEST PUSH1 0x40 DUP1 MLOAD PUSH1 0x60 DUP1 DUP3 ADD DUP4 MSTORE DUP1 DUP3 MSTORE PUSH1 0x0 PUSH1 0x20 DUP1 DUP5 ADD DUP3 SWAP1 MSTORE SWAP3 DUP5 ADD DUP3 SWAP1 MSTORE DUP4 MLOAD PUSH1 0xA0 DUP2 ADD DUP6 MSTORE PUSH1 0x18 SWAP3 DUP2 ADD SWAP3 DUP4 MSTORE PUSH24 0x26A2A9A9A0A3A2AFA9A2A622A1AA22A22FA12CAFAAA9A2A9 PUSH1 0x41 SHL PUSH1 0x80 DUP3 ADD MSTORE SWAP2 DUP3 MSTORE SWAP4 ISZERO ISZERO DUP2 DUP4 ADD MSTORE DUP3 MLOAD SWAP2 DUP3 ADD DUP4 MSTORE SWAP3 DUP2 MSTORE SWAP1 DUP3 ADD MSTORE SWAP1 JUMP JUMPDEST PUSH2 0x180 PUSH1 0x0 DUP2 JUMP JUMPDEST PUSH1 0x40 MLOAD SWAP1 ISZERO ISZERO DUP2 MSTORE PUSH1 0x20 ADD PUSH2 0xF7 JUMP JUMPDEST PUSH2 0xEA PUSH2 0x19E CALLDATASIZE PUSH1 0x4 PUSH2 0x587 JUMP JUMPDEST PUSH1 0x40 DUP1 MLOAD PUSH1 0x60 DUP1 DUP3 ADD DUP4 MSTORE DUP1 DUP3 MSTORE PUSH1 0x0 PUSH1 0x20 DUP4 ADD MSTORE SWAP2 DUP2 ADD SWAP2 SWAP1 SWAP2 MSTORE POP PUSH1 0x40 DUP1 MLOAD PUSH1 0x60 DUP2 ADD DUP3 MSTORE SWAP3 DUP4 MSTORE PUSH1 0x0 PUSH1 0x20 DUP5 ADD MSTORE DUP3 ADD MSTORE SWAP1 JUMP JUMPDEST PUSH2 0xEA PUSH2 0x1E3 CALLDATASIZE PUSH1 0x4 PUSH2 0x5EB JUMP JUMPDEST PUSH1 0x40 DUP1 MLOAD PUSH1 0x60 DUP1 DUP3 ADD DUP4 MSTORE DUP1 DUP3 MSTORE PUSH1 0x0 PUSH1 0x20 DUP1 DUP5 ADD DUP3 SWAP1 MSTORE SWAP3 DUP5 ADD DUP3 SWAP1 MSTORE DUP4 MLOAD SWAP2 DUP3 ADD DUP5 MSTORE SWAP5 DUP2 MSTORE SWAP3 ISZERO ISZERO DUP4 DUP3 ADD MSTORE DUP2 MLOAD SWAP1 DUP2 ADD DUP3 MSTORE SWAP3 DUP4 MSTORE DUP2 ADD SWAP2 SWAP1 SWAP2 MSTORE SWAP1 JUMP JUMPDEST PUSH2 0xEA PUSH2 0x233 CALLDATASIZE PUSH1 0x4 PUSH2 0x639 JUMP JUMPDEST PUSH1 0x40 DUP1 MLOAD PUSH1 0x60 DUP1 DUP3 ADD DUP4 MSTORE DUP1 DUP3 MSTORE PUSH1 0x0 PUSH1 0x20 DUP1 DUP5 ADD DUP3 SWAP1 MSTORE SWAP3 DUP5 ADD DUP3 SWAP1 MSTORE DUP4 MLOAD SWAP2 DUP3 ADD DUP5 MSTORE SWAP4 DUP2 MSTORE DUP1 DUP3 ADD DUP5 SWAP1 MSTORE DUP3 MLOAD SWAP2 DUP3 ADD DUP4 MSTORE SWAP3 DUP2 MSTORE SWAP1 DUP3 ADD MSTORE SWAP1 JUMP JUMPDEST PUSH2 0x288 PUSH1 0x40 MLOAD DUP1 PUSH1 0x20 ADD PUSH1 0x40 MSTORE DUP1 PUSH1 0x0 DUP2 MSTORE POP DUP2 JUMP JUMPDEST PUSH1 0x40 MLOAD PUSH2 0xF7 SWAP2 SWAP1 PUSH2 0x676 JUMP JUMPDEST PUSH2 0xEA PUSH2 0x2A3 CALLDATASIZE PUSH1 0x4 PUSH2 0x689 JUMP JUMPDEST PUSH1 0x40 DUP1 MLOAD PUSH1 0x60 DUP1 DUP3 ADD DUP4 MSTORE DUP1 DUP3 MSTORE PUSH1 0x0 PUSH1 0x20 DUP4 ADD MSTORE SWAP2 DUP2 ADD SWAP2 SWAP1 SWAP2 MSTORE POP PUSH1 0x40 DUP1 MLOAD PUSH1 0xA0 DUP2 ADD DUP3 MSTORE PUSH1 0x18 PUSH1 0x60 DUP3 ADD SWAP1 DUP2 MSTORE PUSH24 0x26A2A9A9A0A3A2AFA9A2A622A1AA22A22FA12CAFAAA9A2A9 PUSH1 0x41 SHL PUSH1 0x80 DUP4 ADD MSTORE DUP2 MSTORE SWAP3 ISZERO ISZERO PUSH1 0x20 DUP5 ADD MSTORE DUP3 ADD MSTORE SWAP1 JUMP JUMPDEST PUSH1 0x40 DUP1 MLOAD PUSH1 0x60 DUP1 DUP3 ADD DUP4 MSTORE DUP1 DUP3 MSTORE PUSH1 0x0 PUSH1 0x20 DUP1 DUP5 ADD DUP3 SWAP1 MSTORE SWAP3 DUP5 ADD DUP3 SWAP1 MSTORE DUP4 MLOAD PUSH1 0xA0 DUP2 ADD DUP6 MSTORE PUSH1 0x18 SWAP3 DUP2 ADD SWAP3 DUP4 MSTORE PUSH24 0x26A2A9A9A0A3A2AFA9A2A622A1AA22A22FA12CAFAAA9A2A9 PUSH1 0x41 SHL PUSH1 0x80 DUP3 ADD MSTORE SWAP2 DUP3 MSTORE DUP2 DUP4 ADD DUP2 SWAP1 MSTORE DUP4 MLOAD SWAP3 DUP4 ADD DUP5 MSTORE DUP3 MSTORE SWAP2 DUP3 ADD MSTORE PUSH2 0xEA JUMP JUMPDEST PUSH2 0x288 PUSH1 0x40 MLOAD DUP1 PUSH1 0x40 ADD PUSH1 0x40 MSTORE DUP1 PUSH1 0x18 DUP2 MSTORE PUSH1 0x20 ADD PUSH24 0x26A2A9A9A0A3A2AFA9A2A622A1AA22A22FA12CAFAAA9A2A9 PUSH1 0x41 SHL DUP2 MSTORE POP DUP2 JUMP JUMPDEST PUSH4 0x4E487B71 PUSH1 0xE0 SHL PUSH1 0x0 MSTORE PUSH1 0x41 PUSH1 0x4 MSTORE PUSH1 0x24 PUSH1 0x0 REVERT JUMPDEST PUSH1 0x0 DUP3 PUSH1 0x1F DUP4 ADD SLT PUSH2 0x3CC JUMPI PUSH1 0x0 DUP1 REVERT JUMPDEST DUP2 CALLDATALOAD PUSH8 0xFFFFFFFFFFFFFFFF DUP1 DUP3 GT ISZERO PUSH2 0x3E7 JUMPI PUSH2 0x3E7 PUSH2 0x3A5 JUMP JUMPDEST PUSH1 0x40 MLOAD PUSH1 0x1F DUP4 ADD PUSH1 0x1F NOT SWAP1 DUP2 AND PUSH1 0x3F ADD AND DUP2 ADD SWAP1 DUP3 DUP3 GT DUP2 DUP4 LT OR ISZERO PUSH2 0x40F JUMPI PUSH2 0x40F PUSH2 0x3A5 JUMP JUMPDEST DUP2 PUSH1 0x40 MSTORE DUP4 DUP2 MSTORE DUP7 PUSH1 0x20 DUP6 DUP9 ADD ADD GT ISZERO PUSH2 0x428 JUMPI PUSH1 0x0 DUP1 REVERT JUMPDEST DUP4 PUSH1 0x20 DUP8 ADD PUSH1 0x20 DUP4 ADD CALLDATACOPY PUSH1 0x0 PUSH1 0x20 DUP6 DUP4 ADD ADD MSTORE DUP1 SWAP5 POP POP POP POP POP SWAP3 SWAP2 POP POP JUMP JUMPDEST DUP1 CALLDATALOAD DUP1 ISZERO ISZERO DUP2 EQ PUSH2 0x458 JUMPI PUSH1 0x0 DUP1 REVERT JUMPDEST SWAP2 SWAP1 POP JUMP JUMPDEST PUSH1 0x0 DUP1 PUSH1 0x0 PUSH1 0x60 DUP5 DUP7 SUB SLT ISZERO PUSH2 0x472 JUMPI PUSH1 0x0 DUP1 REVERT JUMPDEST DUP4 CALLDATALOAD PUSH8 0xFFFFFFFFFFFFFFFF DUP1 DUP3 GT ISZERO PUSH2 0x48A JUMPI PUSH1 0x0 DUP1 REVERT JUMPDEST PUSH2 0x496 DUP8 DUP4 DUP9 ADD PUSH2 0x3BB JUMP JUMPDEST SWAP5 POP PUSH2 0x4A4 PUSH1 0x20 DUP8 ADD PUSH2 0x448 JUMP JUMPDEST SWAP4 POP PUSH1 0x40 DUP7 ADD CALLDATALOAD SWAP2 POP DUP1 DUP3 GT ISZERO PUSH2 0x4BA JUMPI PUSH1 0x0 DUP1 REVERT JUMPDEST POP PUSH2 0x4C7 DUP7 DUP3 DUP8 ADD PUSH2 0x3BB JUMP JUMPDEST SWAP2 POP POP SWAP3 POP SWAP3 POP SWAP3 JUMP JUMPDEST PUSH1 0x0 DUP2 MLOAD DUP1 DUP5 MSTORE PUSH1 0x0 JUMPDEST DUP2 DUP2 LT ISZERO PUSH2 0x4F7 JUMPI PUSH1 0x20 DUP2 DUP6 ADD DUP2 ADD MLOAD DUP7 DUP4 ADD DUP3 ADD MSTORE ADD PUSH2 0x4DB JUMP JUMPDEST POP PUSH1 0x0 PUSH1 0x20 DUP3 DUP7 ADD ADD MSTORE PUSH1 0x20 PUSH1 0x1F NOT PUSH1 0x1F DUP4 ADD AND DUP6 ADD ADD SWAP2 POP POP SWAP3 SWAP2 POP POP JUMP JUMPDEST PUSH1 0x20 DUP2 MSTORE PUSH1 0x0 DUP3 MLOAD PUSH1 0x60 PUSH1 0x20 DUP5 ADD MSTORE PUSH2 0x533 PUSH1 0x80 DUP5 ADD DUP3 PUSH2 0x4D1 JUMP JUMPDEST SWAP1 POP PUSH1 0x20 DUP5 ADD MLOAD ISZERO ISZERO PUSH1 0x40 DUP5 ADD MSTORE PUSH1 0x40 DUP5 ADD MLOAD PUSH1 0x1F NOT DUP5 DUP4 SUB ADD PUSH1 0x60 DUP6 ADD MSTORE PUSH2 0x55C DUP3 DUP3 PUSH2 0x4D1 JUMP JUMPDEST SWAP6 SWAP5 POP POP POP POP POP JUMP JUMPDEST PUSH1 0x0 PUSH1 0x20 DUP3 DUP5 SUB SLT ISZERO PUSH2 0x577 JUMPI PUSH1 0x0 DUP1 REVERT JUMPDEST PUSH2 0x580 DUP3 PUSH2 0x448 JUMP JUMPDEST SWAP4 SWAP3 POP POP POP JUMP JUMPDEST PUSH1 0x0 DUP1 PUSH1 0x40 DUP4 DUP6 SUB SLT ISZERO PUSH2 0x59A JUMPI PUSH1 0x0 DUP1 REVERT JUMPDEST DUP3 CALLDATALOAD PUSH8 0xFFFFFFFFFFFFFFFF DUP1 DUP3 GT ISZERO PUSH2 0x5B2 JUMPI PUSH1 0x0 DUP1 REVERT JUMPDEST PUSH2 0x5BE DUP7 DUP4 DUP8 ADD PUSH2 0x3BB JUMP JUMPDEST SWAP4 POP PUSH1 0x20 DUP6 ADD CALLDATALOAD SWAP2 POP DUP1 DUP3 GT ISZERO PUSH2 0x5D4 JUMPI PUSH1 0x0 DUP1 REVERT JUMPDEST POP PUSH2 0x5E1 DUP6 DUP3 DUP7 ADD PUSH2 0x3BB JUMP JUMPDEST SWAP2 POP POP SWAP3 POP SWAP3 SWAP1 POP JUMP JUMPDEST PUSH1 0x0 DUP1 PUSH1 0x40 DUP4 DUP6 SUB SLT ISZERO PUSH2 0x5FE JUMPI PUSH1 0x0 DUP1 REVERT JUMPDEST DUP3 CALLDATALOAD PUSH8 0xFFFFFFFFFFFFFFFF DUP2 GT ISZERO PUSH2 0x615 JUMPI PUSH1 0x0 DUP1 REVERT JUMPDEST PUSH2 0x621 DUP6 DUP3 DUP7 ADD PUSH2 0x3BB JUMP JUMPDEST SWAP3 POP POP PUSH2 0x630 PUSH1 0x20 DUP5 ADD PUSH2 0x448 JUMP JUMPDEST SWAP1 POP SWAP3 POP SWAP3 SWAP1 POP JUMP JUMPDEST PUSH1 0x0 PUSH1 0x20 DUP3 DUP5 SUB SLT ISZERO PUSH2 0x64B JUMPI PUSH1 0x0 DUP1 REVERT JUMPDEST DUP2 CALLDATALOAD PUSH8 0xFFFFFFFFFFFFFFFF DUP2 GT ISZERO PUSH2 0x662 JUMPI PUSH1 0x0 DUP1 REVERT JUMPDEST PUSH2 0x66E DUP5 DUP3 DUP6 ADD PUSH2 0x3BB JUMP JUMPDEST SWAP5 SWAP4 POP POP POP POP JUMP JUMPDEST PUSH1 0x20 DUP2 MSTORE PUSH1 0x0 PUSH2 0x580 PUSH1 0x20 DUP4 ADD DUP5 PUSH2 0x4D1 JUMP JUMPDEST PUSH1 0x0 DUP1 PUSH1 0x40 DUP4 DUP6 SUB SLT ISZERO PUSH2 0x69C JUMPI PUSH1 0x0 DUP1 REVERT JUMPDEST PUSH2 0x6A5 DUP4 PUSH2 0x448 JUMP JUMPDEST SWAP2 POP PUSH1 0x20 DUP4 ADD CALLDATALOAD PUSH8 0xFFFFFFFFFFFFFFFF DUP2 GT ISZERO PUSH2 0x6C1 JUMPI PUSH1 0x0 DUP1 REVERT JUMPDEST PUSH2 0x5E1 DUP6 DUP3 DUP7 ADD PUSH2 0x3BB JUMP INVALID LOG2 PUSH5 0x6970667358 0x22 SLT KECCAK256 LOG2 0xE7 MSIZE 0xC3 0x2B ORIGIN PUSH28 0x4CFB79D7E35191E1084D4BC26EA0A95AF545E33EC4E0A8DEE364736F PUSH13 0x63430008110033000000000000 "},"methodIdentifiers":{"DEFAULT_SIGNATURE_REQUEST_EXTRA_DATA()":"72915d89","DEFAULT_SIGNATURE_REQUEST_IS_SELECTABLE_BY_USER()":"5c4b7b60","DEFAULT_SIGNATURE_REQUEST_MESSAGE()":"ac799cb3","build(bool)":"3ed8572e","build(bool,bytes)":"7476d1ac","build(bytes)":"6835f32c","build(bytes,bool)":"64009b99","build(bytes,bool,bytes)":"1f785c95","build(bytes,bytes)":"5de3b44c","buildEmpty()":"800e65f2"}}}}}