{"contracts/SismoVerifier.sol":{"SismoVerifier":{"abi":[{"inputs":[],"stateMutability":"nonpayable","type":"constructor"},{"anonymous":false,"inputs":[{"components":[{"internalType":"bytes16","name":"appId","type":"bytes16"},{"internalType":"bytes16","name":"namespace","type":"bytes16"},{"internalType":"bytes32","name":"version","type":"bytes32"},{"components":[{"internalType":"enum AuthType","name":"authType","type":"uint8"},{"internalType":"bool","name":"isAnon","type":"bool"},{"internalType":"uint256","name":"userId","type":"uint256"},{"internalType":"bytes","name":"extraData","type":"bytes"},{"internalType":"bytes","name":"proofData","type":"bytes"}],"internalType":"struct VerifiedAuth[]","name":"auths","type":"tuple[]"},{"components":[{"internalType":"enum ClaimType","name":"claimType","type":"uint8"},{"internalType":"bytes16","name":"groupId","type":"bytes16"},{"internalType":"bytes16","name":"groupTimestamp","type":"bytes16"},{"internalType":"uint256","name":"value","type":"uint256"},{"internalType":"bytes","name":"extraData","type":"bytes"},{"internalType":"uint256","name":"proofId","type":"uint256"},{"internalType":"bytes","name":"proofData","type":"bytes"}],"internalType":"struct VerifiedClaim[]","name":"claims","type":"tuple[]"},{"internalType":"bytes","name":"signedMessage","type":"bytes"}],"indexed":false,"internalType":"struct SismoConnectVerifiedResult","name":"result","type":"tuple"}],"name":"ResponseVerified","type":"event"},{"inputs":[],"name":"ADDRESSES_PROVIDER_V2","outputs":[{"internalType":"contract IAddressesProvider","name":"","type":"address"}],"stateMutability":"view","type":"function"},{"inputs":[],"name":"APP_ID","outputs":[{"internalType":"bytes16","name":"","type":"bytes16"}],"stateMutability":"view","type":"function"},{"inputs":[],"name":"IS_IMPERSONATION_MODE","outputs":[{"internalType":"bool","name":"","type":"bool"}],"stateMutability":"view","type":"function"},{"inputs":[],"name":"SISMO_CONNECT_LIB_VERSION","outputs":[{"internalType":"uint256","name":"","type":"uint256"}],"stateMutability":"view","type":"function"},{"inputs":[],"name":"config","outputs":[{"components":[{"internalType":"bytes16","name":"appId","type":"bytes16"},{"components":[{"internalType":"bool","name":"isImpersonationMode","type":"bool"}],"internalType":"struct VaultConfig","name":"vault","type":"tuple"}],"internalType":"struct SismoConnectConfig","name":"","type":"tuple"}],"stateMutability":"view","type":"function"},{"inputs":[{"internalType":"bytes","name":"response","type":"bytes"},{"internalType":"bytes","name":"message","type":"bytes"}],"name":"verifyCitizen","outputs":[],"stateMutability":"nonpayable","type":"function"},{"inputs":[{"internalType":"bytes","name":"response","type":"bytes"},{"internalType":"bytes","name":"message","type":"bytes"}],"name":"verifyPolitician","outputs":[],"stateMutability":"nonpayable","type":"function"}],"evm":{"bytecode":{"linkReferences":{},"object":"610160604052600080546001600160881b031916700132403ced4b65f2079eda77c84e7d2be61790553480156200003557600080fd5b506000546200005490608081901b90600160801b900460ff166200041c565b80516001600160801b0319166101205260208082015151151561014052604080518082018252601981527f7369736d6f436f6e6e65637456657269666965722d76312e3200000000000000928101929092525163349f642f60e11b8152733cd5334eb64ebbd4003b72022cc25465f1bfcee69163693ec85e91620000dc91906004016200047e565b602060405180830381865afa158015620000fa573d6000803e3d6000fd5b505050506040513d601f19601f82011682018060405250810190620001209190620004ce565b6001600160a01b0316608052604080518082018252601781527f61757468526571756573744275696c6465722d76312e310000000000000000006020820152905163349f642f60e11b8152733cd5334eb64ebbd4003b72022cc25465f1bfcee69163693ec85e916200019691906004016200047e565b602060405180830381865afa158015620001b4573d6000803e3d6000fd5b505050506040513d601f19601f82011682018060405250810190620001da9190620004ce565b6001600160a01b031660a052604080518082018252601881527f636c61696d526571756573744275696c6465722d76312e3100000000000000006020820152905163349f642f60e11b8152733cd5334eb64ebbd4003b72022cc25465f1bfcee69163693ec85e916200025091906004016200047e565b602060405180830381865afa1580156200026e573d6000803e3d6000fd5b505050506040513d601f19601f82011682018060405250810190620002949190620004ce565b6001600160a01b031660c052604080518082018252601581527f7369676e61747572654275696c6465722d76312e3100000000000000000000006020820152905163349f642f60e11b8152733cd5334eb64ebbd4003b72022cc25465f1bfcee69163693ec85e916200030a91906004016200047e565b602060405180830381865afa15801562000328573d6000803e3d6000fd5b505050506040513d601f19601f820116820180604052508101906200034e9190620004ce565b6001600160a01b031660e052604080518082018252601381527f726571756573744275696c6465722d76312e31000000000000000000000000006020820152905163349f642f60e11b8152733cd5334eb64ebbd4003b72022cc25465f1bfcee69163693ec85e91620003c491906004016200047e565b602060405180830381865afa158015620003e2573d6000803e3d6000fd5b505050506040513d601f19601f82011682018060405250810190620004089190620004ce565b6001600160a01b0316610100525062000500565b62000443604080518082018252600080825282516020818101909452908152909182015290565b506040805180820182526001600160801b03199390931683528051602080820183526000909152815180820190925291151581529082015290565b600060208083528351808285015260005b81811015620004ad578581018301518582016040015282016200048f565b506000604082860101526040601f19601f8301168501019250505092915050565b600060208284031215620004e157600080fd5b81516001600160a01b0381168114620004f957600080fd5b9392505050565b60805160a05160c05160e051610100516101205161014051611ba0620005656000396000818160e901526101d001526000818161013301526101af015260006105e001526000610440015260006103a2015260005050600061051b0152611ba06000f3fe608060405234801561001057600080fd5b506004361061007d5760003560e01c8063a183dc271161005b578063a183dc27146100e4578063bbc4cf0c1461011b578063c187bbc11461012e578063c9512d991461016e57600080fd5b8063469163011461008257806379502c55146100ba57806381d6ef2d146100cf575b600080fd5b61009d733cd5334eb64ebbd4003b72022cc25465f1bfcee681565b6040516001600160a01b0390911681526020015b60405180910390f35b6100c2610184565b6040516100b191906106f8565b6100e26100dd36600461086d565b6101f9565b005b61010b7f000000000000000000000000000000000000000000000000000000000000000081565b60405190151581526020016100b1565b6100e261012936600461086d565b6102bb565b6101557f000000000000000000000000000000000000000000000000000000000000000081565b6040516001600160801b031990911681526020016100b1565b610176600281565b6040519081526020016100b1565b6101aa604080518082018252600080825282516020818101909452908152909182015290565b6101f47f00000000000000000000000000000000000000000000000000000000000000007f000000000000000000000000000000000000000000000000000000000000000061030b565b905090565b604080516001808252818301909252600091816020015b610218610668565b8152602001906001900390816102105790505090506102496f6e41539fdb94fe30e82d46d7f664860f60801b61037b565b8160008151811061025c5761025c6108d0565b6020026020010181905250600061027c848361027786610419565b6104c2565b90507f9289e35b3d969e3d006d5d4306119c6719c081660cf5b89a43654f2420a06668816040516102ad9190610a37565b60405180910390a150505050565b604080516001808252818301909252600091816020015b6102da610668565b8152602001906001900390816102d25790505090506102496fe57abdb9acb2d308d4ec1a12833e1c9f60801b61037b565b610331604080518082018252600080825282516020818101909452908152909182015290565b6040518060400160405280846001600160801b031916815260200161037084604080516020808201835260009091528151908101909152901515815290565b905290505b92915050565b610383610668565b6040516338de608760e21b81526001600160801b0319831660048201527f00000000000000000000000000000000000000000000000000000000000000006001600160a01b03169063e379821c90602401600060405180830381865afa1580156103f1573d6000803e3d6000fd5b505050506040513d6000823e601f3d908101601f191682016040526103759190810190610c8e565b604080516060808201835280825260006020830152818301529051631a0d7ccb60e21b81527f00000000000000000000000000000000000000000000000000000000000000006001600160a01b031690636835f32c9061047d908590600401610cc2565b600060405180830381865afa15801561049a573d6000803e3d6000fd5b505050506040513d6000823e601f3d908101601f191682016040526103759190810190610d6f565b6040805160c0810182526000808252602082018190529181019190915260608082018190526080820181905260a08201526000848060200190518101906105099190610fe2565b9050600061051785856105c1565b90507f00000000000000000000000000000000000000000000000000000000000000006001600160a01b03166312b037ff8383610552610184565b6040518463ffffffff1660e01b81526004016105709392919061142f565b6000604051808303816000875af115801561058f573d6000803e3d6000fd5b505050506040513d6000823e601f3d908101601f191682016040526105b79190810190611831565b9695505050505050565b6105c96106a8565b60405163b5ae258760e01b81526001600160a01b037f0000000000000000000000000000000000000000000000000000000000000000169063b5ae2587906106179086908690600401611911565b600060405180830381865afa158015610634573d6000803e3d6000fd5b505050506040513d6000823e601f3d908101601f1916820160405261065c91908101906119b5565b9392505050565b905290565b6040805160e0810190915280600081526000602082018190526040820181905260608083018290526080830182905260a083019190915260c09091015290565b604051806080016040528060006001600160801b03191681526020016060815260200160608152602001610663604051806060016040528060608152602001600015158152602001606081525090565b81516001600160801b03191681526020808301515115159082015260408101610375565b634e487b7160e01b600052604160045260246000fd5b60405160e081016001600160401b03811182821017156107545761075461071c565b60405290565b60405160a081016001600160401b03811182821017156107545761075461071c565b60405160c081016001600160401b03811182821017156107545761075461071c565b604051608081016001600160401b03811182821017156107545761075461071c565b604051601f8201601f191681016001600160401b03811182821017156107e8576107e861071c565b604052919050565b60006001600160401b038211156108095761080961071c565b50601f01601f191660200190565b600082601f83011261082857600080fd5b813561083b610836826107f0565b6107c0565b81815284602083860101111561085057600080fd5b816020850160208301376000918101602001919091529392505050565b6000806040838503121561088057600080fd5b82356001600160401b038082111561089757600080fd5b6108a386838701610817565b935060208501359150808211156108b957600080fd5b506108c685828601610817565b9150509250929050565b634e487b7160e01b600052603260045260246000fd5b634e487b7160e01b600052602160045260246000fd5b6006811061090c5761090c6108e6565b9052565b60005b8381101561092b578181015183820152602001610913565b50506000910152565b6000815180845261094c816020860160208601610910565b601f01601f19169290920160200192915050565b6005811061090c5761090c6108e6565b600081518084526020808501808196508360051b8101915082860160005b85811015610a2a578284038952815160e06109aa868351610960565b818701516001600160801b03199081168789015260408084015190911690870152606080830151908701526080808301518188018390526109ed83890182610934565b9250505060a080830151818801525060c08083015192508682038188015250610a168183610934565b9a87019a955050509084019060010161098e565b5091979650505050505050565b6000602080835260e083016001600160801b0319808651168386015282860151604082821681880152808801519250606091508282880152818801519250608060c0818901528484518087526101009650868a019150868160051b8b01019650878601955060005b81811015610b145760ff198b8903018352865160a0610abf8a83516108fc565b8a82015115158b8b015286820151878b01528782015181898c0152610ae6828c0182610934565b915050858201519150898103868b0152610b008183610934565b995050509588019591880191600101610a9f565b50505080890151955050505050601f19808583030160a0860152610b388284610970565b925060a08601519150808584030160c086015250610b568282610934565b95945050505050565b805160058110610b6e57600080fd5b919050565b80516001600160801b031981168114610b6e57600080fd5b80518015158114610b6e57600080fd5b600082601f830112610bac57600080fd5b8151610bba610836826107f0565b818152846020838601011115610bcf57600080fd5b610be0826020830160208701610910565b949350505050565b600060e08284031215610bfa57600080fd5b610c02610732565b9050610c0d82610b5f565b8152610c1b60208301610b73565b6020820152610c2c60408301610b73565b604082015260608201516060820152610c4760808301610b8b565b6080820152610c5860a08301610b8b565b60a082015260c08201516001600160401b03811115610c7657600080fd5b610c8284828501610b9b565b60c08301525092915050565b600060208284031215610ca057600080fd5b81516001600160401b03811115610cb657600080fd5b610be084828501610be8565b60208152600061065c6020830184610934565b600060608284031215610ce757600080fd5b604051606081016001600160401b038282108183111715610d0a57610d0a61071c565b816040528293508451915080821115610d2257600080fd5b610d2e86838701610b9b565b8352610d3c60208601610b8b565b60208401526040850151915080821115610d5557600080fd5b50610d6285828601610b9b565b6040830152505092915050565b600060208284031215610d8157600080fd5b81516001600160401b03811115610d9757600080fd5b610be084828501610cd5565b60006001600160401b03821115610dbc57610dbc61071c565b5060051b60200190565b805160068110610b6e57600080fd5b600082601f830112610de657600080fd5b81516020610df661083683610da3565b82815260059290921b84018101918181019086841115610e1557600080fd5b8286015b84811015610ecd5780516001600160401b0380821115610e395760008081fd5b9088019060a0828b03601f1901811315610e535760008081fd5b610e5b61075a565b610e66888501610dc6565b81526040610e75818601610b8b565b898301526060610e86818701610b8b565b828401526080915081860151818401525082850151925083831115610eab5760008081fd5b610eb98d8a85880101610b9b565b908201528652505050918301918301610e19565b509695505050505050565b600082601f830112610ee957600080fd5b81516020610ef961083683610da3565b82815260059290921b84018101918181019086841115610f1857600080fd5b8286015b84811015610ecd5780516001600160401b0380821115610f3c5760008081fd5b9088019060c0828b03601f1901811315610f565760008081fd5b610f5e61077c565b610f69888501610b5f565b81526040610f78818601610b73565b898301526060610f89818701610b73565b8284015260809150610f9c828701610b8b565b9083015260a08581015182840152928501519284841115610fbf57600091508182fd5b610fcd8e8b86890101610b9b565b90830152508652505050918301918301610f1c565b60006020808385031215610ff557600080fd5b82516001600160401b038082111561100c57600080fd5b9084019060a0828703121561102057600080fd5b61102861075a565b61103183610b73565b815261103e848401610b73565b848201526040830151604082015260608301518281111561105e57600080fd5b61106a88828601610b9b565b6060830152506080808401518381111561108357600080fd5b80850194505087601f85011261109857600080fd5b83516110a661083682610da3565b81815260059190911b8501860190868101908a8311156110c557600080fd5b8787015b838110156111ad578051878111156110e15760008081fd5b880160a0818e03601f190112156110f85760008081fd5b61110061075a565b8a820151898111156111125760008081fd5b6111208f8d83860101610dd5565b8252506040820151898111156111365760008081fd5b6111448f8d83860101610ed8565b8c830152506060820151604082015286820151898111156111655760008081fd5b6111738f8d83860101610b9b565b60608301525060a08201518981111561118c5760008081fd5b61119a8f8d83860101610b9b565b82890152508452509188019188016110c9565b50928401929092525090979650505050505050565b600081518084526020808501808196508360051b8101915082860160005b85811015610a2a578284038952815160c06111fc868351610960565b818701516001600160801b031990811687890152604080840151909116908701526060808301511515908701526080808301519087015260a09182015191860181905261124b81870183610934565b9a87019a95505050908401906001016111e0565b600081518084526020808501808196508360051b8101915082860160005b85811015610a2a578284038952815160e0611299868351610960565b818701516001600160801b031990811687890152604080840151909116908701526060808301519087015260808083015115159087015260a08083015115159087015260c0918201519186018190526112f481870183610934565b9a87019a955050509084019060010161127d565b600081516060845261131d6060850182610934565b905060208301511515602085015260408301518482036040860152610b568282610934565b600060808084016001600160801b03198451168552602080850151838288015282815180855260a094508489019150848160051b8a0101848401935060005b828110156113f657609f198b8303018452845160c06113a18483516108fc565b81880151848901526040808301511515908501526060808301511515908501528982015115158a85015290880151888401829052906113e281850183610934565b968801969588019593505050600101611381565b506040890151965089810360408b0152611410818861125f565b965050505050505060608301518482036060860152610b568282611308565b600060808083526001600160801b0319808751168285015260208088015182811660a087015250604088015191508160c08601526060880151915060a060e086015261147f610120860183610934565b88840151868203607f1901610100880152805180835291935082019082840190600581901b8501840160005b828110156115b857601f198783030184528451805160a0808552815190850181905260c0600582901b86018101928a01919086019060005b8181101561154d5760bf1988860301835283516115018682516108fc565b8c81015115158d870152604081015115156040870152606081015160608701528e810151905060a08f87015261153a60a0870182610934565b955050928b0192918b01916001016114e3565b50505050878201518482038986015261156682826111c2565b915050604082015160408501526060820151848203606086015261158a8282610934565b9150508982015191508381038a8501526115a48183610934565b9688019695880195935050506001016114ab565b50888103858a01526115ca818c611342565b8a516001600160801b03191660408b015260208b015151151560608b01529750610be09650505050505050565b600082601f83011261160857600080fd5b8151602061161861083683610da3565b82815260059290921b8401810191818101908684111561163757600080fd5b8286015b84811015610ecd5780516001600160401b038082111561165b5760008081fd5b9088019060a0828b03601f19018113156116755760008081fd5b61167d61075a565b611688888501610dc6565b81526040611697818601610b8b565b89830152606080860151828401526080915081860151858111156116bb5760008081fd5b6116c98f8c838a0101610b9b565b828501525050828501519250838311156116e35760008081fd5b6116f18d8a85880101610b9b565b90820152865250505091830191830161163b565b600082601f83011261171657600080fd5b8151602061172661083683610da3565b82815260059290921b8401810191818101908684111561174557600080fd5b8286015b84811015610ecd5780516001600160401b03808211156117695760008081fd5b9088019060e0828b03601f19018113156117835760008081fd5b61178b610732565b611796888501610b5f565b815260406117a5818601610b73565b8983015260606117b6818701610b73565b828401526080915081860151818401525060a080860151858111156117db5760008081fd5b6117e98f8c838a0101610b9b565b838501525060c091508186015181840152508285015192508383111561180f5760008081fd5b61181d8d8a85880101610b9b565b908201528652505050918301918301611749565b60006020828403121561184357600080fd5b81516001600160401b038082111561185a57600080fd5b9083019060c0828603121561186e57600080fd5b61187661077c565b61187f83610b73565b815261188d60208401610b73565b6020820152604083015160408201526060830151828111156118ae57600080fd5b6118ba878286016115f7565b6060830152506080830151828111156118d257600080fd5b6118de87828601611705565b60808301525060a0830151828111156118f657600080fd5b61190287828601610b9b565b60a08301525095945050505050565b604081526000611924604083018561125f565b8281036020840152610b568185611308565b600082601f83011261194757600080fd5b8151602061195761083683610da3565b82815260059290921b8401810191818101908684111561197657600080fd5b8286015b84811015610ecd5780516001600160401b038111156119995760008081fd5b6119a78986838b0101610be8565b84525091830191830161197a565b600060208083850312156119c857600080fd5b82516001600160401b03808211156119df57600080fd5b90840190608082870312156119f357600080fd5b6119fb61079e565b611a0483610b73565b81528383015182811115611a1757600080fd5b8301601f81018813611a2857600080fd5b8051611a3661083682610da3565b81815260059190911b8201860190868101908a831115611a5557600080fd5b8784015b83811015611b0c57805187811115611a7057600080fd5b850160c0818e03601f19011215611a8657600080fd5b611a8e61077c565b611a998b8301610dc6565b815260408201518b820152611ab060608301610b8b565b6040820152611ac160808301610b8b565b6060820152611ad260a08301610b8b565b608082015260c082015189811115611aea5760008081fd5b611af88f8d83860101610b9b565b60a083015250845250918801918801611a59565b508088860152505050506040830151935081841115611b2a57600080fd5b611b3687858501611936565b60408201526060830151935081841115611b4f57600080fd5b611b5b87858501610cd5565b6060820152969550505050505056fea2646970667358221220ed35d588785c53bbe184304113258af3b42aed2fcdf2f76499ad21b2f9516dd964736f6c63430008110033","opcodes":"PUSH2 0x160 PUSH1 0x40 MSTORE PUSH1 0x0 DUP1 SLOAD PUSH1 0x1 PUSH1 0x1 PUSH1 0x88 SHL SUB NOT AND PUSH17 0x132403CED4B65F2079EDA77C84E7D2BE6 OR SWAP1 SSTORE CALLVALUE DUP1 ISZERO PUSH3 0x35 JUMPI PUSH1 0x0 DUP1 REVERT JUMPDEST POP PUSH1 0x0 SLOAD PUSH3 0x54 SWAP1 PUSH1 0x80 DUP2 SWAP1 SHL SWAP1 PUSH1 0x1 PUSH1 0x80 SHL SWAP1 DIV PUSH1 0xFF AND PUSH3 0x41C JUMP JUMPDEST DUP1 MLOAD PUSH1 0x1 PUSH1 0x1 PUSH1 0x80 SHL SUB NOT AND PUSH2 0x120 MSTORE PUSH1 0x20 DUP1 DUP3 ADD MLOAD MLOAD ISZERO ISZERO PUSH2 0x140 MSTORE PUSH1 0x40 DUP1 MLOAD DUP1 DUP3 ADD DUP3 MSTORE PUSH1 0x19 DUP2 MSTORE PUSH32 0x7369736D6F436F6E6E65637456657269666965722D76312E3200000000000000 SWAP3 DUP2 ADD SWAP3 SWAP1 SWAP3 MSTORE MLOAD PUSH4 0x349F642F PUSH1 0xE1 SHL DUP2 MSTORE PUSH20 0x3CD5334EB64EBBD4003B72022CC25465F1BFCEE6 SWAP2 PUSH4 0x693EC85E SWAP2 PUSH3 0xDC SWAP2 SWAP1 PUSH1 0x4 ADD PUSH3 0x47E JUMP JUMPDEST PUSH1 0x20 PUSH1 0x40 MLOAD DUP1 DUP4 SUB DUP2 DUP7 GAS STATICCALL ISZERO DUP1 ISZERO PUSH3 0xFA JUMPI RETURNDATASIZE PUSH1 0x0 DUP1 RETURNDATACOPY RETURNDATASIZE PUSH1 0x0 REVERT JUMPDEST POP POP POP POP PUSH1 0x40 MLOAD RETURNDATASIZE PUSH1 0x1F NOT PUSH1 0x1F DUP3 ADD AND DUP3 ADD DUP1 PUSH1 0x40 MSTORE POP DUP2 ADD SWAP1 PUSH3 0x120 SWAP2 SWAP1 PUSH3 0x4CE JUMP JUMPDEST PUSH1 0x1 PUSH1 0x1 PUSH1 0xA0 SHL SUB AND PUSH1 0x80 MSTORE PUSH1 0x40 DUP1 MLOAD DUP1 DUP3 ADD DUP3 MSTORE PUSH1 0x17 DUP2 MSTORE PUSH32 0x61757468526571756573744275696C6465722D76312E31000000000000000000 PUSH1 0x20 DUP3 ADD MSTORE SWAP1 MLOAD PUSH4 0x349F642F PUSH1 0xE1 SHL DUP2 MSTORE PUSH20 0x3CD5334EB64EBBD4003B72022CC25465F1BFCEE6 SWAP2 PUSH4 0x693EC85E SWAP2 PUSH3 0x196 SWAP2 SWAP1 PUSH1 0x4 ADD PUSH3 0x47E JUMP JUMPDEST PUSH1 0x20 PUSH1 0x40 MLOAD DUP1 DUP4 SUB DUP2 DUP7 GAS STATICCALL ISZERO DUP1 ISZERO PUSH3 0x1B4 JUMPI RETURNDATASIZE PUSH1 0x0 DUP1 RETURNDATACOPY RETURNDATASIZE PUSH1 0x0 REVERT JUMPDEST POP POP POP POP PUSH1 0x40 MLOAD RETURNDATASIZE PUSH1 0x1F NOT PUSH1 0x1F DUP3 ADD AND DUP3 ADD DUP1 PUSH1 0x40 MSTORE POP DUP2 ADD SWAP1 PUSH3 0x1DA SWAP2 SWAP1 PUSH3 0x4CE JUMP JUMPDEST PUSH1 0x1 PUSH1 0x1 PUSH1 0xA0 SHL SUB AND PUSH1 0xA0 MSTORE PUSH1 0x40 DUP1 MLOAD DUP1 DUP3 ADD DUP3 MSTORE PUSH1 0x18 DUP2 MSTORE PUSH32 0x636C61696D526571756573744275696C6465722D76312E310000000000000000 PUSH1 0x20 DUP3 ADD MSTORE SWAP1 MLOAD PUSH4 0x349F642F PUSH1 0xE1 SHL DUP2 MSTORE PUSH20 0x3CD5334EB64EBBD4003B72022CC25465F1BFCEE6 SWAP2 PUSH4 0x693EC85E SWAP2 PUSH3 0x250 SWAP2 SWAP1 PUSH1 0x4 ADD PUSH3 0x47E JUMP JUMPDEST PUSH1 0x20 PUSH1 0x40 MLOAD DUP1 DUP4 SUB DUP2 DUP7 GAS STATICCALL ISZERO DUP1 ISZERO PUSH3 0x26E JUMPI RETURNDATASIZE PUSH1 0x0 DUP1 RETURNDATACOPY RETURNDATASIZE PUSH1 0x0 REVERT JUMPDEST POP POP POP POP PUSH1 0x40 MLOAD RETURNDATASIZE PUSH1 0x1F NOT PUSH1 0x1F DUP3 ADD AND DUP3 ADD DUP1 PUSH1 0x40 MSTORE POP DUP2 ADD SWAP1 PUSH3 0x294 SWAP2 SWAP1 PUSH3 0x4CE JUMP JUMPDEST PUSH1 0x1 PUSH1 0x1 PUSH1 0xA0 SHL SUB AND PUSH1 0xC0 MSTORE PUSH1 0x40 DUP1 MLOAD DUP1 DUP3 ADD DUP3 MSTORE PUSH1 0x15 DUP2 MSTORE PUSH32 0x7369676E61747572654275696C6465722D76312E310000000000000000000000 PUSH1 0x20 DUP3 ADD MSTORE SWAP1 MLOAD PUSH4 0x349F642F PUSH1 0xE1 SHL DUP2 MSTORE PUSH20 0x3CD5334EB64EBBD4003B72022CC25465F1BFCEE6 SWAP2 PUSH4 0x693EC85E SWAP2 PUSH3 0x30A SWAP2 SWAP1 PUSH1 0x4 ADD PUSH3 0x47E JUMP JUMPDEST PUSH1 0x20 PUSH1 0x40 MLOAD DUP1 DUP4 SUB DUP2 DUP7 GAS STATICCALL ISZERO DUP1 ISZERO PUSH3 0x328 JUMPI RETURNDATASIZE PUSH1 0x0 DUP1 RETURNDATACOPY RETURNDATASIZE PUSH1 0x0 REVERT JUMPDEST POP POP POP POP PUSH1 0x40 MLOAD RETURNDATASIZE PUSH1 0x1F NOT PUSH1 0x1F DUP3 ADD AND DUP3 ADD DUP1 PUSH1 0x40 MSTORE POP DUP2 ADD SWAP1 PUSH3 0x34E SWAP2 SWAP1 PUSH3 0x4CE JUMP JUMPDEST PUSH1 0x1 PUSH1 0x1 PUSH1 0xA0 SHL SUB AND PUSH1 0xE0 MSTORE PUSH1 0x40 DUP1 MLOAD DUP1 DUP3 ADD DUP3 MSTORE PUSH1 0x13 DUP2 MSTORE PUSH32 0x726571756573744275696C6465722D76312E3100000000000000000000000000 PUSH1 0x20 DUP3 ADD MSTORE SWAP1 MLOAD PUSH4 0x349F642F PUSH1 0xE1 SHL DUP2 MSTORE PUSH20 0x3CD5334EB64EBBD4003B72022CC25465F1BFCEE6 SWAP2 PUSH4 0x693EC85E SWAP2 PUSH3 0x3C4 SWAP2 SWAP1 PUSH1 0x4 ADD PUSH3 0x47E JUMP JUMPDEST PUSH1 0x20 PUSH1 0x40 MLOAD DUP1 DUP4 SUB DUP2 DUP7 GAS STATICCALL ISZERO DUP1 ISZERO PUSH3 0x3E2 JUMPI RETURNDATASIZE PUSH1 0x0 DUP1 RETURNDATACOPY RETURNDATASIZE PUSH1 0x0 REVERT JUMPDEST POP POP POP POP PUSH1 0x40 MLOAD RETURNDATASIZE PUSH1 0x1F NOT PUSH1 0x1F DUP3 ADD AND DUP3 ADD DUP1 PUSH1 0x40 MSTORE POP DUP2 ADD SWAP1 PUSH3 0x408 SWAP2 SWAP1 PUSH3 0x4CE JUMP JUMPDEST PUSH1 0x1 PUSH1 0x1 PUSH1 0xA0 SHL SUB AND PUSH2 0x100 MSTORE POP PUSH3 0x500 JUMP JUMPDEST PUSH3 0x443 PUSH1 0x40 DUP1 MLOAD DUP1 DUP3 ADD DUP3 MSTORE PUSH1 0x0 DUP1 DUP3 MSTORE DUP3 MLOAD PUSH1 0x20 DUP2 DUP2 ADD SWAP1 SWAP5 MSTORE SWAP1 DUP2 MSTORE SWAP1 SWAP2 DUP3 ADD MSTORE SWAP1 JUMP JUMPDEST POP PUSH1 0x40 DUP1 MLOAD DUP1 DUP3 ADD DUP3 MSTORE PUSH1 0x1 PUSH1 0x1 PUSH1 0x80 SHL SUB NOT SWAP4 SWAP1 SWAP4 AND DUP4 MSTORE DUP1 MLOAD PUSH1 0x20 DUP1 DUP3 ADD DUP4 MSTORE PUSH1 0x0 SWAP1 SWAP2 MSTORE DUP2 MLOAD DUP1 DUP3 ADD SWAP1 SWAP3 MSTORE SWAP2 ISZERO ISZERO DUP2 MSTORE SWAP1 DUP3 ADD MSTORE SWAP1 JUMP JUMPDEST PUSH1 0x0 PUSH1 0x20 DUP1 DUP4 MSTORE DUP4 MLOAD DUP1 DUP3 DUP6 ADD MSTORE PUSH1 0x0 JUMPDEST DUP2 DUP2 LT ISZERO PUSH3 0x4AD JUMPI DUP6 DUP2 ADD DUP4 ADD MLOAD DUP6 DUP3 ADD PUSH1 0x40 ADD MSTORE DUP3 ADD PUSH3 0x48F JUMP JUMPDEST POP PUSH1 0x0 PUSH1 0x40 DUP3 DUP7 ADD ADD MSTORE PUSH1 0x40 PUSH1 0x1F NOT PUSH1 0x1F DUP4 ADD AND DUP6 ADD ADD SWAP3 POP POP POP SWAP3 SWAP2 POP POP JUMP JUMPDEST PUSH1 0x0 PUSH1 0x20 DUP3 DUP5 SUB SLT ISZERO PUSH3 0x4E1 JUMPI PUSH1 0x0 DUP1 REVERT JUMPDEST DUP2 MLOAD PUSH1 0x1 PUSH1 0x1 PUSH1 0xA0 SHL SUB DUP2 AND DUP2 EQ PUSH3 0x4F9 JUMPI PUSH1 0x0 DUP1 REVERT JUMPDEST SWAP4 SWAP3 POP POP POP JUMP JUMPDEST PUSH1 0x80 MLOAD PUSH1 0xA0 MLOAD PUSH1 0xC0 MLOAD PUSH1 0xE0 MLOAD PUSH2 0x100 MLOAD PUSH2 0x120 MLOAD PUSH2 0x140 MLOAD PUSH2 0x1BA0 PUSH3 0x565 PUSH1 0x0 CODECOPY PUSH1 0x0 DUP2 DUP2 PUSH1 0xE9 ADD MSTORE PUSH2 0x1D0 ADD MSTORE PUSH1 0x0 DUP2 DUP2 PUSH2 0x133 ADD MSTORE PUSH2 0x1AF ADD MSTORE PUSH1 0x0 PUSH2 0x5E0 ADD MSTORE PUSH1 0x0 PUSH2 0x440 ADD MSTORE PUSH1 0x0 PUSH2 0x3A2 ADD MSTORE PUSH1 0x0 POP POP PUSH1 0x0 PUSH2 0x51B ADD MSTORE PUSH2 0x1BA0 PUSH1 0x0 RETURN INVALID PUSH1 0x80 PUSH1 0x40 MSTORE CALLVALUE DUP1 ISZERO PUSH2 0x10 JUMPI PUSH1 0x0 DUP1 REVERT JUMPDEST POP PUSH1 0x4 CALLDATASIZE LT PUSH2 0x7D JUMPI PUSH1 0x0 CALLDATALOAD PUSH1 0xE0 SHR DUP1 PUSH4 0xA183DC27 GT PUSH2 0x5B JUMPI DUP1 PUSH4 0xA183DC27 EQ PUSH2 0xE4 JUMPI DUP1 PUSH4 0xBBC4CF0C EQ PUSH2 0x11B JUMPI DUP1 PUSH4 0xC187BBC1 EQ PUSH2 0x12E JUMPI DUP1 PUSH4 0xC9512D99 EQ PUSH2 0x16E JUMPI PUSH1 0x0 DUP1 REVERT JUMPDEST DUP1 PUSH4 0x46916301 EQ PUSH2 0x82 JUMPI DUP1 PUSH4 0x79502C55 EQ PUSH2 0xBA JUMPI DUP1 PUSH4 0x81D6EF2D EQ PUSH2 0xCF JUMPI JUMPDEST PUSH1 0x0 DUP1 REVERT JUMPDEST PUSH2 0x9D PUSH20 0x3CD5334EB64EBBD4003B72022CC25465F1BFCEE6 DUP2 JUMP JUMPDEST PUSH1 0x40 MLOAD PUSH1 0x1 PUSH1 0x1 PUSH1 0xA0 SHL SUB SWAP1 SWAP2 AND DUP2 MSTORE PUSH1 0x20 ADD JUMPDEST PUSH1 0x40 MLOAD DUP1 SWAP2 SUB SWAP1 RETURN JUMPDEST PUSH2 0xC2 PUSH2 0x184 JUMP JUMPDEST PUSH1 0x40 MLOAD PUSH2 0xB1 SWAP2 SWAP1 PUSH2 0x6F8 JUMP JUMPDEST PUSH2 0xE2 PUSH2 0xDD CALLDATASIZE PUSH1 0x4 PUSH2 0x86D JUMP JUMPDEST PUSH2 0x1F9 JUMP JUMPDEST STOP JUMPDEST PUSH2 0x10B PUSH32 0x0 DUP2 JUMP JUMPDEST PUSH1 0x40 MLOAD SWAP1 ISZERO ISZERO DUP2 MSTORE PUSH1 0x20 ADD PUSH2 0xB1 JUMP JUMPDEST PUSH2 0xE2 PUSH2 0x129 CALLDATASIZE PUSH1 0x4 PUSH2 0x86D JUMP JUMPDEST PUSH2 0x2BB JUMP JUMPDEST PUSH2 0x155 PUSH32 0x0 DUP2 JUMP JUMPDEST PUSH1 0x40 MLOAD PUSH1 0x1 PUSH1 0x1 PUSH1 0x80 SHL SUB NOT SWAP1 SWAP2 AND DUP2 MSTORE PUSH1 0x20 ADD PUSH2 0xB1 JUMP JUMPDEST PUSH2 0x176 PUSH1 0x2 DUP2 JUMP JUMPDEST PUSH1 0x40 MLOAD SWAP1 DUP2 MSTORE PUSH1 0x20 ADD PUSH2 0xB1 JUMP JUMPDEST PUSH2 0x1AA PUSH1 0x40 DUP1 MLOAD DUP1 DUP3 ADD DUP3 MSTORE PUSH1 0x0 DUP1 DUP3 MSTORE DUP3 MLOAD PUSH1 0x20 DUP2 DUP2 ADD SWAP1 SWAP5 MSTORE SWAP1 DUP2 MSTORE SWAP1 SWAP2 DUP3 ADD MSTORE SWAP1 JUMP JUMPDEST PUSH2 0x1F4 PUSH32 0x0 PUSH32 0x0 PUSH2 0x30B JUMP JUMPDEST SWAP1 POP SWAP1 JUMP JUMPDEST PUSH1 0x40 DUP1 MLOAD PUSH1 0x1 DUP1 DUP3 MSTORE DUP2 DUP4 ADD SWAP1 SWAP3 MSTORE PUSH1 0x0 SWAP2 DUP2 PUSH1 0x20 ADD JUMPDEST PUSH2 0x218 PUSH2 0x668 JUMP JUMPDEST DUP2 MSTORE PUSH1 0x20 ADD SWAP1 PUSH1 0x1 SWAP1 SUB SWAP1 DUP2 PUSH2 0x210 JUMPI SWAP1 POP POP SWAP1 POP PUSH2 0x249 PUSH16 0x6E41539FDB94FE30E82D46D7F664860F PUSH1 0x80 SHL PUSH2 0x37B JUMP JUMPDEST DUP2 PUSH1 0x0 DUP2 MLOAD DUP2 LT PUSH2 0x25C JUMPI PUSH2 0x25C PUSH2 0x8D0 JUMP JUMPDEST PUSH1 0x20 MUL PUSH1 0x20 ADD ADD DUP2 SWAP1 MSTORE POP PUSH1 0x0 PUSH2 0x27C DUP5 DUP4 PUSH2 0x277 DUP7 PUSH2 0x419 JUMP JUMPDEST PUSH2 0x4C2 JUMP JUMPDEST SWAP1 POP PUSH32 0x9289E35B3D969E3D006D5D4306119C6719C081660CF5B89A43654F2420A06668 DUP2 PUSH1 0x40 MLOAD PUSH2 0x2AD SWAP2 SWAP1 PUSH2 0xA37 JUMP JUMPDEST PUSH1 0x40 MLOAD DUP1 SWAP2 SUB SWAP1 LOG1 POP POP POP POP JUMP JUMPDEST PUSH1 0x40 DUP1 MLOAD PUSH1 0x1 DUP1 DUP3 MSTORE DUP2 DUP4 ADD SWAP1 SWAP3 MSTORE PUSH1 0x0 SWAP2 DUP2 PUSH1 0x20 ADD JUMPDEST PUSH2 0x2DA PUSH2 0x668 JUMP JUMPDEST DUP2 MSTORE PUSH1 0x20 ADD SWAP1 PUSH1 0x1 SWAP1 SUB SWAP1 DUP2 PUSH2 0x2D2 JUMPI SWAP1 POP POP SWAP1 POP PUSH2 0x249 PUSH16 0xE57ABDB9ACB2D308D4EC1A12833E1C9F PUSH1 0x80 SHL PUSH2 0x37B JUMP JUMPDEST PUSH2 0x331 PUSH1 0x40 DUP1 MLOAD DUP1 DUP3 ADD DUP3 MSTORE PUSH1 0x0 DUP1 DUP3 MSTORE DUP3 MLOAD PUSH1 0x20 DUP2 DUP2 ADD SWAP1 SWAP5 MSTORE SWAP1 DUP2 MSTORE SWAP1 SWAP2 DUP3 ADD MSTORE SWAP1 JUMP JUMPDEST PUSH1 0x40 MLOAD DUP1 PUSH1 0x40 ADD PUSH1 0x40 MSTORE DUP1 DUP5 PUSH1 0x1 PUSH1 0x1 PUSH1 0x80 SHL SUB NOT AND DUP2 MSTORE PUSH1 0x20 ADD PUSH2 0x370 DUP5 PUSH1 0x40 DUP1 MLOAD PUSH1 0x20 DUP1 DUP3 ADD DUP4 MSTORE PUSH1 0x0 SWAP1 SWAP2 MSTORE DUP2 MLOAD SWAP1 DUP2 ADD SWAP1 SWAP2 MSTORE SWAP1 ISZERO ISZERO DUP2 MSTORE SWAP1 JUMP JUMPDEST SWAP1 MSTORE SWAP1 POP JUMPDEST SWAP3 SWAP2 POP POP JUMP JUMPDEST PUSH2 0x383 PUSH2 0x668 JUMP JUMPDEST PUSH1 0x40 MLOAD PUSH4 0x38DE6087 PUSH1 0xE2 SHL DUP2 MSTORE PUSH1 0x1 PUSH1 0x1 PUSH1 0x80 SHL SUB NOT DUP4 AND PUSH1 0x4 DUP3 ADD MSTORE PUSH32 0x0 PUSH1 0x1 PUSH1 0x1 PUSH1 0xA0 SHL SUB AND SWAP1 PUSH4 0xE379821C SWAP1 PUSH1 0x24 ADD PUSH1 0x0 PUSH1 0x40 MLOAD DUP1 DUP4 SUB DUP2 DUP7 GAS STATICCALL ISZERO DUP1 ISZERO PUSH2 0x3F1 JUMPI RETURNDATASIZE PUSH1 0x0 DUP1 RETURNDATACOPY RETURNDATASIZE PUSH1 0x0 REVERT JUMPDEST POP POP POP POP PUSH1 0x40 MLOAD RETURNDATASIZE PUSH1 0x0 DUP3 RETURNDATACOPY PUSH1 0x1F RETURNDATASIZE SWAP1 DUP2 ADD PUSH1 0x1F NOT AND DUP3 ADD PUSH1 0x40 MSTORE PUSH2 0x375 SWAP2 SWAP1 DUP2 ADD SWAP1 PUSH2 0xC8E JUMP JUMPDEST PUSH1 0x40 DUP1 MLOAD PUSH1 0x60 DUP1 DUP3 ADD DUP4 MSTORE DUP1 DUP3 MSTORE PUSH1 0x0 PUSH1 0x20 DUP4 ADD MSTORE DUP2 DUP4 ADD MSTORE SWAP1 MLOAD PUSH4 0x1A0D7CCB PUSH1 0xE2 SHL DUP2 MSTORE PUSH32 0x0 PUSH1 0x1 PUSH1 0x1 PUSH1 0xA0 SHL SUB AND SWAP1 PUSH4 0x6835F32C SWAP1 PUSH2 0x47D SWAP1 DUP6 SWAP1 PUSH1 0x4 ADD PUSH2 0xCC2 JUMP JUMPDEST PUSH1 0x0 PUSH1 0x40 MLOAD DUP1 DUP4 SUB DUP2 DUP7 GAS STATICCALL ISZERO DUP1 ISZERO PUSH2 0x49A JUMPI RETURNDATASIZE PUSH1 0x0 DUP1 RETURNDATACOPY RETURNDATASIZE PUSH1 0x0 REVERT JUMPDEST POP POP POP POP PUSH1 0x40 MLOAD RETURNDATASIZE PUSH1 0x0 DUP3 RETURNDATACOPY PUSH1 0x1F RETURNDATASIZE SWAP1 DUP2 ADD PUSH1 0x1F NOT AND DUP3 ADD PUSH1 0x40 MSTORE PUSH2 0x375 SWAP2 SWAP1 DUP2 ADD SWAP1 PUSH2 0xD6F JUMP JUMPDEST PUSH1 0x40 DUP1 MLOAD PUSH1 0xC0 DUP2 ADD DUP3 MSTORE PUSH1 0x0 DUP1 DUP3 MSTORE PUSH1 0x20 DUP3 ADD DUP2 SWAP1 MSTORE SWAP2 DUP2 ADD SWAP2 SWAP1 SWAP2 MSTORE PUSH1 0x60 DUP1 DUP3 ADD DUP2 SWAP1 MSTORE PUSH1 0x80 DUP3 ADD DUP2 SWAP1 MSTORE PUSH1 0xA0 DUP3 ADD MSTORE PUSH1 0x0 DUP5 DUP1 PUSH1 0x20 ADD SWAP1 MLOAD DUP2 ADD SWAP1 PUSH2 0x509 SWAP2 SWAP1 PUSH2 0xFE2 JUMP JUMPDEST SWAP1 POP PUSH1 0x0 PUSH2 0x517 DUP6 DUP6 PUSH2 0x5C1 JUMP JUMPDEST SWAP1 POP PUSH32 0x0 PUSH1 0x1 PUSH1 0x1 PUSH1 0xA0 SHL SUB AND PUSH4 0x12B037FF DUP4 DUP4 PUSH2 0x552 PUSH2 0x184 JUMP JUMPDEST PUSH1 0x40 MLOAD DUP5 PUSH4 0xFFFFFFFF AND PUSH1 0xE0 SHL DUP2 MSTORE PUSH1 0x4 ADD PUSH2 0x570 SWAP4 SWAP3 SWAP2 SWAP1 PUSH2 0x142F JUMP JUMPDEST PUSH1 0x0 PUSH1 0x40 MLOAD DUP1 DUP4 SUB DUP2 PUSH1 0x0 DUP8 GAS CALL ISZERO DUP1 ISZERO PUSH2 0x58F JUMPI RETURNDATASIZE PUSH1 0x0 DUP1 RETURNDATACOPY RETURNDATASIZE PUSH1 0x0 REVERT JUMPDEST POP POP POP POP PUSH1 0x40 MLOAD RETURNDATASIZE PUSH1 0x0 DUP3 RETURNDATACOPY PUSH1 0x1F RETURNDATASIZE SWAP1 DUP2 ADD PUSH1 0x1F NOT AND DUP3 ADD PUSH1 0x40 MSTORE PUSH2 0x5B7 SWAP2 SWAP1 DUP2 ADD SWAP1 PUSH2 0x1831 JUMP JUMPDEST SWAP7 SWAP6 POP POP POP POP POP POP JUMP JUMPDEST PUSH2 0x5C9 PUSH2 0x6A8 JUMP JUMPDEST PUSH1 0x40 MLOAD PUSH4 0xB5AE2587 PUSH1 0xE0 SHL DUP2 MSTORE PUSH1 0x1 PUSH1 0x1 PUSH1 0xA0 SHL SUB PUSH32 0x0 AND SWAP1 PUSH4 0xB5AE2587 SWAP1 PUSH2 0x617 SWAP1 DUP7 SWAP1 DUP7 SWAP1 PUSH1 0x4 ADD PUSH2 0x1911 JUMP JUMPDEST PUSH1 0x0 PUSH1 0x40 MLOAD DUP1 DUP4 SUB DUP2 DUP7 GAS STATICCALL ISZERO DUP1 ISZERO PUSH2 0x634 JUMPI RETURNDATASIZE PUSH1 0x0 DUP1 RETURNDATACOPY RETURNDATASIZE PUSH1 0x0 REVERT JUMPDEST POP POP POP POP PUSH1 0x40 MLOAD RETURNDATASIZE PUSH1 0x0 DUP3 RETURNDATACOPY PUSH1 0x1F RETURNDATASIZE SWAP1 DUP2 ADD PUSH1 0x1F NOT AND DUP3 ADD PUSH1 0x40 MSTORE PUSH2 0x65C SWAP2 SWAP1 DUP2 ADD SWAP1 PUSH2 0x19B5 JUMP JUMPDEST SWAP4 SWAP3 POP POP POP JUMP JUMPDEST SWAP1 MSTORE SWAP1 JUMP JUMPDEST PUSH1 0x40 DUP1 MLOAD PUSH1 0xE0 DUP2 ADD SWAP1 SWAP2 MSTORE DUP1 PUSH1 0x0 DUP2 MSTORE PUSH1 0x0 PUSH1 0x20 DUP3 ADD DUP2 SWAP1 MSTORE PUSH1 0x40 DUP3 ADD DUP2 SWAP1 MSTORE PUSH1 0x60 DUP1 DUP4 ADD DUP3 SWAP1 MSTORE PUSH1 0x80 DUP4 ADD DUP3 SWAP1 MSTORE PUSH1 0xA0 DUP4 ADD SWAP2 SWAP1 SWAP2 MSTORE PUSH1 0xC0 SWAP1 SWAP2 ADD MSTORE SWAP1 JUMP JUMPDEST PUSH1 0x40 MLOAD DUP1 PUSH1 0x80 ADD PUSH1 0x40 MSTORE DUP1 PUSH1 0x0 PUSH1 0x1 PUSH1 0x1 PUSH1 0x80 SHL SUB NOT AND DUP2 MSTORE PUSH1 0x20 ADD PUSH1 0x60 DUP2 MSTORE PUSH1 0x20 ADD PUSH1 0x60 DUP2 MSTORE PUSH1 0x20 ADD PUSH2 0x663 PUSH1 0x40 MLOAD DUP1 PUSH1 0x60 ADD PUSH1 0x40 MSTORE DUP1 PUSH1 0x60 DUP2 MSTORE PUSH1 0x20 ADD PUSH1 0x0 ISZERO ISZERO DUP2 MSTORE PUSH1 0x20 ADD PUSH1 0x60 DUP2 MSTORE POP SWAP1 JUMP JUMPDEST DUP2 MLOAD PUSH1 0x1 PUSH1 0x1 PUSH1 0x80 SHL SUB NOT AND DUP2 MSTORE PUSH1 0x20 DUP1 DUP4 ADD MLOAD MLOAD ISZERO ISZERO SWAP1 DUP3 ADD MSTORE PUSH1 0x40 DUP2 ADD PUSH2 0x375 JUMP JUMPDEST PUSH4 0x4E487B71 PUSH1 0xE0 SHL PUSH1 0x0 MSTORE PUSH1 0x41 PUSH1 0x4 MSTORE PUSH1 0x24 PUSH1 0x0 REVERT JUMPDEST PUSH1 0x40 MLOAD PUSH1 0xE0 DUP2 ADD PUSH1 0x1 PUSH1 0x1 PUSH1 0x40 SHL SUB DUP2 GT DUP3 DUP3 LT OR ISZERO PUSH2 0x754 JUMPI PUSH2 0x754 PUSH2 0x71C JUMP JUMPDEST PUSH1 0x40 MSTORE SWAP1 JUMP JUMPDEST PUSH1 0x40 MLOAD PUSH1 0xA0 DUP2 ADD PUSH1 0x1 PUSH1 0x1 PUSH1 0x40 SHL SUB DUP2 GT DUP3 DUP3 LT OR ISZERO PUSH2 0x754 JUMPI PUSH2 0x754 PUSH2 0x71C JUMP JUMPDEST PUSH1 0x40 MLOAD PUSH1 0xC0 DUP2 ADD PUSH1 0x1 PUSH1 0x1 PUSH1 0x40 SHL SUB DUP2 GT DUP3 DUP3 LT OR ISZERO PUSH2 0x754 JUMPI PUSH2 0x754 PUSH2 0x71C JUMP JUMPDEST PUSH1 0x40 MLOAD PUSH1 0x80 DUP2 ADD PUSH1 0x1 PUSH1 0x1 PUSH1 0x40 SHL SUB DUP2 GT DUP3 DUP3 LT OR ISZERO PUSH2 0x754 JUMPI PUSH2 0x754 PUSH2 0x71C JUMP JUMPDEST PUSH1 0x40 MLOAD PUSH1 0x1F DUP3 ADD PUSH1 0x1F NOT AND DUP2 ADD PUSH1 0x1 PUSH1 0x1 PUSH1 0x40 SHL SUB DUP2 GT DUP3 DUP3 LT OR ISZERO PUSH2 0x7E8 JUMPI PUSH2 0x7E8 PUSH2 0x71C JUMP JUMPDEST PUSH1 0x40 MSTORE SWAP2 SWAP1 POP JUMP JUMPDEST PUSH1 0x0 PUSH1 0x1 PUSH1 0x1 PUSH1 0x40 SHL SUB DUP3 GT ISZERO PUSH2 0x809 JUMPI PUSH2 0x809 PUSH2 0x71C JUMP JUMPDEST POP PUSH1 0x1F ADD PUSH1 0x1F NOT AND PUSH1 0x20 ADD SWAP1 JUMP JUMPDEST PUSH1 0x0 DUP3 PUSH1 0x1F DUP4 ADD SLT PUSH2 0x828 JUMPI PUSH1 0x0 DUP1 REVERT JUMPDEST DUP2 CALLDATALOAD PUSH2 0x83B PUSH2 0x836 DUP3 PUSH2 0x7F0 JUMP JUMPDEST PUSH2 0x7C0 JUMP JUMPDEST DUP2 DUP2 MSTORE DUP5 PUSH1 0x20 DUP4 DUP7 ADD ADD GT ISZERO PUSH2 0x850 JUMPI PUSH1 0x0 DUP1 REVERT JUMPDEST DUP2 PUSH1 0x20 DUP6 ADD PUSH1 0x20 DUP4 ADD CALLDATACOPY PUSH1 0x0 SWAP2 DUP2 ADD PUSH1 0x20 ADD SWAP2 SWAP1 SWAP2 MSTORE SWAP4 SWAP3 POP POP POP JUMP JUMPDEST PUSH1 0x0 DUP1 PUSH1 0x40 DUP4 DUP6 SUB SLT ISZERO PUSH2 0x880 JUMPI PUSH1 0x0 DUP1 REVERT JUMPDEST DUP3 CALLDATALOAD PUSH1 0x1 PUSH1 0x1 PUSH1 0x40 SHL SUB DUP1 DUP3 GT ISZERO PUSH2 0x897 JUMPI PUSH1 0x0 DUP1 REVERT JUMPDEST PUSH2 0x8A3 DUP7 DUP4 DUP8 ADD PUSH2 0x817 JUMP JUMPDEST SWAP4 POP PUSH1 0x20 DUP6 ADD CALLDATALOAD SWAP2 POP DUP1 DUP3 GT ISZERO PUSH2 0x8B9 JUMPI PUSH1 0x0 DUP1 REVERT JUMPDEST POP PUSH2 0x8C6 DUP6 DUP3 DUP7 ADD PUSH2 0x817 JUMP JUMPDEST SWAP2 POP POP SWAP3 POP SWAP3 SWAP1 POP JUMP JUMPDEST PUSH4 0x4E487B71 PUSH1 0xE0 SHL PUSH1 0x0 MSTORE PUSH1 0x32 PUSH1 0x4 MSTORE PUSH1 0x24 PUSH1 0x0 REVERT JUMPDEST PUSH4 0x4E487B71 PUSH1 0xE0 SHL PUSH1 0x0 MSTORE PUSH1 0x21 PUSH1 0x4 MSTORE PUSH1 0x24 PUSH1 0x0 REVERT JUMPDEST PUSH1 0x6 DUP2 LT PUSH2 0x90C JUMPI PUSH2 0x90C PUSH2 0x8E6 JUMP JUMPDEST SWAP1 MSTORE JUMP JUMPDEST PUSH1 0x0 JUMPDEST DUP4 DUP2 LT ISZERO PUSH2 0x92B JUMPI DUP2 DUP2 ADD MLOAD DUP4 DUP3 ADD MSTORE PUSH1 0x20 ADD PUSH2 0x913 JUMP JUMPDEST POP POP PUSH1 0x0 SWAP2 ADD MSTORE JUMP JUMPDEST PUSH1 0x0 DUP2 MLOAD DUP1 DUP5 MSTORE PUSH2 0x94C DUP2 PUSH1 0x20 DUP7 ADD PUSH1 0x20 DUP7 ADD PUSH2 0x910 JUMP JUMPDEST PUSH1 0x1F ADD PUSH1 0x1F NOT AND SWAP3 SWAP1 SWAP3 ADD PUSH1 0x20 ADD SWAP3 SWAP2 POP POP JUMP JUMPDEST PUSH1 0x5 DUP2 LT PUSH2 0x90C JUMPI PUSH2 0x90C PUSH2 0x8E6 JUMP JUMPDEST PUSH1 0x0 DUP2 MLOAD DUP1 DUP5 MSTORE PUSH1 0x20 DUP1 DUP6 ADD DUP1 DUP2 SWAP7 POP DUP4 PUSH1 0x5 SHL DUP2 ADD SWAP2 POP DUP3 DUP7 ADD PUSH1 0x0 JUMPDEST DUP6 DUP2 LT ISZERO PUSH2 0xA2A JUMPI DUP3 DUP5 SUB DUP10 MSTORE DUP2 MLOAD PUSH1 0xE0 PUSH2 0x9AA DUP7 DUP4 MLOAD PUSH2 0x960 JUMP JUMPDEST DUP2 DUP8 ADD MLOAD PUSH1 0x1 PUSH1 0x1 PUSH1 0x80 SHL SUB NOT SWAP1 DUP2 AND DUP8 DUP10 ADD MSTORE PUSH1 0x40 DUP1 DUP5 ADD MLOAD SWAP1 SWAP2 AND SWAP1 DUP8 ADD MSTORE PUSH1 0x60 DUP1 DUP4 ADD MLOAD SWAP1 DUP8 ADD MSTORE PUSH1 0x80 DUP1 DUP4 ADD MLOAD DUP2 DUP9 ADD DUP4 SWAP1 MSTORE PUSH2 0x9ED DUP4 DUP10 ADD DUP3 PUSH2 0x934 JUMP JUMPDEST SWAP3 POP POP POP PUSH1 0xA0 DUP1 DUP4 ADD MLOAD DUP2 DUP9 ADD MSTORE POP PUSH1 0xC0 DUP1 DUP4 ADD MLOAD SWAP3 POP DUP7 DUP3 SUB DUP2 DUP9 ADD MSTORE POP PUSH2 0xA16 DUP2 DUP4 PUSH2 0x934 JUMP JUMPDEST SWAP11 DUP8 ADD SWAP11 SWAP6 POP POP POP SWAP1 DUP5 ADD SWAP1 PUSH1 0x1 ADD PUSH2 0x98E JUMP JUMPDEST POP SWAP2 SWAP8 SWAP7 POP POP POP POP POP POP POP JUMP JUMPDEST PUSH1 0x0 PUSH1 0x20 DUP1 DUP4 MSTORE PUSH1 0xE0 DUP4 ADD PUSH1 0x1 PUSH1 0x1 PUSH1 0x80 SHL SUB NOT DUP1 DUP7 MLOAD AND DUP4 DUP7 ADD MSTORE DUP3 DUP7 ADD MLOAD PUSH1 0x40 DUP3 DUP3 AND DUP2 DUP9 ADD MSTORE DUP1 DUP9 ADD MLOAD SWAP3 POP PUSH1 0x60 SWAP2 POP DUP3 DUP3 DUP9 ADD MSTORE DUP2 DUP9 ADD MLOAD SWAP3 POP PUSH1 0x80 PUSH1 0xC0 DUP2 DUP10 ADD MSTORE DUP5 DUP5 MLOAD DUP1 DUP8 MSTORE PUSH2 0x100 SWAP7 POP DUP7 DUP11 ADD SWAP2 POP DUP7 DUP2 PUSH1 0x5 SHL DUP12 ADD ADD SWAP7 POP DUP8 DUP7 ADD SWAP6 POP PUSH1 0x0 JUMPDEST DUP2 DUP2 LT ISZERO PUSH2 0xB14 JUMPI PUSH1 0xFF NOT DUP12 DUP10 SUB ADD DUP4 MSTORE DUP7 MLOAD PUSH1 0xA0 PUSH2 0xABF DUP11 DUP4 MLOAD PUSH2 0x8FC JUMP JUMPDEST DUP11 DUP3 ADD MLOAD ISZERO ISZERO DUP12 DUP12 ADD MSTORE DUP7 DUP3 ADD MLOAD DUP8 DUP12 ADD MSTORE DUP8 DUP3 ADD MLOAD DUP2 DUP10 DUP13 ADD MSTORE PUSH2 0xAE6 DUP3 DUP13 ADD DUP3 PUSH2 0x934 JUMP JUMPDEST SWAP2 POP POP DUP6 DUP3 ADD MLOAD SWAP2 POP DUP10 DUP2 SUB DUP7 DUP12 ADD MSTORE PUSH2 0xB00 DUP2 DUP4 PUSH2 0x934 JUMP JUMPDEST SWAP10 POP POP POP SWAP6 DUP9 ADD SWAP6 SWAP2 DUP9 ADD SWAP2 PUSH1 0x1 ADD PUSH2 0xA9F JUMP JUMPDEST POP POP POP DUP1 DUP10 ADD MLOAD SWAP6 POP POP POP POP POP PUSH1 0x1F NOT DUP1 DUP6 DUP4 SUB ADD PUSH1 0xA0 DUP7 ADD MSTORE PUSH2 0xB38 DUP3 DUP5 PUSH2 0x970 JUMP JUMPDEST SWAP3 POP PUSH1 0xA0 DUP7 ADD MLOAD SWAP2 POP DUP1 DUP6 DUP5 SUB ADD PUSH1 0xC0 DUP7 ADD MSTORE POP PUSH2 0xB56 DUP3 DUP3 PUSH2 0x934 JUMP JUMPDEST SWAP6 SWAP5 POP POP POP POP POP JUMP JUMPDEST DUP1 MLOAD PUSH1 0x5 DUP2 LT PUSH2 0xB6E JUMPI PUSH1 0x0 DUP1 REVERT JUMPDEST SWAP2 SWAP1 POP JUMP JUMPDEST DUP1 MLOAD PUSH1 0x1 PUSH1 0x1 PUSH1 0x80 SHL SUB NOT DUP2 AND DUP2 EQ PUSH2 0xB6E JUMPI PUSH1 0x0 DUP1 REVERT JUMPDEST DUP1 MLOAD DUP1 ISZERO ISZERO DUP2 EQ PUSH2 0xB6E JUMPI PUSH1 0x0 DUP1 REVERT JUMPDEST PUSH1 0x0 DUP3 PUSH1 0x1F DUP4 ADD SLT PUSH2 0xBAC JUMPI PUSH1 0x0 DUP1 REVERT JUMPDEST DUP2 MLOAD PUSH2 0xBBA PUSH2 0x836 DUP3 PUSH2 0x7F0 JUMP JUMPDEST DUP2 DUP2 MSTORE DUP5 PUSH1 0x20 DUP4 DUP7 ADD ADD GT ISZERO PUSH2 0xBCF JUMPI PUSH1 0x0 DUP1 REVERT JUMPDEST PUSH2 0xBE0 DUP3 PUSH1 0x20 DUP4 ADD PUSH1 0x20 DUP8 ADD PUSH2 0x910 JUMP JUMPDEST SWAP5 SWAP4 POP POP POP POP JUMP JUMPDEST PUSH1 0x0 PUSH1 0xE0 DUP3 DUP5 SUB SLT ISZERO PUSH2 0xBFA JUMPI PUSH1 0x0 DUP1 REVERT JUMPDEST PUSH2 0xC02 PUSH2 0x732 JUMP JUMPDEST SWAP1 POP PUSH2 0xC0D DUP3 PUSH2 0xB5F JUMP JUMPDEST DUP2 MSTORE PUSH2 0xC1B PUSH1 0x20 DUP4 ADD PUSH2 0xB73 JUMP JUMPDEST PUSH1 0x20 DUP3 ADD MSTORE PUSH2 0xC2C PUSH1 0x40 DUP4 ADD PUSH2 0xB73 JUMP JUMPDEST PUSH1 0x40 DUP3 ADD MSTORE PUSH1 0x60 DUP3 ADD MLOAD PUSH1 0x60 DUP3 ADD MSTORE PUSH2 0xC47 PUSH1 0x80 DUP4 ADD PUSH2 0xB8B JUMP JUMPDEST PUSH1 0x80 DUP3 ADD MSTORE PUSH2 0xC58 PUSH1 0xA0 DUP4 ADD PUSH2 0xB8B JUMP JUMPDEST PUSH1 0xA0 DUP3 ADD MSTORE PUSH1 0xC0 DUP3 ADD MLOAD PUSH1 0x1 PUSH1 0x1 PUSH1 0x40 SHL SUB DUP2 GT ISZERO PUSH2 0xC76 JUMPI PUSH1 0x0 DUP1 REVERT JUMPDEST PUSH2 0xC82 DUP5 DUP3 DUP6 ADD PUSH2 0xB9B JUMP JUMPDEST PUSH1 0xC0 DUP4 ADD MSTORE POP SWAP3 SWAP2 POP POP JUMP JUMPDEST PUSH1 0x0 PUSH1 0x20 DUP3 DUP5 SUB SLT ISZERO PUSH2 0xCA0 JUMPI PUSH1 0x0 DUP1 REVERT JUMPDEST DUP2 MLOAD PUSH1 0x1 PUSH1 0x1 PUSH1 0x40 SHL SUB DUP2 GT ISZERO PUSH2 0xCB6 JUMPI PUSH1 0x0 DUP1 REVERT JUMPDEST PUSH2 0xBE0 DUP5 DUP3 DUP6 ADD PUSH2 0xBE8 JUMP JUMPDEST PUSH1 0x20 DUP2 MSTORE PUSH1 0x0 PUSH2 0x65C PUSH1 0x20 DUP4 ADD DUP5 PUSH2 0x934 JUMP JUMPDEST PUSH1 0x0 PUSH1 0x60 DUP3 DUP5 SUB SLT ISZERO PUSH2 0xCE7 JUMPI PUSH1 0x0 DUP1 REVERT JUMPDEST PUSH1 0x40 MLOAD PUSH1 0x60 DUP2 ADD PUSH1 0x1 PUSH1 0x1 PUSH1 0x40 SHL SUB DUP3 DUP3 LT DUP2 DUP4 GT OR ISZERO PUSH2 0xD0A JUMPI PUSH2 0xD0A PUSH2 0x71C JUMP JUMPDEST DUP2 PUSH1 0x40 MSTORE DUP3 SWAP4 POP DUP5 MLOAD SWAP2 POP DUP1 DUP3 GT ISZERO PUSH2 0xD22 JUMPI PUSH1 0x0 DUP1 REVERT JUMPDEST PUSH2 0xD2E DUP7 DUP4 DUP8 ADD PUSH2 0xB9B JUMP JUMPDEST DUP4 MSTORE PUSH2 0xD3C PUSH1 0x20 DUP7 ADD PUSH2 0xB8B JUMP JUMPDEST PUSH1 0x20 DUP5 ADD MSTORE PUSH1 0x40 DUP6 ADD MLOAD SWAP2 POP DUP1 DUP3 GT ISZERO PUSH2 0xD55 JUMPI PUSH1 0x0 DUP1 REVERT JUMPDEST POP PUSH2 0xD62 DUP6 DUP3 DUP7 ADD PUSH2 0xB9B JUMP JUMPDEST PUSH1 0x40 DUP4 ADD MSTORE POP POP SWAP3 SWAP2 POP POP JUMP JUMPDEST PUSH1 0x0 PUSH1 0x20 DUP3 DUP5 SUB SLT ISZERO PUSH2 0xD81 JUMPI PUSH1 0x0 DUP1 REVERT JUMPDEST DUP2 MLOAD PUSH1 0x1 PUSH1 0x1 PUSH1 0x40 SHL SUB DUP2 GT ISZERO PUSH2 0xD97 JUMPI PUSH1 0x0 DUP1 REVERT JUMPDEST PUSH2 0xBE0 DUP5 DUP3 DUP6 ADD PUSH2 0xCD5 JUMP JUMPDEST PUSH1 0x0 PUSH1 0x1 PUSH1 0x1 PUSH1 0x40 SHL SUB DUP3 GT ISZERO PUSH2 0xDBC JUMPI PUSH2 0xDBC PUSH2 0x71C JUMP JUMPDEST POP PUSH1 0x5 SHL PUSH1 0x20 ADD SWAP1 JUMP JUMPDEST DUP1 MLOAD PUSH1 0x6 DUP2 LT PUSH2 0xB6E JUMPI PUSH1 0x0 DUP1 REVERT JUMPDEST PUSH1 0x0 DUP3 PUSH1 0x1F DUP4 ADD SLT PUSH2 0xDE6 JUMPI PUSH1 0x0 DUP1 REVERT JUMPDEST DUP2 MLOAD PUSH1 0x20 PUSH2 0xDF6 PUSH2 0x836 DUP4 PUSH2 0xDA3 JUMP JUMPDEST DUP3 DUP2 MSTORE PUSH1 0x5 SWAP3 SWAP1 SWAP3 SHL DUP5 ADD DUP2 ADD SWAP2 DUP2 DUP2 ADD SWAP1 DUP7 DUP5 GT ISZERO PUSH2 0xE15 JUMPI PUSH1 0x0 DUP1 REVERT JUMPDEST DUP3 DUP7 ADD JUMPDEST DUP5 DUP2 LT ISZERO PUSH2 0xECD JUMPI DUP1 MLOAD PUSH1 0x1 PUSH1 0x1 PUSH1 0x40 SHL SUB DUP1 DUP3 GT ISZERO PUSH2 0xE39 JUMPI PUSH1 0x0 DUP1 DUP2 REVERT JUMPDEST SWAP1 DUP9 ADD SWAP1 PUSH1 0xA0 DUP3 DUP12 SUB PUSH1 0x1F NOT ADD DUP2 SGT ISZERO PUSH2 0xE53 JUMPI PUSH1 0x0 DUP1 DUP2 REVERT JUMPDEST PUSH2 0xE5B PUSH2 0x75A JUMP JUMPDEST PUSH2 0xE66 DUP9 DUP6 ADD PUSH2 0xDC6 JUMP JUMPDEST DUP2 MSTORE PUSH1 0x40 PUSH2 0xE75 DUP2 DUP7 ADD PUSH2 0xB8B JUMP JUMPDEST DUP10 DUP4 ADD MSTORE PUSH1 0x60 PUSH2 0xE86 DUP2 DUP8 ADD PUSH2 0xB8B JUMP JUMPDEST DUP3 DUP5 ADD MSTORE PUSH1 0x80 SWAP2 POP DUP2 DUP7 ADD MLOAD DUP2 DUP5 ADD MSTORE POP DUP3 DUP6 ADD MLOAD SWAP3 POP DUP4 DUP4 GT ISZERO PUSH2 0xEAB JUMPI PUSH1 0x0 DUP1 DUP2 REVERT JUMPDEST PUSH2 0xEB9 DUP14 DUP11 DUP6 DUP9 ADD ADD PUSH2 0xB9B JUMP JUMPDEST SWAP1 DUP3 ADD MSTORE DUP7 MSTORE POP POP POP SWAP2 DUP4 ADD SWAP2 DUP4 ADD PUSH2 0xE19 JUMP JUMPDEST POP SWAP7 SWAP6 POP POP POP POP POP POP JUMP JUMPDEST PUSH1 0x0 DUP3 PUSH1 0x1F DUP4 ADD SLT PUSH2 0xEE9 JUMPI PUSH1 0x0 DUP1 REVERT JUMPDEST DUP2 MLOAD PUSH1 0x20 PUSH2 0xEF9 PUSH2 0x836 DUP4 PUSH2 0xDA3 JUMP JUMPDEST DUP3 DUP2 MSTORE PUSH1 0x5 SWAP3 SWAP1 SWAP3 SHL DUP5 ADD DUP2 ADD SWAP2 DUP2 DUP2 ADD SWAP1 DUP7 DUP5 GT ISZERO PUSH2 0xF18 JUMPI PUSH1 0x0 DUP1 REVERT JUMPDEST DUP3 DUP7 ADD JUMPDEST DUP5 DUP2 LT ISZERO PUSH2 0xECD JUMPI DUP1 MLOAD PUSH1 0x1 PUSH1 0x1 PUSH1 0x40 SHL SUB DUP1 DUP3 GT ISZERO PUSH2 0xF3C JUMPI PUSH1 0x0 DUP1 DUP2 REVERT JUMPDEST SWAP1 DUP9 ADD SWAP1 PUSH1 0xC0 DUP3 DUP12 SUB PUSH1 0x1F NOT ADD DUP2 SGT ISZERO PUSH2 0xF56 JUMPI PUSH1 0x0 DUP1 DUP2 REVERT JUMPDEST PUSH2 0xF5E PUSH2 0x77C JUMP JUMPDEST PUSH2 0xF69 DUP9 DUP6 ADD PUSH2 0xB5F JUMP JUMPDEST DUP2 MSTORE PUSH1 0x40 PUSH2 0xF78 DUP2 DUP7 ADD PUSH2 0xB73 JUMP JUMPDEST DUP10 DUP4 ADD MSTORE PUSH1 0x60 PUSH2 0xF89 DUP2 DUP8 ADD PUSH2 0xB73 JUMP JUMPDEST DUP3 DUP5 ADD MSTORE PUSH1 0x80 SWAP2 POP PUSH2 0xF9C DUP3 DUP8 ADD PUSH2 0xB8B JUMP JUMPDEST SWAP1 DUP4 ADD MSTORE PUSH1 0xA0 DUP6 DUP2 ADD MLOAD DUP3 DUP5 ADD MSTORE SWAP3 DUP6 ADD MLOAD SWAP3 DUP5 DUP5 GT ISZERO PUSH2 0xFBF JUMPI PUSH1 0x0 SWAP2 POP DUP2 DUP3 REVERT JUMPDEST PUSH2 0xFCD DUP15 DUP12 DUP7 DUP10 ADD ADD PUSH2 0xB9B JUMP JUMPDEST SWAP1 DUP4 ADD MSTORE POP DUP7 MSTORE POP POP POP SWAP2 DUP4 ADD SWAP2 DUP4 ADD PUSH2 0xF1C JUMP JUMPDEST PUSH1 0x0 PUSH1 0x20 DUP1 DUP4 DUP6 SUB SLT ISZERO PUSH2 0xFF5 JUMPI PUSH1 0x0 DUP1 REVERT JUMPDEST DUP3 MLOAD PUSH1 0x1 PUSH1 0x1 PUSH1 0x40 SHL SUB DUP1 DUP3 GT ISZERO PUSH2 0x100C JUMPI PUSH1 0x0 DUP1 REVERT JUMPDEST SWAP1 DUP5 ADD SWAP1 PUSH1 0xA0 DUP3 DUP8 SUB SLT ISZERO PUSH2 0x1020 JUMPI PUSH1 0x0 DUP1 REVERT JUMPDEST PUSH2 0x1028 PUSH2 0x75A JUMP JUMPDEST PUSH2 0x1031 DUP4 PUSH2 0xB73 JUMP JUMPDEST DUP2 MSTORE PUSH2 0x103E DUP5 DUP5 ADD PUSH2 0xB73 JUMP JUMPDEST DUP5 DUP3 ADD MSTORE PUSH1 0x40 DUP4 ADD MLOAD PUSH1 0x40 DUP3 ADD MSTORE PUSH1 0x60 DUP4 ADD MLOAD DUP3 DUP2 GT ISZERO PUSH2 0x105E JUMPI PUSH1 0x0 DUP1 REVERT JUMPDEST PUSH2 0x106A DUP9 DUP3 DUP7 ADD PUSH2 0xB9B JUMP JUMPDEST PUSH1 0x60 DUP4 ADD MSTORE POP PUSH1 0x80 DUP1 DUP5 ADD MLOAD DUP4 DUP2 GT ISZERO PUSH2 0x1083 JUMPI PUSH1 0x0 DUP1 REVERT JUMPDEST DUP1 DUP6 ADD SWAP5 POP POP DUP8 PUSH1 0x1F DUP6 ADD SLT PUSH2 0x1098 JUMPI PUSH1 0x0 DUP1 REVERT JUMPDEST DUP4 MLOAD PUSH2 0x10A6 PUSH2 0x836 DUP3 PUSH2 0xDA3 JUMP JUMPDEST DUP2 DUP2 MSTORE PUSH1 0x5 SWAP2 SWAP1 SWAP2 SHL DUP6 ADD DUP7 ADD SWAP1 DUP7 DUP2 ADD SWAP1 DUP11 DUP4 GT ISZERO PUSH2 0x10C5 JUMPI PUSH1 0x0 DUP1 REVERT JUMPDEST DUP8 DUP8 ADD JUMPDEST DUP4 DUP2 LT ISZERO PUSH2 0x11AD JUMPI DUP1 MLOAD DUP8 DUP2 GT ISZERO PUSH2 0x10E1 JUMPI PUSH1 0x0 DUP1 DUP2 REVERT JUMPDEST DUP9 ADD PUSH1 0xA0 DUP2 DUP15 SUB PUSH1 0x1F NOT ADD SLT ISZERO PUSH2 0x10F8 JUMPI PUSH1 0x0 DUP1 DUP2 REVERT JUMPDEST PUSH2 0x1100 PUSH2 0x75A JUMP JUMPDEST DUP11 DUP3 ADD MLOAD DUP10 DUP2 GT ISZERO PUSH2 0x1112 JUMPI PUSH1 0x0 DUP1 DUP2 REVERT JUMPDEST PUSH2 0x1120 DUP16 DUP14 DUP4 DUP7 ADD ADD PUSH2 0xDD5 JUMP JUMPDEST DUP3 MSTORE POP PUSH1 0x40 DUP3 ADD MLOAD DUP10 DUP2 GT ISZERO PUSH2 0x1136 JUMPI PUSH1 0x0 DUP1 DUP2 REVERT JUMPDEST PUSH2 0x1144 DUP16 DUP14 DUP4 DUP7 ADD ADD PUSH2 0xED8 JUMP JUMPDEST DUP13 DUP4 ADD MSTORE POP PUSH1 0x60 DUP3 ADD MLOAD PUSH1 0x40 DUP3 ADD MSTORE DUP7 DUP3 ADD MLOAD DUP10 DUP2 GT ISZERO PUSH2 0x1165 JUMPI PUSH1 0x0 DUP1 DUP2 REVERT JUMPDEST PUSH2 0x1173 DUP16 DUP14 DUP4 DUP7 ADD ADD PUSH2 0xB9B JUMP JUMPDEST PUSH1 0x60 DUP4 ADD MSTORE POP PUSH1 0xA0 DUP3 ADD MLOAD DUP10 DUP2 GT ISZERO PUSH2 0x118C JUMPI PUSH1 0x0 DUP1 DUP2 REVERT JUMPDEST PUSH2 0x119A DUP16 DUP14 DUP4 DUP7 ADD ADD PUSH2 0xB9B JUMP JUMPDEST DUP3 DUP10 ADD MSTORE POP DUP5 MSTORE POP SWAP2 DUP9 ADD SWAP2 DUP9 ADD PUSH2 0x10C9 JUMP JUMPDEST POP SWAP3 DUP5 ADD SWAP3 SWAP1 SWAP3 MSTORE POP SWAP1 SWAP8 SWAP7 POP POP POP POP POP POP POP JUMP JUMPDEST PUSH1 0x0 DUP2 MLOAD DUP1 DUP5 MSTORE PUSH1 0x20 DUP1 DUP6 ADD DUP1 DUP2 SWAP7 POP DUP4 PUSH1 0x5 SHL DUP2 ADD SWAP2 POP DUP3 DUP7 ADD PUSH1 0x0 JUMPDEST DUP6 DUP2 LT ISZERO PUSH2 0xA2A JUMPI DUP3 DUP5 SUB DUP10 MSTORE DUP2 MLOAD PUSH1 0xC0 PUSH2 0x11FC DUP7 DUP4 MLOAD PUSH2 0x960 JUMP JUMPDEST DUP2 DUP8 ADD MLOAD PUSH1 0x1 PUSH1 0x1 PUSH1 0x80 SHL SUB NOT SWAP1 DUP2 AND DUP8 DUP10 ADD MSTORE PUSH1 0x40 DUP1 DUP5 ADD MLOAD SWAP1 SWAP2 AND SWAP1 DUP8 ADD MSTORE PUSH1 0x60 DUP1 DUP4 ADD MLOAD ISZERO ISZERO SWAP1 DUP8 ADD MSTORE PUSH1 0x80 DUP1 DUP4 ADD MLOAD SWAP1 DUP8 ADD MSTORE PUSH1 0xA0 SWAP2 DUP3 ADD MLOAD SWAP2 DUP7 ADD DUP2 SWAP1 MSTORE PUSH2 0x124B DUP2 DUP8 ADD DUP4 PUSH2 0x934 JUMP JUMPDEST SWAP11 DUP8 ADD SWAP11 SWAP6 POP POP POP SWAP1 DUP5 ADD SWAP1 PUSH1 0x1 ADD PUSH2 0x11E0 JUMP JUMPDEST PUSH1 0x0 DUP2 MLOAD DUP1 DUP5 MSTORE PUSH1 0x20 DUP1 DUP6 ADD DUP1 DUP2 SWAP7 POP DUP4 PUSH1 0x5 SHL DUP2 ADD SWAP2 POP DUP3 DUP7 ADD PUSH1 0x0 JUMPDEST DUP6 DUP2 LT ISZERO PUSH2 0xA2A JUMPI DUP3 DUP5 SUB DUP10 MSTORE DUP2 MLOAD PUSH1 0xE0 PUSH2 0x1299 DUP7 DUP4 MLOAD PUSH2 0x960 JUMP JUMPDEST DUP2 DUP8 ADD MLOAD PUSH1 0x1 PUSH1 0x1 PUSH1 0x80 SHL SUB NOT SWAP1 DUP2 AND DUP8 DUP10 ADD MSTORE PUSH1 0x40 DUP1 DUP5 ADD MLOAD SWAP1 SWAP2 AND SWAP1 DUP8 ADD MSTORE PUSH1 0x60 DUP1 DUP4 ADD MLOAD SWAP1 DUP8 ADD MSTORE PUSH1 0x80 DUP1 DUP4 ADD MLOAD ISZERO ISZERO SWAP1 DUP8 ADD MSTORE PUSH1 0xA0 DUP1 DUP4 ADD MLOAD ISZERO ISZERO SWAP1 DUP8 ADD MSTORE PUSH1 0xC0 SWAP2 DUP3 ADD MLOAD SWAP2 DUP7 ADD DUP2 SWAP1 MSTORE PUSH2 0x12F4 DUP2 DUP8 ADD DUP4 PUSH2 0x934 JUMP JUMPDEST SWAP11 DUP8 ADD SWAP11 SWAP6 POP POP POP SWAP1 DUP5 ADD SWAP1 PUSH1 0x1 ADD PUSH2 0x127D JUMP JUMPDEST PUSH1 0x0 DUP2 MLOAD PUSH1 0x60 DUP5 MSTORE PUSH2 0x131D PUSH1 0x60 DUP6 ADD DUP3 PUSH2 0x934 JUMP JUMPDEST SWAP1 POP PUSH1 0x20 DUP4 ADD MLOAD ISZERO ISZERO PUSH1 0x20 DUP6 ADD MSTORE PUSH1 0x40 DUP4 ADD MLOAD DUP5 DUP3 SUB PUSH1 0x40 DUP7 ADD MSTORE PUSH2 0xB56 DUP3 DUP3 PUSH2 0x934 JUMP JUMPDEST PUSH1 0x0 PUSH1 0x80 DUP1 DUP5 ADD PUSH1 0x1 PUSH1 0x1 PUSH1 0x80 SHL SUB NOT DUP5 MLOAD AND DUP6 MSTORE PUSH1 0x20 DUP1 DUP6 ADD MLOAD DUP4 DUP3 DUP9 ADD MSTORE DUP3 DUP2 MLOAD DUP1 DUP6 MSTORE PUSH1 0xA0 SWAP5 POP DUP5 DUP10 ADD SWAP2 POP DUP5 DUP2 PUSH1 0x5 SHL DUP11 ADD ADD DUP5 DUP5 ADD SWAP4 POP PUSH1 0x0 JUMPDEST DUP3 DUP2 LT ISZERO PUSH2 0x13F6 JUMPI PUSH1 0x9F NOT DUP12 DUP4 SUB ADD DUP5 MSTORE DUP5 MLOAD PUSH1 0xC0 PUSH2 0x13A1 DUP5 DUP4 MLOAD PUSH2 0x8FC JUMP JUMPDEST DUP2 DUP9 ADD MLOAD DUP5 DUP10 ADD MSTORE PUSH1 0x40 DUP1 DUP4 ADD MLOAD ISZERO ISZERO SWAP1 DUP6 ADD MSTORE PUSH1 0x60 DUP1 DUP4 ADD MLOAD ISZERO ISZERO SWAP1 DUP6 ADD MSTORE DUP10 DUP3 ADD MLOAD ISZERO ISZERO DUP11 DUP6 ADD MSTORE SWAP1 DUP9 ADD MLOAD DUP9 DUP5 ADD DUP3 SWAP1 MSTORE SWAP1 PUSH2 0x13E2 DUP2 DUP6 ADD DUP4 PUSH2 0x934 JUMP JUMPDEST SWAP7 DUP9 ADD SWAP7 SWAP6 DUP9 ADD SWAP6 SWAP4 POP POP POP PUSH1 0x1 ADD PUSH2 0x1381 JUMP JUMPDEST POP PUSH1 0x40 DUP10 ADD MLOAD SWAP7 POP DUP10 DUP2 SUB PUSH1 0x40 DUP12 ADD MSTORE PUSH2 0x1410 DUP2 DUP9 PUSH2 0x125F JUMP JUMPDEST SWAP7 POP POP POP POP POP POP POP PUSH1 0x60 DUP4 ADD MLOAD DUP5 DUP3 SUB PUSH1 0x60 DUP7 ADD MSTORE PUSH2 0xB56 DUP3 DUP3 PUSH2 0x1308 JUMP JUMPDEST PUSH1 0x0 PUSH1 0x80 DUP1 DUP4 MSTORE PUSH1 0x1 PUSH1 0x1 PUSH1 0x80 SHL SUB NOT DUP1 DUP8 MLOAD AND DUP3 DUP6 ADD MSTORE PUSH1 0x20 DUP1 DUP9 ADD MLOAD DUP3 DUP2 AND PUSH1 0xA0 DUP8 ADD MSTORE POP PUSH1 0x40 DUP9 ADD MLOAD SWAP2 POP DUP2 PUSH1 0xC0 DUP7 ADD MSTORE PUSH1 0x60 DUP9 ADD MLOAD SWAP2 POP PUSH1 0xA0 PUSH1 0xE0 DUP7 ADD MSTORE PUSH2 0x147F PUSH2 0x120 DUP7 ADD DUP4 PUSH2 0x934 JUMP JUMPDEST DUP9 DUP5 ADD MLOAD DUP7 DUP3 SUB PUSH1 0x7F NOT ADD PUSH2 0x100 DUP9 ADD MSTORE DUP1 MLOAD DUP1 DUP4 MSTORE SWAP2 SWAP4 POP DUP3 ADD SWAP1 DUP3 DUP5 ADD SWAP1 PUSH1 0x5 DUP2 SWAP1 SHL DUP6 ADD DUP5 ADD PUSH1 0x0 JUMPDEST DUP3 DUP2 LT ISZERO PUSH2 0x15B8 JUMPI PUSH1 0x1F NOT DUP8 DUP4 SUB ADD DUP5 MSTORE DUP5 MLOAD DUP1 MLOAD PUSH1 0xA0 DUP1 DUP6 MSTORE DUP2 MLOAD SWAP1 DUP6 ADD DUP2 SWAP1 MSTORE PUSH1 0xC0 PUSH1 0x5 DUP3 SWAP1 SHL DUP7 ADD DUP2 ADD SWAP3 DUP11 ADD SWAP2 SWAP1 DUP7 ADD SWAP1 PUSH1 0x0 JUMPDEST DUP2 DUP2 LT ISZERO PUSH2 0x154D JUMPI PUSH1 0xBF NOT DUP9 DUP7 SUB ADD DUP4 MSTORE DUP4 MLOAD PUSH2 0x1501 DUP7 DUP3 MLOAD PUSH2 0x8FC JUMP JUMPDEST DUP13 DUP2 ADD MLOAD ISZERO ISZERO DUP14 DUP8 ADD MSTORE PUSH1 0x40 DUP2 ADD MLOAD ISZERO ISZERO PUSH1 0x40 DUP8 ADD MSTORE PUSH1 0x60 DUP2 ADD MLOAD PUSH1 0x60 DUP8 ADD MSTORE DUP15 DUP2 ADD MLOAD SWAP1 POP PUSH1 0xA0 DUP16 DUP8 ADD MSTORE PUSH2 0x153A PUSH1 0xA0 DUP8 ADD DUP3 PUSH2 0x934 JUMP JUMPDEST SWAP6 POP POP SWAP3 DUP12 ADD SWAP3 SWAP2 DUP12 ADD SWAP2 PUSH1 0x1 ADD PUSH2 0x14E3 JUMP JUMPDEST POP POP POP POP DUP8 DUP3 ADD MLOAD DUP5 DUP3 SUB DUP10 DUP7 ADD MSTORE PUSH2 0x1566 DUP3 DUP3 PUSH2 0x11C2 JUMP JUMPDEST SWAP2 POP POP PUSH1 0x40 DUP3 ADD MLOAD PUSH1 0x40 DUP6 ADD MSTORE PUSH1 0x60 DUP3 ADD MLOAD DUP5 DUP3 SUB PUSH1 0x60 DUP7 ADD MSTORE PUSH2 0x158A DUP3 DUP3 PUSH2 0x934 JUMP JUMPDEST SWAP2 POP POP DUP10 DUP3 ADD MLOAD SWAP2 POP DUP4 DUP2 SUB DUP11 DUP6 ADD MSTORE PUSH2 0x15A4 DUP2 DUP4 PUSH2 0x934 JUMP JUMPDEST SWAP7 DUP9 ADD SWAP7 SWAP6 DUP9 ADD SWAP6 SWAP4 POP POP POP PUSH1 0x1 ADD PUSH2 0x14AB JUMP JUMPDEST POP DUP9 DUP2 SUB DUP6 DUP11 ADD MSTORE PUSH2 0x15CA DUP2 DUP13 PUSH2 0x1342 JUMP JUMPDEST DUP11 MLOAD PUSH1 0x1 PUSH1 0x1 PUSH1 0x80 SHL SUB NOT AND PUSH1 0x40 DUP12 ADD MSTORE PUSH1 0x20 DUP12 ADD MLOAD MLOAD ISZERO ISZERO PUSH1 0x60 DUP12 ADD MSTORE SWAP8 POP PUSH2 0xBE0 SWAP7 POP POP POP POP POP POP POP JUMP JUMPDEST PUSH1 0x0 DUP3 PUSH1 0x1F DUP4 ADD SLT PUSH2 0x1608 JUMPI PUSH1 0x0 DUP1 REVERT JUMPDEST DUP2 MLOAD PUSH1 0x20 PUSH2 0x1618 PUSH2 0x836 DUP4 PUSH2 0xDA3 JUMP JUMPDEST DUP3 DUP2 MSTORE PUSH1 0x5 SWAP3 SWAP1 SWAP3 SHL DUP5 ADD DUP2 ADD SWAP2 DUP2 DUP2 ADD SWAP1 DUP7 DUP5 GT ISZERO PUSH2 0x1637 JUMPI PUSH1 0x0 DUP1 REVERT JUMPDEST DUP3 DUP7 ADD JUMPDEST DUP5 DUP2 LT ISZERO PUSH2 0xECD JUMPI DUP1 MLOAD PUSH1 0x1 PUSH1 0x1 PUSH1 0x40 SHL SUB DUP1 DUP3 GT ISZERO PUSH2 0x165B JUMPI PUSH1 0x0 DUP1 DUP2 REVERT JUMPDEST SWAP1 DUP9 ADD SWAP1 PUSH1 0xA0 DUP3 DUP12 SUB PUSH1 0x1F NOT ADD DUP2 SGT ISZERO PUSH2 0x1675 JUMPI PUSH1 0x0 DUP1 DUP2 REVERT JUMPDEST PUSH2 0x167D PUSH2 0x75A JUMP JUMPDEST PUSH2 0x1688 DUP9 DUP6 ADD PUSH2 0xDC6 JUMP JUMPDEST DUP2 MSTORE PUSH1 0x40 PUSH2 0x1697 DUP2 DUP7 ADD PUSH2 0xB8B JUMP JUMPDEST DUP10 DUP4 ADD MSTORE PUSH1 0x60 DUP1 DUP7 ADD MLOAD DUP3 DUP5 ADD MSTORE PUSH1 0x80 SWAP2 POP DUP2 DUP7 ADD MLOAD DUP6 DUP2 GT ISZERO PUSH2 0x16BB JUMPI PUSH1 0x0 DUP1 DUP2 REVERT JUMPDEST PUSH2 0x16C9 DUP16 DUP13 DUP4 DUP11 ADD ADD PUSH2 0xB9B JUMP JUMPDEST DUP3 DUP6 ADD MSTORE POP POP DUP3 DUP6 ADD MLOAD SWAP3 POP DUP4 DUP4 GT ISZERO PUSH2 0x16E3 JUMPI PUSH1 0x0 DUP1 DUP2 REVERT JUMPDEST PUSH2 0x16F1 DUP14 DUP11 DUP6 DUP9 ADD ADD PUSH2 0xB9B JUMP JUMPDEST SWAP1 DUP3 ADD MSTORE DUP7 MSTORE POP POP POP SWAP2 DUP4 ADD SWAP2 DUP4 ADD PUSH2 0x163B JUMP JUMPDEST PUSH1 0x0 DUP3 PUSH1 0x1F DUP4 ADD SLT PUSH2 0x1716 JUMPI PUSH1 0x0 DUP1 REVERT JUMPDEST DUP2 MLOAD PUSH1 0x20 PUSH2 0x1726 PUSH2 0x836 DUP4 PUSH2 0xDA3 JUMP JUMPDEST DUP3 DUP2 MSTORE PUSH1 0x5 SWAP3 SWAP1 SWAP3 SHL DUP5 ADD DUP2 ADD SWAP2 DUP2 DUP2 ADD SWAP1 DUP7 DUP5 GT ISZERO PUSH2 0x1745 JUMPI PUSH1 0x0 DUP1 REVERT JUMPDEST DUP3 DUP7 ADD JUMPDEST DUP5 DUP2 LT ISZERO PUSH2 0xECD JUMPI DUP1 MLOAD PUSH1 0x1 PUSH1 0x1 PUSH1 0x40 SHL SUB DUP1 DUP3 GT ISZERO PUSH2 0x1769 JUMPI PUSH1 0x0 DUP1 DUP2 REVERT JUMPDEST SWAP1 DUP9 ADD SWAP1 PUSH1 0xE0 DUP3 DUP12 SUB PUSH1 0x1F NOT ADD DUP2 SGT ISZERO PUSH2 0x1783 JUMPI PUSH1 0x0 DUP1 DUP2 REVERT JUMPDEST PUSH2 0x178B PUSH2 0x732 JUMP JUMPDEST PUSH2 0x1796 DUP9 DUP6 ADD PUSH2 0xB5F JUMP JUMPDEST DUP2 MSTORE PUSH1 0x40 PUSH2 0x17A5 DUP2 DUP7 ADD PUSH2 0xB73 JUMP JUMPDEST DUP10 DUP4 ADD MSTORE PUSH1 0x60 PUSH2 0x17B6 DUP2 DUP8 ADD PUSH2 0xB73 JUMP JUMPDEST DUP3 DUP5 ADD MSTORE PUSH1 0x80 SWAP2 POP DUP2 DUP7 ADD MLOAD DUP2 DUP5 ADD MSTORE POP PUSH1 0xA0 DUP1 DUP7 ADD MLOAD DUP6 DUP2 GT ISZERO PUSH2 0x17DB JUMPI PUSH1 0x0 DUP1 DUP2 REVERT JUMPDEST PUSH2 0x17E9 DUP16 DUP13 DUP4 DUP11 ADD ADD PUSH2 0xB9B JUMP JUMPDEST DUP4 DUP6 ADD MSTORE POP PUSH1 0xC0 SWAP2 POP DUP2 DUP7 ADD MLOAD DUP2 DUP5 ADD MSTORE POP DUP3 DUP6 ADD MLOAD SWAP3 POP DUP4 DUP4 GT ISZERO PUSH2 0x180F JUMPI PUSH1 0x0 DUP1 DUP2 REVERT JUMPDEST PUSH2 0x181D DUP14 DUP11 DUP6 DUP9 ADD ADD PUSH2 0xB9B JUMP JUMPDEST SWAP1 DUP3 ADD MSTORE DUP7 MSTORE POP POP POP SWAP2 DUP4 ADD SWAP2 DUP4 ADD PUSH2 0x1749 JUMP JUMPDEST PUSH1 0x0 PUSH1 0x20 DUP3 DUP5 SUB SLT ISZERO PUSH2 0x1843 JUMPI PUSH1 0x0 DUP1 REVERT JUMPDEST DUP2 MLOAD PUSH1 0x1 PUSH1 0x1 PUSH1 0x40 SHL SUB DUP1 DUP3 GT ISZERO PUSH2 0x185A JUMPI PUSH1 0x0 DUP1 REVERT JUMPDEST SWAP1 DUP4 ADD SWAP1 PUSH1 0xC0 DUP3 DUP7 SUB SLT ISZERO PUSH2 0x186E JUMPI PUSH1 0x0 DUP1 REVERT JUMPDEST PUSH2 0x1876 PUSH2 0x77C JUMP JUMPDEST PUSH2 0x187F DUP4 PUSH2 0xB73 JUMP JUMPDEST DUP2 MSTORE PUSH2 0x188D PUSH1 0x20 DUP5 ADD PUSH2 0xB73 JUMP JUMPDEST PUSH1 0x20 DUP3 ADD MSTORE PUSH1 0x40 DUP4 ADD MLOAD PUSH1 0x40 DUP3 ADD MSTORE PUSH1 0x60 DUP4 ADD MLOAD DUP3 DUP2 GT ISZERO PUSH2 0x18AE JUMPI PUSH1 0x0 DUP1 REVERT JUMPDEST PUSH2 0x18BA DUP8 DUP3 DUP7 ADD PUSH2 0x15F7 JUMP JUMPDEST PUSH1 0x60 DUP4 ADD MSTORE POP PUSH1 0x80 DUP4 ADD MLOAD DUP3 DUP2 GT ISZERO PUSH2 0x18D2 JUMPI PUSH1 0x0 DUP1 REVERT JUMPDEST PUSH2 0x18DE DUP8 DUP3 DUP7 ADD PUSH2 0x1705 JUMP JUMPDEST PUSH1 0x80 DUP4 ADD MSTORE POP PUSH1 0xA0 DUP4 ADD MLOAD DUP3 DUP2 GT ISZERO PUSH2 0x18F6 JUMPI PUSH1 0x0 DUP1 REVERT JUMPDEST PUSH2 0x1902 DUP8 DUP3 DUP7 ADD PUSH2 0xB9B JUMP JUMPDEST PUSH1 0xA0 DUP4 ADD MSTORE POP SWAP6 SWAP5 POP POP POP POP POP JUMP JUMPDEST PUSH1 0x40 DUP2 MSTORE PUSH1 0x0 PUSH2 0x1924 PUSH1 0x40 DUP4 ADD DUP6 PUSH2 0x125F JUMP JUMPDEST DUP3 DUP2 SUB PUSH1 0x20 DUP5 ADD MSTORE PUSH2 0xB56 DUP2 DUP6 PUSH2 0x1308 JUMP JUMPDEST PUSH1 0x0 DUP3 PUSH1 0x1F DUP4 ADD SLT PUSH2 0x1947 JUMPI PUSH1 0x0 DUP1 REVERT JUMPDEST DUP2 MLOAD PUSH1 0x20 PUSH2 0x1957 PUSH2 0x836 DUP4 PUSH2 0xDA3 JUMP JUMPDEST DUP3 DUP2 MSTORE PUSH1 0x5 SWAP3 SWAP1 SWAP3 SHL DUP5 ADD DUP2 ADD SWAP2 DUP2 DUP2 ADD SWAP1 DUP7 DUP5 GT ISZERO PUSH2 0x1976 JUMPI PUSH1 0x0 DUP1 REVERT JUMPDEST DUP3 DUP7 ADD JUMPDEST DUP5 DUP2 LT ISZERO PUSH2 0xECD JUMPI DUP1 MLOAD PUSH1 0x1 PUSH1 0x1 PUSH1 0x40 SHL SUB DUP2 GT ISZERO PUSH2 0x1999 JUMPI PUSH1 0x0 DUP1 DUP2 REVERT JUMPDEST PUSH2 0x19A7 DUP10 DUP7 DUP4 DUP12 ADD ADD PUSH2 0xBE8 JUMP JUMPDEST DUP5 MSTORE POP SWAP2 DUP4 ADD SWAP2 DUP4 ADD PUSH2 0x197A JUMP JUMPDEST PUSH1 0x0 PUSH1 0x20 DUP1 DUP4 DUP6 SUB SLT ISZERO PUSH2 0x19C8 JUMPI PUSH1 0x0 DUP1 REVERT JUMPDEST DUP3 MLOAD PUSH1 0x1 PUSH1 0x1 PUSH1 0x40 SHL SUB DUP1 DUP3 GT ISZERO PUSH2 0x19DF JUMPI PUSH1 0x0 DUP1 REVERT JUMPDEST SWAP1 DUP5 ADD SWAP1 PUSH1 0x80 DUP3 DUP8 SUB SLT ISZERO PUSH2 0x19F3 JUMPI PUSH1 0x0 DUP1 REVERT JUMPDEST PUSH2 0x19FB PUSH2 0x79E JUMP JUMPDEST PUSH2 0x1A04 DUP4 PUSH2 0xB73 JUMP JUMPDEST DUP2 MSTORE DUP4 DUP4 ADD MLOAD DUP3 DUP2 GT ISZERO PUSH2 0x1A17 JUMPI PUSH1 0x0 DUP1 REVERT JUMPDEST DUP4 ADD PUSH1 0x1F DUP2 ADD DUP9 SGT PUSH2 0x1A28 JUMPI PUSH1 0x0 DUP1 REVERT JUMPDEST DUP1 MLOAD PUSH2 0x1A36 PUSH2 0x836 DUP3 PUSH2 0xDA3 JUMP JUMPDEST DUP2 DUP2 MSTORE PUSH1 0x5 SWAP2 SWAP1 SWAP2 SHL DUP3 ADD DUP7 ADD SWAP1 DUP7 DUP2 ADD SWAP1 DUP11 DUP4 GT ISZERO PUSH2 0x1A55 JUMPI PUSH1 0x0 DUP1 REVERT JUMPDEST DUP8 DUP5 ADD JUMPDEST DUP4 DUP2 LT ISZERO PUSH2 0x1B0C JUMPI DUP1 MLOAD DUP8 DUP2 GT ISZERO PUSH2 0x1A70 JUMPI PUSH1 0x0 DUP1 REVERT JUMPDEST DUP6 ADD PUSH1 0xC0 DUP2 DUP15 SUB PUSH1 0x1F NOT ADD SLT ISZERO PUSH2 0x1A86 JUMPI PUSH1 0x0 DUP1 REVERT JUMPDEST PUSH2 0x1A8E PUSH2 0x77C JUMP JUMPDEST PUSH2 0x1A99 DUP12 DUP4 ADD PUSH2 0xDC6 JUMP JUMPDEST DUP2 MSTORE PUSH1 0x40 DUP3 ADD MLOAD DUP12 DUP3 ADD MSTORE PUSH2 0x1AB0 PUSH1 0x60 DUP4 ADD PUSH2 0xB8B JUMP JUMPDEST PUSH1 0x40 DUP3 ADD MSTORE PUSH2 0x1AC1 PUSH1 0x80 DUP4 ADD PUSH2 0xB8B JUMP JUMPDEST PUSH1 0x60 DUP3 ADD MSTORE PUSH2 0x1AD2 PUSH1 0xA0 DUP4 ADD PUSH2 0xB8B JUMP JUMPDEST PUSH1 0x80 DUP3 ADD MSTORE PUSH1 0xC0 DUP3 ADD MLOAD DUP10 DUP2 GT ISZERO PUSH2 0x1AEA JUMPI PUSH1 0x0 DUP1 DUP2 REVERT JUMPDEST PUSH2 0x1AF8 DUP16 DUP14 DUP4 DUP7 ADD ADD PUSH2 0xB9B JUMP JUMPDEST PUSH1 0xA0 DUP4 ADD MSTORE POP DUP5 MSTORE POP SWAP2 DUP9 ADD SWAP2 DUP9 ADD PUSH2 0x1A59 JUMP JUMPDEST POP DUP1 DUP9 DUP7 ADD MSTORE POP POP POP POP PUSH1 0x40 DUP4 ADD MLOAD SWAP4 POP DUP2 DUP5 GT ISZERO PUSH2 0x1B2A JUMPI PUSH1 0x0 DUP1 REVERT JUMPDEST PUSH2 0x1B36 DUP8 DUP6 DUP6 ADD PUSH2 0x1936 JUMP JUMPDEST PUSH1 0x40 DUP3 ADD MSTORE PUSH1 0x60 DUP4 ADD MLOAD SWAP4 POP DUP2 DUP5 GT ISZERO PUSH2 0x1B4F JUMPI PUSH1 0x0 DUP1 REVERT JUMPDEST PUSH2 0x1B5B DUP8 DUP6 DUP6 ADD PUSH2 0xCD5 JUMP JUMPDEST PUSH1 0x60 DUP3 ADD MSTORE SWAP7 SWAP6 POP POP POP POP POP POP JUMP INVALID LOG2 PUSH5 0x6970667358 0x22 SLT KECCAK256 0xED CALLDATALOAD 0xD5 DUP9 PUSH25 0x5C53BBE184304113258AF3B42AED2FCDF2F76499AD21B2F951 PUSH14 0xD964736F6C634300081100330000 "},"methodIdentifiers":{"ADDRESSES_PROVIDER_V2()":"46916301","APP_ID()":"c187bbc1","IS_IMPERSONATION_MODE()":"a183dc27","SISMO_CONNECT_LIB_VERSION()":"c9512d99","config()":"79502c55","verifyCitizen(bytes,bytes)":"81d6ef2d","verifyPolitician(bytes,bytes)":"bbc4cf0c"}}}}}