{"@uma/core/contracts/data-verification-mechanism/implementation/Constants.sol":{"OracleInterfaces":{"abi":[{"inputs":[],"name":"Bridge","outputs":[{"internalType":"bytes32","name":"","type":"bytes32"}],"stateMutability":"view","type":"function"},{"inputs":[],"name":"ChildMessenger","outputs":[{"internalType":"bytes32","name":"","type":"bytes32"}],"stateMutability":"view","type":"function"},{"inputs":[],"name":"CollateralWhitelist","outputs":[{"internalType":"bytes32","name":"","type":"bytes32"}],"stateMutability":"view","type":"function"},{"inputs":[],"name":"FinancialContractsAdmin","outputs":[{"internalType":"bytes32","name":"","type":"bytes32"}],"stateMutability":"view","type":"function"},{"inputs":[],"name":"GenericHandler","outputs":[{"internalType":"bytes32","name":"","type":"bytes32"}],"stateMutability":"view","type":"function"},{"inputs":[],"name":"IdentifierWhitelist","outputs":[{"internalType":"bytes32","name":"","type":"bytes32"}],"stateMutability":"view","type":"function"},{"inputs":[],"name":"OptimisticOracle","outputs":[{"internalType":"bytes32","name":"","type":"bytes32"}],"stateMutability":"view","type":"function"},{"inputs":[],"name":"OptimisticOracleV2","outputs":[{"internalType":"bytes32","name":"","type":"bytes32"}],"stateMutability":"view","type":"function"},{"inputs":[],"name":"OptimisticOracleV3","outputs":[{"internalType":"bytes32","name":"","type":"bytes32"}],"stateMutability":"view","type":"function"},{"inputs":[],"name":"Oracle","outputs":[{"internalType":"bytes32","name":"","type":"bytes32"}],"stateMutability":"view","type":"function"},{"inputs":[],"name":"OracleHub","outputs":[{"internalType":"bytes32","name":"","type":"bytes32"}],"stateMutability":"view","type":"function"},{"inputs":[],"name":"OracleSpoke","outputs":[{"internalType":"bytes32","name":"","type":"bytes32"}],"stateMutability":"view","type":"function"},{"inputs":[],"name":"Registry","outputs":[{"internalType":"bytes32","name":"","type":"bytes32"}],"stateMutability":"view","type":"function"},{"inputs":[],"name":"SkinnyOptimisticOracle","outputs":[{"internalType":"bytes32","name":"","type":"bytes32"}],"stateMutability":"view","type":"function"},{"inputs":[],"name":"Store","outputs":[{"internalType":"bytes32","name":"","type":"bytes32"}],"stateMutability":"view","type":"function"}],"evm":{"bytecode":{"linkReferences":{},"object":"61054c610053600b82828239805160001a607314610046577f4e487b7100000000000000000000000000000000000000000000000000000000600052600060045260246000fd5b30600052607381538281f3fe73000000000000000000000000000000000000000030146080604052600436106100ff5760003560e01c80634f4a180b116100a15780637db9743b116100705780637db9743b1461024e5780638adca47f1461026c578063f02f8e831461028a578063f24a534e146102a8576100ff565b80634f4a180b146101d6578063598dd097146101f45780635fa2ef10146102125780637608ea2f14610230576100ff565b80632a71e5b3116100dd5780632a71e5b31461015e57806342e90c331461017c5780634596ac9b1461019a578063473e7ccd146101b8576100ff565b8063079b6c63146101045780631a0fbfb3146101225780631a4dbd1c14610140575b600080fd5b61010c6102c6565b60405161011991906104fb565b60405180910390f35b61012a6102ea565b60405161013791906104fb565b60405180910390f35b61014861030e565b60405161015591906104fb565b60405180910390f35b610166610332565b60405161017391906104fb565b60405180910390f35b610184610356565b60405161019191906104fb565b60405180910390f35b6101a261037a565b6040516101af91906104fb565b60405180910390f35b6101c061039e565b6040516101cd91906104fb565b60405180910390f35b6101de6103c2565b6040516101eb91906104fb565b60405180910390f35b6101fc6103e6565b60405161020991906104fb565b60405180910390f35b61021a61040a565b60405161022791906104fb565b60405180910390f35b61023861042e565b60405161024591906104fb565b60405180910390f35b610256610452565b60405161026391906104fb565b60405180910390f35b610274610476565b60405161028191906104fb565b60405180910390f35b61029261049a565b60405161029f91906104fb565b60405180910390f35b6102b06104be565b6040516102bd91906104fb565b60405180910390f35b7f47656e6572696348616e646c657200000000000000000000000000000000000081565b7f4368696c644d657373656e67657200000000000000000000000000000000000081565b7f4f7074696d69737469634f7261636c650000000000000000000000000000000081565b7f46696e616e6369616c436f6e74726163747341646d696e00000000000000000081565b7f53746f726500000000000000000000000000000000000000000000000000000081565b7f536b696e6e794f7074696d69737469634f7261636c650000000000000000000081565b7f4f7074696d69737469634f7261636c655632000000000000000000000000000081565b7f4964656e74696669657257686974656c6973740000000000000000000000000081565b7f436f6c6c61746572616c57686974656c6973740000000000000000000000000081565b7f427269646765000000000000000000000000000000000000000000000000000081565b7f4f7261636c65487562000000000000000000000000000000000000000000000081565b7f526567697374727900000000000000000000000000000000000000000000000081565b7f4f7261636c6553706f6b6500000000000000000000000000000000000000000081565b7f4f7074696d69737469634f7261636c655633000000000000000000000000000081565b7f4f7261636c65000000000000000000000000000000000000000000000000000081565b6000819050919050565b6104f5816104e2565b82525050565b600060208201905061051060008301846104ec565b9291505056fea26469706673582212203ecff3f1d3d1ef7356b29c28e9d501a30fd3ac78b9588abedce6d272e39d364264736f6c63430008100033","opcodes":"PUSH2 0x54C PUSH2 0x53 PUSH1 0xB DUP3 DUP3 DUP3 CODECOPY DUP1 MLOAD PUSH1 0x0 BYTE PUSH1 0x73 EQ PUSH2 0x46 JUMPI PUSH32 0x4E487B7100000000000000000000000000000000000000000000000000000000 PUSH1 0x0 MSTORE PUSH1 0x0 PUSH1 0x4 MSTORE PUSH1 0x24 PUSH1 0x0 REVERT JUMPDEST ADDRESS PUSH1 0x0 MSTORE PUSH1 0x73 DUP2 MSTORE8 DUP3 DUP2 RETURN INVALID PUSH20 0x0 ADDRESS EQ PUSH1 0x80 PUSH1 0x40 MSTORE PUSH1 0x4 CALLDATASIZE LT PUSH2 0xFF JUMPI PUSH1 0x0 CALLDATALOAD PUSH1 0xE0 SHR DUP1 PUSH4 0x4F4A180B GT PUSH2 0xA1 JUMPI DUP1 PUSH4 0x7DB9743B GT PUSH2 0x70 JUMPI DUP1 PUSH4 0x7DB9743B EQ PUSH2 0x24E JUMPI DUP1 PUSH4 0x8ADCA47F EQ PUSH2 0x26C JUMPI DUP1 PUSH4 0xF02F8E83 EQ PUSH2 0x28A JUMPI DUP1 PUSH4 0xF24A534E EQ PUSH2 0x2A8 JUMPI PUSH2 0xFF JUMP JUMPDEST DUP1 PUSH4 0x4F4A180B EQ PUSH2 0x1D6 JUMPI DUP1 PUSH4 0x598DD097 EQ PUSH2 0x1F4 JUMPI DUP1 PUSH4 0x5FA2EF10 EQ PUSH2 0x212 JUMPI DUP1 PUSH4 0x7608EA2F EQ PUSH2 0x230 JUMPI PUSH2 0xFF JUMP JUMPDEST DUP1 PUSH4 0x2A71E5B3 GT PUSH2 0xDD JUMPI DUP1 PUSH4 0x2A71E5B3 EQ PUSH2 0x15E JUMPI DUP1 PUSH4 0x42E90C33 EQ PUSH2 0x17C JUMPI DUP1 PUSH4 0x4596AC9B EQ PUSH2 0x19A JUMPI DUP1 PUSH4 0x473E7CCD EQ PUSH2 0x1B8 JUMPI PUSH2 0xFF JUMP JUMPDEST DUP1 PUSH4 0x79B6C63 EQ PUSH2 0x104 JUMPI DUP1 PUSH4 0x1A0FBFB3 EQ PUSH2 0x122 JUMPI DUP1 PUSH4 0x1A4DBD1C EQ PUSH2 0x140 JUMPI JUMPDEST PUSH1 0x0 DUP1 REVERT JUMPDEST PUSH2 0x10C PUSH2 0x2C6 JUMP JUMPDEST PUSH1 0x40 MLOAD PUSH2 0x119 SWAP2 SWAP1 PUSH2 0x4FB JUMP JUMPDEST PUSH1 0x40 MLOAD DUP1 SWAP2 SUB SWAP1 RETURN JUMPDEST PUSH2 0x12A PUSH2 0x2EA JUMP JUMPDEST PUSH1 0x40 MLOAD PUSH2 0x137 SWAP2 SWAP1 PUSH2 0x4FB JUMP JUMPDEST PUSH1 0x40 MLOAD DUP1 SWAP2 SUB SWAP1 RETURN JUMPDEST PUSH2 0x148 PUSH2 0x30E JUMP JUMPDEST PUSH1 0x40 MLOAD PUSH2 0x155 SWAP2 SWAP1 PUSH2 0x4FB JUMP JUMPDEST PUSH1 0x40 MLOAD DUP1 SWAP2 SUB SWAP1 RETURN JUMPDEST PUSH2 0x166 PUSH2 0x332 JUMP JUMPDEST PUSH1 0x40 MLOAD PUSH2 0x173 SWAP2 SWAP1 PUSH2 0x4FB JUMP JUMPDEST PUSH1 0x40 MLOAD DUP1 SWAP2 SUB SWAP1 RETURN JUMPDEST PUSH2 0x184 PUSH2 0x356 JUMP JUMPDEST PUSH1 0x40 MLOAD PUSH2 0x191 SWAP2 SWAP1 PUSH2 0x4FB JUMP JUMPDEST PUSH1 0x40 MLOAD DUP1 SWAP2 SUB SWAP1 RETURN JUMPDEST PUSH2 0x1A2 PUSH2 0x37A JUMP JUMPDEST PUSH1 0x40 MLOAD PUSH2 0x1AF SWAP2 SWAP1 PUSH2 0x4FB JUMP JUMPDEST PUSH1 0x40 MLOAD DUP1 SWAP2 SUB SWAP1 RETURN JUMPDEST PUSH2 0x1C0 PUSH2 0x39E JUMP JUMPDEST PUSH1 0x40 MLOAD PUSH2 0x1CD SWAP2 SWAP1 PUSH2 0x4FB JUMP JUMPDEST PUSH1 0x40 MLOAD DUP1 SWAP2 SUB SWAP1 RETURN JUMPDEST PUSH2 0x1DE PUSH2 0x3C2 JUMP JUMPDEST PUSH1 0x40 MLOAD PUSH2 0x1EB SWAP2 SWAP1 PUSH2 0x4FB JUMP JUMPDEST PUSH1 0x40 MLOAD DUP1 SWAP2 SUB SWAP1 RETURN JUMPDEST PUSH2 0x1FC PUSH2 0x3E6 JUMP JUMPDEST PUSH1 0x40 MLOAD PUSH2 0x209 SWAP2 SWAP1 PUSH2 0x4FB JUMP JUMPDEST PUSH1 0x40 MLOAD DUP1 SWAP2 SUB SWAP1 RETURN JUMPDEST PUSH2 0x21A PUSH2 0x40A JUMP JUMPDEST PUSH1 0x40 MLOAD PUSH2 0x227 SWAP2 SWAP1 PUSH2 0x4FB JUMP JUMPDEST PUSH1 0x40 MLOAD DUP1 SWAP2 SUB SWAP1 RETURN JUMPDEST PUSH2 0x238 PUSH2 0x42E JUMP JUMPDEST PUSH1 0x40 MLOAD PUSH2 0x245 SWAP2 SWAP1 PUSH2 0x4FB JUMP JUMPDEST PUSH1 0x40 MLOAD DUP1 SWAP2 SUB SWAP1 RETURN JUMPDEST PUSH2 0x256 PUSH2 0x452 JUMP JUMPDEST PUSH1 0x40 MLOAD PUSH2 0x263 SWAP2 SWAP1 PUSH2 0x4FB JUMP JUMPDEST PUSH1 0x40 MLOAD DUP1 SWAP2 SUB SWAP1 RETURN JUMPDEST PUSH2 0x274 PUSH2 0x476 JUMP JUMPDEST PUSH1 0x40 MLOAD PUSH2 0x281 SWAP2 SWAP1 PUSH2 0x4FB JUMP JUMPDEST PUSH1 0x40 MLOAD DUP1 SWAP2 SUB SWAP1 RETURN JUMPDEST PUSH2 0x292 PUSH2 0x49A JUMP JUMPDEST PUSH1 0x40 MLOAD PUSH2 0x29F SWAP2 SWAP1 PUSH2 0x4FB JUMP JUMPDEST PUSH1 0x40 MLOAD DUP1 SWAP2 SUB SWAP1 RETURN JUMPDEST PUSH2 0x2B0 PUSH2 0x4BE JUMP JUMPDEST PUSH1 0x40 MLOAD PUSH2 0x2BD SWAP2 SWAP1 PUSH2 0x4FB JUMP JUMPDEST PUSH1 0x40 MLOAD DUP1 SWAP2 SUB SWAP1 RETURN JUMPDEST PUSH32 0x47656E6572696348616E646C6572000000000000000000000000000000000000 DUP2 JUMP JUMPDEST PUSH32 0x4368696C644D657373656E676572000000000000000000000000000000000000 DUP2 JUMP JUMPDEST PUSH32 0x4F7074696D69737469634F7261636C6500000000000000000000000000000000 DUP2 JUMP JUMPDEST PUSH32 0x46696E616E6369616C436F6E74726163747341646D696E000000000000000000 DUP2 JUMP JUMPDEST PUSH32 0x53746F7265000000000000000000000000000000000000000000000000000000 DUP2 JUMP JUMPDEST PUSH32 0x536B696E6E794F7074696D69737469634F7261636C6500000000000000000000 DUP2 JUMP JUMPDEST PUSH32 0x4F7074696D69737469634F7261636C6556320000000000000000000000000000 DUP2 JUMP JUMPDEST PUSH32 0x4964656E74696669657257686974656C69737400000000000000000000000000 DUP2 JUMP JUMPDEST PUSH32 0x436F6C6C61746572616C57686974656C69737400000000000000000000000000 DUP2 JUMP JUMPDEST PUSH32 0x4272696467650000000000000000000000000000000000000000000000000000 DUP2 JUMP JUMPDEST PUSH32 0x4F7261636C654875620000000000000000000000000000000000000000000000 DUP2 JUMP JUMPDEST PUSH32 0x5265676973747279000000000000000000000000000000000000000000000000 DUP2 JUMP JUMPDEST PUSH32 0x4F7261636C6553706F6B65000000000000000000000000000000000000000000 DUP2 JUMP JUMPDEST PUSH32 0x4F7074696D69737469634F7261636C6556330000000000000000000000000000 DUP2 JUMP JUMPDEST PUSH32 0x4F7261636C650000000000000000000000000000000000000000000000000000 DUP2 JUMP JUMPDEST PUSH1 0x0 DUP2 SWAP1 POP SWAP2 SWAP1 POP JUMP JUMPDEST PUSH2 0x4F5 DUP2 PUSH2 0x4E2 JUMP JUMPDEST DUP3 MSTORE POP POP JUMP JUMPDEST PUSH1 0x0 PUSH1 0x20 DUP3 ADD SWAP1 POP PUSH2 0x510 PUSH1 0x0 DUP4 ADD DUP5 PUSH2 0x4EC JUMP JUMPDEST SWAP3 SWAP2 POP POP JUMP INVALID LOG2 PUSH5 0x6970667358 0x22 SLT KECCAK256 RETURNDATACOPY 0xCF RETURN CALL 0xD3 0xD1 0xEF PUSH20 0x56B29C28E9D501A30FD3AC78B9588ABEDCE6D272 0xE3 SWAP14 CALLDATASIZE TIMESTAMP PUSH5 0x736F6C6343 STOP ADDMOD LT STOP CALLER "},"methodIdentifiers":{"Bridge()":"5fa2ef10","ChildMessenger()":"1a0fbfb3","CollateralWhitelist()":"598dd097","FinancialContractsAdmin()":"2a71e5b3","GenericHandler()":"079b6c63","IdentifierWhitelist()":"4f4a180b","OptimisticOracle()":"1a4dbd1c","OptimisticOracleV2()":"473e7ccd","OptimisticOracleV3()":"f02f8e83","Oracle()":"f24a534e","OracleHub()":"7608ea2f","OracleSpoke()":"8adca47f","Registry()":"7db9743b","SkinnyOptimisticOracle()":"4596ac9b","Store()":"42e90c33"}}}}}