{"@sismo-core/sismo-connect-solidity/contracts/libs/utils/ClaimRequestBuilder.sol":{"ClaimRequestBuilder":{"abi":[{"inputs":[],"name":"DEFAULT_CLAIM_REQUEST_EXTRA_DATA","outputs":[{"internalType":"bytes","name":"","type":"bytes"}],"stateMutability":"view","type":"function"},{"inputs":[],"name":"DEFAULT_CLAIM_REQUEST_GROUP_TIMESTAMP","outputs":[{"internalType":"bytes16","name":"","type":"bytes16"}],"stateMutability":"view","type":"function"},{"inputs":[],"name":"DEFAULT_CLAIM_REQUEST_IS_OPTIONAL","outputs":[{"internalType":"bool","name":"","type":"bool"}],"stateMutability":"view","type":"function"},{"inputs":[],"name":"DEFAULT_CLAIM_REQUEST_IS_SELECTABLE_BY_USER","outputs":[{"internalType":"bool","name":"","type":"bool"}],"stateMutability":"view","type":"function"},{"inputs":[],"name":"DEFAULT_CLAIM_REQUEST_TYPE","outputs":[{"internalType":"enum ClaimType","name":"","type":"uint8"}],"stateMutability":"view","type":"function"},{"inputs":[],"name":"DEFAULT_CLAIM_REQUEST_VALUE","outputs":[{"internalType":"uint256","name":"","type":"uint256"}],"stateMutability":"view","type":"function"},{"inputs":[{"internalType":"bytes16","name":"groupId","type":"bytes16"},{"internalType":"bytes16","name":"groupTimestamp","type":"bytes16"},{"internalType":"enum ClaimType","name":"claimType","type":"uint8"},{"internalType":"bytes","name":"extraData","type":"bytes"}],"name":"build","outputs":[{"components":[{"internalType":"enum ClaimType","name":"claimType","type":"uint8"},{"internalType":"bytes16","name":"groupId","type":"bytes16"},{"internalType":"bytes16","name":"groupTimestamp","type":"bytes16"},{"internalType":"uint256","name":"value","type":"uint256"},{"internalType":"bool","name":"isOptional","type":"bool"},{"internalType":"bool","name":"isSelectableByUser","type":"bool"},{"internalType":"bytes","name":"extraData","type":"bytes"}],"internalType":"struct ClaimRequest","name":"","type":"tuple"}],"stateMutability":"pure","type":"function"},{"inputs":[{"internalType":"bytes16","name":"groupId","type":"bytes16"},{"internalType":"bytes16","name":"groupTimestamp","type":"bytes16"},{"internalType":"uint256","name":"value","type":"uint256"},{"internalType":"bytes","name":"extraData","type":"bytes"}],"name":"build","outputs":[{"components":[{"internalType":"enum ClaimType","name":"claimType","type":"uint8"},{"internalType":"bytes16","name":"groupId","type":"bytes16"},{"internalType":"bytes16","name":"groupTimestamp","type":"bytes16"},{"internalType":"uint256","name":"value","type":"uint256"},{"internalType":"bool","name":"isOptional","type":"bool"},{"internalType":"bool","name":"isSelectableByUser","type":"bool"},{"internalType":"bytes","name":"extraData","type":"bytes"}],"internalType":"struct ClaimRequest","name":"","type":"tuple"}],"stateMutability":"pure","type":"function"},{"inputs":[{"internalType":"bytes16","name":"groupId","type":"bytes16"},{"internalType":"bytes16","name":"groupTimestamp","type":"bytes16"},{"internalType":"bool","name":"isOptional","type":"bool"},{"internalType":"bool","name":"isSelectableByUser","type":"bool"}],"name":"build","outputs":[{"components":[{"internalType":"enum ClaimType","name":"claimType","type":"uint8"},{"internalType":"bytes16","name":"groupId","type":"bytes16"},{"internalType":"bytes16","name":"groupTimestamp","type":"bytes16"},{"internalType":"uint256","name":"value","type":"uint256"},{"internalType":"bool","name":"isOptional","type":"bool"},{"internalType":"bool","name":"isSelectableByUser","type":"bool"},{"internalType":"bytes","name":"extraData","type":"bytes"}],"internalType":"struct ClaimRequest","name":"","type":"tuple"}],"stateMutability":"pure","type":"function"},{"inputs":[{"internalType":"bytes16","name":"groupId","type":"bytes16"},{"internalType":"uint256","name":"value","type":"uint256"},{"internalType":"enum ClaimType","name":"claimType","type":"uint8"},{"internalType":"bool","name":"isOptional","type":"bool"},{"internalType":"bool","name":"isSelectableByUser","type":"bool"}],"name":"build","outputs":[{"components":[{"internalType":"enum ClaimType","name":"claimType","type":"uint8"},{"internalType":"bytes16","name":"groupId","type":"bytes16"},{"internalType":"bytes16","name":"groupTimestamp","type":"bytes16"},{"internalType":"uint256","name":"value","type":"uint256"},{"internalType":"bool","name":"isOptional","type":"bool"},{"internalType":"bool","name":"isSelectableByUser","type":"bool"},{"internalType":"bytes","name":"extraData","type":"bytes"}],"internalType":"struct ClaimRequest","name":"","type":"tuple"}],"stateMutability":"pure","type":"function"},{"inputs":[{"internalType":"bytes16","name":"groupId","type":"bytes16"},{"internalType":"uint256","name":"value","type":"uint256"},{"internalType":"bool","name":"isOptional","type":"bool"},{"internalType":"bool","name":"isSelectableByUser","type":"bool"}],"name":"build","outputs":[{"components":[{"internalType":"enum ClaimType","name":"claimType","type":"uint8"},{"internalType":"bytes16","name":"groupId","type":"bytes16"},{"internalType":"bytes16","name":"groupTimestamp","type":"bytes16"},{"internalType":"uint256","name":"value","type":"uint256"},{"internalType":"bool","name":"isOptional","type":"bool"},{"internalType":"bool","name":"isSelectableByUser","type":"bool"},{"internalType":"bytes","name":"extraData","type":"bytes"}],"internalType":"struct ClaimRequest","name":"","type":"tuple"}],"stateMutability":"pure","type":"function"},{"inputs":[{"internalType":"bytes16","name":"groupId","type":"bytes16"},{"internalType":"bytes16","name":"groupTimestamp","type":"bytes16"},{"internalType":"enum ClaimType","name":"claimType","type":"uint8"},{"internalType":"bool","name":"isOptional","type":"bool"},{"internalType":"bool","name":"isSelectableByUser","type":"bool"}],"name":"build","outputs":[{"components":[{"internalType":"enum ClaimType","name":"claimType","type":"uint8"},{"internalType":"bytes16","name":"groupId","type":"bytes16"},{"internalType":"bytes16","name":"groupTimestamp","type":"bytes16"},{"internalType":"uint256","name":"value","type":"uint256"},{"internalType":"bool","name":"isOptional","type":"bool"},{"internalType":"bool","name":"isSelectableByUser","type":"bool"},{"internalType":"bytes","name":"extraData","type":"bytes"}],"internalType":"struct ClaimRequest","name":"","type":"tuple"}],"stateMutability":"pure","type":"function"},{"inputs":[{"internalType":"bytes16","name":"groupId","type":"bytes16"},{"internalType":"uint256","name":"value","type":"uint256"},{"internalType":"enum ClaimType","name":"claimType","type":"uint8"}],"name":"build","outputs":[{"components":[{"internalType":"enum ClaimType","name":"claimType","type":"uint8"},{"internalType":"bytes16","name":"groupId","type":"bytes16"},{"internalType":"bytes16","name":"groupTimestamp","type":"bytes16"},{"internalType":"uint256","name":"value","type":"uint256"},{"internalType":"bool","name":"isOptional","type":"bool"},{"internalType":"bool","name":"isSelectableByUser","type":"bool"},{"internalType":"bytes","name":"extraData","type":"bytes"}],"internalType":"struct ClaimRequest","name":"","type":"tuple"}],"stateMutability":"pure","type":"function"},{"inputs":[{"internalType":"bytes16","name":"groupId","type":"bytes16"},{"internalType":"bytes16","name":"groupTimestamp","type":"bytes16"},{"internalType":"uint256","name":"value","type":"uint256"}],"name":"build","outputs":[{"components":[{"internalType":"enum ClaimType","name":"claimType","type":"uint8"},{"internalType":"bytes16","name":"groupId","type":"bytes16"},{"internalType":"bytes16","name":"groupTimestamp","type":"bytes16"},{"internalType":"uint256","name":"value","type":"uint256"},{"internalType":"bool","name":"isOptional","type":"bool"},{"internalType":"bool","name":"isSelectableByUser","type":"bool"},{"internalType":"bytes","name":"extraData","type":"bytes"}],"internalType":"struct ClaimRequest","name":"","type":"tuple"}],"stateMutability":"pure","type":"function"},{"inputs":[{"internalType":"bytes16","name":"groupId","type":"bytes16"},{"internalType":"bytes16","name":"groupTimestamp","type":"bytes16"}],"name":"build","outputs":[{"components":[{"internalType":"enum ClaimType","name":"claimType","type":"uint8"},{"internalType":"bytes16","name":"groupId","type":"bytes16"},{"internalType":"bytes16","name":"groupTimestamp","type":"bytes16"},{"internalType":"uint256","name":"value","type":"uint256"},{"internalType":"bool","name":"isOptional","type":"bool"},{"internalType":"bool","name":"isSelectableByUser","type":"bool"},{"internalType":"bytes","name":"extraData","type":"bytes"}],"internalType":"struct ClaimRequest","name":"","type":"tuple"}],"stateMutability":"pure","type":"function"},{"inputs":[{"internalType":"bytes16","name":"groupId","type":"bytes16"},{"internalType":"bytes16","name":"groupTimestamp","type":"bytes16"},{"internalType":"uint256","name":"value","type":"uint256"},{"internalType":"enum ClaimType","name":"claimType","type":"uint8"},{"internalType":"bool","name":"isOptional","type":"bool"},{"internalType":"bool","name":"isSelectableByUser","type":"bool"}],"name":"build","outputs":[{"components":[{"internalType":"enum ClaimType","name":"claimType","type":"uint8"},{"internalType":"bytes16","name":"groupId","type":"bytes16"},{"internalType":"bytes16","name":"groupTimestamp","type":"bytes16"},{"internalType":"uint256","name":"value","type":"uint256"},{"internalType":"bool","name":"isOptional","type":"bool"},{"internalType":"bool","name":"isSelectableByUser","type":"bool"},{"internalType":"bytes","name":"extraData","type":"bytes"}],"internalType":"struct ClaimRequest","name":"","type":"tuple"}],"stateMutability":"pure","type":"function"},{"inputs":[{"internalType":"bytes16","name":"groupId","type":"bytes16"},{"internalType":"bytes16","name":"groupTimestamp","type":"bytes16"},{"internalType":"uint256","name":"value","type":"uint256"},{"internalType":"enum ClaimType","name":"claimType","type":"uint8"},{"internalType":"bytes","name":"extraData","type":"bytes"}],"name":"build","outputs":[{"components":[{"internalType":"enum ClaimType","name":"claimType","type":"uint8"},{"internalType":"bytes16","name":"groupId","type":"bytes16"},{"internalType":"bytes16","name":"groupTimestamp","type":"bytes16"},{"internalType":"uint256","name":"value","type":"uint256"},{"internalType":"bool","name":"isOptional","type":"bool"},{"internalType":"bool","name":"isSelectableByUser","type":"bool"},{"internalType":"bytes","name":"extraData","type":"bytes"}],"internalType":"struct ClaimRequest","name":"","type":"tuple"}],"stateMutability":"pure","type":"function"},{"inputs":[{"internalType":"bytes16","name":"groupId","type":"bytes16"},{"internalType":"enum ClaimType","name":"claimType","type":"uint8"}],"name":"build","outputs":[{"components":[{"internalType":"enum ClaimType","name":"claimType","type":"uint8"},{"internalType":"bytes16","name":"groupId","type":"bytes16"},{"internalType":"bytes16","name":"groupTimestamp","type":"bytes16"},{"internalType":"uint256","name":"value","type":"uint256"},{"internalType":"bool","name":"isOptional","type":"bool"},{"internalType":"bool","name":"isSelectableByUser","type":"bool"},{"internalType":"bytes","name":"extraData","type":"bytes"}],"internalType":"struct ClaimRequest","name":"","type":"tuple"}],"stateMutability":"pure","type":"function"},{"inputs":[{"internalType":"bytes16","name":"groupId","type":"bytes16"},{"internalType":"uint256","name":"value","type":"uint256"}],"name":"build","outputs":[{"components":[{"internalType":"enum ClaimType","name":"claimType","type":"uint8"},{"internalType":"bytes16","name":"groupId","type":"bytes16"},{"internalType":"bytes16","name":"groupTimestamp","type":"bytes16"},{"internalType":"uint256","name":"value","type":"uint256"},{"internalType":"bool","name":"isOptional","type":"bool"},{"internalType":"bool","name":"isSelectableByUser","type":"bool"},{"internalType":"bytes","name":"extraData","type":"bytes"}],"internalType":"struct ClaimRequest","name":"","type":"tuple"}],"stateMutability":"pure","type":"function"},{"inputs":[{"internalType":"bytes16","name":"groupId","type":"bytes16"},{"internalType":"enum ClaimType","name":"claimType","type":"uint8"},{"internalType":"bytes","name":"extraData","type":"bytes"}],"name":"build","outputs":[{"components":[{"internalType":"enum ClaimType","name":"claimType","type":"uint8"},{"internalType":"bytes16","name":"groupId","type":"bytes16"},{"internalType":"bytes16","name":"groupTimestamp","type":"bytes16"},{"internalType":"uint256","name":"value","type":"uint256"},{"internalType":"bool","name":"isOptional","type":"bool"},{"internalType":"bool","name":"isSelectableByUser","type":"bool"},{"internalType":"bytes","name":"extraData","type":"bytes"}],"internalType":"struct ClaimRequest","name":"","type":"tuple"}],"stateMutability":"pure","type":"function"},{"inputs":[{"internalType":"bytes16","name":"groupId","type":"bytes16"},{"internalType":"bytes","name":"extraData","type":"bytes"}],"name":"build","outputs":[{"components":[{"internalType":"enum ClaimType","name":"claimType","type":"uint8"},{"internalType":"bytes16","name":"groupId","type":"bytes16"},{"internalType":"bytes16","name":"groupTimestamp","type":"bytes16"},{"internalType":"uint256","name":"value","type":"uint256"},{"internalType":"bool","name":"isOptional","type":"bool"},{"internalType":"bool","name":"isSelectableByUser","type":"bool"},{"internalType":"bytes","name":"extraData","type":"bytes"}],"internalType":"struct ClaimRequest","name":"","type":"tuple"}],"stateMutability":"pure","type":"function"},{"inputs":[{"internalType":"bytes16","name":"groupId","type":"bytes16"},{"internalType":"enum ClaimType","name":"claimType","type":"uint8"},{"internalType":"bool","name":"isOptional","type":"bool"},{"internalType":"bool","name":"isSelectableByUser","type":"bool"}],"name":"build","outputs":[{"components":[{"internalType":"enum ClaimType","name":"claimType","type":"uint8"},{"internalType":"bytes16","name":"groupId","type":"bytes16"},{"internalType":"bytes16","name":"groupTimestamp","type":"bytes16"},{"internalType":"uint256","name":"value","type":"uint256"},{"internalType":"bool","name":"isOptional","type":"bool"},{"internalType":"bool","name":"isSelectableByUser","type":"bool"},{"internalType":"bytes","name":"extraData","type":"bytes"}],"internalType":"struct ClaimRequest","name":"","type":"tuple"}],"stateMutability":"pure","type":"function"},{"inputs":[{"internalType":"bytes16","name":"groupId","type":"bytes16"},{"internalType":"bytes16","name":"groupTimestamp","type":"bytes16"},{"internalType":"enum ClaimType","name":"claimType","type":"uint8"}],"name":"build","outputs":[{"components":[{"internalType":"enum ClaimType","name":"claimType","type":"uint8"},{"internalType":"bytes16","name":"groupId","type":"bytes16"},{"internalType":"bytes16","name":"groupTimestamp","type":"bytes16"},{"internalType":"uint256","name":"value","type":"uint256"},{"internalType":"bool","name":"isOptional","type":"bool"},{"internalType":"bool","name":"isSelectableByUser","type":"bool"},{"internalType":"bytes","name":"extraData","type":"bytes"}],"internalType":"struct ClaimRequest","name":"","type":"tuple"}],"stateMutability":"pure","type":"function"},{"inputs":[{"internalType":"bytes16","name":"groupId","type":"bytes16"},{"internalType":"bytes16","name":"groupTimestamp","type":"bytes16"},{"internalType":"uint256","name":"value","type":"uint256"},{"internalType":"enum ClaimType","name":"claimType","type":"uint8"}],"name":"build","outputs":[{"components":[{"internalType":"enum ClaimType","name":"claimType","type":"uint8"},{"internalType":"bytes16","name":"groupId","type":"bytes16"},{"internalType":"bytes16","name":"groupTimestamp","type":"bytes16"},{"internalType":"uint256","name":"value","type":"uint256"},{"internalType":"bool","name":"isOptional","type":"bool"},{"internalType":"bool","name":"isSelectableByUser","type":"bool"},{"internalType":"bytes","name":"extraData","type":"bytes"}],"internalType":"struct ClaimRequest","name":"","type":"tuple"}],"stateMutability":"pure","type":"function"},{"inputs":[{"internalType":"bytes16","name":"groupId","type":"bytes16"},{"internalType":"bytes16","name":"groupTimestamp","type":"bytes16"},{"internalType":"uint256","name":"value","type":"uint256"},{"internalType":"bool","name":"isOptional","type":"bool"},{"internalType":"bool","name":"isSelectableByUser","type":"bool"}],"name":"build","outputs":[{"components":[{"internalType":"enum ClaimType","name":"claimType","type":"uint8"},{"internalType":"bytes16","name":"groupId","type":"bytes16"},{"internalType":"bytes16","name":"groupTimestamp","type":"bytes16"},{"internalType":"uint256","name":"value","type":"uint256"},{"internalType":"bool","name":"isOptional","type":"bool"},{"internalType":"bool","name":"isSelectableByUser","type":"bool"},{"internalType":"bytes","name":"extraData","type":"bytes"}],"internalType":"struct ClaimRequest","name":"","type":"tuple"}],"stateMutability":"pure","type":"function"},{"inputs":[{"internalType":"bytes16","name":"groupId","type":"bytes16"},{"internalType":"uint256","name":"value","type":"uint256"},{"internalType":"enum ClaimType","name":"claimType","type":"uint8"},{"internalType":"bytes","name":"extraData","type":"bytes"}],"name":"build","outputs":[{"components":[{"internalType":"enum ClaimType","name":"claimType","type":"uint8"},{"internalType":"bytes16","name":"groupId","type":"bytes16"},{"internalType":"bytes16","name":"groupTimestamp","type":"bytes16"},{"internalType":"uint256","name":"value","type":"uint256"},{"internalType":"bool","name":"isOptional","type":"bool"},{"internalType":"bool","name":"isSelectableByUser","type":"bool"},{"internalType":"bytes","name":"extraData","type":"bytes"}],"internalType":"struct ClaimRequest","name":"","type":"tuple"}],"stateMutability":"pure","type":"function"},{"inputs":[{"internalType":"bytes16","name":"groupId","type":"bytes16"}],"name":"build","outputs":[{"components":[{"internalType":"enum ClaimType","name":"claimType","type":"uint8"},{"internalType":"bytes16","name":"groupId","type":"bytes16"},{"internalType":"bytes16","name":"groupTimestamp","type":"bytes16"},{"internalType":"uint256","name":"value","type":"uint256"},{"internalType":"bool","name":"isOptional","type":"bool"},{"internalType":"bool","name":"isSelectableByUser","type":"bool"},{"internalType":"bytes","name":"extraData","type":"bytes"}],"internalType":"struct ClaimRequest","name":"","type":"tuple"}],"stateMutability":"pure","type":"function"},{"inputs":[{"internalType":"bytes16","name":"groupId","type":"bytes16"},{"internalType":"bytes16","name":"groupTimestamp","type":"bytes16"},{"internalType":"uint256","name":"value","type":"uint256"},{"internalType":"enum ClaimType","name":"claimType","type":"uint8"},{"internalType":"bool","name":"isOptional","type":"bool"},{"internalType":"bool","name":"isSelectableByUser","type":"bool"},{"internalType":"bytes","name":"extraData","type":"bytes"}],"name":"build","outputs":[{"components":[{"internalType":"enum ClaimType","name":"claimType","type":"uint8"},{"internalType":"bytes16","name":"groupId","type":"bytes16"},{"internalType":"bytes16","name":"groupTimestamp","type":"bytes16"},{"internalType":"uint256","name":"value","type":"uint256"},{"internalType":"bool","name":"isOptional","type":"bool"},{"internalType":"bool","name":"isSelectableByUser","type":"bool"},{"internalType":"bytes","name":"extraData","type":"bytes"}],"internalType":"struct ClaimRequest","name":"","type":"tuple"}],"stateMutability":"pure","type":"function"},{"inputs":[{"internalType":"bytes16","name":"groupId","type":"bytes16"},{"internalType":"uint256","name":"value","type":"uint256"},{"internalType":"bytes","name":"extraData","type":"bytes"}],"name":"build","outputs":[{"components":[{"internalType":"enum ClaimType","name":"claimType","type":"uint8"},{"internalType":"bytes16","name":"groupId","type":"bytes16"},{"internalType":"bytes16","name":"groupTimestamp","type":"bytes16"},{"internalType":"uint256","name":"value","type":"uint256"},{"internalType":"bool","name":"isOptional","type":"bool"},{"internalType":"bool","name":"isSelectableByUser","type":"bool"},{"internalType":"bytes","name":"extraData","type":"bytes"}],"internalType":"struct ClaimRequest","name":"","type":"tuple"}],"stateMutability":"pure","type":"function"},{"inputs":[{"internalType":"bytes16","name":"groupId","type":"bytes16"},{"internalType":"bool","name":"isOptional","type":"bool"},{"internalType":"bool","name":"isSelectableByUser","type":"bool"}],"name":"build","outputs":[{"components":[{"internalType":"enum ClaimType","name":"claimType","type":"uint8"},{"internalType":"bytes16","name":"groupId","type":"bytes16"},{"internalType":"bytes16","name":"groupTimestamp","type":"bytes16"},{"internalType":"uint256","name":"value","type":"uint256"},{"internalType":"bool","name":"isOptional","type":"bool"},{"internalType":"bool","name":"isSelectableByUser","type":"bool"},{"internalType":"bytes","name":"extraData","type":"bytes"}],"internalType":"struct ClaimRequest","name":"","type":"tuple"}],"stateMutability":"pure","type":"function"},{"inputs":[{"internalType":"bytes16","name":"groupId","type":"bytes16"},{"internalType":"bytes16","name":"groupTimestamp","type":"bytes16"},{"internalType":"bytes","name":"extraData","type":"bytes"}],"name":"build","outputs":[{"components":[{"internalType":"enum ClaimType","name":"claimType","type":"uint8"},{"internalType":"bytes16","name":"groupId","type":"bytes16"},{"internalType":"bytes16","name":"groupTimestamp","type":"bytes16"},{"internalType":"uint256","name":"value","type":"uint256"},{"internalType":"bool","name":"isOptional","type":"bool"},{"internalType":"bool","name":"isSelectableByUser","type":"bool"},{"internalType":"bytes","name":"extraData","type":"bytes"}],"internalType":"struct ClaimRequest","name":"","type":"tuple"}],"stateMutability":"pure","type":"function"}],"evm":{"bytecode":{"linkReferences":{},"object":"608060405234801561001057600080fd5b50611851806100206000396000f3fe608060405234801561001057600080fd5b50600436106101e55760003560e01c806384a0e9071161010f578063d4e694f7116100a2578063e3ec2c9911610071578063e3ec2c9914610426578063ec29407814610439578063ee5decf21461044c578063f744d6541461045f57600080fd5b8063d4e694f7146103ca578063d8b6eb2b146103ed578063db9178d614610400578063e379821c1461041357600080fd5b8063b5a7fef5116100de578063b5a7fef514610389578063bd240b861461039c578063c9062f31146103a4578063d035c7ca146103b757600080fd5b806384a0e9071461033b5780638628695b1461035057806397e6535314610363578063a820af1a1461037657600080fd5b8063409f789a116101875780636b945f38116101565780636b945f38146102d9578063749d6d85146102ec5780637aadac0d1461031557806380decbce1461032857600080fd5b8063409f789a1461028a5780634d06bd881461029d578063644c52c8146102b05780636658580a146102c357600080fd5b806335628e71116101c357806335628e711461023e5780633880e361146102515780633a5dc559146102645780633b0cb0731461027757600080fd5b80630d55ad28146101ea578063102f7b601461021357806330c62a4a14610226575b600080fd5b6101fd6101f8366004610ffa565b610472565b60405161020a91906110e7565b60405180910390f35b6101fd610221366004611162565b6104d6565b61022e600081565b604051901515815260200161020a565b6101fd61024c3660046111c2565b610528565b6101fd61025f366004611216565b610586565b6101fd610272366004611274565b61060d565b6101fd6102853660046112a8565b610672565b6101fd6102983660046112e5565b6106f1565b6101fd6102ab366004611321565b610778565b6101fd6102be36600461135d565b6107d5565b6102cb600181565b60405190815260200161020a565b6101fd6102e7366004611390565b610837565b6102fc651b185d195cdd60d21b81565b6040516001600160801b0319909116815260200161020a565b6101fd6103233660046113fd565b6108b6565b6101fd610336366004611476565b610918565b610343600081565b60405161020a91906114a0565b6101fd61035e3660046114ae565b61099f565b6101fd6103713660046114d8565b610a03565b6101fd610384366004611536565b610a6d565b6101fd610397366004611584565b610ac7565b61022e600181565b6101fd6103b23660046115b1565b610b4e565b6101fd6103c53660046115eb565b610bcd565b6103e06040518060200160405280600081525081565b60405161020a919061162d565b6101fd6103fb366004611647565b610c4c565b6101fd61040e36600461168b565b610caa565b6101fd6104213660046116bf565b610d15565b6101fd6104343660046116da565b610d78565b6101fd610447366004611774565b610ddb565b6101fd61045a3660046117b5565b610e36565b6101fd61046d3660046117ef565b610e9a565b61047a610eeb565b6040518060e0016040528084600481111561049757610497611069565b81526001600160801b03198088166020830152861660408201526001606082018190526000608083015260a082015260c0018390529050949350505050565b6104de610eeb565b6040805160e0810190915280600081526001600160801b0319968716602082015294909516604085015250606083019190915260006080830152600160a083015260c09091015290565b610530610eeb565b506040805160e08101825260008082526001600160801b0319968716602080840191909152959096168183015260016060820152921515608084015290151560a08301528051928301905291815260c082015290565b61058e610eeb565b6040518060e001604052808560048111156105ab576105ab611069565b8152602001876001600160801b0319168152602001651b185d195cdd60d21b6001600160801b03191681526020018681526020018415158152602001831515815260200160405180602001604052806000815250815250905095945050505050565b610615610eeb565b506040805160e08101825260008082526001600160801b0319909616602080830191909152651b185d195cdd60d21b828401526060820195909552921515608084015290151560a08301528051928301905291815260c082015290565b61067a610eeb565b6040518060e0016040528085600481111561069757610697611069565b8152602001876001600160801b0319168152602001866001600160801b0319168152602001600181526020018415158152602001831515815260200160405180602001604052806000815250815250905095945050505050565b6106f9610eeb565b6040518060e0016040528083600481111561071657610716611069565b8152602001856001600160801b0319168152602001651b185d195cdd60d21b6001600160801b03191681526020018481526020016000151581526020016001151581526020016040518060200160405280600081525081525090509392505050565b610780610eeb565b506040805160e08101825260008082526001600160801b03199586166020808401919091529490951681830152606081019290925260808201849052600160a08301528051928301905291815260c082015290565b6107dd610eeb565b506040805160e08101825260008082526001600160801b0319808616602080850191909152908516838501526001606084018190526080840183905260a08401528351908101909352825260c08101919091525b92915050565b61083f610eeb565b6040518060e0016040528085600481111561085c5761085c611069565b8152602001886001600160801b0319168152602001876001600160801b0319168152602001868152602001841515815260200183151581526020016040518060200160405280600081525081525090509695505050505050565b6108be610eeb565b6040518060e001604052808460048111156108db576108db611069565b81526001600160801b031997881660208201529590961660408601525060608401929092525060006080830152600160a083015260c09091015290565b610920610eeb565b6040518060e0016040528083600481111561093d5761093d611069565b8152602001846001600160801b0319168152602001651b185d195cdd60d21b6001600160801b03191681526020016001815260200160001515815260200160011515815260200160405180602001604052806000815250815250905092915050565b6109a7610eeb565b506040805160e08101825260008082526001600160801b0319909416602080830191909152651b185d195cdd60d21b82840152606082019390935260808101849052600160a0820152815192830190915291815260c082015290565b610a0b610eeb565b6040518060e00160405280846004811115610a2857610a28611069565b81526001600160801b031986166020820152651b185d195cdd60d21b60408201526001606082018190526000608083015260a082015260c00183905290509392505050565b610a75610eeb565b6040805160e0810190915280600081526001600160801b031985166020820152651b185d195cdd60d21b60408201526001606082018190526000608083015260a082015260c001839052905092915050565b610acf610eeb565b6040518060e00160405280856004811115610aec57610aec611069565b8152602001866001600160801b0319168152602001651b185d195cdd60d21b6001600160801b03191681526020016001815260200184151581526020018315158152602001604051806020016040528060008152508152509050949350505050565b610b56610eeb565b6040518060e00160405280836004811115610b7357610b73611069565b8152602001856001600160801b0319168152602001846001600160801b0319168152602001600181526020016000151581526020016001151581526020016040518060200160405280600081525081525090509392505050565b610bd5610eeb565b6040518060e00160405280836004811115610bf257610bf2611069565b8152602001866001600160801b0319168152602001856001600160801b0319168152602001848152602001600015158152602001600115158152602001604051806020016040528060008152508152509050949350505050565b610c54610eeb565b506040805160e08101825260008082526001600160801b0319978816602080840191909152969097168183015260608101949094529115156080840152151560a08301528051928301905291815260c082015290565b610cb2610eeb565b6040518060e00160405280846004811115610ccf57610ccf611069565b81526001600160801b031987166020820152651b185d195cdd60d21b60408201526060810186905260006080820152600160a082015260c0018390529050949350505050565b610d1d610eeb565b506040805160e08101825260008082526001600160801b0319909316602080830191909152651b185d195cdd60d21b828401526001606083018190526080830185905260a0830152825190810190925291815260c082015290565b610d80610eeb565b6040518060e00160405280866004811115610d9d57610d9d611069565b81526001600160801b0319998a1660208201529790981660408801525060608601949094529015156080850152151560a08401525060c09091015290565b610de3610eeb565b6040805160e0810190915280600081526001600160801b031986166020820152651b185d195cdd60d21b60408201526060810185905260006080820152600160a082015260c00183905290509392505050565b610e3e610eeb565b506040805160e08101825260008082526001600160801b0319909516602080830191909152651b185d195cdd60d21b8284015260016060830152931515608082015291151560a08301528051928301905291815260c082015290565b610ea2610eeb565b6040805160e0810190915280600081526001600160801b03199586166020820152939094166040840152506001606083018190526000608084015260a083015260c09091015290565b6040805160e0810190915280600081526000602082018190526040820181905260608083018290526080830182905260a083019190915260c09091015290565b80356001600160801b031981168114610f4357600080fd5b919050565b803560058110610f4357600080fd5b634e487b7160e01b600052604160045260246000fd5b600082601f830112610f7e57600080fd5b813567ffffffffffffffff80821115610f9957610f99610f57565b604051601f8301601f19908116603f01168101908282118183101715610fc157610fc1610f57565b81604052838152866020858801011115610fda57600080fd5b836020870160208301376000602085830101528094505050505092915050565b6000806000806080858703121561101057600080fd5b61101985610f2b565b935061102760208601610f2b565b925061103560408601610f48565b9150606085013567ffffffffffffffff81111561105157600080fd5b61105d87828801610f6d565b91505092959194509250565b634e487b7160e01b600052602160045260246000fd5b6005811061109d57634e487b7160e01b600052602160045260246000fd5b9052565b6000815180845260005b818110156110c7576020818501810151868301820152016110ab565b506000602082860101526020601f19601f83011685010191505092915050565b602081526110f960208201835161107f565b600060208301516001600160801b031980821660408501528060408601511660608501525050606083015160808301526080830151151560a083015260a0830151151560c083015260c083015160e08084015261115a6101008401826110a1565b949350505050565b6000806000806080858703121561117857600080fd5b61118185610f2b565b935061118f60208601610f2b565b925060408501359150606085013567ffffffffffffffff81111561105157600080fd5b80358015158114610f4357600080fd5b600080600080608085870312156111d857600080fd5b6111e185610f2b565b93506111ef60208601610f2b565b92506111fd604086016111b2565b915061120b606086016111b2565b905092959194509250565b600080600080600060a0868803121561122e57600080fd5b61123786610f2b565b94506020860135935061124c60408701610f48565b925061125a606087016111b2565b9150611268608087016111b2565b90509295509295909350565b6000806000806080858703121561128a57600080fd5b61129385610f2b565b9350602085013592506111fd604086016111b2565b600080600080600060a086880312156112c057600080fd5b6112c986610f2b565b94506112d760208701610f2b565b935061124c60408701610f48565b6000806000606084860312156112fa57600080fd5b61130384610f2b565b92506020840135915061131860408501610f48565b90509250925092565b60008060006060848603121561133657600080fd5b61133f84610f2b565b925061134d60208501610f2b565b9150604084013590509250925092565b6000806040838503121561137057600080fd5b61137983610f2b565b915061138760208401610f2b565b90509250929050565b60008060008060008060c087890312156113a957600080fd5b6113b287610f2b565b95506113c060208801610f2b565b9450604087013593506113d560608801610f48565b92506113e3608088016111b2565b91506113f160a088016111b2565b90509295509295509295565b600080600080600060a0868803121561141557600080fd5b61141e86610f2b565b945061142c60208701610f2b565b93506040860135925061144160608701610f48565b9150608086013567ffffffffffffffff81111561145d57600080fd5b61146988828901610f6d565b9150509295509295909350565b6000806040838503121561148957600080fd5b61149283610f2b565b915061138760208401610f48565b60208101610831828461107f565b600080604083850312156114c157600080fd5b6114ca83610f2b565b946020939093013593505050565b6000806000606084860312156114ed57600080fd5b6114f684610f2b565b925061150460208501610f48565b9150604084013567ffffffffffffffff81111561152057600080fd5b61152c86828701610f6d565b9150509250925092565b6000806040838503121561154957600080fd5b61155283610f2b565b9150602083013567ffffffffffffffff81111561156e57600080fd5b61157a85828601610f6d565b9150509250929050565b6000806000806080858703121561159a57600080fd5b6115a385610f2b565b93506111ef60208601610f48565b6000806000606084860312156115c657600080fd5b6115cf84610f2b565b92506115dd60208501610f2b565b915061131860408501610f48565b6000806000806080858703121561160157600080fd5b61160a85610f2b565b935061161860208601610f2b565b92506040850135915061120b60608601610f48565b60208152600061164060208301846110a1565b9392505050565b600080600080600060a0868803121561165f57600080fd5b61166886610f2b565b945061167660208701610f2b565b93506040860135925061125a606087016111b2565b600080600080608085870312156116a157600080fd5b6116aa85610f2b565b93506020850135925061103560408601610f48565b6000602082840312156116d157600080fd5b61164082610f2b565b600080600080600080600060e0888a0312156116f557600080fd5b6116fe88610f2b565b965061170c60208901610f2b565b95506040880135945061172160608901610f48565b935061172f608089016111b2565b925061173d60a089016111b2565b915060c088013567ffffffffffffffff81111561175957600080fd5b6117658a828b01610f6d565b91505092959891949750929550565b60008060006060848603121561178957600080fd5b61179284610f2b565b925060208401359150604084013567ffffffffffffffff81111561152057600080fd5b6000806000606084860312156117ca57600080fd5b6117d384610f2b565b92506117e1602085016111b2565b9150611318604085016111b2565b60008060006060848603121561180457600080fd5b61180d84610f2b565b925061150460208501610f2b56fea2646970667358221220e805119a66d0f1b1bd6374a456e633ef528605eca220ef912a270032d97df57c64736f6c63430008110033","opcodes":"PUSH1 0x80 PUSH1 0x40 MSTORE CALLVALUE DUP1 ISZERO PUSH2 0x10 JUMPI PUSH1 0x0 DUP1 REVERT JUMPDEST POP PUSH2 0x1851 DUP1 PUSH2 0x20 PUSH1 0x0 CODECOPY PUSH1 0x0 RETURN INVALID PUSH1 0x80 PUSH1 0x40 MSTORE CALLVALUE DUP1 ISZERO PUSH2 0x10 JUMPI PUSH1 0x0 DUP1 REVERT JUMPDEST POP PUSH1 0x4 CALLDATASIZE LT PUSH2 0x1E5 JUMPI PUSH1 0x0 CALLDATALOAD PUSH1 0xE0 SHR DUP1 PUSH4 0x84A0E907 GT PUSH2 0x10F JUMPI DUP1 PUSH4 0xD4E694F7 GT PUSH2 0xA2 JUMPI DUP1 PUSH4 0xE3EC2C99 GT PUSH2 0x71 JUMPI DUP1 PUSH4 0xE3EC2C99 EQ PUSH2 0x426 JUMPI DUP1 PUSH4 0xEC294078 EQ PUSH2 0x439 JUMPI DUP1 PUSH4 0xEE5DECF2 EQ PUSH2 0x44C JUMPI DUP1 PUSH4 0xF744D654 EQ PUSH2 0x45F JUMPI PUSH1 0x0 DUP1 REVERT JUMPDEST DUP1 PUSH4 0xD4E694F7 EQ PUSH2 0x3CA JUMPI DUP1 PUSH4 0xD8B6EB2B EQ PUSH2 0x3ED JUMPI DUP1 PUSH4 0xDB9178D6 EQ PUSH2 0x400 JUMPI DUP1 PUSH4 0xE379821C EQ PUSH2 0x413 JUMPI PUSH1 0x0 DUP1 REVERT JUMPDEST DUP1 PUSH4 0xB5A7FEF5 GT PUSH2 0xDE JUMPI DUP1 PUSH4 0xB5A7FEF5 EQ PUSH2 0x389 JUMPI DUP1 PUSH4 0xBD240B86 EQ PUSH2 0x39C JUMPI DUP1 PUSH4 0xC9062F31 EQ PUSH2 0x3A4 JUMPI DUP1 PUSH4 0xD035C7CA EQ PUSH2 0x3B7 JUMPI PUSH1 0x0 DUP1 REVERT JUMPDEST DUP1 PUSH4 0x84A0E907 EQ PUSH2 0x33B JUMPI DUP1 PUSH4 0x8628695B EQ PUSH2 0x350 JUMPI DUP1 PUSH4 0x97E65353 EQ PUSH2 0x363 JUMPI DUP1 PUSH4 0xA820AF1A EQ PUSH2 0x376 JUMPI PUSH1 0x0 DUP1 REVERT JUMPDEST DUP1 PUSH4 0x409F789A GT PUSH2 0x187 JUMPI DUP1 PUSH4 0x6B945F38 GT PUSH2 0x156 JUMPI DUP1 PUSH4 0x6B945F38 EQ PUSH2 0x2D9 JUMPI DUP1 PUSH4 0x749D6D85 EQ PUSH2 0x2EC JUMPI DUP1 PUSH4 0x7AADAC0D EQ PUSH2 0x315 JUMPI DUP1 PUSH4 0x80DECBCE EQ PUSH2 0x328 JUMPI PUSH1 0x0 DUP1 REVERT JUMPDEST DUP1 PUSH4 0x409F789A EQ PUSH2 0x28A JUMPI DUP1 PUSH4 0x4D06BD88 EQ PUSH2 0x29D JUMPI DUP1 PUSH4 0x644C52C8 EQ PUSH2 0x2B0 JUMPI DUP1 PUSH4 0x6658580A EQ PUSH2 0x2C3 JUMPI PUSH1 0x0 DUP1 REVERT JUMPDEST DUP1 PUSH4 0x35628E71 GT PUSH2 0x1C3 JUMPI DUP1 PUSH4 0x35628E71 EQ PUSH2 0x23E JUMPI DUP1 PUSH4 0x3880E361 EQ PUSH2 0x251 JUMPI DUP1 PUSH4 0x3A5DC559 EQ PUSH2 0x264 JUMPI DUP1 PUSH4 0x3B0CB073 EQ PUSH2 0x277 JUMPI PUSH1 0x0 DUP1 REVERT JUMPDEST DUP1 PUSH4 0xD55AD28 EQ PUSH2 0x1EA JUMPI DUP1 PUSH4 0x102F7B60 EQ PUSH2 0x213 JUMPI DUP1 PUSH4 0x30C62A4A EQ PUSH2 0x226 JUMPI JUMPDEST PUSH1 0x0 DUP1 REVERT JUMPDEST PUSH2 0x1FD PUSH2 0x1F8 CALLDATASIZE PUSH1 0x4 PUSH2 0xFFA JUMP JUMPDEST PUSH2 0x472 JUMP JUMPDEST PUSH1 0x40 MLOAD PUSH2 0x20A SWAP2 SWAP1 PUSH2 0x10E7 JUMP JUMPDEST PUSH1 0x40 MLOAD DUP1 SWAP2 SUB SWAP1 RETURN JUMPDEST PUSH2 0x1FD PUSH2 0x221 CALLDATASIZE PUSH1 0x4 PUSH2 0x1162 JUMP JUMPDEST PUSH2 0x4D6 JUMP JUMPDEST PUSH2 0x22E PUSH1 0x0 DUP2 JUMP JUMPDEST PUSH1 0x40 MLOAD SWAP1 ISZERO ISZERO DUP2 MSTORE PUSH1 0x20 ADD PUSH2 0x20A JUMP JUMPDEST PUSH2 0x1FD PUSH2 0x24C CALLDATASIZE PUSH1 0x4 PUSH2 0x11C2 JUMP JUMPDEST PUSH2 0x528 JUMP JUMPDEST PUSH2 0x1FD PUSH2 0x25F CALLDATASIZE PUSH1 0x4 PUSH2 0x1216 JUMP JUMPDEST PUSH2 0x586 JUMP JUMPDEST PUSH2 0x1FD PUSH2 0x272 CALLDATASIZE PUSH1 0x4 PUSH2 0x1274 JUMP JUMPDEST PUSH2 0x60D JUMP JUMPDEST PUSH2 0x1FD PUSH2 0x285 CALLDATASIZE PUSH1 0x4 PUSH2 0x12A8 JUMP JUMPDEST PUSH2 0x672 JUMP JUMPDEST PUSH2 0x1FD PUSH2 0x298 CALLDATASIZE PUSH1 0x4 PUSH2 0x12E5 JUMP JUMPDEST PUSH2 0x6F1 JUMP JUMPDEST PUSH2 0x1FD PUSH2 0x2AB CALLDATASIZE PUSH1 0x4 PUSH2 0x1321 JUMP JUMPDEST PUSH2 0x778 JUMP JUMPDEST PUSH2 0x1FD PUSH2 0x2BE CALLDATASIZE PUSH1 0x4 PUSH2 0x135D JUMP JUMPDEST PUSH2 0x7D5 JUMP JUMPDEST PUSH2 0x2CB PUSH1 0x1 DUP2 JUMP JUMPDEST PUSH1 0x40 MLOAD SWAP1 DUP2 MSTORE PUSH1 0x20 ADD PUSH2 0x20A JUMP JUMPDEST PUSH2 0x1FD PUSH2 0x2E7 CALLDATASIZE PUSH1 0x4 PUSH2 0x1390 JUMP JUMPDEST PUSH2 0x837 JUMP JUMPDEST PUSH2 0x2FC PUSH6 0x1B185D195CDD PUSH1 0xD2 SHL DUP2 JUMP JUMPDEST PUSH1 0x40 MLOAD PUSH1 0x1 PUSH1 0x1 PUSH1 0x80 SHL SUB NOT SWAP1 SWAP2 AND DUP2 MSTORE PUSH1 0x20 ADD PUSH2 0x20A JUMP JUMPDEST PUSH2 0x1FD PUSH2 0x323 CALLDATASIZE PUSH1 0x4 PUSH2 0x13FD JUMP JUMPDEST PUSH2 0x8B6 JUMP JUMPDEST PUSH2 0x1FD PUSH2 0x336 CALLDATASIZE PUSH1 0x4 PUSH2 0x1476 JUMP JUMPDEST PUSH2 0x918 JUMP JUMPDEST PUSH2 0x343 PUSH1 0x0 DUP2 JUMP JUMPDEST PUSH1 0x40 MLOAD PUSH2 0x20A SWAP2 SWAP1 PUSH2 0x14A0 JUMP JUMPDEST PUSH2 0x1FD PUSH2 0x35E CALLDATASIZE PUSH1 0x4 PUSH2 0x14AE JUMP JUMPDEST PUSH2 0x99F JUMP JUMPDEST PUSH2 0x1FD PUSH2 0x371 CALLDATASIZE PUSH1 0x4 PUSH2 0x14D8 JUMP JUMPDEST PUSH2 0xA03 JUMP JUMPDEST PUSH2 0x1FD PUSH2 0x384 CALLDATASIZE PUSH1 0x4 PUSH2 0x1536 JUMP JUMPDEST PUSH2 0xA6D JUMP JUMPDEST PUSH2 0x1FD PUSH2 0x397 CALLDATASIZE PUSH1 0x4 PUSH2 0x1584 JUMP JUMPDEST PUSH2 0xAC7 JUMP JUMPDEST PUSH2 0x22E PUSH1 0x1 DUP2 JUMP JUMPDEST PUSH2 0x1FD PUSH2 0x3B2 CALLDATASIZE PUSH1 0x4 PUSH2 0x15B1 JUMP JUMPDEST PUSH2 0xB4E JUMP JUMPDEST PUSH2 0x1FD PUSH2 0x3C5 CALLDATASIZE PUSH1 0x4 PUSH2 0x15EB JUMP JUMPDEST PUSH2 0xBCD JUMP JUMPDEST PUSH2 0x3E0 PUSH1 0x40 MLOAD DUP1 PUSH1 0x20 ADD PUSH1 0x40 MSTORE DUP1 PUSH1 0x0 DUP2 MSTORE POP DUP2 JUMP JUMPDEST PUSH1 0x40 MLOAD PUSH2 0x20A SWAP2 SWAP1 PUSH2 0x162D JUMP JUMPDEST PUSH2 0x1FD PUSH2 0x3FB CALLDATASIZE PUSH1 0x4 PUSH2 0x1647 JUMP JUMPDEST PUSH2 0xC4C JUMP JUMPDEST PUSH2 0x1FD PUSH2 0x40E CALLDATASIZE PUSH1 0x4 PUSH2 0x168B JUMP JUMPDEST PUSH2 0xCAA JUMP JUMPDEST PUSH2 0x1FD PUSH2 0x421 CALLDATASIZE PUSH1 0x4 PUSH2 0x16BF JUMP JUMPDEST PUSH2 0xD15 JUMP JUMPDEST PUSH2 0x1FD PUSH2 0x434 CALLDATASIZE PUSH1 0x4 PUSH2 0x16DA JUMP JUMPDEST PUSH2 0xD78 JUMP JUMPDEST PUSH2 0x1FD PUSH2 0x447 CALLDATASIZE PUSH1 0x4 PUSH2 0x1774 JUMP JUMPDEST PUSH2 0xDDB JUMP JUMPDEST PUSH2 0x1FD PUSH2 0x45A CALLDATASIZE PUSH1 0x4 PUSH2 0x17B5 JUMP JUMPDEST PUSH2 0xE36 JUMP JUMPDEST PUSH2 0x1FD PUSH2 0x46D CALLDATASIZE PUSH1 0x4 PUSH2 0x17EF JUMP JUMPDEST PUSH2 0xE9A JUMP JUMPDEST PUSH2 0x47A PUSH2 0xEEB JUMP JUMPDEST PUSH1 0x40 MLOAD DUP1 PUSH1 0xE0 ADD PUSH1 0x40 MSTORE DUP1 DUP5 PUSH1 0x4 DUP2 GT ISZERO PUSH2 0x497 JUMPI PUSH2 0x497 PUSH2 0x1069 JUMP JUMPDEST DUP2 MSTORE PUSH1 0x1 PUSH1 0x1 PUSH1 0x80 SHL SUB NOT DUP1 DUP9 AND PUSH1 0x20 DUP4 ADD MSTORE DUP7 AND PUSH1 0x40 DUP3 ADD MSTORE PUSH1 0x1 PUSH1 0x60 DUP3 ADD DUP2 SWAP1 MSTORE PUSH1 0x0 PUSH1 0x80 DUP4 ADD MSTORE PUSH1 0xA0 DUP3 ADD MSTORE PUSH1 0xC0 ADD DUP4 SWAP1 MSTORE SWAP1 POP SWAP5 SWAP4 POP POP POP POP JUMP JUMPDEST PUSH2 0x4DE PUSH2 0xEEB JUMP JUMPDEST PUSH1 0x40 DUP1 MLOAD PUSH1 0xE0 DUP2 ADD SWAP1 SWAP2 MSTORE DUP1 PUSH1 0x0 DUP2 MSTORE PUSH1 0x1 PUSH1 0x1 PUSH1 0x80 SHL SUB NOT SWAP7 DUP8 AND PUSH1 0x20 DUP3 ADD MSTORE SWAP5 SWAP1 SWAP6 AND PUSH1 0x40 DUP6 ADD MSTORE POP PUSH1 0x60 DUP4 ADD SWAP2 SWAP1 SWAP2 MSTORE PUSH1 0x0 PUSH1 0x80 DUP4 ADD MSTORE PUSH1 0x1 PUSH1 0xA0 DUP4 ADD MSTORE PUSH1 0xC0 SWAP1 SWAP2 ADD MSTORE SWAP1 JUMP JUMPDEST PUSH2 0x530 PUSH2 0xEEB JUMP JUMPDEST POP PUSH1 0x40 DUP1 MLOAD PUSH1 0xE0 DUP2 ADD DUP3 MSTORE PUSH1 0x0 DUP1 DUP3 MSTORE PUSH1 0x1 PUSH1 0x1 PUSH1 0x80 SHL SUB NOT SWAP7 DUP8 AND PUSH1 0x20 DUP1 DUP5 ADD SWAP2 SWAP1 SWAP2 MSTORE SWAP6 SWAP1 SWAP7 AND DUP2 DUP4 ADD MSTORE PUSH1 0x1 PUSH1 0x60 DUP3 ADD MSTORE SWAP3 ISZERO ISZERO PUSH1 0x80 DUP5 ADD MSTORE SWAP1 ISZERO ISZERO PUSH1 0xA0 DUP4 ADD MSTORE DUP1 MLOAD SWAP3 DUP4 ADD SWAP1 MSTORE SWAP2 DUP2 MSTORE PUSH1 0xC0 DUP3 ADD MSTORE SWAP1 JUMP JUMPDEST PUSH2 0x58E PUSH2 0xEEB JUMP JUMPDEST PUSH1 0x40 MLOAD DUP1 PUSH1 0xE0 ADD PUSH1 0x40 MSTORE DUP1 DUP6 PUSH1 0x4 DUP2 GT ISZERO PUSH2 0x5AB JUMPI PUSH2 0x5AB PUSH2 0x1069 JUMP JUMPDEST DUP2 MSTORE PUSH1 0x20 ADD DUP8 PUSH1 0x1 PUSH1 0x1 PUSH1 0x80 SHL SUB NOT AND DUP2 MSTORE PUSH1 0x20 ADD PUSH6 0x1B185D195CDD PUSH1 0xD2 SHL PUSH1 0x1 PUSH1 0x1 PUSH1 0x80 SHL SUB NOT AND DUP2 MSTORE PUSH1 0x20 ADD DUP7 DUP2 MSTORE PUSH1 0x20 ADD DUP5 ISZERO ISZERO DUP2 MSTORE PUSH1 0x20 ADD DUP4 ISZERO ISZERO DUP2 MSTORE PUSH1 0x20 ADD PUSH1 0x40 MLOAD DUP1 PUSH1 0x20 ADD PUSH1 0x40 MSTORE DUP1 PUSH1 0x0 DUP2 MSTORE POP DUP2 MSTORE POP SWAP1 POP SWAP6 SWAP5 POP POP POP POP POP JUMP JUMPDEST PUSH2 0x615 PUSH2 0xEEB JUMP JUMPDEST POP PUSH1 0x40 DUP1 MLOAD PUSH1 0xE0 DUP2 ADD DUP3 MSTORE PUSH1 0x0 DUP1 DUP3 MSTORE PUSH1 0x1 PUSH1 0x1 PUSH1 0x80 SHL SUB NOT SWAP1 SWAP7 AND PUSH1 0x20 DUP1 DUP4 ADD SWAP2 SWAP1 SWAP2 MSTORE PUSH6 0x1B185D195CDD PUSH1 0xD2 SHL DUP3 DUP5 ADD MSTORE PUSH1 0x60 DUP3 ADD SWAP6 SWAP1 SWAP6 MSTORE SWAP3 ISZERO ISZERO PUSH1 0x80 DUP5 ADD MSTORE SWAP1 ISZERO ISZERO PUSH1 0xA0 DUP4 ADD MSTORE DUP1 MLOAD SWAP3 DUP4 ADD SWAP1 MSTORE SWAP2 DUP2 MSTORE PUSH1 0xC0 DUP3 ADD MSTORE SWAP1 JUMP JUMPDEST PUSH2 0x67A PUSH2 0xEEB JUMP JUMPDEST PUSH1 0x40 MLOAD DUP1 PUSH1 0xE0 ADD PUSH1 0x40 MSTORE DUP1 DUP6 PUSH1 0x4 DUP2 GT ISZERO PUSH2 0x697 JUMPI PUSH2 0x697 PUSH2 0x1069 JUMP JUMPDEST DUP2 MSTORE PUSH1 0x20 ADD DUP8 PUSH1 0x1 PUSH1 0x1 PUSH1 0x80 SHL SUB NOT AND DUP2 MSTORE PUSH1 0x20 ADD DUP7 PUSH1 0x1 PUSH1 0x1 PUSH1 0x80 SHL SUB NOT AND DUP2 MSTORE PUSH1 0x20 ADD PUSH1 0x1 DUP2 MSTORE PUSH1 0x20 ADD DUP5 ISZERO ISZERO DUP2 MSTORE PUSH1 0x20 ADD DUP4 ISZERO ISZERO DUP2 MSTORE PUSH1 0x20 ADD PUSH1 0x40 MLOAD DUP1 PUSH1 0x20 ADD PUSH1 0x40 MSTORE DUP1 PUSH1 0x0 DUP2 MSTORE POP DUP2 MSTORE POP SWAP1 POP SWAP6 SWAP5 POP POP POP POP POP JUMP JUMPDEST PUSH2 0x6F9 PUSH2 0xEEB JUMP JUMPDEST PUSH1 0x40 MLOAD DUP1 PUSH1 0xE0 ADD PUSH1 0x40 MSTORE DUP1 DUP4 PUSH1 0x4 DUP2 GT ISZERO PUSH2 0x716 JUMPI PUSH2 0x716 PUSH2 0x1069 JUMP JUMPDEST DUP2 MSTORE PUSH1 0x20 ADD DUP6 PUSH1 0x1 PUSH1 0x1 PUSH1 0x80 SHL SUB NOT AND DUP2 MSTORE PUSH1 0x20 ADD PUSH6 0x1B185D195CDD PUSH1 0xD2 SHL PUSH1 0x1 PUSH1 0x1 PUSH1 0x80 SHL SUB NOT AND DUP2 MSTORE PUSH1 0x20 ADD DUP5 DUP2 MSTORE PUSH1 0x20 ADD PUSH1 0x0 ISZERO ISZERO DUP2 MSTORE PUSH1 0x20 ADD PUSH1 0x1 ISZERO ISZERO DUP2 MSTORE PUSH1 0x20 ADD PUSH1 0x40 MLOAD DUP1 PUSH1 0x20 ADD PUSH1 0x40 MSTORE DUP1 PUSH1 0x0 DUP2 MSTORE POP DUP2 MSTORE POP SWAP1 POP SWAP4 SWAP3 POP POP POP JUMP JUMPDEST PUSH2 0x780 PUSH2 0xEEB JUMP JUMPDEST POP PUSH1 0x40 DUP1 MLOAD PUSH1 0xE0 DUP2 ADD DUP3 MSTORE PUSH1 0x0 DUP1 DUP3 MSTORE PUSH1 0x1 PUSH1 0x1 PUSH1 0x80 SHL SUB NOT SWAP6 DUP7 AND PUSH1 0x20 DUP1 DUP5 ADD SWAP2 SWAP1 SWAP2 MSTORE SWAP5 SWAP1 SWAP6 AND DUP2 DUP4 ADD MSTORE PUSH1 0x60 DUP2 ADD SWAP3 SWAP1 SWAP3 MSTORE PUSH1 0x80 DUP3 ADD DUP5 SWAP1 MSTORE PUSH1 0x1 PUSH1 0xA0 DUP4 ADD MSTORE DUP1 MLOAD SWAP3 DUP4 ADD SWAP1 MSTORE SWAP2 DUP2 MSTORE PUSH1 0xC0 DUP3 ADD MSTORE SWAP1 JUMP JUMPDEST PUSH2 0x7DD PUSH2 0xEEB JUMP JUMPDEST POP PUSH1 0x40 DUP1 MLOAD PUSH1 0xE0 DUP2 ADD DUP3 MSTORE PUSH1 0x0 DUP1 DUP3 MSTORE PUSH1 0x1 PUSH1 0x1 PUSH1 0x80 SHL SUB NOT DUP1 DUP7 AND PUSH1 0x20 DUP1 DUP6 ADD SWAP2 SWAP1 SWAP2 MSTORE SWAP1 DUP6 AND DUP4 DUP6 ADD MSTORE PUSH1 0x1 PUSH1 0x60 DUP5 ADD DUP2 SWAP1 MSTORE PUSH1 0x80 DUP5 ADD DUP4 SWAP1 MSTORE PUSH1 0xA0 DUP5 ADD MSTORE DUP4 MLOAD SWAP1 DUP2 ADD SWAP1 SWAP4 MSTORE DUP3 MSTORE PUSH1 0xC0 DUP2 ADD SWAP2 SWAP1 SWAP2 MSTORE JUMPDEST SWAP3 SWAP2 POP POP JUMP JUMPDEST PUSH2 0x83F PUSH2 0xEEB JUMP JUMPDEST PUSH1 0x40 MLOAD DUP1 PUSH1 0xE0 ADD PUSH1 0x40 MSTORE DUP1 DUP6 PUSH1 0x4 DUP2 GT ISZERO PUSH2 0x85C JUMPI PUSH2 0x85C PUSH2 0x1069 JUMP JUMPDEST DUP2 MSTORE PUSH1 0x20 ADD DUP9 PUSH1 0x1 PUSH1 0x1 PUSH1 0x80 SHL SUB NOT AND DUP2 MSTORE PUSH1 0x20 ADD DUP8 PUSH1 0x1 PUSH1 0x1 PUSH1 0x80 SHL SUB NOT AND DUP2 MSTORE PUSH1 0x20 ADD DUP7 DUP2 MSTORE PUSH1 0x20 ADD DUP5 ISZERO ISZERO DUP2 MSTORE PUSH1 0x20 ADD DUP4 ISZERO ISZERO DUP2 MSTORE PUSH1 0x20 ADD PUSH1 0x40 MLOAD DUP1 PUSH1 0x20 ADD PUSH1 0x40 MSTORE DUP1 PUSH1 0x0 DUP2 MSTORE POP DUP2 MSTORE POP SWAP1 POP SWAP7 SWAP6 POP POP POP POP POP POP JUMP JUMPDEST PUSH2 0x8BE PUSH2 0xEEB JUMP JUMPDEST PUSH1 0x40 MLOAD DUP1 PUSH1 0xE0 ADD PUSH1 0x40 MSTORE DUP1 DUP5 PUSH1 0x4 DUP2 GT ISZERO PUSH2 0x8DB JUMPI PUSH2 0x8DB PUSH2 0x1069 JUMP JUMPDEST DUP2 MSTORE PUSH1 0x1 PUSH1 0x1 PUSH1 0x80 SHL SUB NOT SWAP8 DUP9 AND PUSH1 0x20 DUP3 ADD MSTORE SWAP6 SWAP1 SWAP7 AND PUSH1 0x40 DUP7 ADD MSTORE POP PUSH1 0x60 DUP5 ADD SWAP3 SWAP1 SWAP3 MSTORE POP PUSH1 0x0 PUSH1 0x80 DUP4 ADD MSTORE PUSH1 0x1 PUSH1 0xA0 DUP4 ADD MSTORE PUSH1 0xC0 SWAP1 SWAP2 ADD MSTORE SWAP1 JUMP JUMPDEST PUSH2 0x920 PUSH2 0xEEB JUMP JUMPDEST PUSH1 0x40 MLOAD DUP1 PUSH1 0xE0 ADD PUSH1 0x40 MSTORE DUP1 DUP4 PUSH1 0x4 DUP2 GT ISZERO PUSH2 0x93D JUMPI PUSH2 0x93D PUSH2 0x1069 JUMP JUMPDEST DUP2 MSTORE PUSH1 0x20 ADD DUP5 PUSH1 0x1 PUSH1 0x1 PUSH1 0x80 SHL SUB NOT AND DUP2 MSTORE PUSH1 0x20 ADD PUSH6 0x1B185D195CDD PUSH1 0xD2 SHL PUSH1 0x1 PUSH1 0x1 PUSH1 0x80 SHL SUB NOT AND DUP2 MSTORE PUSH1 0x20 ADD PUSH1 0x1 DUP2 MSTORE PUSH1 0x20 ADD PUSH1 0x0 ISZERO ISZERO DUP2 MSTORE PUSH1 0x20 ADD PUSH1 0x1 ISZERO ISZERO DUP2 MSTORE PUSH1 0x20 ADD PUSH1 0x40 MLOAD DUP1 PUSH1 0x20 ADD PUSH1 0x40 MSTORE DUP1 PUSH1 0x0 DUP2 MSTORE POP DUP2 MSTORE POP SWAP1 POP SWAP3 SWAP2 POP POP JUMP JUMPDEST PUSH2 0x9A7 PUSH2 0xEEB JUMP JUMPDEST POP PUSH1 0x40 DUP1 MLOAD PUSH1 0xE0 DUP2 ADD DUP3 MSTORE PUSH1 0x0 DUP1 DUP3 MSTORE PUSH1 0x1 PUSH1 0x1 PUSH1 0x80 SHL SUB NOT SWAP1 SWAP5 AND PUSH1 0x20 DUP1 DUP4 ADD SWAP2 SWAP1 SWAP2 MSTORE PUSH6 0x1B185D195CDD PUSH1 0xD2 SHL DUP3 DUP5 ADD MSTORE PUSH1 0x60 DUP3 ADD SWAP4 SWAP1 SWAP4 MSTORE PUSH1 0x80 DUP2 ADD DUP5 SWAP1 MSTORE PUSH1 0x1 PUSH1 0xA0 DUP3 ADD MSTORE DUP2 MLOAD SWAP3 DUP4 ADD SWAP1 SWAP2 MSTORE SWAP2 DUP2 MSTORE PUSH1 0xC0 DUP3 ADD MSTORE SWAP1 JUMP JUMPDEST PUSH2 0xA0B PUSH2 0xEEB JUMP JUMPDEST PUSH1 0x40 MLOAD DUP1 PUSH1 0xE0 ADD PUSH1 0x40 MSTORE DUP1 DUP5 PUSH1 0x4 DUP2 GT ISZERO PUSH2 0xA28 JUMPI PUSH2 0xA28 PUSH2 0x1069 JUMP JUMPDEST DUP2 MSTORE PUSH1 0x1 PUSH1 0x1 PUSH1 0x80 SHL SUB NOT DUP7 AND PUSH1 0x20 DUP3 ADD MSTORE PUSH6 0x1B185D195CDD PUSH1 0xD2 SHL PUSH1 0x40 DUP3 ADD MSTORE PUSH1 0x1 PUSH1 0x60 DUP3 ADD DUP2 SWAP1 MSTORE PUSH1 0x0 PUSH1 0x80 DUP4 ADD MSTORE PUSH1 0xA0 DUP3 ADD MSTORE PUSH1 0xC0 ADD DUP4 SWAP1 MSTORE SWAP1 POP SWAP4 SWAP3 POP POP POP JUMP JUMPDEST PUSH2 0xA75 PUSH2 0xEEB JUMP JUMPDEST PUSH1 0x40 DUP1 MLOAD PUSH1 0xE0 DUP2 ADD SWAP1 SWAP2 MSTORE DUP1 PUSH1 0x0 DUP2 MSTORE PUSH1 0x1 PUSH1 0x1 PUSH1 0x80 SHL SUB NOT DUP6 AND PUSH1 0x20 DUP3 ADD MSTORE PUSH6 0x1B185D195CDD PUSH1 0xD2 SHL PUSH1 0x40 DUP3 ADD MSTORE PUSH1 0x1 PUSH1 0x60 DUP3 ADD DUP2 SWAP1 MSTORE PUSH1 0x0 PUSH1 0x80 DUP4 ADD MSTORE PUSH1 0xA0 DUP3 ADD MSTORE PUSH1 0xC0 ADD DUP4 SWAP1 MSTORE SWAP1 POP SWAP3 SWAP2 POP POP JUMP JUMPDEST PUSH2 0xACF PUSH2 0xEEB JUMP JUMPDEST PUSH1 0x40 MLOAD DUP1 PUSH1 0xE0 ADD PUSH1 0x40 MSTORE DUP1 DUP6 PUSH1 0x4 DUP2 GT ISZERO PUSH2 0xAEC JUMPI PUSH2 0xAEC PUSH2 0x1069 JUMP JUMPDEST DUP2 MSTORE PUSH1 0x20 ADD DUP7 PUSH1 0x1 PUSH1 0x1 PUSH1 0x80 SHL SUB NOT AND DUP2 MSTORE PUSH1 0x20 ADD PUSH6 0x1B185D195CDD PUSH1 0xD2 SHL PUSH1 0x1 PUSH1 0x1 PUSH1 0x80 SHL SUB NOT AND DUP2 MSTORE PUSH1 0x20 ADD PUSH1 0x1 DUP2 MSTORE PUSH1 0x20 ADD DUP5 ISZERO ISZERO DUP2 MSTORE PUSH1 0x20 ADD DUP4 ISZERO ISZERO DUP2 MSTORE PUSH1 0x20 ADD PUSH1 0x40 MLOAD DUP1 PUSH1 0x20 ADD PUSH1 0x40 MSTORE DUP1 PUSH1 0x0 DUP2 MSTORE POP DUP2 MSTORE POP SWAP1 POP SWAP5 SWAP4 POP POP POP POP JUMP JUMPDEST PUSH2 0xB56 PUSH2 0xEEB JUMP JUMPDEST PUSH1 0x40 MLOAD DUP1 PUSH1 0xE0 ADD PUSH1 0x40 MSTORE DUP1 DUP4 PUSH1 0x4 DUP2 GT ISZERO PUSH2 0xB73 JUMPI PUSH2 0xB73 PUSH2 0x1069 JUMP JUMPDEST DUP2 MSTORE PUSH1 0x20 ADD DUP6 PUSH1 0x1 PUSH1 0x1 PUSH1 0x80 SHL SUB NOT AND DUP2 MSTORE PUSH1 0x20 ADD DUP5 PUSH1 0x1 PUSH1 0x1 PUSH1 0x80 SHL SUB NOT AND DUP2 MSTORE PUSH1 0x20 ADD PUSH1 0x1 DUP2 MSTORE PUSH1 0x20 ADD PUSH1 0x0 ISZERO ISZERO DUP2 MSTORE PUSH1 0x20 ADD PUSH1 0x1 ISZERO ISZERO DUP2 MSTORE PUSH1 0x20 ADD PUSH1 0x40 MLOAD DUP1 PUSH1 0x20 ADD PUSH1 0x40 MSTORE DUP1 PUSH1 0x0 DUP2 MSTORE POP DUP2 MSTORE POP SWAP1 POP SWAP4 SWAP3 POP POP POP JUMP JUMPDEST PUSH2 0xBD5 PUSH2 0xEEB JUMP JUMPDEST PUSH1 0x40 MLOAD DUP1 PUSH1 0xE0 ADD PUSH1 0x40 MSTORE DUP1 DUP4 PUSH1 0x4 DUP2 GT ISZERO PUSH2 0xBF2 JUMPI PUSH2 0xBF2 PUSH2 0x1069 JUMP JUMPDEST DUP2 MSTORE PUSH1 0x20 ADD DUP7 PUSH1 0x1 PUSH1 0x1 PUSH1 0x80 SHL SUB NOT AND DUP2 MSTORE PUSH1 0x20 ADD DUP6 PUSH1 0x1 PUSH1 0x1 PUSH1 0x80 SHL SUB NOT AND DUP2 MSTORE PUSH1 0x20 ADD DUP5 DUP2 MSTORE PUSH1 0x20 ADD PUSH1 0x0 ISZERO ISZERO DUP2 MSTORE PUSH1 0x20 ADD PUSH1 0x1 ISZERO ISZERO DUP2 MSTORE PUSH1 0x20 ADD PUSH1 0x40 MLOAD DUP1 PUSH1 0x20 ADD PUSH1 0x40 MSTORE DUP1 PUSH1 0x0 DUP2 MSTORE POP DUP2 MSTORE POP SWAP1 POP SWAP5 SWAP4 POP POP POP POP JUMP JUMPDEST PUSH2 0xC54 PUSH2 0xEEB JUMP JUMPDEST POP PUSH1 0x40 DUP1 MLOAD PUSH1 0xE0 DUP2 ADD DUP3 MSTORE PUSH1 0x0 DUP1 DUP3 MSTORE PUSH1 0x1 PUSH1 0x1 PUSH1 0x80 SHL SUB NOT SWAP8 DUP9 AND PUSH1 0x20 DUP1 DUP5 ADD SWAP2 SWAP1 SWAP2 MSTORE SWAP7 SWAP1 SWAP8 AND DUP2 DUP4 ADD MSTORE PUSH1 0x60 DUP2 ADD SWAP5 SWAP1 SWAP5 MSTORE SWAP2 ISZERO ISZERO PUSH1 0x80 DUP5 ADD MSTORE ISZERO ISZERO PUSH1 0xA0 DUP4 ADD MSTORE DUP1 MLOAD SWAP3 DUP4 ADD SWAP1 MSTORE SWAP2 DUP2 MSTORE PUSH1 0xC0 DUP3 ADD MSTORE SWAP1 JUMP JUMPDEST PUSH2 0xCB2 PUSH2 0xEEB JUMP JUMPDEST PUSH1 0x40 MLOAD DUP1 PUSH1 0xE0 ADD PUSH1 0x40 MSTORE DUP1 DUP5 PUSH1 0x4 DUP2 GT ISZERO PUSH2 0xCCF JUMPI PUSH2 0xCCF PUSH2 0x1069 JUMP JUMPDEST DUP2 MSTORE PUSH1 0x1 PUSH1 0x1 PUSH1 0x80 SHL SUB NOT DUP8 AND PUSH1 0x20 DUP3 ADD MSTORE PUSH6 0x1B185D195CDD PUSH1 0xD2 SHL PUSH1 0x40 DUP3 ADD MSTORE PUSH1 0x60 DUP2 ADD DUP7 SWAP1 MSTORE PUSH1 0x0 PUSH1 0x80 DUP3 ADD MSTORE PUSH1 0x1 PUSH1 0xA0 DUP3 ADD MSTORE PUSH1 0xC0 ADD DUP4 SWAP1 MSTORE SWAP1 POP SWAP5 SWAP4 POP POP POP POP JUMP JUMPDEST PUSH2 0xD1D PUSH2 0xEEB JUMP JUMPDEST POP PUSH1 0x40 DUP1 MLOAD PUSH1 0xE0 DUP2 ADD DUP3 MSTORE PUSH1 0x0 DUP1 DUP3 MSTORE PUSH1 0x1 PUSH1 0x1 PUSH1 0x80 SHL SUB NOT SWAP1 SWAP4 AND PUSH1 0x20 DUP1 DUP4 ADD SWAP2 SWAP1 SWAP2 MSTORE PUSH6 0x1B185D195CDD PUSH1 0xD2 SHL DUP3 DUP5 ADD MSTORE PUSH1 0x1 PUSH1 0x60 DUP4 ADD DUP2 SWAP1 MSTORE PUSH1 0x80 DUP4 ADD DUP6 SWAP1 MSTORE PUSH1 0xA0 DUP4 ADD MSTORE DUP3 MLOAD SWAP1 DUP2 ADD SWAP1 SWAP3 MSTORE SWAP2 DUP2 MSTORE PUSH1 0xC0 DUP3 ADD MSTORE SWAP1 JUMP JUMPDEST PUSH2 0xD80 PUSH2 0xEEB JUMP JUMPDEST PUSH1 0x40 MLOAD DUP1 PUSH1 0xE0 ADD PUSH1 0x40 MSTORE DUP1 DUP7 PUSH1 0x4 DUP2 GT ISZERO PUSH2 0xD9D JUMPI PUSH2 0xD9D PUSH2 0x1069 JUMP JUMPDEST DUP2 MSTORE PUSH1 0x1 PUSH1 0x1 PUSH1 0x80 SHL SUB NOT SWAP10 DUP11 AND PUSH1 0x20 DUP3 ADD MSTORE SWAP8 SWAP1 SWAP9 AND PUSH1 0x40 DUP9 ADD MSTORE POP PUSH1 0x60 DUP7 ADD SWAP5 SWAP1 SWAP5 MSTORE SWAP1 ISZERO ISZERO PUSH1 0x80 DUP6 ADD MSTORE ISZERO ISZERO PUSH1 0xA0 DUP5 ADD MSTORE POP PUSH1 0xC0 SWAP1 SWAP2 ADD MSTORE SWAP1 JUMP JUMPDEST PUSH2 0xDE3 PUSH2 0xEEB JUMP JUMPDEST PUSH1 0x40 DUP1 MLOAD PUSH1 0xE0 DUP2 ADD SWAP1 SWAP2 MSTORE DUP1 PUSH1 0x0 DUP2 MSTORE PUSH1 0x1 PUSH1 0x1 PUSH1 0x80 SHL SUB NOT DUP7 AND PUSH1 0x20 DUP3 ADD MSTORE PUSH6 0x1B185D195CDD PUSH1 0xD2 SHL PUSH1 0x40 DUP3 ADD MSTORE PUSH1 0x60 DUP2 ADD DUP6 SWAP1 MSTORE PUSH1 0x0 PUSH1 0x80 DUP3 ADD MSTORE PUSH1 0x1 PUSH1 0xA0 DUP3 ADD MSTORE PUSH1 0xC0 ADD DUP4 SWAP1 MSTORE SWAP1 POP SWAP4 SWAP3 POP POP POP JUMP JUMPDEST PUSH2 0xE3E PUSH2 0xEEB JUMP JUMPDEST POP PUSH1 0x40 DUP1 MLOAD PUSH1 0xE0 DUP2 ADD DUP3 MSTORE PUSH1 0x0 DUP1 DUP3 MSTORE PUSH1 0x1 PUSH1 0x1 PUSH1 0x80 SHL SUB NOT SWAP1 SWAP6 AND PUSH1 0x20 DUP1 DUP4 ADD SWAP2 SWAP1 SWAP2 MSTORE PUSH6 0x1B185D195CDD PUSH1 0xD2 SHL DUP3 DUP5 ADD MSTORE PUSH1 0x1 PUSH1 0x60 DUP4 ADD MSTORE SWAP4 ISZERO ISZERO PUSH1 0x80 DUP3 ADD MSTORE SWAP2 ISZERO ISZERO PUSH1 0xA0 DUP4 ADD MSTORE DUP1 MLOAD SWAP3 DUP4 ADD SWAP1 MSTORE SWAP2 DUP2 MSTORE PUSH1 0xC0 DUP3 ADD MSTORE SWAP1 JUMP JUMPDEST PUSH2 0xEA2 PUSH2 0xEEB JUMP JUMPDEST PUSH1 0x40 DUP1 MLOAD PUSH1 0xE0 DUP2 ADD SWAP1 SWAP2 MSTORE DUP1 PUSH1 0x0 DUP2 MSTORE PUSH1 0x1 PUSH1 0x1 PUSH1 0x80 SHL SUB NOT SWAP6 DUP7 AND PUSH1 0x20 DUP3 ADD MSTORE SWAP4 SWAP1 SWAP5 AND PUSH1 0x40 DUP5 ADD MSTORE POP PUSH1 0x1 PUSH1 0x60 DUP4 ADD DUP2 SWAP1 MSTORE PUSH1 0x0 PUSH1 0x80 DUP5 ADD MSTORE PUSH1 0xA0 DUP4 ADD MSTORE PUSH1 0xC0 SWAP1 SWAP2 ADD MSTORE SWAP1 JUMP JUMPDEST PUSH1 0x40 DUP1 MLOAD PUSH1 0xE0 DUP2 ADD SWAP1 SWAP2 MSTORE DUP1 PUSH1 0x0 DUP2 MSTORE PUSH1 0x0 PUSH1 0x20 DUP3 ADD DUP2 SWAP1 MSTORE PUSH1 0x40 DUP3 ADD DUP2 SWAP1 MSTORE PUSH1 0x60 DUP1 DUP4 ADD DUP3 SWAP1 MSTORE PUSH1 0x80 DUP4 ADD DUP3 SWAP1 MSTORE PUSH1 0xA0 DUP4 ADD SWAP2 SWAP1 SWAP2 MSTORE PUSH1 0xC0 SWAP1 SWAP2 ADD MSTORE SWAP1 JUMP JUMPDEST DUP1 CALLDATALOAD PUSH1 0x1 PUSH1 0x1 PUSH1 0x80 SHL SUB NOT DUP2 AND DUP2 EQ PUSH2 0xF43 JUMPI PUSH1 0x0 DUP1 REVERT JUMPDEST SWAP2 SWAP1 POP JUMP JUMPDEST DUP1 CALLDATALOAD PUSH1 0x5 DUP2 LT PUSH2 0xF43 JUMPI PUSH1 0x0 DUP1 REVERT JUMPDEST PUSH4 0x4E487B71 PUSH1 0xE0 SHL PUSH1 0x0 MSTORE PUSH1 0x41 PUSH1 0x4 MSTORE PUSH1 0x24 PUSH1 0x0 REVERT JUMPDEST PUSH1 0x0 DUP3 PUSH1 0x1F DUP4 ADD SLT PUSH2 0xF7E JUMPI PUSH1 0x0 DUP1 REVERT JUMPDEST DUP2 CALLDATALOAD PUSH8 0xFFFFFFFFFFFFFFFF DUP1 DUP3 GT ISZERO PUSH2 0xF99 JUMPI PUSH2 0xF99 PUSH2 0xF57 JUMP JUMPDEST PUSH1 0x40 MLOAD PUSH1 0x1F DUP4 ADD PUSH1 0x1F NOT SWAP1 DUP2 AND PUSH1 0x3F ADD AND DUP2 ADD SWAP1 DUP3 DUP3 GT DUP2 DUP4 LT OR ISZERO PUSH2 0xFC1 JUMPI PUSH2 0xFC1 PUSH2 0xF57 JUMP JUMPDEST DUP2 PUSH1 0x40 MSTORE DUP4 DUP2 MSTORE DUP7 PUSH1 0x20 DUP6 DUP9 ADD ADD GT ISZERO PUSH2 0xFDA JUMPI PUSH1 0x0 DUP1 REVERT JUMPDEST DUP4 PUSH1 0x20 DUP8 ADD PUSH1 0x20 DUP4 ADD CALLDATACOPY PUSH1 0x0 PUSH1 0x20 DUP6 DUP4 ADD ADD MSTORE DUP1 SWAP5 POP POP POP POP POP SWAP3 SWAP2 POP POP JUMP JUMPDEST PUSH1 0x0 DUP1 PUSH1 0x0 DUP1 PUSH1 0x80 DUP6 DUP8 SUB SLT ISZERO PUSH2 0x1010 JUMPI PUSH1 0x0 DUP1 REVERT JUMPDEST PUSH2 0x1019 DUP6 PUSH2 0xF2B JUMP JUMPDEST SWAP4 POP PUSH2 0x1027 PUSH1 0x20 DUP7 ADD PUSH2 0xF2B JUMP JUMPDEST SWAP3 POP PUSH2 0x1035 PUSH1 0x40 DUP7 ADD PUSH2 0xF48 JUMP JUMPDEST SWAP2 POP PUSH1 0x60 DUP6 ADD CALLDATALOAD PUSH8 0xFFFFFFFFFFFFFFFF DUP2 GT ISZERO PUSH2 0x1051 JUMPI PUSH1 0x0 DUP1 REVERT JUMPDEST PUSH2 0x105D DUP8 DUP3 DUP9 ADD PUSH2 0xF6D JUMP JUMPDEST SWAP2 POP POP SWAP3 SWAP6 SWAP2 SWAP5 POP SWAP3 POP JUMP JUMPDEST PUSH4 0x4E487B71 PUSH1 0xE0 SHL PUSH1 0x0 MSTORE PUSH1 0x21 PUSH1 0x4 MSTORE PUSH1 0x24 PUSH1 0x0 REVERT JUMPDEST PUSH1 0x5 DUP2 LT PUSH2 0x109D JUMPI PUSH4 0x4E487B71 PUSH1 0xE0 SHL PUSH1 0x0 MSTORE PUSH1 0x21 PUSH1 0x4 MSTORE PUSH1 0x24 PUSH1 0x0 REVERT JUMPDEST SWAP1 MSTORE JUMP JUMPDEST PUSH1 0x0 DUP2 MLOAD DUP1 DUP5 MSTORE PUSH1 0x0 JUMPDEST DUP2 DUP2 LT ISZERO PUSH2 0x10C7 JUMPI PUSH1 0x20 DUP2 DUP6 ADD DUP2 ADD MLOAD DUP7 DUP4 ADD DUP3 ADD MSTORE ADD PUSH2 0x10AB JUMP JUMPDEST POP PUSH1 0x0 PUSH1 0x20 DUP3 DUP7 ADD ADD MSTORE PUSH1 0x20 PUSH1 0x1F NOT PUSH1 0x1F DUP4 ADD AND DUP6 ADD ADD SWAP2 POP POP SWAP3 SWAP2 POP POP JUMP JUMPDEST PUSH1 0x20 DUP2 MSTORE PUSH2 0x10F9 PUSH1 0x20 DUP3 ADD DUP4 MLOAD PUSH2 0x107F JUMP JUMPDEST PUSH1 0x0 PUSH1 0x20 DUP4 ADD MLOAD PUSH1 0x1 PUSH1 0x1 PUSH1 0x80 SHL SUB NOT DUP1 DUP3 AND PUSH1 0x40 DUP6 ADD MSTORE DUP1 PUSH1 0x40 DUP7 ADD MLOAD AND PUSH1 0x60 DUP6 ADD MSTORE POP POP PUSH1 0x60 DUP4 ADD MLOAD PUSH1 0x80 DUP4 ADD MSTORE PUSH1 0x80 DUP4 ADD MLOAD ISZERO ISZERO PUSH1 0xA0 DUP4 ADD MSTORE PUSH1 0xA0 DUP4 ADD MLOAD ISZERO ISZERO PUSH1 0xC0 DUP4 ADD MSTORE PUSH1 0xC0 DUP4 ADD MLOAD PUSH1 0xE0 DUP1 DUP5 ADD MSTORE PUSH2 0x115A PUSH2 0x100 DUP5 ADD DUP3 PUSH2 0x10A1 JUMP JUMPDEST SWAP5 SWAP4 POP POP POP POP JUMP JUMPDEST PUSH1 0x0 DUP1 PUSH1 0x0 DUP1 PUSH1 0x80 DUP6 DUP8 SUB SLT ISZERO PUSH2 0x1178 JUMPI PUSH1 0x0 DUP1 REVERT JUMPDEST PUSH2 0x1181 DUP6 PUSH2 0xF2B JUMP JUMPDEST SWAP4 POP PUSH2 0x118F PUSH1 0x20 DUP7 ADD PUSH2 0xF2B JUMP JUMPDEST SWAP3 POP PUSH1 0x40 DUP6 ADD CALLDATALOAD SWAP2 POP PUSH1 0x60 DUP6 ADD CALLDATALOAD PUSH8 0xFFFFFFFFFFFFFFFF DUP2 GT ISZERO PUSH2 0x1051 JUMPI PUSH1 0x0 DUP1 REVERT JUMPDEST DUP1 CALLDATALOAD DUP1 ISZERO ISZERO DUP2 EQ PUSH2 0xF43 JUMPI PUSH1 0x0 DUP1 REVERT JUMPDEST PUSH1 0x0 DUP1 PUSH1 0x0 DUP1 PUSH1 0x80 DUP6 DUP8 SUB SLT ISZERO PUSH2 0x11D8 JUMPI PUSH1 0x0 DUP1 REVERT JUMPDEST PUSH2 0x11E1 DUP6 PUSH2 0xF2B JUMP JUMPDEST SWAP4 POP PUSH2 0x11EF PUSH1 0x20 DUP7 ADD PUSH2 0xF2B JUMP JUMPDEST SWAP3 POP PUSH2 0x11FD PUSH1 0x40 DUP7 ADD PUSH2 0x11B2 JUMP JUMPDEST SWAP2 POP PUSH2 0x120B PUSH1 0x60 DUP7 ADD PUSH2 0x11B2 JUMP JUMPDEST SWAP1 POP SWAP3 SWAP6 SWAP2 SWAP5 POP SWAP3 POP JUMP JUMPDEST PUSH1 0x0 DUP1 PUSH1 0x0 DUP1 PUSH1 0x0 PUSH1 0xA0 DUP7 DUP9 SUB SLT ISZERO PUSH2 0x122E JUMPI PUSH1 0x0 DUP1 REVERT JUMPDEST PUSH2 0x1237 DUP7 PUSH2 0xF2B JUMP JUMPDEST SWAP5 POP PUSH1 0x20 DUP7 ADD CALLDATALOAD SWAP4 POP PUSH2 0x124C PUSH1 0x40 DUP8 ADD PUSH2 0xF48 JUMP JUMPDEST SWAP3 POP PUSH2 0x125A PUSH1 0x60 DUP8 ADD PUSH2 0x11B2 JUMP JUMPDEST SWAP2 POP PUSH2 0x1268 PUSH1 0x80 DUP8 ADD PUSH2 0x11B2 JUMP JUMPDEST SWAP1 POP SWAP3 SWAP6 POP SWAP3 SWAP6 SWAP1 SWAP4 POP JUMP JUMPDEST PUSH1 0x0 DUP1 PUSH1 0x0 DUP1 PUSH1 0x80 DUP6 DUP8 SUB SLT ISZERO PUSH2 0x128A JUMPI PUSH1 0x0 DUP1 REVERT JUMPDEST PUSH2 0x1293 DUP6 PUSH2 0xF2B JUMP JUMPDEST SWAP4 POP PUSH1 0x20 DUP6 ADD CALLDATALOAD SWAP3 POP PUSH2 0x11FD PUSH1 0x40 DUP7 ADD PUSH2 0x11B2 JUMP JUMPDEST PUSH1 0x0 DUP1 PUSH1 0x0 DUP1 PUSH1 0x0 PUSH1 0xA0 DUP7 DUP9 SUB SLT ISZERO PUSH2 0x12C0 JUMPI PUSH1 0x0 DUP1 REVERT JUMPDEST PUSH2 0x12C9 DUP7 PUSH2 0xF2B JUMP JUMPDEST SWAP5 POP PUSH2 0x12D7 PUSH1 0x20 DUP8 ADD PUSH2 0xF2B JUMP JUMPDEST SWAP4 POP PUSH2 0x124C PUSH1 0x40 DUP8 ADD PUSH2 0xF48 JUMP JUMPDEST PUSH1 0x0 DUP1 PUSH1 0x0 PUSH1 0x60 DUP5 DUP7 SUB SLT ISZERO PUSH2 0x12FA JUMPI PUSH1 0x0 DUP1 REVERT JUMPDEST PUSH2 0x1303 DUP5 PUSH2 0xF2B JUMP JUMPDEST SWAP3 POP PUSH1 0x20 DUP5 ADD CALLDATALOAD SWAP2 POP PUSH2 0x1318 PUSH1 0x40 DUP6 ADD PUSH2 0xF48 JUMP JUMPDEST SWAP1 POP SWAP3 POP SWAP3 POP SWAP3 JUMP JUMPDEST PUSH1 0x0 DUP1 PUSH1 0x0 PUSH1 0x60 DUP5 DUP7 SUB SLT ISZERO PUSH2 0x1336 JUMPI PUSH1 0x0 DUP1 REVERT JUMPDEST PUSH2 0x133F DUP5 PUSH2 0xF2B JUMP JUMPDEST SWAP3 POP PUSH2 0x134D PUSH1 0x20 DUP6 ADD PUSH2 0xF2B JUMP JUMPDEST SWAP2 POP PUSH1 0x40 DUP5 ADD CALLDATALOAD SWAP1 POP SWAP3 POP SWAP3 POP SWAP3 JUMP JUMPDEST PUSH1 0x0 DUP1 PUSH1 0x40 DUP4 DUP6 SUB SLT ISZERO PUSH2 0x1370 JUMPI PUSH1 0x0 DUP1 REVERT JUMPDEST PUSH2 0x1379 DUP4 PUSH2 0xF2B JUMP JUMPDEST SWAP2 POP PUSH2 0x1387 PUSH1 0x20 DUP5 ADD PUSH2 0xF2B JUMP JUMPDEST SWAP1 POP SWAP3 POP SWAP3 SWAP1 POP JUMP JUMPDEST PUSH1 0x0 DUP1 PUSH1 0x0 DUP1 PUSH1 0x0 DUP1 PUSH1 0xC0 DUP8 DUP10 SUB SLT ISZERO PUSH2 0x13A9 JUMPI PUSH1 0x0 DUP1 REVERT JUMPDEST PUSH2 0x13B2 DUP8 PUSH2 0xF2B JUMP JUMPDEST SWAP6 POP PUSH2 0x13C0 PUSH1 0x20 DUP9 ADD PUSH2 0xF2B JUMP JUMPDEST SWAP5 POP PUSH1 0x40 DUP8 ADD CALLDATALOAD SWAP4 POP PUSH2 0x13D5 PUSH1 0x60 DUP9 ADD PUSH2 0xF48 JUMP JUMPDEST SWAP3 POP PUSH2 0x13E3 PUSH1 0x80 DUP9 ADD PUSH2 0x11B2 JUMP JUMPDEST SWAP2 POP PUSH2 0x13F1 PUSH1 0xA0 DUP9 ADD PUSH2 0x11B2 JUMP JUMPDEST SWAP1 POP SWAP3 SWAP6 POP SWAP3 SWAP6 POP SWAP3 SWAP6 JUMP JUMPDEST PUSH1 0x0 DUP1 PUSH1 0x0 DUP1 PUSH1 0x0 PUSH1 0xA0 DUP7 DUP9 SUB SLT ISZERO PUSH2 0x1415 JUMPI PUSH1 0x0 DUP1 REVERT JUMPDEST PUSH2 0x141E DUP7 PUSH2 0xF2B JUMP JUMPDEST SWAP5 POP PUSH2 0x142C PUSH1 0x20 DUP8 ADD PUSH2 0xF2B JUMP JUMPDEST SWAP4 POP PUSH1 0x40 DUP7 ADD CALLDATALOAD SWAP3 POP PUSH2 0x1441 PUSH1 0x60 DUP8 ADD PUSH2 0xF48 JUMP JUMPDEST SWAP2 POP PUSH1 0x80 DUP7 ADD CALLDATALOAD PUSH8 0xFFFFFFFFFFFFFFFF DUP2 GT ISZERO PUSH2 0x145D JUMPI PUSH1 0x0 DUP1 REVERT JUMPDEST PUSH2 0x1469 DUP9 DUP3 DUP10 ADD PUSH2 0xF6D JUMP JUMPDEST SWAP2 POP POP SWAP3 SWAP6 POP SWAP3 SWAP6 SWAP1 SWAP4 POP JUMP JUMPDEST PUSH1 0x0 DUP1 PUSH1 0x40 DUP4 DUP6 SUB SLT ISZERO PUSH2 0x1489 JUMPI PUSH1 0x0 DUP1 REVERT JUMPDEST PUSH2 0x1492 DUP4 PUSH2 0xF2B JUMP JUMPDEST SWAP2 POP PUSH2 0x1387 PUSH1 0x20 DUP5 ADD PUSH2 0xF48 JUMP JUMPDEST PUSH1 0x20 DUP2 ADD PUSH2 0x831 DUP3 DUP5 PUSH2 0x107F JUMP JUMPDEST PUSH1 0x0 DUP1 PUSH1 0x40 DUP4 DUP6 SUB SLT ISZERO PUSH2 0x14C1 JUMPI PUSH1 0x0 DUP1 REVERT JUMPDEST PUSH2 0x14CA DUP4 PUSH2 0xF2B JUMP JUMPDEST SWAP5 PUSH1 0x20 SWAP4 SWAP1 SWAP4 ADD CALLDATALOAD SWAP4 POP POP POP JUMP JUMPDEST PUSH1 0x0 DUP1 PUSH1 0x0 PUSH1 0x60 DUP5 DUP7 SUB SLT ISZERO PUSH2 0x14ED JUMPI PUSH1 0x0 DUP1 REVERT JUMPDEST PUSH2 0x14F6 DUP5 PUSH2 0xF2B JUMP JUMPDEST SWAP3 POP PUSH2 0x1504 PUSH1 0x20 DUP6 ADD PUSH2 0xF48 JUMP JUMPDEST SWAP2 POP PUSH1 0x40 DUP5 ADD CALLDATALOAD PUSH8 0xFFFFFFFFFFFFFFFF DUP2 GT ISZERO PUSH2 0x1520 JUMPI PUSH1 0x0 DUP1 REVERT JUMPDEST PUSH2 0x152C DUP7 DUP3 DUP8 ADD PUSH2 0xF6D JUMP JUMPDEST SWAP2 POP POP SWAP3 POP SWAP3 POP SWAP3 JUMP JUMPDEST PUSH1 0x0 DUP1 PUSH1 0x40 DUP4 DUP6 SUB SLT ISZERO PUSH2 0x1549 JUMPI PUSH1 0x0 DUP1 REVERT JUMPDEST PUSH2 0x1552 DUP4 PUSH2 0xF2B JUMP JUMPDEST SWAP2 POP PUSH1 0x20 DUP4 ADD CALLDATALOAD PUSH8 0xFFFFFFFFFFFFFFFF DUP2 GT ISZERO PUSH2 0x156E JUMPI PUSH1 0x0 DUP1 REVERT JUMPDEST PUSH2 0x157A DUP6 DUP3 DUP7 ADD PUSH2 0xF6D JUMP JUMPDEST SWAP2 POP POP SWAP3 POP SWAP3 SWAP1 POP JUMP JUMPDEST PUSH1 0x0 DUP1 PUSH1 0x0 DUP1 PUSH1 0x80 DUP6 DUP8 SUB SLT ISZERO PUSH2 0x159A JUMPI PUSH1 0x0 DUP1 REVERT JUMPDEST PUSH2 0x15A3 DUP6 PUSH2 0xF2B JUMP JUMPDEST SWAP4 POP PUSH2 0x11EF PUSH1 0x20 DUP7 ADD PUSH2 0xF48 JUMP JUMPDEST PUSH1 0x0 DUP1 PUSH1 0x0 PUSH1 0x60 DUP5 DUP7 SUB SLT ISZERO PUSH2 0x15C6 JUMPI PUSH1 0x0 DUP1 REVERT JUMPDEST PUSH2 0x15CF DUP5 PUSH2 0xF2B JUMP JUMPDEST SWAP3 POP PUSH2 0x15DD PUSH1 0x20 DUP6 ADD PUSH2 0xF2B JUMP JUMPDEST SWAP2 POP PUSH2 0x1318 PUSH1 0x40 DUP6 ADD PUSH2 0xF48 JUMP JUMPDEST PUSH1 0x0 DUP1 PUSH1 0x0 DUP1 PUSH1 0x80 DUP6 DUP8 SUB SLT ISZERO PUSH2 0x1601 JUMPI PUSH1 0x0 DUP1 REVERT JUMPDEST PUSH2 0x160A DUP6 PUSH2 0xF2B JUMP JUMPDEST SWAP4 POP PUSH2 0x1618 PUSH1 0x20 DUP7 ADD PUSH2 0xF2B JUMP JUMPDEST SWAP3 POP PUSH1 0x40 DUP6 ADD CALLDATALOAD SWAP2 POP PUSH2 0x120B PUSH1 0x60 DUP7 ADD PUSH2 0xF48 JUMP JUMPDEST PUSH1 0x20 DUP2 MSTORE PUSH1 0x0 PUSH2 0x1640 PUSH1 0x20 DUP4 ADD DUP5 PUSH2 0x10A1 JUMP JUMPDEST SWAP4 SWAP3 POP POP POP JUMP JUMPDEST PUSH1 0x0 DUP1 PUSH1 0x0 DUP1 PUSH1 0x0 PUSH1 0xA0 DUP7 DUP9 SUB SLT ISZERO PUSH2 0x165F JUMPI PUSH1 0x0 DUP1 REVERT JUMPDEST PUSH2 0x1668 DUP7 PUSH2 0xF2B JUMP JUMPDEST SWAP5 POP PUSH2 0x1676 PUSH1 0x20 DUP8 ADD PUSH2 0xF2B JUMP JUMPDEST SWAP4 POP PUSH1 0x40 DUP7 ADD CALLDATALOAD SWAP3 POP PUSH2 0x125A PUSH1 0x60 DUP8 ADD PUSH2 0x11B2 JUMP JUMPDEST PUSH1 0x0 DUP1 PUSH1 0x0 DUP1 PUSH1 0x80 DUP6 DUP8 SUB SLT ISZERO PUSH2 0x16A1 JUMPI PUSH1 0x0 DUP1 REVERT JUMPDEST PUSH2 0x16AA DUP6 PUSH2 0xF2B JUMP JUMPDEST SWAP4 POP PUSH1 0x20 DUP6 ADD CALLDATALOAD SWAP3 POP PUSH2 0x1035 PUSH1 0x40 DUP7 ADD PUSH2 0xF48 JUMP JUMPDEST PUSH1 0x0 PUSH1 0x20 DUP3 DUP5 SUB SLT ISZERO PUSH2 0x16D1 JUMPI PUSH1 0x0 DUP1 REVERT JUMPDEST PUSH2 0x1640 DUP3 PUSH2 0xF2B JUMP JUMPDEST PUSH1 0x0 DUP1 PUSH1 0x0 DUP1 PUSH1 0x0 DUP1 PUSH1 0x0 PUSH1 0xE0 DUP9 DUP11 SUB SLT ISZERO PUSH2 0x16F5 JUMPI PUSH1 0x0 DUP1 REVERT JUMPDEST PUSH2 0x16FE DUP9 PUSH2 0xF2B JUMP JUMPDEST SWAP7 POP PUSH2 0x170C PUSH1 0x20 DUP10 ADD PUSH2 0xF2B JUMP JUMPDEST SWAP6 POP PUSH1 0x40 DUP9 ADD CALLDATALOAD SWAP5 POP PUSH2 0x1721 PUSH1 0x60 DUP10 ADD PUSH2 0xF48 JUMP JUMPDEST SWAP4 POP PUSH2 0x172F PUSH1 0x80 DUP10 ADD PUSH2 0x11B2 JUMP JUMPDEST SWAP3 POP PUSH2 0x173D PUSH1 0xA0 DUP10 ADD PUSH2 0x11B2 JUMP JUMPDEST SWAP2 POP PUSH1 0xC0 DUP9 ADD CALLDATALOAD PUSH8 0xFFFFFFFFFFFFFFFF DUP2 GT ISZERO PUSH2 0x1759 JUMPI PUSH1 0x0 DUP1 REVERT JUMPDEST PUSH2 0x1765 DUP11 DUP3 DUP12 ADD PUSH2 0xF6D JUMP JUMPDEST SWAP2 POP POP SWAP3 SWAP6 SWAP9 SWAP2 SWAP5 SWAP8 POP SWAP3 SWAP6 POP JUMP JUMPDEST PUSH1 0x0 DUP1 PUSH1 0x0 PUSH1 0x60 DUP5 DUP7 SUB SLT ISZERO PUSH2 0x1789 JUMPI PUSH1 0x0 DUP1 REVERT JUMPDEST PUSH2 0x1792 DUP5 PUSH2 0xF2B JUMP JUMPDEST SWAP3 POP PUSH1 0x20 DUP5 ADD CALLDATALOAD SWAP2 POP PUSH1 0x40 DUP5 ADD CALLDATALOAD PUSH8 0xFFFFFFFFFFFFFFFF DUP2 GT ISZERO PUSH2 0x1520 JUMPI PUSH1 0x0 DUP1 REVERT JUMPDEST PUSH1 0x0 DUP1 PUSH1 0x0 PUSH1 0x60 DUP5 DUP7 SUB SLT ISZERO PUSH2 0x17CA JUMPI PUSH1 0x0 DUP1 REVERT JUMPDEST PUSH2 0x17D3 DUP5 PUSH2 0xF2B JUMP JUMPDEST SWAP3 POP PUSH2 0x17E1 PUSH1 0x20 DUP6 ADD PUSH2 0x11B2 JUMP JUMPDEST SWAP2 POP PUSH2 0x1318 PUSH1 0x40 DUP6 ADD PUSH2 0x11B2 JUMP JUMPDEST PUSH1 0x0 DUP1 PUSH1 0x0 PUSH1 0x60 DUP5 DUP7 SUB SLT ISZERO PUSH2 0x1804 JUMPI PUSH1 0x0 DUP1 REVERT JUMPDEST PUSH2 0x180D DUP5 PUSH2 0xF2B JUMP JUMPDEST SWAP3 POP PUSH2 0x1504 PUSH1 0x20 DUP6 ADD PUSH2 0xF2B JUMP INVALID LOG2 PUSH5 0x6970667358 0x22 SLT KECCAK256 0xE8 SDIV GT SWAP11 PUSH7 0xD0F1B1BD6374A4 JUMP 0xE6 CALLER 0xEF MSTORE DUP7 SDIV 0xEC LOG2 KECCAK256 0xEF SWAP2 0x2A 0x27 STOP ORIGIN 0xD9 PUSH30 0xF57C64736F6C634300081100330000000000000000000000000000000000 "},"methodIdentifiers":{"DEFAULT_CLAIM_REQUEST_EXTRA_DATA()":"d4e694f7","DEFAULT_CLAIM_REQUEST_GROUP_TIMESTAMP()":"749d6d85","DEFAULT_CLAIM_REQUEST_IS_OPTIONAL()":"30c62a4a","DEFAULT_CLAIM_REQUEST_IS_SELECTABLE_BY_USER()":"bd240b86","DEFAULT_CLAIM_REQUEST_TYPE()":"84a0e907","DEFAULT_CLAIM_REQUEST_VALUE()":"6658580a","build(bytes16)":"e379821c","build(bytes16,bool,bool)":"ee5decf2","build(bytes16,bytes)":"a820af1a","build(bytes16,bytes16)":"644c52c8","build(bytes16,bytes16,bool,bool)":"35628e71","build(bytes16,bytes16,bytes)":"f744d654","build(bytes16,bytes16,uint256)":"4d06bd88","build(bytes16,bytes16,uint256,bool,bool)":"d8b6eb2b","build(bytes16,bytes16,uint256,bytes)":"102f7b60","build(bytes16,bytes16,uint256,uint8)":"d035c7ca","build(bytes16,bytes16,uint256,uint8,bool,bool)":"6b945f38","build(bytes16,bytes16,uint256,uint8,bool,bool,bytes)":"e3ec2c99","build(bytes16,bytes16,uint256,uint8,bytes)":"7aadac0d","build(bytes16,bytes16,uint8)":"c9062f31","build(bytes16,bytes16,uint8,bool,bool)":"3b0cb073","build(bytes16,bytes16,uint8,bytes)":"0d55ad28","build(bytes16,uint256)":"8628695b","build(bytes16,uint256,bool,bool)":"3a5dc559","build(bytes16,uint256,bytes)":"ec294078","build(bytes16,uint256,uint8)":"409f789a","build(bytes16,uint256,uint8,bool,bool)":"3880e361","build(bytes16,uint256,uint8,bytes)":"db9178d6","build(bytes16,uint8)":"80decbce","build(bytes16,uint8,bool,bool)":"b5a7fef5","build(bytes16,uint8,bytes)":"97e65353"}}}}}