{"@sismo-core/sismo-connect-solidity/contracts/libs/utils/AuthRequestBuilder.sol":{"AuthRequestBuilder":{"abi":[{"inputs":[],"name":"InvalidUserIdAndAuthType","type":"error"},{"inputs":[],"name":"InvalidUserIdAndIsSelectableByUserAuthType","type":"error"},{"inputs":[],"name":"DEFAULT_AUTH_REQUEST_EXTRA_DATA","outputs":[{"internalType":"bytes","name":"","type":"bytes"}],"stateMutability":"view","type":"function"},{"inputs":[],"name":"DEFAULT_AUTH_REQUEST_IS_ANON","outputs":[{"internalType":"bool","name":"","type":"bool"}],"stateMutability":"view","type":"function"},{"inputs":[],"name":"DEFAULT_AUTH_REQUEST_IS_OPTIONAL","outputs":[{"internalType":"bool","name":"","type":"bool"}],"stateMutability":"view","type":"function"},{"inputs":[],"name":"DEFAULT_AUTH_REQUEST_USER_ID","outputs":[{"internalType":"uint256","name":"","type":"uint256"}],"stateMutability":"view","type":"function"},{"inputs":[{"internalType":"enum AuthType","name":"authType","type":"uint8"},{"internalType":"bool","name":"isAnon","type":"bool"},{"internalType":"bytes","name":"extraData","type":"bytes"}],"name":"build","outputs":[{"components":[{"internalType":"enum AuthType","name":"authType","type":"uint8"},{"internalType":"uint256","name":"userId","type":"uint256"},{"internalType":"bool","name":"isAnon","type":"bool"},{"internalType":"bool","name":"isOptional","type":"bool"},{"internalType":"bool","name":"isSelectableByUser","type":"bool"},{"internalType":"bytes","name":"extraData","type":"bytes"}],"internalType":"struct AuthRequest","name":"","type":"tuple"}],"stateMutability":"pure","type":"function"},{"inputs":[{"internalType":"enum AuthType","name":"authType","type":"uint8"},{"internalType":"bool","name":"isAnon","type":"bool"}],"name":"build","outputs":[{"components":[{"internalType":"enum AuthType","name":"authType","type":"uint8"},{"internalType":"uint256","name":"userId","type":"uint256"},{"internalType":"bool","name":"isAnon","type":"bool"},{"internalType":"bool","name":"isOptional","type":"bool"},{"internalType":"bool","name":"isSelectableByUser","type":"bool"},{"internalType":"bytes","name":"extraData","type":"bytes"}],"internalType":"struct AuthRequest","name":"","type":"tuple"}],"stateMutability":"pure","type":"function"},{"inputs":[{"internalType":"enum AuthType","name":"authType","type":"uint8"},{"internalType":"bool","name":"isAnon","type":"bool"},{"internalType":"bool","name":"isOptional","type":"bool"},{"internalType":"bool","name":"isSelectableByUser","type":"bool"}],"name":"build","outputs":[{"components":[{"internalType":"enum AuthType","name":"authType","type":"uint8"},{"internalType":"uint256","name":"userId","type":"uint256"},{"internalType":"bool","name":"isAnon","type":"bool"},{"internalType":"bool","name":"isOptional","type":"bool"},{"internalType":"bool","name":"isSelectableByUser","type":"bool"},{"internalType":"bytes","name":"extraData","type":"bytes"}],"internalType":"struct AuthRequest","name":"","type":"tuple"}],"stateMutability":"pure","type":"function"},{"inputs":[{"internalType":"enum AuthType","name":"authType","type":"uint8"},{"internalType":"bool","name":"isOptional","type":"bool"},{"internalType":"bool","name":"isSelectableByUser","type":"bool"},{"internalType":"uint256","name":"userId","type":"uint256"}],"name":"build","outputs":[{"components":[{"internalType":"enum AuthType","name":"authType","type":"uint8"},{"internalType":"uint256","name":"userId","type":"uint256"},{"internalType":"bool","name":"isAnon","type":"bool"},{"internalType":"bool","name":"isOptional","type":"bool"},{"internalType":"bool","name":"isSelectableByUser","type":"bool"},{"internalType":"bytes","name":"extraData","type":"bytes"}],"internalType":"struct AuthRequest","name":"","type":"tuple"}],"stateMutability":"pure","type":"function"},{"inputs":[{"internalType":"enum AuthType","name":"authType","type":"uint8"}],"name":"build","outputs":[{"components":[{"internalType":"enum AuthType","name":"authType","type":"uint8"},{"internalType":"uint256","name":"userId","type":"uint256"},{"internalType":"bool","name":"isAnon","type":"bool"},{"internalType":"bool","name":"isOptional","type":"bool"},{"internalType":"bool","name":"isSelectableByUser","type":"bool"},{"internalType":"bytes","name":"extraData","type":"bytes"}],"internalType":"struct AuthRequest","name":"","type":"tuple"}],"stateMutability":"pure","type":"function"},{"inputs":[{"internalType":"enum AuthType","name":"authType","type":"uint8"},{"internalType":"uint256","name":"userId","type":"uint256"},{"internalType":"bool","name":"isOptional","type":"bool"}],"name":"build","outputs":[{"components":[{"internalType":"enum AuthType","name":"authType","type":"uint8"},{"internalType":"uint256","name":"userId","type":"uint256"},{"internalType":"bool","name":"isAnon","type":"bool"},{"internalType":"bool","name":"isOptional","type":"bool"},{"internalType":"bool","name":"isSelectableByUser","type":"bool"},{"internalType":"bytes","name":"extraData","type":"bytes"}],"internalType":"struct AuthRequest","name":"","type":"tuple"}],"stateMutability":"pure","type":"function"},{"inputs":[{"internalType":"enum AuthType","name":"authType","type":"uint8"},{"internalType":"uint256","name":"userId","type":"uint256"}],"name":"build","outputs":[{"components":[{"internalType":"enum AuthType","name":"authType","type":"uint8"},{"internalType":"uint256","name":"userId","type":"uint256"},{"internalType":"bool","name":"isAnon","type":"bool"},{"internalType":"bool","name":"isOptional","type":"bool"},{"internalType":"bool","name":"isSelectableByUser","type":"bool"},{"internalType":"bytes","name":"extraData","type":"bytes"}],"internalType":"struct AuthRequest","name":"","type":"tuple"}],"stateMutability":"pure","type":"function"},{"inputs":[{"internalType":"enum AuthType","name":"authType","type":"uint8"},{"internalType":"bytes","name":"extraData","type":"bytes"}],"name":"build","outputs":[{"components":[{"internalType":"enum AuthType","name":"authType","type":"uint8"},{"internalType":"uint256","name":"userId","type":"uint256"},{"internalType":"bool","name":"isAnon","type":"bool"},{"internalType":"bool","name":"isOptional","type":"bool"},{"internalType":"bool","name":"isSelectableByUser","type":"bool"},{"internalType":"bytes","name":"extraData","type":"bytes"}],"internalType":"struct AuthRequest","name":"","type":"tuple"}],"stateMutability":"pure","type":"function"},{"inputs":[{"internalType":"enum AuthType","name":"authType","type":"uint8"},{"internalType":"bool","name":"isAnon","type":"bool"},{"internalType":"uint256","name":"userId","type":"uint256"}],"name":"build","outputs":[{"components":[{"internalType":"enum AuthType","name":"authType","type":"uint8"},{"internalType":"uint256","name":"userId","type":"uint256"},{"internalType":"bool","name":"isAnon","type":"bool"},{"internalType":"bool","name":"isOptional","type":"bool"},{"internalType":"bool","name":"isSelectableByUser","type":"bool"},{"internalType":"bytes","name":"extraData","type":"bytes"}],"internalType":"struct AuthRequest","name":"","type":"tuple"}],"stateMutability":"pure","type":"function"},{"inputs":[{"internalType":"enum AuthType","name":"authType","type":"uint8"},{"internalType":"bool","name":"isAnon","type":"bool"},{"internalType":"uint256","name":"userId","type":"uint256"},{"internalType":"bool","name":"isOptional","type":"bool"}],"name":"build","outputs":[{"components":[{"internalType":"enum AuthType","name":"authType","type":"uint8"},{"internalType":"uint256","name":"userId","type":"uint256"},{"internalType":"bool","name":"isAnon","type":"bool"},{"internalType":"bool","name":"isOptional","type":"bool"},{"internalType":"bool","name":"isSelectableByUser","type":"bool"},{"internalType":"bytes","name":"extraData","type":"bytes"}],"internalType":"struct AuthRequest","name":"","type":"tuple"}],"stateMutability":"pure","type":"function"},{"inputs":[{"internalType":"enum AuthType","name":"authType","type":"uint8"},{"internalType":"bool","name":"isAnon","type":"bool"},{"internalType":"uint256","name":"userId","type":"uint256"},{"internalType":"bool","name":"isOptional","type":"bool"},{"internalType":"bool","name":"isSelectableByUser","type":"bool"},{"internalType":"bytes","name":"extraData","type":"bytes"}],"name":"build","outputs":[{"components":[{"internalType":"enum AuthType","name":"authType","type":"uint8"},{"internalType":"uint256","name":"userId","type":"uint256"},{"internalType":"bool","name":"isAnon","type":"bool"},{"internalType":"bool","name":"isOptional","type":"bool"},{"internalType":"bool","name":"isSelectableByUser","type":"bool"},{"internalType":"bytes","name":"extraData","type":"bytes"}],"internalType":"struct AuthRequest","name":"","type":"tuple"}],"stateMutability":"pure","type":"function"},{"inputs":[{"internalType":"enum AuthType","name":"authType","type":"uint8"},{"internalType":"uint256","name":"userId","type":"uint256"},{"internalType":"bytes","name":"extraData","type":"bytes"}],"name":"build","outputs":[{"components":[{"internalType":"enum AuthType","name":"authType","type":"uint8"},{"internalType":"uint256","name":"userId","type":"uint256"},{"internalType":"bool","name":"isAnon","type":"bool"},{"internalType":"bool","name":"isOptional","type":"bool"},{"internalType":"bool","name":"isSelectableByUser","type":"bool"},{"internalType":"bytes","name":"extraData","type":"bytes"}],"internalType":"struct AuthRequest","name":"","type":"tuple"}],"stateMutability":"pure","type":"function"},{"inputs":[{"internalType":"enum AuthType","name":"authType","type":"uint8"},{"internalType":"bool","name":"isAnon","type":"bool"},{"internalType":"uint256","name":"userId","type":"uint256"},{"internalType":"bytes","name":"extraData","type":"bytes"}],"name":"build","outputs":[{"components":[{"internalType":"enum AuthType","name":"authType","type":"uint8"},{"internalType":"uint256","name":"userId","type":"uint256"},{"internalType":"bool","name":"isAnon","type":"bool"},{"internalType":"bool","name":"isOptional","type":"bool"},{"internalType":"bool","name":"isSelectableByUser","type":"bool"},{"internalType":"bytes","name":"extraData","type":"bytes"}],"internalType":"struct AuthRequest","name":"","type":"tuple"}],"stateMutability":"pure","type":"function"},{"inputs":[{"internalType":"enum AuthType","name":"authType","type":"uint8"},{"internalType":"bool","name":"isOptional","type":"bool"},{"internalType":"bool","name":"isSelectableByUser","type":"bool"}],"name":"build","outputs":[{"components":[{"internalType":"enum AuthType","name":"authType","type":"uint8"},{"internalType":"uint256","name":"userId","type":"uint256"},{"internalType":"bool","name":"isAnon","type":"bool"},{"internalType":"bool","name":"isOptional","type":"bool"},{"internalType":"bool","name":"isSelectableByUser","type":"bool"},{"internalType":"bytes","name":"extraData","type":"bytes"}],"internalType":"struct AuthRequest","name":"","type":"tuple"}],"stateMutability":"pure","type":"function"}],"evm":{"bytecode":{"linkReferences":{},"object":"608060405234801561001057600080fd5b50610bc1806100206000396000f3fe608060405234801561001057600080fd5b50600436106101165760003560e01c8063498a992e116100a2578063916d93c711610071578063916d93c7146102295780639aa01be11461023c578063af4f63961461024f578063c355a32c14610262578063c3bcacd01461027557600080fd5b8063498a992e1461011b57806351559190146101f05780636746dd2c146102035780638b9dba711461021657600080fd5b80633049e4f1116100e95780633049e4f11461017e5780633a0ba6ff146101915780633ca1531a146101a4578063448324ea146101b757806345c13083146101cd57600080fd5b80631967e5101461011b5780631a88fb281461013857806320c9019914610158578063291884ae1461016b575b600080fd5b610123600081565b60405190151581526020015b60405180910390f35b61014b6101463660046106b7565b610288565b60405161012f9190610771565b61014b6101663660046107ee565b6102a6565b61014b610179366004610821565b6102d4565b61014b61018c366004610875565b610303565b61014b61019f3660046108c0565b610329565b61014b6101b23660046108db565b61034f565b6101bf600081565b60405190815260200161012f565b6101e36040518060200160405280600081525081565b60405161012f9190610917565b61014b6101fe36600461092a565b610374565b61014b610211366004610954565b61039a565b61014b6102243660046109a2565b6103b1565b61014b6102373660046109de565b6103d6565b61014b61024a366004610a20565b6103fa565b61014b61025d366004610aa8565b61041b565b61014b610270366004610ae9565b610432565b61014b610283366004610b51565b610448565b6102906105b3565b61029e84846000808661046e565b949350505050565b6102ae6105b3565b6102cb83836000806040518060200160405280600081525061046e565b90505b92915050565b6102dc6105b3565b6102fa85856000868660405180602001604052806000815250610497565b95945050505050565b61030b6105b3565b6102fa85600084878760405180602001604052806000815250610497565b6103316105b3565b6102ce8260008060006040518060200160405280600081525061046e565b6103576105b3565b61029e84600085856040518060200160405280600081525061046e565b61037c6105b3565b6102cb8360008460006040518060200160405280600081525061046e565b6103a26105b3565b6102cb8360008060008661046e565b6103b96105b3565b61029e84848460006040518060200160405280600081525061046e565b6103de6105b3565b6102fa858585856040518060200160405280600081525061046e565b6104026105b3565b610410878787878787610497565b979650505050505050565b6104236105b3565b61029e8460008560008661046e565b61043a6105b3565b6102fa85858560008661046e565b6104506105b3565b61029e84600080868660405180602001604052806000815250610497565b6104766105b3565b61048d868686866104878b8a610579565b87610497565b9695505050505050565b61049f6105b3565b60008760058111156104b3576104b3610715565b141580156104bf575084155b80156104c9575082155b156104e7576040516301972ecd60e11b815260040160405180910390fd5b60008760058111156104fb576104fb610715565b14801561050757508415155b8015610511575082155b1561052f57604051637fb1693d60e01b815260040160405180910390fd5b6040518060c0016040528088600581111561054c5761054c610715565b8152602081019690965295151560408601525091151560608401521515608083015260a090910152919050565b60008083600581111561058e5761058e610715565b0361059b575060006102ce565b816000036105ab575060016102ce565b5060006102ce565b6040805160c08101909152806000815260200160008152602001600015158152602001600015158152602001600015158152602001606081525090565b8035600681106105ff57600080fd5b919050565b803580151581146105ff57600080fd5b634e487b7160e01b600052604160045260246000fd5b600082601f83011261063b57600080fd5b813567ffffffffffffffff8082111561065657610656610614565b604051601f8301601f19908116603f0116810190828211818310171561067e5761067e610614565b8160405283815286602085880101111561069757600080fd5b836020870160208301376000602085830101528094505050505092915050565b6000806000606084860312156106cc57600080fd5b6106d5846105f0565b92506106e360208501610604565b9150604084013567ffffffffffffffff8111156106ff57600080fd5b61070b8682870161062a565b9150509250925092565b634e487b7160e01b600052602160045260246000fd5b6000815180845260005b8181101561075157602081850181015186830182015201610735565b506000602082860101526020601f19601f83011685010191505092915050565b60208152600082516006811061079757634e487b7160e01b600052602160045260246000fd5b806020840152506020830151604083015260408301511515606083015260608301516107c7608084018215159052565b50608083015180151560a08401525060a083015160c08084015261029e60e084018261072b565b6000806040838503121561080157600080fd5b61080a836105f0565b915061081860208401610604565b90509250929050565b6000806000806080858703121561083757600080fd5b610840856105f0565b935061084e60208601610604565b925061085c60408601610604565b915061086a60608601610604565b905092959194509250565b6000806000806080858703121561088b57600080fd5b610894856105f0565b93506108a260208601610604565b92506108b060408601610604565b9396929550929360600135925050565b6000602082840312156108d257600080fd5b6102cb826105f0565b6000806000606084860312156108f057600080fd5b6108f9846105f0565b92506020840135915061090e60408501610604565b90509250925092565b6020815260006102cb602083018461072b565b6000806040838503121561093d57600080fd5b610946836105f0565b946020939093013593505050565b6000806040838503121561096757600080fd5b610970836105f0565b9150602083013567ffffffffffffffff81111561098c57600080fd5b6109988582860161062a565b9150509250929050565b6000806000606084860312156109b757600080fd5b6109c0846105f0565b92506109ce60208501610604565b9150604084013590509250925092565b600080600080608085870312156109f457600080fd5b6109fd856105f0565b9350610a0b60208601610604565b92506040850135915061086a60608601610604565b60008060008060008060c08789031215610a3957600080fd5b610a42876105f0565b9550610a5060208801610604565b945060408701359350610a6560608801610604565b9250610a7360808801610604565b915060a087013567ffffffffffffffff811115610a8f57600080fd5b610a9b89828a0161062a565b9150509295509295509295565b600080600060608486031215610abd57600080fd5b610ac6846105f0565b925060208401359150604084013567ffffffffffffffff8111156106ff57600080fd5b60008060008060808587031215610aff57600080fd5b610b08856105f0565b9350610b1660208601610604565b925060408501359150606085013567ffffffffffffffff811115610b3957600080fd5b610b458782880161062a565b91505092959194509250565b600080600060608486031215610b6657600080fd5b610b6f846105f0565b9250610b7d60208501610604565b915061090e6040850161060456fea264697066735822122083965cec879856c3e3c1212445ce2c32b1193221f9bb4fec0942f74dd3e54b9164736f6c63430008110033","opcodes":"PUSH1 0x80 PUSH1 0x40 MSTORE CALLVALUE DUP1 ISZERO PUSH2 0x10 JUMPI PUSH1 0x0 DUP1 REVERT JUMPDEST POP PUSH2 0xBC1 DUP1 PUSH2 0x20 PUSH1 0x0 CODECOPY PUSH1 0x0 RETURN INVALID PUSH1 0x80 PUSH1 0x40 MSTORE CALLVALUE DUP1 ISZERO PUSH2 0x10 JUMPI PUSH1 0x0 DUP1 REVERT JUMPDEST POP PUSH1 0x4 CALLDATASIZE LT PUSH2 0x116 JUMPI PUSH1 0x0 CALLDATALOAD PUSH1 0xE0 SHR DUP1 PUSH4 0x498A992E GT PUSH2 0xA2 JUMPI DUP1 PUSH4 0x916D93C7 GT PUSH2 0x71 JUMPI DUP1 PUSH4 0x916D93C7 EQ PUSH2 0x229 JUMPI DUP1 PUSH4 0x9AA01BE1 EQ PUSH2 0x23C JUMPI DUP1 PUSH4 0xAF4F6396 EQ PUSH2 0x24F JUMPI DUP1 PUSH4 0xC355A32C EQ PUSH2 0x262 JUMPI DUP1 PUSH4 0xC3BCACD0 EQ PUSH2 0x275 JUMPI PUSH1 0x0 DUP1 REVERT JUMPDEST DUP1 PUSH4 0x498A992E EQ PUSH2 0x11B JUMPI DUP1 PUSH4 0x51559190 EQ PUSH2 0x1F0 JUMPI DUP1 PUSH4 0x6746DD2C EQ PUSH2 0x203 JUMPI DUP1 PUSH4 0x8B9DBA71 EQ PUSH2 0x216 JUMPI PUSH1 0x0 DUP1 REVERT JUMPDEST DUP1 PUSH4 0x3049E4F1 GT PUSH2 0xE9 JUMPI DUP1 PUSH4 0x3049E4F1 EQ PUSH2 0x17E JUMPI DUP1 PUSH4 0x3A0BA6FF EQ PUSH2 0x191 JUMPI DUP1 PUSH4 0x3CA1531A EQ PUSH2 0x1A4 JUMPI DUP1 PUSH4 0x448324EA EQ PUSH2 0x1B7 JUMPI DUP1 PUSH4 0x45C13083 EQ PUSH2 0x1CD JUMPI PUSH1 0x0 DUP1 REVERT JUMPDEST DUP1 PUSH4 0x1967E510 EQ PUSH2 0x11B JUMPI DUP1 PUSH4 0x1A88FB28 EQ PUSH2 0x138 JUMPI DUP1 PUSH4 0x20C90199 EQ PUSH2 0x158 JUMPI DUP1 PUSH4 0x291884AE EQ PUSH2 0x16B JUMPI JUMPDEST PUSH1 0x0 DUP1 REVERT JUMPDEST PUSH2 0x123 PUSH1 0x0 DUP2 JUMP JUMPDEST PUSH1 0x40 MLOAD SWAP1 ISZERO ISZERO DUP2 MSTORE PUSH1 0x20 ADD JUMPDEST PUSH1 0x40 MLOAD DUP1 SWAP2 SUB SWAP1 RETURN JUMPDEST PUSH2 0x14B PUSH2 0x146 CALLDATASIZE PUSH1 0x4 PUSH2 0x6B7 JUMP JUMPDEST PUSH2 0x288 JUMP JUMPDEST PUSH1 0x40 MLOAD PUSH2 0x12F SWAP2 SWAP1 PUSH2 0x771 JUMP JUMPDEST PUSH2 0x14B PUSH2 0x166 CALLDATASIZE PUSH1 0x4 PUSH2 0x7EE JUMP JUMPDEST PUSH2 0x2A6 JUMP JUMPDEST PUSH2 0x14B PUSH2 0x179 CALLDATASIZE PUSH1 0x4 PUSH2 0x821 JUMP JUMPDEST PUSH2 0x2D4 JUMP JUMPDEST PUSH2 0x14B PUSH2 0x18C CALLDATASIZE PUSH1 0x4 PUSH2 0x875 JUMP JUMPDEST PUSH2 0x303 JUMP JUMPDEST PUSH2 0x14B PUSH2 0x19F CALLDATASIZE PUSH1 0x4 PUSH2 0x8C0 JUMP JUMPDEST PUSH2 0x329 JUMP JUMPDEST PUSH2 0x14B PUSH2 0x1B2 CALLDATASIZE PUSH1 0x4 PUSH2 0x8DB JUMP JUMPDEST PUSH2 0x34F JUMP JUMPDEST PUSH2 0x1BF PUSH1 0x0 DUP2 JUMP JUMPDEST PUSH1 0x40 MLOAD SWAP1 DUP2 MSTORE PUSH1 0x20 ADD PUSH2 0x12F JUMP JUMPDEST PUSH2 0x1E3 PUSH1 0x40 MLOAD DUP1 PUSH1 0x20 ADD PUSH1 0x40 MSTORE DUP1 PUSH1 0x0 DUP2 MSTORE POP DUP2 JUMP JUMPDEST PUSH1 0x40 MLOAD PUSH2 0x12F SWAP2 SWAP1 PUSH2 0x917 JUMP JUMPDEST PUSH2 0x14B PUSH2 0x1FE CALLDATASIZE PUSH1 0x4 PUSH2 0x92A JUMP JUMPDEST PUSH2 0x374 JUMP JUMPDEST PUSH2 0x14B PUSH2 0x211 CALLDATASIZE PUSH1 0x4 PUSH2 0x954 JUMP JUMPDEST PUSH2 0x39A JUMP JUMPDEST PUSH2 0x14B PUSH2 0x224 CALLDATASIZE PUSH1 0x4 PUSH2 0x9A2 JUMP JUMPDEST PUSH2 0x3B1 JUMP JUMPDEST PUSH2 0x14B PUSH2 0x237 CALLDATASIZE PUSH1 0x4 PUSH2 0x9DE JUMP JUMPDEST PUSH2 0x3D6 JUMP JUMPDEST PUSH2 0x14B PUSH2 0x24A CALLDATASIZE PUSH1 0x4 PUSH2 0xA20 JUMP JUMPDEST PUSH2 0x3FA JUMP JUMPDEST PUSH2 0x14B PUSH2 0x25D CALLDATASIZE PUSH1 0x4 PUSH2 0xAA8 JUMP JUMPDEST PUSH2 0x41B JUMP JUMPDEST PUSH2 0x14B PUSH2 0x270 CALLDATASIZE PUSH1 0x4 PUSH2 0xAE9 JUMP JUMPDEST PUSH2 0x432 JUMP JUMPDEST PUSH2 0x14B PUSH2 0x283 CALLDATASIZE PUSH1 0x4 PUSH2 0xB51 JUMP JUMPDEST PUSH2 0x448 JUMP JUMPDEST PUSH2 0x290 PUSH2 0x5B3 JUMP JUMPDEST PUSH2 0x29E DUP5 DUP5 PUSH1 0x0 DUP1 DUP7 PUSH2 0x46E JUMP JUMPDEST SWAP5 SWAP4 POP POP POP POP JUMP JUMPDEST PUSH2 0x2AE PUSH2 0x5B3 JUMP JUMPDEST PUSH2 0x2CB DUP4 DUP4 PUSH1 0x0 DUP1 PUSH1 0x40 MLOAD DUP1 PUSH1 0x20 ADD PUSH1 0x40 MSTORE DUP1 PUSH1 0x0 DUP2 MSTORE POP PUSH2 0x46E JUMP JUMPDEST SWAP1 POP JUMPDEST SWAP3 SWAP2 POP POP JUMP JUMPDEST PUSH2 0x2DC PUSH2 0x5B3 JUMP JUMPDEST PUSH2 0x2FA DUP6 DUP6 PUSH1 0x0 DUP7 DUP7 PUSH1 0x40 MLOAD DUP1 PUSH1 0x20 ADD PUSH1 0x40 MSTORE DUP1 PUSH1 0x0 DUP2 MSTORE POP PUSH2 0x497 JUMP JUMPDEST SWAP6 SWAP5 POP POP POP POP POP JUMP JUMPDEST PUSH2 0x30B PUSH2 0x5B3 JUMP JUMPDEST PUSH2 0x2FA DUP6 PUSH1 0x0 DUP5 DUP8 DUP8 PUSH1 0x40 MLOAD DUP1 PUSH1 0x20 ADD PUSH1 0x40 MSTORE DUP1 PUSH1 0x0 DUP2 MSTORE POP PUSH2 0x497 JUMP JUMPDEST PUSH2 0x331 PUSH2 0x5B3 JUMP JUMPDEST PUSH2 0x2CE DUP3 PUSH1 0x0 DUP1 PUSH1 0x0 PUSH1 0x40 MLOAD DUP1 PUSH1 0x20 ADD PUSH1 0x40 MSTORE DUP1 PUSH1 0x0 DUP2 MSTORE POP PUSH2 0x46E JUMP JUMPDEST PUSH2 0x357 PUSH2 0x5B3 JUMP JUMPDEST PUSH2 0x29E DUP5 PUSH1 0x0 DUP6 DUP6 PUSH1 0x40 MLOAD DUP1 PUSH1 0x20 ADD PUSH1 0x40 MSTORE DUP1 PUSH1 0x0 DUP2 MSTORE POP PUSH2 0x46E JUMP JUMPDEST PUSH2 0x37C PUSH2 0x5B3 JUMP JUMPDEST PUSH2 0x2CB DUP4 PUSH1 0x0 DUP5 PUSH1 0x0 PUSH1 0x40 MLOAD DUP1 PUSH1 0x20 ADD PUSH1 0x40 MSTORE DUP1 PUSH1 0x0 DUP2 MSTORE POP PUSH2 0x46E JUMP JUMPDEST PUSH2 0x3A2 PUSH2 0x5B3 JUMP JUMPDEST PUSH2 0x2CB DUP4 PUSH1 0x0 DUP1 PUSH1 0x0 DUP7 PUSH2 0x46E JUMP JUMPDEST PUSH2 0x3B9 PUSH2 0x5B3 JUMP JUMPDEST PUSH2 0x29E DUP5 DUP5 DUP5 PUSH1 0x0 PUSH1 0x40 MLOAD DUP1 PUSH1 0x20 ADD PUSH1 0x40 MSTORE DUP1 PUSH1 0x0 DUP2 MSTORE POP PUSH2 0x46E JUMP JUMPDEST PUSH2 0x3DE PUSH2 0x5B3 JUMP JUMPDEST PUSH2 0x2FA DUP6 DUP6 DUP6 DUP6 PUSH1 0x40 MLOAD DUP1 PUSH1 0x20 ADD PUSH1 0x40 MSTORE DUP1 PUSH1 0x0 DUP2 MSTORE POP PUSH2 0x46E JUMP JUMPDEST PUSH2 0x402 PUSH2 0x5B3 JUMP JUMPDEST PUSH2 0x410 DUP8 DUP8 DUP8 DUP8 DUP8 DUP8 PUSH2 0x497 JUMP JUMPDEST SWAP8 SWAP7 POP POP POP POP POP POP POP JUMP JUMPDEST PUSH2 0x423 PUSH2 0x5B3 JUMP JUMPDEST PUSH2 0x29E DUP5 PUSH1 0x0 DUP6 PUSH1 0x0 DUP7 PUSH2 0x46E JUMP JUMPDEST PUSH2 0x43A PUSH2 0x5B3 JUMP JUMPDEST PUSH2 0x2FA DUP6 DUP6 DUP6 PUSH1 0x0 DUP7 PUSH2 0x46E JUMP JUMPDEST PUSH2 0x450 PUSH2 0x5B3 JUMP JUMPDEST PUSH2 0x29E DUP5 PUSH1 0x0 DUP1 DUP7 DUP7 PUSH1 0x40 MLOAD DUP1 PUSH1 0x20 ADD PUSH1 0x40 MSTORE DUP1 PUSH1 0x0 DUP2 MSTORE POP PUSH2 0x497 JUMP JUMPDEST PUSH2 0x476 PUSH2 0x5B3 JUMP JUMPDEST PUSH2 0x48D DUP7 DUP7 DUP7 DUP7 PUSH2 0x487 DUP12 DUP11 PUSH2 0x579 JUMP JUMPDEST DUP8 PUSH2 0x497 JUMP JUMPDEST SWAP7 SWAP6 POP POP POP POP POP POP JUMP JUMPDEST PUSH2 0x49F PUSH2 0x5B3 JUMP JUMPDEST PUSH1 0x0 DUP8 PUSH1 0x5 DUP2 GT ISZERO PUSH2 0x4B3 JUMPI PUSH2 0x4B3 PUSH2 0x715 JUMP JUMPDEST EQ ISZERO DUP1 ISZERO PUSH2 0x4BF JUMPI POP DUP5 ISZERO JUMPDEST DUP1 ISZERO PUSH2 0x4C9 JUMPI POP DUP3 ISZERO JUMPDEST ISZERO PUSH2 0x4E7 JUMPI PUSH1 0x40 MLOAD PUSH4 0x1972ECD PUSH1 0xE1 SHL DUP2 MSTORE PUSH1 0x4 ADD PUSH1 0x40 MLOAD DUP1 SWAP2 SUB SWAP1 REVERT JUMPDEST PUSH1 0x0 DUP8 PUSH1 0x5 DUP2 GT ISZERO PUSH2 0x4FB JUMPI PUSH2 0x4FB PUSH2 0x715 JUMP JUMPDEST EQ DUP1 ISZERO PUSH2 0x507 JUMPI POP DUP5 ISZERO ISZERO JUMPDEST DUP1 ISZERO PUSH2 0x511 JUMPI POP DUP3 ISZERO JUMPDEST ISZERO PUSH2 0x52F JUMPI PUSH1 0x40 MLOAD PUSH4 0x7FB1693D PUSH1 0xE0 SHL DUP2 MSTORE PUSH1 0x4 ADD PUSH1 0x40 MLOAD DUP1 SWAP2 SUB SWAP1 REVERT JUMPDEST PUSH1 0x40 MLOAD DUP1 PUSH1 0xC0 ADD PUSH1 0x40 MSTORE DUP1 DUP9 PUSH1 0x5 DUP2 GT ISZERO PUSH2 0x54C JUMPI PUSH2 0x54C PUSH2 0x715 JUMP JUMPDEST DUP2 MSTORE PUSH1 0x20 DUP2 ADD SWAP7 SWAP1 SWAP7 MSTORE SWAP6 ISZERO ISZERO PUSH1 0x40 DUP7 ADD MSTORE POP SWAP2 ISZERO ISZERO PUSH1 0x60 DUP5 ADD MSTORE ISZERO ISZERO PUSH1 0x80 DUP4 ADD MSTORE PUSH1 0xA0 SWAP1 SWAP2 ADD MSTORE SWAP2 SWAP1 POP JUMP JUMPDEST PUSH1 0x0 DUP1 DUP4 PUSH1 0x5 DUP2 GT ISZERO PUSH2 0x58E JUMPI PUSH2 0x58E PUSH2 0x715 JUMP JUMPDEST SUB PUSH2 0x59B JUMPI POP PUSH1 0x0 PUSH2 0x2CE JUMP JUMPDEST DUP2 PUSH1 0x0 SUB PUSH2 0x5AB JUMPI POP PUSH1 0x1 PUSH2 0x2CE JUMP JUMPDEST POP PUSH1 0x0 PUSH2 0x2CE JUMP JUMPDEST PUSH1 0x40 DUP1 MLOAD PUSH1 0xC0 DUP2 ADD SWAP1 SWAP2 MSTORE DUP1 PUSH1 0x0 DUP2 MSTORE PUSH1 0x20 ADD PUSH1 0x0 DUP2 MSTORE PUSH1 0x20 ADD PUSH1 0x0 ISZERO ISZERO DUP2 MSTORE PUSH1 0x20 ADD PUSH1 0x0 ISZERO ISZERO DUP2 MSTORE PUSH1 0x20 ADD PUSH1 0x0 ISZERO ISZERO DUP2 MSTORE PUSH1 0x20 ADD PUSH1 0x60 DUP2 MSTORE POP SWAP1 JUMP JUMPDEST DUP1 CALLDATALOAD PUSH1 0x6 DUP2 LT PUSH2 0x5FF JUMPI PUSH1 0x0 DUP1 REVERT JUMPDEST SWAP2 SWAP1 POP JUMP JUMPDEST DUP1 CALLDATALOAD DUP1 ISZERO ISZERO DUP2 EQ PUSH2 0x5FF JUMPI PUSH1 0x0 DUP1 REVERT JUMPDEST PUSH4 0x4E487B71 PUSH1 0xE0 SHL PUSH1 0x0 MSTORE PUSH1 0x41 PUSH1 0x4 MSTORE PUSH1 0x24 PUSH1 0x0 REVERT JUMPDEST PUSH1 0x0 DUP3 PUSH1 0x1F DUP4 ADD SLT PUSH2 0x63B JUMPI PUSH1 0x0 DUP1 REVERT JUMPDEST DUP2 CALLDATALOAD PUSH8 0xFFFFFFFFFFFFFFFF DUP1 DUP3 GT ISZERO PUSH2 0x656 JUMPI PUSH2 0x656 PUSH2 0x614 JUMP JUMPDEST PUSH1 0x40 MLOAD PUSH1 0x1F DUP4 ADD PUSH1 0x1F NOT SWAP1 DUP2 AND PUSH1 0x3F ADD AND DUP2 ADD SWAP1 DUP3 DUP3 GT DUP2 DUP4 LT OR ISZERO PUSH2 0x67E JUMPI PUSH2 0x67E PUSH2 0x614 JUMP JUMPDEST DUP2 PUSH1 0x40 MSTORE DUP4 DUP2 MSTORE DUP7 PUSH1 0x20 DUP6 DUP9 ADD ADD GT ISZERO PUSH2 0x697 JUMPI PUSH1 0x0 DUP1 REVERT JUMPDEST DUP4 PUSH1 0x20 DUP8 ADD PUSH1 0x20 DUP4 ADD CALLDATACOPY PUSH1 0x0 PUSH1 0x20 DUP6 DUP4 ADD ADD MSTORE DUP1 SWAP5 POP POP POP POP POP SWAP3 SWAP2 POP POP JUMP JUMPDEST PUSH1 0x0 DUP1 PUSH1 0x0 PUSH1 0x60 DUP5 DUP7 SUB SLT ISZERO PUSH2 0x6CC JUMPI PUSH1 0x0 DUP1 REVERT JUMPDEST PUSH2 0x6D5 DUP5 PUSH2 0x5F0 JUMP JUMPDEST SWAP3 POP PUSH2 0x6E3 PUSH1 0x20 DUP6 ADD PUSH2 0x604 JUMP JUMPDEST SWAP2 POP PUSH1 0x40 DUP5 ADD CALLDATALOAD PUSH8 0xFFFFFFFFFFFFFFFF DUP2 GT ISZERO PUSH2 0x6FF JUMPI PUSH1 0x0 DUP1 REVERT JUMPDEST PUSH2 0x70B DUP7 DUP3 DUP8 ADD PUSH2 0x62A JUMP JUMPDEST SWAP2 POP POP SWAP3 POP SWAP3 POP SWAP3 JUMP JUMPDEST PUSH4 0x4E487B71 PUSH1 0xE0 SHL PUSH1 0x0 MSTORE PUSH1 0x21 PUSH1 0x4 MSTORE PUSH1 0x24 PUSH1 0x0 REVERT JUMPDEST PUSH1 0x0 DUP2 MLOAD DUP1 DUP5 MSTORE PUSH1 0x0 JUMPDEST DUP2 DUP2 LT ISZERO PUSH2 0x751 JUMPI PUSH1 0x20 DUP2 DUP6 ADD DUP2 ADD MLOAD DUP7 DUP4 ADD DUP3 ADD MSTORE ADD PUSH2 0x735 JUMP JUMPDEST POP PUSH1 0x0 PUSH1 0x20 DUP3 DUP7 ADD ADD MSTORE PUSH1 0x20 PUSH1 0x1F NOT PUSH1 0x1F DUP4 ADD AND DUP6 ADD ADD SWAP2 POP POP SWAP3 SWAP2 POP POP JUMP JUMPDEST PUSH1 0x20 DUP2 MSTORE PUSH1 0x0 DUP3 MLOAD PUSH1 0x6 DUP2 LT PUSH2 0x797 JUMPI PUSH4 0x4E487B71 PUSH1 0xE0 SHL PUSH1 0x0 MSTORE PUSH1 0x21 PUSH1 0x4 MSTORE PUSH1 0x24 PUSH1 0x0 REVERT JUMPDEST DUP1 PUSH1 0x20 DUP5 ADD MSTORE POP PUSH1 0x20 DUP4 ADD MLOAD PUSH1 0x40 DUP4 ADD MSTORE PUSH1 0x40 DUP4 ADD MLOAD ISZERO ISZERO PUSH1 0x60 DUP4 ADD MSTORE PUSH1 0x60 DUP4 ADD MLOAD PUSH2 0x7C7 PUSH1 0x80 DUP5 ADD DUP3 ISZERO ISZERO SWAP1 MSTORE JUMP JUMPDEST POP PUSH1 0x80 DUP4 ADD MLOAD DUP1 ISZERO ISZERO PUSH1 0xA0 DUP5 ADD MSTORE POP PUSH1 0xA0 DUP4 ADD MLOAD PUSH1 0xC0 DUP1 DUP5 ADD MSTORE PUSH2 0x29E PUSH1 0xE0 DUP5 ADD DUP3 PUSH2 0x72B JUMP JUMPDEST PUSH1 0x0 DUP1 PUSH1 0x40 DUP4 DUP6 SUB SLT ISZERO PUSH2 0x801 JUMPI PUSH1 0x0 DUP1 REVERT JUMPDEST PUSH2 0x80A DUP4 PUSH2 0x5F0 JUMP JUMPDEST SWAP2 POP PUSH2 0x818 PUSH1 0x20 DUP5 ADD PUSH2 0x604 JUMP JUMPDEST SWAP1 POP SWAP3 POP SWAP3 SWAP1 POP JUMP JUMPDEST PUSH1 0x0 DUP1 PUSH1 0x0 DUP1 PUSH1 0x80 DUP6 DUP8 SUB SLT ISZERO PUSH2 0x837 JUMPI PUSH1 0x0 DUP1 REVERT JUMPDEST PUSH2 0x840 DUP6 PUSH2 0x5F0 JUMP JUMPDEST SWAP4 POP PUSH2 0x84E PUSH1 0x20 DUP7 ADD PUSH2 0x604 JUMP JUMPDEST SWAP3 POP PUSH2 0x85C PUSH1 0x40 DUP7 ADD PUSH2 0x604 JUMP JUMPDEST SWAP2 POP PUSH2 0x86A PUSH1 0x60 DUP7 ADD PUSH2 0x604 JUMP JUMPDEST SWAP1 POP SWAP3 SWAP6 SWAP2 SWAP5 POP SWAP3 POP JUMP JUMPDEST PUSH1 0x0 DUP1 PUSH1 0x0 DUP1 PUSH1 0x80 DUP6 DUP8 SUB SLT ISZERO PUSH2 0x88B JUMPI PUSH1 0x0 DUP1 REVERT JUMPDEST PUSH2 0x894 DUP6 PUSH2 0x5F0 JUMP JUMPDEST SWAP4 POP PUSH2 0x8A2 PUSH1 0x20 DUP7 ADD PUSH2 0x604 JUMP JUMPDEST SWAP3 POP PUSH2 0x8B0 PUSH1 0x40 DUP7 ADD PUSH2 0x604 JUMP JUMPDEST SWAP4 SWAP7 SWAP3 SWAP6 POP SWAP3 SWAP4 PUSH1 0x60 ADD CALLDATALOAD SWAP3 POP POP JUMP JUMPDEST PUSH1 0x0 PUSH1 0x20 DUP3 DUP5 SUB SLT ISZERO PUSH2 0x8D2 JUMPI PUSH1 0x0 DUP1 REVERT JUMPDEST PUSH2 0x2CB DUP3 PUSH2 0x5F0 JUMP JUMPDEST PUSH1 0x0 DUP1 PUSH1 0x0 PUSH1 0x60 DUP5 DUP7 SUB SLT ISZERO PUSH2 0x8F0 JUMPI PUSH1 0x0 DUP1 REVERT JUMPDEST PUSH2 0x8F9 DUP5 PUSH2 0x5F0 JUMP JUMPDEST SWAP3 POP PUSH1 0x20 DUP5 ADD CALLDATALOAD SWAP2 POP PUSH2 0x90E PUSH1 0x40 DUP6 ADD PUSH2 0x604 JUMP JUMPDEST SWAP1 POP SWAP3 POP SWAP3 POP SWAP3 JUMP JUMPDEST PUSH1 0x20 DUP2 MSTORE PUSH1 0x0 PUSH2 0x2CB PUSH1 0x20 DUP4 ADD DUP5 PUSH2 0x72B JUMP JUMPDEST PUSH1 0x0 DUP1 PUSH1 0x40 DUP4 DUP6 SUB SLT ISZERO PUSH2 0x93D JUMPI PUSH1 0x0 DUP1 REVERT JUMPDEST PUSH2 0x946 DUP4 PUSH2 0x5F0 JUMP JUMPDEST SWAP5 PUSH1 0x20 SWAP4 SWAP1 SWAP4 ADD CALLDATALOAD SWAP4 POP POP POP JUMP JUMPDEST PUSH1 0x0 DUP1 PUSH1 0x40 DUP4 DUP6 SUB SLT ISZERO PUSH2 0x967 JUMPI PUSH1 0x0 DUP1 REVERT JUMPDEST PUSH2 0x970 DUP4 PUSH2 0x5F0 JUMP JUMPDEST SWAP2 POP PUSH1 0x20 DUP4 ADD CALLDATALOAD PUSH8 0xFFFFFFFFFFFFFFFF DUP2 GT ISZERO PUSH2 0x98C JUMPI PUSH1 0x0 DUP1 REVERT JUMPDEST PUSH2 0x998 DUP6 DUP3 DUP7 ADD PUSH2 0x62A JUMP JUMPDEST SWAP2 POP POP SWAP3 POP SWAP3 SWAP1 POP JUMP JUMPDEST PUSH1 0x0 DUP1 PUSH1 0x0 PUSH1 0x60 DUP5 DUP7 SUB SLT ISZERO PUSH2 0x9B7 JUMPI PUSH1 0x0 DUP1 REVERT JUMPDEST PUSH2 0x9C0 DUP5 PUSH2 0x5F0 JUMP JUMPDEST SWAP3 POP PUSH2 0x9CE PUSH1 0x20 DUP6 ADD PUSH2 0x604 JUMP JUMPDEST SWAP2 POP PUSH1 0x40 DUP5 ADD CALLDATALOAD SWAP1 POP SWAP3 POP SWAP3 POP SWAP3 JUMP JUMPDEST PUSH1 0x0 DUP1 PUSH1 0x0 DUP1 PUSH1 0x80 DUP6 DUP8 SUB SLT ISZERO PUSH2 0x9F4 JUMPI PUSH1 0x0 DUP1 REVERT JUMPDEST PUSH2 0x9FD DUP6 PUSH2 0x5F0 JUMP JUMPDEST SWAP4 POP PUSH2 0xA0B PUSH1 0x20 DUP7 ADD PUSH2 0x604 JUMP JUMPDEST SWAP3 POP PUSH1 0x40 DUP6 ADD CALLDATALOAD SWAP2 POP PUSH2 0x86A PUSH1 0x60 DUP7 ADD PUSH2 0x604 JUMP JUMPDEST PUSH1 0x0 DUP1 PUSH1 0x0 DUP1 PUSH1 0x0 DUP1 PUSH1 0xC0 DUP8 DUP10 SUB SLT ISZERO PUSH2 0xA39 JUMPI PUSH1 0x0 DUP1 REVERT JUMPDEST PUSH2 0xA42 DUP8 PUSH2 0x5F0 JUMP JUMPDEST SWAP6 POP PUSH2 0xA50 PUSH1 0x20 DUP9 ADD PUSH2 0x604 JUMP JUMPDEST SWAP5 POP PUSH1 0x40 DUP8 ADD CALLDATALOAD SWAP4 POP PUSH2 0xA65 PUSH1 0x60 DUP9 ADD PUSH2 0x604 JUMP JUMPDEST SWAP3 POP PUSH2 0xA73 PUSH1 0x80 DUP9 ADD PUSH2 0x604 JUMP JUMPDEST SWAP2 POP PUSH1 0xA0 DUP8 ADD CALLDATALOAD PUSH8 0xFFFFFFFFFFFFFFFF DUP2 GT ISZERO PUSH2 0xA8F JUMPI PUSH1 0x0 DUP1 REVERT JUMPDEST PUSH2 0xA9B DUP10 DUP3 DUP11 ADD PUSH2 0x62A JUMP JUMPDEST SWAP2 POP POP SWAP3 SWAP6 POP SWAP3 SWAP6 POP SWAP3 SWAP6 JUMP JUMPDEST PUSH1 0x0 DUP1 PUSH1 0x0 PUSH1 0x60 DUP5 DUP7 SUB SLT ISZERO PUSH2 0xABD JUMPI PUSH1 0x0 DUP1 REVERT JUMPDEST PUSH2 0xAC6 DUP5 PUSH2 0x5F0 JUMP JUMPDEST SWAP3 POP PUSH1 0x20 DUP5 ADD CALLDATALOAD SWAP2 POP PUSH1 0x40 DUP5 ADD CALLDATALOAD PUSH8 0xFFFFFFFFFFFFFFFF DUP2 GT ISZERO PUSH2 0x6FF JUMPI PUSH1 0x0 DUP1 REVERT JUMPDEST PUSH1 0x0 DUP1 PUSH1 0x0 DUP1 PUSH1 0x80 DUP6 DUP8 SUB SLT ISZERO PUSH2 0xAFF JUMPI PUSH1 0x0 DUP1 REVERT JUMPDEST PUSH2 0xB08 DUP6 PUSH2 0x5F0 JUMP JUMPDEST SWAP4 POP PUSH2 0xB16 PUSH1 0x20 DUP7 ADD PUSH2 0x604 JUMP JUMPDEST SWAP3 POP PUSH1 0x40 DUP6 ADD CALLDATALOAD SWAP2 POP PUSH1 0x60 DUP6 ADD CALLDATALOAD PUSH8 0xFFFFFFFFFFFFFFFF DUP2 GT ISZERO PUSH2 0xB39 JUMPI PUSH1 0x0 DUP1 REVERT JUMPDEST PUSH2 0xB45 DUP8 DUP3 DUP9 ADD PUSH2 0x62A JUMP JUMPDEST SWAP2 POP POP SWAP3 SWAP6 SWAP2 SWAP5 POP SWAP3 POP JUMP JUMPDEST PUSH1 0x0 DUP1 PUSH1 0x0 PUSH1 0x60 DUP5 DUP7 SUB SLT ISZERO PUSH2 0xB66 JUMPI PUSH1 0x0 DUP1 REVERT JUMPDEST PUSH2 0xB6F DUP5 PUSH2 0x5F0 JUMP JUMPDEST SWAP3 POP PUSH2 0xB7D PUSH1 0x20 DUP6 ADD PUSH2 0x604 JUMP JUMPDEST SWAP2 POP PUSH2 0x90E PUSH1 0x40 DUP6 ADD PUSH2 0x604 JUMP INVALID LOG2 PUSH5 0x6970667358 0x22 SLT KECCAK256 DUP4 SWAP7 0x5C 0xEC DUP8 SWAP9 JUMP 0xC3 0xE3 0xC1 0x21 0x24 GASLIMIT 0xCE 0x2C ORIGIN 0xB1 NOT ORIGIN 0x21 0xF9 0xBB 0x4F 0xEC MULMOD TIMESTAMP 0xF7 0x4D 0xD3 0xE5 0x4B SWAP2 PUSH5 0x736F6C6343 STOP ADDMOD GT STOP CALLER "},"methodIdentifiers":{"DEFAULT_AUTH_REQUEST_EXTRA_DATA()":"45c13083","DEFAULT_AUTH_REQUEST_IS_ANON()":"1967e510","DEFAULT_AUTH_REQUEST_IS_OPTIONAL()":"498a992e","DEFAULT_AUTH_REQUEST_USER_ID()":"448324ea","build(uint8)":"3a0ba6ff","build(uint8,bool)":"20c90199","build(uint8,bool,bool)":"c3bcacd0","build(uint8,bool,bool,bool)":"291884ae","build(uint8,bool,bool,uint256)":"3049e4f1","build(uint8,bool,bytes)":"1a88fb28","build(uint8,bool,uint256)":"8b9dba71","build(uint8,bool,uint256,bool)":"916d93c7","build(uint8,bool,uint256,bool,bool,bytes)":"9aa01be1","build(uint8,bool,uint256,bytes)":"c355a32c","build(uint8,bytes)":"6746dd2c","build(uint8,uint256)":"51559190","build(uint8,uint256,bool)":"3ca1531a","build(uint8,uint256,bytes)":"af4f6396"}}}}}