{"contracts/SismoVerifier.sol":{"SismoVerifier":{"abi":[{"inputs":[],"stateMutability":"nonpayable","type":"constructor"},{"anonymous":false,"inputs":[{"components":[{"internalType":"bytes16","name":"appId","type":"bytes16"},{"internalType":"bytes16","name":"namespace","type":"bytes16"},{"internalType":"bytes32","name":"version","type":"bytes32"},{"components":[{"internalType":"enum AuthType","name":"authType","type":"uint8"},{"internalType":"bool","name":"isAnon","type":"bool"},{"internalType":"uint256","name":"userId","type":"uint256"},{"internalType":"bytes","name":"extraData","type":"bytes"},{"internalType":"bytes","name":"proofData","type":"bytes"}],"internalType":"struct VerifiedAuth[]","name":"auths","type":"tuple[]"},{"components":[{"internalType":"enum ClaimType","name":"claimType","type":"uint8"},{"internalType":"bytes16","name":"groupId","type":"bytes16"},{"internalType":"bytes16","name":"groupTimestamp","type":"bytes16"},{"internalType":"uint256","name":"value","type":"uint256"},{"internalType":"bytes","name":"extraData","type":"bytes"},{"internalType":"uint256","name":"proofId","type":"uint256"},{"internalType":"bytes","name":"proofData","type":"bytes"}],"internalType":"struct VerifiedClaim[]","name":"claims","type":"tuple[]"},{"internalType":"bytes","name":"signedMessage","type":"bytes"}],"indexed":false,"internalType":"struct SismoConnectVerifiedResult","name":"result","type":"tuple"}],"name":"ResponseVerified","type":"event"},{"inputs":[],"name":"ADDRESSES_PROVIDER_V2","outputs":[{"internalType":"contract IAddressesProvider","name":"","type":"address"}],"stateMutability":"view","type":"function"},{"inputs":[],"name":"APP_ID","outputs":[{"internalType":"bytes16","name":"","type":"bytes16"}],"stateMutability":"view","type":"function"},{"inputs":[],"name":"IS_IMPERSONATION_MODE","outputs":[{"internalType":"bool","name":"","type":"bool"}],"stateMutability":"view","type":"function"},{"inputs":[],"name":"SISMO_CONNECT_LIB_VERSION","outputs":[{"internalType":"uint256","name":"","type":"uint256"}],"stateMutability":"view","type":"function"},{"inputs":[],"name":"config","outputs":[{"components":[{"internalType":"bytes16","name":"appId","type":"bytes16"},{"components":[{"internalType":"bool","name":"isImpersonationMode","type":"bool"}],"internalType":"struct VaultConfig","name":"vault","type":"tuple"}],"internalType":"struct SismoConnectConfig","name":"","type":"tuple"}],"stateMutability":"view","type":"function"}],"evm":{"bytecode":{"linkReferences":{},"object":"610160604052600080546001600160881b031916700132403ced4b65f2079eda77c84e7d2be617905534801561003457600080fd5b5060005461005190608081901b90600160801b900460ff166103ff565b80516001600160801b0319166101205260208082015151151561014052604080518082018252601981527f7369736d6f436f6e6e65637456657269666965722d76312e3200000000000000928101929092525163349f642f60e11b8152733cd5334eb64ebbd4003b72022cc25465f1bfcee69163693ec85e916100d79190600401610460565b602060405180830381865afa1580156100f4573d6000803e3d6000fd5b505050506040513d601f19601f8201168201806040525081019061011891906104ae565b6001600160a01b0316608052604080518082018252601781527f61757468526571756573744275696c6465722d76312e310000000000000000006020820152905163349f642f60e11b8152733cd5334eb64ebbd4003b72022cc25465f1bfcee69163693ec85e9161018c9190600401610460565b602060405180830381865afa1580156101a9573d6000803e3d6000fd5b505050506040513d601f19601f820116820180604052508101906101cd91906104ae565b6001600160a01b031660a052604080518082018252601881527f636c61696d526571756573744275696c6465722d76312e3100000000000000006020820152905163349f642f60e11b8152733cd5334eb64ebbd4003b72022cc25465f1bfcee69163693ec85e916102419190600401610460565b602060405180830381865afa15801561025e573d6000803e3d6000fd5b505050506040513d601f19601f8201168201806040525081019061028291906104ae565b6001600160a01b031660c052604080518082018252601581527f7369676e61747572654275696c6465722d76312e3100000000000000000000006020820152905163349f642f60e11b8152733cd5334eb64ebbd4003b72022cc25465f1bfcee69163693ec85e916102f69190600401610460565b602060405180830381865afa158015610313573d6000803e3d6000fd5b505050506040513d601f19601f8201168201806040525081019061033791906104ae565b6001600160a01b031660e052604080518082018252601381527f726571756573744275696c6465722d76312e31000000000000000000000000006020820152905163349f642f60e11b8152733cd5334eb64ebbd4003b72022cc25465f1bfcee69163693ec85e916103ab9190600401610460565b602060405180830381865afa1580156103c8573d6000803e3d6000fd5b505050506040513d601f19601f820116820180604052508101906103ec91906104ae565b6001600160a01b031661010052506104de565b610425604080518082018252600080825282516020818101909452908152909182015290565b506040805180820182526001600160801b03199390931683528051602080820183526000909152815180820190925291151581529082015290565b600060208083528351808285015260005b8181101561048d57858101830151858201604001528201610471565b506000604082860101526040601f19601f8301168501019250505092915050565b6000602082840312156104c057600080fd5b81516001600160a01b03811681146104d757600080fd5b9392505050565b60805160a05160c05160e0516101005161012051610140516102736105366000396000818160c9015261019d015260008181610100015261017c015260005050600050506000505060005050600050506102736000f3fe608060405234801561001057600080fd5b50600436106100575760003560e01c8063469163011461005c57806379502c5514610094578063a183dc27146100c4578063c187bbc1146100fb578063c9512d991461013b575b600080fd5b610077733cd5334eb64ebbd4003b72022cc25465f1bfcee681565b6040516001600160a01b0390911681526020015b60405180910390f35b61009c610151565b6040805182516001600160801b0319168152602092830151511515928101929092520161008b565b6100eb7f000000000000000000000000000000000000000000000000000000000000000081565b604051901515815260200161008b565b6101227f000000000000000000000000000000000000000000000000000000000000000081565b6040516001600160801b0319909116815260200161008b565b610143600281565b60405190815260200161008b565b610177604080518082018252600080825282516020818101909452908152909182015290565b6101c17f00000000000000000000000000000000000000000000000000000000000000007f00000000000000000000000000000000000000000000000000000000000000006101c6565b905090565b6101ec604080518082018252600080825282516020818101909452908152909182015290565b6040518060400160405280846fffffffffffffffffffffffffffffffff1916815260200161023484604080516020808201835260009091528151908101909152901515815290565b9052939250505056fea2646970667358221220f07fd0528c3b34f7a896b969b42daf045a26e981b2f9da84f76716d4c226ca7164736f6c63430008110033","opcodes":"PUSH2 0x160 PUSH1 0x40 MSTORE PUSH1 0x0 DUP1 SLOAD PUSH1 0x1 PUSH1 0x1 PUSH1 0x88 SHL SUB NOT AND PUSH17 0x132403CED4B65F2079EDA77C84E7D2BE6 OR SWAP1 SSTORE CALLVALUE DUP1 ISZERO PUSH2 0x34 JUMPI PUSH1 0x0 DUP1 REVERT JUMPDEST POP PUSH1 0x0 SLOAD PUSH2 0x51 SWAP1 PUSH1 0x80 DUP2 SWAP1 SHL SWAP1 PUSH1 0x1 PUSH1 0x80 SHL SWAP1 DIV PUSH1 0xFF AND PUSH2 0x3FF JUMP JUMPDEST DUP1 MLOAD PUSH1 0x1 PUSH1 0x1 PUSH1 0x80 SHL SUB NOT AND PUSH2 0x120 MSTORE PUSH1 0x20 DUP1 DUP3 ADD MLOAD MLOAD ISZERO ISZERO PUSH2 0x140 MSTORE PUSH1 0x40 DUP1 MLOAD DUP1 DUP3 ADD DUP3 MSTORE PUSH1 0x19 DUP2 MSTORE PUSH32 0x7369736D6F436F6E6E65637456657269666965722D76312E3200000000000000 SWAP3 DUP2 ADD SWAP3 SWAP1 SWAP3 MSTORE MLOAD PUSH4 0x349F642F PUSH1 0xE1 SHL DUP2 MSTORE PUSH20 0x3CD5334EB64EBBD4003B72022CC25465F1BFCEE6 SWAP2 PUSH4 0x693EC85E SWAP2 PUSH2 0xD7 SWAP2 SWAP1 PUSH1 0x4 ADD PUSH2 0x460 JUMP JUMPDEST PUSH1 0x20 PUSH1 0x40 MLOAD DUP1 DUP4 SUB DUP2 DUP7 GAS STATICCALL ISZERO DUP1 ISZERO PUSH2 0xF4 JUMPI RETURNDATASIZE PUSH1 0x0 DUP1 RETURNDATACOPY RETURNDATASIZE PUSH1 0x0 REVERT JUMPDEST POP POP POP POP PUSH1 0x40 MLOAD RETURNDATASIZE PUSH1 0x1F NOT PUSH1 0x1F DUP3 ADD AND DUP3 ADD DUP1 PUSH1 0x40 MSTORE POP DUP2 ADD SWAP1 PUSH2 0x118 SWAP2 SWAP1 PUSH2 0x4AE JUMP JUMPDEST PUSH1 0x1 PUSH1 0x1 PUSH1 0xA0 SHL SUB AND PUSH1 0x80 MSTORE PUSH1 0x40 DUP1 MLOAD DUP1 DUP3 ADD DUP3 MSTORE PUSH1 0x17 DUP2 MSTORE PUSH32 0x61757468526571756573744275696C6465722D76312E31000000000000000000 PUSH1 0x20 DUP3 ADD MSTORE SWAP1 MLOAD PUSH4 0x349F642F PUSH1 0xE1 SHL DUP2 MSTORE PUSH20 0x3CD5334EB64EBBD4003B72022CC25465F1BFCEE6 SWAP2 PUSH4 0x693EC85E SWAP2 PUSH2 0x18C SWAP2 SWAP1 PUSH1 0x4 ADD PUSH2 0x460 JUMP JUMPDEST PUSH1 0x20 PUSH1 0x40 MLOAD DUP1 DUP4 SUB DUP2 DUP7 GAS STATICCALL ISZERO DUP1 ISZERO PUSH2 0x1A9 JUMPI RETURNDATASIZE PUSH1 0x0 DUP1 RETURNDATACOPY RETURNDATASIZE PUSH1 0x0 REVERT JUMPDEST POP POP POP POP PUSH1 0x40 MLOAD RETURNDATASIZE PUSH1 0x1F NOT PUSH1 0x1F DUP3 ADD AND DUP3 ADD DUP1 PUSH1 0x40 MSTORE POP DUP2 ADD SWAP1 PUSH2 0x1CD SWAP2 SWAP1 PUSH2 0x4AE JUMP JUMPDEST PUSH1 0x1 PUSH1 0x1 PUSH1 0xA0 SHL SUB AND PUSH1 0xA0 MSTORE PUSH1 0x40 DUP1 MLOAD DUP1 DUP3 ADD DUP3 MSTORE PUSH1 0x18 DUP2 MSTORE PUSH32 0x636C61696D526571756573744275696C6465722D76312E310000000000000000 PUSH1 0x20 DUP3 ADD MSTORE SWAP1 MLOAD PUSH4 0x349F642F PUSH1 0xE1 SHL DUP2 MSTORE PUSH20 0x3CD5334EB64EBBD4003B72022CC25465F1BFCEE6 SWAP2 PUSH4 0x693EC85E SWAP2 PUSH2 0x241 SWAP2 SWAP1 PUSH1 0x4 ADD PUSH2 0x460 JUMP JUMPDEST PUSH1 0x20 PUSH1 0x40 MLOAD DUP1 DUP4 SUB DUP2 DUP7 GAS STATICCALL ISZERO DUP1 ISZERO PUSH2 0x25E JUMPI RETURNDATASIZE PUSH1 0x0 DUP1 RETURNDATACOPY RETURNDATASIZE PUSH1 0x0 REVERT JUMPDEST POP POP POP POP PUSH1 0x40 MLOAD RETURNDATASIZE PUSH1 0x1F NOT PUSH1 0x1F DUP3 ADD AND DUP3 ADD DUP1 PUSH1 0x40 MSTORE POP DUP2 ADD SWAP1 PUSH2 0x282 SWAP2 SWAP1 PUSH2 0x4AE JUMP JUMPDEST PUSH1 0x1 PUSH1 0x1 PUSH1 0xA0 SHL SUB AND PUSH1 0xC0 MSTORE PUSH1 0x40 DUP1 MLOAD DUP1 DUP3 ADD DUP3 MSTORE PUSH1 0x15 DUP2 MSTORE PUSH32 0x7369676E61747572654275696C6465722D76312E310000000000000000000000 PUSH1 0x20 DUP3 ADD MSTORE SWAP1 MLOAD PUSH4 0x349F642F PUSH1 0xE1 SHL DUP2 MSTORE PUSH20 0x3CD5334EB64EBBD4003B72022CC25465F1BFCEE6 SWAP2 PUSH4 0x693EC85E SWAP2 PUSH2 0x2F6 SWAP2 SWAP1 PUSH1 0x4 ADD PUSH2 0x460 JUMP JUMPDEST PUSH1 0x20 PUSH1 0x40 MLOAD DUP1 DUP4 SUB DUP2 DUP7 GAS STATICCALL ISZERO DUP1 ISZERO PUSH2 0x313 JUMPI RETURNDATASIZE PUSH1 0x0 DUP1 RETURNDATACOPY RETURNDATASIZE PUSH1 0x0 REVERT JUMPDEST POP POP POP POP PUSH1 0x40 MLOAD RETURNDATASIZE PUSH1 0x1F NOT PUSH1 0x1F DUP3 ADD AND DUP3 ADD DUP1 PUSH1 0x40 MSTORE POP DUP2 ADD SWAP1 PUSH2 0x337 SWAP2 SWAP1 PUSH2 0x4AE JUMP JUMPDEST PUSH1 0x1 PUSH1 0x1 PUSH1 0xA0 SHL SUB AND PUSH1 0xE0 MSTORE PUSH1 0x40 DUP1 MLOAD DUP1 DUP3 ADD DUP3 MSTORE PUSH1 0x13 DUP2 MSTORE PUSH32 0x726571756573744275696C6465722D76312E3100000000000000000000000000 PUSH1 0x20 DUP3 ADD MSTORE SWAP1 MLOAD PUSH4 0x349F642F PUSH1 0xE1 SHL DUP2 MSTORE PUSH20 0x3CD5334EB64EBBD4003B72022CC25465F1BFCEE6 SWAP2 PUSH4 0x693EC85E SWAP2 PUSH2 0x3AB SWAP2 SWAP1 PUSH1 0x4 ADD PUSH2 0x460 JUMP JUMPDEST PUSH1 0x20 PUSH1 0x40 MLOAD DUP1 DUP4 SUB DUP2 DUP7 GAS STATICCALL ISZERO DUP1 ISZERO PUSH2 0x3C8 JUMPI RETURNDATASIZE PUSH1 0x0 DUP1 RETURNDATACOPY RETURNDATASIZE PUSH1 0x0 REVERT JUMPDEST POP POP POP POP PUSH1 0x40 MLOAD RETURNDATASIZE PUSH1 0x1F NOT PUSH1 0x1F DUP3 ADD AND DUP3 ADD DUP1 PUSH1 0x40 MSTORE POP DUP2 ADD SWAP1 PUSH2 0x3EC SWAP2 SWAP1 PUSH2 0x4AE JUMP JUMPDEST PUSH1 0x1 PUSH1 0x1 PUSH1 0xA0 SHL SUB AND PUSH2 0x100 MSTORE POP PUSH2 0x4DE JUMP JUMPDEST PUSH2 0x425 PUSH1 0x40 DUP1 MLOAD DUP1 DUP3 ADD DUP3 MSTORE PUSH1 0x0 DUP1 DUP3 MSTORE DUP3 MLOAD PUSH1 0x20 DUP2 DUP2 ADD SWAP1 SWAP5 MSTORE SWAP1 DUP2 MSTORE SWAP1 SWAP2 DUP3 ADD MSTORE SWAP1 JUMP JUMPDEST POP PUSH1 0x40 DUP1 MLOAD DUP1 DUP3 ADD DUP3 MSTORE PUSH1 0x1 PUSH1 0x1 PUSH1 0x80 SHL SUB NOT SWAP4 SWAP1 SWAP4 AND DUP4 MSTORE DUP1 MLOAD PUSH1 0x20 DUP1 DUP3 ADD DUP4 MSTORE PUSH1 0x0 SWAP1 SWAP2 MSTORE DUP2 MLOAD DUP1 DUP3 ADD SWAP1 SWAP3 MSTORE SWAP2 ISZERO ISZERO DUP2 MSTORE SWAP1 DUP3 ADD MSTORE SWAP1 JUMP JUMPDEST PUSH1 0x0 PUSH1 0x20 DUP1 DUP4 MSTORE DUP4 MLOAD DUP1 DUP3 DUP6 ADD MSTORE PUSH1 0x0 JUMPDEST DUP2 DUP2 LT ISZERO PUSH2 0x48D JUMPI DUP6 DUP2 ADD DUP4 ADD MLOAD DUP6 DUP3 ADD PUSH1 0x40 ADD MSTORE DUP3 ADD PUSH2 0x471 JUMP JUMPDEST POP PUSH1 0x0 PUSH1 0x40 DUP3 DUP7 ADD ADD MSTORE PUSH1 0x40 PUSH1 0x1F NOT PUSH1 0x1F DUP4 ADD AND DUP6 ADD ADD SWAP3 POP POP POP SWAP3 SWAP2 POP POP JUMP JUMPDEST PUSH1 0x0 PUSH1 0x20 DUP3 DUP5 SUB SLT ISZERO PUSH2 0x4C0 JUMPI PUSH1 0x0 DUP1 REVERT JUMPDEST DUP2 MLOAD PUSH1 0x1 PUSH1 0x1 PUSH1 0xA0 SHL SUB DUP2 AND DUP2 EQ PUSH2 0x4D7 JUMPI PUSH1 0x0 DUP1 REVERT JUMPDEST SWAP4 SWAP3 POP POP POP JUMP JUMPDEST PUSH1 0x80 MLOAD PUSH1 0xA0 MLOAD PUSH1 0xC0 MLOAD PUSH1 0xE0 MLOAD PUSH2 0x100 MLOAD PUSH2 0x120 MLOAD PUSH2 0x140 MLOAD PUSH2 0x273 PUSH2 0x536 PUSH1 0x0 CODECOPY PUSH1 0x0 DUP2 DUP2 PUSH1 0xC9 ADD MSTORE PUSH2 0x19D ADD MSTORE PUSH1 0x0 DUP2 DUP2 PUSH2 0x100 ADD MSTORE PUSH2 0x17C ADD MSTORE PUSH1 0x0 POP POP PUSH1 0x0 POP POP PUSH1 0x0 POP POP PUSH1 0x0 POP POP PUSH1 0x0 POP POP PUSH2 0x273 PUSH1 0x0 RETURN INVALID PUSH1 0x80 PUSH1 0x40 MSTORE CALLVALUE DUP1 ISZERO PUSH2 0x10 JUMPI PUSH1 0x0 DUP1 REVERT JUMPDEST POP PUSH1 0x4 CALLDATASIZE LT PUSH2 0x57 JUMPI PUSH1 0x0 CALLDATALOAD PUSH1 0xE0 SHR DUP1 PUSH4 0x46916301 EQ PUSH2 0x5C JUMPI DUP1 PUSH4 0x79502C55 EQ PUSH2 0x94 JUMPI DUP1 PUSH4 0xA183DC27 EQ PUSH2 0xC4 JUMPI DUP1 PUSH4 0xC187BBC1 EQ PUSH2 0xFB JUMPI DUP1 PUSH4 0xC9512D99 EQ PUSH2 0x13B JUMPI JUMPDEST PUSH1 0x0 DUP1 REVERT JUMPDEST PUSH2 0x77 PUSH20 0x3CD5334EB64EBBD4003B72022CC25465F1BFCEE6 DUP2 JUMP JUMPDEST PUSH1 0x40 MLOAD PUSH1 0x1 PUSH1 0x1 PUSH1 0xA0 SHL SUB SWAP1 SWAP2 AND DUP2 MSTORE PUSH1 0x20 ADD JUMPDEST PUSH1 0x40 MLOAD DUP1 SWAP2 SUB SWAP1 RETURN JUMPDEST PUSH2 0x9C PUSH2 0x151 JUMP JUMPDEST PUSH1 0x40 DUP1 MLOAD DUP3 MLOAD PUSH1 0x1 PUSH1 0x1 PUSH1 0x80 SHL SUB NOT AND DUP2 MSTORE PUSH1 0x20 SWAP3 DUP4 ADD MLOAD MLOAD ISZERO ISZERO SWAP3 DUP2 ADD SWAP3 SWAP1 SWAP3 MSTORE ADD PUSH2 0x8B JUMP JUMPDEST PUSH2 0xEB PUSH32 0x0 DUP2 JUMP JUMPDEST PUSH1 0x40 MLOAD SWAP1 ISZERO ISZERO DUP2 MSTORE PUSH1 0x20 ADD PUSH2 0x8B JUMP JUMPDEST PUSH2 0x122 PUSH32 0x0 DUP2 JUMP JUMPDEST PUSH1 0x40 MLOAD PUSH1 0x1 PUSH1 0x1 PUSH1 0x80 SHL SUB NOT SWAP1 SWAP2 AND DUP2 MSTORE PUSH1 0x20 ADD PUSH2 0x8B JUMP JUMPDEST PUSH2 0x143 PUSH1 0x2 DUP2 JUMP JUMPDEST PUSH1 0x40 MLOAD SWAP1 DUP2 MSTORE PUSH1 0x20 ADD PUSH2 0x8B JUMP JUMPDEST PUSH2 0x177 PUSH1 0x40 DUP1 MLOAD DUP1 DUP3 ADD DUP3 MSTORE PUSH1 0x0 DUP1 DUP3 MSTORE DUP3 MLOAD PUSH1 0x20 DUP2 DUP2 ADD SWAP1 SWAP5 MSTORE SWAP1 DUP2 MSTORE SWAP1 SWAP2 DUP3 ADD MSTORE SWAP1 JUMP JUMPDEST PUSH2 0x1C1 PUSH32 0x0 PUSH32 0x0 PUSH2 0x1C6 JUMP JUMPDEST SWAP1 POP SWAP1 JUMP JUMPDEST PUSH2 0x1EC PUSH1 0x40 DUP1 MLOAD DUP1 DUP3 ADD DUP3 MSTORE PUSH1 0x0 DUP1 DUP3 MSTORE DUP3 MLOAD PUSH1 0x20 DUP2 DUP2 ADD SWAP1 SWAP5 MSTORE SWAP1 DUP2 MSTORE SWAP1 SWAP2 DUP3 ADD MSTORE SWAP1 JUMP JUMPDEST PUSH1 0x40 MLOAD DUP1 PUSH1 0x40 ADD PUSH1 0x40 MSTORE DUP1 DUP5 PUSH16 0xFFFFFFFFFFFFFFFFFFFFFFFFFFFFFFFF NOT AND DUP2 MSTORE PUSH1 0x20 ADD PUSH2 0x234 DUP5 PUSH1 0x40 DUP1 MLOAD PUSH1 0x20 DUP1 DUP3 ADD DUP4 MSTORE PUSH1 0x0 SWAP1 SWAP2 MSTORE DUP2 MLOAD SWAP1 DUP2 ADD SWAP1 SWAP2 MSTORE SWAP1 ISZERO ISZERO DUP2 MSTORE SWAP1 JUMP JUMPDEST SWAP1 MSTORE SWAP4 SWAP3 POP POP POP JUMP INVALID LOG2 PUSH5 0x6970667358 0x22 SLT KECCAK256 CREATE PUSH32 0xD0528C3B34F7A896B969B42DAF045A26E981B2F9DA84F76716D4C226CA716473 PUSH16 0x6C634300081100330000000000000000 "},"methodIdentifiers":{"ADDRESSES_PROVIDER_V2()":"46916301","APP_ID()":"c187bbc1","IS_IMPERSONATION_MODE()":"a183dc27","SISMO_CONNECT_LIB_VERSION()":"c9512d99","config()":"79502c55"}}}}}