{"@sismo-core/sismo-connect-solidity/contracts/libs/utils/RequestBuilder.sol":{"RequestBuilder":{"abi":[{"inputs":[],"name":"DEFAULT_NAMESPACE","outputs":[{"internalType":"bytes16","name":"","type":"bytes16"}],"stateMutability":"view","type":"function"},{"inputs":[{"components":[{"internalType":"enum ClaimType","name":"claimType","type":"uint8"},{"internalType":"bytes16","name":"groupId","type":"bytes16"},{"internalType":"bytes16","name":"groupTimestamp","type":"bytes16"},{"internalType":"uint256","name":"value","type":"uint256"},{"internalType":"bool","name":"isOptional","type":"bool"},{"internalType":"bool","name":"isSelectableByUser","type":"bool"},{"internalType":"bytes","name":"extraData","type":"bytes"}],"internalType":"struct ClaimRequest","name":"claim","type":"tuple"},{"internalType":"bytes16","name":"namespace","type":"bytes16"}],"name":"build","outputs":[{"components":[{"internalType":"bytes16","name":"namespace","type":"bytes16"},{"components":[{"internalType":"enum AuthType","name":"authType","type":"uint8"},{"internalType":"uint256","name":"userId","type":"uint256"},{"internalType":"bool","name":"isAnon","type":"bool"},{"internalType":"bool","name":"isOptional","type":"bool"},{"internalType":"bool","name":"isSelectableByUser","type":"bool"},{"internalType":"bytes","name":"extraData","type":"bytes"}],"internalType":"struct AuthRequest[]","name":"auths","type":"tuple[]"},{"components":[{"internalType":"enum ClaimType","name":"claimType","type":"uint8"},{"internalType":"bytes16","name":"groupId","type":"bytes16"},{"internalType":"bytes16","name":"groupTimestamp","type":"bytes16"},{"internalType":"uint256","name":"value","type":"uint256"},{"internalType":"bool","name":"isOptional","type":"bool"},{"internalType":"bool","name":"isSelectableByUser","type":"bool"},{"internalType":"bytes","name":"extraData","type":"bytes"}],"internalType":"struct ClaimRequest[]","name":"claims","type":"tuple[]"},{"components":[{"internalType":"bytes","name":"message","type":"bytes"},{"internalType":"bool","name":"isSelectableByUser","type":"bool"},{"internalType":"bytes","name":"extraData","type":"bytes"}],"internalType":"struct SignatureRequest","name":"signature","type":"tuple"}],"internalType":"struct SismoConnectRequest","name":"","type":"tuple"}],"stateMutability":"view","type":"function"},{"inputs":[{"components":[{"internalType":"enum ClaimType","name":"claimType","type":"uint8"},{"internalType":"bytes16","name":"groupId","type":"bytes16"},{"internalType":"bytes16","name":"groupTimestamp","type":"bytes16"},{"internalType":"uint256","name":"value","type":"uint256"},{"internalType":"bool","name":"isOptional","type":"bool"},{"internalType":"bool","name":"isSelectableByUser","type":"bool"},{"internalType":"bytes","name":"extraData","type":"bytes"}],"internalType":"struct ClaimRequest","name":"claim","type":"tuple"}],"name":"build","outputs":[{"components":[{"internalType":"bytes16","name":"namespace","type":"bytes16"},{"components":[{"internalType":"enum AuthType","name":"authType","type":"uint8"},{"internalType":"uint256","name":"userId","type":"uint256"},{"internalType":"bool","name":"isAnon","type":"bool"},{"internalType":"bool","name":"isOptional","type":"bool"},{"internalType":"bool","name":"isSelectableByUser","type":"bool"},{"internalType":"bytes","name":"extraData","type":"bytes"}],"internalType":"struct AuthRequest[]","name":"auths","type":"tuple[]"},{"components":[{"internalType":"enum ClaimType","name":"claimType","type":"uint8"},{"internalType":"bytes16","name":"groupId","type":"bytes16"},{"internalType":"bytes16","name":"groupTimestamp","type":"bytes16"},{"internalType":"uint256","name":"value","type":"uint256"},{"internalType":"bool","name":"isOptional","type":"bool"},{"internalType":"bool","name":"isSelectableByUser","type":"bool"},{"internalType":"bytes","name":"extraData","type":"bytes"}],"internalType":"struct ClaimRequest[]","name":"claims","type":"tuple[]"},{"components":[{"internalType":"bytes","name":"message","type":"bytes"},{"internalType":"bool","name":"isSelectableByUser","type":"bool"},{"internalType":"bytes","name":"extraData","type":"bytes"}],"internalType":"struct SignatureRequest","name":"signature","type":"tuple"}],"internalType":"struct SismoConnectRequest","name":"","type":"tuple"}],"stateMutability":"view","type":"function"},{"inputs":[{"components":[{"internalType":"enum AuthType","name":"authType","type":"uint8"},{"internalType":"uint256","name":"userId","type":"uint256"},{"internalType":"bool","name":"isAnon","type":"bool"},{"internalType":"bool","name":"isOptional","type":"bool"},{"internalType":"bool","name":"isSelectableByUser","type":"bool"},{"internalType":"bytes","name":"extraData","type":"bytes"}],"internalType":"struct AuthRequest","name":"auth","type":"tuple"},{"components":[{"internalType":"bytes","name":"message","type":"bytes"},{"internalType":"bool","name":"isSelectableByUser","type":"bool"},{"internalType":"bytes","name":"extraData","type":"bytes"}],"internalType":"struct SignatureRequest","name":"signature","type":"tuple"},{"internalType":"bytes16","name":"namespace","type":"bytes16"}],"name":"build","outputs":[{"components":[{"internalType":"bytes16","name":"namespace","type":"bytes16"},{"components":[{"internalType":"enum AuthType","name":"authType","type":"uint8"},{"internalType":"uint256","name":"userId","type":"uint256"},{"internalType":"bool","name":"isAnon","type":"bool"},{"internalType":"bool","name":"isOptional","type":"bool"},{"internalType":"bool","name":"isSelectableByUser","type":"bool"},{"internalType":"bytes","name":"extraData","type":"bytes"}],"internalType":"struct AuthRequest[]","name":"auths","type":"tuple[]"},{"components":[{"internalType":"enum ClaimType","name":"claimType","type":"uint8"},{"internalType":"bytes16","name":"groupId","type":"bytes16"},{"internalType":"bytes16","name":"groupTimestamp","type":"bytes16"},{"internalType":"uint256","name":"value","type":"uint256"},{"internalType":"bool","name":"isOptional","type":"bool"},{"internalType":"bool","name":"isSelectableByUser","type":"bool"},{"internalType":"bytes","name":"extraData","type":"bytes"}],"internalType":"struct ClaimRequest[]","name":"claims","type":"tuple[]"},{"components":[{"internalType":"bytes","name":"message","type":"bytes"},{"internalType":"bool","name":"isSelectableByUser","type":"bool"},{"internalType":"bytes","name":"extraData","type":"bytes"}],"internalType":"struct SignatureRequest","name":"signature","type":"tuple"}],"internalType":"struct SismoConnectRequest","name":"","type":"tuple"}],"stateMutability":"pure","type":"function"},{"inputs":[{"components":[{"internalType":"enum AuthType","name":"authType","type":"uint8"},{"internalType":"uint256","name":"userId","type":"uint256"},{"internalType":"bool","name":"isAnon","type":"bool"},{"internalType":"bool","name":"isOptional","type":"bool"},{"internalType":"bool","name":"isSelectableByUser","type":"bool"},{"internalType":"bytes","name":"extraData","type":"bytes"}],"internalType":"struct AuthRequest[]","name":"auths","type":"tuple[]"}],"name":"build","outputs":[{"components":[{"internalType":"bytes16","name":"namespace","type":"bytes16"},{"components":[{"internalType":"enum AuthType","name":"authType","type":"uint8"},{"internalType":"uint256","name":"userId","type":"uint256"},{"internalType":"bool","name":"isAnon","type":"bool"},{"internalType":"bool","name":"isOptional","type":"bool"},{"internalType":"bool","name":"isSelectableByUser","type":"bool"},{"internalType":"bytes","name":"extraData","type":"bytes"}],"internalType":"struct AuthRequest[]","name":"auths","type":"tuple[]"},{"components":[{"internalType":"enum ClaimType","name":"claimType","type":"uint8"},{"internalType":"bytes16","name":"groupId","type":"bytes16"},{"internalType":"bytes16","name":"groupTimestamp","type":"bytes16"},{"internalType":"uint256","name":"value","type":"uint256"},{"internalType":"bool","name":"isOptional","type":"bool"},{"internalType":"bool","name":"isSelectableByUser","type":"bool"},{"internalType":"bytes","name":"extraData","type":"bytes"}],"internalType":"struct ClaimRequest[]","name":"claims","type":"tuple[]"},{"components":[{"internalType":"bytes","name":"message","type":"bytes"},{"internalType":"bool","name":"isSelectableByUser","type":"bool"},{"internalType":"bytes","name":"extraData","type":"bytes"}],"internalType":"struct SignatureRequest","name":"signature","type":"tuple"}],"internalType":"struct SismoConnectRequest","name":"","type":"tuple"}],"stateMutability":"view","type":"function"},{"inputs":[{"components":[{"internalType":"enum ClaimType","name":"claimType","type":"uint8"},{"internalType":"bytes16","name":"groupId","type":"bytes16"},{"internalType":"bytes16","name":"groupTimestamp","type":"bytes16"},{"internalType":"uint256","name":"value","type":"uint256"},{"internalType":"bool","name":"isOptional","type":"bool"},{"internalType":"bool","name":"isSelectableByUser","type":"bool"},{"internalType":"bytes","name":"extraData","type":"bytes"}],"internalType":"struct ClaimRequest[]","name":"claims","type":"tuple[]"},{"components":[{"internalType":"bytes","name":"message","type":"bytes"},{"internalType":"bool","name":"isSelectableByUser","type":"bool"},{"internalType":"bytes","name":"extraData","type":"bytes"}],"internalType":"struct SignatureRequest","name":"signature","type":"tuple"},{"internalType":"bytes16","name":"namespace","type":"bytes16"}],"name":"build","outputs":[{"components":[{"internalType":"bytes16","name":"namespace","type":"bytes16"},{"components":[{"internalType":"enum AuthType","name":"authType","type":"uint8"},{"internalType":"uint256","name":"userId","type":"uint256"},{"internalType":"bool","name":"isAnon","type":"bool"},{"internalType":"bool","name":"isOptional","type":"bool"},{"internalType":"bool","name":"isSelectableByUser","type":"bool"},{"internalType":"bytes","name":"extraData","type":"bytes"}],"internalType":"struct AuthRequest[]","name":"auths","type":"tuple[]"},{"components":[{"internalType":"enum ClaimType","name":"claimType","type":"uint8"},{"internalType":"bytes16","name":"groupId","type":"bytes16"},{"internalType":"bytes16","name":"groupTimestamp","type":"bytes16"},{"internalType":"uint256","name":"value","type":"uint256"},{"internalType":"bool","name":"isOptional","type":"bool"},{"internalType":"bool","name":"isSelectableByUser","type":"bool"},{"internalType":"bytes","name":"extraData","type":"bytes"}],"internalType":"struct ClaimRequest[]","name":"claims","type":"tuple[]"},{"components":[{"internalType":"bytes","name":"message","type":"bytes"},{"internalType":"bool","name":"isSelectableByUser","type":"bool"},{"internalType":"bytes","name":"extraData","type":"bytes"}],"internalType":"struct SignatureRequest","name":"signature","type":"tuple"}],"internalType":"struct SismoConnectRequest","name":"","type":"tuple"}],"stateMutability":"pure","type":"function"},{"inputs":[{"components":[{"internalType":"enum AuthType","name":"authType","type":"uint8"},{"internalType":"uint256","name":"userId","type":"uint256"},{"internalType":"bool","name":"isAnon","type":"bool"},{"internalType":"bool","name":"isOptional","type":"bool"},{"internalType":"bool","name":"isSelectableByUser","type":"bool"},{"internalType":"bytes","name":"extraData","type":"bytes"}],"internalType":"struct AuthRequest[]","name":"auths","type":"tuple[]"},{"internalType":"bytes16","name":"namespace","type":"bytes16"}],"name":"build","outputs":[{"components":[{"internalType":"bytes16","name":"namespace","type":"bytes16"},{"components":[{"internalType":"enum AuthType","name":"authType","type":"uint8"},{"internalType":"uint256","name":"userId","type":"uint256"},{"internalType":"bool","name":"isAnon","type":"bool"},{"internalType":"bool","name":"isOptional","type":"bool"},{"internalType":"bool","name":"isSelectableByUser","type":"bool"},{"internalType":"bytes","name":"extraData","type":"bytes"}],"internalType":"struct AuthRequest[]","name":"auths","type":"tuple[]"},{"components":[{"internalType":"enum ClaimType","name":"claimType","type":"uint8"},{"internalType":"bytes16","name":"groupId","type":"bytes16"},{"internalType":"bytes16","name":"groupTimestamp","type":"bytes16"},{"internalType":"uint256","name":"value","type":"uint256"},{"internalType":"bool","name":"isOptional","type":"bool"},{"internalType":"bool","name":"isSelectableByUser","type":"bool"},{"internalType":"bytes","name":"extraData","type":"bytes"}],"internalType":"struct ClaimRequest[]","name":"claims","type":"tuple[]"},{"components":[{"internalType":"bytes","name":"message","type":"bytes"},{"internalType":"bool","name":"isSelectableByUser","type":"bool"},{"internalType":"bytes","name":"extraData","type":"bytes"}],"internalType":"struct SignatureRequest","name":"signature","type":"tuple"}],"internalType":"struct SismoConnectRequest","name":"","type":"tuple"}],"stateMutability":"view","type":"function"},{"inputs":[{"components":[{"internalType":"enum AuthType","name":"authType","type":"uint8"},{"internalType":"uint256","name":"userId","type":"uint256"},{"internalType":"bool","name":"isAnon","type":"bool"},{"internalType":"bool","name":"isOptional","type":"bool"},{"internalType":"bool","name":"isSelectableByUser","type":"bool"},{"internalType":"bytes","name":"extraData","type":"bytes"}],"internalType":"struct AuthRequest[]","name":"auths","type":"tuple[]"},{"components":[{"internalType":"bytes","name":"message","type":"bytes"},{"internalType":"bool","name":"isSelectableByUser","type":"bool"},{"internalType":"bytes","name":"extraData","type":"bytes"}],"internalType":"struct SignatureRequest","name":"signature","type":"tuple"}],"name":"build","outputs":[{"components":[{"internalType":"bytes16","name":"namespace","type":"bytes16"},{"components":[{"internalType":"enum AuthType","name":"authType","type":"uint8"},{"internalType":"uint256","name":"userId","type":"uint256"},{"internalType":"bool","name":"isAnon","type":"bool"},{"internalType":"bool","name":"isOptional","type":"bool"},{"internalType":"bool","name":"isSelectableByUser","type":"bool"},{"internalType":"bytes","name":"extraData","type":"bytes"}],"internalType":"struct AuthRequest[]","name":"auths","type":"tuple[]"},{"components":[{"internalType":"enum ClaimType","name":"claimType","type":"uint8"},{"internalType":"bytes16","name":"groupId","type":"bytes16"},{"internalType":"bytes16","name":"groupTimestamp","type":"bytes16"},{"internalType":"uint256","name":"value","type":"uint256"},{"internalType":"bool","name":"isOptional","type":"bool"},{"internalType":"bool","name":"isSelectableByUser","type":"bool"},{"internalType":"bytes","name":"extraData","type":"bytes"}],"internalType":"struct ClaimRequest[]","name":"claims","type":"tuple[]"},{"components":[{"internalType":"bytes","name":"message","type":"bytes"},{"internalType":"bool","name":"isSelectableByUser","type":"bool"},{"internalType":"bytes","name":"extraData","type":"bytes"}],"internalType":"struct SignatureRequest","name":"signature","type":"tuple"}],"internalType":"struct SismoConnectRequest","name":"","type":"tuple"}],"stateMutability":"pure","type":"function"},{"inputs":[{"components":[{"internalType":"enum AuthType","name":"authType","type":"uint8"},{"internalType":"uint256","name":"userId","type":"uint256"},{"internalType":"bool","name":"isAnon","type":"bool"},{"internalType":"bool","name":"isOptional","type":"bool"},{"internalType":"bool","name":"isSelectableByUser","type":"bool"},{"internalType":"bytes","name":"extraData","type":"bytes"}],"internalType":"struct AuthRequest","name":"auth","type":"tuple"},{"components":[{"internalType":"enum ClaimType","name":"claimType","type":"uint8"},{"internalType":"bytes16","name":"groupId","type":"bytes16"},{"internalType":"bytes16","name":"groupTimestamp","type":"bytes16"},{"internalType":"uint256","name":"value","type":"uint256"},{"internalType":"bool","name":"isOptional","type":"bool"},{"internalType":"bool","name":"isSelectableByUser","type":"bool"},{"internalType":"bytes","name":"extraData","type":"bytes"}],"internalType":"struct ClaimRequest","name":"claim","type":"tuple"},{"internalType":"bytes16","name":"namespace","type":"bytes16"}],"name":"build","outputs":[{"components":[{"internalType":"bytes16","name":"namespace","type":"bytes16"},{"components":[{"internalType":"enum AuthType","name":"authType","type":"uint8"},{"internalType":"uint256","name":"userId","type":"uint256"},{"internalType":"bool","name":"isAnon","type":"bool"},{"internalType":"bool","name":"isOptional","type":"bool"},{"internalType":"bool","name":"isSelectableByUser","type":"bool"},{"internalType":"bytes","name":"extraData","type":"bytes"}],"internalType":"struct AuthRequest[]","name":"auths","type":"tuple[]"},{"components":[{"internalType":"enum ClaimType","name":"claimType","type":"uint8"},{"internalType":"bytes16","name":"groupId","type":"bytes16"},{"internalType":"bytes16","name":"groupTimestamp","type":"bytes16"},{"internalType":"uint256","name":"value","type":"uint256"},{"internalType":"bool","name":"isOptional","type":"bool"},{"internalType":"bool","name":"isSelectableByUser","type":"bool"},{"internalType":"bytes","name":"extraData","type":"bytes"}],"internalType":"struct ClaimRequest[]","name":"claims","type":"tuple[]"},{"components":[{"internalType":"bytes","name":"message","type":"bytes"},{"internalType":"bool","name":"isSelectableByUser","type":"bool"},{"internalType":"bytes","name":"extraData","type":"bytes"}],"internalType":"struct SignatureRequest","name":"signature","type":"tuple"}],"internalType":"struct SismoConnectRequest","name":"","type":"tuple"}],"stateMutability":"view","type":"function"},{"inputs":[{"components":[{"internalType":"enum AuthType","name":"authType","type":"uint8"},{"internalType":"uint256","name":"userId","type":"uint256"},{"internalType":"bool","name":"isAnon","type":"bool"},{"internalType":"bool","name":"isOptional","type":"bool"},{"internalType":"bool","name":"isSelectableByUser","type":"bool"},{"internalType":"bytes","name":"extraData","type":"bytes"}],"internalType":"struct AuthRequest","name":"auth","type":"tuple"},{"components":[{"internalType":"bytes","name":"message","type":"bytes"},{"internalType":"bool","name":"isSelectableByUser","type":"bool"},{"internalType":"bytes","name":"extraData","type":"bytes"}],"internalType":"struct SignatureRequest","name":"signature","type":"tuple"}],"name":"build","outputs":[{"components":[{"internalType":"bytes16","name":"namespace","type":"bytes16"},{"components":[{"internalType":"enum AuthType","name":"authType","type":"uint8"},{"internalType":"uint256","name":"userId","type":"uint256"},{"internalType":"bool","name":"isAnon","type":"bool"},{"internalType":"bool","name":"isOptional","type":"bool"},{"internalType":"bool","name":"isSelectableByUser","type":"bool"},{"internalType":"bytes","name":"extraData","type":"bytes"}],"internalType":"struct AuthRequest[]","name":"auths","type":"tuple[]"},{"components":[{"internalType":"enum ClaimType","name":"claimType","type":"uint8"},{"internalType":"bytes16","name":"groupId","type":"bytes16"},{"internalType":"bytes16","name":"groupTimestamp","type":"bytes16"},{"internalType":"uint256","name":"value","type":"uint256"},{"internalType":"bool","name":"isOptional","type":"bool"},{"internalType":"bool","name":"isSelectableByUser","type":"bool"},{"internalType":"bytes","name":"extraData","type":"bytes"}],"internalType":"struct ClaimRequest[]","name":"claims","type":"tuple[]"},{"components":[{"internalType":"bytes","name":"message","type":"bytes"},{"internalType":"bool","name":"isSelectableByUser","type":"bool"},{"internalType":"bytes","name":"extraData","type":"bytes"}],"internalType":"struct SignatureRequest","name":"signature","type":"tuple"}],"internalType":"struct SismoConnectRequest","name":"","type":"tuple"}],"stateMutability":"pure","type":"function"},{"inputs":[{"components":[{"internalType":"enum ClaimType","name":"claimType","type":"uint8"},{"internalType":"bytes16","name":"groupId","type":"bytes16"},{"internalType":"bytes16","name":"groupTimestamp","type":"bytes16"},{"internalType":"uint256","name":"value","type":"uint256"},{"internalType":"bool","name":"isOptional","type":"bool"},{"internalType":"bool","name":"isSelectableByUser","type":"bool"},{"internalType":"bytes","name":"extraData","type":"bytes"}],"internalType":"struct ClaimRequest","name":"claim","type":"tuple"},{"components":[{"internalType":"bytes","name":"message","type":"bytes"},{"internalType":"bool","name":"isSelectableByUser","type":"bool"},{"internalType":"bytes","name":"extraData","type":"bytes"}],"internalType":"struct SignatureRequest","name":"signature","type":"tuple"},{"internalType":"bytes16","name":"namespace","type":"bytes16"}],"name":"build","outputs":[{"components":[{"internalType":"bytes16","name":"namespace","type":"bytes16"},{"components":[{"internalType":"enum AuthType","name":"authType","type":"uint8"},{"internalType":"uint256","name":"userId","type":"uint256"},{"internalType":"bool","name":"isAnon","type":"bool"},{"internalType":"bool","name":"isOptional","type":"bool"},{"internalType":"bool","name":"isSelectableByUser","type":"bool"},{"internalType":"bytes","name":"extraData","type":"bytes"}],"internalType":"struct AuthRequest[]","name":"auths","type":"tuple[]"},{"components":[{"internalType":"enum ClaimType","name":"claimType","type":"uint8"},{"internalType":"bytes16","name":"groupId","type":"bytes16"},{"internalType":"bytes16","name":"groupTimestamp","type":"bytes16"},{"internalType":"uint256","name":"value","type":"uint256"},{"internalType":"bool","name":"isOptional","type":"bool"},{"internalType":"bool","name":"isSelectableByUser","type":"bool"},{"internalType":"bytes","name":"extraData","type":"bytes"}],"internalType":"struct ClaimRequest[]","name":"claims","type":"tuple[]"},{"components":[{"internalType":"bytes","name":"message","type":"bytes"},{"internalType":"bool","name":"isSelectableByUser","type":"bool"},{"internalType":"bytes","name":"extraData","type":"bytes"}],"internalType":"struct SignatureRequest","name":"signature","type":"tuple"}],"internalType":"struct SismoConnectRequest","name":"","type":"tuple"}],"stateMutability":"pure","type":"function"},{"inputs":[{"components":[{"internalType":"enum AuthType","name":"authType","type":"uint8"},{"internalType":"uint256","name":"userId","type":"uint256"},{"internalType":"bool","name":"isAnon","type":"bool"},{"internalType":"bool","name":"isOptional","type":"bool"},{"internalType":"bool","name":"isSelectableByUser","type":"bool"},{"internalType":"bytes","name":"extraData","type":"bytes"}],"internalType":"struct AuthRequest","name":"auth","type":"tuple"},{"internalType":"bytes16","name":"namespace","type":"bytes16"}],"name":"build","outputs":[{"components":[{"internalType":"bytes16","name":"namespace","type":"bytes16"},{"components":[{"internalType":"enum AuthType","name":"authType","type":"uint8"},{"internalType":"uint256","name":"userId","type":"uint256"},{"internalType":"bool","name":"isAnon","type":"bool"},{"internalType":"bool","name":"isOptional","type":"bool"},{"internalType":"bool","name":"isSelectableByUser","type":"bool"},{"internalType":"bytes","name":"extraData","type":"bytes"}],"internalType":"struct AuthRequest[]","name":"auths","type":"tuple[]"},{"components":[{"internalType":"enum ClaimType","name":"claimType","type":"uint8"},{"internalType":"bytes16","name":"groupId","type":"bytes16"},{"internalType":"bytes16","name":"groupTimestamp","type":"bytes16"},{"internalType":"uint256","name":"value","type":"uint256"},{"internalType":"bool","name":"isOptional","type":"bool"},{"internalType":"bool","name":"isSelectableByUser","type":"bool"},{"internalType":"bytes","name":"extraData","type":"bytes"}],"internalType":"struct ClaimRequest[]","name":"claims","type":"tuple[]"},{"components":[{"internalType":"bytes","name":"message","type":"bytes"},{"internalType":"bool","name":"isSelectableByUser","type":"bool"},{"internalType":"bytes","name":"extraData","type":"bytes"}],"internalType":"struct SignatureRequest","name":"signature","type":"tuple"}],"internalType":"struct SismoConnectRequest","name":"","type":"tuple"}],"stateMutability":"view","type":"function"},{"inputs":[{"components":[{"internalType":"enum AuthType","name":"authType","type":"uint8"},{"internalType":"uint256","name":"userId","type":"uint256"},{"internalType":"bool","name":"isAnon","type":"bool"},{"internalType":"bool","name":"isOptional","type":"bool"},{"internalType":"bool","name":"isSelectableByUser","type":"bool"},{"internalType":"bytes","name":"extraData","type":"bytes"}],"internalType":"struct AuthRequest[]","name":"auths","type":"tuple[]"},{"components":[{"internalType":"enum ClaimType","name":"claimType","type":"uint8"},{"internalType":"bytes16","name":"groupId","type":"bytes16"},{"internalType":"bytes16","name":"groupTimestamp","type":"bytes16"},{"internalType":"uint256","name":"value","type":"uint256"},{"internalType":"bool","name":"isOptional","type":"bool"},{"internalType":"bool","name":"isSelectableByUser","type":"bool"},{"internalType":"bytes","name":"extraData","type":"bytes"}],"internalType":"struct ClaimRequest[]","name":"claims","type":"tuple[]"},{"internalType":"bytes16","name":"namespace","type":"bytes16"}],"name":"build","outputs":[{"components":[{"internalType":"bytes16","name":"namespace","type":"bytes16"},{"components":[{"internalType":"enum AuthType","name":"authType","type":"uint8"},{"internalType":"uint256","name":"userId","type":"uint256"},{"internalType":"bool","name":"isAnon","type":"bool"},{"internalType":"bool","name":"isOptional","type":"bool"},{"internalType":"bool","name":"isSelectableByUser","type":"bool"},{"internalType":"bytes","name":"extraData","type":"bytes"}],"internalType":"struct AuthRequest[]","name":"auths","type":"tuple[]"},{"components":[{"internalType":"enum ClaimType","name":"claimType","type":"uint8"},{"internalType":"bytes16","name":"groupId","type":"bytes16"},{"internalType":"bytes16","name":"groupTimestamp","type":"bytes16"},{"internalType":"uint256","name":"value","type":"uint256"},{"internalType":"bool","name":"isOptional","type":"bool"},{"internalType":"bool","name":"isSelectableByUser","type":"bool"},{"internalType":"bytes","name":"extraData","type":"bytes"}],"internalType":"struct ClaimRequest[]","name":"claims","type":"tuple[]"},{"components":[{"internalType":"bytes","name":"message","type":"bytes"},{"internalType":"bool","name":"isSelectableByUser","type":"bool"},{"internalType":"bytes","name":"extraData","type":"bytes"}],"internalType":"struct SignatureRequest","name":"signature","type":"tuple"}],"internalType":"struct SismoConnectRequest","name":"","type":"tuple"}],"stateMutability":"view","type":"function"},{"inputs":[{"components":[{"internalType":"enum AuthType","name":"authType","type":"uint8"},{"internalType":"uint256","name":"userId","type":"uint256"},{"internalType":"bool","name":"isAnon","type":"bool"},{"internalType":"bool","name":"isOptional","type":"bool"},{"internalType":"bool","name":"isSelectableByUser","type":"bool"},{"internalType":"bytes","name":"extraData","type":"bytes"}],"internalType":"struct AuthRequest[]","name":"auths","type":"tuple[]"},{"components":[{"internalType":"enum ClaimType","name":"claimType","type":"uint8"},{"internalType":"bytes16","name":"groupId","type":"bytes16"},{"internalType":"bytes16","name":"groupTimestamp","type":"bytes16"},{"internalType":"uint256","name":"value","type":"uint256"},{"internalType":"bool","name":"isOptional","type":"bool"},{"internalType":"bool","name":"isSelectableByUser","type":"bool"},{"internalType":"bytes","name":"extraData","type":"bytes"}],"internalType":"struct ClaimRequest[]","name":"claims","type":"tuple[]"},{"components":[{"internalType":"bytes","name":"message","type":"bytes"},{"internalType":"bool","name":"isSelectableByUser","type":"bool"},{"internalType":"bytes","name":"extraData","type":"bytes"}],"internalType":"struct SignatureRequest","name":"signature","type":"tuple"}],"name":"build","outputs":[{"components":[{"internalType":"bytes16","name":"namespace","type":"bytes16"},{"components":[{"internalType":"enum AuthType","name":"authType","type":"uint8"},{"internalType":"uint256","name":"userId","type":"uint256"},{"internalType":"bool","name":"isAnon","type":"bool"},{"internalType":"bool","name":"isOptional","type":"bool"},{"internalType":"bool","name":"isSelectableByUser","type":"bool"},{"internalType":"bytes","name":"extraData","type":"bytes"}],"internalType":"struct AuthRequest[]","name":"auths","type":"tuple[]"},{"components":[{"internalType":"enum ClaimType","name":"claimType","type":"uint8"},{"internalType":"bytes16","name":"groupId","type":"bytes16"},{"internalType":"bytes16","name":"groupTimestamp","type":"bytes16"},{"internalType":"uint256","name":"value","type":"uint256"},{"internalType":"bool","name":"isOptional","type":"bool"},{"internalType":"bool","name":"isSelectableByUser","type":"bool"},{"internalType":"bytes","name":"extraData","type":"bytes"}],"internalType":"struct ClaimRequest[]","name":"claims","type":"tuple[]"},{"components":[{"internalType":"bytes","name":"message","type":"bytes"},{"internalType":"bool","name":"isSelectableByUser","type":"bool"},{"internalType":"bytes","name":"extraData","type":"bytes"}],"internalType":"struct SignatureRequest","name":"signature","type":"tuple"}],"internalType":"struct SismoConnectRequest","name":"","type":"tuple"}],"stateMutability":"pure","type":"function"},{"inputs":[{"components":[{"internalType":"enum AuthType","name":"authType","type":"uint8"},{"internalType":"uint256","name":"userId","type":"uint256"},{"internalType":"bool","name":"isAnon","type":"bool"},{"internalType":"bool","name":"isOptional","type":"bool"},{"internalType":"bool","name":"isSelectableByUser","type":"bool"},{"internalType":"bytes","name":"extraData","type":"bytes"}],"internalType":"struct AuthRequest[]","name":"auths","type":"tuple[]"},{"components":[{"internalType":"enum ClaimType","name":"claimType","type":"uint8"},{"internalType":"bytes16","name":"groupId","type":"bytes16"},{"internalType":"bytes16","name":"groupTimestamp","type":"bytes16"},{"internalType":"uint256","name":"value","type":"uint256"},{"internalType":"bool","name":"isOptional","type":"bool"},{"internalType":"bool","name":"isSelectableByUser","type":"bool"},{"internalType":"bytes","name":"extraData","type":"bytes"}],"internalType":"struct ClaimRequest[]","name":"claims","type":"tuple[]"}],"name":"build","outputs":[{"components":[{"internalType":"bytes16","name":"namespace","type":"bytes16"},{"components":[{"internalType":"enum AuthType","name":"authType","type":"uint8"},{"internalType":"uint256","name":"userId","type":"uint256"},{"internalType":"bool","name":"isAnon","type":"bool"},{"internalType":"bool","name":"isOptional","type":"bool"},{"internalType":"bool","name":"isSelectableByUser","type":"bool"},{"internalType":"bytes","name":"extraData","type":"bytes"}],"internalType":"struct AuthRequest[]","name":"auths","type":"tuple[]"},{"components":[{"internalType":"enum ClaimType","name":"claimType","type":"uint8"},{"internalType":"bytes16","name":"groupId","type":"bytes16"},{"internalType":"bytes16","name":"groupTimestamp","type":"bytes16"},{"internalType":"uint256","name":"value","type":"uint256"},{"internalType":"bool","name":"isOptional","type":"bool"},{"internalType":"bool","name":"isSelectableByUser","type":"bool"},{"internalType":"bytes","name":"extraData","type":"bytes"}],"internalType":"struct ClaimRequest[]","name":"claims","type":"tuple[]"},{"components":[{"internalType":"bytes","name":"message","type":"bytes"},{"internalType":"bool","name":"isSelectableByUser","type":"bool"},{"internalType":"bytes","name":"extraData","type":"bytes"}],"internalType":"struct SignatureRequest","name":"signature","type":"tuple"}],"internalType":"struct SismoConnectRequest","name":"","type":"tuple"}],"stateMutability":"view","type":"function"},{"inputs":[{"components":[{"internalType":"enum ClaimType","name":"claimType","type":"uint8"},{"internalType":"bytes16","name":"groupId","type":"bytes16"},{"internalType":"bytes16","name":"groupTimestamp","type":"bytes16"},{"internalType":"uint256","name":"value","type":"uint256"},{"internalType":"bool","name":"isOptional","type":"bool"},{"internalType":"bool","name":"isSelectableByUser","type":"bool"},{"internalType":"bytes","name":"extraData","type":"bytes"}],"internalType":"struct ClaimRequest[]","name":"claims","type":"tuple[]"}],"name":"build","outputs":[{"components":[{"internalType":"bytes16","name":"namespace","type":"bytes16"},{"components":[{"internalType":"enum AuthType","name":"authType","type":"uint8"},{"internalType":"uint256","name":"userId","type":"uint256"},{"internalType":"bool","name":"isAnon","type":"bool"},{"internalType":"bool","name":"isOptional","type":"bool"},{"internalType":"bool","name":"isSelectableByUser","type":"bool"},{"internalType":"bytes","name":"extraData","type":"bytes"}],"internalType":"struct AuthRequest[]","name":"auths","type":"tuple[]"},{"components":[{"internalType":"enum ClaimType","name":"claimType","type":"uint8"},{"internalType":"bytes16","name":"groupId","type":"bytes16"},{"internalType":"bytes16","name":"groupTimestamp","type":"bytes16"},{"internalType":"uint256","name":"value","type":"uint256"},{"internalType":"bool","name":"isOptional","type":"bool"},{"internalType":"bool","name":"isSelectableByUser","type":"bool"},{"internalType":"bytes","name":"extraData","type":"bytes"}],"internalType":"struct ClaimRequest[]","name":"claims","type":"tuple[]"},{"components":[{"internalType":"bytes","name":"message","type":"bytes"},{"internalType":"bool","name":"isSelectableByUser","type":"bool"},{"internalType":"bytes","name":"extraData","type":"bytes"}],"internalType":"struct SignatureRequest","name":"signature","type":"tuple"}],"internalType":"struct SismoConnectRequest","name":"","type":"tuple"}],"stateMutability":"view","type":"function"},{"inputs":[{"components":[{"internalType":"enum ClaimType","name":"claimType","type":"uint8"},{"internalType":"bytes16","name":"groupId","type":"bytes16"},{"internalType":"bytes16","name":"groupTimestamp","type":"bytes16"},{"internalType":"uint256","name":"value","type":"uint256"},{"internalType":"bool","name":"isOptional","type":"bool"},{"internalType":"bool","name":"isSelectableByUser","type":"bool"},{"internalType":"bytes","name":"extraData","type":"bytes"}],"internalType":"struct ClaimRequest[]","name":"claims","type":"tuple[]"},{"components":[{"internalType":"bytes","name":"message","type":"bytes"},{"internalType":"bool","name":"isSelectableByUser","type":"bool"},{"internalType":"bytes","name":"extraData","type":"bytes"}],"internalType":"struct SignatureRequest","name":"signature","type":"tuple"}],"name":"build","outputs":[{"components":[{"internalType":"bytes16","name":"namespace","type":"bytes16"},{"components":[{"internalType":"enum AuthType","name":"authType","type":"uint8"},{"internalType":"uint256","name":"userId","type":"uint256"},{"internalType":"bool","name":"isAnon","type":"bool"},{"internalType":"bool","name":"isOptional","type":"bool"},{"internalType":"bool","name":"isSelectableByUser","type":"bool"},{"internalType":"bytes","name":"extraData","type":"bytes"}],"internalType":"struct AuthRequest[]","name":"auths","type":"tuple[]"},{"components":[{"internalType":"enum ClaimType","name":"claimType","type":"uint8"},{"internalType":"bytes16","name":"groupId","type":"bytes16"},{"internalType":"bytes16","name":"groupTimestamp","type":"bytes16"},{"internalType":"uint256","name":"value","type":"uint256"},{"internalType":"bool","name":"isOptional","type":"bool"},{"internalType":"bool","name":"isSelectableByUser","type":"bool"},{"internalType":"bytes","name":"extraData","type":"bytes"}],"internalType":"struct ClaimRequest[]","name":"claims","type":"tuple[]"},{"components":[{"internalType":"bytes","name":"message","type":"bytes"},{"internalType":"bool","name":"isSelectableByUser","type":"bool"},{"internalType":"bytes","name":"extraData","type":"bytes"}],"internalType":"struct SignatureRequest","name":"signature","type":"tuple"}],"internalType":"struct SismoConnectRequest","name":"","type":"tuple"}],"stateMutability":"pure","type":"function"},{"inputs":[{"components":[{"internalType":"enum ClaimType","name":"claimType","type":"uint8"},{"internalType":"bytes16","name":"groupId","type":"bytes16"},{"internalType":"bytes16","name":"groupTimestamp","type":"bytes16"},{"internalType":"uint256","name":"value","type":"uint256"},{"internalType":"bool","name":"isOptional","type":"bool"},{"internalType":"bool","name":"isSelectableByUser","type":"bool"},{"internalType":"bytes","name":"extraData","type":"bytes"}],"internalType":"struct ClaimRequest","name":"claim","type":"tuple"},{"components":[{"internalType":"bytes","name":"message","type":"bytes"},{"internalType":"bool","name":"isSelectableByUser","type":"bool"},{"internalType":"bytes","name":"extraData","type":"bytes"}],"internalType":"struct SignatureRequest","name":"signature","type":"tuple"}],"name":"build","outputs":[{"components":[{"internalType":"bytes16","name":"namespace","type":"bytes16"},{"components":[{"internalType":"enum AuthType","name":"authType","type":"uint8"},{"internalType":"uint256","name":"userId","type":"uint256"},{"internalType":"bool","name":"isAnon","type":"bool"},{"internalType":"bool","name":"isOptional","type":"bool"},{"internalType":"bool","name":"isSelectableByUser","type":"bool"},{"internalType":"bytes","name":"extraData","type":"bytes"}],"internalType":"struct AuthRequest[]","name":"auths","type":"tuple[]"},{"components":[{"internalType":"enum ClaimType","name":"claimType","type":"uint8"},{"internalType":"bytes16","name":"groupId","type":"bytes16"},{"internalType":"bytes16","name":"groupTimestamp","type":"bytes16"},{"internalType":"uint256","name":"value","type":"uint256"},{"internalType":"bool","name":"isOptional","type":"bool"},{"internalType":"bool","name":"isSelectableByUser","type":"bool"},{"internalType":"bytes","name":"extraData","type":"bytes"}],"internalType":"struct ClaimRequest[]","name":"claims","type":"tuple[]"},{"components":[{"internalType":"bytes","name":"message","type":"bytes"},{"internalType":"bool","name":"isSelectableByUser","type":"bool"},{"internalType":"bytes","name":"extraData","type":"bytes"}],"internalType":"struct SignatureRequest","name":"signature","type":"tuple"}],"internalType":"struct SismoConnectRequest","name":"","type":"tuple"}],"stateMutability":"pure","type":"function"},{"inputs":[{"components":[{"internalType":"enum AuthType","name":"authType","type":"uint8"},{"internalType":"uint256","name":"userId","type":"uint256"},{"internalType":"bool","name":"isAnon","type":"bool"},{"internalType":"bool","name":"isOptional","type":"bool"},{"internalType":"bool","name":"isSelectableByUser","type":"bool"},{"internalType":"bytes","name":"extraData","type":"bytes"}],"internalType":"struct AuthRequest","name":"auth","type":"tuple"}],"name":"build","outputs":[{"components":[{"internalType":"bytes16","name":"namespace","type":"bytes16"},{"components":[{"internalType":"enum AuthType","name":"authType","type":"uint8"},{"internalType":"uint256","name":"userId","type":"uint256"},{"internalType":"bool","name":"isAnon","type":"bool"},{"internalType":"bool","name":"isOptional","type":"bool"},{"internalType":"bool","name":"isSelectableByUser","type":"bool"},{"internalType":"bytes","name":"extraData","type":"bytes"}],"internalType":"struct AuthRequest[]","name":"auths","type":"tuple[]"},{"components":[{"internalType":"enum ClaimType","name":"claimType","type":"uint8"},{"internalType":"bytes16","name":"groupId","type":"bytes16"},{"internalType":"bytes16","name":"groupTimestamp","type":"bytes16"},{"internalType":"uint256","name":"value","type":"uint256"},{"internalType":"bool","name":"isOptional","type":"bool"},{"internalType":"bool","name":"isSelectableByUser","type":"bool"},{"internalType":"bytes","name":"extraData","type":"bytes"}],"internalType":"struct ClaimRequest[]","name":"claims","type":"tuple[]"},{"components":[{"internalType":"bytes","name":"message","type":"bytes"},{"internalType":"bool","name":"isSelectableByUser","type":"bool"},{"internalType":"bytes","name":"extraData","type":"bytes"}],"internalType":"struct SignatureRequest","name":"signature","type":"tuple"}],"internalType":"struct SismoConnectRequest","name":"","type":"tuple"}],"stateMutability":"view","type":"function"},{"inputs":[{"components":[{"internalType":"enum AuthType","name":"authType","type":"uint8"},{"internalType":"uint256","name":"userId","type":"uint256"},{"internalType":"bool","name":"isAnon","type":"bool"},{"internalType":"bool","name":"isOptional","type":"bool"},{"internalType":"bool","name":"isSelectableByUser","type":"bool"},{"internalType":"bytes","name":"extraData","type":"bytes"}],"internalType":"struct AuthRequest[]","name":"auths","type":"tuple[]"},{"components":[{"internalType":"bytes","name":"message","type":"bytes"},{"internalType":"bool","name":"isSelectableByUser","type":"bool"},{"internalType":"bytes","name":"extraData","type":"bytes"}],"internalType":"struct SignatureRequest","name":"signature","type":"tuple"},{"internalType":"bytes16","name":"namespace","type":"bytes16"}],"name":"build","outputs":[{"components":[{"internalType":"bytes16","name":"namespace","type":"bytes16"},{"components":[{"internalType":"enum AuthType","name":"authType","type":"uint8"},{"internalType":"uint256","name":"userId","type":"uint256"},{"internalType":"bool","name":"isAnon","type":"bool"},{"internalType":"bool","name":"isOptional","type":"bool"},{"internalType":"bool","name":"isSelectableByUser","type":"bool"},{"internalType":"bytes","name":"extraData","type":"bytes"}],"internalType":"struct AuthRequest[]","name":"auths","type":"tuple[]"},{"components":[{"internalType":"enum ClaimType","name":"claimType","type":"uint8"},{"internalType":"bytes16","name":"groupId","type":"bytes16"},{"internalType":"bytes16","name":"groupTimestamp","type":"bytes16"},{"internalType":"uint256","name":"value","type":"uint256"},{"internalType":"bool","name":"isOptional","type":"bool"},{"internalType":"bool","name":"isSelectableByUser","type":"bool"},{"internalType":"bytes","name":"extraData","type":"bytes"}],"internalType":"struct ClaimRequest[]","name":"claims","type":"tuple[]"},{"components":[{"internalType":"bytes","name":"message","type":"bytes"},{"internalType":"bool","name":"isSelectableByUser","type":"bool"},{"internalType":"bytes","name":"extraData","type":"bytes"}],"internalType":"struct SignatureRequest","name":"signature","type":"tuple"}],"internalType":"struct SismoConnectRequest","name":"","type":"tuple"}],"stateMutability":"pure","type":"function"},{"inputs":[{"components":[{"internalType":"enum AuthType","name":"authType","type":"uint8"},{"internalType":"uint256","name":"userId","type":"uint256"},{"internalType":"bool","name":"isAnon","type":"bool"},{"internalType":"bool","name":"isOptional","type":"bool"},{"internalType":"bool","name":"isSelectableByUser","type":"bool"},{"internalType":"bytes","name":"extraData","type":"bytes"}],"internalType":"struct AuthRequest","name":"auth","type":"tuple"},{"components":[{"internalType":"enum ClaimType","name":"claimType","type":"uint8"},{"internalType":"bytes16","name":"groupId","type":"bytes16"},{"internalType":"bytes16","name":"groupTimestamp","type":"bytes16"},{"internalType":"uint256","name":"value","type":"uint256"},{"internalType":"bool","name":"isOptional","type":"bool"},{"internalType":"bool","name":"isSelectableByUser","type":"bool"},{"internalType":"bytes","name":"extraData","type":"bytes"}],"internalType":"struct ClaimRequest","name":"claim","type":"tuple"}],"name":"build","outputs":[{"components":[{"internalType":"bytes16","name":"namespace","type":"bytes16"},{"components":[{"internalType":"enum AuthType","name":"authType","type":"uint8"},{"internalType":"uint256","name":"userId","type":"uint256"},{"internalType":"bool","name":"isAnon","type":"bool"},{"internalType":"bool","name":"isOptional","type":"bool"},{"internalType":"bool","name":"isSelectableByUser","type":"bool"},{"internalType":"bytes","name":"extraData","type":"bytes"}],"internalType":"struct AuthRequest[]","name":"auths","type":"tuple[]"},{"components":[{"internalType":"enum ClaimType","name":"claimType","type":"uint8"},{"internalType":"bytes16","name":"groupId","type":"bytes16"},{"internalType":"bytes16","name":"groupTimestamp","type":"bytes16"},{"internalType":"uint256","name":"value","type":"uint256"},{"internalType":"bool","name":"isOptional","type":"bool"},{"internalType":"bool","name":"isSelectableByUser","type":"bool"},{"internalType":"bytes","name":"extraData","type":"bytes"}],"internalType":"struct ClaimRequest[]","name":"claims","type":"tuple[]"},{"components":[{"internalType":"bytes","name":"message","type":"bytes"},{"internalType":"bool","name":"isSelectableByUser","type":"bool"},{"internalType":"bytes","name":"extraData","type":"bytes"}],"internalType":"struct SignatureRequest","name":"signature","type":"tuple"}],"internalType":"struct SismoConnectRequest","name":"","type":"tuple"}],"stateMutability":"view","type":"function"},{"inputs":[{"components":[{"internalType":"enum AuthType","name":"authType","type":"uint8"},{"internalType":"uint256","name":"userId","type":"uint256"},{"internalType":"bool","name":"isAnon","type":"bool"},{"internalType":"bool","name":"isOptional","type":"bool"},{"internalType":"bool","name":"isSelectableByUser","type":"bool"},{"internalType":"bytes","name":"extraData","type":"bytes"}],"internalType":"struct AuthRequest[]","name":"auths","type":"tuple[]"},{"components":[{"internalType":"enum ClaimType","name":"claimType","type":"uint8"},{"internalType":"bytes16","name":"groupId","type":"bytes16"},{"internalType":"bytes16","name":"groupTimestamp","type":"bytes16"},{"internalType":"uint256","name":"value","type":"uint256"},{"internalType":"bool","name":"isOptional","type":"bool"},{"internalType":"bool","name":"isSelectableByUser","type":"bool"},{"internalType":"bytes","name":"extraData","type":"bytes"}],"internalType":"struct ClaimRequest[]","name":"claims","type":"tuple[]"},{"components":[{"internalType":"bytes","name":"message","type":"bytes"},{"internalType":"bool","name":"isSelectableByUser","type":"bool"},{"internalType":"bytes","name":"extraData","type":"bytes"}],"internalType":"struct SignatureRequest","name":"signature","type":"tuple"},{"internalType":"bytes16","name":"namespace","type":"bytes16"}],"name":"build","outputs":[{"components":[{"internalType":"bytes16","name":"namespace","type":"bytes16"},{"components":[{"internalType":"enum AuthType","name":"authType","type":"uint8"},{"internalType":"uint256","name":"userId","type":"uint256"},{"internalType":"bool","name":"isAnon","type":"bool"},{"internalType":"bool","name":"isOptional","type":"bool"},{"internalType":"bool","name":"isSelectableByUser","type":"bool"},{"internalType":"bytes","name":"extraData","type":"bytes"}],"internalType":"struct AuthRequest[]","name":"auths","type":"tuple[]"},{"components":[{"internalType":"enum ClaimType","name":"claimType","type":"uint8"},{"internalType":"bytes16","name":"groupId","type":"bytes16"},{"internalType":"bytes16","name":"groupTimestamp","type":"bytes16"},{"internalType":"uint256","name":"value","type":"uint256"},{"internalType":"bool","name":"isOptional","type":"bool"},{"internalType":"bool","name":"isSelectableByUser","type":"bool"},{"internalType":"bytes","name":"extraData","type":"bytes"}],"internalType":"struct ClaimRequest[]","name":"claims","type":"tuple[]"},{"components":[{"internalType":"bytes","name":"message","type":"bytes"},{"internalType":"bool","name":"isSelectableByUser","type":"bool"},{"internalType":"bytes","name":"extraData","type":"bytes"}],"internalType":"struct SignatureRequest","name":"signature","type":"tuple"}],"internalType":"struct SismoConnectRequest","name":"","type":"tuple"}],"stateMutability":"pure","type":"function"},{"inputs":[{"components":[{"internalType":"enum AuthType","name":"authType","type":"uint8"},{"internalType":"uint256","name":"userId","type":"uint256"},{"internalType":"bool","name":"isAnon","type":"bool"},{"internalType":"bool","name":"isOptional","type":"bool"},{"internalType":"bool","name":"isSelectableByUser","type":"bool"},{"internalType":"bytes","name":"extraData","type":"bytes"}],"internalType":"struct AuthRequest","name":"auth","type":"tuple"},{"components":[{"internalType":"enum ClaimType","name":"claimType","type":"uint8"},{"internalType":"bytes16","name":"groupId","type":"bytes16"},{"internalType":"bytes16","name":"groupTimestamp","type":"bytes16"},{"internalType":"uint256","name":"value","type":"uint256"},{"internalType":"bool","name":"isOptional","type":"bool"},{"internalType":"bool","name":"isSelectableByUser","type":"bool"},{"internalType":"bytes","name":"extraData","type":"bytes"}],"internalType":"struct ClaimRequest","name":"claim","type":"tuple"},{"components":[{"internalType":"bytes","name":"message","type":"bytes"},{"internalType":"bool","name":"isSelectableByUser","type":"bool"},{"internalType":"bytes","name":"extraData","type":"bytes"}],"internalType":"struct SignatureRequest","name":"signature","type":"tuple"},{"internalType":"bytes16","name":"namespace","type":"bytes16"}],"name":"build","outputs":[{"components":[{"internalType":"bytes16","name":"namespace","type":"bytes16"},{"components":[{"internalType":"enum AuthType","name":"authType","type":"uint8"},{"internalType":"uint256","name":"userId","type":"uint256"},{"internalType":"bool","name":"isAnon","type":"bool"},{"internalType":"bool","name":"isOptional","type":"bool"},{"internalType":"bool","name":"isSelectableByUser","type":"bool"},{"internalType":"bytes","name":"extraData","type":"bytes"}],"internalType":"struct AuthRequest[]","name":"auths","type":"tuple[]"},{"components":[{"internalType":"enum ClaimType","name":"claimType","type":"uint8"},{"internalType":"bytes16","name":"groupId","type":"bytes16"},{"internalType":"bytes16","name":"groupTimestamp","type":"bytes16"},{"internalType":"uint256","name":"value","type":"uint256"},{"internalType":"bool","name":"isOptional","type":"bool"},{"internalType":"bool","name":"isSelectableByUser","type":"bool"},{"internalType":"bytes","name":"extraData","type":"bytes"}],"internalType":"struct ClaimRequest[]","name":"claims","type":"tuple[]"},{"components":[{"internalType":"bytes","name":"message","type":"bytes"},{"internalType":"bool","name":"isSelectableByUser","type":"bool"},{"internalType":"bytes","name":"extraData","type":"bytes"}],"internalType":"struct SignatureRequest","name":"signature","type":"tuple"}],"internalType":"struct SismoConnectRequest","name":"","type":"tuple"}],"stateMutability":"pure","type":"function"},{"inputs":[{"components":[{"internalType":"enum ClaimType","name":"claimType","type":"uint8"},{"internalType":"bytes16","name":"groupId","type":"bytes16"},{"internalType":"bytes16","name":"groupTimestamp","type":"bytes16"},{"internalType":"uint256","name":"value","type":"uint256"},{"internalType":"bool","name":"isOptional","type":"bool"},{"internalType":"bool","name":"isSelectableByUser","type":"bool"},{"internalType":"bytes","name":"extraData","type":"bytes"}],"internalType":"struct ClaimRequest[]","name":"claims","type":"tuple[]"},{"internalType":"bytes16","name":"namespace","type":"bytes16"}],"name":"build","outputs":[{"components":[{"internalType":"bytes16","name":"namespace","type":"bytes16"},{"components":[{"internalType":"enum AuthType","name":"authType","type":"uint8"},{"internalType":"uint256","name":"userId","type":"uint256"},{"internalType":"bool","name":"isAnon","type":"bool"},{"internalType":"bool","name":"isOptional","type":"bool"},{"internalType":"bool","name":"isSelectableByUser","type":"bool"},{"internalType":"bytes","name":"extraData","type":"bytes"}],"internalType":"struct AuthRequest[]","name":"auths","type":"tuple[]"},{"components":[{"internalType":"enum ClaimType","name":"claimType","type":"uint8"},{"internalType":"bytes16","name":"groupId","type":"bytes16"},{"internalType":"bytes16","name":"groupTimestamp","type":"bytes16"},{"internalType":"uint256","name":"value","type":"uint256"},{"internalType":"bool","name":"isOptional","type":"bool"},{"internalType":"bool","name":"isSelectableByUser","type":"bool"},{"internalType":"bytes","name":"extraData","type":"bytes"}],"internalType":"struct ClaimRequest[]","name":"claims","type":"tuple[]"},{"components":[{"internalType":"bytes","name":"message","type":"bytes"},{"internalType":"bool","name":"isSelectableByUser","type":"bool"},{"internalType":"bytes","name":"extraData","type":"bytes"}],"internalType":"struct SignatureRequest","name":"signature","type":"tuple"}],"internalType":"struct SismoConnectRequest","name":"","type":"tuple"}],"stateMutability":"view","type":"function"},{"inputs":[{"components":[{"internalType":"enum AuthType","name":"authType","type":"uint8"},{"internalType":"uint256","name":"userId","type":"uint256"},{"internalType":"bool","name":"isAnon","type":"bool"},{"internalType":"bool","name":"isOptional","type":"bool"},{"internalType":"bool","name":"isSelectableByUser","type":"bool"},{"internalType":"bytes","name":"extraData","type":"bytes"}],"internalType":"struct AuthRequest","name":"auth","type":"tuple"},{"components":[{"internalType":"enum ClaimType","name":"claimType","type":"uint8"},{"internalType":"bytes16","name":"groupId","type":"bytes16"},{"internalType":"bytes16","name":"groupTimestamp","type":"bytes16"},{"internalType":"uint256","name":"value","type":"uint256"},{"internalType":"bool","name":"isOptional","type":"bool"},{"internalType":"bool","name":"isSelectableByUser","type":"bool"},{"internalType":"bytes","name":"extraData","type":"bytes"}],"internalType":"struct ClaimRequest","name":"claim","type":"tuple"},{"components":[{"internalType":"bytes","name":"message","type":"bytes"},{"internalType":"bool","name":"isSelectableByUser","type":"bool"},{"internalType":"bytes","name":"extraData","type":"bytes"}],"internalType":"struct SignatureRequest","name":"signature","type":"tuple"}],"name":"build","outputs":[{"components":[{"internalType":"bytes16","name":"namespace","type":"bytes16"},{"components":[{"internalType":"enum AuthType","name":"authType","type":"uint8"},{"internalType":"uint256","name":"userId","type":"uint256"},{"internalType":"bool","name":"isAnon","type":"bool"},{"internalType":"bool","name":"isOptional","type":"bool"},{"internalType":"bool","name":"isSelectableByUser","type":"bool"},{"internalType":"bytes","name":"extraData","type":"bytes"}],"internalType":"struct AuthRequest[]","name":"auths","type":"tuple[]"},{"components":[{"internalType":"enum ClaimType","name":"claimType","type":"uint8"},{"internalType":"bytes16","name":"groupId","type":"bytes16"},{"internalType":"bytes16","name":"groupTimestamp","type":"bytes16"},{"internalType":"uint256","name":"value","type":"uint256"},{"internalType":"bool","name":"isOptional","type":"bool"},{"internalType":"bool","name":"isSelectableByUser","type":"bool"},{"internalType":"bytes","name":"extraData","type":"bytes"}],"internalType":"struct ClaimRequest[]","name":"claims","type":"tuple[]"},{"components":[{"internalType":"bytes","name":"message","type":"bytes"},{"internalType":"bool","name":"isSelectableByUser","type":"bool"},{"internalType":"bytes","name":"extraData","type":"bytes"}],"internalType":"struct SignatureRequest","name":"signature","type":"tuple"}],"internalType":"struct SismoConnectRequest","name":"","type":"tuple"}],"stateMutability":"pure","type":"function"}],"evm":{"bytecode":{"linkReferences":{},"object":"601860e09081527f4d4553534147455f53454c45435445445f42595f555345520000000000000000610100526080818152600060a081905261014060405261012081815260c0529091819062000056908262000141565b50602082015160018201805460ff19169115159190911790556040820151600282019062000085908262000141565b5050503480156200009557600080fd5b506200020d565b634e487b7160e01b600052604160045260246000fd5b600181811c90821680620000c757607f821691505b602082108103620000e857634e487b7160e01b600052602260045260246000fd5b50919050565b601f8211156200013c57600081815260208120601f850160051c81016020861015620001175750805b601f850160051c820191505b81811015620001385782815560010162000123565b5050505b505050565b81516001600160401b038111156200015d576200015d6200009c565b62000175816200016e8454620000b2565b84620000ee565b602080601f831160018114620001ad5760008415620001945750858301515b600019600386901b1c1916600185901b17855562000138565b600085815260208120601f198616915b82811015620001de57888601518255948401946001909101908401620001bd565b5085821015620001fd5787850151600019600388901b60f8161c191681555b5050505050600190811b01905550565b612700806200021d6000396000f3fe608060405234801561001057600080fd5b50600436106101735760003560e01c80639266f47c116100de578063d7ccd8da11610097578063e48cd72111610071578063e48cd72114610338578063e93f38b81461034b578063f1c1e2091461035e578063f2d3f1f61461037157600080fd5b8063d7ccd8da146102ff578063dd10826714610312578063dde11c7c1461032557600080fd5b80639266f47c1461028d57806399240336146102a0578063a156e2d8146102b3578063b33cd323146102c6578063b5ae2587146102d9578063c9f97f53146102ec57600080fd5b806327b5b7c31161013057806327b5b7c31461021b5780632ceb1e8d1461022e57806331560e751461024157806348fd24cc14610254578063548525771461026757806391ba07f31461027a57600080fd5b8063080b53f8146101785780630e58be05146101a157806310c5d31b146101b457806311f83e20146101c757806314ddafa3146101da5780631b399c99146101ed575b600080fd5b61018b610186366004611a5c565b610384565b6040516101989190611c16565b60405180910390f35b61018b6101af366004611d21565b61058c565b61018b6101c2366004611e92565b6107a1565b61018b6101d5366004611fb7565b610864565b61018b6101e836600461206a565b610a23565b6102026000805160206126ab83398151915281565b6040516001600160801b03199091168152602001610198565b61018b6102293660046120a2565b610a92565b61018b61023c3660046120d7565b610b12565b61018b61024f36600461213a565b610b81565b61018b610262366004612195565b610da7565b61018b6102753660046121cb565b610e71565b61018b610288366004612203565b610f38565b61018b61029b366004612238565b61100e565b61018b6102ae366004612293565b61105a565b61018b6102c136600461231a565b611099565b61018b6102d4366004612373565b6110f3565b61018b6102e73660046123a7565b611181565b61018b6102fa3660046123dd565b6111f3565b61018b61030d366004612413565b6112c7565b61018b610320366004612447565b6113ab565b61018b61033336600461247f565b61141a565b61018b6103463660046124d8565b61151a565b61018b610359366004612570565b611552565b61018b61036c3660046125cb565b611637565b61018b61037f366004612600565b6116b7565b61038c6117a9565b60408051600080825260208201909252816103bd565b6103aa6117fe565b8152602001906001900390816103a25790505b5060408051600180825281830190925291925060009190816020015b6103e161183b565b8152602001906001900390816103d9579050509050848160008151811061040a5761040a61265a565b60200260200101819052506040518060800160405280856001600160801b0319168152602001838152602001828152602001600060405180606001604052908160008201805461045990612670565b80601f016020809104026020016040519081016040528092919081815260200182805461048590612670565b80156104d25780601f106104a7576101008083540402835291602001916104d2565b820191906000526020600020905b8154815290600101906020018083116104b557829003601f168201915b5050509183525050600182015460ff16151560208201526002820180546040909201916104fe90612670565b80601f016020809104026020016040519081016040528092919081815260200182805461052a90612670565b80156105775780601f1061054c57610100808354040283529160200191610577565b820191906000526020600020905b81548152906001019060200180831161055a57829003601f168201915b50505091909252505050905295945050505050565b6105946117a9565b60408051600080825260208201909252816105c5565b6105b26117fe565b8152602001906001900390816105aa5790505b5060408051600180825281830190925291925060009190816020015b6105e961183b565b8152602001906001900390816105e157905050905083816000815181106106125761061261265a565b602002602001018190525060405180608001604052806000805160206126ab8339815191526001600160801b0319168152602001838152602001828152602001600060405180606001604052908160008201805461066f90612670565b80601f016020809104026020016040519081016040528092919081815260200182805461069b90612670565b80156106e85780601f106106bd576101008083540402835291602001916106e8565b820191906000526020600020905b8154815290600101906020018083116106cb57829003601f168201915b5050509183525050600182015460ff161515602082015260028201805460409092019161071490612670565b80601f016020809104026020016040519081016040528092919081815260200182805461074090612670565b801561078d5780601f106107625761010080835404028352916020019161078d565b820191906000526020600020905b81548152906001019060200180831161077057829003601f168201915b505050919092525050509052949350505050565b6107a96117a9565b604080516001808252818301909252600091816020015b6107c86117fe565b8152602001906001900390816107c057905050905084816000815181106107f1576107f161265a565b60209081029190910181019190915260408051600080825292810190915281610830565b61081d61183b565b8152602001906001900390816108155790505b50604080516080810182526001600160801b0319871681526020810194909452830152506060810184905290509392505050565b61086c6117a9565b604080516000808252602082019092528161089d565b61088a61183b565b8152602001906001900390816108825790505b50905060405180608001604052806000805160206126ab8339815191526001600160801b031916815260200184815260200182815260200160006040518060600160405290816000820180546108f290612670565b80601f016020809104026020016040519081016040528092919081815260200182805461091e90612670565b801561096b5780601f106109405761010080835404028352916020019161096b565b820191906000526020600020905b81548152906001019060200180831161094e57829003601f168201915b5050509183525050600182015460ff161515602082015260028201805460409092019161099790612670565b80601f01602080910402602001604051908101604052809291908181526020018280546109c390612670565b8015610a105780601f106109e557610100808354040283529160200191610a10565b820191906000526020600020905b8154815290600101906020018083116109f357829003601f168201915b5050509190925250505090529392505050565b610a2b6117a9565b6040805160008082526020820190925281610a5c565b610a496117fe565b815260200190600190039081610a415790505b50604080516080810182526001600160801b03198616815260208101929092528101869052606081018590529150509392505050565b610a9a6117a9565b6040805160008082526020820190925281610acb565b610ab861183b565b815260200190600190039081610ab05790505b5090506040518060800160405280846001600160801b0319168152602001858152602001828152602001600060405180606001604052908160008201805461066f90612670565b610b1a6117a9565b6040805160008082526020820190925281610b4b565b610b3861183b565b815260200190600190039081610b305790505b50604080516080810182526fb8e2054f8a912367e38a22ce773328ff60801b815260208101969096528501525050606082015290565b610b896117a9565b604080516001808252818301909252600091816020015b610ba86117fe565b815260200190600190039081610ba05790505090508481600081518110610bd157610bd161265a565b6020908102919091010152604080516001808252818301909252600091816020015b610bfb61183b565b815260200190600190039081610bf35790505090508481600081518110610c2457610c2461265a565b60200260200101819052506040518060800160405280856001600160801b03191681526020018381526020018281526020016000604051806060016040529081600082018054610c7390612670565b80601f0160208091040260200160405190810160405280929190818152602001828054610c9f90612670565b8015610cec5780601f10610cc157610100808354040283529160200191610cec565b820191906000526020600020905b815481529060010190602001808311610ccf57829003601f168201915b5050509183525050600182015460ff1615156020820152600282018054604090920191610d1890612670565b80601f0160208091040260200160405190810160405280929190818152602001828054610d4490612670565b8015610d915780601f10610d6657610100808354040283529160200191610d91565b820191906000526020600020905b815481529060010190602001808311610d7457829003601f168201915b5050509190925250505090529695505050505050565b610daf6117a9565b604080516001808252818301909252600091816020015b610dce6117fe565b815260200190600190039081610dc65790505090508381600081518110610df757610df761265a565b60209081029190910181019190915260408051600080825292810190915281610e36565b610e2361183b565b815260200190600190039081610e1b5790505b50604080516080810182526fb8e2054f8a912367e38a22ce773328ff60801b8152602081019490945283015250606081019290925250919050565b610e796117a9565b6040805160008082526020820190925281610eaa565b610e976117fe565b815260200190600190039081610e8f5790505b5060408051600180825281830190925291925060009190816020015b610ece61183b565b815260200190600190039081610ec65790505090508581600081518110610ef757610ef761265a565b60200260200101819052506040518060800160405280856001600160801b031916815260200183815260200182815260200186815250925050509392505050565b610f406117a9565b604080516001808252818301909252600091816020015b610f5f6117fe565b815260200190600190039081610f575790505090508381600081518110610f8857610f8861265a565b60209081029190910181019190915260408051600080825292810190915281610fc7565b610fb461183b565b815260200190600190039081610fac5790505b5090506040518060800160405280856001600160801b0319168152602001838152602001828152602001600060405180606001604052908160008201805461045990612670565b6110166117a9565b6040518060800160405280836001600160801b0319168152602001858152602001848152602001600060405180606001604052908160008201805461066f90612670565b6110626117a9565b50604080516080810182526fb8e2054f8a912367e38a22ce773328ff60801b81526020810194909452830191909152606082015290565b6110a16117a9565b60405180608001604052806000805160206126ab8339815191526001600160801b031916815260200184815260200183815260200160006040518060600160405290816000820180546108f290612670565b6110fb6117a9565b604080516000808252602082019092528161112c565b6111196117fe565b8152602001906001900390816111115790505b50905060405180608001604052806000805160206126ab8339815191526001600160801b031916815260200182815260200184815260200160006040518060600160405290816000820180546108f290612670565b6111896117a9565b60408051600080825260208201909252816111ba565b6111a76117fe565b81526020019060019003908161119f5790505b50604080516080810182526fb8e2054f8a912367e38a22ce773328ff60801b815260208101929092528101949094525050606082015290565b6111fb6117a9565b604080516000808252602082019092528161122c565b6112196117fe565b8152602001906001900390816112115790505b5060408051600180825281830190925291925060009190816020015b61125061183b565b81526020019060019003908161124857905050905084816000815181106112795761127961265a565b602002602001018190525060405180608001604052806000805160206126ab8339815191526001600160801b0319168152602001838152602001828152602001858152509250505092915050565b6112cf6117a9565b604080516001808252818301909252600091816020015b6112ee6117fe565b8152602001906001900390816112e657905050905082816000815181106113175761131761265a565b60209081029190910181019190915260408051600080825292810190915281611356565b61134361183b565b81526020019060019003908161133b5790505b50905060405180608001604052806000805160206126ab8339815191526001600160801b0319168152602001838152602001828152602001600060405180606001604052908160008201805461066f90612670565b6113b36117a9565b60408051600080825260208201909252816113e4565b6113d161183b565b8152602001906001900390816113c95790505b50604080516080810182526001600160801b03199095168552602085019690965294830194909452506060810191909152919050565b6114226117a9565b604080516001808252818301909252600091816020015b6114416117fe565b815260200190600190039081611439579050509050838160008151811061146a5761146a61265a565b6020908102919091010152604080516001808252818301909252600091816020015b61149461183b565b81526020019060019003908161148c57905050905083816000815181106114bd576114bd61265a565b602002602001018190525060405180608001604052806000805160206126ab8339815191526001600160801b0319168152602001838152602001828152602001600060405180606001604052908160008201805461045990612670565b6115226117a9565b50604080516080810182526001600160801b03199092168252602082019490945292830191909152606082015290565b61155a6117a9565b604080516001808252818301909252600091816020015b6115796117fe565b81526020019060019003908161157157905050905085816000815181106115a2576115a261265a565b6020908102919091010152604080516001808252818301909252600091816020015b6115cc61183b565b8152602001906001900390816115c457905050905085816000815181106115f5576115f561265a565b60200260200101819052506040518060800160405280856001600160801b03191681526020018381526020018281526020018681525092505050949350505050565b61163f6117a9565b6040805160008082526020820190925281611670565b61165d6117fe565b8152602001906001900390816116555790505b5090506040518060800160405280846001600160801b0319168152602001828152602001858152602001600060405180606001604052908160008201805461066f90612670565b6116bf6117a9565b604080516001808252818301909252600091816020015b6116de6117fe565b8152602001906001900390816116d657905050905084816000815181106117075761170761265a565b6020908102919091010152604080516001808252818301909252600091816020015b61173161183b565b815260200190600190039081611729579050509050848160008151811061175a5761175a61265a565b602002602001018190525060405180608001604052806000805160206126ab8339815191526001600160801b031916815260200183815260200182815260200185815250925050509392505050565b604051806080016040528060006001600160801b031916815260200160608152602001606081526020016117f9604051806060016040528060608152602001600015158152602001606081525090565b905290565b6040805160c08101909152806000815260200160008152602001600015158152602001600015158152602001600015158152602001606081525090565b6040805160e0810190915280600081526000602082018190526040820181905260608083018290526080830182905260a083019190915260c09091015290565b634e487b7160e01b600052604160045260246000fd5b60405160e081016001600160401b03811182821017156118b3576118b361187b565b60405290565b60405160c081016001600160401b03811182821017156118b3576118b361187b565b604051601f8201601f191681016001600160401b03811182821017156119035761190361187b565b604052919050565b80356005811061191a57600080fd5b919050565b80356001600160801b03198116811461191a57600080fd5b8035801515811461191a57600080fd5b600082601f83011261195857600080fd5b81356001600160401b038111156119715761197161187b565b611984601f8201601f19166020016118db565b81815284602083860101111561199957600080fd5b816020850160208301376000918101602001919091529392505050565b600060e082840312156119c857600080fd5b6119d0611891565b90506119db8261190b565b81526119e96020830161191f565b60208201526119fa6040830161191f565b604082015260608201356060820152611a1560808301611937565b6080820152611a2660a08301611937565b60a082015260c08201356001600160401b03811115611a4457600080fd5b611a5084828501611947565b60c08301525092915050565b60008060408385031215611a6f57600080fd5b82356001600160401b03811115611a8557600080fd5b611a91858286016119b6565b925050611aa06020840161191f565b90509250929050565b634e487b7160e01b600052602160045260246000fd5b6000815180845260005b81811015611ae557602081850181015186830182015201611ac9565b506000602082860101526020601f19601f83011685010191505092915050565b600081518084526020808501808196506005915083821b810183870160005b86811015611bc5578383038a52815160e08151878110611b4657611b46611aa9565b8552818801516001600160801b03191688860152604080830151611b75828801826001600160801b0319169052565b50506060828101519086015260808083015115159086015260a08083015115159086015260c091820151918501819052611bb181860183611abf565b9b88019b9450505090850190600101611b24565b509098975050505050505050565b6000815160608452611be86060850182611abf565b905060208301511515602085015260408301518482036040860152611c0d8282611abf565b95945050505050565b6000602080835260a08084016001600160801b0319865116838601528286015160806040818189015283835180865260c09550858a019150858160051b8b0101888601955060005b82811015611cd5578b820360bf190184528651805160068110611c8357611c83611aa9565b8352808b01518b8401528581015115158684015260608082015115159084015286810151151587840152890151898301899052611cc289840182611abf565b978b0197948b0194925050600101611c5e565b50838c01519850601f199750878b82030160608c0152611cf5818a611b05565b985050505050606088015192508387860301818801525050611d178382611bd3565b9695505050505050565b600060208284031215611d3357600080fd5b81356001600160401b03811115611d4957600080fd5b611d55848285016119b6565b949350505050565b600060c08284031215611d6f57600080fd5b611d776118b9565b9050813560068110611d8857600080fd5b815260208281013590820152611da060408301611937565b6040820152611db160608301611937565b6060820152611dc260808301611937565b608082015260a08201356001600160401b03811115611de057600080fd5b611dec84828501611947565b60a08301525092915050565b600060608284031215611e0a57600080fd5b604051606081016001600160401b038282108183111715611e2d57611e2d61187b565b816040528293508435915080821115611e4557600080fd5b611e5186838701611947565b8352611e5f60208601611937565b60208401526040850135915080821115611e7857600080fd5b50611e8585828601611947565b6040830152505092915050565b600080600060608486031215611ea757600080fd5b83356001600160401b0380821115611ebe57600080fd5b611eca87838801611d5d565b94506020860135915080821115611ee057600080fd5b50611eed86828701611df8565b925050611efc6040850161191f565b90509250925092565b60006001600160401b03821115611f1e57611f1e61187b565b5060051b60200190565b600082601f830112611f3957600080fd5b81356020611f4e611f4983611f05565b6118db565b82815260059290921b84018101918181019086841115611f6d57600080fd5b8286015b84811015611fac5780356001600160401b03811115611f905760008081fd5b611f9e8986838b0101611d5d565b845250918301918301611f71565b509695505050505050565b600060208284031215611fc957600080fd5b81356001600160401b03811115611fdf57600080fd5b611d5584828501611f28565b600082601f830112611ffc57600080fd5b8135602061200c611f4983611f05565b82815260059290921b8401810191818101908684111561202b57600080fd5b8286015b84811015611fac5780356001600160401b0381111561204e5760008081fd5b61205c8986838b01016119b6565b84525091830191830161202f565b60008060006060848603121561207f57600080fd5b83356001600160401b038082111561209657600080fd5b611eca87838801611feb565b600080604083850312156120b557600080fd5b82356001600160401b038111156120cb57600080fd5b611a9185828601611f28565b600080604083850312156120ea57600080fd5b82356001600160401b038082111561210157600080fd5b61210d86838701611f28565b9350602085013591508082111561212357600080fd5b5061213085828601611df8565b9150509250929050565b60008060006060848603121561214f57600080fd5b83356001600160401b038082111561216657600080fd5b61217287838801611d5d565b9450602086013591508082111561218857600080fd5b50611eed868287016119b6565b600080604083850312156121a857600080fd5b82356001600160401b03808211156121bf57600080fd5b61210d86838701611d5d565b6000806000606084860312156121e057600080fd5b83356001600160401b03808211156121f757600080fd5b611eca878388016119b6565b6000806040838503121561221657600080fd5b82356001600160401b0381111561222c57600080fd5b611a9185828601611d5d565b60008060006060848603121561224d57600080fd5b83356001600160401b038082111561226457600080fd5b61227087838801611f28565b9450602086013591508082111561228657600080fd5b50611eed86828701611feb565b6000806000606084860312156122a857600080fd5b83356001600160401b03808211156122bf57600080fd5b6122cb87838801611f28565b945060208601359150808211156122e157600080fd5b6122ed87838801611feb565b9350604086013591508082111561230357600080fd5b5061231086828701611df8565b9150509250925092565b6000806040838503121561232d57600080fd5b82356001600160401b038082111561234457600080fd5b61235086838701611f28565b9350602085013591508082111561236657600080fd5b5061213085828601611feb565b60006020828403121561238557600080fd5b81356001600160401b0381111561239b57600080fd5b611d5584828501611feb565b600080604083850312156123ba57600080fd5b82356001600160401b03808211156123d157600080fd5b61210d86838701611feb565b600080604083850312156123f057600080fd5b82356001600160401b038082111561240757600080fd5b61210d868387016119b6565b60006020828403121561242557600080fd5b81356001600160401b0381111561243b57600080fd5b611d5584828501611d5d565b60008060006060848603121561245c57600080fd5b83356001600160401b038082111561247357600080fd5b611eca87838801611f28565b6000806040838503121561249257600080fd5b82356001600160401b03808211156124a957600080fd5b6124b586838701611d5d565b935060208501359150808211156124cb57600080fd5b50612130858286016119b6565b600080600080608085870312156124ee57600080fd5b84356001600160401b038082111561250557600080fd5b61251188838901611f28565b9550602087013591508082111561252757600080fd5b61253388838901611feb565b9450604087013591508082111561254957600080fd5b5061255687828801611df8565b9250506125656060860161191f565b905092959194509250565b6000806000806080858703121561258657600080fd5b84356001600160401b038082111561259d57600080fd5b6125a988838901611d5d565b955060208701359150808211156125bf57600080fd5b612533888389016119b6565b600080604083850312156125de57600080fd5b82356001600160401b038111156125f457600080fd5b611a9185828601611feb565b60008060006060848603121561261557600080fd5b83356001600160401b038082111561262c57600080fd5b61263887838801611d5d565b9450602086013591508082111561264e57600080fd5b6122ed878388016119b6565b634e487b7160e01b600052603260045260246000fd5b600181811c9082168061268457607f821691505b6020821081036126a457634e487b7160e01b600052602260045260246000fd5b5091905056feb8e2054f8a912367e38a22ce773328ff8aabf8082c4120bad9ef085e1dbf29a7a26469706673582212204b8f7a5a5ba91b3206ed347b001f93e82488edcd35d9097494101ab2a303678a64736f6c63430008110033","opcodes":"PUSH1 0x18 PUSH1 0xE0 SWAP1 DUP2 MSTORE PUSH32 0x4D4553534147455F53454C45435445445F42595F555345520000000000000000 PUSH2 0x100 MSTORE PUSH1 0x80 DUP2 DUP2 MSTORE PUSH1 0x0 PUSH1 0xA0 DUP2 SWAP1 MSTORE PUSH2 0x140 PUSH1 0x40 MSTORE PUSH2 0x120 DUP2 DUP2 MSTORE PUSH1 0xC0 MSTORE SWAP1 SWAP2 DUP2 SWAP1 PUSH3 0x56 SWAP1 DUP3 PUSH3 0x141 JUMP JUMPDEST POP PUSH1 0x20 DUP3 ADD MLOAD PUSH1 0x1 DUP3 ADD DUP1 SLOAD PUSH1 0xFF NOT AND SWAP2 ISZERO ISZERO SWAP2 SWAP1 SWAP2 OR SWAP1 SSTORE PUSH1 0x40 DUP3 ADD MLOAD PUSH1 0x2 DUP3 ADD SWAP1 PUSH3 0x85 SWAP1 DUP3 PUSH3 0x141 JUMP JUMPDEST POP POP POP CALLVALUE DUP1 ISZERO PUSH3 0x95 JUMPI PUSH1 0x0 DUP1 REVERT JUMPDEST POP PUSH3 0x20D JUMP JUMPDEST PUSH4 0x4E487B71 PUSH1 0xE0 SHL PUSH1 0x0 MSTORE PUSH1 0x41 PUSH1 0x4 MSTORE PUSH1 0x24 PUSH1 0x0 REVERT JUMPDEST PUSH1 0x1 DUP2 DUP2 SHR SWAP1 DUP3 AND DUP1 PUSH3 0xC7 JUMPI PUSH1 0x7F DUP3 AND SWAP2 POP JUMPDEST PUSH1 0x20 DUP3 LT DUP2 SUB PUSH3 0xE8 JUMPI PUSH4 0x4E487B71 PUSH1 0xE0 SHL PUSH1 0x0 MSTORE PUSH1 0x22 PUSH1 0x4 MSTORE PUSH1 0x24 PUSH1 0x0 REVERT JUMPDEST POP SWAP2 SWAP1 POP JUMP JUMPDEST PUSH1 0x1F DUP3 GT ISZERO PUSH3 0x13C JUMPI PUSH1 0x0 DUP2 DUP2 MSTORE PUSH1 0x20 DUP2 KECCAK256 PUSH1 0x1F DUP6 ADD PUSH1 0x5 SHR DUP2 ADD PUSH1 0x20 DUP7 LT ISZERO PUSH3 0x117 JUMPI POP DUP1 JUMPDEST PUSH1 0x1F DUP6 ADD PUSH1 0x5 SHR DUP3 ADD SWAP2 POP JUMPDEST DUP2 DUP2 LT ISZERO PUSH3 0x138 JUMPI DUP3 DUP2 SSTORE PUSH1 0x1 ADD PUSH3 0x123 JUMP JUMPDEST POP POP POP JUMPDEST POP POP POP JUMP JUMPDEST DUP2 MLOAD PUSH1 0x1 PUSH1 0x1 PUSH1 0x40 SHL SUB DUP2 GT ISZERO PUSH3 0x15D JUMPI PUSH3 0x15D PUSH3 0x9C JUMP JUMPDEST PUSH3 0x175 DUP2 PUSH3 0x16E DUP5 SLOAD PUSH3 0xB2 JUMP JUMPDEST DUP5 PUSH3 0xEE JUMP JUMPDEST PUSH1 0x20 DUP1 PUSH1 0x1F DUP4 GT PUSH1 0x1 DUP2 EQ PUSH3 0x1AD JUMPI PUSH1 0x0 DUP5 ISZERO PUSH3 0x194 JUMPI POP DUP6 DUP4 ADD MLOAD JUMPDEST PUSH1 0x0 NOT PUSH1 0x3 DUP7 SWAP1 SHL SHR NOT AND PUSH1 0x1 DUP6 SWAP1 SHL OR DUP6 SSTORE PUSH3 0x138 JUMP JUMPDEST PUSH1 0x0 DUP6 DUP2 MSTORE PUSH1 0x20 DUP2 KECCAK256 PUSH1 0x1F NOT DUP7 AND SWAP2 JUMPDEST DUP3 DUP2 LT ISZERO PUSH3 0x1DE JUMPI DUP9 DUP7 ADD MLOAD DUP3 SSTORE SWAP5 DUP5 ADD SWAP5 PUSH1 0x1 SWAP1 SWAP2 ADD SWAP1 DUP5 ADD PUSH3 0x1BD JUMP JUMPDEST POP DUP6 DUP3 LT ISZERO PUSH3 0x1FD JUMPI DUP8 DUP6 ADD MLOAD PUSH1 0x0 NOT PUSH1 0x3 DUP9 SWAP1 SHL PUSH1 0xF8 AND SHR NOT AND DUP2 SSTORE JUMPDEST POP POP POP POP POP PUSH1 0x1 SWAP1 DUP2 SHL ADD SWAP1 SSTORE POP JUMP JUMPDEST PUSH2 0x2700 DUP1 PUSH3 0x21D PUSH1 0x0 CODECOPY PUSH1 0x0 RETURN INVALID PUSH1 0x80 PUSH1 0x40 MSTORE CALLVALUE DUP1 ISZERO PUSH2 0x10 JUMPI PUSH1 0x0 DUP1 REVERT JUMPDEST POP PUSH1 0x4 CALLDATASIZE LT PUSH2 0x173 JUMPI PUSH1 0x0 CALLDATALOAD PUSH1 0xE0 SHR DUP1 PUSH4 0x9266F47C GT PUSH2 0xDE JUMPI DUP1 PUSH4 0xD7CCD8DA GT PUSH2 0x97 JUMPI DUP1 PUSH4 0xE48CD721 GT PUSH2 0x71 JUMPI DUP1 PUSH4 0xE48CD721 EQ PUSH2 0x338 JUMPI DUP1 PUSH4 0xE93F38B8 EQ PUSH2 0x34B JUMPI DUP1 PUSH4 0xF1C1E209 EQ PUSH2 0x35E JUMPI DUP1 PUSH4 0xF2D3F1F6 EQ PUSH2 0x371 JUMPI PUSH1 0x0 DUP1 REVERT JUMPDEST DUP1 PUSH4 0xD7CCD8DA EQ PUSH2 0x2FF JUMPI DUP1 PUSH4 0xDD108267 EQ PUSH2 0x312 JUMPI DUP1 PUSH4 0xDDE11C7C EQ PUSH2 0x325 JUMPI PUSH1 0x0 DUP1 REVERT JUMPDEST DUP1 PUSH4 0x9266F47C EQ PUSH2 0x28D JUMPI DUP1 PUSH4 0x99240336 EQ PUSH2 0x2A0 JUMPI DUP1 PUSH4 0xA156E2D8 EQ PUSH2 0x2B3 JUMPI DUP1 PUSH4 0xB33CD323 EQ PUSH2 0x2C6 JUMPI DUP1 PUSH4 0xB5AE2587 EQ PUSH2 0x2D9 JUMPI DUP1 PUSH4 0xC9F97F53 EQ PUSH2 0x2EC JUMPI PUSH1 0x0 DUP1 REVERT JUMPDEST DUP1 PUSH4 0x27B5B7C3 GT PUSH2 0x130 JUMPI DUP1 PUSH4 0x27B5B7C3 EQ PUSH2 0x21B JUMPI DUP1 PUSH4 0x2CEB1E8D EQ PUSH2 0x22E JUMPI DUP1 PUSH4 0x31560E75 EQ PUSH2 0x241 JUMPI DUP1 PUSH4 0x48FD24CC EQ PUSH2 0x254 JUMPI DUP1 PUSH4 0x54852577 EQ PUSH2 0x267 JUMPI DUP1 PUSH4 0x91BA07F3 EQ PUSH2 0x27A JUMPI PUSH1 0x0 DUP1 REVERT JUMPDEST DUP1 PUSH4 0x80B53F8 EQ PUSH2 0x178 JUMPI DUP1 PUSH4 0xE58BE05 EQ PUSH2 0x1A1 JUMPI DUP1 PUSH4 0x10C5D31B EQ PUSH2 0x1B4 JUMPI DUP1 PUSH4 0x11F83E20 EQ PUSH2 0x1C7 JUMPI DUP1 PUSH4 0x14DDAFA3 EQ PUSH2 0x1DA JUMPI DUP1 PUSH4 0x1B399C99 EQ PUSH2 0x1ED JUMPI JUMPDEST PUSH1 0x0 DUP1 REVERT JUMPDEST PUSH2 0x18B PUSH2 0x186 CALLDATASIZE PUSH1 0x4 PUSH2 0x1A5C JUMP JUMPDEST PUSH2 0x384 JUMP JUMPDEST PUSH1 0x40 MLOAD PUSH2 0x198 SWAP2 SWAP1 PUSH2 0x1C16 JUMP JUMPDEST PUSH1 0x40 MLOAD DUP1 SWAP2 SUB SWAP1 RETURN JUMPDEST PUSH2 0x18B PUSH2 0x1AF CALLDATASIZE PUSH1 0x4 PUSH2 0x1D21 JUMP JUMPDEST PUSH2 0x58C JUMP JUMPDEST PUSH2 0x18B PUSH2 0x1C2 CALLDATASIZE PUSH1 0x4 PUSH2 0x1E92 JUMP JUMPDEST PUSH2 0x7A1 JUMP JUMPDEST PUSH2 0x18B PUSH2 0x1D5 CALLDATASIZE PUSH1 0x4 PUSH2 0x1FB7 JUMP JUMPDEST PUSH2 0x864 JUMP JUMPDEST PUSH2 0x18B PUSH2 0x1E8 CALLDATASIZE PUSH1 0x4 PUSH2 0x206A JUMP JUMPDEST PUSH2 0xA23 JUMP JUMPDEST PUSH2 0x202 PUSH1 0x0 DUP1 MLOAD PUSH1 0x20 PUSH2 0x26AB DUP4 CODECOPY DUP2 MLOAD SWAP2 MSTORE DUP2 JUMP JUMPDEST PUSH1 0x40 MLOAD PUSH1 0x1 PUSH1 0x1 PUSH1 0x80 SHL SUB NOT SWAP1 SWAP2 AND DUP2 MSTORE PUSH1 0x20 ADD PUSH2 0x198 JUMP JUMPDEST PUSH2 0x18B PUSH2 0x229 CALLDATASIZE PUSH1 0x4 PUSH2 0x20A2 JUMP JUMPDEST PUSH2 0xA92 JUMP JUMPDEST PUSH2 0x18B PUSH2 0x23C CALLDATASIZE PUSH1 0x4 PUSH2 0x20D7 JUMP JUMPDEST PUSH2 0xB12 JUMP JUMPDEST PUSH2 0x18B PUSH2 0x24F CALLDATASIZE PUSH1 0x4 PUSH2 0x213A JUMP JUMPDEST PUSH2 0xB81 JUMP JUMPDEST PUSH2 0x18B PUSH2 0x262 CALLDATASIZE PUSH1 0x4 PUSH2 0x2195 JUMP JUMPDEST PUSH2 0xDA7 JUMP JUMPDEST PUSH2 0x18B PUSH2 0x275 CALLDATASIZE PUSH1 0x4 PUSH2 0x21CB JUMP JUMPDEST PUSH2 0xE71 JUMP JUMPDEST PUSH2 0x18B PUSH2 0x288 CALLDATASIZE PUSH1 0x4 PUSH2 0x2203 JUMP JUMPDEST PUSH2 0xF38 JUMP JUMPDEST PUSH2 0x18B PUSH2 0x29B CALLDATASIZE PUSH1 0x4 PUSH2 0x2238 JUMP JUMPDEST PUSH2 0x100E JUMP JUMPDEST PUSH2 0x18B PUSH2 0x2AE CALLDATASIZE PUSH1 0x4 PUSH2 0x2293 JUMP JUMPDEST PUSH2 0x105A JUMP JUMPDEST PUSH2 0x18B PUSH2 0x2C1 CALLDATASIZE PUSH1 0x4 PUSH2 0x231A JUMP JUMPDEST PUSH2 0x1099 JUMP JUMPDEST PUSH2 0x18B PUSH2 0x2D4 CALLDATASIZE PUSH1 0x4 PUSH2 0x2373 JUMP JUMPDEST PUSH2 0x10F3 JUMP JUMPDEST PUSH2 0x18B PUSH2 0x2E7 CALLDATASIZE PUSH1 0x4 PUSH2 0x23A7 JUMP JUMPDEST PUSH2 0x1181 JUMP JUMPDEST PUSH2 0x18B PUSH2 0x2FA CALLDATASIZE PUSH1 0x4 PUSH2 0x23DD JUMP JUMPDEST PUSH2 0x11F3 JUMP JUMPDEST PUSH2 0x18B PUSH2 0x30D CALLDATASIZE PUSH1 0x4 PUSH2 0x2413 JUMP JUMPDEST PUSH2 0x12C7 JUMP JUMPDEST PUSH2 0x18B PUSH2 0x320 CALLDATASIZE PUSH1 0x4 PUSH2 0x2447 JUMP JUMPDEST PUSH2 0x13AB JUMP JUMPDEST PUSH2 0x18B PUSH2 0x333 CALLDATASIZE PUSH1 0x4 PUSH2 0x247F JUMP JUMPDEST PUSH2 0x141A JUMP JUMPDEST PUSH2 0x18B PUSH2 0x346 CALLDATASIZE PUSH1 0x4 PUSH2 0x24D8 JUMP JUMPDEST PUSH2 0x151A JUMP JUMPDEST PUSH2 0x18B PUSH2 0x359 CALLDATASIZE PUSH1 0x4 PUSH2 0x2570 JUMP JUMPDEST PUSH2 0x1552 JUMP JUMPDEST PUSH2 0x18B PUSH2 0x36C CALLDATASIZE PUSH1 0x4 PUSH2 0x25CB JUMP JUMPDEST PUSH2 0x1637 JUMP JUMPDEST PUSH2 0x18B PUSH2 0x37F CALLDATASIZE PUSH1 0x4 PUSH2 0x2600 JUMP JUMPDEST PUSH2 0x16B7 JUMP JUMPDEST PUSH2 0x38C PUSH2 0x17A9 JUMP JUMPDEST PUSH1 0x40 DUP1 MLOAD PUSH1 0x0 DUP1 DUP3 MSTORE PUSH1 0x20 DUP3 ADD SWAP1 SWAP3 MSTORE DUP2 PUSH2 0x3BD JUMP JUMPDEST PUSH2 0x3AA PUSH2 0x17FE JUMP JUMPDEST DUP2 MSTORE PUSH1 0x20 ADD SWAP1 PUSH1 0x1 SWAP1 SUB SWAP1 DUP2 PUSH2 0x3A2 JUMPI SWAP1 POP JUMPDEST POP PUSH1 0x40 DUP1 MLOAD PUSH1 0x1 DUP1 DUP3 MSTORE DUP2 DUP4 ADD SWAP1 SWAP3 MSTORE SWAP2 SWAP3 POP PUSH1 0x0 SWAP2 SWAP1 DUP2 PUSH1 0x20 ADD JUMPDEST PUSH2 0x3E1 PUSH2 0x183B JUMP JUMPDEST DUP2 MSTORE PUSH1 0x20 ADD SWAP1 PUSH1 0x1 SWAP1 SUB SWAP1 DUP2 PUSH2 0x3D9 JUMPI SWAP1 POP POP SWAP1 POP DUP5 DUP2 PUSH1 0x0 DUP2 MLOAD DUP2 LT PUSH2 0x40A JUMPI PUSH2 0x40A PUSH2 0x265A JUMP JUMPDEST PUSH1 0x20 MUL PUSH1 0x20 ADD ADD DUP2 SWAP1 MSTORE POP PUSH1 0x40 MLOAD DUP1 PUSH1 0x80 ADD PUSH1 0x40 MSTORE DUP1 DUP6 PUSH1 0x1 PUSH1 0x1 PUSH1 0x80 SHL SUB NOT AND DUP2 MSTORE PUSH1 0x20 ADD DUP4 DUP2 MSTORE PUSH1 0x20 ADD DUP3 DUP2 MSTORE PUSH1 0x20 ADD PUSH1 0x0 PUSH1 0x40 MLOAD DUP1 PUSH1 0x60 ADD PUSH1 0x40 MSTORE SWAP1 DUP2 PUSH1 0x0 DUP3 ADD DUP1 SLOAD PUSH2 0x459 SWAP1 PUSH2 0x2670 JUMP JUMPDEST DUP1 PUSH1 0x1F ADD PUSH1 0x20 DUP1 SWAP2 DIV MUL PUSH1 0x20 ADD PUSH1 0x40 MLOAD SWAP1 DUP2 ADD PUSH1 0x40 MSTORE DUP1 SWAP3 SWAP2 SWAP1 DUP2 DUP2 MSTORE PUSH1 0x20 ADD DUP3 DUP1 SLOAD PUSH2 0x485 SWAP1 PUSH2 0x2670 JUMP JUMPDEST DUP1 ISZERO PUSH2 0x4D2 JUMPI DUP1 PUSH1 0x1F LT PUSH2 0x4A7 JUMPI PUSH2 0x100 DUP1 DUP4 SLOAD DIV MUL DUP4 MSTORE SWAP2 PUSH1 0x20 ADD SWAP2 PUSH2 0x4D2 JUMP JUMPDEST DUP3 ADD SWAP2 SWAP1 PUSH1 0x0 MSTORE PUSH1 0x20 PUSH1 0x0 KECCAK256 SWAP1 JUMPDEST DUP2 SLOAD DUP2 MSTORE SWAP1 PUSH1 0x1 ADD SWAP1 PUSH1 0x20 ADD DUP1 DUP4 GT PUSH2 0x4B5 JUMPI DUP3 SWAP1 SUB PUSH1 0x1F AND DUP3 ADD SWAP2 JUMPDEST POP POP POP SWAP2 DUP4 MSTORE POP POP PUSH1 0x1 DUP3 ADD SLOAD PUSH1 0xFF AND ISZERO ISZERO PUSH1 0x20 DUP3 ADD MSTORE PUSH1 0x2 DUP3 ADD DUP1 SLOAD PUSH1 0x40 SWAP1 SWAP3 ADD SWAP2 PUSH2 0x4FE SWAP1 PUSH2 0x2670 JUMP JUMPDEST DUP1 PUSH1 0x1F ADD PUSH1 0x20 DUP1 SWAP2 DIV MUL PUSH1 0x20 ADD PUSH1 0x40 MLOAD SWAP1 DUP2 ADD PUSH1 0x40 MSTORE DUP1 SWAP3 SWAP2 SWAP1 DUP2 DUP2 MSTORE PUSH1 0x20 ADD DUP3 DUP1 SLOAD PUSH2 0x52A SWAP1 PUSH2 0x2670 JUMP JUMPDEST DUP1 ISZERO PUSH2 0x577 JUMPI DUP1 PUSH1 0x1F LT PUSH2 0x54C JUMPI PUSH2 0x100 DUP1 DUP4 SLOAD DIV MUL DUP4 MSTORE SWAP2 PUSH1 0x20 ADD SWAP2 PUSH2 0x577 JUMP JUMPDEST DUP3 ADD SWAP2 SWAP1 PUSH1 0x0 MSTORE PUSH1 0x20 PUSH1 0x0 KECCAK256 SWAP1 JUMPDEST DUP2 SLOAD DUP2 MSTORE SWAP1 PUSH1 0x1 ADD SWAP1 PUSH1 0x20 ADD DUP1 DUP4 GT PUSH2 0x55A JUMPI DUP3 SWAP1 SUB PUSH1 0x1F AND DUP3 ADD SWAP2 JUMPDEST POP POP POP SWAP2 SWAP1 SWAP3 MSTORE POP POP POP SWAP1 MSTORE SWAP6 SWAP5 POP POP POP POP POP JUMP JUMPDEST PUSH2 0x594 PUSH2 0x17A9 JUMP JUMPDEST PUSH1 0x40 DUP1 MLOAD PUSH1 0x0 DUP1 DUP3 MSTORE PUSH1 0x20 DUP3 ADD SWAP1 SWAP3 MSTORE DUP2 PUSH2 0x5C5 JUMP JUMPDEST PUSH2 0x5B2 PUSH2 0x17FE JUMP JUMPDEST DUP2 MSTORE PUSH1 0x20 ADD SWAP1 PUSH1 0x1 SWAP1 SUB SWAP1 DUP2 PUSH2 0x5AA JUMPI SWAP1 POP JUMPDEST POP PUSH1 0x40 DUP1 MLOAD PUSH1 0x1 DUP1 DUP3 MSTORE DUP2 DUP4 ADD SWAP1 SWAP3 MSTORE SWAP2 SWAP3 POP PUSH1 0x0 SWAP2 SWAP1 DUP2 PUSH1 0x20 ADD JUMPDEST PUSH2 0x5E9 PUSH2 0x183B JUMP JUMPDEST DUP2 MSTORE PUSH1 0x20 ADD SWAP1 PUSH1 0x1 SWAP1 SUB SWAP1 DUP2 PUSH2 0x5E1 JUMPI SWAP1 POP POP SWAP1 POP DUP4 DUP2 PUSH1 0x0 DUP2 MLOAD DUP2 LT PUSH2 0x612 JUMPI PUSH2 0x612 PUSH2 0x265A JUMP JUMPDEST PUSH1 0x20 MUL PUSH1 0x20 ADD ADD DUP2 SWAP1 MSTORE POP PUSH1 0x40 MLOAD DUP1 PUSH1 0x80 ADD PUSH1 0x40 MSTORE DUP1 PUSH1 0x0 DUP1 MLOAD PUSH1 0x20 PUSH2 0x26AB DUP4 CODECOPY DUP2 MLOAD SWAP2 MSTORE PUSH1 0x1 PUSH1 0x1 PUSH1 0x80 SHL SUB NOT AND DUP2 MSTORE PUSH1 0x20 ADD DUP4 DUP2 MSTORE PUSH1 0x20 ADD DUP3 DUP2 MSTORE PUSH1 0x20 ADD PUSH1 0x0 PUSH1 0x40 MLOAD DUP1 PUSH1 0x60 ADD PUSH1 0x40 MSTORE SWAP1 DUP2 PUSH1 0x0 DUP3 ADD DUP1 SLOAD PUSH2 0x66F SWAP1 PUSH2 0x2670 JUMP JUMPDEST DUP1 PUSH1 0x1F ADD PUSH1 0x20 DUP1 SWAP2 DIV MUL PUSH1 0x20 ADD PUSH1 0x40 MLOAD SWAP1 DUP2 ADD PUSH1 0x40 MSTORE DUP1 SWAP3 SWAP2 SWAP1 DUP2 DUP2 MSTORE PUSH1 0x20 ADD DUP3 DUP1 SLOAD PUSH2 0x69B SWAP1 PUSH2 0x2670 JUMP JUMPDEST DUP1 ISZERO PUSH2 0x6E8 JUMPI DUP1 PUSH1 0x1F LT PUSH2 0x6BD JUMPI PUSH2 0x100 DUP1 DUP4 SLOAD DIV MUL DUP4 MSTORE SWAP2 PUSH1 0x20 ADD SWAP2 PUSH2 0x6E8 JUMP JUMPDEST DUP3 ADD SWAP2 SWAP1 PUSH1 0x0 MSTORE PUSH1 0x20 PUSH1 0x0 KECCAK256 SWAP1 JUMPDEST DUP2 SLOAD DUP2 MSTORE SWAP1 PUSH1 0x1 ADD SWAP1 PUSH1 0x20 ADD DUP1 DUP4 GT PUSH2 0x6CB JUMPI DUP3 SWAP1 SUB PUSH1 0x1F AND DUP3 ADD SWAP2 JUMPDEST POP POP POP SWAP2 DUP4 MSTORE POP POP PUSH1 0x1 DUP3 ADD SLOAD PUSH1 0xFF AND ISZERO ISZERO PUSH1 0x20 DUP3 ADD MSTORE PUSH1 0x2 DUP3 ADD DUP1 SLOAD PUSH1 0x40 SWAP1 SWAP3 ADD SWAP2 PUSH2 0x714 SWAP1 PUSH2 0x2670 JUMP JUMPDEST DUP1 PUSH1 0x1F ADD PUSH1 0x20 DUP1 SWAP2 DIV MUL PUSH1 0x20 ADD PUSH1 0x40 MLOAD SWAP1 DUP2 ADD PUSH1 0x40 MSTORE DUP1 SWAP3 SWAP2 SWAP1 DUP2 DUP2 MSTORE PUSH1 0x20 ADD DUP3 DUP1 SLOAD PUSH2 0x740 SWAP1 PUSH2 0x2670 JUMP JUMPDEST DUP1 ISZERO PUSH2 0x78D JUMPI DUP1 PUSH1 0x1F LT PUSH2 0x762 JUMPI PUSH2 0x100 DUP1 DUP4 SLOAD DIV MUL DUP4 MSTORE SWAP2 PUSH1 0x20 ADD SWAP2 PUSH2 0x78D JUMP JUMPDEST DUP3 ADD SWAP2 SWAP1 PUSH1 0x0 MSTORE PUSH1 0x20 PUSH1 0x0 KECCAK256 SWAP1 JUMPDEST DUP2 SLOAD DUP2 MSTORE SWAP1 PUSH1 0x1 ADD SWAP1 PUSH1 0x20 ADD DUP1 DUP4 GT PUSH2 0x770 JUMPI DUP3 SWAP1 SUB PUSH1 0x1F AND DUP3 ADD SWAP2 JUMPDEST POP POP POP SWAP2 SWAP1 SWAP3 MSTORE POP POP POP SWAP1 MSTORE SWAP5 SWAP4 POP POP POP POP JUMP JUMPDEST PUSH2 0x7A9 PUSH2 0x17A9 JUMP JUMPDEST PUSH1 0x40 DUP1 MLOAD PUSH1 0x1 DUP1 DUP3 MSTORE DUP2 DUP4 ADD SWAP1 SWAP3 MSTORE PUSH1 0x0 SWAP2 DUP2 PUSH1 0x20 ADD JUMPDEST PUSH2 0x7C8 PUSH2 0x17FE JUMP JUMPDEST DUP2 MSTORE PUSH1 0x20 ADD SWAP1 PUSH1 0x1 SWAP1 SUB SWAP1 DUP2 PUSH2 0x7C0 JUMPI SWAP1 POP POP SWAP1 POP DUP5 DUP2 PUSH1 0x0 DUP2 MLOAD DUP2 LT PUSH2 0x7F1 JUMPI PUSH2 0x7F1 PUSH2 0x265A JUMP JUMPDEST PUSH1 0x20 SWAP1 DUP2 MUL SWAP2 SWAP1 SWAP2 ADD DUP2 ADD SWAP2 SWAP1 SWAP2 MSTORE PUSH1 0x40 DUP1 MLOAD PUSH1 0x0 DUP1 DUP3 MSTORE SWAP3 DUP2 ADD SWAP1 SWAP2 MSTORE DUP2 PUSH2 0x830 JUMP JUMPDEST PUSH2 0x81D PUSH2 0x183B JUMP JUMPDEST DUP2 MSTORE PUSH1 0x20 ADD SWAP1 PUSH1 0x1 SWAP1 SUB SWAP1 DUP2 PUSH2 0x815 JUMPI SWAP1 POP JUMPDEST POP PUSH1 0x40 DUP1 MLOAD PUSH1 0x80 DUP2 ADD DUP3 MSTORE PUSH1 0x1 PUSH1 0x1 PUSH1 0x80 SHL SUB NOT DUP8 AND DUP2 MSTORE PUSH1 0x20 DUP2 ADD SWAP5 SWAP1 SWAP5 MSTORE DUP4 ADD MSTORE POP PUSH1 0x60 DUP2 ADD DUP5 SWAP1 MSTORE SWAP1 POP SWAP4 SWAP3 POP POP POP JUMP JUMPDEST PUSH2 0x86C PUSH2 0x17A9 JUMP JUMPDEST PUSH1 0x40 DUP1 MLOAD PUSH1 0x0 DUP1 DUP3 MSTORE PUSH1 0x20 DUP3 ADD SWAP1 SWAP3 MSTORE DUP2 PUSH2 0x89D JUMP JUMPDEST PUSH2 0x88A PUSH2 0x183B JUMP JUMPDEST DUP2 MSTORE PUSH1 0x20 ADD SWAP1 PUSH1 0x1 SWAP1 SUB SWAP1 DUP2 PUSH2 0x882 JUMPI SWAP1 POP JUMPDEST POP SWAP1 POP PUSH1 0x40 MLOAD DUP1 PUSH1 0x80 ADD PUSH1 0x40 MSTORE DUP1 PUSH1 0x0 DUP1 MLOAD PUSH1 0x20 PUSH2 0x26AB DUP4 CODECOPY DUP2 MLOAD SWAP2 MSTORE PUSH1 0x1 PUSH1 0x1 PUSH1 0x80 SHL SUB NOT AND DUP2 MSTORE PUSH1 0x20 ADD DUP5 DUP2 MSTORE PUSH1 0x20 ADD DUP3 DUP2 MSTORE PUSH1 0x20 ADD PUSH1 0x0 PUSH1 0x40 MLOAD DUP1 PUSH1 0x60 ADD PUSH1 0x40 MSTORE SWAP1 DUP2 PUSH1 0x0 DUP3 ADD DUP1 SLOAD PUSH2 0x8F2 SWAP1 PUSH2 0x2670 JUMP JUMPDEST DUP1 PUSH1 0x1F ADD PUSH1 0x20 DUP1 SWAP2 DIV MUL PUSH1 0x20 ADD PUSH1 0x40 MLOAD SWAP1 DUP2 ADD PUSH1 0x40 MSTORE DUP1 SWAP3 SWAP2 SWAP1 DUP2 DUP2 MSTORE PUSH1 0x20 ADD DUP3 DUP1 SLOAD PUSH2 0x91E SWAP1 PUSH2 0x2670 JUMP JUMPDEST DUP1 ISZERO PUSH2 0x96B JUMPI DUP1 PUSH1 0x1F LT PUSH2 0x940 JUMPI PUSH2 0x100 DUP1 DUP4 SLOAD DIV MUL DUP4 MSTORE SWAP2 PUSH1 0x20 ADD SWAP2 PUSH2 0x96B JUMP JUMPDEST DUP3 ADD SWAP2 SWAP1 PUSH1 0x0 MSTORE PUSH1 0x20 PUSH1 0x0 KECCAK256 SWAP1 JUMPDEST DUP2 SLOAD DUP2 MSTORE SWAP1 PUSH1 0x1 ADD SWAP1 PUSH1 0x20 ADD DUP1 DUP4 GT PUSH2 0x94E JUMPI DUP3 SWAP1 SUB PUSH1 0x1F AND DUP3 ADD SWAP2 JUMPDEST POP POP POP SWAP2 DUP4 MSTORE POP POP PUSH1 0x1 DUP3 ADD SLOAD PUSH1 0xFF AND ISZERO ISZERO PUSH1 0x20 DUP3 ADD MSTORE PUSH1 0x2 DUP3 ADD DUP1 SLOAD PUSH1 0x40 SWAP1 SWAP3 ADD SWAP2 PUSH2 0x997 SWAP1 PUSH2 0x2670 JUMP JUMPDEST DUP1 PUSH1 0x1F ADD PUSH1 0x20 DUP1 SWAP2 DIV MUL PUSH1 0x20 ADD PUSH1 0x40 MLOAD SWAP1 DUP2 ADD PUSH1 0x40 MSTORE DUP1 SWAP3 SWAP2 SWAP1 DUP2 DUP2 MSTORE PUSH1 0x20 ADD DUP3 DUP1 SLOAD PUSH2 0x9C3 SWAP1 PUSH2 0x2670 JUMP JUMPDEST DUP1 ISZERO PUSH2 0xA10 JUMPI DUP1 PUSH1 0x1F LT PUSH2 0x9E5 JUMPI PUSH2 0x100 DUP1 DUP4 SLOAD DIV MUL DUP4 MSTORE SWAP2 PUSH1 0x20 ADD SWAP2 PUSH2 0xA10 JUMP JUMPDEST DUP3 ADD SWAP2 SWAP1 PUSH1 0x0 MSTORE PUSH1 0x20 PUSH1 0x0 KECCAK256 SWAP1 JUMPDEST DUP2 SLOAD DUP2 MSTORE SWAP1 PUSH1 0x1 ADD SWAP1 PUSH1 0x20 ADD DUP1 DUP4 GT PUSH2 0x9F3 JUMPI DUP3 SWAP1 SUB PUSH1 0x1F AND DUP3 ADD SWAP2 JUMPDEST POP POP POP SWAP2 SWAP1 SWAP3 MSTORE POP POP POP SWAP1 MSTORE SWAP4 SWAP3 POP POP POP JUMP JUMPDEST PUSH2 0xA2B PUSH2 0x17A9 JUMP JUMPDEST PUSH1 0x40 DUP1 MLOAD PUSH1 0x0 DUP1 DUP3 MSTORE PUSH1 0x20 DUP3 ADD SWAP1 SWAP3 MSTORE DUP2 PUSH2 0xA5C JUMP JUMPDEST PUSH2 0xA49 PUSH2 0x17FE JUMP JUMPDEST DUP2 MSTORE PUSH1 0x20 ADD SWAP1 PUSH1 0x1 SWAP1 SUB SWAP1 DUP2 PUSH2 0xA41 JUMPI SWAP1 POP JUMPDEST POP PUSH1 0x40 DUP1 MLOAD PUSH1 0x80 DUP2 ADD DUP3 MSTORE PUSH1 0x1 PUSH1 0x1 PUSH1 0x80 SHL SUB NOT DUP7 AND DUP2 MSTORE PUSH1 0x20 DUP2 ADD SWAP3 SWAP1 SWAP3 MSTORE DUP2 ADD DUP7 SWAP1 MSTORE PUSH1 0x60 DUP2 ADD DUP6 SWAP1 MSTORE SWAP2 POP POP SWAP4 SWAP3 POP POP POP JUMP JUMPDEST PUSH2 0xA9A PUSH2 0x17A9 JUMP JUMPDEST PUSH1 0x40 DUP1 MLOAD PUSH1 0x0 DUP1 DUP3 MSTORE PUSH1 0x20 DUP3 ADD SWAP1 SWAP3 MSTORE DUP2 PUSH2 0xACB JUMP JUMPDEST PUSH2 0xAB8 PUSH2 0x183B JUMP JUMPDEST DUP2 MSTORE PUSH1 0x20 ADD SWAP1 PUSH1 0x1 SWAP1 SUB SWAP1 DUP2 PUSH2 0xAB0 JUMPI SWAP1 POP JUMPDEST POP SWAP1 POP PUSH1 0x40 MLOAD DUP1 PUSH1 0x80 ADD PUSH1 0x40 MSTORE DUP1 DUP5 PUSH1 0x1 PUSH1 0x1 PUSH1 0x80 SHL SUB NOT AND DUP2 MSTORE PUSH1 0x20 ADD DUP6 DUP2 MSTORE PUSH1 0x20 ADD DUP3 DUP2 MSTORE PUSH1 0x20 ADD PUSH1 0x0 PUSH1 0x40 MLOAD DUP1 PUSH1 0x60 ADD PUSH1 0x40 MSTORE SWAP1 DUP2 PUSH1 0x0 DUP3 ADD DUP1 SLOAD PUSH2 0x66F SWAP1 PUSH2 0x2670 JUMP JUMPDEST PUSH2 0xB1A PUSH2 0x17A9 JUMP JUMPDEST PUSH1 0x40 DUP1 MLOAD PUSH1 0x0 DUP1 DUP3 MSTORE PUSH1 0x20 DUP3 ADD SWAP1 SWAP3 MSTORE DUP2 PUSH2 0xB4B JUMP JUMPDEST PUSH2 0xB38 PUSH2 0x183B JUMP JUMPDEST DUP2 MSTORE PUSH1 0x20 ADD SWAP1 PUSH1 0x1 SWAP1 SUB SWAP1 DUP2 PUSH2 0xB30 JUMPI SWAP1 POP JUMPDEST POP PUSH1 0x40 DUP1 MLOAD PUSH1 0x80 DUP2 ADD DUP3 MSTORE PUSH16 0xB8E2054F8A912367E38A22CE773328FF PUSH1 0x80 SHL DUP2 MSTORE PUSH1 0x20 DUP2 ADD SWAP7 SWAP1 SWAP7 MSTORE DUP6 ADD MSTORE POP POP PUSH1 0x60 DUP3 ADD MSTORE SWAP1 JUMP JUMPDEST PUSH2 0xB89 PUSH2 0x17A9 JUMP JUMPDEST PUSH1 0x40 DUP1 MLOAD PUSH1 0x1 DUP1 DUP3 MSTORE DUP2 DUP4 ADD SWAP1 SWAP3 MSTORE PUSH1 0x0 SWAP2 DUP2 PUSH1 0x20 ADD JUMPDEST PUSH2 0xBA8 PUSH2 0x17FE JUMP JUMPDEST DUP2 MSTORE PUSH1 0x20 ADD SWAP1 PUSH1 0x1 SWAP1 SUB SWAP1 DUP2 PUSH2 0xBA0 JUMPI SWAP1 POP POP SWAP1 POP DUP5 DUP2 PUSH1 0x0 DUP2 MLOAD DUP2 LT PUSH2 0xBD1 JUMPI PUSH2 0xBD1 PUSH2 0x265A JUMP JUMPDEST PUSH1 0x20 SWAP1 DUP2 MUL SWAP2 SWAP1 SWAP2 ADD ADD MSTORE PUSH1 0x40 DUP1 MLOAD PUSH1 0x1 DUP1 DUP3 MSTORE DUP2 DUP4 ADD SWAP1 SWAP3 MSTORE PUSH1 0x0 SWAP2 DUP2 PUSH1 0x20 ADD JUMPDEST PUSH2 0xBFB PUSH2 0x183B JUMP JUMPDEST DUP2 MSTORE PUSH1 0x20 ADD SWAP1 PUSH1 0x1 SWAP1 SUB SWAP1 DUP2 PUSH2 0xBF3 JUMPI SWAP1 POP POP SWAP1 POP DUP5 DUP2 PUSH1 0x0 DUP2 MLOAD DUP2 LT PUSH2 0xC24 JUMPI PUSH2 0xC24 PUSH2 0x265A JUMP JUMPDEST PUSH1 0x20 MUL PUSH1 0x20 ADD ADD DUP2 SWAP1 MSTORE POP PUSH1 0x40 MLOAD DUP1 PUSH1 0x80 ADD PUSH1 0x40 MSTORE DUP1 DUP6 PUSH1 0x1 PUSH1 0x1 PUSH1 0x80 SHL SUB NOT AND DUP2 MSTORE PUSH1 0x20 ADD DUP4 DUP2 MSTORE PUSH1 0x20 ADD DUP3 DUP2 MSTORE PUSH1 0x20 ADD PUSH1 0x0 PUSH1 0x40 MLOAD DUP1 PUSH1 0x60 ADD PUSH1 0x40 MSTORE SWAP1 DUP2 PUSH1 0x0 DUP3 ADD DUP1 SLOAD PUSH2 0xC73 SWAP1 PUSH2 0x2670 JUMP JUMPDEST DUP1 PUSH1 0x1F ADD PUSH1 0x20 DUP1 SWAP2 DIV MUL PUSH1 0x20 ADD PUSH1 0x40 MLOAD SWAP1 DUP2 ADD PUSH1 0x40 MSTORE DUP1 SWAP3 SWAP2 SWAP1 DUP2 DUP2 MSTORE PUSH1 0x20 ADD DUP3 DUP1 SLOAD PUSH2 0xC9F SWAP1 PUSH2 0x2670 JUMP JUMPDEST DUP1 ISZERO PUSH2 0xCEC JUMPI DUP1 PUSH1 0x1F LT PUSH2 0xCC1 JUMPI PUSH2 0x100 DUP1 DUP4 SLOAD DIV MUL DUP4 MSTORE SWAP2 PUSH1 0x20 ADD SWAP2 PUSH2 0xCEC JUMP JUMPDEST DUP3 ADD SWAP2 SWAP1 PUSH1 0x0 MSTORE PUSH1 0x20 PUSH1 0x0 KECCAK256 SWAP1 JUMPDEST DUP2 SLOAD DUP2 MSTORE SWAP1 PUSH1 0x1 ADD SWAP1 PUSH1 0x20 ADD DUP1 DUP4 GT PUSH2 0xCCF JUMPI DUP3 SWAP1 SUB PUSH1 0x1F AND DUP3 ADD SWAP2 JUMPDEST POP POP POP SWAP2 DUP4 MSTORE POP POP PUSH1 0x1 DUP3 ADD SLOAD PUSH1 0xFF AND ISZERO ISZERO PUSH1 0x20 DUP3 ADD MSTORE PUSH1 0x2 DUP3 ADD DUP1 SLOAD PUSH1 0x40 SWAP1 SWAP3 ADD SWAP2 PUSH2 0xD18 SWAP1 PUSH2 0x2670 JUMP JUMPDEST DUP1 PUSH1 0x1F ADD PUSH1 0x20 DUP1 SWAP2 DIV MUL PUSH1 0x20 ADD PUSH1 0x40 MLOAD SWAP1 DUP2 ADD PUSH1 0x40 MSTORE DUP1 SWAP3 SWAP2 SWAP1 DUP2 DUP2 MSTORE PUSH1 0x20 ADD DUP3 DUP1 SLOAD PUSH2 0xD44 SWAP1 PUSH2 0x2670 JUMP JUMPDEST DUP1 ISZERO PUSH2 0xD91 JUMPI DUP1 PUSH1 0x1F LT PUSH2 0xD66 JUMPI PUSH2 0x100 DUP1 DUP4 SLOAD DIV MUL DUP4 MSTORE SWAP2 PUSH1 0x20 ADD SWAP2 PUSH2 0xD91 JUMP JUMPDEST DUP3 ADD SWAP2 SWAP1 PUSH1 0x0 MSTORE PUSH1 0x20 PUSH1 0x0 KECCAK256 SWAP1 JUMPDEST DUP2 SLOAD DUP2 MSTORE SWAP1 PUSH1 0x1 ADD SWAP1 PUSH1 0x20 ADD DUP1 DUP4 GT PUSH2 0xD74 JUMPI DUP3 SWAP1 SUB PUSH1 0x1F AND DUP3 ADD SWAP2 JUMPDEST POP POP POP SWAP2 SWAP1 SWAP3 MSTORE POP POP POP SWAP1 MSTORE SWAP7 SWAP6 POP POP POP POP POP POP JUMP JUMPDEST PUSH2 0xDAF PUSH2 0x17A9 JUMP JUMPDEST PUSH1 0x40 DUP1 MLOAD PUSH1 0x1 DUP1 DUP3 MSTORE DUP2 DUP4 ADD SWAP1 SWAP3 MSTORE PUSH1 0x0 SWAP2 DUP2 PUSH1 0x20 ADD JUMPDEST PUSH2 0xDCE PUSH2 0x17FE JUMP JUMPDEST DUP2 MSTORE PUSH1 0x20 ADD SWAP1 PUSH1 0x1 SWAP1 SUB SWAP1 DUP2 PUSH2 0xDC6 JUMPI SWAP1 POP POP SWAP1 POP DUP4 DUP2 PUSH1 0x0 DUP2 MLOAD DUP2 LT PUSH2 0xDF7 JUMPI PUSH2 0xDF7 PUSH2 0x265A JUMP JUMPDEST PUSH1 0x20 SWAP1 DUP2 MUL SWAP2 SWAP1 SWAP2 ADD DUP2 ADD SWAP2 SWAP1 SWAP2 MSTORE PUSH1 0x40 DUP1 MLOAD PUSH1 0x0 DUP1 DUP3 MSTORE SWAP3 DUP2 ADD SWAP1 SWAP2 MSTORE DUP2 PUSH2 0xE36 JUMP JUMPDEST PUSH2 0xE23 PUSH2 0x183B JUMP JUMPDEST DUP2 MSTORE PUSH1 0x20 ADD SWAP1 PUSH1 0x1 SWAP1 SUB SWAP1 DUP2 PUSH2 0xE1B JUMPI SWAP1 POP JUMPDEST POP PUSH1 0x40 DUP1 MLOAD PUSH1 0x80 DUP2 ADD DUP3 MSTORE PUSH16 0xB8E2054F8A912367E38A22CE773328FF PUSH1 0x80 SHL DUP2 MSTORE PUSH1 0x20 DUP2 ADD SWAP5 SWAP1 SWAP5 MSTORE DUP4 ADD MSTORE POP PUSH1 0x60 DUP2 ADD SWAP3 SWAP1 SWAP3 MSTORE POP SWAP2 SWAP1 POP JUMP JUMPDEST PUSH2 0xE79 PUSH2 0x17A9 JUMP JUMPDEST PUSH1 0x40 DUP1 MLOAD PUSH1 0x0 DUP1 DUP3 MSTORE PUSH1 0x20 DUP3 ADD SWAP1 SWAP3 MSTORE DUP2 PUSH2 0xEAA JUMP JUMPDEST PUSH2 0xE97 PUSH2 0x17FE JUMP JUMPDEST DUP2 MSTORE PUSH1 0x20 ADD SWAP1 PUSH1 0x1 SWAP1 SUB SWAP1 DUP2 PUSH2 0xE8F JUMPI SWAP1 POP JUMPDEST POP PUSH1 0x40 DUP1 MLOAD PUSH1 0x1 DUP1 DUP3 MSTORE DUP2 DUP4 ADD SWAP1 SWAP3 MSTORE SWAP2 SWAP3 POP PUSH1 0x0 SWAP2 SWAP1 DUP2 PUSH1 0x20 ADD JUMPDEST PUSH2 0xECE PUSH2 0x183B JUMP JUMPDEST DUP2 MSTORE PUSH1 0x20 ADD SWAP1 PUSH1 0x1 SWAP1 SUB SWAP1 DUP2 PUSH2 0xEC6 JUMPI SWAP1 POP POP SWAP1 POP DUP6 DUP2 PUSH1 0x0 DUP2 MLOAD DUP2 LT PUSH2 0xEF7 JUMPI PUSH2 0xEF7 PUSH2 0x265A JUMP JUMPDEST PUSH1 0x20 MUL PUSH1 0x20 ADD ADD DUP2 SWAP1 MSTORE POP PUSH1 0x40 MLOAD DUP1 PUSH1 0x80 ADD PUSH1 0x40 MSTORE DUP1 DUP6 PUSH1 0x1 PUSH1 0x1 PUSH1 0x80 SHL SUB NOT AND DUP2 MSTORE PUSH1 0x20 ADD DUP4 DUP2 MSTORE PUSH1 0x20 ADD DUP3 DUP2 MSTORE PUSH1 0x20 ADD DUP7 DUP2 MSTORE POP SWAP3 POP POP POP SWAP4 SWAP3 POP POP POP JUMP JUMPDEST PUSH2 0xF40 PUSH2 0x17A9 JUMP JUMPDEST PUSH1 0x40 DUP1 MLOAD PUSH1 0x1 DUP1 DUP3 MSTORE DUP2 DUP4 ADD SWAP1 SWAP3 MSTORE PUSH1 0x0 SWAP2 DUP2 PUSH1 0x20 ADD JUMPDEST PUSH2 0xF5F PUSH2 0x17FE JUMP JUMPDEST DUP2 MSTORE PUSH1 0x20 ADD SWAP1 PUSH1 0x1 SWAP1 SUB SWAP1 DUP2 PUSH2 0xF57 JUMPI SWAP1 POP POP SWAP1 POP DUP4 DUP2 PUSH1 0x0 DUP2 MLOAD DUP2 LT PUSH2 0xF88 JUMPI PUSH2 0xF88 PUSH2 0x265A JUMP JUMPDEST PUSH1 0x20 SWAP1 DUP2 MUL SWAP2 SWAP1 SWAP2 ADD DUP2 ADD SWAP2 SWAP1 SWAP2 MSTORE PUSH1 0x40 DUP1 MLOAD PUSH1 0x0 DUP1 DUP3 MSTORE SWAP3 DUP2 ADD SWAP1 SWAP2 MSTORE DUP2 PUSH2 0xFC7 JUMP JUMPDEST PUSH2 0xFB4 PUSH2 0x183B JUMP JUMPDEST DUP2 MSTORE PUSH1 0x20 ADD SWAP1 PUSH1 0x1 SWAP1 SUB SWAP1 DUP2 PUSH2 0xFAC JUMPI SWAP1 POP JUMPDEST POP SWAP1 POP PUSH1 0x40 MLOAD DUP1 PUSH1 0x80 ADD PUSH1 0x40 MSTORE DUP1 DUP6 PUSH1 0x1 PUSH1 0x1 PUSH1 0x80 SHL SUB NOT AND DUP2 MSTORE PUSH1 0x20 ADD DUP4 DUP2 MSTORE PUSH1 0x20 ADD DUP3 DUP2 MSTORE PUSH1 0x20 ADD PUSH1 0x0 PUSH1 0x40 MLOAD DUP1 PUSH1 0x60 ADD PUSH1 0x40 MSTORE SWAP1 DUP2 PUSH1 0x0 DUP3 ADD DUP1 SLOAD PUSH2 0x459 SWAP1 PUSH2 0x2670 JUMP JUMPDEST PUSH2 0x1016 PUSH2 0x17A9 JUMP JUMPDEST PUSH1 0x40 MLOAD DUP1 PUSH1 0x80 ADD PUSH1 0x40 MSTORE DUP1 DUP4 PUSH1 0x1 PUSH1 0x1 PUSH1 0x80 SHL SUB NOT AND DUP2 MSTORE PUSH1 0x20 ADD DUP6 DUP2 MSTORE PUSH1 0x20 ADD DUP5 DUP2 MSTORE PUSH1 0x20 ADD PUSH1 0x0 PUSH1 0x40 MLOAD DUP1 PUSH1 0x60 ADD PUSH1 0x40 MSTORE SWAP1 DUP2 PUSH1 0x0 DUP3 ADD DUP1 SLOAD PUSH2 0x66F SWAP1 PUSH2 0x2670 JUMP JUMPDEST PUSH2 0x1062 PUSH2 0x17A9 JUMP JUMPDEST POP PUSH1 0x40 DUP1 MLOAD PUSH1 0x80 DUP2 ADD DUP3 MSTORE PUSH16 0xB8E2054F8A912367E38A22CE773328FF PUSH1 0x80 SHL DUP2 MSTORE PUSH1 0x20 DUP2 ADD SWAP5 SWAP1 SWAP5 MSTORE DUP4 ADD SWAP2 SWAP1 SWAP2 MSTORE PUSH1 0x60 DUP3 ADD MSTORE SWAP1 JUMP JUMPDEST PUSH2 0x10A1 PUSH2 0x17A9 JUMP JUMPDEST PUSH1 0x40 MLOAD DUP1 PUSH1 0x80 ADD PUSH1 0x40 MSTORE DUP1 PUSH1 0x0 DUP1 MLOAD PUSH1 0x20 PUSH2 0x26AB DUP4 CODECOPY DUP2 MLOAD SWAP2 MSTORE PUSH1 0x1 PUSH1 0x1 PUSH1 0x80 SHL SUB NOT AND DUP2 MSTORE PUSH1 0x20 ADD DUP5 DUP2 MSTORE PUSH1 0x20 ADD DUP4 DUP2 MSTORE PUSH1 0x20 ADD PUSH1 0x0 PUSH1 0x40 MLOAD DUP1 PUSH1 0x60 ADD PUSH1 0x40 MSTORE SWAP1 DUP2 PUSH1 0x0 DUP3 ADD DUP1 SLOAD PUSH2 0x8F2 SWAP1 PUSH2 0x2670 JUMP JUMPDEST PUSH2 0x10FB PUSH2 0x17A9 JUMP JUMPDEST PUSH1 0x40 DUP1 MLOAD PUSH1 0x0 DUP1 DUP3 MSTORE PUSH1 0x20 DUP3 ADD SWAP1 SWAP3 MSTORE DUP2 PUSH2 0x112C JUMP JUMPDEST PUSH2 0x1119 PUSH2 0x17FE JUMP JUMPDEST DUP2 MSTORE PUSH1 0x20 ADD SWAP1 PUSH1 0x1 SWAP1 SUB SWAP1 DUP2 PUSH2 0x1111 JUMPI SWAP1 POP JUMPDEST POP SWAP1 POP PUSH1 0x40 MLOAD DUP1 PUSH1 0x80 ADD PUSH1 0x40 MSTORE DUP1 PUSH1 0x0 DUP1 MLOAD PUSH1 0x20 PUSH2 0x26AB DUP4 CODECOPY DUP2 MLOAD SWAP2 MSTORE PUSH1 0x1 PUSH1 0x1 PUSH1 0x80 SHL SUB NOT AND DUP2 MSTORE PUSH1 0x20 ADD DUP3 DUP2 MSTORE PUSH1 0x20 ADD DUP5 DUP2 MSTORE PUSH1 0x20 ADD PUSH1 0x0 PUSH1 0x40 MLOAD DUP1 PUSH1 0x60 ADD PUSH1 0x40 MSTORE SWAP1 DUP2 PUSH1 0x0 DUP3 ADD DUP1 SLOAD PUSH2 0x8F2 SWAP1 PUSH2 0x2670 JUMP JUMPDEST PUSH2 0x1189 PUSH2 0x17A9 JUMP JUMPDEST PUSH1 0x40 DUP1 MLOAD PUSH1 0x0 DUP1 DUP3 MSTORE PUSH1 0x20 DUP3 ADD SWAP1 SWAP3 MSTORE DUP2 PUSH2 0x11BA JUMP JUMPDEST PUSH2 0x11A7 PUSH2 0x17FE JUMP JUMPDEST DUP2 MSTORE PUSH1 0x20 ADD SWAP1 PUSH1 0x1 SWAP1 SUB SWAP1 DUP2 PUSH2 0x119F JUMPI SWAP1 POP JUMPDEST POP PUSH1 0x40 DUP1 MLOAD PUSH1 0x80 DUP2 ADD DUP3 MSTORE PUSH16 0xB8E2054F8A912367E38A22CE773328FF PUSH1 0x80 SHL DUP2 MSTORE PUSH1 0x20 DUP2 ADD SWAP3 SWAP1 SWAP3 MSTORE DUP2 ADD SWAP5 SWAP1 SWAP5 MSTORE POP POP PUSH1 0x60 DUP3 ADD MSTORE SWAP1 JUMP JUMPDEST PUSH2 0x11FB PUSH2 0x17A9 JUMP JUMPDEST PUSH1 0x40 DUP1 MLOAD PUSH1 0x0 DUP1 DUP3 MSTORE PUSH1 0x20 DUP3 ADD SWAP1 SWAP3 MSTORE DUP2 PUSH2 0x122C JUMP JUMPDEST PUSH2 0x1219 PUSH2 0x17FE JUMP JUMPDEST DUP2 MSTORE PUSH1 0x20 ADD SWAP1 PUSH1 0x1 SWAP1 SUB SWAP1 DUP2 PUSH2 0x1211 JUMPI SWAP1 POP JUMPDEST POP PUSH1 0x40 DUP1 MLOAD PUSH1 0x1 DUP1 DUP3 MSTORE DUP2 DUP4 ADD SWAP1 SWAP3 MSTORE SWAP2 SWAP3 POP PUSH1 0x0 SWAP2 SWAP1 DUP2 PUSH1 0x20 ADD JUMPDEST PUSH2 0x1250 PUSH2 0x183B JUMP JUMPDEST DUP2 MSTORE PUSH1 0x20 ADD SWAP1 PUSH1 0x1 SWAP1 SUB SWAP1 DUP2 PUSH2 0x1248 JUMPI SWAP1 POP POP SWAP1 POP DUP5 DUP2 PUSH1 0x0 DUP2 MLOAD DUP2 LT PUSH2 0x1279 JUMPI PUSH2 0x1279 PUSH2 0x265A JUMP JUMPDEST PUSH1 0x20 MUL PUSH1 0x20 ADD ADD DUP2 SWAP1 MSTORE POP PUSH1 0x40 MLOAD DUP1 PUSH1 0x80 ADD PUSH1 0x40 MSTORE DUP1 PUSH1 0x0 DUP1 MLOAD PUSH1 0x20 PUSH2 0x26AB DUP4 CODECOPY DUP2 MLOAD SWAP2 MSTORE PUSH1 0x1 PUSH1 0x1 PUSH1 0x80 SHL SUB NOT AND DUP2 MSTORE PUSH1 0x20 ADD DUP4 DUP2 MSTORE PUSH1 0x20 ADD DUP3 DUP2 MSTORE PUSH1 0x20 ADD DUP6 DUP2 MSTORE POP SWAP3 POP POP POP SWAP3 SWAP2 POP POP JUMP JUMPDEST PUSH2 0x12CF PUSH2 0x17A9 JUMP JUMPDEST PUSH1 0x40 DUP1 MLOAD PUSH1 0x1 DUP1 DUP3 MSTORE DUP2 DUP4 ADD SWAP1 SWAP3 MSTORE PUSH1 0x0 SWAP2 DUP2 PUSH1 0x20 ADD JUMPDEST PUSH2 0x12EE PUSH2 0x17FE JUMP JUMPDEST DUP2 MSTORE PUSH1 0x20 ADD SWAP1 PUSH1 0x1 SWAP1 SUB SWAP1 DUP2 PUSH2 0x12E6 JUMPI SWAP1 POP POP SWAP1 POP DUP3 DUP2 PUSH1 0x0 DUP2 MLOAD DUP2 LT PUSH2 0x1317 JUMPI PUSH2 0x1317 PUSH2 0x265A JUMP JUMPDEST PUSH1 0x20 SWAP1 DUP2 MUL SWAP2 SWAP1 SWAP2 ADD DUP2 ADD SWAP2 SWAP1 SWAP2 MSTORE PUSH1 0x40 DUP1 MLOAD PUSH1 0x0 DUP1 DUP3 MSTORE SWAP3 DUP2 ADD SWAP1 SWAP2 MSTORE DUP2 PUSH2 0x1356 JUMP JUMPDEST PUSH2 0x1343 PUSH2 0x183B JUMP JUMPDEST DUP2 MSTORE PUSH1 0x20 ADD SWAP1 PUSH1 0x1 SWAP1 SUB SWAP1 DUP2 PUSH2 0x133B JUMPI SWAP1 POP JUMPDEST POP SWAP1 POP PUSH1 0x40 MLOAD DUP1 PUSH1 0x80 ADD PUSH1 0x40 MSTORE DUP1 PUSH1 0x0 DUP1 MLOAD PUSH1 0x20 PUSH2 0x26AB DUP4 CODECOPY DUP2 MLOAD SWAP2 MSTORE PUSH1 0x1 PUSH1 0x1 PUSH1 0x80 SHL SUB NOT AND DUP2 MSTORE PUSH1 0x20 ADD DUP4 DUP2 MSTORE PUSH1 0x20 ADD DUP3 DUP2 MSTORE PUSH1 0x20 ADD PUSH1 0x0 PUSH1 0x40 MLOAD DUP1 PUSH1 0x60 ADD PUSH1 0x40 MSTORE SWAP1 DUP2 PUSH1 0x0 DUP3 ADD DUP1 SLOAD PUSH2 0x66F SWAP1 PUSH2 0x2670 JUMP JUMPDEST PUSH2 0x13B3 PUSH2 0x17A9 JUMP JUMPDEST PUSH1 0x40 DUP1 MLOAD PUSH1 0x0 DUP1 DUP3 MSTORE PUSH1 0x20 DUP3 ADD SWAP1 SWAP3 MSTORE DUP2 PUSH2 0x13E4 JUMP JUMPDEST PUSH2 0x13D1 PUSH2 0x183B JUMP JUMPDEST DUP2 MSTORE PUSH1 0x20 ADD SWAP1 PUSH1 0x1 SWAP1 SUB SWAP1 DUP2 PUSH2 0x13C9 JUMPI SWAP1 POP JUMPDEST POP PUSH1 0x40 DUP1 MLOAD PUSH1 0x80 DUP2 ADD DUP3 MSTORE PUSH1 0x1 PUSH1 0x1 PUSH1 0x80 SHL SUB NOT SWAP1 SWAP6 AND DUP6 MSTORE PUSH1 0x20 DUP6 ADD SWAP7 SWAP1 SWAP7 MSTORE SWAP5 DUP4 ADD SWAP5 SWAP1 SWAP5 MSTORE POP PUSH1 0x60 DUP2 ADD SWAP2 SWAP1 SWAP2 MSTORE SWAP2 SWAP1 POP JUMP JUMPDEST PUSH2 0x1422 PUSH2 0x17A9 JUMP JUMPDEST PUSH1 0x40 DUP1 MLOAD PUSH1 0x1 DUP1 DUP3 MSTORE DUP2 DUP4 ADD SWAP1 SWAP3 MSTORE PUSH1 0x0 SWAP2 DUP2 PUSH1 0x20 ADD JUMPDEST PUSH2 0x1441 PUSH2 0x17FE JUMP JUMPDEST DUP2 MSTORE PUSH1 0x20 ADD SWAP1 PUSH1 0x1 SWAP1 SUB SWAP1 DUP2 PUSH2 0x1439 JUMPI SWAP1 POP POP SWAP1 POP DUP4 DUP2 PUSH1 0x0 DUP2 MLOAD DUP2 LT PUSH2 0x146A JUMPI PUSH2 0x146A PUSH2 0x265A JUMP JUMPDEST PUSH1 0x20 SWAP1 DUP2 MUL SWAP2 SWAP1 SWAP2 ADD ADD MSTORE PUSH1 0x40 DUP1 MLOAD PUSH1 0x1 DUP1 DUP3 MSTORE DUP2 DUP4 ADD SWAP1 SWAP3 MSTORE PUSH1 0x0 SWAP2 DUP2 PUSH1 0x20 ADD JUMPDEST PUSH2 0x1494 PUSH2 0x183B JUMP JUMPDEST DUP2 MSTORE PUSH1 0x20 ADD SWAP1 PUSH1 0x1 SWAP1 SUB SWAP1 DUP2 PUSH2 0x148C JUMPI SWAP1 POP POP SWAP1 POP DUP4 DUP2 PUSH1 0x0 DUP2 MLOAD DUP2 LT PUSH2 0x14BD JUMPI PUSH2 0x14BD PUSH2 0x265A JUMP JUMPDEST PUSH1 0x20 MUL PUSH1 0x20 ADD ADD DUP2 SWAP1 MSTORE POP PUSH1 0x40 MLOAD DUP1 PUSH1 0x80 ADD PUSH1 0x40 MSTORE DUP1 PUSH1 0x0 DUP1 MLOAD PUSH1 0x20 PUSH2 0x26AB DUP4 CODECOPY DUP2 MLOAD SWAP2 MSTORE PUSH1 0x1 PUSH1 0x1 PUSH1 0x80 SHL SUB NOT AND DUP2 MSTORE PUSH1 0x20 ADD DUP4 DUP2 MSTORE PUSH1 0x20 ADD DUP3 DUP2 MSTORE PUSH1 0x20 ADD PUSH1 0x0 PUSH1 0x40 MLOAD DUP1 PUSH1 0x60 ADD PUSH1 0x40 MSTORE SWAP1 DUP2 PUSH1 0x0 DUP3 ADD DUP1 SLOAD PUSH2 0x459 SWAP1 PUSH2 0x2670 JUMP JUMPDEST PUSH2 0x1522 PUSH2 0x17A9 JUMP JUMPDEST POP PUSH1 0x40 DUP1 MLOAD PUSH1 0x80 DUP2 ADD DUP3 MSTORE PUSH1 0x1 PUSH1 0x1 PUSH1 0x80 SHL SUB NOT SWAP1 SWAP3 AND DUP3 MSTORE PUSH1 0x20 DUP3 ADD SWAP5 SWAP1 SWAP5 MSTORE SWAP3 DUP4 ADD SWAP2 SWAP1 SWAP2 MSTORE PUSH1 0x60 DUP3 ADD MSTORE SWAP1 JUMP JUMPDEST PUSH2 0x155A PUSH2 0x17A9 JUMP JUMPDEST PUSH1 0x40 DUP1 MLOAD PUSH1 0x1 DUP1 DUP3 MSTORE DUP2 DUP4 ADD SWAP1 SWAP3 MSTORE PUSH1 0x0 SWAP2 DUP2 PUSH1 0x20 ADD JUMPDEST PUSH2 0x1579 PUSH2 0x17FE JUMP JUMPDEST DUP2 MSTORE PUSH1 0x20 ADD SWAP1 PUSH1 0x1 SWAP1 SUB SWAP1 DUP2 PUSH2 0x1571 JUMPI SWAP1 POP POP SWAP1 POP DUP6 DUP2 PUSH1 0x0 DUP2 MLOAD DUP2 LT PUSH2 0x15A2 JUMPI PUSH2 0x15A2 PUSH2 0x265A JUMP JUMPDEST PUSH1 0x20 SWAP1 DUP2 MUL SWAP2 SWAP1 SWAP2 ADD ADD MSTORE PUSH1 0x40 DUP1 MLOAD PUSH1 0x1 DUP1 DUP3 MSTORE DUP2 DUP4 ADD SWAP1 SWAP3 MSTORE PUSH1 0x0 SWAP2 DUP2 PUSH1 0x20 ADD JUMPDEST PUSH2 0x15CC PUSH2 0x183B JUMP JUMPDEST DUP2 MSTORE PUSH1 0x20 ADD SWAP1 PUSH1 0x1 SWAP1 SUB SWAP1 DUP2 PUSH2 0x15C4 JUMPI SWAP1 POP POP SWAP1 POP DUP6 DUP2 PUSH1 0x0 DUP2 MLOAD DUP2 LT PUSH2 0x15F5 JUMPI PUSH2 0x15F5 PUSH2 0x265A JUMP JUMPDEST PUSH1 0x20 MUL PUSH1 0x20 ADD ADD DUP2 SWAP1 MSTORE POP PUSH1 0x40 MLOAD DUP1 PUSH1 0x80 ADD PUSH1 0x40 MSTORE DUP1 DUP6 PUSH1 0x1 PUSH1 0x1 PUSH1 0x80 SHL SUB NOT AND DUP2 MSTORE PUSH1 0x20 ADD DUP4 DUP2 MSTORE PUSH1 0x20 ADD DUP3 DUP2 MSTORE PUSH1 0x20 ADD DUP7 DUP2 MSTORE POP SWAP3 POP POP POP SWAP5 SWAP4 POP POP POP POP JUMP JUMPDEST PUSH2 0x163F PUSH2 0x17A9 JUMP JUMPDEST PUSH1 0x40 DUP1 MLOAD PUSH1 0x0 DUP1 DUP3 MSTORE PUSH1 0x20 DUP3 ADD SWAP1 SWAP3 MSTORE DUP2 PUSH2 0x1670 JUMP JUMPDEST PUSH2 0x165D PUSH2 0x17FE JUMP JUMPDEST DUP2 MSTORE PUSH1 0x20 ADD SWAP1 PUSH1 0x1 SWAP1 SUB SWAP1 DUP2 PUSH2 0x1655 JUMPI SWAP1 POP JUMPDEST POP SWAP1 POP PUSH1 0x40 MLOAD DUP1 PUSH1 0x80 ADD PUSH1 0x40 MSTORE DUP1 DUP5 PUSH1 0x1 PUSH1 0x1 PUSH1 0x80 SHL SUB NOT AND DUP2 MSTORE PUSH1 0x20 ADD DUP3 DUP2 MSTORE PUSH1 0x20 ADD DUP6 DUP2 MSTORE PUSH1 0x20 ADD PUSH1 0x0 PUSH1 0x40 MLOAD DUP1 PUSH1 0x60 ADD PUSH1 0x40 MSTORE SWAP1 DUP2 PUSH1 0x0 DUP3 ADD DUP1 SLOAD PUSH2 0x66F SWAP1 PUSH2 0x2670 JUMP JUMPDEST PUSH2 0x16BF PUSH2 0x17A9 JUMP JUMPDEST PUSH1 0x40 DUP1 MLOAD PUSH1 0x1 DUP1 DUP3 MSTORE DUP2 DUP4 ADD SWAP1 SWAP3 MSTORE PUSH1 0x0 SWAP2 DUP2 PUSH1 0x20 ADD JUMPDEST PUSH2 0x16DE PUSH2 0x17FE JUMP JUMPDEST DUP2 MSTORE PUSH1 0x20 ADD SWAP1 PUSH1 0x1 SWAP1 SUB SWAP1 DUP2 PUSH2 0x16D6 JUMPI SWAP1 POP POP SWAP1 POP DUP5 DUP2 PUSH1 0x0 DUP2 MLOAD DUP2 LT PUSH2 0x1707 JUMPI PUSH2 0x1707 PUSH2 0x265A JUMP JUMPDEST PUSH1 0x20 SWAP1 DUP2 MUL SWAP2 SWAP1 SWAP2 ADD ADD MSTORE PUSH1 0x40 DUP1 MLOAD PUSH1 0x1 DUP1 DUP3 MSTORE DUP2 DUP4 ADD SWAP1 SWAP3 MSTORE PUSH1 0x0 SWAP2 DUP2 PUSH1 0x20 ADD JUMPDEST PUSH2 0x1731 PUSH2 0x183B JUMP JUMPDEST DUP2 MSTORE PUSH1 0x20 ADD SWAP1 PUSH1 0x1 SWAP1 SUB SWAP1 DUP2 PUSH2 0x1729 JUMPI SWAP1 POP POP SWAP1 POP DUP5 DUP2 PUSH1 0x0 DUP2 MLOAD DUP2 LT PUSH2 0x175A JUMPI PUSH2 0x175A PUSH2 0x265A JUMP JUMPDEST PUSH1 0x20 MUL PUSH1 0x20 ADD ADD DUP2 SWAP1 MSTORE POP PUSH1 0x40 MLOAD DUP1 PUSH1 0x80 ADD PUSH1 0x40 MSTORE DUP1 PUSH1 0x0 DUP1 MLOAD PUSH1 0x20 PUSH2 0x26AB DUP4 CODECOPY DUP2 MLOAD SWAP2 MSTORE PUSH1 0x1 PUSH1 0x1 PUSH1 0x80 SHL SUB NOT AND DUP2 MSTORE PUSH1 0x20 ADD DUP4 DUP2 MSTORE PUSH1 0x20 ADD DUP3 DUP2 MSTORE PUSH1 0x20 ADD DUP6 DUP2 MSTORE POP SWAP3 POP POP POP SWAP4 SWAP3 POP POP POP JUMP JUMPDEST PUSH1 0x40 MLOAD DUP1 PUSH1 0x80 ADD PUSH1 0x40 MSTORE DUP1 PUSH1 0x0 PUSH1 0x1 PUSH1 0x1 PUSH1 0x80 SHL SUB NOT AND DUP2 MSTORE PUSH1 0x20 ADD PUSH1 0x60 DUP2 MSTORE PUSH1 0x20 ADD PUSH1 0x60 DUP2 MSTORE PUSH1 0x20 ADD PUSH2 0x17F9 PUSH1 0x40 MLOAD DUP1 PUSH1 0x60 ADD PUSH1 0x40 MSTORE DUP1 PUSH1 0x60 DUP2 MSTORE PUSH1 0x20 ADD PUSH1 0x0 ISZERO ISZERO DUP2 MSTORE PUSH1 0x20 ADD PUSH1 0x60 DUP2 MSTORE POP SWAP1 JUMP JUMPDEST SWAP1 MSTORE SWAP1 JUMP JUMPDEST PUSH1 0x40 DUP1 MLOAD PUSH1 0xC0 DUP2 ADD SWAP1 SWAP2 MSTORE DUP1 PUSH1 0x0 DUP2 MSTORE PUSH1 0x20 ADD PUSH1 0x0 DUP2 MSTORE PUSH1 0x20 ADD PUSH1 0x0 ISZERO ISZERO DUP2 MSTORE PUSH1 0x20 ADD PUSH1 0x0 ISZERO ISZERO DUP2 MSTORE PUSH1 0x20 ADD PUSH1 0x0 ISZERO ISZERO DUP2 MSTORE PUSH1 0x20 ADD PUSH1 0x60 DUP2 MSTORE POP SWAP1 JUMP JUMPDEST PUSH1 0x40 DUP1 MLOAD PUSH1 0xE0 DUP2 ADD SWAP1 SWAP2 MSTORE DUP1 PUSH1 0x0 DUP2 MSTORE PUSH1 0x0 PUSH1 0x20 DUP3 ADD DUP2 SWAP1 MSTORE PUSH1 0x40 DUP3 ADD DUP2 SWAP1 MSTORE PUSH1 0x60 DUP1 DUP4 ADD DUP3 SWAP1 MSTORE PUSH1 0x80 DUP4 ADD DUP3 SWAP1 MSTORE PUSH1 0xA0 DUP4 ADD SWAP2 SWAP1 SWAP2 MSTORE PUSH1 0xC0 SWAP1 SWAP2 ADD MSTORE SWAP1 JUMP JUMPDEST PUSH4 0x4E487B71 PUSH1 0xE0 SHL PUSH1 0x0 MSTORE PUSH1 0x41 PUSH1 0x4 MSTORE PUSH1 0x24 PUSH1 0x0 REVERT JUMPDEST PUSH1 0x40 MLOAD PUSH1 0xE0 DUP2 ADD PUSH1 0x1 PUSH1 0x1 PUSH1 0x40 SHL SUB DUP2 GT DUP3 DUP3 LT OR ISZERO PUSH2 0x18B3 JUMPI PUSH2 0x18B3 PUSH2 0x187B JUMP JUMPDEST PUSH1 0x40 MSTORE SWAP1 JUMP JUMPDEST PUSH1 0x40 MLOAD PUSH1 0xC0 DUP2 ADD PUSH1 0x1 PUSH1 0x1 PUSH1 0x40 SHL SUB DUP2 GT DUP3 DUP3 LT OR ISZERO PUSH2 0x18B3 JUMPI PUSH2 0x18B3 PUSH2 0x187B JUMP JUMPDEST PUSH1 0x40 MLOAD PUSH1 0x1F DUP3 ADD PUSH1 0x1F NOT AND DUP2 ADD PUSH1 0x1 PUSH1 0x1 PUSH1 0x40 SHL SUB DUP2 GT DUP3 DUP3 LT OR ISZERO PUSH2 0x1903 JUMPI PUSH2 0x1903 PUSH2 0x187B JUMP JUMPDEST PUSH1 0x40 MSTORE SWAP2 SWAP1 POP JUMP JUMPDEST DUP1 CALLDATALOAD PUSH1 0x5 DUP2 LT PUSH2 0x191A JUMPI PUSH1 0x0 DUP1 REVERT JUMPDEST SWAP2 SWAP1 POP JUMP JUMPDEST DUP1 CALLDATALOAD PUSH1 0x1 PUSH1 0x1 PUSH1 0x80 SHL SUB NOT DUP2 AND DUP2 EQ PUSH2 0x191A JUMPI PUSH1 0x0 DUP1 REVERT JUMPDEST DUP1 CALLDATALOAD DUP1 ISZERO ISZERO DUP2 EQ PUSH2 0x191A JUMPI PUSH1 0x0 DUP1 REVERT JUMPDEST PUSH1 0x0 DUP3 PUSH1 0x1F DUP4 ADD SLT PUSH2 0x1958 JUMPI PUSH1 0x0 DUP1 REVERT JUMPDEST DUP2 CALLDATALOAD PUSH1 0x1 PUSH1 0x1 PUSH1 0x40 SHL SUB DUP2 GT ISZERO PUSH2 0x1971 JUMPI PUSH2 0x1971 PUSH2 0x187B JUMP JUMPDEST PUSH2 0x1984 PUSH1 0x1F DUP3 ADD PUSH1 0x1F NOT AND PUSH1 0x20 ADD PUSH2 0x18DB JUMP JUMPDEST DUP2 DUP2 MSTORE DUP5 PUSH1 0x20 DUP4 DUP7 ADD ADD GT ISZERO PUSH2 0x1999 JUMPI PUSH1 0x0 DUP1 REVERT JUMPDEST DUP2 PUSH1 0x20 DUP6 ADD PUSH1 0x20 DUP4 ADD CALLDATACOPY PUSH1 0x0 SWAP2 DUP2 ADD PUSH1 0x20 ADD SWAP2 SWAP1 SWAP2 MSTORE SWAP4 SWAP3 POP POP POP JUMP JUMPDEST PUSH1 0x0 PUSH1 0xE0 DUP3 DUP5 SUB SLT ISZERO PUSH2 0x19C8 JUMPI PUSH1 0x0 DUP1 REVERT JUMPDEST PUSH2 0x19D0 PUSH2 0x1891 JUMP JUMPDEST SWAP1 POP PUSH2 0x19DB DUP3 PUSH2 0x190B JUMP JUMPDEST DUP2 MSTORE PUSH2 0x19E9 PUSH1 0x20 DUP4 ADD PUSH2 0x191F JUMP JUMPDEST PUSH1 0x20 DUP3 ADD MSTORE PUSH2 0x19FA PUSH1 0x40 DUP4 ADD PUSH2 0x191F JUMP JUMPDEST PUSH1 0x40 DUP3 ADD MSTORE PUSH1 0x60 DUP3 ADD CALLDATALOAD PUSH1 0x60 DUP3 ADD MSTORE PUSH2 0x1A15 PUSH1 0x80 DUP4 ADD PUSH2 0x1937 JUMP JUMPDEST PUSH1 0x80 DUP3 ADD MSTORE PUSH2 0x1A26 PUSH1 0xA0 DUP4 ADD PUSH2 0x1937 JUMP JUMPDEST PUSH1 0xA0 DUP3 ADD MSTORE PUSH1 0xC0 DUP3 ADD CALLDATALOAD PUSH1 0x1 PUSH1 0x1 PUSH1 0x40 SHL SUB DUP2 GT ISZERO PUSH2 0x1A44 JUMPI PUSH1 0x0 DUP1 REVERT JUMPDEST PUSH2 0x1A50 DUP5 DUP3 DUP6 ADD PUSH2 0x1947 JUMP JUMPDEST PUSH1 0xC0 DUP4 ADD MSTORE POP SWAP3 SWAP2 POP POP JUMP JUMPDEST PUSH1 0x0 DUP1 PUSH1 0x40 DUP4 DUP6 SUB SLT ISZERO PUSH2 0x1A6F JUMPI PUSH1 0x0 DUP1 REVERT JUMPDEST DUP3 CALLDATALOAD PUSH1 0x1 PUSH1 0x1 PUSH1 0x40 SHL SUB DUP2 GT ISZERO PUSH2 0x1A85 JUMPI PUSH1 0x0 DUP1 REVERT JUMPDEST PUSH2 0x1A91 DUP6 DUP3 DUP7 ADD PUSH2 0x19B6 JUMP JUMPDEST SWAP3 POP POP PUSH2 0x1AA0 PUSH1 0x20 DUP5 ADD PUSH2 0x191F JUMP JUMPDEST SWAP1 POP SWAP3 POP SWAP3 SWAP1 POP JUMP JUMPDEST PUSH4 0x4E487B71 PUSH1 0xE0 SHL PUSH1 0x0 MSTORE PUSH1 0x21 PUSH1 0x4 MSTORE PUSH1 0x24 PUSH1 0x0 REVERT JUMPDEST PUSH1 0x0 DUP2 MLOAD DUP1 DUP5 MSTORE PUSH1 0x0 JUMPDEST DUP2 DUP2 LT ISZERO PUSH2 0x1AE5 JUMPI PUSH1 0x20 DUP2 DUP6 ADD DUP2 ADD MLOAD DUP7 DUP4 ADD DUP3 ADD MSTORE ADD PUSH2 0x1AC9 JUMP JUMPDEST POP PUSH1 0x0 PUSH1 0x20 DUP3 DUP7 ADD ADD MSTORE PUSH1 0x20 PUSH1 0x1F NOT PUSH1 0x1F DUP4 ADD AND DUP6 ADD ADD SWAP2 POP POP SWAP3 SWAP2 POP POP JUMP JUMPDEST PUSH1 0x0 DUP2 MLOAD DUP1 DUP5 MSTORE PUSH1 0x20 DUP1 DUP6 ADD DUP1 DUP2 SWAP7 POP PUSH1 0x5 SWAP2 POP DUP4 DUP3 SHL DUP2 ADD DUP4 DUP8 ADD PUSH1 0x0 JUMPDEST DUP7 DUP2 LT ISZERO PUSH2 0x1BC5 JUMPI DUP4 DUP4 SUB DUP11 MSTORE DUP2 MLOAD PUSH1 0xE0 DUP2 MLOAD DUP8 DUP2 LT PUSH2 0x1B46 JUMPI PUSH2 0x1B46 PUSH2 0x1AA9 JUMP JUMPDEST DUP6 MSTORE DUP2 DUP9 ADD MLOAD PUSH1 0x1 PUSH1 0x1 PUSH1 0x80 SHL SUB NOT AND DUP9 DUP7 ADD MSTORE PUSH1 0x40 DUP1 DUP4 ADD MLOAD PUSH2 0x1B75 DUP3 DUP9 ADD DUP3 PUSH1 0x1 PUSH1 0x1 PUSH1 0x80 SHL SUB NOT AND SWAP1 MSTORE JUMP JUMPDEST POP POP PUSH1 0x60 DUP3 DUP2 ADD MLOAD SWAP1 DUP7 ADD MSTORE PUSH1 0x80 DUP1 DUP4 ADD MLOAD ISZERO ISZERO SWAP1 DUP7 ADD MSTORE PUSH1 0xA0 DUP1 DUP4 ADD MLOAD ISZERO ISZERO SWAP1 DUP7 ADD MSTORE PUSH1 0xC0 SWAP2 DUP3 ADD MLOAD SWAP2 DUP6 ADD DUP2 SWAP1 MSTORE PUSH2 0x1BB1 DUP2 DUP7 ADD DUP4 PUSH2 0x1ABF JUMP JUMPDEST SWAP12 DUP9 ADD SWAP12 SWAP5 POP POP POP SWAP1 DUP6 ADD SWAP1 PUSH1 0x1 ADD PUSH2 0x1B24 JUMP JUMPDEST POP SWAP1 SWAP9 SWAP8 POP POP POP POP POP POP POP POP JUMP JUMPDEST PUSH1 0x0 DUP2 MLOAD PUSH1 0x60 DUP5 MSTORE PUSH2 0x1BE8 PUSH1 0x60 DUP6 ADD DUP3 PUSH2 0x1ABF JUMP JUMPDEST SWAP1 POP PUSH1 0x20 DUP4 ADD MLOAD ISZERO ISZERO PUSH1 0x20 DUP6 ADD MSTORE PUSH1 0x40 DUP4 ADD MLOAD DUP5 DUP3 SUB PUSH1 0x40 DUP7 ADD MSTORE PUSH2 0x1C0D DUP3 DUP3 PUSH2 0x1ABF JUMP JUMPDEST SWAP6 SWAP5 POP POP POP POP POP JUMP JUMPDEST PUSH1 0x0 PUSH1 0x20 DUP1 DUP4 MSTORE PUSH1 0xA0 DUP1 DUP5 ADD PUSH1 0x1 PUSH1 0x1 PUSH1 0x80 SHL SUB NOT DUP7 MLOAD AND DUP4 DUP7 ADD MSTORE DUP3 DUP7 ADD MLOAD PUSH1 0x80 PUSH1 0x40 DUP2 DUP2 DUP10 ADD MSTORE DUP4 DUP4 MLOAD DUP1 DUP7 MSTORE PUSH1 0xC0 SWAP6 POP DUP6 DUP11 ADD SWAP2 POP DUP6 DUP2 PUSH1 0x5 SHL DUP12 ADD ADD DUP9 DUP7 ADD SWAP6 POP PUSH1 0x0 JUMPDEST DUP3 DUP2 LT ISZERO PUSH2 0x1CD5 JUMPI DUP12 DUP3 SUB PUSH1 0xBF NOT ADD DUP5 MSTORE DUP7 MLOAD DUP1 MLOAD PUSH1 0x6 DUP2 LT PUSH2 0x1C83 JUMPI PUSH2 0x1C83 PUSH2 0x1AA9 JUMP JUMPDEST DUP4 MSTORE DUP1 DUP12 ADD MLOAD DUP12 DUP5 ADD MSTORE DUP6 DUP2 ADD MLOAD ISZERO ISZERO DUP7 DUP5 ADD MSTORE PUSH1 0x60 DUP1 DUP3 ADD MLOAD ISZERO ISZERO SWAP1 DUP5 ADD MSTORE DUP7 DUP2 ADD MLOAD ISZERO ISZERO DUP8 DUP5 ADD MSTORE DUP10 ADD MLOAD DUP10 DUP4 ADD DUP10 SWAP1 MSTORE PUSH2 0x1CC2 DUP10 DUP5 ADD DUP3 PUSH2 0x1ABF JUMP JUMPDEST SWAP8 DUP12 ADD SWAP8 SWAP5 DUP12 ADD SWAP5 SWAP3 POP POP PUSH1 0x1 ADD PUSH2 0x1C5E JUMP JUMPDEST POP DUP4 DUP13 ADD MLOAD SWAP9 POP PUSH1 0x1F NOT SWAP8 POP DUP8 DUP12 DUP3 SUB ADD PUSH1 0x60 DUP13 ADD MSTORE PUSH2 0x1CF5 DUP2 DUP11 PUSH2 0x1B05 JUMP JUMPDEST SWAP9 POP POP POP POP POP PUSH1 0x60 DUP9 ADD MLOAD SWAP3 POP DUP4 DUP8 DUP7 SUB ADD DUP2 DUP9 ADD MSTORE POP POP PUSH2 0x1D17 DUP4 DUP3 PUSH2 0x1BD3 JUMP JUMPDEST SWAP7 SWAP6 POP POP POP POP POP POP JUMP JUMPDEST PUSH1 0x0 PUSH1 0x20 DUP3 DUP5 SUB SLT ISZERO PUSH2 0x1D33 JUMPI PUSH1 0x0 DUP1 REVERT JUMPDEST DUP2 CALLDATALOAD PUSH1 0x1 PUSH1 0x1 PUSH1 0x40 SHL SUB DUP2 GT ISZERO PUSH2 0x1D49 JUMPI PUSH1 0x0 DUP1 REVERT JUMPDEST PUSH2 0x1D55 DUP5 DUP3 DUP6 ADD PUSH2 0x19B6 JUMP JUMPDEST SWAP5 SWAP4 POP POP POP POP JUMP JUMPDEST PUSH1 0x0 PUSH1 0xC0 DUP3 DUP5 SUB SLT ISZERO PUSH2 0x1D6F JUMPI PUSH1 0x0 DUP1 REVERT JUMPDEST PUSH2 0x1D77 PUSH2 0x18B9 JUMP JUMPDEST SWAP1 POP DUP2 CALLDATALOAD PUSH1 0x6 DUP2 LT PUSH2 0x1D88 JUMPI PUSH1 0x0 DUP1 REVERT JUMPDEST DUP2 MSTORE PUSH1 0x20 DUP3 DUP2 ADD CALLDATALOAD SWAP1 DUP3 ADD MSTORE PUSH2 0x1DA0 PUSH1 0x40 DUP4 ADD PUSH2 0x1937 JUMP JUMPDEST PUSH1 0x40 DUP3 ADD MSTORE PUSH2 0x1DB1 PUSH1 0x60 DUP4 ADD PUSH2 0x1937 JUMP JUMPDEST PUSH1 0x60 DUP3 ADD MSTORE PUSH2 0x1DC2 PUSH1 0x80 DUP4 ADD PUSH2 0x1937 JUMP JUMPDEST PUSH1 0x80 DUP3 ADD MSTORE PUSH1 0xA0 DUP3 ADD CALLDATALOAD PUSH1 0x1 PUSH1 0x1 PUSH1 0x40 SHL SUB DUP2 GT ISZERO PUSH2 0x1DE0 JUMPI PUSH1 0x0 DUP1 REVERT JUMPDEST PUSH2 0x1DEC DUP5 DUP3 DUP6 ADD PUSH2 0x1947 JUMP JUMPDEST PUSH1 0xA0 DUP4 ADD MSTORE POP SWAP3 SWAP2 POP POP JUMP JUMPDEST PUSH1 0x0 PUSH1 0x60 DUP3 DUP5 SUB SLT ISZERO PUSH2 0x1E0A JUMPI PUSH1 0x0 DUP1 REVERT JUMPDEST PUSH1 0x40 MLOAD PUSH1 0x60 DUP2 ADD PUSH1 0x1 PUSH1 0x1 PUSH1 0x40 SHL SUB DUP3 DUP3 LT DUP2 DUP4 GT OR ISZERO PUSH2 0x1E2D JUMPI PUSH2 0x1E2D PUSH2 0x187B JUMP JUMPDEST DUP2 PUSH1 0x40 MSTORE DUP3 SWAP4 POP DUP5 CALLDATALOAD SWAP2 POP DUP1 DUP3 GT ISZERO PUSH2 0x1E45 JUMPI PUSH1 0x0 DUP1 REVERT JUMPDEST PUSH2 0x1E51 DUP7 DUP4 DUP8 ADD PUSH2 0x1947 JUMP JUMPDEST DUP4 MSTORE PUSH2 0x1E5F PUSH1 0x20 DUP7 ADD PUSH2 0x1937 JUMP JUMPDEST PUSH1 0x20 DUP5 ADD MSTORE PUSH1 0x40 DUP6 ADD CALLDATALOAD SWAP2 POP DUP1 DUP3 GT ISZERO PUSH2 0x1E78 JUMPI PUSH1 0x0 DUP1 REVERT JUMPDEST POP PUSH2 0x1E85 DUP6 DUP3 DUP7 ADD PUSH2 0x1947 JUMP JUMPDEST PUSH1 0x40 DUP4 ADD MSTORE POP POP SWAP3 SWAP2 POP POP JUMP JUMPDEST PUSH1 0x0 DUP1 PUSH1 0x0 PUSH1 0x60 DUP5 DUP7 SUB SLT ISZERO PUSH2 0x1EA7 JUMPI PUSH1 0x0 DUP1 REVERT JUMPDEST DUP4 CALLDATALOAD PUSH1 0x1 PUSH1 0x1 PUSH1 0x40 SHL SUB DUP1 DUP3 GT ISZERO PUSH2 0x1EBE JUMPI PUSH1 0x0 DUP1 REVERT JUMPDEST PUSH2 0x1ECA DUP8 DUP4 DUP9 ADD PUSH2 0x1D5D JUMP JUMPDEST SWAP5 POP PUSH1 0x20 DUP7 ADD CALLDATALOAD SWAP2 POP DUP1 DUP3 GT ISZERO PUSH2 0x1EE0 JUMPI PUSH1 0x0 DUP1 REVERT JUMPDEST POP PUSH2 0x1EED DUP7 DUP3 DUP8 ADD PUSH2 0x1DF8 JUMP JUMPDEST SWAP3 POP POP PUSH2 0x1EFC PUSH1 0x40 DUP6 ADD PUSH2 0x191F JUMP JUMPDEST SWAP1 POP SWAP3 POP SWAP3 POP SWAP3 JUMP JUMPDEST PUSH1 0x0 PUSH1 0x1 PUSH1 0x1 PUSH1 0x40 SHL SUB DUP3 GT ISZERO PUSH2 0x1F1E JUMPI PUSH2 0x1F1E PUSH2 0x187B JUMP JUMPDEST POP PUSH1 0x5 SHL PUSH1 0x20 ADD SWAP1 JUMP JUMPDEST PUSH1 0x0 DUP3 PUSH1 0x1F DUP4 ADD SLT PUSH2 0x1F39 JUMPI PUSH1 0x0 DUP1 REVERT JUMPDEST DUP2 CALLDATALOAD PUSH1 0x20 PUSH2 0x1F4E PUSH2 0x1F49 DUP4 PUSH2 0x1F05 JUMP JUMPDEST PUSH2 0x18DB JUMP JUMPDEST DUP3 DUP2 MSTORE PUSH1 0x5 SWAP3 SWAP1 SWAP3 SHL DUP5 ADD DUP2 ADD SWAP2 DUP2 DUP2 ADD SWAP1 DUP7 DUP5 GT ISZERO PUSH2 0x1F6D JUMPI PUSH1 0x0 DUP1 REVERT JUMPDEST DUP3 DUP7 ADD JUMPDEST DUP5 DUP2 LT ISZERO PUSH2 0x1FAC JUMPI DUP1 CALLDATALOAD PUSH1 0x1 PUSH1 0x1 PUSH1 0x40 SHL SUB DUP2 GT ISZERO PUSH2 0x1F90 JUMPI PUSH1 0x0 DUP1 DUP2 REVERT JUMPDEST PUSH2 0x1F9E DUP10 DUP7 DUP4 DUP12 ADD ADD PUSH2 0x1D5D JUMP JUMPDEST DUP5 MSTORE POP SWAP2 DUP4 ADD SWAP2 DUP4 ADD PUSH2 0x1F71 JUMP JUMPDEST POP SWAP7 SWAP6 POP POP POP POP POP POP JUMP JUMPDEST PUSH1 0x0 PUSH1 0x20 DUP3 DUP5 SUB SLT ISZERO PUSH2 0x1FC9 JUMPI PUSH1 0x0 DUP1 REVERT JUMPDEST DUP2 CALLDATALOAD PUSH1 0x1 PUSH1 0x1 PUSH1 0x40 SHL SUB DUP2 GT ISZERO PUSH2 0x1FDF JUMPI PUSH1 0x0 DUP1 REVERT JUMPDEST PUSH2 0x1D55 DUP5 DUP3 DUP6 ADD PUSH2 0x1F28 JUMP JUMPDEST PUSH1 0x0 DUP3 PUSH1 0x1F DUP4 ADD SLT PUSH2 0x1FFC JUMPI PUSH1 0x0 DUP1 REVERT JUMPDEST DUP2 CALLDATALOAD PUSH1 0x20 PUSH2 0x200C PUSH2 0x1F49 DUP4 PUSH2 0x1F05 JUMP JUMPDEST DUP3 DUP2 MSTORE PUSH1 0x5 SWAP3 SWAP1 SWAP3 SHL DUP5 ADD DUP2 ADD SWAP2 DUP2 DUP2 ADD SWAP1 DUP7 DUP5 GT ISZERO PUSH2 0x202B JUMPI PUSH1 0x0 DUP1 REVERT JUMPDEST DUP3 DUP7 ADD JUMPDEST DUP5 DUP2 LT ISZERO PUSH2 0x1FAC JUMPI DUP1 CALLDATALOAD PUSH1 0x1 PUSH1 0x1 PUSH1 0x40 SHL SUB DUP2 GT ISZERO PUSH2 0x204E JUMPI PUSH1 0x0 DUP1 DUP2 REVERT JUMPDEST PUSH2 0x205C DUP10 DUP7 DUP4 DUP12 ADD ADD PUSH2 0x19B6 JUMP JUMPDEST DUP5 MSTORE POP SWAP2 DUP4 ADD SWAP2 DUP4 ADD PUSH2 0x202F JUMP JUMPDEST PUSH1 0x0 DUP1 PUSH1 0x0 PUSH1 0x60 DUP5 DUP7 SUB SLT ISZERO PUSH2 0x207F JUMPI PUSH1 0x0 DUP1 REVERT JUMPDEST DUP4 CALLDATALOAD PUSH1 0x1 PUSH1 0x1 PUSH1 0x40 SHL SUB DUP1 DUP3 GT ISZERO PUSH2 0x2096 JUMPI PUSH1 0x0 DUP1 REVERT JUMPDEST PUSH2 0x1ECA DUP8 DUP4 DUP9 ADD PUSH2 0x1FEB JUMP JUMPDEST PUSH1 0x0 DUP1 PUSH1 0x40 DUP4 DUP6 SUB SLT ISZERO PUSH2 0x20B5 JUMPI PUSH1 0x0 DUP1 REVERT JUMPDEST DUP3 CALLDATALOAD PUSH1 0x1 PUSH1 0x1 PUSH1 0x40 SHL SUB DUP2 GT ISZERO PUSH2 0x20CB JUMPI PUSH1 0x0 DUP1 REVERT JUMPDEST PUSH2 0x1A91 DUP6 DUP3 DUP7 ADD PUSH2 0x1F28 JUMP JUMPDEST PUSH1 0x0 DUP1 PUSH1 0x40 DUP4 DUP6 SUB SLT ISZERO PUSH2 0x20EA JUMPI PUSH1 0x0 DUP1 REVERT JUMPDEST DUP3 CALLDATALOAD PUSH1 0x1 PUSH1 0x1 PUSH1 0x40 SHL SUB DUP1 DUP3 GT ISZERO PUSH2 0x2101 JUMPI PUSH1 0x0 DUP1 REVERT JUMPDEST PUSH2 0x210D DUP7 DUP4 DUP8 ADD PUSH2 0x1F28 JUMP JUMPDEST SWAP4 POP PUSH1 0x20 DUP6 ADD CALLDATALOAD SWAP2 POP DUP1 DUP3 GT ISZERO PUSH2 0x2123 JUMPI PUSH1 0x0 DUP1 REVERT JUMPDEST POP PUSH2 0x2130 DUP6 DUP3 DUP7 ADD PUSH2 0x1DF8 JUMP JUMPDEST SWAP2 POP POP SWAP3 POP SWAP3 SWAP1 POP JUMP JUMPDEST PUSH1 0x0 DUP1 PUSH1 0x0 PUSH1 0x60 DUP5 DUP7 SUB SLT ISZERO PUSH2 0x214F JUMPI PUSH1 0x0 DUP1 REVERT JUMPDEST DUP4 CALLDATALOAD PUSH1 0x1 PUSH1 0x1 PUSH1 0x40 SHL SUB DUP1 DUP3 GT ISZERO PUSH2 0x2166 JUMPI PUSH1 0x0 DUP1 REVERT JUMPDEST PUSH2 0x2172 DUP8 DUP4 DUP9 ADD PUSH2 0x1D5D JUMP JUMPDEST SWAP5 POP PUSH1 0x20 DUP7 ADD CALLDATALOAD SWAP2 POP DUP1 DUP3 GT ISZERO PUSH2 0x2188 JUMPI PUSH1 0x0 DUP1 REVERT JUMPDEST POP PUSH2 0x1EED DUP7 DUP3 DUP8 ADD PUSH2 0x19B6 JUMP JUMPDEST PUSH1 0x0 DUP1 PUSH1 0x40 DUP4 DUP6 SUB SLT ISZERO PUSH2 0x21A8 JUMPI PUSH1 0x0 DUP1 REVERT JUMPDEST DUP3 CALLDATALOAD PUSH1 0x1 PUSH1 0x1 PUSH1 0x40 SHL SUB DUP1 DUP3 GT ISZERO PUSH2 0x21BF JUMPI PUSH1 0x0 DUP1 REVERT JUMPDEST PUSH2 0x210D DUP7 DUP4 DUP8 ADD PUSH2 0x1D5D JUMP JUMPDEST PUSH1 0x0 DUP1 PUSH1 0x0 PUSH1 0x60 DUP5 DUP7 SUB SLT ISZERO PUSH2 0x21E0 JUMPI PUSH1 0x0 DUP1 REVERT JUMPDEST DUP4 CALLDATALOAD PUSH1 0x1 PUSH1 0x1 PUSH1 0x40 SHL SUB DUP1 DUP3 GT ISZERO PUSH2 0x21F7 JUMPI PUSH1 0x0 DUP1 REVERT JUMPDEST PUSH2 0x1ECA DUP8 DUP4 DUP9 ADD PUSH2 0x19B6 JUMP JUMPDEST PUSH1 0x0 DUP1 PUSH1 0x40 DUP4 DUP6 SUB SLT ISZERO PUSH2 0x2216 JUMPI PUSH1 0x0 DUP1 REVERT JUMPDEST DUP3 CALLDATALOAD PUSH1 0x1 PUSH1 0x1 PUSH1 0x40 SHL SUB DUP2 GT ISZERO PUSH2 0x222C JUMPI PUSH1 0x0 DUP1 REVERT JUMPDEST PUSH2 0x1A91 DUP6 DUP3 DUP7 ADD PUSH2 0x1D5D JUMP JUMPDEST PUSH1 0x0 DUP1 PUSH1 0x0 PUSH1 0x60 DUP5 DUP7 SUB SLT ISZERO PUSH2 0x224D JUMPI PUSH1 0x0 DUP1 REVERT JUMPDEST DUP4 CALLDATALOAD PUSH1 0x1 PUSH1 0x1 PUSH1 0x40 SHL SUB DUP1 DUP3 GT ISZERO PUSH2 0x2264 JUMPI PUSH1 0x0 DUP1 REVERT JUMPDEST PUSH2 0x2270 DUP8 DUP4 DUP9 ADD PUSH2 0x1F28 JUMP JUMPDEST SWAP5 POP PUSH1 0x20 DUP7 ADD CALLDATALOAD SWAP2 POP DUP1 DUP3 GT ISZERO PUSH2 0x2286 JUMPI PUSH1 0x0 DUP1 REVERT JUMPDEST POP PUSH2 0x1EED DUP7 DUP3 DUP8 ADD PUSH2 0x1FEB JUMP JUMPDEST PUSH1 0x0 DUP1 PUSH1 0x0 PUSH1 0x60 DUP5 DUP7 SUB SLT ISZERO PUSH2 0x22A8 JUMPI PUSH1 0x0 DUP1 REVERT JUMPDEST DUP4 CALLDATALOAD PUSH1 0x1 PUSH1 0x1 PUSH1 0x40 SHL SUB DUP1 DUP3 GT ISZERO PUSH2 0x22BF JUMPI PUSH1 0x0 DUP1 REVERT JUMPDEST PUSH2 0x22CB DUP8 DUP4 DUP9 ADD PUSH2 0x1F28 JUMP JUMPDEST SWAP5 POP PUSH1 0x20 DUP7 ADD CALLDATALOAD SWAP2 POP DUP1 DUP3 GT ISZERO PUSH2 0x22E1 JUMPI PUSH1 0x0 DUP1 REVERT JUMPDEST PUSH2 0x22ED DUP8 DUP4 DUP9 ADD PUSH2 0x1FEB JUMP JUMPDEST SWAP4 POP PUSH1 0x40 DUP7 ADD CALLDATALOAD SWAP2 POP DUP1 DUP3 GT ISZERO PUSH2 0x2303 JUMPI PUSH1 0x0 DUP1 REVERT JUMPDEST POP PUSH2 0x2310 DUP7 DUP3 DUP8 ADD PUSH2 0x1DF8 JUMP JUMPDEST SWAP2 POP POP SWAP3 POP SWAP3 POP SWAP3 JUMP JUMPDEST PUSH1 0x0 DUP1 PUSH1 0x40 DUP4 DUP6 SUB SLT ISZERO PUSH2 0x232D JUMPI PUSH1 0x0 DUP1 REVERT JUMPDEST DUP3 CALLDATALOAD PUSH1 0x1 PUSH1 0x1 PUSH1 0x40 SHL SUB DUP1 DUP3 GT ISZERO PUSH2 0x2344 JUMPI PUSH1 0x0 DUP1 REVERT JUMPDEST PUSH2 0x2350 DUP7 DUP4 DUP8 ADD PUSH2 0x1F28 JUMP JUMPDEST SWAP4 POP PUSH1 0x20 DUP6 ADD CALLDATALOAD SWAP2 POP DUP1 DUP3 GT ISZERO PUSH2 0x2366 JUMPI PUSH1 0x0 DUP1 REVERT JUMPDEST POP PUSH2 0x2130 DUP6 DUP3 DUP7 ADD PUSH2 0x1FEB JUMP JUMPDEST PUSH1 0x0 PUSH1 0x20 DUP3 DUP5 SUB SLT ISZERO PUSH2 0x2385 JUMPI PUSH1 0x0 DUP1 REVERT JUMPDEST DUP2 CALLDATALOAD PUSH1 0x1 PUSH1 0x1 PUSH1 0x40 SHL SUB DUP2 GT ISZERO PUSH2 0x239B JUMPI PUSH1 0x0 DUP1 REVERT JUMPDEST PUSH2 0x1D55 DUP5 DUP3 DUP6 ADD PUSH2 0x1FEB JUMP JUMPDEST PUSH1 0x0 DUP1 PUSH1 0x40 DUP4 DUP6 SUB SLT ISZERO PUSH2 0x23BA JUMPI PUSH1 0x0 DUP1 REVERT JUMPDEST DUP3 CALLDATALOAD PUSH1 0x1 PUSH1 0x1 PUSH1 0x40 SHL SUB DUP1 DUP3 GT ISZERO PUSH2 0x23D1 JUMPI PUSH1 0x0 DUP1 REVERT JUMPDEST PUSH2 0x210D DUP7 DUP4 DUP8 ADD PUSH2 0x1FEB JUMP JUMPDEST PUSH1 0x0 DUP1 PUSH1 0x40 DUP4 DUP6 SUB SLT ISZERO PUSH2 0x23F0 JUMPI PUSH1 0x0 DUP1 REVERT JUMPDEST DUP3 CALLDATALOAD PUSH1 0x1 PUSH1 0x1 PUSH1 0x40 SHL SUB DUP1 DUP3 GT ISZERO PUSH2 0x2407 JUMPI PUSH1 0x0 DUP1 REVERT JUMPDEST PUSH2 0x210D DUP7 DUP4 DUP8 ADD PUSH2 0x19B6 JUMP JUMPDEST PUSH1 0x0 PUSH1 0x20 DUP3 DUP5 SUB SLT ISZERO PUSH2 0x2425 JUMPI PUSH1 0x0 DUP1 REVERT JUMPDEST DUP2 CALLDATALOAD PUSH1 0x1 PUSH1 0x1 PUSH1 0x40 SHL SUB DUP2 GT ISZERO PUSH2 0x243B JUMPI PUSH1 0x0 DUP1 REVERT JUMPDEST PUSH2 0x1D55 DUP5 DUP3 DUP6 ADD PUSH2 0x1D5D JUMP JUMPDEST PUSH1 0x0 DUP1 PUSH1 0x0 PUSH1 0x60 DUP5 DUP7 SUB SLT ISZERO PUSH2 0x245C JUMPI PUSH1 0x0 DUP1 REVERT JUMPDEST DUP4 CALLDATALOAD PUSH1 0x1 PUSH1 0x1 PUSH1 0x40 SHL SUB DUP1 DUP3 GT ISZERO PUSH2 0x2473 JUMPI PUSH1 0x0 DUP1 REVERT JUMPDEST PUSH2 0x1ECA DUP8 DUP4 DUP9 ADD PUSH2 0x1F28 JUMP JUMPDEST PUSH1 0x0 DUP1 PUSH1 0x40 DUP4 DUP6 SUB SLT ISZERO PUSH2 0x2492 JUMPI PUSH1 0x0 DUP1 REVERT JUMPDEST DUP3 CALLDATALOAD PUSH1 0x1 PUSH1 0x1 PUSH1 0x40 SHL SUB DUP1 DUP3 GT ISZERO PUSH2 0x24A9 JUMPI PUSH1 0x0 DUP1 REVERT JUMPDEST PUSH2 0x24B5 DUP7 DUP4 DUP8 ADD PUSH2 0x1D5D JUMP JUMPDEST SWAP4 POP PUSH1 0x20 DUP6 ADD CALLDATALOAD SWAP2 POP DUP1 DUP3 GT ISZERO PUSH2 0x24CB JUMPI PUSH1 0x0 DUP1 REVERT JUMPDEST POP PUSH2 0x2130 DUP6 DUP3 DUP7 ADD PUSH2 0x19B6 JUMP JUMPDEST PUSH1 0x0 DUP1 PUSH1 0x0 DUP1 PUSH1 0x80 DUP6 DUP8 SUB SLT ISZERO PUSH2 0x24EE JUMPI PUSH1 0x0 DUP1 REVERT JUMPDEST DUP5 CALLDATALOAD PUSH1 0x1 PUSH1 0x1 PUSH1 0x40 SHL SUB DUP1 DUP3 GT ISZERO PUSH2 0x2505 JUMPI PUSH1 0x0 DUP1 REVERT JUMPDEST PUSH2 0x2511 DUP9 DUP4 DUP10 ADD PUSH2 0x1F28 JUMP JUMPDEST SWAP6 POP PUSH1 0x20 DUP8 ADD CALLDATALOAD SWAP2 POP DUP1 DUP3 GT ISZERO PUSH2 0x2527 JUMPI PUSH1 0x0 DUP1 REVERT JUMPDEST PUSH2 0x2533 DUP9 DUP4 DUP10 ADD PUSH2 0x1FEB JUMP JUMPDEST SWAP5 POP PUSH1 0x40 DUP8 ADD CALLDATALOAD SWAP2 POP DUP1 DUP3 GT ISZERO PUSH2 0x2549 JUMPI PUSH1 0x0 DUP1 REVERT JUMPDEST POP PUSH2 0x2556 DUP8 DUP3 DUP9 ADD PUSH2 0x1DF8 JUMP JUMPDEST SWAP3 POP POP PUSH2 0x2565 PUSH1 0x60 DUP7 ADD PUSH2 0x191F JUMP JUMPDEST SWAP1 POP SWAP3 SWAP6 SWAP2 SWAP5 POP SWAP3 POP JUMP JUMPDEST PUSH1 0x0 DUP1 PUSH1 0x0 DUP1 PUSH1 0x80 DUP6 DUP8 SUB SLT ISZERO PUSH2 0x2586 JUMPI PUSH1 0x0 DUP1 REVERT JUMPDEST DUP5 CALLDATALOAD PUSH1 0x1 PUSH1 0x1 PUSH1 0x40 SHL SUB DUP1 DUP3 GT ISZERO PUSH2 0x259D JUMPI PUSH1 0x0 DUP1 REVERT JUMPDEST PUSH2 0x25A9 DUP9 DUP4 DUP10 ADD PUSH2 0x1D5D JUMP JUMPDEST SWAP6 POP PUSH1 0x20 DUP8 ADD CALLDATALOAD SWAP2 POP DUP1 DUP3 GT ISZERO PUSH2 0x25BF JUMPI PUSH1 0x0 DUP1 REVERT JUMPDEST PUSH2 0x2533 DUP9 DUP4 DUP10 ADD PUSH2 0x19B6 JUMP JUMPDEST PUSH1 0x0 DUP1 PUSH1 0x40 DUP4 DUP6 SUB SLT ISZERO PUSH2 0x25DE JUMPI PUSH1 0x0 DUP1 REVERT JUMPDEST DUP3 CALLDATALOAD PUSH1 0x1 PUSH1 0x1 PUSH1 0x40 SHL SUB DUP2 GT ISZERO PUSH2 0x25F4 JUMPI PUSH1 0x0 DUP1 REVERT JUMPDEST PUSH2 0x1A91 DUP6 DUP3 DUP7 ADD PUSH2 0x1FEB JUMP JUMPDEST PUSH1 0x0 DUP1 PUSH1 0x0 PUSH1 0x60 DUP5 DUP7 SUB SLT ISZERO PUSH2 0x2615 JUMPI PUSH1 0x0 DUP1 REVERT JUMPDEST DUP4 CALLDATALOAD PUSH1 0x1 PUSH1 0x1 PUSH1 0x40 SHL SUB DUP1 DUP3 GT ISZERO PUSH2 0x262C JUMPI PUSH1 0x0 DUP1 REVERT JUMPDEST PUSH2 0x2638 DUP8 DUP4 DUP9 ADD PUSH2 0x1D5D JUMP JUMPDEST SWAP5 POP PUSH1 0x20 DUP7 ADD CALLDATALOAD SWAP2 POP DUP1 DUP3 GT ISZERO PUSH2 0x264E JUMPI PUSH1 0x0 DUP1 REVERT JUMPDEST PUSH2 0x22ED DUP8 DUP4 DUP9 ADD PUSH2 0x19B6 JUMP JUMPDEST PUSH4 0x4E487B71 PUSH1 0xE0 SHL PUSH1 0x0 MSTORE PUSH1 0x32 PUSH1 0x4 MSTORE PUSH1 0x24 PUSH1 0x0 REVERT JUMPDEST PUSH1 0x1 DUP2 DUP2 SHR SWAP1 DUP3 AND DUP1 PUSH2 0x2684 JUMPI PUSH1 0x7F DUP3 AND SWAP2 POP JUMPDEST PUSH1 0x20 DUP3 LT DUP2 SUB PUSH2 0x26A4 JUMPI PUSH4 0x4E487B71 PUSH1 0xE0 SHL PUSH1 0x0 MSTORE PUSH1 0x22 PUSH1 0x4 MSTORE PUSH1 0x24 PUSH1 0x0 REVERT JUMPDEST POP SWAP2 SWAP1 POP JUMP INVALID 0xB8 0xE2 SDIV 0x4F DUP11 SWAP2 0x23 PUSH8 0xE38A22CE773328FF DUP11 0xAB 0xF8 ADDMOD 0x2C COINBASE KECCAK256 0xBA 0xD9 0xEF ADDMOD 0x5E SAR 0xBF 0x29 0xA7 LOG2 PUSH5 0x6970667358 0x22 SLT KECCAK256 0x4B DUP16 PUSH27 0x5A5BA91B3206ED347B001F93E82488EDCD35D9097494101AB2A303 PUSH8 0x8A64736F6C634300 ADDMOD GT STOP CALLER "},"methodIdentifiers":{"DEFAULT_NAMESPACE()":"1b399c99","build((uint8,bytes16,bytes16,uint256,bool,bool,bytes))":"0e58be05","build((uint8,bytes16,bytes16,uint256,bool,bool,bytes),(bytes,bool,bytes))":"c9f97f53","build((uint8,bytes16,bytes16,uint256,bool,bool,bytes),(bytes,bool,bytes),bytes16)":"54852577","build((uint8,bytes16,bytes16,uint256,bool,bool,bytes),bytes16)":"080b53f8","build((uint8,bytes16,bytes16,uint256,bool,bool,bytes)[])":"b33cd323","build((uint8,bytes16,bytes16,uint256,bool,bool,bytes)[],(bytes,bool,bytes))":"b5ae2587","build((uint8,bytes16,bytes16,uint256,bool,bool,bytes)[],(bytes,bool,bytes),bytes16)":"14ddafa3","build((uint8,bytes16,bytes16,uint256,bool,bool,bytes)[],bytes16)":"f1c1e209","build((uint8,uint256,bool,bool,bool,bytes))":"d7ccd8da","build((uint8,uint256,bool,bool,bool,bytes),(bytes,bool,bytes))":"48fd24cc","build((uint8,uint256,bool,bool,bool,bytes),(bytes,bool,bytes),bytes16)":"10c5d31b","build((uint8,uint256,bool,bool,bool,bytes),(uint8,bytes16,bytes16,uint256,bool,bool,bytes))":"dde11c7c","build((uint8,uint256,bool,bool,bool,bytes),(uint8,bytes16,bytes16,uint256,bool,bool,bytes),(bytes,bool,bytes))":"f2d3f1f6","build((uint8,uint256,bool,bool,bool,bytes),(uint8,bytes16,bytes16,uint256,bool,bool,bytes),(bytes,bool,bytes),bytes16)":"e93f38b8","build((uint8,uint256,bool,bool,bool,bytes),(uint8,bytes16,bytes16,uint256,bool,bool,bytes),bytes16)":"31560e75","build((uint8,uint256,bool,bool,bool,bytes),bytes16)":"91ba07f3","build((uint8,uint256,bool,bool,bool,bytes)[])":"11f83e20","build((uint8,uint256,bool,bool,bool,bytes)[],(bytes,bool,bytes))":"2ceb1e8d","build((uint8,uint256,bool,bool,bool,bytes)[],(bytes,bool,bytes),bytes16)":"dd108267","build((uint8,uint256,bool,bool,bool,bytes)[],(uint8,bytes16,bytes16,uint256,bool,bool,bytes)[])":"a156e2d8","build((uint8,uint256,bool,bool,bool,bytes)[],(uint8,bytes16,bytes16,uint256,bool,bool,bytes)[],(bytes,bool,bytes))":"99240336","build((uint8,uint256,bool,bool,bool,bytes)[],(uint8,bytes16,bytes16,uint256,bool,bool,bytes)[],(bytes,bool,bytes),bytes16)":"e48cd721","build((uint8,uint256,bool,bool,bool,bytes)[],(uint8,bytes16,bytes16,uint256,bool,bool,bytes)[],bytes16)":"9266f47c","build((uint8,uint256,bool,bool,bool,bytes)[],bytes16)":"27b5b7c3"}}}}}