{"contracts/PromiseEscrow.sol":{"PromiseEscrow":{"abi":[{"inputs":[{"internalType":"address","name":"_currency","type":"address"},{"internalType":"address","name":"_optimisticOracleV3","type":"address"},{"internalType":"address","name":"_sismoVerifier","type":"address"}],"stateMutability":"nonpayable","type":"constructor"},{"anonymous":false,"inputs":[{"indexed":true,"internalType":"bytes32","name":"promiseId","type":"bytes32"},{"indexed":false,"internalType":"string","name":"assertedOutcome","type":"string"},{"indexed":true,"internalType":"bytes32","name":"assertionId","type":"bytes32"}],"name":"promiseAsserted","type":"event"},{"anonymous":false,"inputs":[{"indexed":true,"internalType":"bytes32","name":"promiseId","type":"bytes32"},{"indexed":false,"internalType":"string","name":"outcome1","type":"string"},{"indexed":false,"internalType":"string","name":"outcome2","type":"string"},{"indexed":false,"internalType":"string","name":"description","type":"string"},{"indexed":false,"internalType":"address","name":"outcome1Token","type":"address"},{"indexed":false,"internalType":"address","name":"outcome2Token","type":"address"},{"indexed":false,"internalType":"uint256","name":"reward","type":"uint256"},{"indexed":false,"internalType":"uint256","name":"requiredBond","type":"uint256"}],"name":"promiseInitialized","type":"event"},{"anonymous":false,"inputs":[{"indexed":true,"internalType":"bytes32","name":"promiseId","type":"bytes32"}],"name":"promiseResolved","type":"event"},{"inputs":[{"internalType":"bytes32","name":"promiseId","type":"bytes32"},{"internalType":"uint32","name":"assertedOutcome","type":"uint32"}],"name":"assertPromise","outputs":[{"internalType":"bytes32","name":"assertionId","type":"bytes32"}],"stateMutability":"nonpayable","type":"function"},{"inputs":[{"internalType":"bytes32","name":"","type":"bytes32"}],"name":"assertedPromises","outputs":[{"internalType":"address","name":"asserter","type":"address"},{"internalType":"bytes32","name":"promiseId","type":"bytes32"}],"stateMutability":"view","type":"function"},{"inputs":[{"internalType":"bytes32","name":"assertionId","type":"bytes32"}],"name":"assertionDisputedCallback","outputs":[],"stateMutability":"nonpayable","type":"function"},{"inputs":[{"internalType":"bytes32","name":"assertionId","type":"bytes32"},{"internalType":"bool","name":"assertedTruthfully","type":"bool"}],"name":"assertionResolvedCallback","outputs":[],"stateMutability":"nonpayable","type":"function"},{"inputs":[{"internalType":"string","name":"statement","type":"string"},{"internalType":"bytes","name":"responseSismo","type":"bytes"}],"name":"createPromise","outputs":[{"internalType":"bytes32","name":"promiseId","type":"bytes32"}],"stateMutability":"nonpayable","type":"function"},{"inputs":[],"name":"currency","outputs":[{"internalType":"contract IERC20","name":"","type":"address"}],"stateMutability":"view","type":"function"},{"inputs":[],"name":"defaultIdentifier","outputs":[{"internalType":"bytes32","name":"","type":"bytes32"}],"stateMutability":"view","type":"function"},{"inputs":[{"internalType":"bytes32","name":"promiseId","type":"bytes32"}],"name":"getPromise","outputs":[{"components":[{"internalType":"address","name":"politician","type":"address"},{"internalType":"string","name":"statement","type":"string"},{"internalType":"uint256","name":"stake","type":"uint256"},{"internalType":"uint32","name":"assertedOutcome","type":"uint32"},{"internalType":"uint32","name":"payedOutcome","type":"uint32"},{"internalType":"bool","name":"resolved","type":"bool"}],"internalType":"struct PromiseEscrow.Promise","name":"","type":"tuple"}],"stateMutability":"view","type":"function"},{"inputs":[],"name":"oneDayInBlocks","outputs":[{"internalType":"uint64","name":"","type":"uint64"}],"stateMutability":"view","type":"function"},{"inputs":[],"name":"oo","outputs":[{"internalType":"contract OptimisticOracleV3Interface","name":"","type":"address"}],"stateMutability":"view","type":"function"},{"inputs":[{"internalType":"bytes32","name":"","type":"bytes32"}],"name":"promises","outputs":[{"internalType":"address","name":"politician","type":"address"},{"internalType":"string","name":"statement","type":"string"},{"internalType":"uint256","name":"stake","type":"uint256"},{"internalType":"uint32","name":"assertedOutcome","type":"uint32"},{"internalType":"uint32","name":"payedOutcome","type":"uint32"},{"internalType":"bool","name":"resolved","type":"bool"}],"stateMutability":"view","type":"function"},{"inputs":[],"name":"sismoVerifier","outputs":[{"internalType":"contract ISismoVerifier","name":"","type":"address"}],"stateMutability":"view","type":"function"},{"inputs":[{"internalType":"bytes32","name":"promiseId","type":"bytes32"},{"internalType":"bytes","name":"responseSismo","type":"bytes"}],"name":"stakeForPromise","outputs":[],"stateMutability":"payable","type":"function"}],"evm":{"bytecode":{"linkReferences":{},"object":"60e06040523480156200001157600080fd5b5060405162001daf38038062001daf8339810160408190526200003491620000f4565b6001600160a01b03808416608052821660a08190526040805163d509b01760e01b8152905163d509b017916004808201926020929091908290030181865afa15801562000085573d6000803e3d6000fd5b505050506040513d601f19601f82011682018060405250810190620000ab91906200013e565b60c052600080546001600160a01b0319166001600160a01b039290921691909117905550620001589050565b80516001600160a01b0381168114620000ef57600080fd5b919050565b6000806000606084860312156200010a57600080fd5b6200011584620000d7565b92506200012560208501620000d7565b91506200013560408501620000d7565b90509250925092565b6000602082840312156200015157600080fd5b5051919050565b60805160a05160c051611be1620001ce6000396000818161022a0152611051015260008181610186015281816104ac0152818161061901528181610c950152610ff40152600081816102bd01528181610478015281816105c2015281816105f701528181610da6015261102d0152611be16000f3fe6080604052600436106100c25760003560e01c8063cc2f84cb1161007f578063dbb6b00f11610059578063dbb6b00f1461024c578063e5a6b10f146102ab578063f1b156b2146102df578063f2978d98146102ff57600080fd5b8063cc2f84cb146101c8578063d448a4ec146101fa578063d509b0171461021857600080fd5b806309c977e4146100c7578063162a11f5146100fa5780635dd51ddd146101325780638528f1dd1461015f5780638921a61414610174578063ad00ff08146101a8575b600080fd5b3480156100d357600080fd5b506100e76100e236600461133f565b61032e565b6040519081526020015b60405180910390f35b34801561010657600080fd5b5060005461011a906001600160a01b031681565b6040516001600160a01b0390911681526020016100f1565b34801561013e57600080fd5b5061015261014d366004611378565b6106de565b6040516100f191906113e1565b61017261016d3660046114fd565b61080f565b005b34801561018057600080fd5b5061011a7f000000000000000000000000000000000000000000000000000000000000000081565b3480156101b457600080fd5b506100e76101c3366004611544565b61098b565b3480156101d457600080fd5b506101e86101e3366004611378565b610bb1565b6040516100f1969594939291906115b5565b34801561020657600080fd5b50610172610215366004611378565b50565b34801561022457600080fd5b506100e77f000000000000000000000000000000000000000000000000000000000000000081565b34801561025857600080fd5b5061028c610267366004611378565b600260205260009081526040902080546001909101546001600160a01b039091169082565b604080516001600160a01b0390931683526020830191909152016100f1565b3480156102b757600080fd5b5061011a7f000000000000000000000000000000000000000000000000000000000000000081565b3480156102eb57600080fd5b506101726102fa366004611615565b610c8a565b34801561030b57600080fd5b50610315611c2081565b60405167ffffffffffffffff90911681526020016100f1565b600082815260016020526040812080546001600160a01b03166103915760405162461bcd60e51b81526020600482015260166024820152751c1c9bdb5a5cd948191bd95cc81b9bdd08195e1a5cdd60521b60448201526064015b60405180910390fd5b60008363ffffffff161180156103ae575060648363ffffffff1611155b6103fa5760405162461bcd60e51b815260206004820152601e60248201527f70657263656e74616765206f7574736964652076616c69642072616e676500006044820152606401610388565b600381015463ffffffff16156104525760405162461bcd60e51b815260206004820152601c60248201527f417373657274696f6e20616374697665206f72207265736f6c766564000000006044820152606401610388565b60038101805463ffffffff191663ffffffff8516179055604051634360af3d60e01b81527f00000000000000000000000000000000000000000000000000000000000000006001600160a01b0390811660048301526000917f000000000000000000000000000000000000000000000000000000000000000090911690634360af3d90602401602060405180830381865afa1580156104f5573d6000803e3d6000fd5b505050506040513d601f19601f82011682018060405250810190610519919061163a565b905060006105b38584600101805461053090611653565b80601f016020809104026020016040519081016040528092919081815260200182805461055c90611653565b80156105a95780601f1061057e576101008083540402835291602001916105a9565b820191906000526020600020905b81548152906001019060200180831161058c57829003601f168201915b5050505050610e22565b90506105ea6001600160a01b037f000000000000000000000000000000000000000000000000000000000000000016333085610e4f565b61063e6001600160a01b037f0000000000000000000000000000000000000000000000000000000000000000167f000000000000000000000000000000000000000000000000000000000000000084610ec0565b6106488183610fda565b60408051808201825233815260208082018a8152600085815260028352848120935184546001600160a01b0319166001600160a01b0390911617845590516001938401558a8152908290528290209151929650869289927ffc277fb088ac1d3decd10c06016f23f6e0376fe72677c7779352ad11947b3539926106cd9291019061168d565b60405180910390a350505092915050565b6040805160c08101825260008082526060602083018190529282018190529181018290526080810182905260a0810191909152600082815260016020818152604092839020835160c0810190945280546001600160a01b0316845291820180549184019161074b90611653565b80601f016020809104026020016040519081016040528092919081815260200182805461077790611653565b80156107c45780601f10610799576101008083540402835291602001916107c4565b820191906000526020600020905b8154815290600101906020018083116107a757829003601f168201915b50505091835250506002820154602082015260039091015463ffffffff80821660408401526401000000008204166060830152600160401b900460ff16151560809091015292915050565b600080548382526001602081815260409384902093516001600160a01b03909316936381d6ef2d9386936108499334939091019101611718565b6040516020818303038152906040526040518363ffffffff1660e01b81526004016108759291906117c5565b600060405180830381600087803b15801561088f57600080fd5b505af11580156108a3573d6000803e3d6000fd5b5050506000838152600160205260409020546001600160a01b031690506109055760405162461bcd60e51b8152602060048201526016602482015275141c9bdb5a5cd948191bd95cc81b9bdd08195e1a5cdd60521b6044820152606401610388565b600034116109615760405162461bcd60e51b8152602060048201526024808201527f4d7573742073656e642045544820746f207374616b6520666f7220612070726f6044820152636d69736560e01b6064820152608401610388565b60008281526001602052604081206002018054349290610982908490611809565b90915550505050565b600080546040516001600160a01b039091169063bbc4cf0c9084906109b490879060200161181c565b6040516020818303038152906040526040518363ffffffff1660e01b81526004016109e09291906117c5565b600060405180830381600087803b1580156109fa57600080fd5b505af1158015610a0e573d6000803e3d6000fd5b505050508233604051602001610a25929190611855565b60408051601f198184030181529181528151602092830120600081815260019093529120549091506001600160a01b031615610a9c5760405162461bcd60e51b815260206004820152601660248201527570726f6d69736520616c72656164792065786973747360501b6044820152606401610388565b6040805160c08101825233815260208082018681526000838501819052606084018190526080840181905260a0840181905285815260019283905293909320825181546001600160a01b0319166001600160a01b03909116178155925191929190820190610b0a90826118cd565b506040828101516002830155606083015160039092018054608085015160a0909501511515600160401b0260ff60401b1963ffffffff9687166401000000000267ffffffffffffffff19909316969095169590951717929092169290921790555181907f35c188503eac0a4579ece673a6b5c27145329435947ac3b24b9b6ce1f07df8ac90610ba390869060009081908190819061198d565b60405180910390a292915050565b6001602081905260009182526040909120805491810180546001600160a01b0390931692610bde90611653565b80601f0160208091040260200160405190810160405280929190818152602001828054610c0a90611653565b8015610c575780601f10610c2c57610100808354040283529160200191610c57565b820191906000526020600020905b815481529060010190602001808311610c3a57829003601f168201915b50505050600283015460039093015491929163ffffffff808216925064010000000082041690600160401b900460ff1686565b336001600160a01b037f00000000000000000000000000000000000000000000000000000000000000001614610cf35760405162461bcd60e51b815260206004820152600e60248201526d139bdd08185d5d1a1bdc9a5e995960921b6044820152606401610388565b6000828152600260209081526040808320600190810154845290915290208115610e105760038101805460ff60401b1916600160401b179055600281015415610dd5576002810154600382015460009190610d5e9063ffffffff640100000000820481169116611a06565b63ffffffff16610d6e9190611a2a565b60038301805467ffffffff0000000019811663ffffffff91821664010000000002179091558354919250610dd3916001600160a01b037f000000000000000000000000000000000000000000000000000000000000000081169291169084906110c516565b505b60008381526002602052604080822060010154905190917fbe0f41ebe98cbb9d779ee222989fb0ca4862011ce32be4371c9e7518958a7b0d91a25b600301805463ffffffff191690555050565b60608282604051602001610e37929190611a49565b60405160208183030381529060405290505b92915050565b6040516001600160a01b0380851660248301528316604482015260648101829052610eba9085906323b872dd60e01b906084015b60408051601f198184030181529190526020810180516001600160e01b03166001600160e01b0319909316929092179091526110f5565b50505050565b801580610f3a5750604051636eb1769f60e11b81523060048201526001600160a01b03838116602483015284169063dd62ed3e90604401602060405180830381865afa158015610f14573d6000803e3d6000fd5b505050506040513d601f19601f82011682018060405250810190610f38919061163a565b155b610fa55760405162461bcd60e51b815260206004820152603660248201527f5361666545524332303a20617070726f76652066726f6d206e6f6e2d7a65726f60448201527520746f206e6f6e2d7a65726f20616c6c6f77616e636560501b6064820152608401610388565b6040516001600160a01b038316602482015260448101829052610fd590849063095ea7b360e01b90606401610e83565b505050565b604051636457c97960e01b81526000906001600160a01b037f00000000000000000000000000000000000000000000000000000000000000001690636457c9799061107b908690339030908790611c20907f0000000000000000000000000000000000000000000000000000000000000000908b907f0000000000000000000000000000000000000000000000000000000000000000908590600401611af1565b6020604051808303816000875af115801561109a573d6000803e3d6000fd5b505050506040513d601f19601f820116820180604052508101906110be919061163a565b9392505050565b6040516001600160a01b038316602482015260448101829052610fd590849063a9059cbb60e01b90606401610e83565b600061114a826040518060400160405280602081526020017f5361666545524332303a206c6f772d6c6576656c2063616c6c206661696c6564815250856001600160a01b03166111c79092919063ffffffff16565b805190915015610fd557808060200190518101906111689190611b5f565b610fd55760405162461bcd60e51b815260206004820152602a60248201527f5361666545524332303a204552433230206f7065726174696f6e20646964206e6044820152691bdd081cdd58d8d9595960b21b6064820152608401610388565b60606111d684846000856111de565b949350505050565b60608247101561123f5760405162461bcd60e51b815260206004820152602660248201527f416464726573733a20696e73756666696369656e742062616c616e636520666f6044820152651c8818d85b1b60d21b6064820152608401610388565b843b61128d5760405162461bcd60e51b815260206004820152601d60248201527f416464726573733a2063616c6c20746f206e6f6e2d636f6e74726163740000006044820152606401610388565b600080866001600160a01b031685876040516112a99190611b7c565b60006040518083038185875af1925050503d80600081146112e6576040519150601f19603f3d011682016040523d82523d6000602084013e6112eb565b606091505b50915091506112fb828286611306565b979650505050505050565b606083156113155750816110be565b8251156113255782518084602001fd5b8160405162461bcd60e51b81526004016103889190611b98565b6000806040838503121561135257600080fd5b82359150602083013563ffffffff8116811461136d57600080fd5b809150509250929050565b60006020828403121561138a57600080fd5b5035919050565b60005b838110156113ac578181015183820152602001611394565b50506000910152565b600081518084526113cd816020860160208601611391565b601f01601f19169290920160200192915050565b602080825282516001600160a01b03168282015282015160c0604083015260009061140f60e08401826113b5565b905060408401516060840152606084015163ffffffff80821660808601528060808701511660a0860152505060a0840151151560c08401528091505092915050565b634e487b7160e01b600052604160045260246000fd5b600067ffffffffffffffff8084111561148257611482611451565b604051601f8501601f19908116603f011681019082821181831017156114aa576114aa611451565b816040528093508581528686860111156114c357600080fd5b858560208301376000602087830101525050509392505050565b600082601f8301126114ee57600080fd5b6110be83833560208501611467565b6000806040838503121561151057600080fd5b82359150602083013567ffffffffffffffff81111561152e57600080fd5b61153a858286016114dd565b9150509250929050565b6000806040838503121561155757600080fd5b823567ffffffffffffffff8082111561156f57600080fd5b818501915085601f83011261158357600080fd5b61159286833560208501611467565b935060208501359150808211156115a857600080fd5b5061153a858286016114dd565b6001600160a01b038716815260c0602082018190526000906115d9908301886113b5565b60408301969096525063ffffffff938416606082015291909216608082015290151560a09091015292915050565b801515811461021557600080fd5b6000806040838503121561162857600080fd5b82359150602083013561136d81611607565b60006020828403121561164c57600080fd5b5051919050565b600181811c9082168061166757607f821691505b60208210810361168757634e487b7160e01b600052602260045260246000fd5b50919050565b60006020808352600084546116a181611653565b808487015260406001808416600081146116c257600181146116dc5761170a565b60ff1985168984015283151560051b89018301955061170a565b896000528660002060005b858110156117025781548b82018601529083019088016116e7565b8a0184019650505b509398975050505050505050565b67029ba30b5b4b733960c51b81528260088201526c0103337b910383937b6b4b9b29609d1b6028820152600060356000845461175381611653565b6001828116801561176b5760018114611784576117b7565b60ff1984168887015282151583028801860194506117b7565b8860005260208060002060005b858110156117ac5781548b82018a0152908401908201611791565b505050858389010194505b509298975050505050505050565b6040815260006117d860408301856113b5565b82810360208401526117ea81856113b5565b95945050505050565b634e487b7160e01b600052601160045260246000fd5b80820180821115610e4957610e496117f3565b70021b932b0ba34b73390383937b6b4b9b29607d1b815260008251611848816011850160208701611391565b9190910160110192915050565b60408152600061186860408301856113b5565b905060018060a01b03831660208301529392505050565b601f821115610fd557600081815260208120601f850160051c810160208610156118a65750805b601f850160051c820191505b818110156118c5578281556001016118b2565b505050505050565b815167ffffffffffffffff8111156118e7576118e7611451565b6118fb816118f58454611653565b8461187f565b602080601f83116001811461193057600084156119185750858301515b600019600386901b1c1916600185901b1785556118c5565b600085815260208120601f198616915b8281101561195f57888601518255948401946001909101908401611940565b508582101561197d5787850151600019600388901b60f8161c191681555b5050505050600190811b01905550565b60e08152600360e08201526259657360e81b610100820152600061012080602084015260028184015250614e6f60f01b6101408301526101608060408401526119d8818401896113b5565b6001600160a01b0397881660608501529590961660808301525060a081019290925260c09091015292915050565b63ffffffff828116828216039080821115611a2357611a236117f3565b5092915050565b6000816000190483118215151615611a4457611a446117f3565b500290565b7f447572696e672074686520656c656374656420706572696f642074686520646581527f736372696265642070726f6d69736520686173206265656e2066756c66696c6c602082015264656420746f60d81b604082015263ffffffff60e01b8360e01b1660458201527201296103a343290383937b6b4b9b29034b99d1606d1b604982015260008251611ae381605c850160208701611391565b91909101605c019392505050565b6000610120808352611b058184018d6113b5565b6001600160a01b039b8c166020850152998b1660408401525050958816606087015267ffffffffffffffff9490941660808601529190951660a084015260c083019490945260e08201939093526101000191909152919050565b600060208284031215611b7157600080fd5b81516110be81611607565b60008251611b8e818460208701611391565b9190910192915050565b6020815260006110be60208301846113b556fea2646970667358221220d9af93c6943fa789aaf10620e204eba60c68efba12e0f791ab78f6e90a3856c064736f6c63430008100033","opcodes":"PUSH1 0xE0 PUSH1 0x40 MSTORE CALLVALUE DUP1 ISZERO PUSH3 0x11 JUMPI PUSH1 0x0 DUP1 REVERT JUMPDEST POP PUSH1 0x40 MLOAD PUSH3 0x1DAF CODESIZE SUB DUP1 PUSH3 0x1DAF DUP4 CODECOPY DUP2 ADD PUSH1 0x40 DUP2 SWAP1 MSTORE PUSH3 0x34 SWAP2 PUSH3 0xF4 JUMP JUMPDEST PUSH1 0x1 PUSH1 0x1 PUSH1 0xA0 SHL SUB DUP1 DUP5 AND PUSH1 0x80 MSTORE DUP3 AND PUSH1 0xA0 DUP2 SWAP1 MSTORE PUSH1 0x40 DUP1 MLOAD PUSH4 0xD509B017 PUSH1 0xE0 SHL DUP2 MSTORE SWAP1 MLOAD PUSH4 0xD509B017 SWAP2 PUSH1 0x4 DUP1 DUP3 ADD SWAP3 PUSH1 0x20 SWAP3 SWAP1 SWAP2 SWAP1 DUP3 SWAP1 SUB ADD DUP2 DUP7 GAS STATICCALL ISZERO DUP1 ISZERO PUSH3 0x85 JUMPI RETURNDATASIZE PUSH1 0x0 DUP1 RETURNDATACOPY RETURNDATASIZE PUSH1 0x0 REVERT JUMPDEST POP POP POP POP PUSH1 0x40 MLOAD RETURNDATASIZE PUSH1 0x1F NOT PUSH1 0x1F DUP3 ADD AND DUP3 ADD DUP1 PUSH1 0x40 MSTORE POP DUP2 ADD SWAP1 PUSH3 0xAB SWAP2 SWAP1 PUSH3 0x13E JUMP JUMPDEST PUSH1 0xC0 MSTORE PUSH1 0x0 DUP1 SLOAD PUSH1 0x1 PUSH1 0x1 PUSH1 0xA0 SHL SUB NOT AND PUSH1 0x1 PUSH1 0x1 PUSH1 0xA0 SHL SUB SWAP3 SWAP1 SWAP3 AND SWAP2 SWAP1 SWAP2 OR SWAP1 SSTORE POP PUSH3 0x158 SWAP1 POP JUMP JUMPDEST DUP1 MLOAD PUSH1 0x1 PUSH1 0x1 PUSH1 0xA0 SHL SUB DUP2 AND DUP2 EQ PUSH3 0xEF JUMPI PUSH1 0x0 DUP1 REVERT JUMPDEST SWAP2 SWAP1 POP JUMP JUMPDEST PUSH1 0x0 DUP1 PUSH1 0x0 PUSH1 0x60 DUP5 DUP7 SUB SLT ISZERO PUSH3 0x10A JUMPI PUSH1 0x0 DUP1 REVERT JUMPDEST PUSH3 0x115 DUP5 PUSH3 0xD7 JUMP JUMPDEST SWAP3 POP PUSH3 0x125 PUSH1 0x20 DUP6 ADD PUSH3 0xD7 JUMP JUMPDEST SWAP2 POP PUSH3 0x135 PUSH1 0x40 DUP6 ADD PUSH3 0xD7 JUMP JUMPDEST SWAP1 POP SWAP3 POP SWAP3 POP SWAP3 JUMP JUMPDEST PUSH1 0x0 PUSH1 0x20 DUP3 DUP5 SUB SLT ISZERO PUSH3 0x151 JUMPI PUSH1 0x0 DUP1 REVERT JUMPDEST POP MLOAD SWAP2 SWAP1 POP JUMP JUMPDEST PUSH1 0x80 MLOAD PUSH1 0xA0 MLOAD PUSH1 0xC0 MLOAD PUSH2 0x1BE1 PUSH3 0x1CE PUSH1 0x0 CODECOPY PUSH1 0x0 DUP2 DUP2 PUSH2 0x22A ADD MSTORE PUSH2 0x1051 ADD MSTORE PUSH1 0x0 DUP2 DUP2 PUSH2 0x186 ADD MSTORE DUP2 DUP2 PUSH2 0x4AC ADD MSTORE DUP2 DUP2 PUSH2 0x619 ADD MSTORE DUP2 DUP2 PUSH2 0xC95 ADD MSTORE PUSH2 0xFF4 ADD MSTORE PUSH1 0x0 DUP2 DUP2 PUSH2 0x2BD ADD MSTORE DUP2 DUP2 PUSH2 0x478 ADD MSTORE DUP2 DUP2 PUSH2 0x5C2 ADD MSTORE DUP2 DUP2 PUSH2 0x5F7 ADD MSTORE DUP2 DUP2 PUSH2 0xDA6 ADD MSTORE PUSH2 0x102D ADD MSTORE PUSH2 0x1BE1 PUSH1 0x0 RETURN INVALID PUSH1 0x80 PUSH1 0x40 MSTORE PUSH1 0x4 CALLDATASIZE LT PUSH2 0xC2 JUMPI PUSH1 0x0 CALLDATALOAD PUSH1 0xE0 SHR DUP1 PUSH4 0xCC2F84CB GT PUSH2 0x7F JUMPI DUP1 PUSH4 0xDBB6B00F GT PUSH2 0x59 JUMPI DUP1 PUSH4 0xDBB6B00F EQ PUSH2 0x24C JUMPI DUP1 PUSH4 0xE5A6B10F EQ PUSH2 0x2AB JUMPI DUP1 PUSH4 0xF1B156B2 EQ PUSH2 0x2DF JUMPI DUP1 PUSH4 0xF2978D98 EQ PUSH2 0x2FF JUMPI PUSH1 0x0 DUP1 REVERT JUMPDEST DUP1 PUSH4 0xCC2F84CB EQ PUSH2 0x1C8 JUMPI DUP1 PUSH4 0xD448A4EC EQ PUSH2 0x1FA JUMPI DUP1 PUSH4 0xD509B017 EQ PUSH2 0x218 JUMPI PUSH1 0x0 DUP1 REVERT JUMPDEST DUP1 PUSH4 0x9C977E4 EQ PUSH2 0xC7 JUMPI DUP1 PUSH4 0x162A11F5 EQ PUSH2 0xFA JUMPI DUP1 PUSH4 0x5DD51DDD EQ PUSH2 0x132 JUMPI DUP1 PUSH4 0x8528F1DD EQ PUSH2 0x15F JUMPI DUP1 PUSH4 0x8921A614 EQ PUSH2 0x174 JUMPI DUP1 PUSH4 0xAD00FF08 EQ PUSH2 0x1A8 JUMPI JUMPDEST PUSH1 0x0 DUP1 REVERT JUMPDEST CALLVALUE DUP1 ISZERO PUSH2 0xD3 JUMPI PUSH1 0x0 DUP1 REVERT JUMPDEST POP PUSH2 0xE7 PUSH2 0xE2 CALLDATASIZE PUSH1 0x4 PUSH2 0x133F JUMP JUMPDEST PUSH2 0x32E JUMP JUMPDEST PUSH1 0x40 MLOAD SWAP1 DUP2 MSTORE PUSH1 0x20 ADD JUMPDEST PUSH1 0x40 MLOAD DUP1 SWAP2 SUB SWAP1 RETURN JUMPDEST CALLVALUE DUP1 ISZERO PUSH2 0x106 JUMPI PUSH1 0x0 DUP1 REVERT JUMPDEST POP PUSH1 0x0 SLOAD PUSH2 0x11A SWAP1 PUSH1 0x1 PUSH1 0x1 PUSH1 0xA0 SHL SUB AND DUP2 JUMP JUMPDEST PUSH1 0x40 MLOAD PUSH1 0x1 PUSH1 0x1 PUSH1 0xA0 SHL SUB SWAP1 SWAP2 AND DUP2 MSTORE PUSH1 0x20 ADD PUSH2 0xF1 JUMP JUMPDEST CALLVALUE DUP1 ISZERO PUSH2 0x13E JUMPI PUSH1 0x0 DUP1 REVERT JUMPDEST POP PUSH2 0x152 PUSH2 0x14D CALLDATASIZE PUSH1 0x4 PUSH2 0x1378 JUMP JUMPDEST PUSH2 0x6DE JUMP JUMPDEST PUSH1 0x40 MLOAD PUSH2 0xF1 SWAP2 SWAP1 PUSH2 0x13E1 JUMP JUMPDEST PUSH2 0x172 PUSH2 0x16D CALLDATASIZE PUSH1 0x4 PUSH2 0x14FD JUMP JUMPDEST PUSH2 0x80F JUMP JUMPDEST STOP JUMPDEST CALLVALUE DUP1 ISZERO PUSH2 0x180 JUMPI PUSH1 0x0 DUP1 REVERT JUMPDEST POP PUSH2 0x11A PUSH32 0x0 DUP2 JUMP JUMPDEST CALLVALUE DUP1 ISZERO PUSH2 0x1B4 JUMPI PUSH1 0x0 DUP1 REVERT JUMPDEST POP PUSH2 0xE7 PUSH2 0x1C3 CALLDATASIZE PUSH1 0x4 PUSH2 0x1544 JUMP JUMPDEST PUSH2 0x98B JUMP JUMPDEST CALLVALUE DUP1 ISZERO PUSH2 0x1D4 JUMPI PUSH1 0x0 DUP1 REVERT JUMPDEST POP PUSH2 0x1E8 PUSH2 0x1E3 CALLDATASIZE PUSH1 0x4 PUSH2 0x1378 JUMP JUMPDEST PUSH2 0xBB1 JUMP JUMPDEST PUSH1 0x40 MLOAD PUSH2 0xF1 SWAP7 SWAP6 SWAP5 SWAP4 SWAP3 SWAP2 SWAP1 PUSH2 0x15B5 JUMP JUMPDEST CALLVALUE DUP1 ISZERO PUSH2 0x206 JUMPI PUSH1 0x0 DUP1 REVERT JUMPDEST POP PUSH2 0x172 PUSH2 0x215 CALLDATASIZE PUSH1 0x4 PUSH2 0x1378 JUMP JUMPDEST POP JUMP JUMPDEST CALLVALUE DUP1 ISZERO PUSH2 0x224 JUMPI PUSH1 0x0 DUP1 REVERT JUMPDEST POP PUSH2 0xE7 PUSH32 0x0 DUP2 JUMP JUMPDEST CALLVALUE DUP1 ISZERO PUSH2 0x258 JUMPI PUSH1 0x0 DUP1 REVERT JUMPDEST POP PUSH2 0x28C PUSH2 0x267 CALLDATASIZE PUSH1 0x4 PUSH2 0x1378 JUMP JUMPDEST PUSH1 0x2 PUSH1 0x20 MSTORE PUSH1 0x0 SWAP1 DUP2 MSTORE PUSH1 0x40 SWAP1 KECCAK256 DUP1 SLOAD PUSH1 0x1 SWAP1 SWAP2 ADD SLOAD PUSH1 0x1 PUSH1 0x1 PUSH1 0xA0 SHL SUB SWAP1 SWAP2 AND SWAP1 DUP3 JUMP JUMPDEST PUSH1 0x40 DUP1 MLOAD PUSH1 0x1 PUSH1 0x1 PUSH1 0xA0 SHL SUB SWAP1 SWAP4 AND DUP4 MSTORE PUSH1 0x20 DUP4 ADD SWAP2 SWAP1 SWAP2 MSTORE ADD PUSH2 0xF1 JUMP JUMPDEST CALLVALUE DUP1 ISZERO PUSH2 0x2B7 JUMPI PUSH1 0x0 DUP1 REVERT JUMPDEST POP PUSH2 0x11A PUSH32 0x0 DUP2 JUMP JUMPDEST CALLVALUE DUP1 ISZERO PUSH2 0x2EB JUMPI PUSH1 0x0 DUP1 REVERT JUMPDEST POP PUSH2 0x172 PUSH2 0x2FA CALLDATASIZE PUSH1 0x4 PUSH2 0x1615 JUMP JUMPDEST PUSH2 0xC8A JUMP JUMPDEST CALLVALUE DUP1 ISZERO PUSH2 0x30B JUMPI PUSH1 0x0 DUP1 REVERT JUMPDEST POP PUSH2 0x315 PUSH2 0x1C20 DUP2 JUMP JUMPDEST PUSH1 0x40 MLOAD PUSH8 0xFFFFFFFFFFFFFFFF SWAP1 SWAP2 AND DUP2 MSTORE PUSH1 0x20 ADD PUSH2 0xF1 JUMP JUMPDEST PUSH1 0x0 DUP3 DUP2 MSTORE PUSH1 0x1 PUSH1 0x20 MSTORE PUSH1 0x40 DUP2 KECCAK256 DUP1 SLOAD PUSH1 0x1 PUSH1 0x1 PUSH1 0xA0 SHL SUB AND PUSH2 0x391 JUMPI PUSH1 0x40 MLOAD PUSH3 0x461BCD PUSH1 0xE5 SHL DUP2 MSTORE PUSH1 0x20 PUSH1 0x4 DUP3 ADD MSTORE PUSH1 0x16 PUSH1 0x24 DUP3 ADD MSTORE PUSH22 0x1C1C9BDB5A5CD948191BD95CC81B9BDD08195E1A5CDD PUSH1 0x52 SHL PUSH1 0x44 DUP3 ADD MSTORE PUSH1 0x64 ADD JUMPDEST PUSH1 0x40 MLOAD DUP1 SWAP2 SUB SWAP1 REVERT JUMPDEST PUSH1 0x0 DUP4 PUSH4 0xFFFFFFFF AND GT DUP1 ISZERO PUSH2 0x3AE JUMPI POP PUSH1 0x64 DUP4 PUSH4 0xFFFFFFFF AND GT ISZERO JUMPDEST PUSH2 0x3FA JUMPI PUSH1 0x40 MLOAD PUSH3 0x461BCD PUSH1 0xE5 SHL DUP2 MSTORE PUSH1 0x20 PUSH1 0x4 DUP3 ADD MSTORE PUSH1 0x1E PUSH1 0x24 DUP3 ADD MSTORE PUSH32 0x70657263656E74616765206F7574736964652076616C69642072616E67650000 PUSH1 0x44 DUP3 ADD MSTORE PUSH1 0x64 ADD PUSH2 0x388 JUMP JUMPDEST PUSH1 0x3 DUP2 ADD SLOAD PUSH4 0xFFFFFFFF AND ISZERO PUSH2 0x452 JUMPI PUSH1 0x40 MLOAD PUSH3 0x461BCD PUSH1 0xE5 SHL DUP2 MSTORE PUSH1 0x20 PUSH1 0x4 DUP3 ADD MSTORE PUSH1 0x1C PUSH1 0x24 DUP3 ADD MSTORE PUSH32 0x417373657274696F6E20616374697665206F72207265736F6C76656400000000 PUSH1 0x44 DUP3 ADD MSTORE PUSH1 0x64 ADD PUSH2 0x388 JUMP JUMPDEST PUSH1 0x3 DUP2 ADD DUP1 SLOAD PUSH4 0xFFFFFFFF NOT AND PUSH4 0xFFFFFFFF DUP6 AND OR SWAP1 SSTORE PUSH1 0x40 MLOAD PUSH4 0x4360AF3D PUSH1 0xE0 SHL DUP2 MSTORE PUSH32 0x0 PUSH1 0x1 PUSH1 0x1 PUSH1 0xA0 SHL SUB SWAP1 DUP2 AND PUSH1 0x4 DUP4 ADD MSTORE PUSH1 0x0 SWAP2 PUSH32 0x0 SWAP1 SWAP2 AND SWAP1 PUSH4 0x4360AF3D SWAP1 PUSH1 0x24 ADD PUSH1 0x20 PUSH1 0x40 MLOAD DUP1 DUP4 SUB DUP2 DUP7 GAS STATICCALL ISZERO DUP1 ISZERO PUSH2 0x4F5 JUMPI RETURNDATASIZE PUSH1 0x0 DUP1 RETURNDATACOPY RETURNDATASIZE PUSH1 0x0 REVERT JUMPDEST POP POP POP POP PUSH1 0x40 MLOAD RETURNDATASIZE PUSH1 0x1F NOT PUSH1 0x1F DUP3 ADD AND DUP3 ADD DUP1 PUSH1 0x40 MSTORE POP DUP2 ADD SWAP1 PUSH2 0x519 SWAP2 SWAP1 PUSH2 0x163A JUMP JUMPDEST SWAP1 POP PUSH1 0x0 PUSH2 0x5B3 DUP6 DUP5 PUSH1 0x1 ADD DUP1 SLOAD PUSH2 0x530 SWAP1 PUSH2 0x1653 JUMP JUMPDEST DUP1 PUSH1 0x1F ADD PUSH1 0x20 DUP1 SWAP2 DIV MUL PUSH1 0x20 ADD PUSH1 0x40 MLOAD SWAP1 DUP2 ADD PUSH1 0x40 MSTORE DUP1 SWAP3 SWAP2 SWAP1 DUP2 DUP2 MSTORE PUSH1 0x20 ADD DUP3 DUP1 SLOAD PUSH2 0x55C SWAP1 PUSH2 0x1653 JUMP JUMPDEST DUP1 ISZERO PUSH2 0x5A9 JUMPI DUP1 PUSH1 0x1F LT PUSH2 0x57E JUMPI PUSH2 0x100 DUP1 DUP4 SLOAD DIV MUL DUP4 MSTORE SWAP2 PUSH1 0x20 ADD SWAP2 PUSH2 0x5A9 JUMP JUMPDEST DUP3 ADD SWAP2 SWAP1 PUSH1 0x0 MSTORE PUSH1 0x20 PUSH1 0x0 KECCAK256 SWAP1 JUMPDEST DUP2 SLOAD DUP2 MSTORE SWAP1 PUSH1 0x1 ADD SWAP1 PUSH1 0x20 ADD DUP1 DUP4 GT PUSH2 0x58C JUMPI DUP3 SWAP1 SUB PUSH1 0x1F AND DUP3 ADD SWAP2 JUMPDEST POP POP POP POP POP PUSH2 0xE22 JUMP JUMPDEST SWAP1 POP PUSH2 0x5EA PUSH1 0x1 PUSH1 0x1 PUSH1 0xA0 SHL SUB PUSH32 0x0 AND CALLER ADDRESS DUP6 PUSH2 0xE4F JUMP JUMPDEST PUSH2 0x63E PUSH1 0x1 PUSH1 0x1 PUSH1 0xA0 SHL SUB PUSH32 0x0 AND PUSH32 0x0 DUP5 PUSH2 0xEC0 JUMP JUMPDEST PUSH2 0x648 DUP2 DUP4 PUSH2 0xFDA JUMP JUMPDEST PUSH1 0x40 DUP1 MLOAD DUP1 DUP3 ADD DUP3 MSTORE CALLER DUP2 MSTORE PUSH1 0x20 DUP1 DUP3 ADD DUP11 DUP2 MSTORE PUSH1 0x0 DUP6 DUP2 MSTORE PUSH1 0x2 DUP4 MSTORE DUP5 DUP2 KECCAK256 SWAP4 MLOAD DUP5 SLOAD PUSH1 0x1 PUSH1 0x1 PUSH1 0xA0 SHL SUB NOT AND PUSH1 0x1 PUSH1 0x1 PUSH1 0xA0 SHL SUB SWAP1 SWAP2 AND OR DUP5 SSTORE SWAP1 MLOAD PUSH1 0x1 SWAP4 DUP5 ADD SSTORE DUP11 DUP2 MSTORE SWAP1 DUP3 SWAP1 MSTORE DUP3 SWAP1 KECCAK256 SWAP2 MLOAD SWAP3 SWAP7 POP DUP7 SWAP3 DUP10 SWAP3 PUSH32 0xFC277FB088AC1D3DECD10C06016F23F6E0376FE72677C7779352AD11947B3539 SWAP3 PUSH2 0x6CD SWAP3 SWAP2 ADD SWAP1 PUSH2 0x168D JUMP JUMPDEST PUSH1 0x40 MLOAD DUP1 SWAP2 SUB SWAP1 LOG3 POP POP POP SWAP3 SWAP2 POP POP JUMP JUMPDEST PUSH1 0x40 DUP1 MLOAD PUSH1 0xC0 DUP2 ADD DUP3 MSTORE PUSH1 0x0 DUP1 DUP3 MSTORE PUSH1 0x60 PUSH1 0x20 DUP4 ADD DUP2 SWAP1 MSTORE SWAP3 DUP3 ADD DUP2 SWAP1 MSTORE SWAP2 DUP2 ADD DUP3 SWAP1 MSTORE PUSH1 0x80 DUP2 ADD DUP3 SWAP1 MSTORE PUSH1 0xA0 DUP2 ADD SWAP2 SWAP1 SWAP2 MSTORE PUSH1 0x0 DUP3 DUP2 MSTORE PUSH1 0x1 PUSH1 0x20 DUP2 DUP2 MSTORE PUSH1 0x40 SWAP3 DUP4 SWAP1 KECCAK256 DUP4 MLOAD PUSH1 0xC0 DUP2 ADD SWAP1 SWAP5 MSTORE DUP1 SLOAD PUSH1 0x1 PUSH1 0x1 PUSH1 0xA0 SHL SUB AND DUP5 MSTORE SWAP2 DUP3 ADD DUP1 SLOAD SWAP2 DUP5 ADD SWAP2 PUSH2 0x74B SWAP1 PUSH2 0x1653 JUMP JUMPDEST DUP1 PUSH1 0x1F ADD PUSH1 0x20 DUP1 SWAP2 DIV MUL PUSH1 0x20 ADD PUSH1 0x40 MLOAD SWAP1 DUP2 ADD PUSH1 0x40 MSTORE DUP1 SWAP3 SWAP2 SWAP1 DUP2 DUP2 MSTORE PUSH1 0x20 ADD DUP3 DUP1 SLOAD PUSH2 0x777 SWAP1 PUSH2 0x1653 JUMP JUMPDEST DUP1 ISZERO PUSH2 0x7C4 JUMPI DUP1 PUSH1 0x1F LT PUSH2 0x799 JUMPI PUSH2 0x100 DUP1 DUP4 SLOAD DIV MUL DUP4 MSTORE SWAP2 PUSH1 0x20 ADD SWAP2 PUSH2 0x7C4 JUMP JUMPDEST DUP3 ADD SWAP2 SWAP1 PUSH1 0x0 MSTORE PUSH1 0x20 PUSH1 0x0 KECCAK256 SWAP1 JUMPDEST DUP2 SLOAD DUP2 MSTORE SWAP1 PUSH1 0x1 ADD SWAP1 PUSH1 0x20 ADD DUP1 DUP4 GT PUSH2 0x7A7 JUMPI DUP3 SWAP1 SUB PUSH1 0x1F AND DUP3 ADD SWAP2 JUMPDEST POP POP POP SWAP2 DUP4 MSTORE POP POP PUSH1 0x2 DUP3 ADD SLOAD PUSH1 0x20 DUP3 ADD MSTORE PUSH1 0x3 SWAP1 SWAP2 ADD SLOAD PUSH4 0xFFFFFFFF DUP1 DUP3 AND PUSH1 0x40 DUP5 ADD MSTORE PUSH5 0x100000000 DUP3 DIV AND PUSH1 0x60 DUP4 ADD MSTORE PUSH1 0x1 PUSH1 0x40 SHL SWAP1 DIV PUSH1 0xFF AND ISZERO ISZERO PUSH1 0x80 SWAP1 SWAP2 ADD MSTORE SWAP3 SWAP2 POP POP JUMP JUMPDEST PUSH1 0x0 DUP1 SLOAD DUP4 DUP3 MSTORE PUSH1 0x1 PUSH1 0x20 DUP2 DUP2 MSTORE PUSH1 0x40 SWAP4 DUP5 SWAP1 KECCAK256 SWAP4 MLOAD PUSH1 0x1 PUSH1 0x1 PUSH1 0xA0 SHL SUB SWAP1 SWAP4 AND SWAP4 PUSH4 0x81D6EF2D SWAP4 DUP7 SWAP4 PUSH2 0x849 SWAP4 CALLVALUE SWAP4 SWAP1 SWAP2 ADD SWAP2 ADD PUSH2 0x1718 JUMP JUMPDEST PUSH1 0x40 MLOAD PUSH1 0x20 DUP2 DUP4 SUB SUB DUP2 MSTORE SWAP1 PUSH1 0x40 MSTORE PUSH1 0x40 MLOAD DUP4 PUSH4 0xFFFFFFFF AND PUSH1 0xE0 SHL DUP2 MSTORE PUSH1 0x4 ADD PUSH2 0x875 SWAP3 SWAP2 SWAP1 PUSH2 0x17C5 JUMP JUMPDEST PUSH1 0x0 PUSH1 0x40 MLOAD DUP1 DUP4 SUB DUP2 PUSH1 0x0 DUP8 DUP1 EXTCODESIZE ISZERO DUP1 ISZERO PUSH2 0x88F JUMPI PUSH1 0x0 DUP1 REVERT JUMPDEST POP GAS CALL ISZERO DUP1 ISZERO PUSH2 0x8A3 JUMPI RETURNDATASIZE PUSH1 0x0 DUP1 RETURNDATACOPY RETURNDATASIZE PUSH1 0x0 REVERT JUMPDEST POP POP POP PUSH1 0x0 DUP4 DUP2 MSTORE PUSH1 0x1 PUSH1 0x20 MSTORE PUSH1 0x40 SWAP1 KECCAK256 SLOAD PUSH1 0x1 PUSH1 0x1 PUSH1 0xA0 SHL SUB AND SWAP1 POP PUSH2 0x905 JUMPI PUSH1 0x40 MLOAD PUSH3 0x461BCD PUSH1 0xE5 SHL DUP2 MSTORE PUSH1 0x20 PUSH1 0x4 DUP3 ADD MSTORE PUSH1 0x16 PUSH1 0x24 DUP3 ADD MSTORE PUSH22 0x141C9BDB5A5CD948191BD95CC81B9BDD08195E1A5CDD PUSH1 0x52 SHL PUSH1 0x44 DUP3 ADD MSTORE PUSH1 0x64 ADD PUSH2 0x388 JUMP JUMPDEST PUSH1 0x0 CALLVALUE GT PUSH2 0x961 JUMPI PUSH1 0x40 MLOAD PUSH3 0x461BCD PUSH1 0xE5 SHL DUP2 MSTORE PUSH1 0x20 PUSH1 0x4 DUP3 ADD MSTORE PUSH1 0x24 DUP1 DUP3 ADD MSTORE PUSH32 0x4D7573742073656E642045544820746F207374616B6520666F7220612070726F PUSH1 0x44 DUP3 ADD MSTORE PUSH4 0x6D697365 PUSH1 0xE0 SHL PUSH1 0x64 DUP3 ADD MSTORE PUSH1 0x84 ADD PUSH2 0x388 JUMP JUMPDEST PUSH1 0x0 DUP3 DUP2 MSTORE PUSH1 0x1 PUSH1 0x20 MSTORE PUSH1 0x40 DUP2 KECCAK256 PUSH1 0x2 ADD DUP1 SLOAD CALLVALUE SWAP3 SWAP1 PUSH2 0x982 SWAP1 DUP5 SWAP1 PUSH2 0x1809 JUMP JUMPDEST SWAP1 SWAP2 SSTORE POP POP POP POP JUMP JUMPDEST PUSH1 0x0 DUP1 SLOAD PUSH1 0x40 MLOAD PUSH1 0x1 PUSH1 0x1 PUSH1 0xA0 SHL SUB SWAP1 SWAP2 AND SWAP1 PUSH4 0xBBC4CF0C SWAP1 DUP5 SWAP1 PUSH2 0x9B4 SWAP1 DUP8 SWAP1 PUSH1 0x20 ADD PUSH2 0x181C JUMP JUMPDEST PUSH1 0x40 MLOAD PUSH1 0x20 DUP2 DUP4 SUB SUB DUP2 MSTORE SWAP1 PUSH1 0x40 MSTORE PUSH1 0x40 MLOAD DUP4 PUSH4 0xFFFFFFFF AND PUSH1 0xE0 SHL DUP2 MSTORE PUSH1 0x4 ADD PUSH2 0x9E0 SWAP3 SWAP2 SWAP1 PUSH2 0x17C5 JUMP JUMPDEST PUSH1 0x0 PUSH1 0x40 MLOAD DUP1 DUP4 SUB DUP2 PUSH1 0x0 DUP8 DUP1 EXTCODESIZE ISZERO DUP1 ISZERO PUSH2 0x9FA JUMPI PUSH1 0x0 DUP1 REVERT JUMPDEST POP GAS CALL ISZERO DUP1 ISZERO PUSH2 0xA0E JUMPI RETURNDATASIZE PUSH1 0x0 DUP1 RETURNDATACOPY RETURNDATASIZE PUSH1 0x0 REVERT JUMPDEST POP POP POP POP DUP3 CALLER PUSH1 0x40 MLOAD PUSH1 0x20 ADD PUSH2 0xA25 SWAP3 SWAP2 SWAP1 PUSH2 0x1855 JUMP JUMPDEST PUSH1 0x40 DUP1 MLOAD PUSH1 0x1F NOT DUP2 DUP5 SUB ADD DUP2 MSTORE SWAP2 DUP2 MSTORE DUP2 MLOAD PUSH1 0x20 SWAP3 DUP4 ADD KECCAK256 PUSH1 0x0 DUP2 DUP2 MSTORE PUSH1 0x1 SWAP1 SWAP4 MSTORE SWAP2 KECCAK256 SLOAD SWAP1 SWAP2 POP PUSH1 0x1 PUSH1 0x1 PUSH1 0xA0 SHL SUB AND ISZERO PUSH2 0xA9C JUMPI PUSH1 0x40 MLOAD PUSH3 0x461BCD PUSH1 0xE5 SHL DUP2 MSTORE PUSH1 0x20 PUSH1 0x4 DUP3 ADD MSTORE PUSH1 0x16 PUSH1 0x24 DUP3 ADD MSTORE PUSH22 0x70726F6D69736520616C726561647920657869737473 PUSH1 0x50 SHL PUSH1 0x44 DUP3 ADD MSTORE PUSH1 0x64 ADD PUSH2 0x388 JUMP JUMPDEST PUSH1 0x40 DUP1 MLOAD PUSH1 0xC0 DUP2 ADD DUP3 MSTORE CALLER DUP2 MSTORE PUSH1 0x20 DUP1 DUP3 ADD DUP7 DUP2 MSTORE PUSH1 0x0 DUP4 DUP6 ADD DUP2 SWAP1 MSTORE PUSH1 0x60 DUP5 ADD DUP2 SWAP1 MSTORE PUSH1 0x80 DUP5 ADD DUP2 SWAP1 MSTORE PUSH1 0xA0 DUP5 ADD DUP2 SWAP1 MSTORE DUP6 DUP2 MSTORE PUSH1 0x1 SWAP3 DUP4 SWAP1 MSTORE SWAP4 SWAP1 SWAP4 KECCAK256 DUP3 MLOAD DUP2 SLOAD PUSH1 0x1 PUSH1 0x1 PUSH1 0xA0 SHL SUB NOT AND PUSH1 0x1 PUSH1 0x1 PUSH1 0xA0 SHL SUB SWAP1 SWAP2 AND OR DUP2 SSTORE SWAP3 MLOAD SWAP2 SWAP3 SWAP2 SWAP1 DUP3 ADD SWAP1 PUSH2 0xB0A SWAP1 DUP3 PUSH2 0x18CD JUMP JUMPDEST POP PUSH1 0x40 DUP3 DUP2 ADD MLOAD PUSH1 0x2 DUP4 ADD SSTORE PUSH1 0x60 DUP4 ADD MLOAD PUSH1 0x3 SWAP1 SWAP3 ADD DUP1 SLOAD PUSH1 0x80 DUP6 ADD MLOAD PUSH1 0xA0 SWAP1 SWAP6 ADD MLOAD ISZERO ISZERO PUSH1 0x1 PUSH1 0x40 SHL MUL PUSH1 0xFF PUSH1 0x40 SHL NOT PUSH4 0xFFFFFFFF SWAP7 DUP8 AND PUSH5 0x100000000 MUL PUSH8 0xFFFFFFFFFFFFFFFF NOT SWAP1 SWAP4 AND SWAP7 SWAP1 SWAP6 AND SWAP6 SWAP1 SWAP6 OR OR SWAP3 SWAP1 SWAP3 AND SWAP3 SWAP1 SWAP3 OR SWAP1 SSTORE MLOAD DUP2 SWAP1 PUSH32 0x35C188503EAC0A4579ECE673A6B5C27145329435947AC3B24B9B6CE1F07DF8AC SWAP1 PUSH2 0xBA3 SWAP1 DUP7 SWAP1 PUSH1 0x0 SWAP1 DUP2 SWAP1 DUP2 SWAP1 DUP2 SWAP1 PUSH2 0x198D JUMP JUMPDEST PUSH1 0x40 MLOAD DUP1 SWAP2 SUB SWAP1 LOG2 SWAP3 SWAP2 POP POP JUMP JUMPDEST PUSH1 0x1 PUSH1 0x20 DUP2 SWAP1 MSTORE PUSH1 0x0 SWAP2 DUP3 MSTORE PUSH1 0x40 SWAP1 SWAP2 KECCAK256 DUP1 SLOAD SWAP2 DUP2 ADD DUP1 SLOAD PUSH1 0x1 PUSH1 0x1 PUSH1 0xA0 SHL SUB SWAP1 SWAP4 AND SWAP3 PUSH2 0xBDE SWAP1 PUSH2 0x1653 JUMP JUMPDEST DUP1 PUSH1 0x1F ADD PUSH1 0x20 DUP1 SWAP2 DIV MUL PUSH1 0x20 ADD PUSH1 0x40 MLOAD SWAP1 DUP2 ADD PUSH1 0x40 MSTORE DUP1 SWAP3 SWAP2 SWAP1 DUP2 DUP2 MSTORE PUSH1 0x20 ADD DUP3 DUP1 SLOAD PUSH2 0xC0A SWAP1 PUSH2 0x1653 JUMP JUMPDEST DUP1 ISZERO PUSH2 0xC57 JUMPI DUP1 PUSH1 0x1F LT PUSH2 0xC2C JUMPI PUSH2 0x100 DUP1 DUP4 SLOAD DIV MUL DUP4 MSTORE SWAP2 PUSH1 0x20 ADD SWAP2 PUSH2 0xC57 JUMP JUMPDEST DUP3 ADD SWAP2 SWAP1 PUSH1 0x0 MSTORE PUSH1 0x20 PUSH1 0x0 KECCAK256 SWAP1 JUMPDEST DUP2 SLOAD DUP2 MSTORE SWAP1 PUSH1 0x1 ADD SWAP1 PUSH1 0x20 ADD DUP1 DUP4 GT PUSH2 0xC3A JUMPI DUP3 SWAP1 SUB PUSH1 0x1F AND DUP3 ADD SWAP2 JUMPDEST POP POP POP POP PUSH1 0x2 DUP4 ADD SLOAD PUSH1 0x3 SWAP1 SWAP4 ADD SLOAD SWAP2 SWAP3 SWAP2 PUSH4 0xFFFFFFFF DUP1 DUP3 AND SWAP3 POP PUSH5 0x100000000 DUP3 DIV AND SWAP1 PUSH1 0x1 PUSH1 0x40 SHL SWAP1 DIV PUSH1 0xFF AND DUP7 JUMP JUMPDEST CALLER PUSH1 0x1 PUSH1 0x1 PUSH1 0xA0 SHL SUB PUSH32 0x0 AND EQ PUSH2 0xCF3 JUMPI PUSH1 0x40 MLOAD PUSH3 0x461BCD PUSH1 0xE5 SHL DUP2 MSTORE PUSH1 0x20 PUSH1 0x4 DUP3 ADD MSTORE PUSH1 0xE PUSH1 0x24 DUP3 ADD MSTORE PUSH14 0x139BDD08185D5D1A1BDC9A5E9959 PUSH1 0x92 SHL PUSH1 0x44 DUP3 ADD MSTORE PUSH1 0x64 ADD PUSH2 0x388 JUMP JUMPDEST PUSH1 0x0 DUP3 DUP2 MSTORE PUSH1 0x2 PUSH1 0x20 SWAP1 DUP2 MSTORE PUSH1 0x40 DUP1 DUP4 KECCAK256 PUSH1 0x1 SWAP1 DUP2 ADD SLOAD DUP5 MSTORE SWAP1 SWAP2 MSTORE SWAP1 KECCAK256 DUP2 ISZERO PUSH2 0xE10 JUMPI PUSH1 0x3 DUP2 ADD DUP1 SLOAD PUSH1 0xFF PUSH1 0x40 SHL NOT AND PUSH1 0x1 PUSH1 0x40 SHL OR SWAP1 SSTORE PUSH1 0x2 DUP2 ADD SLOAD ISZERO PUSH2 0xDD5 JUMPI PUSH1 0x2 DUP2 ADD SLOAD PUSH1 0x3 DUP3 ADD SLOAD PUSH1 0x0 SWAP2 SWAP1 PUSH2 0xD5E SWAP1 PUSH4 0xFFFFFFFF PUSH5 0x100000000 DUP3 DIV DUP2 AND SWAP2 AND PUSH2 0x1A06 JUMP JUMPDEST PUSH4 0xFFFFFFFF AND PUSH2 0xD6E SWAP2 SWAP1 PUSH2 0x1A2A JUMP JUMPDEST PUSH1 0x3 DUP4 ADD DUP1 SLOAD PUSH8 0xFFFFFFFF00000000 NOT DUP2 AND PUSH4 0xFFFFFFFF SWAP2 DUP3 AND PUSH5 0x100000000 MUL OR SWAP1 SWAP2 SSTORE DUP4 SLOAD SWAP2 SWAP3 POP PUSH2 0xDD3 SWAP2 PUSH1 0x1 PUSH1 0x1 PUSH1 0xA0 SHL SUB PUSH32 0x0 DUP2 AND SWAP3 SWAP2 AND SWAP1 DUP5 SWAP1 PUSH2 0x10C5 AND JUMP JUMPDEST POP JUMPDEST PUSH1 0x0 DUP4 DUP2 MSTORE PUSH1 0x2 PUSH1 0x20 MSTORE PUSH1 0x40 DUP1 DUP3 KECCAK256 PUSH1 0x1 ADD SLOAD SWAP1 MLOAD SWAP1 SWAP2 PUSH32 0xBE0F41EBE98CBB9D779EE222989FB0CA4862011CE32BE4371C9E7518958A7B0D SWAP2 LOG2 JUMPDEST PUSH1 0x3 ADD DUP1 SLOAD PUSH4 0xFFFFFFFF NOT AND SWAP1 SSTORE POP POP JUMP JUMPDEST PUSH1 0x60 DUP3 DUP3 PUSH1 0x40 MLOAD PUSH1 0x20 ADD PUSH2 0xE37 SWAP3 SWAP2 SWAP1 PUSH2 0x1A49 JUMP JUMPDEST PUSH1 0x40 MLOAD PUSH1 0x20 DUP2 DUP4 SUB SUB DUP2 MSTORE SWAP1 PUSH1 0x40 MSTORE SWAP1 POP JUMPDEST SWAP3 SWAP2 POP POP JUMP JUMPDEST PUSH1 0x40 MLOAD PUSH1 0x1 PUSH1 0x1 PUSH1 0xA0 SHL SUB DUP1 DUP6 AND PUSH1 0x24 DUP4 ADD MSTORE DUP4 AND PUSH1 0x44 DUP3 ADD MSTORE PUSH1 0x64 DUP2 ADD DUP3 SWAP1 MSTORE PUSH2 0xEBA SWAP1 DUP6 SWAP1 PUSH4 0x23B872DD PUSH1 0xE0 SHL SWAP1 PUSH1 0x84 ADD JUMPDEST PUSH1 0x40 DUP1 MLOAD PUSH1 0x1F NOT DUP2 DUP5 SUB ADD DUP2 MSTORE SWAP2 SWAP1 MSTORE PUSH1 0x20 DUP2 ADD DUP1 MLOAD PUSH1 0x1 PUSH1 0x1 PUSH1 0xE0 SHL SUB AND PUSH1 0x1 PUSH1 0x1 PUSH1 0xE0 SHL SUB NOT SWAP1 SWAP4 AND SWAP3 SWAP1 SWAP3 OR SWAP1 SWAP2 MSTORE PUSH2 0x10F5 JUMP JUMPDEST POP POP POP POP JUMP JUMPDEST DUP1 ISZERO DUP1 PUSH2 0xF3A JUMPI POP PUSH1 0x40 MLOAD PUSH4 0x6EB1769F PUSH1 0xE1 SHL DUP2 MSTORE ADDRESS PUSH1 0x4 DUP3 ADD MSTORE PUSH1 0x1 PUSH1 0x1 PUSH1 0xA0 SHL SUB DUP4 DUP2 AND PUSH1 0x24 DUP4 ADD MSTORE DUP5 AND SWAP1 PUSH4 0xDD62ED3E SWAP1 PUSH1 0x44 ADD PUSH1 0x20 PUSH1 0x40 MLOAD DUP1 DUP4 SUB DUP2 DUP7 GAS STATICCALL ISZERO DUP1 ISZERO PUSH2 0xF14 JUMPI RETURNDATASIZE PUSH1 0x0 DUP1 RETURNDATACOPY RETURNDATASIZE PUSH1 0x0 REVERT JUMPDEST POP POP POP POP PUSH1 0x40 MLOAD RETURNDATASIZE PUSH1 0x1F NOT PUSH1 0x1F DUP3 ADD AND DUP3 ADD DUP1 PUSH1 0x40 MSTORE POP DUP2 ADD SWAP1 PUSH2 0xF38 SWAP2 SWAP1 PUSH2 0x163A JUMP JUMPDEST ISZERO JUMPDEST PUSH2 0xFA5 JUMPI PUSH1 0x40 MLOAD PUSH3 0x461BCD PUSH1 0xE5 SHL DUP2 MSTORE PUSH1 0x20 PUSH1 0x4 DUP3 ADD MSTORE PUSH1 0x36 PUSH1 0x24 DUP3 ADD MSTORE PUSH32 0x5361666545524332303A20617070726F76652066726F6D206E6F6E2D7A65726F PUSH1 0x44 DUP3 ADD MSTORE PUSH22 0x20746F206E6F6E2D7A65726F20616C6C6F77616E6365 PUSH1 0x50 SHL PUSH1 0x64 DUP3 ADD MSTORE PUSH1 0x84 ADD PUSH2 0x388 JUMP JUMPDEST PUSH1 0x40 MLOAD PUSH1 0x1 PUSH1 0x1 PUSH1 0xA0 SHL SUB DUP4 AND PUSH1 0x24 DUP3 ADD MSTORE PUSH1 0x44 DUP2 ADD DUP3 SWAP1 MSTORE PUSH2 0xFD5 SWAP1 DUP5 SWAP1 PUSH4 0x95EA7B3 PUSH1 0xE0 SHL SWAP1 PUSH1 0x64 ADD PUSH2 0xE83 JUMP JUMPDEST POP POP POP JUMP JUMPDEST PUSH1 0x40 MLOAD PUSH4 0x6457C979 PUSH1 0xE0 SHL DUP2 MSTORE PUSH1 0x0 SWAP1 PUSH1 0x1 PUSH1 0x1 PUSH1 0xA0 SHL SUB PUSH32 0x0 AND SWAP1 PUSH4 0x6457C979 SWAP1 PUSH2 0x107B SWAP1 DUP7 SWAP1 CALLER SWAP1 ADDRESS SWAP1 DUP8 SWAP1 PUSH2 0x1C20 SWAP1 PUSH32 0x0 SWAP1 DUP12 SWAP1 PUSH32 0x0 SWAP1 DUP6 SWAP1 PUSH1 0x4 ADD PUSH2 0x1AF1 JUMP JUMPDEST PUSH1 0x20 PUSH1 0x40 MLOAD DUP1 DUP4 SUB DUP2 PUSH1 0x0 DUP8 GAS CALL ISZERO DUP1 ISZERO PUSH2 0x109A JUMPI RETURNDATASIZE PUSH1 0x0 DUP1 RETURNDATACOPY RETURNDATASIZE PUSH1 0x0 REVERT JUMPDEST POP POP POP POP PUSH1 0x40 MLOAD RETURNDATASIZE PUSH1 0x1F NOT PUSH1 0x1F DUP3 ADD AND DUP3 ADD DUP1 PUSH1 0x40 MSTORE POP DUP2 ADD SWAP1 PUSH2 0x10BE SWAP2 SWAP1 PUSH2 0x163A JUMP JUMPDEST SWAP4 SWAP3 POP POP POP JUMP JUMPDEST PUSH1 0x40 MLOAD PUSH1 0x1 PUSH1 0x1 PUSH1 0xA0 SHL SUB DUP4 AND PUSH1 0x24 DUP3 ADD MSTORE PUSH1 0x44 DUP2 ADD DUP3 SWAP1 MSTORE PUSH2 0xFD5 SWAP1 DUP5 SWAP1 PUSH4 0xA9059CBB PUSH1 0xE0 SHL SWAP1 PUSH1 0x64 ADD PUSH2 0xE83 JUMP JUMPDEST PUSH1 0x0 PUSH2 0x114A DUP3 PUSH1 0x40 MLOAD DUP1 PUSH1 0x40 ADD PUSH1 0x40 MSTORE DUP1 PUSH1 0x20 DUP2 MSTORE PUSH1 0x20 ADD PUSH32 0x5361666545524332303A206C6F772D6C6576656C2063616C6C206661696C6564 DUP2 MSTORE POP DUP6 PUSH1 0x1 PUSH1 0x1 PUSH1 0xA0 SHL SUB AND PUSH2 0x11C7 SWAP1 SWAP3 SWAP2 SWAP1 PUSH4 0xFFFFFFFF AND JUMP JUMPDEST DUP1 MLOAD SWAP1 SWAP2 POP ISZERO PUSH2 0xFD5 JUMPI DUP1 DUP1 PUSH1 0x20 ADD SWAP1 MLOAD DUP2 ADD SWAP1 PUSH2 0x1168 SWAP2 SWAP1 PUSH2 0x1B5F JUMP JUMPDEST PUSH2 0xFD5 JUMPI PUSH1 0x40 MLOAD PUSH3 0x461BCD PUSH1 0xE5 SHL DUP2 MSTORE PUSH1 0x20 PUSH1 0x4 DUP3 ADD MSTORE PUSH1 0x2A PUSH1 0x24 DUP3 ADD MSTORE PUSH32 0x5361666545524332303A204552433230206F7065726174696F6E20646964206E PUSH1 0x44 DUP3 ADD MSTORE PUSH10 0x1BDD081CDD58D8D95959 PUSH1 0xB2 SHL PUSH1 0x64 DUP3 ADD MSTORE PUSH1 0x84 ADD PUSH2 0x388 JUMP JUMPDEST PUSH1 0x60 PUSH2 0x11D6 DUP5 DUP5 PUSH1 0x0 DUP6 PUSH2 0x11DE JUMP JUMPDEST SWAP5 SWAP4 POP POP POP POP JUMP JUMPDEST PUSH1 0x60 DUP3 SELFBALANCE LT ISZERO PUSH2 0x123F JUMPI PUSH1 0x40 MLOAD PUSH3 0x461BCD PUSH1 0xE5 SHL DUP2 MSTORE PUSH1 0x20 PUSH1 0x4 DUP3 ADD MSTORE PUSH1 0x26 PUSH1 0x24 DUP3 ADD MSTORE PUSH32 0x416464726573733A20696E73756666696369656E742062616C616E636520666F PUSH1 0x44 DUP3 ADD MSTORE PUSH6 0x1C8818D85B1B PUSH1 0xD2 SHL PUSH1 0x64 DUP3 ADD MSTORE PUSH1 0x84 ADD PUSH2 0x388 JUMP JUMPDEST DUP5 EXTCODESIZE PUSH2 0x128D JUMPI PUSH1 0x40 MLOAD PUSH3 0x461BCD PUSH1 0xE5 SHL DUP2 MSTORE PUSH1 0x20 PUSH1 0x4 DUP3 ADD MSTORE PUSH1 0x1D PUSH1 0x24 DUP3 ADD MSTORE PUSH32 0x416464726573733A2063616C6C20746F206E6F6E2D636F6E7472616374000000 PUSH1 0x44 DUP3 ADD MSTORE PUSH1 0x64 ADD PUSH2 0x388 JUMP JUMPDEST PUSH1 0x0 DUP1 DUP7 PUSH1 0x1 PUSH1 0x1 PUSH1 0xA0 SHL SUB AND DUP6 DUP8 PUSH1 0x40 MLOAD PUSH2 0x12A9 SWAP2 SWAP1 PUSH2 0x1B7C JUMP JUMPDEST PUSH1 0x0 PUSH1 0x40 MLOAD DUP1 DUP4 SUB DUP2 DUP6 DUP8 GAS CALL SWAP3 POP POP POP RETURNDATASIZE DUP1 PUSH1 0x0 DUP2 EQ PUSH2 0x12E6 JUMPI PUSH1 0x40 MLOAD SWAP2 POP PUSH1 0x1F NOT PUSH1 0x3F RETURNDATASIZE ADD AND DUP3 ADD PUSH1 0x40 MSTORE RETURNDATASIZE DUP3 MSTORE RETURNDATASIZE PUSH1 0x0 PUSH1 0x20 DUP5 ADD RETURNDATACOPY PUSH2 0x12EB JUMP JUMPDEST PUSH1 0x60 SWAP2 POP JUMPDEST POP SWAP2 POP SWAP2 POP PUSH2 0x12FB DUP3 DUP3 DUP7 PUSH2 0x1306 JUMP JUMPDEST SWAP8 SWAP7 POP POP POP POP POP POP POP JUMP JUMPDEST PUSH1 0x60 DUP4 ISZERO PUSH2 0x1315 JUMPI POP DUP2 PUSH2 0x10BE JUMP JUMPDEST DUP3 MLOAD ISZERO PUSH2 0x1325 JUMPI DUP3 MLOAD DUP1 DUP5 PUSH1 0x20 ADD REVERT JUMPDEST DUP2 PUSH1 0x40 MLOAD PUSH3 0x461BCD PUSH1 0xE5 SHL DUP2 MSTORE PUSH1 0x4 ADD PUSH2 0x388 SWAP2 SWAP1 PUSH2 0x1B98 JUMP JUMPDEST PUSH1 0x0 DUP1 PUSH1 0x40 DUP4 DUP6 SUB SLT ISZERO PUSH2 0x1352 JUMPI PUSH1 0x0 DUP1 REVERT JUMPDEST DUP3 CALLDATALOAD SWAP2 POP PUSH1 0x20 DUP4 ADD CALLDATALOAD PUSH4 0xFFFFFFFF DUP2 AND DUP2 EQ PUSH2 0x136D JUMPI PUSH1 0x0 DUP1 REVERT JUMPDEST DUP1 SWAP2 POP POP SWAP3 POP SWAP3 SWAP1 POP JUMP JUMPDEST PUSH1 0x0 PUSH1 0x20 DUP3 DUP5 SUB SLT ISZERO PUSH2 0x138A JUMPI PUSH1 0x0 DUP1 REVERT JUMPDEST POP CALLDATALOAD SWAP2 SWAP1 POP JUMP JUMPDEST PUSH1 0x0 JUMPDEST DUP4 DUP2 LT ISZERO PUSH2 0x13AC JUMPI DUP2 DUP2 ADD MLOAD DUP4 DUP3 ADD MSTORE PUSH1 0x20 ADD PUSH2 0x1394 JUMP JUMPDEST POP POP PUSH1 0x0 SWAP2 ADD MSTORE JUMP JUMPDEST PUSH1 0x0 DUP2 MLOAD DUP1 DUP5 MSTORE PUSH2 0x13CD DUP2 PUSH1 0x20 DUP7 ADD PUSH1 0x20 DUP7 ADD PUSH2 0x1391 JUMP JUMPDEST PUSH1 0x1F ADD PUSH1 0x1F NOT AND SWAP3 SWAP1 SWAP3 ADD PUSH1 0x20 ADD SWAP3 SWAP2 POP POP JUMP JUMPDEST PUSH1 0x20 DUP1 DUP3 MSTORE DUP3 MLOAD PUSH1 0x1 PUSH1 0x1 PUSH1 0xA0 SHL SUB AND DUP3 DUP3 ADD MSTORE DUP3 ADD MLOAD PUSH1 0xC0 PUSH1 0x40 DUP4 ADD MSTORE PUSH1 0x0 SWAP1 PUSH2 0x140F PUSH1 0xE0 DUP5 ADD DUP3 PUSH2 0x13B5 JUMP JUMPDEST SWAP1 POP PUSH1 0x40 DUP5 ADD MLOAD PUSH1 0x60 DUP5 ADD MSTORE PUSH1 0x60 DUP5 ADD MLOAD PUSH4 0xFFFFFFFF DUP1 DUP3 AND PUSH1 0x80 DUP7 ADD MSTORE DUP1 PUSH1 0x80 DUP8 ADD MLOAD AND PUSH1 0xA0 DUP7 ADD MSTORE POP POP PUSH1 0xA0 DUP5 ADD MLOAD ISZERO ISZERO PUSH1 0xC0 DUP5 ADD MSTORE DUP1 SWAP2 POP POP SWAP3 SWAP2 POP POP JUMP JUMPDEST PUSH4 0x4E487B71 PUSH1 0xE0 SHL PUSH1 0x0 MSTORE PUSH1 0x41 PUSH1 0x4 MSTORE PUSH1 0x24 PUSH1 0x0 REVERT JUMPDEST PUSH1 0x0 PUSH8 0xFFFFFFFFFFFFFFFF DUP1 DUP5 GT ISZERO PUSH2 0x1482 JUMPI PUSH2 0x1482 PUSH2 0x1451 JUMP JUMPDEST PUSH1 0x40 MLOAD PUSH1 0x1F DUP6 ADD PUSH1 0x1F NOT SWAP1 DUP2 AND PUSH1 0x3F ADD AND DUP2 ADD SWAP1 DUP3 DUP3 GT DUP2 DUP4 LT OR ISZERO PUSH2 0x14AA JUMPI PUSH2 0x14AA PUSH2 0x1451 JUMP JUMPDEST DUP2 PUSH1 0x40 MSTORE DUP1 SWAP4 POP DUP6 DUP2 MSTORE DUP7 DUP7 DUP7 ADD GT ISZERO PUSH2 0x14C3 JUMPI PUSH1 0x0 DUP1 REVERT JUMPDEST DUP6 DUP6 PUSH1 0x20 DUP4 ADD CALLDATACOPY PUSH1 0x0 PUSH1 0x20 DUP8 DUP4 ADD ADD MSTORE POP POP POP SWAP4 SWAP3 POP POP POP JUMP JUMPDEST PUSH1 0x0 DUP3 PUSH1 0x1F DUP4 ADD SLT PUSH2 0x14EE JUMPI PUSH1 0x0 DUP1 REVERT JUMPDEST PUSH2 0x10BE DUP4 DUP4 CALLDATALOAD PUSH1 0x20 DUP6 ADD PUSH2 0x1467 JUMP JUMPDEST PUSH1 0x0 DUP1 PUSH1 0x40 DUP4 DUP6 SUB SLT ISZERO PUSH2 0x1510 JUMPI PUSH1 0x0 DUP1 REVERT JUMPDEST DUP3 CALLDATALOAD SWAP2 POP PUSH1 0x20 DUP4 ADD CALLDATALOAD PUSH8 0xFFFFFFFFFFFFFFFF DUP2 GT ISZERO PUSH2 0x152E JUMPI PUSH1 0x0 DUP1 REVERT JUMPDEST PUSH2 0x153A DUP6 DUP3 DUP7 ADD PUSH2 0x14DD JUMP JUMPDEST SWAP2 POP POP SWAP3 POP SWAP3 SWAP1 POP JUMP JUMPDEST PUSH1 0x0 DUP1 PUSH1 0x40 DUP4 DUP6 SUB SLT ISZERO PUSH2 0x1557 JUMPI PUSH1 0x0 DUP1 REVERT JUMPDEST DUP3 CALLDATALOAD PUSH8 0xFFFFFFFFFFFFFFFF DUP1 DUP3 GT ISZERO PUSH2 0x156F JUMPI PUSH1 0x0 DUP1 REVERT JUMPDEST DUP2 DUP6 ADD SWAP2 POP DUP6 PUSH1 0x1F DUP4 ADD SLT PUSH2 0x1583 JUMPI PUSH1 0x0 DUP1 REVERT JUMPDEST PUSH2 0x1592 DUP7 DUP4 CALLDATALOAD PUSH1 0x20 DUP6 ADD PUSH2 0x1467 JUMP JUMPDEST SWAP4 POP PUSH1 0x20 DUP6 ADD CALLDATALOAD SWAP2 POP DUP1 DUP3 GT ISZERO PUSH2 0x15A8 JUMPI PUSH1 0x0 DUP1 REVERT JUMPDEST POP PUSH2 0x153A DUP6 DUP3 DUP7 ADD PUSH2 0x14DD JUMP JUMPDEST PUSH1 0x1 PUSH1 0x1 PUSH1 0xA0 SHL SUB DUP8 AND DUP2 MSTORE PUSH1 0xC0 PUSH1 0x20 DUP3 ADD DUP2 SWAP1 MSTORE PUSH1 0x0 SWAP1 PUSH2 0x15D9 SWAP1 DUP4 ADD DUP9 PUSH2 0x13B5 JUMP JUMPDEST PUSH1 0x40 DUP4 ADD SWAP7 SWAP1 SWAP7 MSTORE POP PUSH4 0xFFFFFFFF SWAP4 DUP5 AND PUSH1 0x60 DUP3 ADD MSTORE SWAP2 SWAP1 SWAP3 AND PUSH1 0x80 DUP3 ADD MSTORE SWAP1 ISZERO ISZERO PUSH1 0xA0 SWAP1 SWAP2 ADD MSTORE SWAP3 SWAP2 POP POP JUMP JUMPDEST DUP1 ISZERO ISZERO DUP2 EQ PUSH2 0x215 JUMPI PUSH1 0x0 DUP1 REVERT JUMPDEST PUSH1 0x0 DUP1 PUSH1 0x40 DUP4 DUP6 SUB SLT ISZERO PUSH2 0x1628 JUMPI PUSH1 0x0 DUP1 REVERT JUMPDEST DUP3 CALLDATALOAD SWAP2 POP PUSH1 0x20 DUP4 ADD CALLDATALOAD PUSH2 0x136D DUP2 PUSH2 0x1607 JUMP JUMPDEST PUSH1 0x0 PUSH1 0x20 DUP3 DUP5 SUB SLT ISZERO PUSH2 0x164C JUMPI PUSH1 0x0 DUP1 REVERT JUMPDEST POP MLOAD SWAP2 SWAP1 POP JUMP JUMPDEST PUSH1 0x1 DUP2 DUP2 SHR SWAP1 DUP3 AND DUP1 PUSH2 0x1667 JUMPI PUSH1 0x7F DUP3 AND SWAP2 POP JUMPDEST PUSH1 0x20 DUP3 LT DUP2 SUB PUSH2 0x1687 JUMPI PUSH4 0x4E487B71 PUSH1 0xE0 SHL PUSH1 0x0 MSTORE PUSH1 0x22 PUSH1 0x4 MSTORE PUSH1 0x24 PUSH1 0x0 REVERT JUMPDEST POP SWAP2 SWAP1 POP JUMP JUMPDEST PUSH1 0x0 PUSH1 0x20 DUP1 DUP4 MSTORE PUSH1 0x0 DUP5 SLOAD PUSH2 0x16A1 DUP2 PUSH2 0x1653 JUMP JUMPDEST DUP1 DUP5 DUP8 ADD MSTORE PUSH1 0x40 PUSH1 0x1 DUP1 DUP5 AND PUSH1 0x0 DUP2 EQ PUSH2 0x16C2 JUMPI PUSH1 0x1 DUP2 EQ PUSH2 0x16DC JUMPI PUSH2 0x170A JUMP JUMPDEST PUSH1 0xFF NOT DUP6 AND DUP10 DUP5 ADD MSTORE DUP4 ISZERO ISZERO PUSH1 0x5 SHL DUP10 ADD DUP4 ADD SWAP6 POP PUSH2 0x170A JUMP JUMPDEST DUP10 PUSH1 0x0 MSTORE DUP7 PUSH1 0x0 KECCAK256 PUSH1 0x0 JUMPDEST DUP6 DUP2 LT ISZERO PUSH2 0x1702 JUMPI DUP2 SLOAD DUP12 DUP3 ADD DUP7 ADD MSTORE SWAP1 DUP4 ADD SWAP1 DUP9 ADD PUSH2 0x16E7 JUMP JUMPDEST DUP11 ADD DUP5 ADD SWAP7 POP POP JUMPDEST POP SWAP4 SWAP9 SWAP8 POP POP POP POP POP POP POP POP JUMP JUMPDEST PUSH8 0x29BA30B5B4B7339 PUSH1 0xC5 SHL DUP2 MSTORE DUP3 PUSH1 0x8 DUP3 ADD MSTORE PUSH13 0x103337B910383937B6B4B9B29 PUSH1 0x9D SHL PUSH1 0x28 DUP3 ADD MSTORE PUSH1 0x0 PUSH1 0x35 PUSH1 0x0 DUP5 SLOAD PUSH2 0x1753 DUP2 PUSH2 0x1653 JUMP JUMPDEST PUSH1 0x1 DUP3 DUP2 AND DUP1 ISZERO PUSH2 0x176B JUMPI PUSH1 0x1 DUP2 EQ PUSH2 0x1784 JUMPI PUSH2 0x17B7 JUMP JUMPDEST PUSH1 0xFF NOT DUP5 AND DUP9 DUP8 ADD MSTORE DUP3 ISZERO ISZERO DUP4 MUL DUP9 ADD DUP7 ADD SWAP5 POP PUSH2 0x17B7 JUMP JUMPDEST DUP9 PUSH1 0x0 MSTORE PUSH1 0x20 DUP1 PUSH1 0x0 KECCAK256 PUSH1 0x0 JUMPDEST DUP6 DUP2 LT ISZERO PUSH2 0x17AC JUMPI DUP2 SLOAD DUP12 DUP3 ADD DUP11 ADD MSTORE SWAP1 DUP5 ADD SWAP1 DUP3 ADD PUSH2 0x1791 JUMP JUMPDEST POP POP POP DUP6 DUP4 DUP10 ADD ADD SWAP5 POP JUMPDEST POP SWAP3 SWAP9 SWAP8 POP POP POP POP POP POP POP POP JUMP JUMPDEST PUSH1 0x40 DUP2 MSTORE PUSH1 0x0 PUSH2 0x17D8 PUSH1 0x40 DUP4 ADD DUP6 PUSH2 0x13B5 JUMP JUMPDEST DUP3 DUP2 SUB PUSH1 0x20 DUP5 ADD MSTORE PUSH2 0x17EA DUP2 DUP6 PUSH2 0x13B5 JUMP JUMPDEST SWAP6 SWAP5 POP POP POP POP POP JUMP JUMPDEST PUSH4 0x4E487B71 PUSH1 0xE0 SHL PUSH1 0x0 MSTORE PUSH1 0x11 PUSH1 0x4 MSTORE PUSH1 0x24 PUSH1 0x0 REVERT JUMPDEST DUP1 DUP3 ADD DUP1 DUP3 GT ISZERO PUSH2 0xE49 JUMPI PUSH2 0xE49 PUSH2 0x17F3 JUMP JUMPDEST PUSH17 0x21B932B0BA34B73390383937B6B4B9B29 PUSH1 0x7D SHL DUP2 MSTORE PUSH1 0x0 DUP3 MLOAD PUSH2 0x1848 DUP2 PUSH1 0x11 DUP6 ADD PUSH1 0x20 DUP8 ADD PUSH2 0x1391 JUMP JUMPDEST SWAP2 SWAP1 SWAP2 ADD PUSH1 0x11 ADD SWAP3 SWAP2 POP POP JUMP JUMPDEST PUSH1 0x40 DUP2 MSTORE PUSH1 0x0 PUSH2 0x1868 PUSH1 0x40 DUP4 ADD DUP6 PUSH2 0x13B5 JUMP JUMPDEST SWAP1 POP PUSH1 0x1 DUP1 PUSH1 0xA0 SHL SUB DUP4 AND PUSH1 0x20 DUP4 ADD MSTORE SWAP4 SWAP3 POP POP POP JUMP JUMPDEST PUSH1 0x1F DUP3 GT ISZERO PUSH2 0xFD5 JUMPI PUSH1 0x0 DUP2 DUP2 MSTORE PUSH1 0x20 DUP2 KECCAK256 PUSH1 0x1F DUP6 ADD PUSH1 0x5 SHR DUP2 ADD PUSH1 0x20 DUP7 LT ISZERO PUSH2 0x18A6 JUMPI POP DUP1 JUMPDEST PUSH1 0x1F DUP6 ADD PUSH1 0x5 SHR DUP3 ADD SWAP2 POP JUMPDEST DUP2 DUP2 LT ISZERO PUSH2 0x18C5 JUMPI DUP3 DUP2 SSTORE PUSH1 0x1 ADD PUSH2 0x18B2 JUMP JUMPDEST POP POP POP POP POP POP JUMP JUMPDEST DUP2 MLOAD PUSH8 0xFFFFFFFFFFFFFFFF DUP2 GT ISZERO PUSH2 0x18E7 JUMPI PUSH2 0x18E7 PUSH2 0x1451 JUMP JUMPDEST PUSH2 0x18FB DUP2 PUSH2 0x18F5 DUP5 SLOAD PUSH2 0x1653 JUMP JUMPDEST DUP5 PUSH2 0x187F JUMP JUMPDEST PUSH1 0x20 DUP1 PUSH1 0x1F DUP4 GT PUSH1 0x1 DUP2 EQ PUSH2 0x1930 JUMPI PUSH1 0x0 DUP5 ISZERO PUSH2 0x1918 JUMPI POP DUP6 DUP4 ADD MLOAD JUMPDEST PUSH1 0x0 NOT PUSH1 0x3 DUP7 SWAP1 SHL SHR NOT AND PUSH1 0x1 DUP6 SWAP1 SHL OR DUP6 SSTORE PUSH2 0x18C5 JUMP JUMPDEST PUSH1 0x0 DUP6 DUP2 MSTORE PUSH1 0x20 DUP2 KECCAK256 PUSH1 0x1F NOT DUP7 AND SWAP2 JUMPDEST DUP3 DUP2 LT ISZERO PUSH2 0x195F JUMPI DUP9 DUP7 ADD MLOAD DUP3 SSTORE SWAP5 DUP5 ADD SWAP5 PUSH1 0x1 SWAP1 SWAP2 ADD SWAP1 DUP5 ADD PUSH2 0x1940 JUMP JUMPDEST POP DUP6 DUP3 LT ISZERO PUSH2 0x197D JUMPI DUP8 DUP6 ADD MLOAD PUSH1 0x0 NOT PUSH1 0x3 DUP9 SWAP1 SHL PUSH1 0xF8 AND SHR NOT AND DUP2 SSTORE JUMPDEST POP POP POP POP POP PUSH1 0x1 SWAP1 DUP2 SHL ADD SWAP1 SSTORE POP JUMP JUMPDEST PUSH1 0xE0 DUP2 MSTORE PUSH1 0x3 PUSH1 0xE0 DUP3 ADD MSTORE PUSH3 0x596573 PUSH1 0xE8 SHL PUSH2 0x100 DUP3 ADD MSTORE PUSH1 0x0 PUSH2 0x120 DUP1 PUSH1 0x20 DUP5 ADD MSTORE PUSH1 0x2 DUP2 DUP5 ADD MSTORE POP PUSH2 0x4E6F PUSH1 0xF0 SHL PUSH2 0x140 DUP4 ADD MSTORE PUSH2 0x160 DUP1 PUSH1 0x40 DUP5 ADD MSTORE PUSH2 0x19D8 DUP2 DUP5 ADD DUP10 PUSH2 0x13B5 JUMP JUMPDEST PUSH1 0x1 PUSH1 0x1 PUSH1 0xA0 SHL SUB SWAP8 DUP9 AND PUSH1 0x60 DUP6 ADD MSTORE SWAP6 SWAP1 SWAP7 AND PUSH1 0x80 DUP4 ADD MSTORE POP PUSH1 0xA0 DUP2 ADD SWAP3 SWAP1 SWAP3 MSTORE PUSH1 0xC0 SWAP1 SWAP2 ADD MSTORE SWAP3 SWAP2 POP POP JUMP JUMPDEST PUSH4 0xFFFFFFFF DUP3 DUP2 AND DUP3 DUP3 AND SUB SWAP1 DUP1 DUP3 GT ISZERO PUSH2 0x1A23 JUMPI PUSH2 0x1A23 PUSH2 0x17F3 JUMP JUMPDEST POP SWAP3 SWAP2 POP POP JUMP JUMPDEST PUSH1 0x0 DUP2 PUSH1 0x0 NOT DIV DUP4 GT DUP3 ISZERO ISZERO AND ISZERO PUSH2 0x1A44 JUMPI PUSH2 0x1A44 PUSH2 0x17F3 JUMP JUMPDEST POP MUL SWAP1 JUMP JUMPDEST PUSH32 0x447572696E672074686520656C656374656420706572696F6420746865206465 DUP2 MSTORE PUSH32 0x736372696265642070726F6D69736520686173206265656E2066756C66696C6C PUSH1 0x20 DUP3 ADD MSTORE PUSH5 0x656420746F PUSH1 0xD8 SHL PUSH1 0x40 DUP3 ADD MSTORE PUSH4 0xFFFFFFFF PUSH1 0xE0 SHL DUP4 PUSH1 0xE0 SHL AND PUSH1 0x45 DUP3 ADD MSTORE PUSH19 0x1296103A343290383937B6B4B9B29034B99D1 PUSH1 0x6D SHL PUSH1 0x49 DUP3 ADD MSTORE PUSH1 0x0 DUP3 MLOAD PUSH2 0x1AE3 DUP2 PUSH1 0x5C DUP6 ADD PUSH1 0x20 DUP8 ADD PUSH2 0x1391 JUMP JUMPDEST SWAP2 SWAP1 SWAP2 ADD PUSH1 0x5C ADD SWAP4 SWAP3 POP POP POP JUMP JUMPDEST PUSH1 0x0 PUSH2 0x120 DUP1 DUP4 MSTORE PUSH2 0x1B05 DUP2 DUP5 ADD DUP14 PUSH2 0x13B5 JUMP JUMPDEST PUSH1 0x1 PUSH1 0x1 PUSH1 0xA0 SHL SUB SWAP12 DUP13 AND PUSH1 0x20 DUP6 ADD MSTORE SWAP10 DUP12 AND PUSH1 0x40 DUP5 ADD MSTORE POP POP SWAP6 DUP9 AND PUSH1 0x60 DUP8 ADD MSTORE PUSH8 0xFFFFFFFFFFFFFFFF SWAP5 SWAP1 SWAP5 AND PUSH1 0x80 DUP7 ADD MSTORE SWAP2 SWAP1 SWAP6 AND PUSH1 0xA0 DUP5 ADD MSTORE PUSH1 0xC0 DUP4 ADD SWAP5 SWAP1 SWAP5 MSTORE PUSH1 0xE0 DUP3 ADD SWAP4 SWAP1 SWAP4 MSTORE PUSH2 0x100 ADD SWAP2 SWAP1 SWAP2 MSTORE SWAP2 SWAP1 POP JUMP JUMPDEST PUSH1 0x0 PUSH1 0x20 DUP3 DUP5 SUB SLT ISZERO PUSH2 0x1B71 JUMPI PUSH1 0x0 DUP1 REVERT JUMPDEST DUP2 MLOAD PUSH2 0x10BE DUP2 PUSH2 0x1607 JUMP JUMPDEST PUSH1 0x0 DUP3 MLOAD PUSH2 0x1B8E DUP2 DUP5 PUSH1 0x20 DUP8 ADD PUSH2 0x1391 JUMP JUMPDEST SWAP2 SWAP1 SWAP2 ADD SWAP3 SWAP2 POP POP JUMP JUMPDEST PUSH1 0x20 DUP2 MSTORE PUSH1 0x0 PUSH2 0x10BE PUSH1 0x20 DUP4 ADD DUP5 PUSH2 0x13B5 JUMP INVALID LOG2 PUSH5 0x6970667358 0x22 SLT KECCAK256 0xD9 0xAF SWAP4 0xC6 SWAP5 EXTCODEHASH 0xA7 DUP10 0xAA CALL MOD KECCAK256 0xE2 DIV 0xEB 0xA6 0xC PUSH9 0xEFBA12E0F791AB78F6 0xE9 EXP CODESIZE JUMP 0xC0 PUSH5 0x736F6C6343 STOP ADDMOD LT STOP CALLER "},"methodIdentifiers":{"assertPromise(bytes32,uint32)":"09c977e4","assertedPromises(bytes32)":"dbb6b00f","assertionDisputedCallback(bytes32)":"d448a4ec","assertionResolvedCallback(bytes32,bool)":"f1b156b2","createPromise(string,bytes)":"ad00ff08","currency()":"e5a6b10f","defaultIdentifier()":"d509b017","getPromise(bytes32)":"5dd51ddd","oneDayInBlocks()":"f2978d98","oo()":"8921a614","promises(bytes32)":"cc2f84cb","sismoVerifier()":"162a11f5","stakeForPromise(bytes32,bytes)":"8528f1dd"}}}}}