{"contracts/GreeterSetup.sol":{"GreeterSetup":{"abi":[{"inputs":[],"name":"implementation","outputs":[{"internalType":"address","name":"","type":"address"}],"stateMutability":"view","type":"function"},{"inputs":[{"internalType":"address","name":"_dao","type":"address"},{"internalType":"bytes","name":"","type":"bytes"}],"name":"prepareInstallation","outputs":[{"internalType":"address","name":"plugin","type":"address"},{"components":[{"internalType":"address[]","name":"helpers","type":"address[]"},{"components":[{"internalType":"enum PermissionLib.Operation","name":"operation","type":"uint8"},{"internalType":"address","name":"where","type":"address"},{"internalType":"address","name":"who","type":"address"},{"internalType":"address","name":"condition","type":"address"},{"internalType":"bytes32","name":"permissionId","type":"bytes32"}],"internalType":"struct PermissionLib.MultiTargetPermission[]","name":"permissions","type":"tuple[]"}],"internalType":"struct IPluginSetup.PreparedSetupData","name":"","type":"tuple"}],"stateMutability":"nonpayable","type":"function"},{"inputs":[{"internalType":"address","name":"_dao","type":"address"},{"components":[{"internalType":"address","name":"plugin","type":"address"},{"internalType":"address[]","name":"currentHelpers","type":"address[]"},{"internalType":"bytes","name":"data","type":"bytes"}],"internalType":"struct IPluginSetup.SetupPayload","name":"_payload","type":"tuple"}],"name":"prepareUninstallation","outputs":[{"components":[{"internalType":"enum PermissionLib.Operation","name":"operation","type":"uint8"},{"internalType":"address","name":"where","type":"address"},{"internalType":"address","name":"who","type":"address"},{"internalType":"address","name":"condition","type":"address"},{"internalType":"bytes32","name":"permissionId","type":"bytes32"}],"internalType":"struct PermissionLib.MultiTargetPermission[]","name":"","type":"tuple[]"}],"stateMutability":"pure","type":"function"},{"inputs":[{"internalType":"address","name":"_dao","type":"address"},{"internalType":"uint16","name":"_currentBuild","type":"uint16"},{"components":[{"internalType":"address","name":"plugin","type":"address"},{"internalType":"address[]","name":"currentHelpers","type":"address[]"},{"internalType":"bytes","name":"data","type":"bytes"}],"internalType":"struct IPluginSetup.SetupPayload","name":"_payload","type":"tuple"}],"name":"prepareUpdate","outputs":[{"internalType":"bytes","name":"initData","type":"bytes"},{"components":[{"internalType":"address[]","name":"helpers","type":"address[]"},{"components":[{"internalType":"enum PermissionLib.Operation","name":"operation","type":"uint8"},{"internalType":"address","name":"where","type":"address"},{"internalType":"address","name":"who","type":"address"},{"internalType":"address","name":"condition","type":"address"},{"internalType":"bytes32","name":"permissionId","type":"bytes32"}],"internalType":"struct PermissionLib.MultiTargetPermission[]","name":"permissions","type":"tuple[]"}],"internalType":"struct IPluginSetup.PreparedSetupData","name":"preparedSetupData","type":"tuple"}],"stateMutability":"nonpayable","type":"function"},{"inputs":[{"internalType":"bytes4","name":"_interfaceId","type":"bytes4"}],"name":"supportsInterface","outputs":[{"internalType":"bool","name":"","type":"bool"}],"stateMutability":"view","type":"function"}],"evm":{"bytecode":{"linkReferences":{},"object":"608060405234801561001057600080fd5b506112bf806100206000396000f3fe60806040523480156200001157600080fd5b50600436106200005e5760003560e01c806301ffc9a714620000635780635c60da1b14620000995780639cb0a12414620000bb578063a8a9c29e14620000f1578063f10832f11462000128575b600080fd5b6200008160048036038101906200007b91906200034e565b6200015f565b6040516200009091906200039d565b60405180910390f35b620000a3620001dc565b604051620000b29190620003ff565b60405180910390f35b620000d96004803603810190620000d3919062000474565b620001e1565b604051620000e89190620006b5565b60405180910390f35b6200010f600480360381019062000109919062000718565b620001e9565b6040516200011f929190620009ad565b60405180910390f35b62000146600480360381019062000140919062000b39565b620001fd565b6040516200015692919062000b9f565b60405180910390f35b60007f99718b50000000000000000000000000000000000000000000000000000000007bffffffffffffffffffffffffffffffffffffffffffffffffffffffff1916827bffffffffffffffffffffffffffffffffffffffffffffffffffffffff19161480620001d55750620001d4826200024b565b5b9050919050565b600090565b606092915050565b6060620001f5620002b5565b935093915050565b600062000209620002b5565b836040516200021890620002cf565b62000224919062000c3e565b604051809103906000f08015801562000241573d6000803e3d6000fd5b5091509250929050565b60007f01ffc9a7000000000000000000000000000000000000000000000000000000007bffffffffffffffffffffffffffffffffffffffffffffffffffffffff1916827bffffffffffffffffffffffffffffffffffffffffffffffffffffffff1916149050919050565b604051806040016040528060608152602001606081525090565b61062e8062000c5c83390190565b6000604051905090565b600080fd5b600080fd5b60007fffffffff0000000000000000000000000000000000000000000000000000000082169050919050565b6200032881620002f1565b81146200033457600080fd5b50565b60008135905062000348816200031d565b92915050565b600060208284031215620003675762000366620002e7565b5b6000620003778482850162000337565b91505092915050565b60008115159050919050565b620003978162000380565b82525050565b6000602082019050620003b460008301846200038c565b92915050565b600073ffffffffffffffffffffffffffffffffffffffff82169050919050565b6000620003e782620003ba565b9050919050565b620003f981620003da565b82525050565b6000602082019050620004166000830184620003ee565b92915050565b6200042781620003da565b81146200043357600080fd5b50565b60008135905062000447816200041c565b92915050565b600080fd5b6000606082840312156200046b576200046a6200044d565b5b81905092915050565b600080604083850312156200048e576200048d620002e7565b5b60006200049e8582860162000436565b925050602083013567ffffffffffffffff811115620004c257620004c1620002ec565b5b620004d08582860162000452565b9150509250929050565b600081519050919050565b600082825260208201905092915050565b6000819050602082019050919050565b7f4e487b7100000000000000000000000000000000000000000000000000000000600052602160045260246000fd5b6003811062000549576200054862000506565b5b50565b60008190506200055c8262000535565b919050565b60006200056e826200054c565b9050919050565b620005808162000561565b82525050565b6200059181620003da565b82525050565b6000819050919050565b620005ac8162000597565b82525050565b60a082016000820151620005ca600085018262000575565b506020820151620005df602085018262000586565b506040820151620005f4604085018262000586565b50606082015162000609606085018262000586565b5060808201516200061e6080850182620005a1565b50505050565b6000620006328383620005b2565b60a08301905092915050565b6000602082019050919050565b60006200065882620004da565b620006648185620004e5565b93506200067183620004f6565b8060005b83811015620006a85781516200068c888262000624565b975062000699836200063e565b92505060018101905062000675565b5085935050505092915050565b60006020820190508181036000830152620006d181846200064b565b905092915050565b600061ffff82169050919050565b620006f281620006d9565b8114620006fe57600080fd5b50565b6000813590506200071281620006e7565b92915050565b600080600060608486031215620007345762000733620002e7565b5b6000620007448682870162000436565b9350506020620007578682870162000701565b925050604084013567ffffffffffffffff8111156200077b576200077a620002ec565b5b620007898682870162000452565b9150509250925092565b600081519050919050565b600082825260208201905092915050565b60005b83811015620007cf578082015181840152602081019050620007b2565b60008484015250505050565b6000601f19601f8301169050919050565b6000620007f98262000793565b6200080581856200079e565b935062000817818560208601620007af565b6200082281620007db565b840191505092915050565b600081519050919050565b600082825260208201905092915050565b6000819050602082019050919050565b600062000867838362000586565b60208301905092915050565b6000602082019050919050565b60006200088d826200082d565b62000899818562000838565b9350620008a68362000849565b8060005b83811015620008dd578151620008c1888262000859565b9750620008ce8362000873565b925050600181019050620008aa565b5085935050505092915050565b600082825260208201905092915050565b60006200090882620004da565b620009148185620008ea565b93506200092183620004f6565b8060005b83811015620009585781516200093c888262000624565b975062000949836200063e565b92505060018101905062000925565b5085935050505092915050565b6000604083016000830151848203600086015262000984828262000880565b91505060208301518482036020860152620009a08282620008fb565b9150508091505092915050565b60006040820190508181036000830152620009c98185620007ec565b90508181036020830152620009df818462000965565b90509392505050565b600080fd5b600080fd5b7f4e487b7100000000000000000000000000000000000000000000000000000000600052604160045260246000fd5b62000a2c82620007db565b810181811067ffffffffffffffff8211171562000a4e5762000a4d620009f2565b5b80604052505050565b600062000a63620002dd565b905062000a71828262000a21565b919050565b600067ffffffffffffffff82111562000a945762000a93620009f2565b5b62000a9f82620007db565b9050602081019050919050565b82818337600083830152505050565b600062000ad262000acc8462000a76565b62000a57565b90508281526020810184848401111562000af15762000af0620009ed565b5b62000afe84828562000aac565b509392505050565b600082601f83011262000b1e5762000b1d620009e8565b5b813562000b3084826020860162000abb565b91505092915050565b6000806040838503121562000b535762000b52620002e7565b5b600062000b638582860162000436565b925050602083013567ffffffffffffffff81111562000b875762000b86620002ec565b5b62000b958582860162000b06565b9150509250929050565b600060408201905062000bb66000830185620003ee565b818103602083015262000bca818462000965565b90509392505050565b6000819050919050565b600062000bfe62000bf862000bf284620003ba565b62000bd3565b620003ba565b9050919050565b600062000c128262000bdd565b9050919050565b600062000c268262000c05565b9050919050565b62000c388162000c19565b82525050565b600060208201905062000c55600083018462000c2d565b9291505056fe60a060405234801561001057600080fd5b5060405161062e38038061062e833981810160405281019061003291906100e5565b80808073ffffffffffffffffffffffffffffffffffffffff1660808173ffffffffffffffffffffffffffffffffffffffff1681525050505050610112565b600080fd5b600073ffffffffffffffffffffffffffffffffffffffff82169050919050565b60006100a082610075565b9050919050565b60006100b282610095565b9050919050565b6100c2816100a7565b81146100cd57600080fd5b50565b6000815190506100df816100b9565b92915050565b6000602082840312156100fb576100fa610070565b5b6000610109848285016100d0565b91505092915050565b60805161050161012d600039600061015901526105016000f3fe608060405234801561001057600080fd5b506004361061004c5760003560e01c806301ffc9a7146100515780634162169f1461008157806341de68301461009f578063cfae3217146100bd575b600080fd5b61006b6004803603810190610066919061028a565b6100db565b60405161007891906102d2565b60405180910390f35b610089610155565b604051610096919061036c565b60405180910390f35b6100a761017d565b6040516100b491906103fe565b60405180910390f35b6100c5610186565b6040516100d291906104a9565b60405180910390f35b60007f41de6830000000000000000000000000000000000000000000000000000000007bffffffffffffffffffffffffffffffffffffffffffffffffffffffff1916827bffffffffffffffffffffffffffffffffffffffffffffffffffffffff1916148061014e575061014d826101c3565b5b9050919050565b60007f0000000000000000000000000000000000000000000000000000000000000000905090565b60006002905090565b60606040518060400160405280600c81526020017f48656c6c6f20776f726c64210000000000000000000000000000000000000000815250905090565b60007f01ffc9a7000000000000000000000000000000000000000000000000000000007bffffffffffffffffffffffffffffffffffffffffffffffffffffffff1916827bffffffffffffffffffffffffffffffffffffffffffffffffffffffff1916149050919050565b600080fd5b60007fffffffff0000000000000000000000000000000000000000000000000000000082169050919050565b61026781610232565b811461027257600080fd5b50565b6000813590506102848161025e565b92915050565b6000602082840312156102a05761029f61022d565b5b60006102ae84828501610275565b91505092915050565b60008115159050919050565b6102cc816102b7565b82525050565b60006020820190506102e760008301846102c3565b92915050565b600073ffffffffffffffffffffffffffffffffffffffff82169050919050565b6000819050919050565b600061033261032d610328846102ed565b61030d565b6102ed565b9050919050565b600061034482610317565b9050919050565b600061035682610339565b9050919050565b6103668161034b565b82525050565b6000602082019050610381600083018461035d565b92915050565b7f4e487b7100000000000000000000000000000000000000000000000000000000600052602160045260246000fd5b600381106103c7576103c6610387565b5b50565b60008190506103d8826103b6565b919050565b60006103e8826103ca565b9050919050565b6103f8816103dd565b82525050565b600060208201905061041360008301846103ef565b92915050565b600081519050919050565b600082825260208201905092915050565b60005b83811015610453578082015181840152602081019050610438565b60008484015250505050565b6000601f19601f8301169050919050565b600061047b82610419565b6104858185610424565b9350610495818560208601610435565b61049e8161045f565b840191505092915050565b600060208201905081810360008301526104c38184610470565b90509291505056fea26469706673582212206b56c00fdbdece61f53409aa647a858d273f9fb661616638db6561fa43a062bf64736f6c63430008110033a2646970667358221220a5f0568eb4c61cbb3cbeb02e884674b3f0c2a5f4290d2184a00afbde1d41950864736f6c63430008110033","opcodes":"PUSH1 0x80 PUSH1 0x40 MSTORE CALLVALUE DUP1 ISZERO PUSH2 0x10 JUMPI PUSH1 0x0 DUP1 REVERT JUMPDEST POP PUSH2 0x12BF DUP1 PUSH2 0x20 PUSH1 0x0 CODECOPY PUSH1 0x0 RETURN INVALID PUSH1 0x80 PUSH1 0x40 MSTORE CALLVALUE DUP1 ISZERO PUSH3 0x11 JUMPI PUSH1 0x0 DUP1 REVERT JUMPDEST POP PUSH1 0x4 CALLDATASIZE LT PUSH3 0x5E JUMPI PUSH1 0x0 CALLDATALOAD PUSH1 0xE0 SHR DUP1 PUSH4 0x1FFC9A7 EQ PUSH3 0x63 JUMPI DUP1 PUSH4 0x5C60DA1B EQ PUSH3 0x99 JUMPI DUP1 PUSH4 0x9CB0A124 EQ PUSH3 0xBB JUMPI DUP1 PUSH4 0xA8A9C29E EQ PUSH3 0xF1 JUMPI DUP1 PUSH4 0xF10832F1 EQ PUSH3 0x128 JUMPI JUMPDEST PUSH1 0x0 DUP1 REVERT JUMPDEST PUSH3 0x81 PUSH1 0x4 DUP1 CALLDATASIZE SUB DUP2 ADD SWAP1 PUSH3 0x7B SWAP2 SWAP1 PUSH3 0x34E JUMP JUMPDEST PUSH3 0x15F JUMP JUMPDEST PUSH1 0x40 MLOAD PUSH3 0x90 SWAP2 SWAP1 PUSH3 0x39D JUMP JUMPDEST PUSH1 0x40 MLOAD DUP1 SWAP2 SUB SWAP1 RETURN JUMPDEST PUSH3 0xA3 PUSH3 0x1DC JUMP JUMPDEST PUSH1 0x40 MLOAD PUSH3 0xB2 SWAP2 SWAP1 PUSH3 0x3FF JUMP JUMPDEST PUSH1 0x40 MLOAD DUP1 SWAP2 SUB SWAP1 RETURN JUMPDEST PUSH3 0xD9 PUSH1 0x4 DUP1 CALLDATASIZE SUB DUP2 ADD SWAP1 PUSH3 0xD3 SWAP2 SWAP1 PUSH3 0x474 JUMP JUMPDEST PUSH3 0x1E1 JUMP JUMPDEST PUSH1 0x40 MLOAD PUSH3 0xE8 SWAP2 SWAP1 PUSH3 0x6B5 JUMP JUMPDEST PUSH1 0x40 MLOAD DUP1 SWAP2 SUB SWAP1 RETURN JUMPDEST PUSH3 0x10F PUSH1 0x4 DUP1 CALLDATASIZE SUB DUP2 ADD SWAP1 PUSH3 0x109 SWAP2 SWAP1 PUSH3 0x718 JUMP JUMPDEST PUSH3 0x1E9 JUMP JUMPDEST PUSH1 0x40 MLOAD PUSH3 0x11F SWAP3 SWAP2 SWAP1 PUSH3 0x9AD JUMP JUMPDEST PUSH1 0x40 MLOAD DUP1 SWAP2 SUB SWAP1 RETURN JUMPDEST PUSH3 0x146 PUSH1 0x4 DUP1 CALLDATASIZE SUB DUP2 ADD SWAP1 PUSH3 0x140 SWAP2 SWAP1 PUSH3 0xB39 JUMP JUMPDEST PUSH3 0x1FD JUMP JUMPDEST PUSH1 0x40 MLOAD PUSH3 0x156 SWAP3 SWAP2 SWAP1 PUSH3 0xB9F JUMP JUMPDEST PUSH1 0x40 MLOAD DUP1 SWAP2 SUB SWAP1 RETURN JUMPDEST PUSH1 0x0 PUSH32 0x99718B5000000000000000000000000000000000000000000000000000000000 PUSH28 0xFFFFFFFFFFFFFFFFFFFFFFFFFFFFFFFFFFFFFFFFFFFFFFFFFFFFFFFF NOT AND DUP3 PUSH28 0xFFFFFFFFFFFFFFFFFFFFFFFFFFFFFFFFFFFFFFFFFFFFFFFFFFFFFFFF NOT AND EQ DUP1 PUSH3 0x1D5 JUMPI POP PUSH3 0x1D4 DUP3 PUSH3 0x24B JUMP JUMPDEST JUMPDEST SWAP1 POP SWAP2 SWAP1 POP JUMP JUMPDEST PUSH1 0x0 SWAP1 JUMP JUMPDEST PUSH1 0x60 SWAP3 SWAP2 POP POP JUMP JUMPDEST PUSH1 0x60 PUSH3 0x1F5 PUSH3 0x2B5 JUMP JUMPDEST SWAP4 POP SWAP4 SWAP2 POP POP JUMP JUMPDEST PUSH1 0x0 PUSH3 0x209 PUSH3 0x2B5 JUMP JUMPDEST DUP4 PUSH1 0x40 MLOAD PUSH3 0x218 SWAP1 PUSH3 0x2CF JUMP JUMPDEST PUSH3 0x224 SWAP2 SWAP1 PUSH3 0xC3E JUMP JUMPDEST PUSH1 0x40 MLOAD DUP1 SWAP2 SUB SWAP1 PUSH1 0x0 CREATE DUP1 ISZERO DUP1 ISZERO PUSH3 0x241 JUMPI RETURNDATASIZE PUSH1 0x0 DUP1 RETURNDATACOPY RETURNDATASIZE PUSH1 0x0 REVERT JUMPDEST POP SWAP2 POP SWAP3 POP SWAP3 SWAP1 POP JUMP JUMPDEST PUSH1 0x0 PUSH32 0x1FFC9A700000000000000000000000000000000000000000000000000000000 PUSH28 0xFFFFFFFFFFFFFFFFFFFFFFFFFFFFFFFFFFFFFFFFFFFFFFFFFFFFFFFF NOT AND DUP3 PUSH28 0xFFFFFFFFFFFFFFFFFFFFFFFFFFFFFFFFFFFFFFFFFFFFFFFFFFFFFFFF NOT AND EQ SWAP1 POP SWAP2 SWAP1 POP JUMP JUMPDEST PUSH1 0x40 MLOAD DUP1 PUSH1 0x40 ADD PUSH1 0x40 MSTORE DUP1 PUSH1 0x60 DUP2 MSTORE PUSH1 0x20 ADD PUSH1 0x60 DUP2 MSTORE POP SWAP1 JUMP JUMPDEST PUSH2 0x62E DUP1 PUSH3 0xC5C DUP4 CODECOPY ADD SWAP1 JUMP JUMPDEST PUSH1 0x0 PUSH1 0x40 MLOAD SWAP1 POP SWAP1 JUMP JUMPDEST PUSH1 0x0 DUP1 REVERT JUMPDEST PUSH1 0x0 DUP1 REVERT JUMPDEST PUSH1 0x0 PUSH32 0xFFFFFFFF00000000000000000000000000000000000000000000000000000000 DUP3 AND SWAP1 POP SWAP2 SWAP1 POP JUMP JUMPDEST PUSH3 0x328 DUP2 PUSH3 0x2F1 JUMP JUMPDEST DUP2 EQ PUSH3 0x334 JUMPI PUSH1 0x0 DUP1 REVERT JUMPDEST POP JUMP JUMPDEST PUSH1 0x0 DUP2 CALLDATALOAD SWAP1 POP PUSH3 0x348 DUP2 PUSH3 0x31D JUMP JUMPDEST SWAP3 SWAP2 POP POP JUMP JUMPDEST PUSH1 0x0 PUSH1 0x20 DUP3 DUP5 SUB SLT ISZERO PUSH3 0x367 JUMPI PUSH3 0x366 PUSH3 0x2E7 JUMP JUMPDEST JUMPDEST PUSH1 0x0 PUSH3 0x377 DUP5 DUP3 DUP6 ADD PUSH3 0x337 JUMP JUMPDEST SWAP2 POP POP SWAP3 SWAP2 POP POP JUMP JUMPDEST PUSH1 0x0 DUP2 ISZERO ISZERO SWAP1 POP SWAP2 SWAP1 POP JUMP JUMPDEST PUSH3 0x397 DUP2 PUSH3 0x380 JUMP JUMPDEST DUP3 MSTORE POP POP JUMP JUMPDEST PUSH1 0x0 PUSH1 0x20 DUP3 ADD SWAP1 POP PUSH3 0x3B4 PUSH1 0x0 DUP4 ADD DUP5 PUSH3 0x38C JUMP JUMPDEST SWAP3 SWAP2 POP POP JUMP JUMPDEST PUSH1 0x0 PUSH20 0xFFFFFFFFFFFFFFFFFFFFFFFFFFFFFFFFFFFFFFFF DUP3 AND SWAP1 POP SWAP2 SWAP1 POP JUMP JUMPDEST PUSH1 0x0 PUSH3 0x3E7 DUP3 PUSH3 0x3BA JUMP JUMPDEST SWAP1 POP SWAP2 SWAP1 POP JUMP JUMPDEST PUSH3 0x3F9 DUP2 PUSH3 0x3DA JUMP JUMPDEST DUP3 MSTORE POP POP JUMP JUMPDEST PUSH1 0x0 PUSH1 0x20 DUP3 ADD SWAP1 POP PUSH3 0x416 PUSH1 0x0 DUP4 ADD DUP5 PUSH3 0x3EE JUMP JUMPDEST SWAP3 SWAP2 POP POP JUMP JUMPDEST PUSH3 0x427 DUP2 PUSH3 0x3DA JUMP JUMPDEST DUP2 EQ PUSH3 0x433 JUMPI PUSH1 0x0 DUP1 REVERT JUMPDEST POP JUMP JUMPDEST PUSH1 0x0 DUP2 CALLDATALOAD SWAP1 POP PUSH3 0x447 DUP2 PUSH3 0x41C JUMP JUMPDEST SWAP3 SWAP2 POP POP JUMP JUMPDEST PUSH1 0x0 DUP1 REVERT JUMPDEST PUSH1 0x0 PUSH1 0x60 DUP3 DUP5 SUB SLT ISZERO PUSH3 0x46B JUMPI PUSH3 0x46A PUSH3 0x44D JUMP JUMPDEST JUMPDEST DUP2 SWAP1 POP SWAP3 SWAP2 POP POP JUMP JUMPDEST PUSH1 0x0 DUP1 PUSH1 0x40 DUP4 DUP6 SUB SLT ISZERO PUSH3 0x48E JUMPI PUSH3 0x48D PUSH3 0x2E7 JUMP JUMPDEST JUMPDEST PUSH1 0x0 PUSH3 0x49E DUP6 DUP3 DUP7 ADD PUSH3 0x436 JUMP JUMPDEST SWAP3 POP POP PUSH1 0x20 DUP4 ADD CALLDATALOAD PUSH8 0xFFFFFFFFFFFFFFFF DUP2 GT ISZERO PUSH3 0x4C2 JUMPI PUSH3 0x4C1 PUSH3 0x2EC JUMP JUMPDEST JUMPDEST PUSH3 0x4D0 DUP6 DUP3 DUP7 ADD PUSH3 0x452 JUMP JUMPDEST SWAP2 POP POP SWAP3 POP SWAP3 SWAP1 POP JUMP JUMPDEST PUSH1 0x0 DUP2 MLOAD SWAP1 POP SWAP2 SWAP1 POP JUMP JUMPDEST PUSH1 0x0 DUP3 DUP3 MSTORE PUSH1 0x20 DUP3 ADD SWAP1 POP SWAP3 SWAP2 POP POP JUMP JUMPDEST PUSH1 0x0 DUP2 SWAP1 POP PUSH1 0x20 DUP3 ADD SWAP1 POP SWAP2 SWAP1 POP JUMP JUMPDEST PUSH32 0x4E487B7100000000000000000000000000000000000000000000000000000000 PUSH1 0x0 MSTORE PUSH1 0x21 PUSH1 0x4 MSTORE PUSH1 0x24 PUSH1 0x0 REVERT JUMPDEST PUSH1 0x3 DUP2 LT PUSH3 0x549 JUMPI PUSH3 0x548 PUSH3 0x506 JUMP JUMPDEST JUMPDEST POP JUMP JUMPDEST PUSH1 0x0 DUP2 SWAP1 POP PUSH3 0x55C DUP3 PUSH3 0x535 JUMP JUMPDEST SWAP2 SWAP1 POP JUMP JUMPDEST PUSH1 0x0 PUSH3 0x56E DUP3 PUSH3 0x54C JUMP JUMPDEST SWAP1 POP SWAP2 SWAP1 POP JUMP JUMPDEST PUSH3 0x580 DUP2 PUSH3 0x561 JUMP JUMPDEST DUP3 MSTORE POP POP JUMP JUMPDEST PUSH3 0x591 DUP2 PUSH3 0x3DA JUMP JUMPDEST DUP3 MSTORE POP POP JUMP JUMPDEST PUSH1 0x0 DUP2 SWAP1 POP SWAP2 SWAP1 POP JUMP JUMPDEST PUSH3 0x5AC DUP2 PUSH3 0x597 JUMP JUMPDEST DUP3 MSTORE POP POP JUMP JUMPDEST PUSH1 0xA0 DUP3 ADD PUSH1 0x0 DUP3 ADD MLOAD PUSH3 0x5CA PUSH1 0x0 DUP6 ADD DUP3 PUSH3 0x575 JUMP JUMPDEST POP PUSH1 0x20 DUP3 ADD MLOAD PUSH3 0x5DF PUSH1 0x20 DUP6 ADD DUP3 PUSH3 0x586 JUMP JUMPDEST POP PUSH1 0x40 DUP3 ADD MLOAD PUSH3 0x5F4 PUSH1 0x40 DUP6 ADD DUP3 PUSH3 0x586 JUMP JUMPDEST POP PUSH1 0x60 DUP3 ADD MLOAD PUSH3 0x609 PUSH1 0x60 DUP6 ADD DUP3 PUSH3 0x586 JUMP JUMPDEST POP PUSH1 0x80 DUP3 ADD MLOAD PUSH3 0x61E PUSH1 0x80 DUP6 ADD DUP3 PUSH3 0x5A1 JUMP JUMPDEST POP POP POP POP JUMP JUMPDEST PUSH1 0x0 PUSH3 0x632 DUP4 DUP4 PUSH3 0x5B2 JUMP JUMPDEST PUSH1 0xA0 DUP4 ADD SWAP1 POP SWAP3 SWAP2 POP POP JUMP JUMPDEST PUSH1 0x0 PUSH1 0x20 DUP3 ADD SWAP1 POP SWAP2 SWAP1 POP JUMP JUMPDEST PUSH1 0x0 PUSH3 0x658 DUP3 PUSH3 0x4DA JUMP JUMPDEST PUSH3 0x664 DUP2 DUP6 PUSH3 0x4E5 JUMP JUMPDEST SWAP4 POP PUSH3 0x671 DUP4 PUSH3 0x4F6 JUMP JUMPDEST DUP1 PUSH1 0x0 JUMPDEST DUP4 DUP2 LT ISZERO PUSH3 0x6A8 JUMPI DUP2 MLOAD PUSH3 0x68C DUP9 DUP3 PUSH3 0x624 JUMP JUMPDEST SWAP8 POP PUSH3 0x699 DUP4 PUSH3 0x63E JUMP JUMPDEST SWAP3 POP POP PUSH1 0x1 DUP2 ADD SWAP1 POP PUSH3 0x675 JUMP JUMPDEST POP DUP6 SWAP4 POP POP POP POP SWAP3 SWAP2 POP POP JUMP JUMPDEST PUSH1 0x0 PUSH1 0x20 DUP3 ADD SWAP1 POP DUP2 DUP2 SUB PUSH1 0x0 DUP4 ADD MSTORE PUSH3 0x6D1 DUP2 DUP5 PUSH3 0x64B JUMP JUMPDEST SWAP1 POP SWAP3 SWAP2 POP POP JUMP JUMPDEST PUSH1 0x0 PUSH2 0xFFFF DUP3 AND SWAP1 POP SWAP2 SWAP1 POP JUMP JUMPDEST PUSH3 0x6F2 DUP2 PUSH3 0x6D9 JUMP JUMPDEST DUP2 EQ PUSH3 0x6FE JUMPI PUSH1 0x0 DUP1 REVERT JUMPDEST POP JUMP JUMPDEST PUSH1 0x0 DUP2 CALLDATALOAD SWAP1 POP PUSH3 0x712 DUP2 PUSH3 0x6E7 JUMP JUMPDEST SWAP3 SWAP2 POP POP JUMP JUMPDEST PUSH1 0x0 DUP1 PUSH1 0x0 PUSH1 0x60 DUP5 DUP7 SUB SLT ISZERO PUSH3 0x734 JUMPI PUSH3 0x733 PUSH3 0x2E7 JUMP JUMPDEST JUMPDEST PUSH1 0x0 PUSH3 0x744 DUP7 DUP3 DUP8 ADD PUSH3 0x436 JUMP JUMPDEST SWAP4 POP POP PUSH1 0x20 PUSH3 0x757 DUP7 DUP3 DUP8 ADD PUSH3 0x701 JUMP JUMPDEST SWAP3 POP POP PUSH1 0x40 DUP5 ADD CALLDATALOAD PUSH8 0xFFFFFFFFFFFFFFFF DUP2 GT ISZERO PUSH3 0x77B JUMPI PUSH3 0x77A PUSH3 0x2EC JUMP JUMPDEST JUMPDEST PUSH3 0x789 DUP7 DUP3 DUP8 ADD PUSH3 0x452 JUMP JUMPDEST SWAP2 POP POP SWAP3 POP SWAP3 POP SWAP3 JUMP JUMPDEST PUSH1 0x0 DUP2 MLOAD SWAP1 POP SWAP2 SWAP1 POP JUMP JUMPDEST PUSH1 0x0 DUP3 DUP3 MSTORE PUSH1 0x20 DUP3 ADD SWAP1 POP SWAP3 SWAP2 POP POP JUMP JUMPDEST PUSH1 0x0 JUMPDEST DUP4 DUP2 LT ISZERO PUSH3 0x7CF JUMPI DUP1 DUP3 ADD MLOAD DUP2 DUP5 ADD MSTORE PUSH1 0x20 DUP2 ADD SWAP1 POP PUSH3 0x7B2 JUMP JUMPDEST PUSH1 0x0 DUP5 DUP5 ADD MSTORE POP POP POP POP JUMP JUMPDEST PUSH1 0x0 PUSH1 0x1F NOT PUSH1 0x1F DUP4 ADD AND SWAP1 POP SWAP2 SWAP1 POP JUMP JUMPDEST PUSH1 0x0 PUSH3 0x7F9 DUP3 PUSH3 0x793 JUMP JUMPDEST PUSH3 0x805 DUP2 DUP6 PUSH3 0x79E JUMP JUMPDEST SWAP4 POP PUSH3 0x817 DUP2 DUP6 PUSH1 0x20 DUP7 ADD PUSH3 0x7AF JUMP JUMPDEST PUSH3 0x822 DUP2 PUSH3 0x7DB JUMP JUMPDEST DUP5 ADD SWAP2 POP POP SWAP3 SWAP2 POP POP JUMP JUMPDEST PUSH1 0x0 DUP2 MLOAD SWAP1 POP SWAP2 SWAP1 POP JUMP JUMPDEST PUSH1 0x0 DUP3 DUP3 MSTORE PUSH1 0x20 DUP3 ADD SWAP1 POP SWAP3 SWAP2 POP POP JUMP JUMPDEST PUSH1 0x0 DUP2 SWAP1 POP PUSH1 0x20 DUP3 ADD SWAP1 POP SWAP2 SWAP1 POP JUMP JUMPDEST PUSH1 0x0 PUSH3 0x867 DUP4 DUP4 PUSH3 0x586 JUMP JUMPDEST PUSH1 0x20 DUP4 ADD SWAP1 POP SWAP3 SWAP2 POP POP JUMP JUMPDEST PUSH1 0x0 PUSH1 0x20 DUP3 ADD SWAP1 POP SWAP2 SWAP1 POP JUMP JUMPDEST PUSH1 0x0 PUSH3 0x88D DUP3 PUSH3 0x82D JUMP JUMPDEST PUSH3 0x899 DUP2 DUP6 PUSH3 0x838 JUMP JUMPDEST SWAP4 POP PUSH3 0x8A6 DUP4 PUSH3 0x849 JUMP JUMPDEST DUP1 PUSH1 0x0 JUMPDEST DUP4 DUP2 LT ISZERO PUSH3 0x8DD JUMPI DUP2 MLOAD PUSH3 0x8C1 DUP9 DUP3 PUSH3 0x859 JUMP JUMPDEST SWAP8 POP PUSH3 0x8CE DUP4 PUSH3 0x873 JUMP JUMPDEST SWAP3 POP POP PUSH1 0x1 DUP2 ADD SWAP1 POP PUSH3 0x8AA JUMP JUMPDEST POP DUP6 SWAP4 POP POP POP POP SWAP3 SWAP2 POP POP JUMP JUMPDEST PUSH1 0x0 DUP3 DUP3 MSTORE PUSH1 0x20 DUP3 ADD SWAP1 POP SWAP3 SWAP2 POP POP JUMP JUMPDEST PUSH1 0x0 PUSH3 0x908 DUP3 PUSH3 0x4DA JUMP JUMPDEST PUSH3 0x914 DUP2 DUP6 PUSH3 0x8EA JUMP JUMPDEST SWAP4 POP PUSH3 0x921 DUP4 PUSH3 0x4F6 JUMP JUMPDEST DUP1 PUSH1 0x0 JUMPDEST DUP4 DUP2 LT ISZERO PUSH3 0x958 JUMPI DUP2 MLOAD PUSH3 0x93C DUP9 DUP3 PUSH3 0x624 JUMP JUMPDEST SWAP8 POP PUSH3 0x949 DUP4 PUSH3 0x63E JUMP JUMPDEST SWAP3 POP POP PUSH1 0x1 DUP2 ADD SWAP1 POP PUSH3 0x925 JUMP JUMPDEST POP DUP6 SWAP4 POP POP POP POP SWAP3 SWAP2 POP POP JUMP JUMPDEST PUSH1 0x0 PUSH1 0x40 DUP4 ADD PUSH1 0x0 DUP4 ADD MLOAD DUP5 DUP3 SUB PUSH1 0x0 DUP7 ADD MSTORE PUSH3 0x984 DUP3 DUP3 PUSH3 0x880 JUMP JUMPDEST SWAP2 POP POP PUSH1 0x20 DUP4 ADD MLOAD DUP5 DUP3 SUB PUSH1 0x20 DUP7 ADD MSTORE PUSH3 0x9A0 DUP3 DUP3 PUSH3 0x8FB JUMP JUMPDEST SWAP2 POP POP DUP1 SWAP2 POP POP SWAP3 SWAP2 POP POP JUMP JUMPDEST PUSH1 0x0 PUSH1 0x40 DUP3 ADD SWAP1 POP DUP2 DUP2 SUB PUSH1 0x0 DUP4 ADD MSTORE PUSH3 0x9C9 DUP2 DUP6 PUSH3 0x7EC JUMP JUMPDEST SWAP1 POP DUP2 DUP2 SUB PUSH1 0x20 DUP4 ADD MSTORE PUSH3 0x9DF DUP2 DUP5 PUSH3 0x965 JUMP JUMPDEST SWAP1 POP SWAP4 SWAP3 POP POP POP JUMP JUMPDEST PUSH1 0x0 DUP1 REVERT JUMPDEST PUSH1 0x0 DUP1 REVERT JUMPDEST PUSH32 0x4E487B7100000000000000000000000000000000000000000000000000000000 PUSH1 0x0 MSTORE PUSH1 0x41 PUSH1 0x4 MSTORE PUSH1 0x24 PUSH1 0x0 REVERT JUMPDEST PUSH3 0xA2C DUP3 PUSH3 0x7DB JUMP JUMPDEST DUP2 ADD DUP2 DUP2 LT PUSH8 0xFFFFFFFFFFFFFFFF DUP3 GT OR ISZERO PUSH3 0xA4E JUMPI PUSH3 0xA4D PUSH3 0x9F2 JUMP JUMPDEST JUMPDEST DUP1 PUSH1 0x40 MSTORE POP POP POP JUMP JUMPDEST PUSH1 0x0 PUSH3 0xA63 PUSH3 0x2DD JUMP JUMPDEST SWAP1 POP PUSH3 0xA71 DUP3 DUP3 PUSH3 0xA21 JUMP JUMPDEST SWAP2 SWAP1 POP JUMP JUMPDEST PUSH1 0x0 PUSH8 0xFFFFFFFFFFFFFFFF DUP3 GT ISZERO PUSH3 0xA94 JUMPI PUSH3 0xA93 PUSH3 0x9F2 JUMP JUMPDEST JUMPDEST PUSH3 0xA9F DUP3 PUSH3 0x7DB JUMP JUMPDEST SWAP1 POP PUSH1 0x20 DUP2 ADD SWAP1 POP SWAP2 SWAP1 POP JUMP JUMPDEST DUP3 DUP2 DUP4 CALLDATACOPY PUSH1 0x0 DUP4 DUP4 ADD MSTORE POP POP POP JUMP JUMPDEST PUSH1 0x0 PUSH3 0xAD2 PUSH3 0xACC DUP5 PUSH3 0xA76 JUMP JUMPDEST PUSH3 0xA57 JUMP JUMPDEST SWAP1 POP DUP3 DUP2 MSTORE PUSH1 0x20 DUP2 ADD DUP5 DUP5 DUP5 ADD GT ISZERO PUSH3 0xAF1 JUMPI PUSH3 0xAF0 PUSH3 0x9ED JUMP JUMPDEST JUMPDEST PUSH3 0xAFE DUP5 DUP3 DUP6 PUSH3 0xAAC JUMP JUMPDEST POP SWAP4 SWAP3 POP POP POP JUMP JUMPDEST PUSH1 0x0 DUP3 PUSH1 0x1F DUP4 ADD SLT PUSH3 0xB1E JUMPI PUSH3 0xB1D PUSH3 0x9E8 JUMP JUMPDEST JUMPDEST DUP2 CALLDATALOAD PUSH3 0xB30 DUP5 DUP3 PUSH1 0x20 DUP7 ADD PUSH3 0xABB JUMP JUMPDEST SWAP2 POP POP SWAP3 SWAP2 POP POP JUMP JUMPDEST PUSH1 0x0 DUP1 PUSH1 0x40 DUP4 DUP6 SUB SLT ISZERO PUSH3 0xB53 JUMPI PUSH3 0xB52 PUSH3 0x2E7 JUMP JUMPDEST JUMPDEST PUSH1 0x0 PUSH3 0xB63 DUP6 DUP3 DUP7 ADD PUSH3 0x436 JUMP JUMPDEST SWAP3 POP POP PUSH1 0x20 DUP4 ADD CALLDATALOAD PUSH8 0xFFFFFFFFFFFFFFFF DUP2 GT ISZERO PUSH3 0xB87 JUMPI PUSH3 0xB86 PUSH3 0x2EC JUMP JUMPDEST JUMPDEST PUSH3 0xB95 DUP6 DUP3 DUP7 ADD PUSH3 0xB06 JUMP JUMPDEST SWAP2 POP POP SWAP3 POP SWAP3 SWAP1 POP JUMP JUMPDEST PUSH1 0x0 PUSH1 0x40 DUP3 ADD SWAP1 POP PUSH3 0xBB6 PUSH1 0x0 DUP4 ADD DUP6 PUSH3 0x3EE JUMP JUMPDEST DUP2 DUP2 SUB PUSH1 0x20 DUP4 ADD MSTORE PUSH3 0xBCA DUP2 DUP5 PUSH3 0x965 JUMP JUMPDEST SWAP1 POP SWAP4 SWAP3 POP POP POP JUMP JUMPDEST PUSH1 0x0 DUP2 SWAP1 POP SWAP2 SWAP1 POP JUMP JUMPDEST PUSH1 0x0 PUSH3 0xBFE PUSH3 0xBF8 PUSH3 0xBF2 DUP5 PUSH3 0x3BA JUMP JUMPDEST PUSH3 0xBD3 JUMP JUMPDEST PUSH3 0x3BA JUMP JUMPDEST SWAP1 POP SWAP2 SWAP1 POP JUMP JUMPDEST PUSH1 0x0 PUSH3 0xC12 DUP3 PUSH3 0xBDD JUMP JUMPDEST SWAP1 POP SWAP2 SWAP1 POP JUMP JUMPDEST PUSH1 0x0 PUSH3 0xC26 DUP3 PUSH3 0xC05 JUMP JUMPDEST SWAP1 POP SWAP2 SWAP1 POP JUMP JUMPDEST PUSH3 0xC38 DUP2 PUSH3 0xC19 JUMP JUMPDEST DUP3 MSTORE POP POP JUMP JUMPDEST PUSH1 0x0 PUSH1 0x20 DUP3 ADD SWAP1 POP PUSH3 0xC55 PUSH1 0x0 DUP4 ADD DUP5 PUSH3 0xC2D JUMP JUMPDEST SWAP3 SWAP2 POP POP JUMP INVALID PUSH1 0xA0 PUSH1 0x40 MSTORE CALLVALUE DUP1 ISZERO PUSH2 0x10 JUMPI PUSH1 0x0 DUP1 REVERT JUMPDEST POP PUSH1 0x40 MLOAD PUSH2 0x62E CODESIZE SUB DUP1 PUSH2 0x62E DUP4 CODECOPY DUP2 DUP2 ADD PUSH1 0x40 MSTORE DUP2 ADD SWAP1 PUSH2 0x32 SWAP2 SWAP1 PUSH2 0xE5 JUMP JUMPDEST DUP1 DUP1 DUP1 PUSH20 0xFFFFFFFFFFFFFFFFFFFFFFFFFFFFFFFFFFFFFFFF AND PUSH1 0x80 DUP2 PUSH20 0xFFFFFFFFFFFFFFFFFFFFFFFFFFFFFFFFFFFFFFFF AND DUP2 MSTORE POP POP POP POP POP PUSH2 0x112 JUMP JUMPDEST PUSH1 0x0 DUP1 REVERT JUMPDEST PUSH1 0x0 PUSH20 0xFFFFFFFFFFFFFFFFFFFFFFFFFFFFFFFFFFFFFFFF DUP3 AND SWAP1 POP SWAP2 SWAP1 POP JUMP JUMPDEST PUSH1 0x0 PUSH2 0xA0 DUP3 PUSH2 0x75 JUMP JUMPDEST SWAP1 POP SWAP2 SWAP1 POP JUMP JUMPDEST PUSH1 0x0 PUSH2 0xB2 DUP3 PUSH2 0x95 JUMP JUMPDEST SWAP1 POP SWAP2 SWAP1 POP JUMP JUMPDEST PUSH2 0xC2 DUP2 PUSH2 0xA7 JUMP JUMPDEST DUP2 EQ PUSH2 0xCD JUMPI PUSH1 0x0 DUP1 REVERT JUMPDEST POP JUMP JUMPDEST PUSH1 0x0 DUP2 MLOAD SWAP1 POP PUSH2 0xDF DUP2 PUSH2 0xB9 JUMP JUMPDEST SWAP3 SWAP2 POP POP JUMP JUMPDEST PUSH1 0x0 PUSH1 0x20 DUP3 DUP5 SUB SLT ISZERO PUSH2 0xFB JUMPI PUSH2 0xFA PUSH2 0x70 JUMP JUMPDEST JUMPDEST PUSH1 0x0 PUSH2 0x109 DUP5 DUP3 DUP6 ADD PUSH2 0xD0 JUMP JUMPDEST SWAP2 POP POP SWAP3 SWAP2 POP POP JUMP JUMPDEST PUSH1 0x80 MLOAD PUSH2 0x501 PUSH2 0x12D PUSH1 0x0 CODECOPY PUSH1 0x0 PUSH2 0x159 ADD MSTORE PUSH2 0x501 PUSH1 0x0 RETURN INVALID PUSH1 0x80 PUSH1 0x40 MSTORE CALLVALUE DUP1 ISZERO PUSH2 0x10 JUMPI PUSH1 0x0 DUP1 REVERT JUMPDEST POP PUSH1 0x4 CALLDATASIZE LT PUSH2 0x4C JUMPI PUSH1 0x0 CALLDATALOAD PUSH1 0xE0 SHR DUP1 PUSH4 0x1FFC9A7 EQ PUSH2 0x51 JUMPI DUP1 PUSH4 0x4162169F EQ PUSH2 0x81 JUMPI DUP1 PUSH4 0x41DE6830 EQ PUSH2 0x9F JUMPI DUP1 PUSH4 0xCFAE3217 EQ PUSH2 0xBD JUMPI JUMPDEST PUSH1 0x0 DUP1 REVERT JUMPDEST PUSH2 0x6B PUSH1 0x4 DUP1 CALLDATASIZE SUB DUP2 ADD SWAP1 PUSH2 0x66 SWAP2 SWAP1 PUSH2 0x28A JUMP JUMPDEST PUSH2 0xDB JUMP JUMPDEST PUSH1 0x40 MLOAD PUSH2 0x78 SWAP2 SWAP1 PUSH2 0x2D2 JUMP JUMPDEST PUSH1 0x40 MLOAD DUP1 SWAP2 SUB SWAP1 RETURN JUMPDEST PUSH2 0x89 PUSH2 0x155 JUMP JUMPDEST PUSH1 0x40 MLOAD PUSH2 0x96 SWAP2 SWAP1 PUSH2 0x36C JUMP JUMPDEST PUSH1 0x40 MLOAD DUP1 SWAP2 SUB SWAP1 RETURN JUMPDEST PUSH2 0xA7 PUSH2 0x17D JUMP JUMPDEST PUSH1 0x40 MLOAD PUSH2 0xB4 SWAP2 SWAP1 PUSH2 0x3FE JUMP JUMPDEST PUSH1 0x40 MLOAD DUP1 SWAP2 SUB SWAP1 RETURN JUMPDEST PUSH2 0xC5 PUSH2 0x186 JUMP JUMPDEST PUSH1 0x40 MLOAD PUSH2 0xD2 SWAP2 SWAP1 PUSH2 0x4A9 JUMP JUMPDEST PUSH1 0x40 MLOAD DUP1 SWAP2 SUB SWAP1 RETURN JUMPDEST PUSH1 0x0 PUSH32 0x41DE683000000000000000000000000000000000000000000000000000000000 PUSH28 0xFFFFFFFFFFFFFFFFFFFFFFFFFFFFFFFFFFFFFFFFFFFFFFFFFFFFFFFF NOT AND DUP3 PUSH28 0xFFFFFFFFFFFFFFFFFFFFFFFFFFFFFFFFFFFFFFFFFFFFFFFFFFFFFFFF NOT AND EQ DUP1 PUSH2 0x14E JUMPI POP PUSH2 0x14D DUP3 PUSH2 0x1C3 JUMP JUMPDEST JUMPDEST SWAP1 POP SWAP2 SWAP1 POP JUMP JUMPDEST PUSH1 0x0 PUSH32 0x0 SWAP1 POP SWAP1 JUMP JUMPDEST PUSH1 0x0 PUSH1 0x2 SWAP1 POP SWAP1 JUMP JUMPDEST PUSH1 0x60 PUSH1 0x40 MLOAD DUP1 PUSH1 0x40 ADD PUSH1 0x40 MSTORE DUP1 PUSH1 0xC DUP2 MSTORE PUSH1 0x20 ADD PUSH32 0x48656C6C6F20776F726C64210000000000000000000000000000000000000000 DUP2 MSTORE POP SWAP1 POP SWAP1 JUMP JUMPDEST PUSH1 0x0 PUSH32 0x1FFC9A700000000000000000000000000000000000000000000000000000000 PUSH28 0xFFFFFFFFFFFFFFFFFFFFFFFFFFFFFFFFFFFFFFFFFFFFFFFFFFFFFFFF NOT AND DUP3 PUSH28 0xFFFFFFFFFFFFFFFFFFFFFFFFFFFFFFFFFFFFFFFFFFFFFFFFFFFFFFFF NOT AND EQ SWAP1 POP SWAP2 SWAP1 POP JUMP JUMPDEST PUSH1 0x0 DUP1 REVERT JUMPDEST PUSH1 0x0 PUSH32 0xFFFFFFFF00000000000000000000000000000000000000000000000000000000 DUP3 AND SWAP1 POP SWAP2 SWAP1 POP JUMP JUMPDEST PUSH2 0x267 DUP2 PUSH2 0x232 JUMP JUMPDEST DUP2 EQ PUSH2 0x272 JUMPI PUSH1 0x0 DUP1 REVERT JUMPDEST POP JUMP JUMPDEST PUSH1 0x0 DUP2 CALLDATALOAD SWAP1 POP PUSH2 0x284 DUP2 PUSH2 0x25E JUMP JUMPDEST SWAP3 SWAP2 POP POP JUMP JUMPDEST PUSH1 0x0 PUSH1 0x20 DUP3 DUP5 SUB SLT ISZERO PUSH2 0x2A0 JUMPI PUSH2 0x29F PUSH2 0x22D JUMP JUMPDEST JUMPDEST PUSH1 0x0 PUSH2 0x2AE DUP5 DUP3 DUP6 ADD PUSH2 0x275 JUMP JUMPDEST SWAP2 POP POP SWAP3 SWAP2 POP POP JUMP JUMPDEST PUSH1 0x0 DUP2 ISZERO ISZERO SWAP1 POP SWAP2 SWAP1 POP JUMP JUMPDEST PUSH2 0x2CC DUP2 PUSH2 0x2B7 JUMP JUMPDEST DUP3 MSTORE POP POP JUMP JUMPDEST PUSH1 0x0 PUSH1 0x20 DUP3 ADD SWAP1 POP PUSH2 0x2E7 PUSH1 0x0 DUP4 ADD DUP5 PUSH2 0x2C3 JUMP JUMPDEST SWAP3 SWAP2 POP POP JUMP JUMPDEST PUSH1 0x0 PUSH20 0xFFFFFFFFFFFFFFFFFFFFFFFFFFFFFFFFFFFFFFFF DUP3 AND SWAP1 POP SWAP2 SWAP1 POP JUMP JUMPDEST PUSH1 0x0 DUP2 SWAP1 POP SWAP2 SWAP1 POP JUMP JUMPDEST PUSH1 0x0 PUSH2 0x332 PUSH2 0x32D PUSH2 0x328 DUP5 PUSH2 0x2ED JUMP JUMPDEST PUSH2 0x30D JUMP JUMPDEST PUSH2 0x2ED JUMP JUMPDEST SWAP1 POP SWAP2 SWAP1 POP JUMP JUMPDEST PUSH1 0x0 PUSH2 0x344 DUP3 PUSH2 0x317 JUMP JUMPDEST SWAP1 POP SWAP2 SWAP1 POP JUMP JUMPDEST PUSH1 0x0 PUSH2 0x356 DUP3 PUSH2 0x339 JUMP JUMPDEST SWAP1 POP SWAP2 SWAP1 POP JUMP JUMPDEST PUSH2 0x366 DUP2 PUSH2 0x34B JUMP JUMPDEST DUP3 MSTORE POP POP JUMP JUMPDEST PUSH1 0x0 PUSH1 0x20 DUP3 ADD SWAP1 POP PUSH2 0x381 PUSH1 0x0 DUP4 ADD DUP5 PUSH2 0x35D JUMP JUMPDEST SWAP3 SWAP2 POP POP JUMP JUMPDEST PUSH32 0x4E487B7100000000000000000000000000000000000000000000000000000000 PUSH1 0x0 MSTORE PUSH1 0x21 PUSH1 0x4 MSTORE PUSH1 0x24 PUSH1 0x0 REVERT JUMPDEST PUSH1 0x3 DUP2 LT PUSH2 0x3C7 JUMPI PUSH2 0x3C6 PUSH2 0x387 JUMP JUMPDEST JUMPDEST POP JUMP JUMPDEST PUSH1 0x0 DUP2 SWAP1 POP PUSH2 0x3D8 DUP3 PUSH2 0x3B6 JUMP JUMPDEST SWAP2 SWAP1 POP JUMP JUMPDEST PUSH1 0x0 PUSH2 0x3E8 DUP3 PUSH2 0x3CA JUMP JUMPDEST SWAP1 POP SWAP2 SWAP1 POP JUMP JUMPDEST PUSH2 0x3F8 DUP2 PUSH2 0x3DD JUMP JUMPDEST DUP3 MSTORE POP POP JUMP JUMPDEST PUSH1 0x0 PUSH1 0x20 DUP3 ADD SWAP1 POP PUSH2 0x413 PUSH1 0x0 DUP4 ADD DUP5 PUSH2 0x3EF JUMP JUMPDEST SWAP3 SWAP2 POP POP JUMP JUMPDEST PUSH1 0x0 DUP2 MLOAD SWAP1 POP SWAP2 SWAP1 POP JUMP JUMPDEST PUSH1 0x0 DUP3 DUP3 MSTORE PUSH1 0x20 DUP3 ADD SWAP1 POP SWAP3 SWAP2 POP POP JUMP JUMPDEST PUSH1 0x0 JUMPDEST DUP4 DUP2 LT ISZERO PUSH2 0x453 JUMPI DUP1 DUP3 ADD MLOAD DUP2 DUP5 ADD MSTORE PUSH1 0x20 DUP2 ADD SWAP1 POP PUSH2 0x438 JUMP JUMPDEST PUSH1 0x0 DUP5 DUP5 ADD MSTORE POP POP POP POP JUMP JUMPDEST PUSH1 0x0 PUSH1 0x1F NOT PUSH1 0x1F DUP4 ADD AND SWAP1 POP SWAP2 SWAP1 POP JUMP JUMPDEST PUSH1 0x0 PUSH2 0x47B DUP3 PUSH2 0x419 JUMP JUMPDEST PUSH2 0x485 DUP2 DUP6 PUSH2 0x424 JUMP JUMPDEST SWAP4 POP PUSH2 0x495 DUP2 DUP6 PUSH1 0x20 DUP7 ADD PUSH2 0x435 JUMP JUMPDEST PUSH2 0x49E DUP2 PUSH2 0x45F JUMP JUMPDEST DUP5 ADD SWAP2 POP POP SWAP3 SWAP2 POP POP JUMP JUMPDEST PUSH1 0x0 PUSH1 0x20 DUP3 ADD SWAP1 POP DUP2 DUP2 SUB PUSH1 0x0 DUP4 ADD MSTORE PUSH2 0x4C3 DUP2 DUP5 PUSH2 0x470 JUMP JUMPDEST SWAP1 POP SWAP3 SWAP2 POP POP JUMP INVALID LOG2 PUSH5 0x6970667358 0x22 SLT KECCAK256 PUSH12 0x56C00FDBDECE61F53409AA64 PUSH27 0x858D273F9FB661616638DB6561FA43A062BF64736F6C6343000811 STOP CALLER LOG2 PUSH5 0x6970667358 0x22 SLT KECCAK256 0xA5 CREATE JUMP DUP15 0xB4 0xC6 SHR 0xBB EXTCODECOPY 0xBE 0xB0 0x2E DUP9 CHAINID PUSH21 0xB3F0C2A5F4290D2184A00AFBDE1D41950864736F6C PUSH4 0x43000811 STOP CALLER "},"methodIdentifiers":{"implementation()":"5c60da1b","prepareInstallation(address,bytes)":"f10832f1","prepareUninstallation(address,(address,address[],bytes))":"9cb0a124","prepareUpdate(address,uint16,(address,address[],bytes))":"a8a9c29e","supportsInterface(bytes4)":"01ffc9a7"}}}}}