{
  "_format": "hh-sol-artifact-1",
  "contractName": "AddressWhitelist",
  "sourceName": "@uma/core/contracts/common/implementation/AddressWhitelist.sol",
  "abi": [
    {
      "anonymous": false,
      "inputs": [
        {
          "indexed": true,
          "internalType": "address",
          "name": "addedAddress",
          "type": "address"
        }
      ],
      "name": "AddedToWhitelist",
      "type": "event"
    },
    {
      "anonymous": false,
      "inputs": [
        {
          "indexed": true,
          "internalType": "address",
          "name": "previousOwner",
          "type": "address"
        },
        {
          "indexed": true,
          "internalType": "address",
          "name": "newOwner",
          "type": "address"
        }
      ],
      "name": "OwnershipTransferred",
      "type": "event"
    },
    {
      "anonymous": false,
      "inputs": [
        {
          "indexed": true,
          "internalType": "address",
          "name": "removedAddress",
          "type": "address"
        }
      ],
      "name": "RemovedFromWhitelist",
      "type": "event"
    },
    {
      "inputs": [
        {
          "internalType": "address",
          "name": "newElement",
          "type": "address"
        }
      ],
      "name": "addToWhitelist",
      "outputs": [],
      "stateMutability": "nonpayable",
      "type": "function"
    },
    {
      "inputs": [],
      "name": "getWhitelist",
      "outputs": [
        {
          "internalType": "address[]",
          "name": "activeWhitelist",
          "type": "address[]"
        }
      ],
      "stateMutability": "view",
      "type": "function"
    },
    {
      "inputs": [
        {
          "internalType": "address",
          "name": "elementToCheck",
          "type": "address"
        }
      ],
      "name": "isOnWhitelist",
      "outputs": [
        {
          "internalType": "bool",
          "name": "",
          "type": "bool"
        }
      ],
      "stateMutability": "view",
      "type": "function"
    },
    {
      "inputs": [],
      "name": "owner",
      "outputs": [
        {
          "internalType": "address",
          "name": "",
          "type": "address"
        }
      ],
      "stateMutability": "view",
      "type": "function"
    },
    {
      "inputs": [
        {
          "internalType": "address",
          "name": "elementToRemove",
          "type": "address"
        }
      ],
      "name": "removeFromWhitelist",
      "outputs": [],
      "stateMutability": "nonpayable",
      "type": "function"
    },
    {
      "inputs": [],
      "name": "renounceOwnership",
      "outputs": [],
      "stateMutability": "nonpayable",
      "type": "function"
    },
    {
      "inputs": [
        {
          "internalType": "address",
          "name": "newOwner",
          "type": "address"
        }
      ],
      "name": "transferOwnership",
      "outputs": [],
      "stateMutability": "nonpayable",
      "type": "function"
    },
    {
      "inputs": [
        {
          "internalType": "address",
          "name": "",
          "type": "address"
        }
      ],
      "name": "whitelist",
      "outputs": [
        {
          "internalType": "enum AddressWhitelist.Status",
          "name": "",
          "type": "uint8"
        }
      ],
      "stateMutability": "view",
      "type": "function"
    },
    {
      "inputs": [
        {
          "internalType": "uint256",
          "name": "",
          "type": "uint256"
        }
      ],
      "name": "whitelistIndices",
      "outputs": [
        {
          "internalType": "address",
          "name": "",
          "type": "address"
        }
      ],
      "stateMutability": "view",
      "type": "function"
    }
  ],
  "bytecode": "0x608060405234801561001057600080fd5b5061002d61002261004d60201b60201c565b61005560201b60201c565b6001600060146101000a81548160ff021916908315150217905550610119565b600033905090565b60008060009054906101000a900473ffffffffffffffffffffffffffffffffffffffff169050816000806101000a81548173ffffffffffffffffffffffffffffffffffffffff021916908373ffffffffffffffffffffffffffffffffffffffff1602179055508173ffffffffffffffffffffffffffffffffffffffff168173ffffffffffffffffffffffffffffffffffffffff167f8be0079c531659141344cd1fd0a4f28419497f9722a3daafe3b4186f6b6457e060405160405180910390a35050565b6111c4806101286000396000f3fe608060405234801561001057600080fd5b50600436106100935760003560e01c80638da5cb5b116100665780638da5cb5b1461011e5780639b19251a1461013c578063d01f63f51461016c578063e43252d71461018a578063f2fde38b146101a657610093565b806337797c08146100985780633a3ab672146100c8578063715018a6146100f85780638ab1d68114610102575b600080fd5b6100b260048036038101906100ad9190610cb4565b6101c2565b6040516100bf9190610d22565b60405180910390f35b6100e260048036038101906100dd9190610d69565b610201565b6040516100ef9190610db1565b60405180910390f35b610100610286565b005b61011c60048036038101906101179190610d69565b61030e565b005b6101266104c8565b6040516101339190610d22565b60405180910390f35b61015660048036038101906101519190610d69565b6104f1565b6040516101639190610e43565b60405180910390f35b610174610511565b6040516101819190610f1c565b60405180910390f35b6101a4600480360381019061019f9190610d69565b610795565b005b6101c060048036038101906101bb9190610d69565b610a2c565b005b600281815481106101d257600080fd5b906000526020600020016000915054906101000a900473ffffffffffffffffffffffffffffffffffffffff1681565b600061020b610b23565b6001600281111561021f5761021e610dcc565b5b600160008473ffffffffffffffffffffffffffffffffffffffff1673ffffffffffffffffffffffffffffffffffffffff16815260200190815260200160002060009054906101000a900460ff16600281111561027e5761027d610dcc565b5b149050919050565b61028e610b74565b73ffffffffffffffffffffffffffffffffffffffff166102ac6104c8565b73ffffffffffffffffffffffffffffffffffffffff1614610302576040517f08c379a00000000000000000000000000000000000000000000000000000000081526004016102f990610f9b565b60405180910390fd5b61030c6000610b7c565b565b610316610b23565b61031e610c40565b610326610b74565b73ffffffffffffffffffffffffffffffffffffffff166103446104c8565b73ffffffffffffffffffffffffffffffffffffffff161461039a576040517f08c379a000000000000000000000000000000000000000000000000000000000815260040161039190610f9b565b60405180910390fd5b6002808111156103ad576103ac610dcc565b5b600160008373ffffffffffffffffffffffffffffffffffffffff1673ffffffffffffffffffffffffffffffffffffffff16815260200190815260200160002060009054906101000a900460ff16600281111561040c5761040b610dcc565b5b146104bd576002600160008373ffffffffffffffffffffffffffffffffffffffff1673ffffffffffffffffffffffffffffffffffffffff16815260200190815260200160002060006101000a81548160ff0219169083600281111561047457610473610dcc565b5b02179055508073ffffffffffffffffffffffffffffffffffffffff167fcdd2e9b91a56913d370075169cefa1602ba36be5301664f752192bb1709df75760405160405180910390a25b6104c5610c5c565b50565b60008060009054906101000a900473ffffffffffffffffffffffffffffffffffffffff16905090565b60016020528060005260406000206000915054906101000a900460ff1681565b606061051b610b23565b6000805b60028054905081101561060457600160028111156105405761053f610dcc565b5b600160006002848154811061055857610557610fbb565b5b9060005260206000200160009054906101000a900473ffffffffffffffffffffffffffffffffffffffff1673ffffffffffffffffffffffffffffffffffffffff1673ffffffffffffffffffffffffffffffffffffffff16815260200190815260200160002060009054906101000a900460ff1660028111156105dd576105dc610dcc565b5b036105f15781806105ed90611019565b9250505b80806105fc90611019565b91505061051f565b508067ffffffffffffffff81111561061f5761061e611061565b5b60405190808252806020026020018201604052801561064d5781602001602082028036833780820191505090505b5091506000905060005b6002805490508110156107905760006002828154811061067a57610679610fbb565b5b9060005260206000200160009054906101000a900473ffffffffffffffffffffffffffffffffffffffff169050600160028111156106bb576106ba610dcc565b5b600160008373ffffffffffffffffffffffffffffffffffffffff1673ffffffffffffffffffffffffffffffffffffffff16815260200190815260200160002060009054906101000a900460ff16600281111561071a57610719610dcc565b5b0361077c578084848151811061073357610732610fbb565b5b602002602001019073ffffffffffffffffffffffffffffffffffffffff16908173ffffffffffffffffffffffffffffffffffffffff1681525050828061077890611019565b9350505b50808061078890611019565b915050610657565b505090565b61079d610b23565b6107a5610c40565b6107ad610b74565b73ffffffffffffffffffffffffffffffffffffffff166107cb6104c8565b73ffffffffffffffffffffffffffffffffffffffff1614610821576040517f08c379a000000000000000000000000000000000000000000000000000000000815260040161081890610f9b565b60405180910390fd5b6001600281111561083557610834610dcc565b5b600160008373ffffffffffffffffffffffffffffffffffffffff1673ffffffffffffffffffffffffffffffffffffffff16815260200190815260200160002060009054906101000a900460ff16600281111561089457610893610dcc565b5b0315610a2157600060028111156108ae576108ad610dcc565b5b600160008373ffffffffffffffffffffffffffffffffffffffff1673ffffffffffffffffffffffffffffffffffffffff16815260200190815260200160002060009054906101000a900460ff16600281111561090d5761090c610dcc565b5b03610976576002819080600181540180825580915050600190039060005260206000200160009091909190916101000a81548173ffffffffffffffffffffffffffffffffffffffff021916908373ffffffffffffffffffffffffffffffffffffffff1602179055505b60018060008373ffffffffffffffffffffffffffffffffffffffff1673ffffffffffffffffffffffffffffffffffffffff16815260200190815260200160002060006101000a81548160ff021916908360028111156109d8576109d7610dcc565b5b02179055508073ffffffffffffffffffffffffffffffffffffffff167fa850ae9193f515cbae8d35e8925bd2be26627fc91bce650b8652ed254e9cab0360405160405180910390a25b610a29610c5c565b50565b610a34610b74565b73ffffffffffffffffffffffffffffffffffffffff16610a526104c8565b73ffffffffffffffffffffffffffffffffffffffff1614610aa8576040517f08c379a0000000000000000000000000000000000000000000000000000000008152600401610a9f90610f9b565b60405180910390fd5b600073ffffffffffffffffffffffffffffffffffffffff168173ffffffffffffffffffffffffffffffffffffffff1603610b17576040517f08c379a0000000000000000000000000000000000000000000000000000000008152600401610b0e90611102565b60405180910390fd5b610b2081610b7c565b50565b600060149054906101000a900460ff16610b72576040517f08c379a0000000000000000000000000000000000000000000000000000000008152600401610b699061116e565b60405180910390fd5b565b600033905090565b60008060009054906101000a900473ffffffffffffffffffffffffffffffffffffffff169050816000806101000a81548173ffffffffffffffffffffffffffffffffffffffff021916908373ffffffffffffffffffffffffffffffffffffffff1602179055508173ffffffffffffffffffffffffffffffffffffffff168173ffffffffffffffffffffffffffffffffffffffff167f8be0079c531659141344cd1fd0a4f28419497f9722a3daafe3b4186f6b6457e060405160405180910390a35050565b60008060146101000a81548160ff021916908315150217905550565b6001600060146101000a81548160ff021916908315150217905550565b600080fd5b6000819050919050565b610c9181610c7e565b8114610c9c57600080fd5b50565b600081359050610cae81610c88565b92915050565b600060208284031215610cca57610cc9610c79565b5b6000610cd884828501610c9f565b91505092915050565b600073ffffffffffffffffffffffffffffffffffffffff82169050919050565b6000610d0c82610ce1565b9050919050565b610d1c81610d01565b82525050565b6000602082019050610d376000830184610d13565b92915050565b610d4681610d01565b8114610d5157600080fd5b50565b600081359050610d6381610d3d565b92915050565b600060208284031215610d7f57610d7e610c79565b5b6000610d8d84828501610d54565b91505092915050565b60008115159050919050565b610dab81610d96565b82525050565b6000602082019050610dc66000830184610da2565b92915050565b7f4e487b7100000000000000000000000000000000000000000000000000000000600052602160045260246000fd5b60038110610e0c57610e0b610dcc565b5b50565b6000819050610e1d82610dfb565b919050565b6000610e2d82610e0f565b9050919050565b610e3d81610e22565b82525050565b6000602082019050610e586000830184610e34565b92915050565b600081519050919050565b600082825260208201905092915050565b6000819050602082019050919050565b610e9381610d01565b82525050565b6000610ea58383610e8a565b60208301905092915050565b6000602082019050919050565b6000610ec982610e5e565b610ed38185610e69565b9350610ede83610e7a565b8060005b83811015610f0f578151610ef68882610e99565b9750610f0183610eb1565b925050600181019050610ee2565b5085935050505092915050565b60006020820190508181036000830152610f368184610ebe565b905092915050565b600082825260208201905092915050565b7f4f776e61626c653a2063616c6c6572206973206e6f7420746865206f776e6572600082015250565b6000610f85602083610f3e565b9150610f9082610f4f565b602082019050919050565b60006020820190508181036000830152610fb481610f78565b9050919050565b7f4e487b7100000000000000000000000000000000000000000000000000000000600052603260045260246000fd5b7f4e487b7100000000000000000000000000000000000000000000000000000000600052601160045260246000fd5b600061102482610c7e565b91507fffffffffffffffffffffffffffffffffffffffffffffffffffffffffffffffff820361105657611055610fea565b5b600182019050919050565b7f4e487b7100000000000000000000000000000000000000000000000000000000600052604160045260246000fd5b7f4f776e61626c653a206e6577206f776e657220697320746865207a65726f206160008201527f6464726573730000000000000000000000000000000000000000000000000000602082015250565b60006110ec602683610f3e565b91506110f782611090565b604082019050919050565b6000602082019050818103600083015261111b816110df565b9050919050565b7f5265656e7472616e637947756172643a207265656e7472616e742063616c6c00600082015250565b6000611158601f83610f3e565b915061116382611122565b602082019050919050565b600060208201905081810360008301526111878161114b565b905091905056fea2646970667358221220c0ff6689aebc7e853325066d70504f33ec8bb357f0cbcaa179213b64b6029e5b64736f6c63430008100033",
  "linkReferences": {},
  "deployedLinkReferences": {}
}