{
  "_format": "hh-sol-artifact-1",
  "contractName": "PredictionMarket",
  "sourceName": "contracts/PredictionMarket.sol",
  "abi": [
    {
      "inputs": [
        {
          "internalType": "address",
          "name": "_finder",
          "type": "address"
        },
        {
          "internalType": "address",
          "name": "_currency",
          "type": "address"
        },
        {
          "internalType": "address",
          "name": "_optimisticOracleV3",
          "type": "address"
        }
      ],
      "stateMutability": "nonpayable",
      "type": "constructor"
    },
    {
      "anonymous": false,
      "inputs": [
        {
          "indexed": true,
          "internalType": "bytes32",
          "name": "marketId",
          "type": "bytes32"
        },
        {
          "indexed": false,
          "internalType": "string",
          "name": "assertedOutcome",
          "type": "string"
        },
        {
          "indexed": true,
          "internalType": "bytes32",
          "name": "assertionId",
          "type": "bytes32"
        }
      ],
      "name": "MarketAsserted",
      "type": "event"
    },
    {
      "anonymous": false,
      "inputs": [
        {
          "indexed": true,
          "internalType": "bytes32",
          "name": "marketId",
          "type": "bytes32"
        },
        {
          "indexed": false,
          "internalType": "string",
          "name": "outcome1",
          "type": "string"
        },
        {
          "indexed": false,
          "internalType": "string",
          "name": "outcome2",
          "type": "string"
        },
        {
          "indexed": false,
          "internalType": "string",
          "name": "description",
          "type": "string"
        },
        {
          "indexed": false,
          "internalType": "address",
          "name": "outcome1Token",
          "type": "address"
        },
        {
          "indexed": false,
          "internalType": "address",
          "name": "outcome2Token",
          "type": "address"
        },
        {
          "indexed": false,
          "internalType": "uint256",
          "name": "reward",
          "type": "uint256"
        },
        {
          "indexed": false,
          "internalType": "uint256",
          "name": "requiredBond",
          "type": "uint256"
        }
      ],
      "name": "MarketInitialized",
      "type": "event"
    },
    {
      "anonymous": false,
      "inputs": [
        {
          "indexed": true,
          "internalType": "bytes32",
          "name": "marketId",
          "type": "bytes32"
        }
      ],
      "name": "MarketResolved",
      "type": "event"
    },
    {
      "anonymous": false,
      "inputs": [
        {
          "indexed": true,
          "internalType": "bytes32",
          "name": "marketId",
          "type": "bytes32"
        },
        {
          "indexed": true,
          "internalType": "address",
          "name": "account",
          "type": "address"
        },
        {
          "indexed": false,
          "internalType": "uint256",
          "name": "tokensCreated",
          "type": "uint256"
        }
      ],
      "name": "TokensCreated",
      "type": "event"
    },
    {
      "anonymous": false,
      "inputs": [
        {
          "indexed": true,
          "internalType": "bytes32",
          "name": "marketId",
          "type": "bytes32"
        },
        {
          "indexed": true,
          "internalType": "address",
          "name": "account",
          "type": "address"
        },
        {
          "indexed": false,
          "internalType": "uint256",
          "name": "tokensRedeemed",
          "type": "uint256"
        }
      ],
      "name": "TokensRedeemed",
      "type": "event"
    },
    {
      "anonymous": false,
      "inputs": [
        {
          "indexed": true,
          "internalType": "bytes32",
          "name": "marketId",
          "type": "bytes32"
        },
        {
          "indexed": true,
          "internalType": "address",
          "name": "account",
          "type": "address"
        },
        {
          "indexed": false,
          "internalType": "uint256",
          "name": "payout",
          "type": "uint256"
        },
        {
          "indexed": false,
          "internalType": "uint256",
          "name": "outcome1Tokens",
          "type": "uint256"
        },
        {
          "indexed": false,
          "internalType": "uint256",
          "name": "outcome2Tokens",
          "type": "uint256"
        }
      ],
      "name": "TokensSettled",
      "type": "event"
    },
    {
      "inputs": [
        {
          "internalType": "bytes32",
          "name": "marketId",
          "type": "bytes32"
        },
        {
          "internalType": "string",
          "name": "assertedOutcome",
          "type": "string"
        }
      ],
      "name": "assertMarket",
      "outputs": [
        {
          "internalType": "bytes32",
          "name": "assertionId",
          "type": "bytes32"
        }
      ],
      "stateMutability": "nonpayable",
      "type": "function"
    },
    {
      "inputs": [
        {
          "internalType": "bytes32",
          "name": "",
          "type": "bytes32"
        }
      ],
      "name": "assertedMarkets",
      "outputs": [
        {
          "internalType": "address",
          "name": "asserter",
          "type": "address"
        },
        {
          "internalType": "bytes32",
          "name": "marketId",
          "type": "bytes32"
        }
      ],
      "stateMutability": "view",
      "type": "function"
    },
    {
      "inputs": [
        {
          "internalType": "bytes32",
          "name": "assertionId",
          "type": "bytes32"
        }
      ],
      "name": "assertionDisputedCallback",
      "outputs": [],
      "stateMutability": "nonpayable",
      "type": "function"
    },
    {
      "inputs": [],
      "name": "assertionLiveness",
      "outputs": [
        {
          "internalType": "uint64",
          "name": "",
          "type": "uint64"
        }
      ],
      "stateMutability": "view",
      "type": "function"
    },
    {
      "inputs": [
        {
          "internalType": "bytes32",
          "name": "assertionId",
          "type": "bytes32"
        },
        {
          "internalType": "bool",
          "name": "assertedTruthfully",
          "type": "bool"
        }
      ],
      "name": "assertionResolvedCallback",
      "outputs": [],
      "stateMutability": "nonpayable",
      "type": "function"
    },
    {
      "inputs": [
        {
          "internalType": "bytes32",
          "name": "marketId",
          "type": "bytes32"
        },
        {
          "internalType": "uint256",
          "name": "tokensToCreate",
          "type": "uint256"
        }
      ],
      "name": "createOutcomeTokens",
      "outputs": [],
      "stateMutability": "nonpayable",
      "type": "function"
    },
    {
      "inputs": [],
      "name": "currency",
      "outputs": [
        {
          "internalType": "contract IERC20",
          "name": "",
          "type": "address"
        }
      ],
      "stateMutability": "view",
      "type": "function"
    },
    {
      "inputs": [],
      "name": "defaultIdentifier",
      "outputs": [
        {
          "internalType": "bytes32",
          "name": "",
          "type": "bytes32"
        }
      ],
      "stateMutability": "view",
      "type": "function"
    },
    {
      "inputs": [],
      "name": "finder",
      "outputs": [
        {
          "internalType": "contract FinderInterface",
          "name": "",
          "type": "address"
        }
      ],
      "stateMutability": "view",
      "type": "function"
    },
    {
      "inputs": [
        {
          "internalType": "bytes32",
          "name": "marketId",
          "type": "bytes32"
        }
      ],
      "name": "getMarket",
      "outputs": [
        {
          "components": [
            {
              "internalType": "bool",
              "name": "resolved",
              "type": "bool"
            },
            {
              "internalType": "bytes32",
              "name": "assertedOutcomeId",
              "type": "bytes32"
            },
            {
              "internalType": "contract ExpandedIERC20",
              "name": "outcome1Token",
              "type": "address"
            },
            {
              "internalType": "contract ExpandedIERC20",
              "name": "outcome2Token",
              "type": "address"
            },
            {
              "internalType": "uint256",
              "name": "reward",
              "type": "uint256"
            },
            {
              "internalType": "uint256",
              "name": "requiredBond",
              "type": "uint256"
            },
            {
              "internalType": "bytes",
              "name": "outcome1",
              "type": "bytes"
            },
            {
              "internalType": "bytes",
              "name": "outcome2",
              "type": "bytes"
            },
            {
              "internalType": "bytes",
              "name": "description",
              "type": "bytes"
            }
          ],
          "internalType": "struct PredictionMarket.Market",
          "name": "",
          "type": "tuple"
        }
      ],
      "stateMutability": "view",
      "type": "function"
    },
    {
      "inputs": [
        {
          "internalType": "string",
          "name": "outcome1",
          "type": "string"
        },
        {
          "internalType": "string",
          "name": "outcome2",
          "type": "string"
        },
        {
          "internalType": "string",
          "name": "description",
          "type": "string"
        },
        {
          "internalType": "uint256",
          "name": "reward",
          "type": "uint256"
        },
        {
          "internalType": "uint256",
          "name": "requiredBond",
          "type": "uint256"
        }
      ],
      "name": "initializeMarket",
      "outputs": [
        {
          "internalType": "bytes32",
          "name": "marketId",
          "type": "bytes32"
        }
      ],
      "stateMutability": "nonpayable",
      "type": "function"
    },
    {
      "inputs": [
        {
          "internalType": "bytes32",
          "name": "",
          "type": "bytes32"
        }
      ],
      "name": "markets",
      "outputs": [
        {
          "internalType": "bool",
          "name": "resolved",
          "type": "bool"
        },
        {
          "internalType": "bytes32",
          "name": "assertedOutcomeId",
          "type": "bytes32"
        },
        {
          "internalType": "contract ExpandedIERC20",
          "name": "outcome1Token",
          "type": "address"
        },
        {
          "internalType": "contract ExpandedIERC20",
          "name": "outcome2Token",
          "type": "address"
        },
        {
          "internalType": "uint256",
          "name": "reward",
          "type": "uint256"
        },
        {
          "internalType": "uint256",
          "name": "requiredBond",
          "type": "uint256"
        },
        {
          "internalType": "bytes",
          "name": "outcome1",
          "type": "bytes"
        },
        {
          "internalType": "bytes",
          "name": "outcome2",
          "type": "bytes"
        },
        {
          "internalType": "bytes",
          "name": "description",
          "type": "bytes"
        }
      ],
      "stateMutability": "view",
      "type": "function"
    },
    {
      "inputs": [],
      "name": "oo",
      "outputs": [
        {
          "internalType": "contract OptimisticOracleV3Interface",
          "name": "",
          "type": "address"
        }
      ],
      "stateMutability": "view",
      "type": "function"
    },
    {
      "inputs": [
        {
          "internalType": "bytes32",
          "name": "marketId",
          "type": "bytes32"
        },
        {
          "internalType": "uint256",
          "name": "tokensToRedeem",
          "type": "uint256"
        }
      ],
      "name": "redeemOutcomeTokens",
      "outputs": [],
      "stateMutability": "nonpayable",
      "type": "function"
    },
    {
      "inputs": [
        {
          "internalType": "bytes32",
          "name": "marketId",
          "type": "bytes32"
        }
      ],
      "name": "settleOutcomeTokens",
      "outputs": [
        {
          "internalType": "uint256",
          "name": "payout",
          "type": "uint256"
        }
      ],
      "stateMutability": "nonpayable",
      "type": "function"
    },
    {
      "inputs": [],
      "name": "unresolvable",
      "outputs": [
        {
          "internalType": "bytes",
          "name": "",
          "type": "bytes"
        }
      ],
      "stateMutability": "view",
      "type": "function"
    }
  ],
  "bytecode": "0x6101006040523480156200001257600080fd5b5060405162008a1438038062008a1483398181016040528101906200003891906200033a565b8273ffffffffffffffffffffffffffffffffffffffff1660808173ffffffffffffffffffffffffffffffffffffffff16815250506200007c6200022860201b60201c565b73ffffffffffffffffffffffffffffffffffffffff16633a3ab672836040518263ffffffff1660e01b8152600401620000b69190620003a7565b602060405180830381865afa158015620000d4573d6000803e3d6000fd5b505050506040513d601f19601f82011682018060405250810190620000fa919062000401565b6200013c576040517f08c379a0000000000000000000000000000000000000000000000000000000008152600401620001339062000494565b60405180910390fd5b8173ffffffffffffffffffffffffffffffffffffffff1660a08173ffffffffffffffffffffffffffffffffffffffff16815250508073ffffffffffffffffffffffffffffffffffffffff1660c08173ffffffffffffffffffffffffffffffffffffffff168152505060c05173ffffffffffffffffffffffffffffffffffffffff1663d509b0176040518163ffffffff1660e01b8152600401602060405180830381865afa158015620001f2573d6000803e3d6000fd5b505050506040513d601f19601f82011682018060405250810190620002189190620004f1565b60e0818152505050505062000583565b600060805173ffffffffffffffffffffffffffffffffffffffff1663aafd5e407f436f6c6c61746572616c57686974656c697374000000000000000000000000006040518263ffffffff1660e01b815260040162000287919062000534565b602060405180830381865afa158015620002a5573d6000803e3d6000fd5b505050506040513d601f19601f82011682018060405250810190620002cb919062000551565b905090565b600080fd5b600073ffffffffffffffffffffffffffffffffffffffff82169050919050565b60006200030282620002d5565b9050919050565b6200031481620002f5565b81146200032057600080fd5b50565b600081519050620003348162000309565b92915050565b600080600060608486031215620003565762000355620002d0565b5b6000620003668682870162000323565b9350506020620003798682870162000323565b92505060406200038c8682870162000323565b9150509250925092565b620003a181620002f5565b82525050565b6000602082019050620003be600083018462000396565b92915050565b60008115159050919050565b620003db81620003c4565b8114620003e757600080fd5b50565b600081519050620003fb81620003d0565b92915050565b6000602082840312156200041a5762000419620002d0565b5b60006200042a84828501620003ea565b91505092915050565b600082825260208201905092915050565b7f556e737570706f727465642063757272656e6379000000000000000000000000600082015250565b60006200047c60148362000433565b9150620004898262000444565b602082019050919050565b60006020820190508181036000830152620004af816200046d565b9050919050565b6000819050919050565b620004cb81620004b6565b8114620004d757600080fd5b50565b600081519050620004eb81620004c0565b92915050565b6000602082840312156200050a5762000509620002d0565b5b60006200051a84828501620004da565b91505092915050565b6200052e81620004b6565b82525050565b60006020820190506200054b600083018462000523565b92915050565b6000602082840312156200056a5762000569620002d0565b5b60006200057a8482850162000323565b91505092915050565b60805160a05160c05160e0516183f56200061f60003960008181611ee501526123cf0152600081816105cc015281816107a1015281816111fd01528181611f2d015261236901526000818161060801528181610755015281816107c301528181610f18015281816114230152818161157301528181611aee01528181611f090152818161205c01526123ad01526000611b9801526183f56000f3fe60806040523480156200001157600080fd5b5060043610620001185760003560e01c8063b75d4e2411620000a5578063d448a4ec116200006f578063d448a4ec1462000332578063d509b0171462000352578063e5a6b10f1462000374578063f1b156b214620003965762000118565b8063b75d4e241462000281578063b9a3c84c14620002a3578063c3c95c7b14620002c5578063d410764514620002fb5762000118565b80638921a61411620000e75780638921a61414620001e95780639d2edf46146200020b5780639d5bacfd146200022b578063acd98e29146200024b5762000118565b80630880c65a146200011d578063565429a8146200013f5780635cb1cc0b14620001755780637564912b14620001ab575b600080fd5b62000127620003b6565b60405162000136919062002a44565b60405180910390f35b6200015d600480360381019062000157919062002c08565b620003ef565b6040516200016c919062002c7f565b60405180910390f35b6200019360048036038101906200018d919062002cd7565b620008ee565b604051620001a2919062002c7f565b60405180910390f35b620001c96004803603810190620001c3919062002dbc565b62000fb0565b604051620001e09998979695949392919062002ea7565b60405180910390f35b620001f3620011fb565b60405162000202919062002f80565b60405180910390f35b62000229600480360381019062000223919062002f9d565b6200121f565b005b62000249600480360381019062000243919062002f9d565b620014be565b005b62000269600480360381019062000263919062002dbc565b6200175f565b60405162000278919062002fe4565b60405180910390f35b6200028b62001b90565b6040516200029a919062003026565b60405180910390f35b620002ad62001b96565b604051620002bc919062003068565b60405180910390f35b620002e36004803603810190620002dd919062002dbc565b62001bba565b604051620002f2919062003200565b60405180910390f35b62000319600480360381019062000313919062002dbc565b62001e9c565b6040516200032992919062003249565b60405180910390f35b6200035060048036038101906200034a919062002dbc565b62001ee0565b005b6200035c62001ee3565b6040516200036b919062002c7f565b60405180910390f35b6200037e62001f07565b6040516200038d91906200329b565b60405180910390f35b620003b46004803603810190620003ae9190620032e9565b62001f2b565b005b6040518060400160405280600c81526020017f556e7265736f6c7661626c65000000000000000000000000000000000000000081525081565b6000806000808581526020019081526020016000209050600073ffffffffffffffffffffffffffffffffffffffff168160020160009054906101000a900473ffffffffffffffffffffffffffffffffffffffff1673ffffffffffffffffffffffffffffffffffffffff16036200049c576040517f08c379a0000000000000000000000000000000000000000000000000000000008152600401620004939062003391565b60405180910390fd5b6000838051906020012090506000801b826001015414620004f4576040517f08c379a0000000000000000000000000000000000000000000000000000000008152600401620004eb9062003403565b60405180910390fd5b8160060160405162000507919062003538565b6040518091039020811480620005365750816007016040516200052b919062003538565b604051809103902081145b806200057d57506040518060400160405280600c81526020017f556e7265736f6c7661626c6500000000000000000000000000000000000000008152508051906020012081145b620005bf576040517f08c379a0000000000000000000000000000000000000000000000000000000008152600401620005b690620035a1565b60405180910390fd5b80826001018190555060007f000000000000000000000000000000000000000000000000000000000000000073ffffffffffffffffffffffffffffffffffffffff16634360af3d7f00000000000000000000000000000000000000000000000000000000000000006040518263ffffffff1660e01b8152600401620006459190620035c3565b602060405180830381865afa15801562000663573d6000803e3d6000fd5b505050506040513d601f19601f82011682018060405250810190620006899190620035f7565b9050600081846005015411620006a05781620006a6565b83600501545b905060006200074a87866008018054620006c09062003454565b80601f0160208091040260200160405190810160405280929190818152602001828054620006ee9062003454565b80156200073f5780601f1062000713576101008083540402835291602001916200073f565b820191906000526020600020905b8154815290600101906020018083116200072157829003601f168201915b505050505062002142565b90506200079b3330847f000000000000000000000000000000000000000000000000000000000000000073ffffffffffffffffffffffffffffffffffffffff166200217c909392919063ffffffff16565b620008087f0000000000000000000000000000000000000000000000000000000000000000837f000000000000000000000000000000000000000000000000000000000000000073ffffffffffffffffffffffffffffffffffffffff16620022099092919063ffffffff16565b62000814818362002365565b955060405180604001604052803373ffffffffffffffffffffffffffffffffffffffff168152602001898152506001600088815260200190815260200160002060008201518160000160006101000a81548173ffffffffffffffffffffffffffffffffffffffff021916908373ffffffffffffffffffffffffffffffffffffffff1602179055506020820151816001015590505085887fc55c01025649b2056980da18d75125fed301d8a2f7cf93d2151fab07bfe2a49289604051620008db919062003675565b60405180910390a3505050505092915050565b60008086511162000936576040517f08c379a00000000000000000000000000000000000000000000000000000000081526004016200092d90620036e9565b60405180910390fd5b60008551116200097d576040517f08c379a000000000000000000000000000000000000000000000000000000000815260040162000974906200375b565b60405180910390fd5b8480519060200120868051906020012003620009d0576040517f08c379a0000000000000000000000000000000000000000000000000000000008152600401620009c790620037cd565b60405180910390fd5b600084511162000a17576040517f08c379a000000000000000000000000000000000000000000000000000000000815260040162000a0e906200383f565b60405180910390fd5b438460405160200162000a2c92919062003861565b604051602081830303815290604052805190602001209050600073ffffffffffffffffffffffffffffffffffffffff1660008083815260200190815260200160002060020160009054906101000a900473ffffffffffffffffffffffffffffffffffffffff1673ffffffffffffffffffffffffffffffffffffffff161462000aeb576040517f08c379a000000000000000000000000000000000000000000000000000000000815260040162000ae290620038e5565b60405180910390fd5b60008660405160200162000b00919062003999565b604051602081830303815290604052601260405162000b1f906200291f565b62000b2c92919062003a5f565b604051809103906000f08015801562000b49573d6000803e3d6000fd5b50905060008660405160200162000b61919062003999565b604051602081830303815290604052601260405162000b80906200291f565b62000b8d92919062003af8565b604051809103906000f08015801562000baa573d6000803e3d6000fd5b5090508173ffffffffffffffffffffffffffffffffffffffff1663983b2d56306040518263ffffffff1660e01b815260040162000be89190620035c3565b600060405180830381600087803b15801562000c0357600080fd5b505af115801562000c18573d6000803e3d6000fd5b505050508073ffffffffffffffffffffffffffffffffffffffff1663983b2d56306040518263ffffffff1660e01b815260040162000c579190620035c3565b600060405180830381600087803b15801562000c7257600080fd5b505af115801562000c87573d6000803e3d6000fd5b505050508173ffffffffffffffffffffffffffffffffffffffff1663f44637ba306040518263ffffffff1660e01b815260040162000cc69190620035c3565b600060405180830381600087803b15801562000ce157600080fd5b505af115801562000cf6573d6000803e3d6000fd5b505050508073ffffffffffffffffffffffffffffffffffffffff1663f44637ba306040518263ffffffff1660e01b815260040162000d359190620035c3565b600060405180830381600087803b15801562000d5057600080fd5b505af115801562000d65573d6000803e3d6000fd5b505050506040518061012001604052806000151581526020016000801b81526020018373ffffffffffffffffffffffffffffffffffffffff1681526020018273ffffffffffffffffffffffffffffffffffffffff1681526020018681526020018581526020018981526020018881526020018781525060008085815260200190815260200160002060008201518160000160006101000a81548160ff0219169083151502179055506020820151816001015560408201518160020160006101000a81548173ffffffffffffffffffffffffffffffffffffffff021916908373ffffffffffffffffffffffffffffffffffffffff16021790555060608201518160030160006101000a81548173ffffffffffffffffffffffffffffffffffffffff021916908373ffffffffffffffffffffffffffffffffffffffff1602179055506080820151816004015560a0820151816005015560c082015181600601908162000ed0919062003cf4565b5060e082015181600701908162000ee8919062003cf4565b5061010082015181600801908162000f01919062003cf4565b50905050600085111562000f5f5762000f5e3330877f000000000000000000000000000000000000000000000000000000000000000073ffffffffffffffffffffffffffffffffffffffff166200217c909392919063ffffffff16565b5b827f7669fe199a3ccd4081193361fbf7ef7b3e82937c8b39c4ec55af2235be28307189898986868b8b60405162000f9d979695949392919062003ddb565b60405180910390a2505095945050505050565b60006020528060005260406000206000915090508060000160009054906101000a900460ff16908060010154908060020160009054906101000a900473ffffffffffffffffffffffffffffffffffffffff16908060030160009054906101000a900473ffffffffffffffffffffffffffffffffffffffff1690806004015490806005015490806006018054620010469062003454565b80601f0160208091040260200160405190810160405280929190818152602001828054620010749062003454565b8015620010c55780601f106200109957610100808354040283529160200191620010c5565b820191906000526020600020905b815481529060010190602001808311620010a757829003601f168201915b505050505090806007018054620010dc9062003454565b80601f01602080910402602001604051908101604052809291908181526020018280546200110a9062003454565b80156200115b5780601f106200112f576101008083540402835291602001916200115b565b820191906000526020600020905b8154815290600101906020018083116200113d57829003601f168201915b505050505090806008018054620011729062003454565b80601f0160208091040260200160405190810160405280929190818152602001828054620011a09062003454565b8015620011f15780601f10620011c557610100808354040283529160200191620011f1565b820191906000526020600020905b815481529060010190602001808311620011d357829003601f168201915b5050505050905089565b7f000000000000000000000000000000000000000000000000000000000000000081565b60008060008481526020019081526020016000209050600073ffffffffffffffffffffffffffffffffffffffff168160020160009054906101000a900473ffffffffffffffffffffffffffffffffffffffff1673ffffffffffffffffffffffffffffffffffffffff1603620012cb576040517f08c379a0000000000000000000000000000000000000000000000000000000008152600401620012c29062003391565b60405180910390fd5b8060020160009054906101000a900473ffffffffffffffffffffffffffffffffffffffff1673ffffffffffffffffffffffffffffffffffffffff166379cc679033846040518363ffffffff1660e01b81526004016200132c92919062003e6d565b6020604051808303816000875af11580156200134c573d6000803e3d6000fd5b505050506040513d601f19601f8201168201806040525081019062001372919062003eb1565b508060030160009054906101000a900473ffffffffffffffffffffffffffffffffffffffff1673ffffffffffffffffffffffffffffffffffffffff166379cc679033846040518363ffffffff1660e01b8152600401620013d492919062003e6d565b6020604051808303816000875af1158015620013f4573d6000803e3d6000fd5b505050506040513d601f19601f820116820180604052508101906200141a919062003eb1565b506200146833837f000000000000000000000000000000000000000000000000000000000000000073ffffffffffffffffffffffffffffffffffffffff16620024669092919063ffffffff16565b3373ffffffffffffffffffffffffffffffffffffffff16837f48bc562be531fa6322b3cb3a9333ca19d2e3c63c1793fcb5ce885d02d6e0226e84604051620014b1919062002fe4565b60405180910390a3505050565b60008060008481526020019081526020016000209050600073ffffffffffffffffffffffffffffffffffffffff168160020160009054906101000a900473ffffffffffffffffffffffffffffffffffffffff1673ffffffffffffffffffffffffffffffffffffffff16036200156a576040517f08c379a0000000000000000000000000000000000000000000000000000000008152600401620015619062003391565b60405180910390fd5b620015b93330847f000000000000000000000000000000000000000000000000000000000000000073ffffffffffffffffffffffffffffffffffffffff166200217c909392919063ffffffff16565b8060020160009054906101000a900473ffffffffffffffffffffffffffffffffffffffff1673ffffffffffffffffffffffffffffffffffffffff166340c10f1933846040518363ffffffff1660e01b81526004016200161a92919062003e6d565b6020604051808303816000875af11580156200163a573d6000803e3d6000fd5b505050506040513d601f19601f8201168201806040525081019062001660919062003eb1565b508060030160009054906101000a900473ffffffffffffffffffffffffffffffffffffffff1673ffffffffffffffffffffffffffffffffffffffff166340c10f1933846040518363ffffffff1660e01b8152600401620016c292919062003e6d565b6020604051808303816000875af1158015620016e2573d6000803e3d6000fd5b505050506040513d601f19601f8201168201806040525081019062001708919062003eb1565b503373ffffffffffffffffffffffffffffffffffffffff16837fa1a00dd4222724941c9d085479758183928d765e55583d239c414b0f09c5da4b8460405162001752919062002fe4565b60405180910390a3505050565b60008060008084815260200190815260200160002090508060000160009054906101000a900460ff16620017ca576040517f08c379a0000000000000000000000000000000000000000000000000000000008152600401620017c19062003f33565b60405180910390fd5b60008160020160009054906101000a900473ffffffffffffffffffffffffffffffffffffffff1673ffffffffffffffffffffffffffffffffffffffff166370a08231336040518263ffffffff1660e01b81526004016200182b9190620035c3565b602060405180830381865afa15801562001849573d6000803e3d6000fd5b505050506040513d601f19601f820116820180604052508101906200186f9190620035f7565b905060008260030160009054906101000a900473ffffffffffffffffffffffffffffffffffffffff1673ffffffffffffffffffffffffffffffffffffffff166370a08231336040518263ffffffff1660e01b8152600401620018d29190620035c3565b602060405180830381865afa158015620018f0573d6000803e3d6000fd5b505050506040513d601f19601f82011682018060405250810190620019169190620035f7565b9050826006016040516200192b919062003538565b6040518091039020836001015403620019475781935062001996565b826007016040516200195a919062003538565b6040518091039020836001015403620019765780935062001995565b6002818362001986919062003f84565b62001992919062003fee565b93505b5b8260020160009054906101000a900473ffffffffffffffffffffffffffffffffffffffff1673ffffffffffffffffffffffffffffffffffffffff166379cc679033846040518363ffffffff1660e01b8152600401620019f792919062003e6d565b6020604051808303816000875af115801562001a17573d6000803e3d6000fd5b505050506040513d601f19601f8201168201806040525081019062001a3d919062003eb1565b508260030160009054906101000a900473ffffffffffffffffffffffffffffffffffffffff1673ffffffffffffffffffffffffffffffffffffffff166379cc679033836040518363ffffffff1660e01b815260040162001a9f92919062003e6d565b6020604051808303816000875af115801562001abf573d6000803e3d6000fd5b505050506040513d601f19601f8201168201806040525081019062001ae5919062003eb1565b5062001b3333857f000000000000000000000000000000000000000000000000000000000000000073ffffffffffffffffffffffffffffffffffffffff16620024669092919063ffffffff16565b3373ffffffffffffffffffffffffffffffffffffffff16857f25ffdbe909949aba86fccc6c8a3f5d94d7ab78bc67a3cc1327908845235874eb86858560405162001b809392919062004026565b60405180910390a3505050919050565b611c2081565b7f000000000000000000000000000000000000000000000000000000000000000081565b62001bc46200292d565b600080838152602001908152602001600020604051806101200160405290816000820160009054906101000a900460ff16151515158152602001600182015481526020016002820160009054906101000a900473ffffffffffffffffffffffffffffffffffffffff1673ffffffffffffffffffffffffffffffffffffffff1673ffffffffffffffffffffffffffffffffffffffff1681526020016003820160009054906101000a900473ffffffffffffffffffffffffffffffffffffffff1673ffffffffffffffffffffffffffffffffffffffff1673ffffffffffffffffffffffffffffffffffffffff168152602001600482015481526020016005820154815260200160068201805462001cd99062003454565b80601f016020809104026020016040519081016040528092919081815260200182805462001d079062003454565b801562001d585780601f1062001d2c5761010080835404028352916020019162001d58565b820191906000526020600020905b81548152906001019060200180831162001d3a57829003601f168201915b5050505050815260200160078201805462001d739062003454565b80601f016020809104026020016040519081016040528092919081815260200182805462001da19062003454565b801562001df25780601f1062001dc65761010080835404028352916020019162001df2565b820191906000526020600020905b81548152906001019060200180831162001dd457829003601f168201915b5050505050815260200160088201805462001e0d9062003454565b80601f016020809104026020016040519081016040528092919081815260200182805462001e3b9062003454565b801562001e8c5780601f1062001e605761010080835404028352916020019162001e8c565b820191906000526020600020905b81548152906001019060200180831162001e6e57829003601f168201915b5050505050815250509050919050565b60016020528060005260406000206000915090508060000160009054906101000a900473ffffffffffffffffffffffffffffffffffffffff16908060010154905082565b50565b7f000000000000000000000000000000000000000000000000000000000000000081565b7f000000000000000000000000000000000000000000000000000000000000000081565b7f000000000000000000000000000000000000000000000000000000000000000073ffffffffffffffffffffffffffffffffffffffff163373ffffffffffffffffffffffffffffffffffffffff161462001fbc576040517f08c379a000000000000000000000000000000000000000000000000000000000815260040162001fb390620040b3565b60405180910390fd5b60008060006001600086815260200190815260200160002060010154815260200190815260200160002090508115620020eb5760018160000160006101000a81548160ff021916908315150217905550600081600401541115620020a257620020a16001600085815260200190815260200160002060000160009054906101000a900473ffffffffffffffffffffffffffffffffffffffff1682600401547f000000000000000000000000000000000000000000000000000000000000000073ffffffffffffffffffffffffffffffffffffffff16620024669092919063ffffffff16565b5b60016000848152602001908152602001600020600101547fe9146184308c5e4b8f243047cc6f81dce88e004d7980502e123b02f887ab514460405160405180910390a2620020f8565b6000801b81600101819055505b60016000848152602001908152602001600020600080820160006101000a81549073ffffffffffffffffffffffffffffffffffffffff021916905560018201600090555050505050565b60606200214f42620024f0565b8383604051602001620021659392919062004222565b604051602081830303815290604052905092915050565b62002203846323b872dd60e01b858585604051602401620021a09392919062004280565b604051602081830303815290604052907bffffffffffffffffffffffffffffffffffffffffffffffffffffffff19166020820180517bffffffffffffffffffffffffffffffffffffffffffffffffffffffff838183161783525050505062002695565b50505050565b600081148062002299575060008373ffffffffffffffffffffffffffffffffffffffff1663dd62ed3e30856040518363ffffffff1660e01b815260040162002253929190620042bd565b602060405180830381865afa15801562002271573d6000803e3d6000fd5b505050506040513d601f19601f82011682018060405250810190620022979190620035f7565b145b620022db576040517f08c379a0000000000000000000000000000000000000000000000000000000008152600401620022d29062004360565b60405180910390fd5b620023608363095ea7b360e01b8484604051602401620022fd92919062003e6d565b604051602081830303815290604052907bffffffffffffffffffffffffffffffffffffffffffffffffffffffff19166020820180517bffffffffffffffffffffffffffffffffffffffffffffffffffffffff838183161783525050505062002695565b505050565b60007f000000000000000000000000000000000000000000000000000000000000000073ffffffffffffffffffffffffffffffffffffffff16636457c9798433306000611c207f0000000000000000000000000000000000000000000000000000000000000000897f00000000000000000000000000000000000000000000000000000000000000006000801b6040518a63ffffffff1660e01b8152600401620024189998979695949392919062004382565b6020604051808303816000875af115801562002438573d6000803e3d6000fd5b505050506040513d601f19601f820116820180604052508101906200245e91906200443f565b905092915050565b620024eb8363a9059cbb60e01b84846040516024016200248892919062003e6d565b604051602081830303815290604052907bffffffffffffffffffffffffffffffffffffffffffffffffffffffff19166020820180517bffffffffffffffffffffffffffffffffffffffffffffffffffffffff838183161783525050505062002695565b505050565b60606000820362002539576040518060400160405280600181526020017f3000000000000000000000000000000000000000000000000000000000000000815250905062002690565b600082905060005b6000821462002571578080620025579062004471565b915050600a8262002569919062003fee565b915062002541565b60008167ffffffffffffffff81111562002590576200258f62002ac1565b5b6040519080825280601f01601f191660200182016040528015620025c35781602001600182028036833780820191505090505b50905060008290505b600086146200268857600181620025e49190620044be565b90506000600a8088620025f8919062003fee565b620026049190620044f9565b87620026119190620044be565b60306200261f91906200455a565b905060008160f81b90508084848151811062002640576200263f62004596565b5b60200101907effffffffffffffffffffffffffffffffffffffffffffffffffffffffffffff1916908160001a905350600a886200267e919062003fee565b97505050620025cc565b819450505050505b919050565b6000620026f9826040518060400160405280602081526020017f5361666545524332303a206c6f772d6c6576656c2063616c6c206661696c65648152508573ffffffffffffffffffffffffffffffffffffffff16620027649092919063ffffffff16565b90506000815111156200275f57808060200190518101906200271c919062003eb1565b6200275e576040517f08c379a000000000000000000000000000000000000000000000000000000000815260040162002755906200463b565b60405180910390fd5b5b505050565b60606200277584846000856200277e565b90509392505050565b606082471015620027c6576040517f08c379a0000000000000000000000000000000000000000000000000000000008152600401620027bd90620046d3565b60405180910390fd5b620027d185620028a0565b62002813576040517f08c379a00000000000000000000000000000000000000000000000000000000081526004016200280a9062004745565b60405180910390fd5b6000808673ffffffffffffffffffffffffffffffffffffffff1685876040516200283e919062004767565b60006040518083038185875af1925050503d80600081146200287d576040519150601f19603f3d011682016040523d82523d6000602084013e62002882565b606091505b509150915062002894828286620028b3565b92505050949350505050565b600080823b905060008111915050919050565b60608315620028c55782905062002918565b600083511115620028d95782518084602001fd5b816040517f08c379a00000000000000000000000000000000000000000000000000000000081526004016200290f919062003675565b60405180910390fd5b9392505050565b613c3f806200478183390190565b60405180610120016040528060001515815260200160008019168152602001600073ffffffffffffffffffffffffffffffffffffffff168152602001600073ffffffffffffffffffffffffffffffffffffffff16815260200160008152602001600081526020016060815260200160608152602001606081525090565b600081519050919050565b600082825260208201905092915050565b60005b83811015620029e6578082015181840152602081019050620029c9565b60008484015250505050565b6000601f19601f8301169050919050565b600062002a1082620029aa565b62002a1c8185620029b5565b935062002a2e818560208601620029c6565b62002a3981620029f2565b840191505092915050565b6000602082019050818103600083015262002a60818462002a03565b905092915050565b6000604051905090565b600080fd5b600080fd5b6000819050919050565b62002a918162002a7c565b811462002a9d57600080fd5b50565b60008135905062002ab18162002a86565b92915050565b600080fd5b600080fd5b7f4e487b7100000000000000000000000000000000000000000000000000000000600052604160045260246000fd5b62002afb82620029f2565b810181811067ffffffffffffffff8211171562002b1d5762002b1c62002ac1565b5b80604052505050565b600062002b3262002a68565b905062002b40828262002af0565b919050565b600067ffffffffffffffff82111562002b635762002b6262002ac1565b5b62002b6e82620029f2565b9050602081019050919050565b82818337600083830152505050565b600062002ba162002b9b8462002b45565b62002b26565b90508281526020810184848401111562002bc05762002bbf62002abc565b5b62002bcd84828562002b7b565b509392505050565b600082601f83011262002bed5762002bec62002ab7565b5b813562002bff84826020860162002b8a565b91505092915050565b6000806040838503121562002c225762002c2162002a72565b5b600062002c328582860162002aa0565b925050602083013567ffffffffffffffff81111562002c565762002c5562002a77565b5b62002c648582860162002bd5565b9150509250929050565b62002c798162002a7c565b82525050565b600060208201905062002c96600083018462002c6e565b92915050565b6000819050919050565b62002cb18162002c9c565b811462002cbd57600080fd5b50565b60008135905062002cd18162002ca6565b92915050565b600080600080600060a0868803121562002cf65762002cf562002a72565b5b600086013567ffffffffffffffff81111562002d175762002d1662002a77565b5b62002d258882890162002bd5565b955050602086013567ffffffffffffffff81111562002d495762002d4862002a77565b5b62002d578882890162002bd5565b945050604086013567ffffffffffffffff81111562002d7b5762002d7a62002a77565b5b62002d898882890162002bd5565b935050606062002d9c8882890162002cc0565b925050608062002daf8882890162002cc0565b9150509295509295909350565b60006020828403121562002dd55762002dd462002a72565b5b600062002de58482850162002aa0565b91505092915050565b60008115159050919050565b62002e058162002dee565b82525050565b600073ffffffffffffffffffffffffffffffffffffffff82169050919050565b6000819050919050565b600062002e5662002e5062002e4a8462002e0b565b62002e2b565b62002e0b565b9050919050565b600062002e6a8262002e35565b9050919050565b600062002e7e8262002e5d565b9050919050565b62002e908162002e71565b82525050565b62002ea18162002c9c565b82525050565b60006101208201905062002ebf600083018c62002dfa565b62002ece602083018b62002c6e565b62002edd604083018a62002e85565b62002eec606083018962002e85565b62002efb608083018862002e96565b62002f0a60a083018762002e96565b81810360c083015262002f1e818662002a03565b905081810360e083015262002f34818562002a03565b905081810361010083015262002f4b818462002a03565b90509a9950505050505050505050565b600062002f688262002e5d565b9050919050565b62002f7a8162002f5b565b82525050565b600060208201905062002f97600083018462002f6f565b92915050565b6000806040838503121562002fb75762002fb662002a72565b5b600062002fc78582860162002aa0565b925050602062002fda8582860162002cc0565b9150509250929050565b600060208201905062002ffb600083018462002e96565b92915050565b600067ffffffffffffffff82169050919050565b620030208162003001565b82525050565b60006020820190506200303d600083018462003015565b92915050565b6000620030508262002e5d565b9050919050565b620030628162003043565b82525050565b60006020820190506200307f600083018462003057565b92915050565b620030908162002dee565b82525050565b620030a18162002a7c565b82525050565b620030b28162002e71565b82525050565b620030c38162002c9c565b82525050565b600082825260208201905092915050565b6000620030e782620029aa565b620030f38185620030c9565b935062003105818560208601620029c6565b6200311081620029f2565b840191505092915050565b60006101208301600083015162003136600086018262003085565b5060208301516200314b602086018262003096565b506040830151620031606040860182620030a7565b506060830151620031756060860182620030a7565b5060808301516200318a6080860182620030b8565b5060a08301516200319f60a0860182620030b8565b5060c083015184820360c0860152620031b98282620030da565b91505060e083015184820360e0860152620031d58282620030da565b915050610100830151848203610100860152620031f38282620030da565b9150508091505092915050565b600060208201905081810360008301526200321c81846200311b565b905092915050565b6000620032318262002e0b565b9050919050565b620032438162003224565b82525050565b600060408201905062003260600083018562003238565b6200326f602083018462002c6e565b9392505050565b6000620032838262002e5d565b9050919050565b620032958162003276565b82525050565b6000602082019050620032b260008301846200328a565b92915050565b620032c38162002dee565b8114620032cf57600080fd5b50565b600081359050620032e381620032b8565b92915050565b6000806040838503121562003303576200330262002a72565b5b6000620033138582860162002aa0565b92505060206200332685828601620032d2565b9150509250929050565b600082825260208201905092915050565b7f4d61726b657420646f6573206e6f742065786973740000000000000000000000600082015250565b60006200337960158362003330565b9150620033868262003341565b602082019050919050565b60006020820190508181036000830152620033ac816200336a565b9050919050565b7f417373657274696f6e20616374697665206f72207265736f6c76656400000000600082015250565b6000620033eb601c8362003330565b9150620033f882620033b3565b602082019050919050565b600060208201905081810360008301526200341e81620033dc565b9050919050565b7f4e487b7100000000000000000000000000000000000000000000000000000000600052602260045260246000fd5b600060028204905060018216806200346d57607f821691505b60208210810362003483576200348262003425565b5b50919050565b600081905092915050565b60008190508160005260206000209050919050565b60008154620034b88162003454565b620034c4818662003489565b94506001821660008114620034e25760018114620034f8576200352f565b60ff19831686528115158202860193506200352f565b620035038562003494565b60005b83811015620035275781548189015260018201915060208101905062003506565b838801955050505b50505092915050565b6000620035468284620034a9565b915081905092915050565b7f496e76616c6964206173736572746564206f7574636f6d650000000000000000600082015250565b60006200358960188362003330565b9150620035968262003551565b602082019050919050565b60006020820190508181036000830152620035bc816200357a565b9050919050565b6000602082019050620035da600083018462003238565b92915050565b600081519050620035f18162002ca6565b92915050565b60006020828403121562003610576200360f62002a72565b5b60006200362084828501620035e0565b91505092915050565b600081519050919050565b6000620036418262003629565b6200364d818562003330565b93506200365f818560208601620029c6565b6200366a81620029f2565b840191505092915050565b6000602082019050818103600083015262003691818462003634565b905092915050565b7f456d707479206669727374206f7574636f6d6500000000000000000000000000600082015250565b6000620036d160138362003330565b9150620036de8262003699565b602082019050919050565b600060208201905081810360008301526200370481620036c2565b9050919050565b7f456d707479207365636f6e64206f7574636f6d65000000000000000000000000600082015250565b60006200374360148362003330565b915062003750826200370b565b602082019050919050565b60006020820190508181036000830152620037768162003734565b9050919050565b7f4f7574636f6d657320617265207468652073616d650000000000000000000000600082015250565b6000620037b560158362003330565b9150620037c2826200377d565b602082019050919050565b60006020820190508181036000830152620037e881620037a6565b9050919050565b7f456d707479206465736372697074696f6e000000000000000000000000000000600082015250565b60006200382760118362003330565b91506200383482620037ef565b602082019050919050565b600060208201905081810360008301526200385a8162003818565b9050919050565b600060408201905062003878600083018562002e96565b81810360208301526200388c818462003634565b90509392505050565b7f4d61726b657420616c7265616479206578697374730000000000000000000000600082015250565b6000620038cd60158362003330565b9150620038da8262003895565b602082019050919050565b600060208201905081810360008301526200390081620038be565b9050919050565b600081905092915050565b60006200391f8262003629565b6200392b818562003907565b93506200393d818560208601620029c6565b80840191505092915050565b7f20546f6b656e0000000000000000000000000000000000000000000000000000600082015250565b60006200398160068362003907565b91506200398e8262003949565b600682019050919050565b6000620039a7828462003912565b9150620039b48262003972565b915081905092915050565b7f4f31540000000000000000000000000000000000000000000000000000000000600082015250565b6000620039f760038362003330565b915062003a0482620039bf565b602082019050919050565b6000819050919050565b600060ff82169050919050565b600062003a4762003a4162003a3b8462003a0f565b62002e2b565b62003a19565b9050919050565b62003a598162003a26565b82525050565b6000606082019050818103600083015262003a7b818562003634565b9050818103602083015262003a9081620039e8565b905062003aa1604083018462003a4e565b9392505050565b7f4f32540000000000000000000000000000000000000000000000000000000000600082015250565b600062003ae060038362003330565b915062003aed8262003aa8565b602082019050919050565b6000606082019050818103600083015262003b14818562003634565b9050818103602083015262003b298162003ad1565b905062003b3a604083018462003a4e565b9392505050565b60006020601f8301049050919050565b600082821b905092915050565b60006008830262003b907fffffffffffffffffffffffffffffffffffffffffffffffffffffffffffffffff8262003b51565b62003b9c868362003b51565b95508019841693508086168417925050509392505050565b600062003bd562003bcf62003bc98462002c9c565b62002e2b565b62002c9c565b9050919050565b6000819050919050565b62003bf18362003bb4565b62003c0962003c008262003bdc565b84845462003b5e565b825550505050565b600090565b62003c2062003c11565b62003c2d81848462003be6565b505050565b5b8181101562003c555762003c4960008262003c16565b60018101905062003c33565b5050565b601f82111562003ca45762003c6e8162003494565b62003c798462003b41565b8101602085101562003c89578190505b62003ca162003c988562003b41565b83018262003c32565b50505b505050565b600082821c905092915050565b600062003cc96000198460080262003ca9565b1980831691505092915050565b600062003ce4838362003cb6565b9150826002028217905092915050565b62003cff82620029aa565b67ffffffffffffffff81111562003d1b5762003d1a62002ac1565b5b62003d27825462003454565b62003d3482828562003c59565b600060209050601f83116001811462003d6c576000841562003d57578287015190505b62003d63858262003cd6565b86555062003dd3565b601f19841662003d7c8662003494565b60005b8281101562003da65784890151825560018201915060208501945060208101905062003d7f565b8683101562003dc6578489015162003dc2601f89168262003cb6565b8355505b6001600288020188555050505b505050505050565b600060e082019050818103600083015262003df7818a62003634565b9050818103602083015262003e0d818962003634565b9050818103604083015262003e23818862003634565b905062003e34606083018762003238565b62003e43608083018662003238565b62003e5260a083018562002e96565b62003e6160c083018462002e96565b98975050505050505050565b600060408201905062003e84600083018562003238565b62003e93602083018462002e96565b9392505050565b60008151905062003eab81620032b8565b92915050565b60006020828403121562003eca5762003ec962002a72565b5b600062003eda8482850162003e9a565b91505092915050565b7f4d61726b6574206e6f74207265736f6c76656400000000000000000000000000600082015250565b600062003f1b60138362003330565b915062003f288262003ee3565b602082019050919050565b6000602082019050818103600083015262003f4e8162003f0c565b9050919050565b7f4e487b7100000000000000000000000000000000000000000000000000000000600052601160045260246000fd5b600062003f918262002c9c565b915062003f9e8362002c9c565b925082820190508082111562003fb95762003fb862003f55565b5b92915050565b7f4e487b7100000000000000000000000000000000000000000000000000000000600052601260045260246000fd5b600062003ffb8262002c9c565b9150620040088362002c9c565b9250826200401b576200401a62003fbf565b5b828204905092915050565b60006060820190506200403d600083018662002e96565b6200404c602083018562002e96565b6200405b604083018462002e96565b949350505050565b7f4e6f7420617574686f72697a6564000000000000000000000000000000000000600082015250565b60006200409b600e8362003330565b9150620040a88262004063565b602082019050919050565b60006020820190508181036000830152620040ce816200408c565b9050919050565b7f4173206f6620617373657274696f6e2074696d657374616d7020000000000000600082015250565b60006200410d601a8362003907565b91506200411a82620040d5565b601a82019050919050565b60006200413282620029aa565b6200413e818562003489565b935062004150818560208601620029c6565b80840191505092915050565b7f2c20746865206465736372696265642070726564696374696f6e206d61726b6560008201527f74206f7574636f6d652069733a20000000000000000000000000000000000000602082015250565b6000620041ba602e8362003907565b9150620041c7826200415c565b602e82019050919050565b7f2e20546865206d61726b6574206465736372697074696f6e2069733a20000000600082015250565b60006200420a601d8362003907565b91506200421782620041d2565b601d82019050919050565b60006200422f82620040fe565b91506200423d828662004125565b91506200424a82620041ab565b915062004258828562003912565b91506200426582620041fb565b915062004273828462004125565b9150819050949350505050565b600060608201905062004297600083018662003238565b620042a6602083018562003238565b620042b5604083018462002e96565b949350505050565b6000604082019050620042d4600083018562003238565b620042e3602083018462003238565b9392505050565b7f5361666545524332303a20617070726f76652066726f6d206e6f6e2d7a65726f60008201527f20746f206e6f6e2d7a65726f20616c6c6f77616e636500000000000000000000602082015250565b60006200434860368362003330565b91506200435582620042ea565b604082019050919050565b600060208201905081810360008301526200437b8162004339565b9050919050565b60006101208201905081810360008301526200439f818c62002a03565b9050620043b0602083018b62003238565b620043bf604083018a62003238565b620043ce606083018962003238565b620043dd608083018862003015565b620043ec60a08301876200328a565b620043fb60c083018662002e96565b6200440a60e083018562002c6e565b6200441a61010083018462002c6e565b9a9950505050505050505050565b600081519050620044398162002a86565b92915050565b60006020828403121562004458576200445762002a72565b5b6000620044688482850162004428565b91505092915050565b60006200447e8262002c9c565b91507fffffffffffffffffffffffffffffffffffffffffffffffffffffffffffffffff8203620044b357620044b262003f55565b5b600182019050919050565b6000620044cb8262002c9c565b9150620044d88362002c9c565b9250828203905081811115620044f357620044f262003f55565b5b92915050565b6000620045068262002c9c565b9150620045138362002c9c565b9250817fffffffffffffffffffffffffffffffffffffffffffffffffffffffffffffffff04831182151516156200454f576200454e62003f55565b5b828202905092915050565b6000620045678262003a19565b9150620045748362003a19565b9250828201905060ff81111562004590576200458f62003f55565b5b92915050565b7f4e487b7100000000000000000000000000000000000000000000000000000000600052603260045260246000fd5b7f5361666545524332303a204552433230206f7065726174696f6e20646964206e60008201527f6f74207375636365656400000000000000000000000000000000000000000000602082015250565b600062004623602a8362003330565b91506200463082620045c5565b604082019050919050565b60006020820190508181036000830152620046568162004614565b9050919050565b7f416464726573733a20696e73756666696369656e742062616c616e636520666f60008201527f722063616c6c0000000000000000000000000000000000000000000000000000602082015250565b6000620046bb60268362003330565b9150620046c8826200465d565b604082019050919050565b60006020820190508181036000830152620046ee81620046ac565b9050919050565b7f416464726573733a2063616c6c20746f206e6f6e2d636f6e7472616374000000600082015250565b60006200472d601d8362003330565b91506200473a82620046f5565b602082019050919050565b6000602082019050818103600083015262004760816200471e565b9050919050565b600062004775828462004125565b91508190509291505056fe60806040523480156200001157600080fd5b5060405162003c3f38038062003c3f8339818101604052810190620000379190620008d6565b828281600390816200004a919062000bbb565b5080600490816200005c919062000bbb565b50505080600660006101000a81548160ff021916908360ff160217905550620000b96000600281111562000095576200009462000ca2565b5b60006002811115620000ac57620000ab62000ca2565b5b33620001d960201b60201c565b6200014560016002811115620000d457620000d362000ca2565b5b60006002811115620000eb57620000ea62000ca2565b5b600067ffffffffffffffff81111562000109576200010862000734565b5b604051908082528060200260200182016040528015620001385781602001602082028036833780820191505090505b506200037460201b60201c565b620001d06002808111156200015f576200015e62000ca2565b5b6000600281111562000176576200017562000ca2565b5b600067ffffffffffffffff81111562000194576200019362000734565b5b604051908082528060200260200182016040528015620001c35781602001602082028036833780820191505090505b506200037460201b60201c565b50505062001039565b8260006002811115620001f157620001f062000ca2565b5b6005600083815260200190815260200160002060010160009054906101000a900460ff1660028111156200022a576200022962000ca2565b5b146200026d576040517f08c379a0000000000000000000000000000000000000000000000000000000008152600401620002649062000d32565b60405180910390fd5b600060056000868152602001908152602001600020905060018160010160006101000a81548160ff02191690836002811115620002af57620002ae62000ca2565b5b0217905550838160000181905550620002da83826002016200050f60201b620012c01790919060201c565b60006002811115620002f157620002f062000ca2565b5b6005600086815260200190815260200160002060010160009054906101000a900460ff1660028111156200032a576200032962000ca2565b5b036200036d576040517f08c379a0000000000000000000000000000000000000000000000000000000008152600401620003649062000dca565b60405180910390fd5b5050505050565b82600060028111156200038c576200038b62000ca2565b5b6005600083815260200190815260200160002060010160009054906101000a900460ff166002811115620003c557620003c462000ca2565b5b1462000408576040517f08c379a0000000000000000000000000000000000000000000000000000000008152600401620003ff9062000d32565b60405180910390fd5b600060056000868152602001908152602001600020905060028160010160006101000a81548160ff021916908360028111156200044a576200044962000ca2565b5b02179055508381600001819055506200047583826003016200052560201b620012ce1790919060201c565b600060028111156200048c576200048b62000ca2565b5b6005600086815260200190815260200160002060010160009054906101000a900460ff166002811115620004c557620004c462000ca2565b5b0362000508576040517f08c379a0000000000000000000000000000000000000000000000000000000008152600401620004ff9062000e62565b60405180910390fd5b5050505050565b6200052182826200057c60201b60201c565b5050565b60005b8151811015620005775762000561838383815181106200054d576200054c62000e84565b5b60200260200101516200063560201b60201c565b80806200056e9062000ee2565b91505062000528565b505050565b600073ffffffffffffffffffffffffffffffffffffffff168173ffffffffffffffffffffffffffffffffffffffff1603620005ee576040517f08c379a0000000000000000000000000000000000000000000000000000000008152600401620005e59062000fa5565b60405180910390fd5b808260000160006101000a81548173ffffffffffffffffffffffffffffffffffffffff021916908373ffffffffffffffffffffffffffffffffffffffff1602179055505050565b600073ffffffffffffffffffffffffffffffffffffffff168173ffffffffffffffffffffffffffffffffffffffff1603620006a7576040517f08c379a00000000000000000000000000000000000000000000000000000000081526004016200069e9062001017565b60405180910390fd5b60018260000160008373ffffffffffffffffffffffffffffffffffffffff1673ffffffffffffffffffffffffffffffffffffffff16815260200190815260200160002060006101000a81548160ff0219169083151502179055505050565b6000604051905090565b600080fd5b600080fd5b600080fd5b600080fd5b6000601f19601f8301169050919050565b7f4e487b7100000000000000000000000000000000000000000000000000000000600052604160045260246000fd5b6200076e8262000723565b810181811067ffffffffffffffff8211171562000790576200078f62000734565b5b80604052505050565b6000620007a562000705565b9050620007b3828262000763565b919050565b600067ffffffffffffffff821115620007d657620007d562000734565b5b620007e18262000723565b9050602081019050919050565b60005b838110156200080e578082015181840152602081019050620007f1565b60008484015250505050565b6000620008316200082b84620007b8565b62000799565b90508281526020810184848401111562000850576200084f6200071e565b5b6200085d848285620007ee565b509392505050565b600082601f8301126200087d576200087c62000719565b5b81516200088f8482602086016200081a565b91505092915050565b600060ff82169050919050565b620008b08162000898565b8114620008bc57600080fd5b50565b600081519050620008d081620008a5565b92915050565b600080600060608486031215620008f257620008f16200070f565b5b600084015167ffffffffffffffff81111562000913576200091262000714565b5b620009218682870162000865565b935050602084015167ffffffffffffffff81111562000945576200094462000714565b5b620009538682870162000865565b92505060406200096686828701620008bf565b9150509250925092565b600081519050919050565b7f4e487b7100000000000000000000000000000000000000000000000000000000600052602260045260246000fd5b60006002820490506001821680620009c357607f821691505b602082108103620009d957620009d86200097b565b5b50919050565b60008190508160005260206000209050919050565b60006020601f8301049050919050565b600082821b905092915050565b60006008830262000a437fffffffffffffffffffffffffffffffffffffffffffffffffffffffffffffffff8262000a04565b62000a4f868362000a04565b95508019841693508086168417925050509392505050565b6000819050919050565b6000819050919050565b600062000a9c62000a9662000a908462000a67565b62000a71565b62000a67565b9050919050565b6000819050919050565b62000ab88362000a7b565b62000ad062000ac78262000aa3565b84845462000a11565b825550505050565b600090565b62000ae762000ad8565b62000af481848462000aad565b505050565b5b8181101562000b1c5762000b1060008262000add565b60018101905062000afa565b5050565b601f82111562000b6b5762000b3581620009df565b62000b4084620009f4565b8101602085101562000b50578190505b62000b6862000b5f85620009f4565b83018262000af9565b50505b505050565b600082821c905092915050565b600062000b906000198460080262000b70565b1980831691505092915050565b600062000bab838362000b7d565b9150826002028217905092915050565b62000bc68262000970565b67ffffffffffffffff81111562000be25762000be162000734565b5b62000bee8254620009aa565b62000bfb82828562000b20565b600060209050601f83116001811462000c33576000841562000c1e578287015190505b62000c2a858262000b9d565b86555062000c9a565b601f19841662000c4386620009df565b60005b8281101562000c6d5784890151825560018201915060208501945060208101905062000c46565b8683101562000c8d578489015162000c89601f89168262000b7d565b8355505b6001600288020188555050505b505050505050565b7f4e487b7100000000000000000000000000000000000000000000000000000000600052602160045260246000fd5b600082825260208201905092915050565b7f43616e6e6f74207573652061207072652d6578697374696e6720726f6c650000600082015250565b600062000d1a601e8362000cd1565b915062000d278262000ce2565b602082019050919050565b6000602082019050818103600083015262000d4d8162000d0b565b9050919050565b7f417474656d7074656420746f2075736520616e20696e76616c696420726f6c6560008201527f20746f206d616e61676520616e206578636c757369766520726f6c6500000000602082015250565b600062000db2603c8362000cd1565b915062000dbf8262000d54565b604082019050919050565b6000602082019050818103600083015262000de58162000da3565b9050919050565b7f417474656d7074656420746f2075736520616e20696e76616c696420726f6c6560008201527f20746f206d616e61676520612073686172656420726f6c650000000000000000602082015250565b600062000e4a60388362000cd1565b915062000e578262000dec565b604082019050919050565b6000602082019050818103600083015262000e7d8162000e3b565b9050919050565b7f4e487b7100000000000000000000000000000000000000000000000000000000600052603260045260246000fd5b7f4e487b7100000000000000000000000000000000000000000000000000000000600052601160045260246000fd5b600062000eef8262000a67565b91507fffffffffffffffffffffffffffffffffffffffffffffffffffffffffffffffff820362000f245762000f2362000eb3565b5b600182019050919050565b7f43616e6e6f742073657420616e206578636c757369766520726f6c6520746f2060008201527f3078300000000000000000000000000000000000000000000000000000000000602082015250565b600062000f8d60238362000cd1565b915062000f9a8262000f2f565b604082019050919050565b6000602082019050818103600083015262000fc08162000f7e565b9050919050565b7f43616e6e6f74206164642030783020746f20612073686172656420726f6c6500600082015250565b600062000fff601f8362000cd1565b91506200100c8262000fc7565b602082019050919050565b60006020820190508181036000830152620010328162000ff0565b9050919050565b612bf680620010496000396000f3fe608060405234801561001057600080fd5b506004361061014d5760003560e01c806374d0a676116100c3578063a9059cbb1161007c578063a9059cbb146103d6578063aaa14ca314610406578063ab3545e514610422578063d97c05be14610452578063dd62ed3e1461046e578063f44637ba1461049e5761014d565b806374d0a676146102f057806379cc67901461030c5780637cdc1cb91461033c57806395d89b411461036c578063983b2d561461038a578063a457c2d7146103a65761014d565b80633950935111610115578063395093511461020c57806340c10f191461023c57806342966c681461026c5780636be7658b1461028857806370a08231146102a457806373cc802a146102d45761014d565b806306fdde0314610152578063095ea7b31461017057806318160ddd146101a057806323b872dd146101be578063313ce567146101ee575b600080fd5b61015a6104ba565b6040516101679190611dfa565b60405180910390f35b61018a60048036038101906101859190611eb5565b61054c565b6040516101979190611f10565b60405180910390f35b6101a861056a565b6040516101b59190611f3a565b60405180910390f35b6101d860048036038101906101d39190611f55565b610574565b6040516101e59190611f10565b60405180910390f35b6101f661066c565b6040516102039190611fc4565b60405180910390f35b61022660048036038101906102219190611eb5565b610683565b6040516102339190611f10565b60405180910390f35b61025660048036038101906102519190611eb5565b61072f565b6040516102639190611f10565b60405180910390f35b61028660048036038101906102819190611fdf565b6107a3565b005b6102a2600480360381019061029d919061200c565b61080d565b005b6102be60048036038101906102b9919061204c565b610980565b6040516102cb9190611f3a565b60405180910390f35b6102ee60048036038101906102e9919061204c565b6109c8565b005b61030a6004803603810190610305919061200c565b6109e8565b005b61032660048036038101906103219190611eb5565b610b5b565b6040516103339190611f10565b60405180910390f35b6103566004803603810190610351919061200c565b610bce565b6040516103639190611f10565b60405180910390f35b610374610cdc565b6040516103819190611dfa565b60405180910390f35b6103a4600480360381019061039f919061204c565b610d6e565b005b6103c060048036038101906103bb9190611eb5565b610d8e565b6040516103cd9190611f10565b60405180910390f35b6103f060048036038101906103eb9190611eb5565b610e79565b6040516103fd9190611f10565b60405180910390f35b610420600480360381019061041b9190611fdf565b610e97565b005b61043c60048036038101906104379190611fdf565b610ff3565b6040516104499190612088565b60405180910390f35b61046c6004803603810190610467919061200c565b6110a6565b005b610488600480360381019061048391906120a3565b61121a565b6040516104959190611f3a565b60405180910390f35b6104b860048036038101906104b3919061204c565b6112a1565b005b6060600380546104c990612112565b80601f01602080910402602001604051908101604052809291908181526020018280546104f590612112565b80156105425780601f1061051757610100808354040283529160200191610542565b820191906000526020600020905b81548152906001019060200180831161052557829003601f168201915b5050505050905090565b6000610560610559611316565b848461131e565b6001905092915050565b6000600254905090565b60006105818484846114e7565b6000600160008673ffffffffffffffffffffffffffffffffffffffff1673ffffffffffffffffffffffffffffffffffffffff16815260200190815260200160002060006105cc611316565b73ffffffffffffffffffffffffffffffffffffffff1673ffffffffffffffffffffffffffffffffffffffff1681526020019081526020016000205490508281101561064c576040517f08c379a0000000000000000000000000000000000000000000000000000000008152600401610643906121b5565b60405180910390fd5b61066085610658611316565b85840361131e565b60019150509392505050565b6000600660009054906101000a900460ff16905090565b6000610725610690611316565b84846001600061069e611316565b73ffffffffffffffffffffffffffffffffffffffff1673ffffffffffffffffffffffffffffffffffffffff16815260200190815260200160002060008873ffffffffffffffffffffffffffffffffffffffff1673ffffffffffffffffffffffffffffffffffffffff168152602001908152602001600020546107209190612204565b61131e565b6001905092915050565b60006001600281111561074557610744612238565b5b61074f8133610bce565b61078e576040517f08c379a0000000000000000000000000000000000000000000000000000000008152600401610785906122d9565b60405180910390fd5b6107988484611766565b600191505092915050565b6002808111156107b6576107b5612238565b5b6107c08133610bce565b6107ff576040517f08c379a00000000000000000000000000000000000000000000000000000000081526004016107f6906122d9565b60405180910390fd5b61080933836118c5565b5050565b8160028081111561082157610820612238565b5b6005600083815260200190815260200160002060010160009054906101000a900460ff16600281111561085757610856612238565b5b14610897576040517f08c379a000000000000000000000000000000000000000000000000000000000815260040161088e9061236b565b60405180910390fd5b826108b8600560008381526020019081526020016000206000015433610bce565b6108f7576040517f08c379a00000000000000000000000000000000000000000000000000000000081526004016108ee906123fd565b60405180910390fd5b61091f8360056000878152602001908152602001600020600301611a9b90919063ffffffff16565b3373ffffffffffffffffffffffffffffffffffffffff168373ffffffffffffffffffffffffffffffffffffffff16857feb3e33034c392e69263b04ec0fa376dc12784a41b6676c7f31b936cbc0fbb5af60405160405180910390a450505050565b60008060008373ffffffffffffffffffffffffffffffffffffffff1673ffffffffffffffffffffffffffffffffffffffff168152602001908152602001600020549050919050565b6109e5600060028111156109df576109de612238565b5b826110a6565b50565b816002808111156109fc576109fb612238565b5b6005600083815260200190815260200160002060010160009054906101000a900460ff166002811115610a3257610a31612238565b5b14610a72576040517f08c379a0000000000000000000000000000000000000000000000000000000008152600401610a699061236b565b60405180910390fd5b82610a93600560008381526020019081526020016000206000015433610bce565b610ad2576040517f08c379a0000000000000000000000000000000000000000000000000000000008152600401610ac9906123fd565b60405180910390fd5b610afa8360056000878152602001908152602001600020600301611af990919063ffffffff16565b3373ffffffffffffffffffffffffffffffffffffffff168373ffffffffffffffffffffffffffffffffffffffff16857f63502af7324ff6db91ab38f8236a648727d9385ea6c782073dd4882d8a61a48f60405160405180910390a450505050565b6000600280811115610b7057610b6f612238565b5b610b7a8133610bce565b610bb9576040517f08c379a0000000000000000000000000000000000000000000000000000000008152600401610bb0906122d9565b60405180910390fd5b610bc384846118c5565b600191505092915050565b60008060056000858152602001908152602001600020905060016002811115610bfa57610bf9612238565b5b8160010160009054906101000a900460ff166002811115610c1e57610c1d612238565b5b03610c4157610c398382600201611bc690919063ffffffff16565b915050610cd6565b600280811115610c5457610c53612238565b5b8160010160009054906101000a900460ff166002811115610c7857610c77612238565b5b03610c9b57610c938382600301611c2390919063ffffffff16565b915050610cd6565b6040517f08c379a0000000000000000000000000000000000000000000000000000000008152600401610ccd90612469565b60405180910390fd5b92915050565b606060048054610ceb90612112565b80601f0160208091040260200160405190810160405280929190818152602001828054610d1790612112565b8015610d645780601f10610d3957610100808354040283529160200191610d64565b820191906000526020600020905b815481529060010190602001808311610d4757829003601f168201915b5050505050905090565b610d8b60016002811115610d8557610d84612238565b5b826109e8565b50565b60008060016000610d9d611316565b73ffffffffffffffffffffffffffffffffffffffff1673ffffffffffffffffffffffffffffffffffffffff16815260200190815260200160002060008573ffffffffffffffffffffffffffffffffffffffff1673ffffffffffffffffffffffffffffffffffffffff16815260200190815260200160002054905082811015610e5a576040517f08c379a0000000000000000000000000000000000000000000000000000000008152600401610e51906124fb565b60405180910390fd5b610e6e610e65611316565b8585840361131e565b600191505092915050565b6000610e8d610e86611316565b84846114e7565b6001905092915050565b80600280811115610eab57610eaa612238565b5b6005600083815260200190815260200160002060010160009054906101000a900460ff166002811115610ee157610ee0612238565b5b14610f21576040517f08c379a0000000000000000000000000000000000000000000000000000000008152600401610f189061236b565b60405180910390fd5b81610f2c8133610bce565b610f6b576040517f08c379a0000000000000000000000000000000000000000000000000000000008152600401610f62906122d9565b60405180910390fd5b610f933360056000868152602001908152602001600020600301611a9b90919063ffffffff16565b3373ffffffffffffffffffffffffffffffffffffffff163373ffffffffffffffffffffffffffffffffffffffff16847feb3e33034c392e69263b04ec0fa376dc12784a41b6676c7f31b936cbc0fbb5af60405160405180910390a4505050565b6000816001600281111561100a57611009612238565b5b6005600083815260200190815260200160002060010160009054906101000a900460ff1660028111156110405761103f612238565b5b14611080576040517f08c379a00000000000000000000000000000000000000000000000000000000081526004016110779061258d565b60405180910390fd5b61109e60056000858152602001908152602001600020600201611c7c565b915050919050565b81600160028111156110bb576110ba612238565b5b6005600083815260200190815260200160002060010160009054906101000a900460ff1660028111156110f1576110f0612238565b5b14611131576040517f08c379a00000000000000000000000000000000000000000000000000000000081526004016111289061258d565b60405180910390fd5b82611152600560008381526020019081526020016000206000015433610bce565b611191576040517f08c379a0000000000000000000000000000000000000000000000000000000008152600401611188906123fd565b60405180910390fd5b6111b98360056000878152602001908152602001600020600201611caa90919063ffffffff16565b3373ffffffffffffffffffffffffffffffffffffffff168373ffffffffffffffffffffffffffffffffffffffff16857f3b855c56b409b671c7112789d022675eb639d0bcb8896f1b6197c132f799e74660405160405180910390a450505050565b6000600160008473ffffffffffffffffffffffffffffffffffffffff1673ffffffffffffffffffffffffffffffffffffffff16815260200190815260200160002060008373ffffffffffffffffffffffffffffffffffffffff1673ffffffffffffffffffffffffffffffffffffffff16815260200190815260200160002054905092915050565b6112bd6002808111156112b7576112b6612238565b5b826109e8565b50565b6112ca8282611caa565b5050565b60005b8151811015611311576112fe838383815181106112f1576112f06125ad565b5b6020026020010151611af9565b8080611309906125dc565b9150506112d1565b505050565b600033905090565b600073ffffffffffffffffffffffffffffffffffffffff168373ffffffffffffffffffffffffffffffffffffffff160361138d576040517f08c379a000000000000000000000000000000000000000000000000000000000815260040161138490612696565b60405180910390fd5b600073ffffffffffffffffffffffffffffffffffffffff168273ffffffffffffffffffffffffffffffffffffffff16036113fc576040517f08c379a00000000000000000000000000000000000000000000000000000000081526004016113f390612728565b60405180910390fd5b80600160008573ffffffffffffffffffffffffffffffffffffffff1673ffffffffffffffffffffffffffffffffffffffff16815260200190815260200160002060008473ffffffffffffffffffffffffffffffffffffffff1673ffffffffffffffffffffffffffffffffffffffff168152602001908152602001600020819055508173ffffffffffffffffffffffffffffffffffffffff168373ffffffffffffffffffffffffffffffffffffffff167f8c5be1e5ebec7d5bd14f71427d1e84f3dd0314c0f7b2291e5b200ac8c7c3b925836040516114da9190611f3a565b60405180910390a3505050565b600073ffffffffffffffffffffffffffffffffffffffff168373ffffffffffffffffffffffffffffffffffffffff1603611556576040517f08c379a000000000000000000000000000000000000000000000000000000000815260040161154d906127ba565b60405180910390fd5b600073ffffffffffffffffffffffffffffffffffffffff168273ffffffffffffffffffffffffffffffffffffffff16036115c5576040517f08c379a00000000000000000000000000000000000000000000000000000000081526004016115bc9061284c565b60405180910390fd5b6115d0838383611d60565b60008060008573ffffffffffffffffffffffffffffffffffffffff1673ffffffffffffffffffffffffffffffffffffffff16815260200190815260200160002054905081811015611656576040517f08c379a000000000000000000000000000000000000000000000000000000000815260040161164d906128de565b60405180910390fd5b8181036000808673ffffffffffffffffffffffffffffffffffffffff1673ffffffffffffffffffffffffffffffffffffffff16815260200190815260200160002081905550816000808573ffffffffffffffffffffffffffffffffffffffff1673ffffffffffffffffffffffffffffffffffffffff16815260200190815260200160002060008282546116e99190612204565b925050819055508273ffffffffffffffffffffffffffffffffffffffff168473ffffffffffffffffffffffffffffffffffffffff167fddf252ad1be2c89b69c2b068fc378daa952ba7f163c4a11628f55a4df523b3ef8460405161174d9190611f3a565b60405180910390a3611760848484611d65565b50505050565b600073ffffffffffffffffffffffffffffffffffffffff168273ffffffffffffffffffffffffffffffffffffffff16036117d5576040517f08c379a00000000000000000000000000000000000000000000000000000000081526004016117cc9061294a565b60405180910390fd5b6117e160008383611d60565b80600260008282546117f39190612204565b92505081905550806000808473ffffffffffffffffffffffffffffffffffffffff1673ffffffffffffffffffffffffffffffffffffffff16815260200190815260200160002060008282546118489190612204565b925050819055508173ffffffffffffffffffffffffffffffffffffffff16600073ffffffffffffffffffffffffffffffffffffffff167fddf252ad1be2c89b69c2b068fc378daa952ba7f163c4a11628f55a4df523b3ef836040516118ad9190611f3a565b60405180910390a36118c160008383611d65565b5050565b600073ffffffffffffffffffffffffffffffffffffffff168273ffffffffffffffffffffffffffffffffffffffff1603611934576040517f08c379a000000000000000000000000000000000000000000000000000000000815260040161192b906129dc565b60405180910390fd5b61194082600083611d60565b60008060008473ffffffffffffffffffffffffffffffffffffffff1673ffffffffffffffffffffffffffffffffffffffff168152602001908152602001600020549050818110156119c6576040517f08c379a00000000000000000000000000000000000000000000000000000000081526004016119bd90612a6e565b60405180910390fd5b8181036000808573ffffffffffffffffffffffffffffffffffffffff1673ffffffffffffffffffffffffffffffffffffffff168152602001908152602001600020819055508160026000828254611a1d9190612a8e565b92505081905550600073ffffffffffffffffffffffffffffffffffffffff168373ffffffffffffffffffffffffffffffffffffffff167fddf252ad1be2c89b69c2b068fc378daa952ba7f163c4a11628f55a4df523b3ef84604051611a829190611f3a565b60405180910390a3611a9683600084611d65565b505050565b60008260000160008373ffffffffffffffffffffffffffffffffffffffff1673ffffffffffffffffffffffffffffffffffffffff16815260200190815260200160002060006101000a81548160ff0219169083151502179055505050565b600073ffffffffffffffffffffffffffffffffffffffff168173ffffffffffffffffffffffffffffffffffffffff1603611b68576040517f08c379a0000000000000000000000000000000000000000000000000000000008152600401611b5f90612b0e565b60405180910390fd5b60018260000160008373ffffffffffffffffffffffffffffffffffffffff1673ffffffffffffffffffffffffffffffffffffffff16815260200190815260200160002060006101000a81548160ff0219169083151502179055505050565b60008173ffffffffffffffffffffffffffffffffffffffff168360000160009054906101000a900473ffffffffffffffffffffffffffffffffffffffff1673ffffffffffffffffffffffffffffffffffffffff1614905092915050565b60008260000160008373ffffffffffffffffffffffffffffffffffffffff1673ffffffffffffffffffffffffffffffffffffffff16815260200190815260200160002060009054906101000a900460ff16905092915050565b60008160000160009054906101000a900473ffffffffffffffffffffffffffffffffffffffff169050919050565b600073ffffffffffffffffffffffffffffffffffffffff168173ffffffffffffffffffffffffffffffffffffffff1603611d19576040517f08c379a0000000000000000000000000000000000000000000000000000000008152600401611d1090612ba0565b60405180910390fd5b808260000160006101000a81548173ffffffffffffffffffffffffffffffffffffffff021916908373ffffffffffffffffffffffffffffffffffffffff1602179055505050565b505050565b505050565b600081519050919050565b600082825260208201905092915050565b60005b83811015611da4578082015181840152602081019050611d89565b60008484015250505050565b6000601f19601f8301169050919050565b6000611dcc82611d6a565b611dd68185611d75565b9350611de6818560208601611d86565b611def81611db0565b840191505092915050565b60006020820190508181036000830152611e148184611dc1565b905092915050565b600080fd5b600073ffffffffffffffffffffffffffffffffffffffff82169050919050565b6000611e4c82611e21565b9050919050565b611e5c81611e41565b8114611e6757600080fd5b50565b600081359050611e7981611e53565b92915050565b6000819050919050565b611e9281611e7f565b8114611e9d57600080fd5b50565b600081359050611eaf81611e89565b92915050565b60008060408385031215611ecc57611ecb611e1c565b5b6000611eda85828601611e6a565b9250506020611eeb85828601611ea0565b9150509250929050565b60008115159050919050565b611f0a81611ef5565b82525050565b6000602082019050611f256000830184611f01565b92915050565b611f3481611e7f565b82525050565b6000602082019050611f4f6000830184611f2b565b92915050565b600080600060608486031215611f6e57611f6d611e1c565b5b6000611f7c86828701611e6a565b9350506020611f8d86828701611e6a565b9250506040611f9e86828701611ea0565b9150509250925092565b600060ff82169050919050565b611fbe81611fa8565b82525050565b6000602082019050611fd96000830184611fb5565b92915050565b600060208284031215611ff557611ff4611e1c565b5b600061200384828501611ea0565b91505092915050565b6000806040838503121561202357612022611e1c565b5b600061203185828601611ea0565b925050602061204285828601611e6a565b9150509250929050565b60006020828403121561206257612061611e1c565b5b600061207084828501611e6a565b91505092915050565b61208281611e41565b82525050565b600060208201905061209d6000830184612079565b92915050565b600080604083850312156120ba576120b9611e1c565b5b60006120c885828601611e6a565b92505060206120d985828601611e6a565b9150509250929050565b7f4e487b7100000000000000000000000000000000000000000000000000000000600052602260045260246000fd5b6000600282049050600182168061212a57607f821691505b60208210810361213d5761213c6120e3565b5b50919050565b7f45524332303a207472616e7366657220616d6f756e742065786365656473206160008201527f6c6c6f77616e6365000000000000000000000000000000000000000000000000602082015250565b600061219f602883611d75565b91506121aa82612143565b604082019050919050565b600060208201905081810360008301526121ce81612192565b9050919050565b7f4e487b7100000000000000000000000000000000000000000000000000000000600052601160045260246000fd5b600061220f82611e7f565b915061221a83611e7f565b9250828201905080821115612232576122316121d5565b5b92915050565b7f4e487b7100000000000000000000000000000000000000000000000000000000600052602160045260246000fd5b7f53656e64657220646f6573206e6f7420686f6c6420726571756972656420726f60008201527f6c65000000000000000000000000000000000000000000000000000000000000602082015250565b60006122c3602283611d75565b91506122ce82612267565b604082019050919050565b600060208201905081810360008301526122f2816122b6565b9050919050565b7f4d7573742062652063616c6c6564206f6e20616e20696e697469616c697a656460008201527f2053686172656420726f6c650000000000000000000000000000000000000000602082015250565b6000612355602c83611d75565b9150612360826122f9565b604082019050919050565b6000602082019050818103600083015261238481612348565b9050919050565b7f43616e206f6e6c792062652063616c6c6564206279206120726f6c65206d616e60008201527f6167657200000000000000000000000000000000000000000000000000000000602082015250565b60006123e7602483611d75565b91506123f28261238b565b604082019050919050565b60006020820190508181036000830152612416816123da565b9050919050565b7f496e76616c696420726f6c654964000000000000000000000000000000000000600082015250565b6000612453600e83611d75565b915061245e8261241d565b602082019050919050565b6000602082019050818103600083015261248281612446565b9050919050565b7f45524332303a2064656372656173656420616c6c6f77616e63652062656c6f7760008201527f207a65726f000000000000000000000000000000000000000000000000000000602082015250565b60006124e5602583611d75565b91506124f082612489565b604082019050919050565b60006020820190508181036000830152612514816124d8565b9050919050565b7f4d7573742062652063616c6c6564206f6e20616e20696e697469616c697a656460008201527f204578636c757369766520726f6c650000000000000000000000000000000000602082015250565b6000612577602f83611d75565b91506125828261251b565b604082019050919050565b600060208201905081810360008301526125a68161256a565b9050919050565b7f4e487b7100000000000000000000000000000000000000000000000000000000600052603260045260246000fd5b60006125e782611e7f565b91507fffffffffffffffffffffffffffffffffffffffffffffffffffffffffffffffff8203612619576126186121d5565b5b600182019050919050565b7f45524332303a20617070726f76652066726f6d20746865207a65726f2061646460008201527f7265737300000000000000000000000000000000000000000000000000000000602082015250565b6000612680602483611d75565b915061268b82612624565b604082019050919050565b600060208201905081810360008301526126af81612673565b9050919050565b7f45524332303a20617070726f766520746f20746865207a65726f20616464726560008201527f7373000000000000000000000000000000000000000000000000000000000000602082015250565b6000612712602283611d75565b915061271d826126b6565b604082019050919050565b6000602082019050818103600083015261274181612705565b9050919050565b7f45524332303a207472616e736665722066726f6d20746865207a65726f20616460008201527f6472657373000000000000000000000000000000000000000000000000000000602082015250565b60006127a4602583611d75565b91506127af82612748565b604082019050919050565b600060208201905081810360008301526127d381612797565b9050919050565b7f45524332303a207472616e7366657220746f20746865207a65726f206164647260008201527f6573730000000000000000000000000000000000000000000000000000000000602082015250565b6000612836602383611d75565b9150612841826127da565b604082019050919050565b6000602082019050818103600083015261286581612829565b9050919050565b7f45524332303a207472616e7366657220616d6f756e742065786365656473206260008201527f616c616e63650000000000000000000000000000000000000000000000000000602082015250565b60006128c8602683611d75565b91506128d38261286c565b604082019050919050565b600060208201905081810360008301526128f7816128bb565b9050919050565b7f45524332303a206d696e7420746f20746865207a65726f206164647265737300600082015250565b6000612934601f83611d75565b915061293f826128fe565b602082019050919050565b6000602082019050818103600083015261296381612927565b9050919050565b7f45524332303a206275726e2066726f6d20746865207a65726f2061646472657360008201527f7300000000000000000000000000000000000000000000000000000000000000602082015250565b60006129c6602183611d75565b91506129d18261296a565b604082019050919050565b600060208201905081810360008301526129f5816129b9565b9050919050565b7f45524332303a206275726e20616d6f756e7420657863656564732062616c616e60008201527f6365000000000000000000000000000000000000000000000000000000000000602082015250565b6000612a58602283611d75565b9150612a63826129fc565b604082019050919050565b60006020820190508181036000830152612a8781612a4b565b9050919050565b6000612a9982611e7f565b9150612aa483611e7f565b9250828203905081811115612abc57612abb6121d5565b5b92915050565b7f43616e6e6f74206164642030783020746f20612073686172656420726f6c6500600082015250565b6000612af8601f83611d75565b9150612b0382612ac2565b602082019050919050565b60006020820190508181036000830152612b2781612aeb565b9050919050565b7f43616e6e6f742073657420616e206578636c757369766520726f6c6520746f2060008201527f3078300000000000000000000000000000000000000000000000000000000000602082015250565b6000612b8a602383611d75565b9150612b9582612b2e565b604082019050919050565b60006020820190508181036000830152612bb981612b7d565b905091905056fea2646970667358221220eed7e430c33e1b269fe858dda1314ccb21d642d5e5a37c827663958955b1c3bb64736f6c63430008100033a2646970667358221220059f6273df6c9b2b54c86bbb7bc6e7b90dacf7b51cd07f6c775bd06e50c6c76864736f6c63430008100033",
  "linkReferences": {},
  "deployedLinkReferences": {}
}