{
  "_format": "hh-sol-artifact-1",
  "contractName": "ExpandedERC20",
  "sourceName": "@uma/core/contracts/common/implementation/ExpandedERC20.sol",
  "abi": [
    {
      "inputs": [
        {
          "internalType": "string",
          "name": "_tokenName",
          "type": "string"
        },
        {
          "internalType": "string",
          "name": "_tokenSymbol",
          "type": "string"
        },
        {
          "internalType": "uint8",
          "name": "_tokenDecimals",
          "type": "uint8"
        }
      ],
      "stateMutability": "nonpayable",
      "type": "constructor"
    },
    {
      "anonymous": false,
      "inputs": [
        {
          "indexed": true,
          "internalType": "uint256",
          "name": "roleId",
          "type": "uint256"
        },
        {
          "indexed": true,
          "internalType": "address",
          "name": "newMember",
          "type": "address"
        },
        {
          "indexed": true,
          "internalType": "address",
          "name": "manager",
          "type": "address"
        }
      ],
      "name": "AddedSharedMember",
      "type": "event"
    },
    {
      "anonymous": false,
      "inputs": [
        {
          "indexed": true,
          "internalType": "address",
          "name": "owner",
          "type": "address"
        },
        {
          "indexed": true,
          "internalType": "address",
          "name": "spender",
          "type": "address"
        },
        {
          "indexed": false,
          "internalType": "uint256",
          "name": "value",
          "type": "uint256"
        }
      ],
      "name": "Approval",
      "type": "event"
    },
    {
      "anonymous": false,
      "inputs": [
        {
          "indexed": true,
          "internalType": "uint256",
          "name": "roleId",
          "type": "uint256"
        },
        {
          "indexed": true,
          "internalType": "address",
          "name": "oldMember",
          "type": "address"
        },
        {
          "indexed": true,
          "internalType": "address",
          "name": "manager",
          "type": "address"
        }
      ],
      "name": "RemovedSharedMember",
      "type": "event"
    },
    {
      "anonymous": false,
      "inputs": [
        {
          "indexed": true,
          "internalType": "uint256",
          "name": "roleId",
          "type": "uint256"
        },
        {
          "indexed": true,
          "internalType": "address",
          "name": "newMember",
          "type": "address"
        },
        {
          "indexed": true,
          "internalType": "address",
          "name": "manager",
          "type": "address"
        }
      ],
      "name": "ResetExclusiveMember",
      "type": "event"
    },
    {
      "anonymous": false,
      "inputs": [
        {
          "indexed": true,
          "internalType": "address",
          "name": "from",
          "type": "address"
        },
        {
          "indexed": true,
          "internalType": "address",
          "name": "to",
          "type": "address"
        },
        {
          "indexed": false,
          "internalType": "uint256",
          "name": "value",
          "type": "uint256"
        }
      ],
      "name": "Transfer",
      "type": "event"
    },
    {
      "inputs": [
        {
          "internalType": "address",
          "name": "account",
          "type": "address"
        }
      ],
      "name": "addBurner",
      "outputs": [],
      "stateMutability": "nonpayable",
      "type": "function"
    },
    {
      "inputs": [
        {
          "internalType": "uint256",
          "name": "roleId",
          "type": "uint256"
        },
        {
          "internalType": "address",
          "name": "newMember",
          "type": "address"
        }
      ],
      "name": "addMember",
      "outputs": [],
      "stateMutability": "nonpayable",
      "type": "function"
    },
    {
      "inputs": [
        {
          "internalType": "address",
          "name": "account",
          "type": "address"
        }
      ],
      "name": "addMinter",
      "outputs": [],
      "stateMutability": "nonpayable",
      "type": "function"
    },
    {
      "inputs": [
        {
          "internalType": "address",
          "name": "owner",
          "type": "address"
        },
        {
          "internalType": "address",
          "name": "spender",
          "type": "address"
        }
      ],
      "name": "allowance",
      "outputs": [
        {
          "internalType": "uint256",
          "name": "",
          "type": "uint256"
        }
      ],
      "stateMutability": "view",
      "type": "function"
    },
    {
      "inputs": [
        {
          "internalType": "address",
          "name": "spender",
          "type": "address"
        },
        {
          "internalType": "uint256",
          "name": "amount",
          "type": "uint256"
        }
      ],
      "name": "approve",
      "outputs": [
        {
          "internalType": "bool",
          "name": "",
          "type": "bool"
        }
      ],
      "stateMutability": "nonpayable",
      "type": "function"
    },
    {
      "inputs": [
        {
          "internalType": "address",
          "name": "account",
          "type": "address"
        }
      ],
      "name": "balanceOf",
      "outputs": [
        {
          "internalType": "uint256",
          "name": "",
          "type": "uint256"
        }
      ],
      "stateMutability": "view",
      "type": "function"
    },
    {
      "inputs": [
        {
          "internalType": "uint256",
          "name": "value",
          "type": "uint256"
        }
      ],
      "name": "burn",
      "outputs": [],
      "stateMutability": "nonpayable",
      "type": "function"
    },
    {
      "inputs": [
        {
          "internalType": "address",
          "name": "recipient",
          "type": "address"
        },
        {
          "internalType": "uint256",
          "name": "value",
          "type": "uint256"
        }
      ],
      "name": "burnFrom",
      "outputs": [
        {
          "internalType": "bool",
          "name": "",
          "type": "bool"
        }
      ],
      "stateMutability": "nonpayable",
      "type": "function"
    },
    {
      "inputs": [],
      "name": "decimals",
      "outputs": [
        {
          "internalType": "uint8",
          "name": "",
          "type": "uint8"
        }
      ],
      "stateMutability": "view",
      "type": "function"
    },
    {
      "inputs": [
        {
          "internalType": "address",
          "name": "spender",
          "type": "address"
        },
        {
          "internalType": "uint256",
          "name": "subtractedValue",
          "type": "uint256"
        }
      ],
      "name": "decreaseAllowance",
      "outputs": [
        {
          "internalType": "bool",
          "name": "",
          "type": "bool"
        }
      ],
      "stateMutability": "nonpayable",
      "type": "function"
    },
    {
      "inputs": [
        {
          "internalType": "uint256",
          "name": "roleId",
          "type": "uint256"
        }
      ],
      "name": "getMember",
      "outputs": [
        {
          "internalType": "address",
          "name": "",
          "type": "address"
        }
      ],
      "stateMutability": "view",
      "type": "function"
    },
    {
      "inputs": [
        {
          "internalType": "uint256",
          "name": "roleId",
          "type": "uint256"
        },
        {
          "internalType": "address",
          "name": "memberToCheck",
          "type": "address"
        }
      ],
      "name": "holdsRole",
      "outputs": [
        {
          "internalType": "bool",
          "name": "",
          "type": "bool"
        }
      ],
      "stateMutability": "view",
      "type": "function"
    },
    {
      "inputs": [
        {
          "internalType": "address",
          "name": "spender",
          "type": "address"
        },
        {
          "internalType": "uint256",
          "name": "addedValue",
          "type": "uint256"
        }
      ],
      "name": "increaseAllowance",
      "outputs": [
        {
          "internalType": "bool",
          "name": "",
          "type": "bool"
        }
      ],
      "stateMutability": "nonpayable",
      "type": "function"
    },
    {
      "inputs": [
        {
          "internalType": "address",
          "name": "recipient",
          "type": "address"
        },
        {
          "internalType": "uint256",
          "name": "value",
          "type": "uint256"
        }
      ],
      "name": "mint",
      "outputs": [
        {
          "internalType": "bool",
          "name": "",
          "type": "bool"
        }
      ],
      "stateMutability": "nonpayable",
      "type": "function"
    },
    {
      "inputs": [],
      "name": "name",
      "outputs": [
        {
          "internalType": "string",
          "name": "",
          "type": "string"
        }
      ],
      "stateMutability": "view",
      "type": "function"
    },
    {
      "inputs": [
        {
          "internalType": "uint256",
          "name": "roleId",
          "type": "uint256"
        },
        {
          "internalType": "address",
          "name": "memberToRemove",
          "type": "address"
        }
      ],
      "name": "removeMember",
      "outputs": [],
      "stateMutability": "nonpayable",
      "type": "function"
    },
    {
      "inputs": [
        {
          "internalType": "uint256",
          "name": "roleId",
          "type": "uint256"
        }
      ],
      "name": "renounceMembership",
      "outputs": [],
      "stateMutability": "nonpayable",
      "type": "function"
    },
    {
      "inputs": [
        {
          "internalType": "uint256",
          "name": "roleId",
          "type": "uint256"
        },
        {
          "internalType": "address",
          "name": "newMember",
          "type": "address"
        }
      ],
      "name": "resetMember",
      "outputs": [],
      "stateMutability": "nonpayable",
      "type": "function"
    },
    {
      "inputs": [
        {
          "internalType": "address",
          "name": "account",
          "type": "address"
        }
      ],
      "name": "resetOwner",
      "outputs": [],
      "stateMutability": "nonpayable",
      "type": "function"
    },
    {
      "inputs": [],
      "name": "symbol",
      "outputs": [
        {
          "internalType": "string",
          "name": "",
          "type": "string"
        }
      ],
      "stateMutability": "view",
      "type": "function"
    },
    {
      "inputs": [],
      "name": "totalSupply",
      "outputs": [
        {
          "internalType": "uint256",
          "name": "",
          "type": "uint256"
        }
      ],
      "stateMutability": "view",
      "type": "function"
    },
    {
      "inputs": [
        {
          "internalType": "address",
          "name": "recipient",
          "type": "address"
        },
        {
          "internalType": "uint256",
          "name": "amount",
          "type": "uint256"
        }
      ],
      "name": "transfer",
      "outputs": [
        {
          "internalType": "bool",
          "name": "",
          "type": "bool"
        }
      ],
      "stateMutability": "nonpayable",
      "type": "function"
    },
    {
      "inputs": [
        {
          "internalType": "address",
          "name": "sender",
          "type": "address"
        },
        {
          "internalType": "address",
          "name": "recipient",
          "type": "address"
        },
        {
          "internalType": "uint256",
          "name": "amount",
          "type": "uint256"
        }
      ],
      "name": "transferFrom",
      "outputs": [
        {
          "internalType": "bool",
          "name": "",
          "type": "bool"
        }
      ],
      "stateMutability": "nonpayable",
      "type": "function"
    }
  ],
  "bytecode": "0x60806040523480156200001157600080fd5b5060405162003c3f38038062003c3f8339818101604052810190620000379190620008d6565b828281600390816200004a919062000bbb565b5080600490816200005c919062000bbb565b50505080600660006101000a81548160ff021916908360ff160217905550620000b96000600281111562000095576200009462000ca2565b5b60006002811115620000ac57620000ab62000ca2565b5b33620001d960201b60201c565b6200014560016002811115620000d457620000d362000ca2565b5b60006002811115620000eb57620000ea62000ca2565b5b600067ffffffffffffffff81111562000109576200010862000734565b5b604051908082528060200260200182016040528015620001385781602001602082028036833780820191505090505b506200037460201b60201c565b620001d06002808111156200015f576200015e62000ca2565b5b6000600281111562000176576200017562000ca2565b5b600067ffffffffffffffff81111562000194576200019362000734565b5b604051908082528060200260200182016040528015620001c35781602001602082028036833780820191505090505b506200037460201b60201c565b50505062001039565b8260006002811115620001f157620001f062000ca2565b5b6005600083815260200190815260200160002060010160009054906101000a900460ff1660028111156200022a576200022962000ca2565b5b146200026d576040517f08c379a0000000000000000000000000000000000000000000000000000000008152600401620002649062000d32565b60405180910390fd5b600060056000868152602001908152602001600020905060018160010160006101000a81548160ff02191690836002811115620002af57620002ae62000ca2565b5b0217905550838160000181905550620002da83826002016200050f60201b620012c01790919060201c565b60006002811115620002f157620002f062000ca2565b5b6005600086815260200190815260200160002060010160009054906101000a900460ff1660028111156200032a576200032962000ca2565b5b036200036d576040517f08c379a0000000000000000000000000000000000000000000000000000000008152600401620003649062000dca565b60405180910390fd5b5050505050565b82600060028111156200038c576200038b62000ca2565b5b6005600083815260200190815260200160002060010160009054906101000a900460ff166002811115620003c557620003c462000ca2565b5b1462000408576040517f08c379a0000000000000000000000000000000000000000000000000000000008152600401620003ff9062000d32565b60405180910390fd5b600060056000868152602001908152602001600020905060028160010160006101000a81548160ff021916908360028111156200044a576200044962000ca2565b5b02179055508381600001819055506200047583826003016200052560201b620012ce1790919060201c565b600060028111156200048c576200048b62000ca2565b5b6005600086815260200190815260200160002060010160009054906101000a900460ff166002811115620004c557620004c462000ca2565b5b0362000508576040517f08c379a0000000000000000000000000000000000000000000000000000000008152600401620004ff9062000e62565b60405180910390fd5b5050505050565b6200052182826200057c60201b60201c565b5050565b60005b8151811015620005775762000561838383815181106200054d576200054c62000e84565b5b60200260200101516200063560201b60201c565b80806200056e9062000ee2565b91505062000528565b505050565b600073ffffffffffffffffffffffffffffffffffffffff168173ffffffffffffffffffffffffffffffffffffffff1603620005ee576040517f08c379a0000000000000000000000000000000000000000000000000000000008152600401620005e59062000fa5565b60405180910390fd5b808260000160006101000a81548173ffffffffffffffffffffffffffffffffffffffff021916908373ffffffffffffffffffffffffffffffffffffffff1602179055505050565b600073ffffffffffffffffffffffffffffffffffffffff168173ffffffffffffffffffffffffffffffffffffffff1603620006a7576040517f08c379a00000000000000000000000000000000000000000000000000000000081526004016200069e9062001017565b60405180910390fd5b60018260000160008373ffffffffffffffffffffffffffffffffffffffff1673ffffffffffffffffffffffffffffffffffffffff16815260200190815260200160002060006101000a81548160ff0219169083151502179055505050565b6000604051905090565b600080fd5b600080fd5b600080fd5b600080fd5b6000601f19601f8301169050919050565b7f4e487b7100000000000000000000000000000000000000000000000000000000600052604160045260246000fd5b6200076e8262000723565b810181811067ffffffffffffffff8211171562000790576200078f62000734565b5b80604052505050565b6000620007a562000705565b9050620007b3828262000763565b919050565b600067ffffffffffffffff821115620007d657620007d562000734565b5b620007e18262000723565b9050602081019050919050565b60005b838110156200080e578082015181840152602081019050620007f1565b60008484015250505050565b6000620008316200082b84620007b8565b62000799565b90508281526020810184848401111562000850576200084f6200071e565b5b6200085d848285620007ee565b509392505050565b600082601f8301126200087d576200087c62000719565b5b81516200088f8482602086016200081a565b91505092915050565b600060ff82169050919050565b620008b08162000898565b8114620008bc57600080fd5b50565b600081519050620008d081620008a5565b92915050565b600080600060608486031215620008f257620008f16200070f565b5b600084015167ffffffffffffffff81111562000913576200091262000714565b5b620009218682870162000865565b935050602084015167ffffffffffffffff81111562000945576200094462000714565b5b620009538682870162000865565b92505060406200096686828701620008bf565b9150509250925092565b600081519050919050565b7f4e487b7100000000000000000000000000000000000000000000000000000000600052602260045260246000fd5b60006002820490506001821680620009c357607f821691505b602082108103620009d957620009d86200097b565b5b50919050565b60008190508160005260206000209050919050565b60006020601f8301049050919050565b600082821b905092915050565b60006008830262000a437fffffffffffffffffffffffffffffffffffffffffffffffffffffffffffffffff8262000a04565b62000a4f868362000a04565b95508019841693508086168417925050509392505050565b6000819050919050565b6000819050919050565b600062000a9c62000a9662000a908462000a67565b62000a71565b62000a67565b9050919050565b6000819050919050565b62000ab88362000a7b565b62000ad062000ac78262000aa3565b84845462000a11565b825550505050565b600090565b62000ae762000ad8565b62000af481848462000aad565b505050565b5b8181101562000b1c5762000b1060008262000add565b60018101905062000afa565b5050565b601f82111562000b6b5762000b3581620009df565b62000b4084620009f4565b8101602085101562000b50578190505b62000b6862000b5f85620009f4565b83018262000af9565b50505b505050565b600082821c905092915050565b600062000b906000198460080262000b70565b1980831691505092915050565b600062000bab838362000b7d565b9150826002028217905092915050565b62000bc68262000970565b67ffffffffffffffff81111562000be25762000be162000734565b5b62000bee8254620009aa565b62000bfb82828562000b20565b600060209050601f83116001811462000c33576000841562000c1e578287015190505b62000c2a858262000b9d565b86555062000c9a565b601f19841662000c4386620009df565b60005b8281101562000c6d5784890151825560018201915060208501945060208101905062000c46565b8683101562000c8d578489015162000c89601f89168262000b7d565b8355505b6001600288020188555050505b505050505050565b7f4e487b7100000000000000000000000000000000000000000000000000000000600052602160045260246000fd5b600082825260208201905092915050565b7f43616e6e6f74207573652061207072652d6578697374696e6720726f6c650000600082015250565b600062000d1a601e8362000cd1565b915062000d278262000ce2565b602082019050919050565b6000602082019050818103600083015262000d4d8162000d0b565b9050919050565b7f417474656d7074656420746f2075736520616e20696e76616c696420726f6c6560008201527f20746f206d616e61676520616e206578636c757369766520726f6c6500000000602082015250565b600062000db2603c8362000cd1565b915062000dbf8262000d54565b604082019050919050565b6000602082019050818103600083015262000de58162000da3565b9050919050565b7f417474656d7074656420746f2075736520616e20696e76616c696420726f6c6560008201527f20746f206d616e61676520612073686172656420726f6c650000000000000000602082015250565b600062000e4a60388362000cd1565b915062000e578262000dec565b604082019050919050565b6000602082019050818103600083015262000e7d8162000e3b565b9050919050565b7f4e487b7100000000000000000000000000000000000000000000000000000000600052603260045260246000fd5b7f4e487b7100000000000000000000000000000000000000000000000000000000600052601160045260246000fd5b600062000eef8262000a67565b91507fffffffffffffffffffffffffffffffffffffffffffffffffffffffffffffffff820362000f245762000f2362000eb3565b5b600182019050919050565b7f43616e6e6f742073657420616e206578636c757369766520726f6c6520746f2060008201527f3078300000000000000000000000000000000000000000000000000000000000602082015250565b600062000f8d60238362000cd1565b915062000f9a8262000f2f565b604082019050919050565b6000602082019050818103600083015262000fc08162000f7e565b9050919050565b7f43616e6e6f74206164642030783020746f20612073686172656420726f6c6500600082015250565b600062000fff601f8362000cd1565b91506200100c8262000fc7565b602082019050919050565b60006020820190508181036000830152620010328162000ff0565b9050919050565b612bf680620010496000396000f3fe608060405234801561001057600080fd5b506004361061014d5760003560e01c806374d0a676116100c3578063a9059cbb1161007c578063a9059cbb146103d6578063aaa14ca314610406578063ab3545e514610422578063d97c05be14610452578063dd62ed3e1461046e578063f44637ba1461049e5761014d565b806374d0a676146102f057806379cc67901461030c5780637cdc1cb91461033c57806395d89b411461036c578063983b2d561461038a578063a457c2d7146103a65761014d565b80633950935111610115578063395093511461020c57806340c10f191461023c57806342966c681461026c5780636be7658b1461028857806370a08231146102a457806373cc802a146102d45761014d565b806306fdde0314610152578063095ea7b31461017057806318160ddd146101a057806323b872dd146101be578063313ce567146101ee575b600080fd5b61015a6104ba565b6040516101679190611dfa565b60405180910390f35b61018a60048036038101906101859190611eb5565b61054c565b6040516101979190611f10565b60405180910390f35b6101a861056a565b6040516101b59190611f3a565b60405180910390f35b6101d860048036038101906101d39190611f55565b610574565b6040516101e59190611f10565b60405180910390f35b6101f661066c565b6040516102039190611fc4565b60405180910390f35b61022660048036038101906102219190611eb5565b610683565b6040516102339190611f10565b60405180910390f35b61025660048036038101906102519190611eb5565b61072f565b6040516102639190611f10565b60405180910390f35b61028660048036038101906102819190611fdf565b6107a3565b005b6102a2600480360381019061029d919061200c565b61080d565b005b6102be60048036038101906102b9919061204c565b610980565b6040516102cb9190611f3a565b60405180910390f35b6102ee60048036038101906102e9919061204c565b6109c8565b005b61030a6004803603810190610305919061200c565b6109e8565b005b61032660048036038101906103219190611eb5565b610b5b565b6040516103339190611f10565b60405180910390f35b6103566004803603810190610351919061200c565b610bce565b6040516103639190611f10565b60405180910390f35b610374610cdc565b6040516103819190611dfa565b60405180910390f35b6103a4600480360381019061039f919061204c565b610d6e565b005b6103c060048036038101906103bb9190611eb5565b610d8e565b6040516103cd9190611f10565b60405180910390f35b6103f060048036038101906103eb9190611eb5565b610e79565b6040516103fd9190611f10565b60405180910390f35b610420600480360381019061041b9190611fdf565b610e97565b005b61043c60048036038101906104379190611fdf565b610ff3565b6040516104499190612088565b60405180910390f35b61046c6004803603810190610467919061200c565b6110a6565b005b610488600480360381019061048391906120a3565b61121a565b6040516104959190611f3a565b60405180910390f35b6104b860048036038101906104b3919061204c565b6112a1565b005b6060600380546104c990612112565b80601f01602080910402602001604051908101604052809291908181526020018280546104f590612112565b80156105425780601f1061051757610100808354040283529160200191610542565b820191906000526020600020905b81548152906001019060200180831161052557829003601f168201915b5050505050905090565b6000610560610559611316565b848461131e565b6001905092915050565b6000600254905090565b60006105818484846114e7565b6000600160008673ffffffffffffffffffffffffffffffffffffffff1673ffffffffffffffffffffffffffffffffffffffff16815260200190815260200160002060006105cc611316565b73ffffffffffffffffffffffffffffffffffffffff1673ffffffffffffffffffffffffffffffffffffffff1681526020019081526020016000205490508281101561064c576040517f08c379a0000000000000000000000000000000000000000000000000000000008152600401610643906121b5565b60405180910390fd5b61066085610658611316565b85840361131e565b60019150509392505050565b6000600660009054906101000a900460ff16905090565b6000610725610690611316565b84846001600061069e611316565b73ffffffffffffffffffffffffffffffffffffffff1673ffffffffffffffffffffffffffffffffffffffff16815260200190815260200160002060008873ffffffffffffffffffffffffffffffffffffffff1673ffffffffffffffffffffffffffffffffffffffff168152602001908152602001600020546107209190612204565b61131e565b6001905092915050565b60006001600281111561074557610744612238565b5b61074f8133610bce565b61078e576040517f08c379a0000000000000000000000000000000000000000000000000000000008152600401610785906122d9565b60405180910390fd5b6107988484611766565b600191505092915050565b6002808111156107b6576107b5612238565b5b6107c08133610bce565b6107ff576040517f08c379a00000000000000000000000000000000000000000000000000000000081526004016107f6906122d9565b60405180910390fd5b61080933836118c5565b5050565b8160028081111561082157610820612238565b5b6005600083815260200190815260200160002060010160009054906101000a900460ff16600281111561085757610856612238565b5b14610897576040517f08c379a000000000000000000000000000000000000000000000000000000000815260040161088e9061236b565b60405180910390fd5b826108b8600560008381526020019081526020016000206000015433610bce565b6108f7576040517f08c379a00000000000000000000000000000000000000000000000000000000081526004016108ee906123fd565b60405180910390fd5b61091f8360056000878152602001908152602001600020600301611a9b90919063ffffffff16565b3373ffffffffffffffffffffffffffffffffffffffff168373ffffffffffffffffffffffffffffffffffffffff16857feb3e33034c392e69263b04ec0fa376dc12784a41b6676c7f31b936cbc0fbb5af60405160405180910390a450505050565b60008060008373ffffffffffffffffffffffffffffffffffffffff1673ffffffffffffffffffffffffffffffffffffffff168152602001908152602001600020549050919050565b6109e5600060028111156109df576109de612238565b5b826110a6565b50565b816002808111156109fc576109fb612238565b5b6005600083815260200190815260200160002060010160009054906101000a900460ff166002811115610a3257610a31612238565b5b14610a72576040517f08c379a0000000000000000000000000000000000000000000000000000000008152600401610a699061236b565b60405180910390fd5b82610a93600560008381526020019081526020016000206000015433610bce565b610ad2576040517f08c379a0000000000000000000000000000000000000000000000000000000008152600401610ac9906123fd565b60405180910390fd5b610afa8360056000878152602001908152602001600020600301611af990919063ffffffff16565b3373ffffffffffffffffffffffffffffffffffffffff168373ffffffffffffffffffffffffffffffffffffffff16857f63502af7324ff6db91ab38f8236a648727d9385ea6c782073dd4882d8a61a48f60405160405180910390a450505050565b6000600280811115610b7057610b6f612238565b5b610b7a8133610bce565b610bb9576040517f08c379a0000000000000000000000000000000000000000000000000000000008152600401610bb0906122d9565b60405180910390fd5b610bc384846118c5565b600191505092915050565b60008060056000858152602001908152602001600020905060016002811115610bfa57610bf9612238565b5b8160010160009054906101000a900460ff166002811115610c1e57610c1d612238565b5b03610c4157610c398382600201611bc690919063ffffffff16565b915050610cd6565b600280811115610c5457610c53612238565b5b8160010160009054906101000a900460ff166002811115610c7857610c77612238565b5b03610c9b57610c938382600301611c2390919063ffffffff16565b915050610cd6565b6040517f08c379a0000000000000000000000000000000000000000000000000000000008152600401610ccd90612469565b60405180910390fd5b92915050565b606060048054610ceb90612112565b80601f0160208091040260200160405190810160405280929190818152602001828054610d1790612112565b8015610d645780601f10610d3957610100808354040283529160200191610d64565b820191906000526020600020905b815481529060010190602001808311610d4757829003601f168201915b5050505050905090565b610d8b60016002811115610d8557610d84612238565b5b826109e8565b50565b60008060016000610d9d611316565b73ffffffffffffffffffffffffffffffffffffffff1673ffffffffffffffffffffffffffffffffffffffff16815260200190815260200160002060008573ffffffffffffffffffffffffffffffffffffffff1673ffffffffffffffffffffffffffffffffffffffff16815260200190815260200160002054905082811015610e5a576040517f08c379a0000000000000000000000000000000000000000000000000000000008152600401610e51906124fb565b60405180910390fd5b610e6e610e65611316565b8585840361131e565b600191505092915050565b6000610e8d610e86611316565b84846114e7565b6001905092915050565b80600280811115610eab57610eaa612238565b5b6005600083815260200190815260200160002060010160009054906101000a900460ff166002811115610ee157610ee0612238565b5b14610f21576040517f08c379a0000000000000000000000000000000000000000000000000000000008152600401610f189061236b565b60405180910390fd5b81610f2c8133610bce565b610f6b576040517f08c379a0000000000000000000000000000000000000000000000000000000008152600401610f62906122d9565b60405180910390fd5b610f933360056000868152602001908152602001600020600301611a9b90919063ffffffff16565b3373ffffffffffffffffffffffffffffffffffffffff163373ffffffffffffffffffffffffffffffffffffffff16847feb3e33034c392e69263b04ec0fa376dc12784a41b6676c7f31b936cbc0fbb5af60405160405180910390a4505050565b6000816001600281111561100a57611009612238565b5b6005600083815260200190815260200160002060010160009054906101000a900460ff1660028111156110405761103f612238565b5b14611080576040517f08c379a00000000000000000000000000000000000000000000000000000000081526004016110779061258d565b60405180910390fd5b61109e60056000858152602001908152602001600020600201611c7c565b915050919050565b81600160028111156110bb576110ba612238565b5b6005600083815260200190815260200160002060010160009054906101000a900460ff1660028111156110f1576110f0612238565b5b14611131576040517f08c379a00000000000000000000000000000000000000000000000000000000081526004016111289061258d565b60405180910390fd5b82611152600560008381526020019081526020016000206000015433610bce565b611191576040517f08c379a0000000000000000000000000000000000000000000000000000000008152600401611188906123fd565b60405180910390fd5b6111b98360056000878152602001908152602001600020600201611caa90919063ffffffff16565b3373ffffffffffffffffffffffffffffffffffffffff168373ffffffffffffffffffffffffffffffffffffffff16857f3b855c56b409b671c7112789d022675eb639d0bcb8896f1b6197c132f799e74660405160405180910390a450505050565b6000600160008473ffffffffffffffffffffffffffffffffffffffff1673ffffffffffffffffffffffffffffffffffffffff16815260200190815260200160002060008373ffffffffffffffffffffffffffffffffffffffff1673ffffffffffffffffffffffffffffffffffffffff16815260200190815260200160002054905092915050565b6112bd6002808111156112b7576112b6612238565b5b826109e8565b50565b6112ca8282611caa565b5050565b60005b8151811015611311576112fe838383815181106112f1576112f06125ad565b5b6020026020010151611af9565b8080611309906125dc565b9150506112d1565b505050565b600033905090565b600073ffffffffffffffffffffffffffffffffffffffff168373ffffffffffffffffffffffffffffffffffffffff160361138d576040517f08c379a000000000000000000000000000000000000000000000000000000000815260040161138490612696565b60405180910390fd5b600073ffffffffffffffffffffffffffffffffffffffff168273ffffffffffffffffffffffffffffffffffffffff16036113fc576040517f08c379a00000000000000000000000000000000000000000000000000000000081526004016113f390612728565b60405180910390fd5b80600160008573ffffffffffffffffffffffffffffffffffffffff1673ffffffffffffffffffffffffffffffffffffffff16815260200190815260200160002060008473ffffffffffffffffffffffffffffffffffffffff1673ffffffffffffffffffffffffffffffffffffffff168152602001908152602001600020819055508173ffffffffffffffffffffffffffffffffffffffff168373ffffffffffffffffffffffffffffffffffffffff167f8c5be1e5ebec7d5bd14f71427d1e84f3dd0314c0f7b2291e5b200ac8c7c3b925836040516114da9190611f3a565b60405180910390a3505050565b600073ffffffffffffffffffffffffffffffffffffffff168373ffffffffffffffffffffffffffffffffffffffff1603611556576040517f08c379a000000000000000000000000000000000000000000000000000000000815260040161154d906127ba565b60405180910390fd5b600073ffffffffffffffffffffffffffffffffffffffff168273ffffffffffffffffffffffffffffffffffffffff16036115c5576040517f08c379a00000000000000000000000000000000000000000000000000000000081526004016115bc9061284c565b60405180910390fd5b6115d0838383611d60565b60008060008573ffffffffffffffffffffffffffffffffffffffff1673ffffffffffffffffffffffffffffffffffffffff16815260200190815260200160002054905081811015611656576040517f08c379a000000000000000000000000000000000000000000000000000000000815260040161164d906128de565b60405180910390fd5b8181036000808673ffffffffffffffffffffffffffffffffffffffff1673ffffffffffffffffffffffffffffffffffffffff16815260200190815260200160002081905550816000808573ffffffffffffffffffffffffffffffffffffffff1673ffffffffffffffffffffffffffffffffffffffff16815260200190815260200160002060008282546116e99190612204565b925050819055508273ffffffffffffffffffffffffffffffffffffffff168473ffffffffffffffffffffffffffffffffffffffff167fddf252ad1be2c89b69c2b068fc378daa952ba7f163c4a11628f55a4df523b3ef8460405161174d9190611f3a565b60405180910390a3611760848484611d65565b50505050565b600073ffffffffffffffffffffffffffffffffffffffff168273ffffffffffffffffffffffffffffffffffffffff16036117d5576040517f08c379a00000000000000000000000000000000000000000000000000000000081526004016117cc9061294a565b60405180910390fd5b6117e160008383611d60565b80600260008282546117f39190612204565b92505081905550806000808473ffffffffffffffffffffffffffffffffffffffff1673ffffffffffffffffffffffffffffffffffffffff16815260200190815260200160002060008282546118489190612204565b925050819055508173ffffffffffffffffffffffffffffffffffffffff16600073ffffffffffffffffffffffffffffffffffffffff167fddf252ad1be2c89b69c2b068fc378daa952ba7f163c4a11628f55a4df523b3ef836040516118ad9190611f3a565b60405180910390a36118c160008383611d65565b5050565b600073ffffffffffffffffffffffffffffffffffffffff168273ffffffffffffffffffffffffffffffffffffffff1603611934576040517f08c379a000000000000000000000000000000000000000000000000000000000815260040161192b906129dc565b60405180910390fd5b61194082600083611d60565b60008060008473ffffffffffffffffffffffffffffffffffffffff1673ffffffffffffffffffffffffffffffffffffffff168152602001908152602001600020549050818110156119c6576040517f08c379a00000000000000000000000000000000000000000000000000000000081526004016119bd90612a6e565b60405180910390fd5b8181036000808573ffffffffffffffffffffffffffffffffffffffff1673ffffffffffffffffffffffffffffffffffffffff168152602001908152602001600020819055508160026000828254611a1d9190612a8e565b92505081905550600073ffffffffffffffffffffffffffffffffffffffff168373ffffffffffffffffffffffffffffffffffffffff167fddf252ad1be2c89b69c2b068fc378daa952ba7f163c4a11628f55a4df523b3ef84604051611a829190611f3a565b60405180910390a3611a9683600084611d65565b505050565b60008260000160008373ffffffffffffffffffffffffffffffffffffffff1673ffffffffffffffffffffffffffffffffffffffff16815260200190815260200160002060006101000a81548160ff0219169083151502179055505050565b600073ffffffffffffffffffffffffffffffffffffffff168173ffffffffffffffffffffffffffffffffffffffff1603611b68576040517f08c379a0000000000000000000000000000000000000000000000000000000008152600401611b5f90612b0e565b60405180910390fd5b60018260000160008373ffffffffffffffffffffffffffffffffffffffff1673ffffffffffffffffffffffffffffffffffffffff16815260200190815260200160002060006101000a81548160ff0219169083151502179055505050565b60008173ffffffffffffffffffffffffffffffffffffffff168360000160009054906101000a900473ffffffffffffffffffffffffffffffffffffffff1673ffffffffffffffffffffffffffffffffffffffff1614905092915050565b60008260000160008373ffffffffffffffffffffffffffffffffffffffff1673ffffffffffffffffffffffffffffffffffffffff16815260200190815260200160002060009054906101000a900460ff16905092915050565b60008160000160009054906101000a900473ffffffffffffffffffffffffffffffffffffffff169050919050565b600073ffffffffffffffffffffffffffffffffffffffff168173ffffffffffffffffffffffffffffffffffffffff1603611d19576040517f08c379a0000000000000000000000000000000000000000000000000000000008152600401611d1090612ba0565b60405180910390fd5b808260000160006101000a81548173ffffffffffffffffffffffffffffffffffffffff021916908373ffffffffffffffffffffffffffffffffffffffff1602179055505050565b505050565b505050565b600081519050919050565b600082825260208201905092915050565b60005b83811015611da4578082015181840152602081019050611d89565b60008484015250505050565b6000601f19601f8301169050919050565b6000611dcc82611d6a565b611dd68185611d75565b9350611de6818560208601611d86565b611def81611db0565b840191505092915050565b60006020820190508181036000830152611e148184611dc1565b905092915050565b600080fd5b600073ffffffffffffffffffffffffffffffffffffffff82169050919050565b6000611e4c82611e21565b9050919050565b611e5c81611e41565b8114611e6757600080fd5b50565b600081359050611e7981611e53565b92915050565b6000819050919050565b611e9281611e7f565b8114611e9d57600080fd5b50565b600081359050611eaf81611e89565b92915050565b60008060408385031215611ecc57611ecb611e1c565b5b6000611eda85828601611e6a565b9250506020611eeb85828601611ea0565b9150509250929050565b60008115159050919050565b611f0a81611ef5565b82525050565b6000602082019050611f256000830184611f01565b92915050565b611f3481611e7f565b82525050565b6000602082019050611f4f6000830184611f2b565b92915050565b600080600060608486031215611f6e57611f6d611e1c565b5b6000611f7c86828701611e6a565b9350506020611f8d86828701611e6a565b9250506040611f9e86828701611ea0565b9150509250925092565b600060ff82169050919050565b611fbe81611fa8565b82525050565b6000602082019050611fd96000830184611fb5565b92915050565b600060208284031215611ff557611ff4611e1c565b5b600061200384828501611ea0565b91505092915050565b6000806040838503121561202357612022611e1c565b5b600061203185828601611ea0565b925050602061204285828601611e6a565b9150509250929050565b60006020828403121561206257612061611e1c565b5b600061207084828501611e6a565b91505092915050565b61208281611e41565b82525050565b600060208201905061209d6000830184612079565b92915050565b600080604083850312156120ba576120b9611e1c565b5b60006120c885828601611e6a565b92505060206120d985828601611e6a565b9150509250929050565b7f4e487b7100000000000000000000000000000000000000000000000000000000600052602260045260246000fd5b6000600282049050600182168061212a57607f821691505b60208210810361213d5761213c6120e3565b5b50919050565b7f45524332303a207472616e7366657220616d6f756e742065786365656473206160008201527f6c6c6f77616e6365000000000000000000000000000000000000000000000000602082015250565b600061219f602883611d75565b91506121aa82612143565b604082019050919050565b600060208201905081810360008301526121ce81612192565b9050919050565b7f4e487b7100000000000000000000000000000000000000000000000000000000600052601160045260246000fd5b600061220f82611e7f565b915061221a83611e7f565b9250828201905080821115612232576122316121d5565b5b92915050565b7f4e487b7100000000000000000000000000000000000000000000000000000000600052602160045260246000fd5b7f53656e64657220646f6573206e6f7420686f6c6420726571756972656420726f60008201527f6c65000000000000000000000000000000000000000000000000000000000000602082015250565b60006122c3602283611d75565b91506122ce82612267565b604082019050919050565b600060208201905081810360008301526122f2816122b6565b9050919050565b7f4d7573742062652063616c6c6564206f6e20616e20696e697469616c697a656460008201527f2053686172656420726f6c650000000000000000000000000000000000000000602082015250565b6000612355602c83611d75565b9150612360826122f9565b604082019050919050565b6000602082019050818103600083015261238481612348565b9050919050565b7f43616e206f6e6c792062652063616c6c6564206279206120726f6c65206d616e60008201527f6167657200000000000000000000000000000000000000000000000000000000602082015250565b60006123e7602483611d75565b91506123f28261238b565b604082019050919050565b60006020820190508181036000830152612416816123da565b9050919050565b7f496e76616c696420726f6c654964000000000000000000000000000000000000600082015250565b6000612453600e83611d75565b915061245e8261241d565b602082019050919050565b6000602082019050818103600083015261248281612446565b9050919050565b7f45524332303a2064656372656173656420616c6c6f77616e63652062656c6f7760008201527f207a65726f000000000000000000000000000000000000000000000000000000602082015250565b60006124e5602583611d75565b91506124f082612489565b604082019050919050565b60006020820190508181036000830152612514816124d8565b9050919050565b7f4d7573742062652063616c6c6564206f6e20616e20696e697469616c697a656460008201527f204578636c757369766520726f6c650000000000000000000000000000000000602082015250565b6000612577602f83611d75565b91506125828261251b565b604082019050919050565b600060208201905081810360008301526125a68161256a565b9050919050565b7f4e487b7100000000000000000000000000000000000000000000000000000000600052603260045260246000fd5b60006125e782611e7f565b91507fffffffffffffffffffffffffffffffffffffffffffffffffffffffffffffffff8203612619576126186121d5565b5b600182019050919050565b7f45524332303a20617070726f76652066726f6d20746865207a65726f2061646460008201527f7265737300000000000000000000000000000000000000000000000000000000602082015250565b6000612680602483611d75565b915061268b82612624565b604082019050919050565b600060208201905081810360008301526126af81612673565b9050919050565b7f45524332303a20617070726f766520746f20746865207a65726f20616464726560008201527f7373000000000000000000000000000000000000000000000000000000000000602082015250565b6000612712602283611d75565b915061271d826126b6565b604082019050919050565b6000602082019050818103600083015261274181612705565b9050919050565b7f45524332303a207472616e736665722066726f6d20746865207a65726f20616460008201527f6472657373000000000000000000000000000000000000000000000000000000602082015250565b60006127a4602583611d75565b91506127af82612748565b604082019050919050565b600060208201905081810360008301526127d381612797565b9050919050565b7f45524332303a207472616e7366657220746f20746865207a65726f206164647260008201527f6573730000000000000000000000000000000000000000000000000000000000602082015250565b6000612836602383611d75565b9150612841826127da565b604082019050919050565b6000602082019050818103600083015261286581612829565b9050919050565b7f45524332303a207472616e7366657220616d6f756e742065786365656473206260008201527f616c616e63650000000000000000000000000000000000000000000000000000602082015250565b60006128c8602683611d75565b91506128d38261286c565b604082019050919050565b600060208201905081810360008301526128f7816128bb565b9050919050565b7f45524332303a206d696e7420746f20746865207a65726f206164647265737300600082015250565b6000612934601f83611d75565b915061293f826128fe565b602082019050919050565b6000602082019050818103600083015261296381612927565b9050919050565b7f45524332303a206275726e2066726f6d20746865207a65726f2061646472657360008201527f7300000000000000000000000000000000000000000000000000000000000000602082015250565b60006129c6602183611d75565b91506129d18261296a565b604082019050919050565b600060208201905081810360008301526129f5816129b9565b9050919050565b7f45524332303a206275726e20616d6f756e7420657863656564732062616c616e60008201527f6365000000000000000000000000000000000000000000000000000000000000602082015250565b6000612a58602283611d75565b9150612a63826129fc565b604082019050919050565b60006020820190508181036000830152612a8781612a4b565b9050919050565b6000612a9982611e7f565b9150612aa483611e7f565b9250828203905081811115612abc57612abb6121d5565b5b92915050565b7f43616e6e6f74206164642030783020746f20612073686172656420726f6c6500600082015250565b6000612af8601f83611d75565b9150612b0382612ac2565b602082019050919050565b60006020820190508181036000830152612b2781612aeb565b9050919050565b7f43616e6e6f742073657420616e206578636c757369766520726f6c6520746f2060008201527f3078300000000000000000000000000000000000000000000000000000000000602082015250565b6000612b8a602383611d75565b9150612b9582612b2e565b604082019050919050565b60006020820190508181036000830152612bb981612b7d565b905091905056fea2646970667358221220eed7e430c33e1b269fe858dda1314ccb21d642d5e5a37c827663958955b1c3bb64736f6c63430008100033",
  "linkReferences": {},
  "deployedLinkReferences": {}
}