{
  "_format": "hh-sol-artifact-1",
  "contractName": "DataAsserter",
  "sourceName": "contracts/DataAsserter.sol",
  "abi": [
    {
      "inputs": [
        {
          "internalType": "address",
          "name": "_defaultCurrency",
          "type": "address"
        },
        {
          "internalType": "address",
          "name": "_optimisticOracleV3",
          "type": "address"
        }
      ],
      "stateMutability": "nonpayable",
      "type": "constructor"
    },
    {
      "anonymous": false,
      "inputs": [
        {
          "indexed": true,
          "internalType": "bytes32",
          "name": "dataId",
          "type": "bytes32"
        },
        {
          "indexed": false,
          "internalType": "bytes32",
          "name": "data",
          "type": "bytes32"
        },
        {
          "indexed": true,
          "internalType": "address",
          "name": "asserter",
          "type": "address"
        },
        {
          "indexed": true,
          "internalType": "bytes32",
          "name": "assertionId",
          "type": "bytes32"
        }
      ],
      "name": "DataAsserted",
      "type": "event"
    },
    {
      "anonymous": false,
      "inputs": [
        {
          "indexed": true,
          "internalType": "bytes32",
          "name": "dataId",
          "type": "bytes32"
        },
        {
          "indexed": false,
          "internalType": "bytes32",
          "name": "data",
          "type": "bytes32"
        },
        {
          "indexed": true,
          "internalType": "address",
          "name": "asserter",
          "type": "address"
        },
        {
          "indexed": true,
          "internalType": "bytes32",
          "name": "assertionId",
          "type": "bytes32"
        }
      ],
      "name": "DataAssertionResolved",
      "type": "event"
    },
    {
      "inputs": [
        {
          "internalType": "bytes32",
          "name": "dataId",
          "type": "bytes32"
        },
        {
          "internalType": "bytes32",
          "name": "data",
          "type": "bytes32"
        },
        {
          "internalType": "address",
          "name": "asserter",
          "type": "address"
        }
      ],
      "name": "assertDataFor",
      "outputs": [
        {
          "internalType": "bytes32",
          "name": "assertionId",
          "type": "bytes32"
        }
      ],
      "stateMutability": "nonpayable",
      "type": "function"
    },
    {
      "inputs": [
        {
          "internalType": "bytes32",
          "name": "assertionId",
          "type": "bytes32"
        }
      ],
      "name": "assertionDisputedCallback",
      "outputs": [],
      "stateMutability": "nonpayable",
      "type": "function"
    },
    {
      "inputs": [],
      "name": "assertionLiveness",
      "outputs": [
        {
          "internalType": "uint64",
          "name": "",
          "type": "uint64"
        }
      ],
      "stateMutability": "view",
      "type": "function"
    },
    {
      "inputs": [
        {
          "internalType": "bytes32",
          "name": "assertionId",
          "type": "bytes32"
        },
        {
          "internalType": "bool",
          "name": "assertedTruthfully",
          "type": "bool"
        }
      ],
      "name": "assertionResolvedCallback",
      "outputs": [],
      "stateMutability": "nonpayable",
      "type": "function"
    },
    {
      "inputs": [
        {
          "internalType": "bytes32",
          "name": "",
          "type": "bytes32"
        }
      ],
      "name": "assertionsData",
      "outputs": [
        {
          "internalType": "bytes32",
          "name": "dataId",
          "type": "bytes32"
        },
        {
          "internalType": "bytes32",
          "name": "data",
          "type": "bytes32"
        },
        {
          "internalType": "address",
          "name": "asserter",
          "type": "address"
        },
        {
          "internalType": "bool",
          "name": "resolved",
          "type": "bool"
        }
      ],
      "stateMutability": "view",
      "type": "function"
    },
    {
      "inputs": [],
      "name": "defaultCurrency",
      "outputs": [
        {
          "internalType": "contract IERC20",
          "name": "",
          "type": "address"
        }
      ],
      "stateMutability": "view",
      "type": "function"
    },
    {
      "inputs": [],
      "name": "defaultIdentifier",
      "outputs": [
        {
          "internalType": "bytes32",
          "name": "",
          "type": "bytes32"
        }
      ],
      "stateMutability": "view",
      "type": "function"
    },
    {
      "inputs": [
        {
          "internalType": "bytes32",
          "name": "assertionId",
          "type": "bytes32"
        }
      ],
      "name": "getData",
      "outputs": [
        {
          "internalType": "bool",
          "name": "",
          "type": "bool"
        },
        {
          "internalType": "bytes32",
          "name": "",
          "type": "bytes32"
        }
      ],
      "stateMutability": "view",
      "type": "function"
    },
    {
      "inputs": [],
      "name": "oo",
      "outputs": [
        {
          "internalType": "contract OptimisticOracleV3Interface",
          "name": "",
          "type": "address"
        }
      ],
      "stateMutability": "view",
      "type": "function"
    }
  ],
  "bytecode": "0x60e06040523480156200001157600080fd5b506040516200227e3803806200227e83398181016040528101906200003791906200018c565b8173ffffffffffffffffffffffffffffffffffffffff1660808173ffffffffffffffffffffffffffffffffffffffff16815250508073ffffffffffffffffffffffffffffffffffffffff1660a08173ffffffffffffffffffffffffffffffffffffffff168152505060a05173ffffffffffffffffffffffffffffffffffffffff1663d509b0176040518163ffffffff1660e01b8152600401602060405180830381865afa158015620000ed573d6000803e3d6000fd5b505050506040513d601f19601f820116820180604052508101906200011391906200020e565b60c08181525050505062000240565b600080fd5b600073ffffffffffffffffffffffffffffffffffffffff82169050919050565b6000620001548262000127565b9050919050565b620001668162000147565b81146200017257600080fd5b50565b60008151905062000186816200015b565b92915050565b60008060408385031215620001a657620001a562000122565b5b6000620001b68582860162000175565b9250506020620001c98582860162000175565b9150509250929050565b6000819050919050565b620001e881620001d3565b8114620001f457600080fd5b50565b6000815190506200020881620001dd565b92915050565b60006020828403121562000227576200022662000122565b5b60006200023784828501620001f7565b91505092915050565b60805160a05160c051611fcf620002af600039600081816104ee0152610704015260008181610260015281816102c5015281816103d10152818161043901526107280152600081816101de0152818161030101528181610387015281816103f301526104cc0152611fcf6000f3fe608060405234801561001057600080fd5b50600436106100935760003560e01c8063b33893da11610066578063b33893da14610135578063b75d4e2414610168578063d448a4ec14610186578063d509b017146101a2578063f1b156b2146101c057610093565b806320402e1d1461009857806354f6127f146100b65780638921a614146100e757806393ee663b14610105575b600080fd5b6100a06101dc565b6040516100ad91906111e2565b60405180910390f35b6100d060048036038101906100cb9190611238565b610200565b6040516100de92919061128f565b60405180910390f35b6100ef61025e565b6040516100fc91906112d9565b60405180910390f35b61011f600480360381019061011a9190611332565b610282565b60405161012c9190611385565b60405180910390f35b61014f600480360381019061014a9190611238565b61069c565b60405161015f94939291906113af565b60405180910390f35b6101706106f9565b60405161017d9190611417565b60405180910390f35b6101a0600480360381019061019b9190611238565b6106ff565b005b6101aa610702565b6040516101b79190611385565b60405180910390f35b6101da60048036038101906101d5919061145e565b610726565b005b7f000000000000000000000000000000000000000000000000000000000000000081565b60008060008084815260200190815260200160002060020160149054906101000a900460ff1661023c576000808060001b905091509150610259565b600160008085815260200190815260200160002060010154915091505b915091565b7f000000000000000000000000000000000000000000000000000000000000000081565b60008073ffffffffffffffffffffffffffffffffffffffff168273ffffffffffffffffffffffffffffffffffffffff16146102bd57816102bf565b335b915060007f000000000000000000000000000000000000000000000000000000000000000073ffffffffffffffffffffffffffffffffffffffff16634360af3d7f00000000000000000000000000000000000000000000000000000000000000006040518263ffffffff1660e01b815260040161033c919061149e565b602060405180830381865afa158015610359573d6000803e3d6000fd5b505050506040513d601f19601f8201168201806040525081019061037d91906114ef565b90506103cc3330837f000000000000000000000000000000000000000000000000000000000000000073ffffffffffffffffffffffffffffffffffffffff1661091f909392919063ffffffff16565b6104377f0000000000000000000000000000000000000000000000000000000000000000827f000000000000000000000000000000000000000000000000000000000000000073ffffffffffffffffffffffffffffffffffffffff166109a89092919063ffffffff16565b7f000000000000000000000000000000000000000000000000000000000000000073ffffffffffffffffffffffffffffffffffffffff16636457c97961047c86610af7565b61048588610af7565b61048e87610b36565b61049742610b99565b6104a030610b36565b6040516020016104b4959493929190611786565b60405160208183030381529060405285306000611c207f0000000000000000000000000000000000000000000000000000000000000000887f00000000000000000000000000000000000000000000000000000000000000006000801b6040518a63ffffffff1660e01b81526004016105359998979695949392919061187d565b6020604051808303816000875af1158015610554573d6000803e3d6000fd5b505050506040513d601f19601f820116820180604052508101906105789190611926565b915060405180608001604052808681526020018581526020018473ffffffffffffffffffffffffffffffffffffffff16815260200160001515815250600080848152602001908152602001600020600082015181600001556020820151816001015560408201518160020160006101000a81548173ffffffffffffffffffffffffffffffffffffffff021916908373ffffffffffffffffffffffffffffffffffffffff16021790555060608201518160020160146101000a81548160ff021916908315150217905550905050818373ffffffffffffffffffffffffffffffffffffffff16867f29ae27364abd65b112ad0ac18e7e4f97360c20afa9636864dc91195d4d9204ec8760405161068c9190611385565b60405180910390a4509392505050565b60006020528060005260406000206000915090508060000154908060010154908060020160009054906101000a900473ffffffffffffffffffffffffffffffffffffffff16908060020160149054906101000a900460ff16905084565b611c2081565b50565b7f000000000000000000000000000000000000000000000000000000000000000081565b7f000000000000000000000000000000000000000000000000000000000000000073ffffffffffffffffffffffffffffffffffffffff163373ffffffffffffffffffffffffffffffffffffffff161461077e57600080fd5b80156108ba57600160008084815260200190815260200160002060020160146101000a81548160ff021916908315150217905550600080600084815260200190815260200160002060405180608001604052908160008201548152602001600182015481526020016002820160009054906101000a900473ffffffffffffffffffffffffffffffffffffffff1673ffffffffffffffffffffffffffffffffffffffff1673ffffffffffffffffffffffffffffffffffffffff1681526020016002820160149054906101000a900460ff161515151581525050905082816040015173ffffffffffffffffffffffffffffffffffffffff1682600001517fe49ab75dd8ad20084c43aacc9218434d61af074f44263f887212c41ad2d41c9d84602001516040516108ac9190611385565b60405180910390a45061091b565b60008083815260200190815260200160002060008082016000905560018201600090556002820160006101000a81549073ffffffffffffffffffffffffffffffffffffffff02191690556002820160146101000a81549060ff021916905550505b5050565b6109a2846323b872dd60e01b85858560405160240161094093929190611953565b604051602081830303815290604052907bffffffffffffffffffffffffffffffffffffffffffffffffffffffff19166020820180517bffffffffffffffffffffffffffffffffffffffffffffffffffffffff8381831617835250505050610d21565b50505050565b6000811480610a32575060008373ffffffffffffffffffffffffffffffffffffffff1663dd62ed3e30856040518363ffffffff1660e01b81526004016109ef92919061198a565b602060405180830381865afa158015610a0c573d6000803e3d6000fd5b505050506040513d601f19601f82011682018060405250810190610a3091906114ef565b145b610a71576040517f08c379a0000000000000000000000000000000000000000000000000000000008152600401610a6890611a36565b60405180910390fd5b610af28363095ea7b360e01b8484604051602401610a90929190611a56565b604051602081830303815290604052907bffffffffffffffffffffffffffffffffffffffffffffffffffffffff19166020820180517bffffffffffffffffffffffffffffffffffffffffffffffffffffffff8381831617835250505050610d21565b505050565b6060610b06608083901c610de8565b610b0f83610de8565b604051602001610b20929190611aa0565b6040516020818303038152906040529050919050565b6060610b5760808360601b6bffffffffffffffffffffffff1916901c610de8565b610b728360601b6bffffffffffffffffffffffff1916610de8565b604051602001610b83929190611b19565b6040516020818303038152906040529050919050565b606060008203610be0576040518060400160405280600181526020017f30000000000000000000000000000000000000000000000000000000000000008152509050610d1c565b600082905060005b60008214610c12578080610bfb90611b74565b915050600a82610c0b9190611beb565b9150610be8565b60008167ffffffffffffffff811115610c2e57610c2d611c1c565b5b6040519080825280601f01601f191660200182016040528015610c605781602001600182028036833780820191505090505b50905060008290505b60008614610d1457600181610c7e9190611c4b565b90506000600a8088610c909190611beb565b610c9a9190611c7f565b87610ca59190611c4b565b6030610cb19190611ce6565b905060008160f81b905080848481518110610ccf57610cce611d1b565b5b60200101907effffffffffffffffffffffffffffffffffffffffffffffffffffffffffffff1916908160001a905350600a88610d0b9190611beb565b97505050610c69565b819450505050505b919050565b6000610d83826040518060400160405280602081526020017f5361666545524332303a206c6f772d6c6576656c2063616c6c206661696c65648152508573ffffffffffffffffffffffffffffffffffffffff16610fbd9092919063ffffffff16565b9050600081511115610de35780806020019051810190610da39190611d5f565b610de2576040517f08c379a0000000000000000000000000000000000000000000000000000000008152600401610dd990611dfe565b60405180910390fd5b5b505050565b6000808260001c90506fffffffffffffffffffffffffffffffff8116905077ffffffffffffffff0000000000000000ffffffffffffffff68010000000000000000820282171690507bffffffff00000000ffffffff00000000ffffffff00000000ffffffff640100000000820282171690507dffff0000ffff0000ffff0000ffff0000ffff0000ffff0000ffff0000ffff62010000820282171690507eff00ff00ff00ff00ff00ff00ff00ff00ff00ff00ff00ff00ff00ff00ff00ff610100820282171690507f0f0f0f0f0f0f0f0f0f0f0f0f0f0f0f0f0f0f0f0f0f0f0f0f0f0f0f0f0f0f0f0f601082028217169050600060087f0808080808080808080808080808080808080808080808080808080808080808831681610f0d57610f0c611bbc565b5b049050600060047f0404040404040404040404040404040404040404040404040404040404040404841681610f4557610f44611bbc565b5b049050600060027f0202020202020202020202020202020202020202020202020202020202020202851681610f7d57610f7c611bbc565b5b0490507f3030303030303030303030303030303030303030303030303030303030303030602782841785160285010193508360001b945050505050919050565b6060610fcc8484600085610fd5565b90509392505050565b60608247101561101a576040517f08c379a000000000000000000000000000000000000000000000000000000000815260040161101190611e90565b60405180910390fd5b611023856110e9565b611062576040517f08c379a000000000000000000000000000000000000000000000000000000000815260040161105990611efc565b60405180910390fd5b6000808673ffffffffffffffffffffffffffffffffffffffff16858760405161108b9190611f1c565b60006040518083038185875af1925050503d80600081146110c8576040519150601f19603f3d011682016040523d82523d6000602084013e6110cd565b606091505b50915091506110dd8282866110fc565b92505050949350505050565b600080823b905060008111915050919050565b6060831561110c5782905061115c565b60008351111561111f5782518084602001fd5b816040517f08c379a00000000000000000000000000000000000000000000000000000000081526004016111539190611f77565b60405180910390fd5b9392505050565b600073ffffffffffffffffffffffffffffffffffffffff82169050919050565b6000819050919050565b60006111a86111a361119e84611163565b611183565b611163565b9050919050565b60006111ba8261118d565b9050919050565b60006111cc826111af565b9050919050565b6111dc816111c1565b82525050565b60006020820190506111f760008301846111d3565b92915050565b600080fd5b6000819050919050565b61121581611202565b811461122057600080fd5b50565b6000813590506112328161120c565b92915050565b60006020828403121561124e5761124d6111fd565b5b600061125c84828501611223565b91505092915050565b60008115159050919050565b61127a81611265565b82525050565b61128981611202565b82525050565b60006040820190506112a46000830185611271565b6112b16020830184611280565b9392505050565b60006112c3826111af565b9050919050565b6112d3816112b8565b82525050565b60006020820190506112ee60008301846112ca565b92915050565b60006112ff82611163565b9050919050565b61130f816112f4565b811461131a57600080fd5b50565b60008135905061132c81611306565b92915050565b60008060006060848603121561134b5761134a6111fd565b5b600061135986828701611223565b935050602061136a86828701611223565b925050604061137b8682870161131d565b9150509250925092565b600060208201905061139a6000830184611280565b92915050565b6113a9816112f4565b82525050565b60006080820190506113c46000830187611280565b6113d16020830186611280565b6113de60408301856113a0565b6113eb6060830184611271565b95945050505050565b600067ffffffffffffffff82169050919050565b611411816113f4565b82525050565b600060208201905061142c6000830184611408565b92915050565b61143b81611265565b811461144657600080fd5b50565b60008135905061145881611432565b92915050565b60008060408385031215611475576114746111fd565b5b600061148385828601611223565b925050602061149485828601611449565b9150509250929050565b60006020820190506114b360008301846113a0565b92915050565b6000819050919050565b6114cc816114b9565b81146114d757600080fd5b50565b6000815190506114e9816114c3565b92915050565b600060208284031215611505576115046111fd565b5b6000611513848285016114da565b91505092915050565b600081905092915050565b7f446174612061737365727465643a203078000000000000000000000000000000600082015250565b600061155d60118361151c565b915061156882611527565b601182019050919050565b600081519050919050565b600081905092915050565b60005b838110156115a757808201518184015260208101905061158c565b60008484015250505050565b60006115be82611573565b6115c8818561157e565b93506115d8818560208601611589565b80840191505092915050565b7f20666f72206461746149643a2030780000000000000000000000000000000000600082015250565b600061161a600f8361151c565b9150611625826115e4565b600f82019050919050565b7f20616e642061737365727465723a203078000000000000000000000000000000600082015250565b600061166660118361151c565b915061167182611630565b601182019050919050565b7f2061742074696d657374616d703a200000000000000000000000000000000000600082015250565b60006116b2600f8361151c565b91506116bd8261167c565b600f82019050919050565b7f20696e207468652044617461417373657274657220636f6e747261637420617460008201527f2030780000000000000000000000000000000000000000000000000000000000602082015250565b600061172460238361151c565b915061172f826116c8565b602382019050919050565b7f2069732076616c69642e00000000000000000000000000000000000000000000600082015250565b6000611770600a8361151c565b915061177b8261173a565b600a82019050919050565b600061179182611550565b915061179d82886115b3565b91506117a88261160d565b91506117b482876115b3565b91506117bf82611659565b91506117cb82866115b3565b91506117d6826116a5565b91506117e282856115b3565b91506117ed82611717565b91506117f982846115b3565b915061180482611763565b91508190509695505050505050565b600082825260208201905092915050565b6000601f19601f8301169050919050565b600061184082611573565b61184a8185611813565b935061185a818560208601611589565b61186381611824565b840191505092915050565b611877816114b9565b82525050565b6000610120820190508181036000830152611898818c611835565b90506118a7602083018b6113a0565b6118b4604083018a6113a0565b6118c160608301896113a0565b6118ce6080830188611408565b6118db60a08301876111d3565b6118e860c083018661186e565b6118f560e0830185611280565b611903610100830184611280565b9a9950505050505050505050565b6000815190506119208161120c565b92915050565b60006020828403121561193c5761193b6111fd565b5b600061194a84828501611911565b91505092915050565b600060608201905061196860008301866113a0565b61197560208301856113a0565b611982604083018461186e565b949350505050565b600060408201905061199f60008301856113a0565b6119ac60208301846113a0565b9392505050565b600082825260208201905092915050565b7f5361666545524332303a20617070726f76652066726f6d206e6f6e2d7a65726f60008201527f20746f206e6f6e2d7a65726f20616c6c6f77616e636500000000000000000000602082015250565b6000611a206036836119b3565b9150611a2b826119c4565b604082019050919050565b60006020820190508181036000830152611a4f81611a13565b9050919050565b6000604082019050611a6b60008301856113a0565b611a78602083018461186e565b9392505050565b6000819050919050565b611a9a611a9582611202565b611a7f565b82525050565b6000611aac8285611a89565b602082019150611abc8284611a89565b6020820191508190509392505050565b60007fffffffffffffffff00000000000000000000000000000000000000000000000082169050919050565b6000819050919050565b611b13611b0e82611acc565b611af8565b82525050565b6000611b258285611a89565b602082019150611b358284611b02565b6008820191508190509392505050565b7f4e487b7100000000000000000000000000000000000000000000000000000000600052601160045260246000fd5b6000611b7f826114b9565b91507fffffffffffffffffffffffffffffffffffffffffffffffffffffffffffffffff8203611bb157611bb0611b45565b5b600182019050919050565b7f4e487b7100000000000000000000000000000000000000000000000000000000600052601260045260246000fd5b6000611bf6826114b9565b9150611c01836114b9565b925082611c1157611c10611bbc565b5b828204905092915050565b7f4e487b7100000000000000000000000000000000000000000000000000000000600052604160045260246000fd5b6000611c56826114b9565b9150611c61836114b9565b9250828203905081811115611c7957611c78611b45565b5b92915050565b6000611c8a826114b9565b9150611c95836114b9565b9250817fffffffffffffffffffffffffffffffffffffffffffffffffffffffffffffffff0483118215151615611cce57611ccd611b45565b5b828202905092915050565b600060ff82169050919050565b6000611cf182611cd9565b9150611cfc83611cd9565b9250828201905060ff811115611d1557611d14611b45565b5b92915050565b7f4e487b7100000000000000000000000000000000000000000000000000000000600052603260045260246000fd5b600081519050611d5981611432565b92915050565b600060208284031215611d7557611d746111fd565b5b6000611d8384828501611d4a565b91505092915050565b7f5361666545524332303a204552433230206f7065726174696f6e20646964206e60008201527f6f74207375636365656400000000000000000000000000000000000000000000602082015250565b6000611de8602a836119b3565b9150611df382611d8c565b604082019050919050565b60006020820190508181036000830152611e1781611ddb565b9050919050565b7f416464726573733a20696e73756666696369656e742062616c616e636520666f60008201527f722063616c6c0000000000000000000000000000000000000000000000000000602082015250565b6000611e7a6026836119b3565b9150611e8582611e1e565b604082019050919050565b60006020820190508181036000830152611ea981611e6d565b9050919050565b7f416464726573733a2063616c6c20746f206e6f6e2d636f6e7472616374000000600082015250565b6000611ee6601d836119b3565b9150611ef182611eb0565b602082019050919050565b60006020820190508181036000830152611f1581611ed9565b9050919050565b6000611f2882846115b3565b915081905092915050565b600081519050919050565b6000611f4982611f33565b611f5381856119b3565b9350611f63818560208601611589565b611f6c81611824565b840191505092915050565b60006020820190508181036000830152611f918184611f3e565b90509291505056fea2646970667358221220525d16be963b137c7aaf80e8db16858343e6dde07f3120a99ce8c67ab94325d864736f6c63430008100033",
  "linkReferences": {},
  "deployedLinkReferences": {}
}