{
  "_format": "hh-sol-artifact-1",
  "contractName": "Insurance",
  "sourceName": "contracts/Insurance.sol",
  "abi": [
    {
      "inputs": [
        {
          "internalType": "address",
          "name": "_defaultCurrency",
          "type": "address"
        },
        {
          "internalType": "address",
          "name": "_optimisticOracleV3",
          "type": "address"
        }
      ],
      "stateMutability": "nonpayable",
      "type": "constructor"
    },
    {
      "anonymous": false,
      "inputs": [
        {
          "indexed": true,
          "internalType": "bytes32",
          "name": "policyId",
          "type": "bytes32"
        },
        {
          "indexed": false,
          "internalType": "bytes",
          "name": "insuredEvent",
          "type": "bytes"
        },
        {
          "indexed": false,
          "internalType": "uint256",
          "name": "insuranceAmount",
          "type": "uint256"
        },
        {
          "indexed": true,
          "internalType": "address",
          "name": "payoutAddress",
          "type": "address"
        }
      ],
      "name": "InsuranceIssued",
      "type": "event"
    },
    {
      "anonymous": false,
      "inputs": [
        {
          "indexed": true,
          "internalType": "bytes32",
          "name": "policyId",
          "type": "bytes32"
        },
        {
          "indexed": true,
          "internalType": "bytes32",
          "name": "assertionId",
          "type": "bytes32"
        }
      ],
      "name": "InsurancePayoutRequested",
      "type": "event"
    },
    {
      "anonymous": false,
      "inputs": [
        {
          "indexed": true,
          "internalType": "bytes32",
          "name": "policyId",
          "type": "bytes32"
        },
        {
          "indexed": true,
          "internalType": "bytes32",
          "name": "assertionId",
          "type": "bytes32"
        }
      ],
      "name": "InsurancePayoutSettled",
      "type": "event"
    },
    {
      "inputs": [
        {
          "internalType": "bytes32",
          "name": "",
          "type": "bytes32"
        }
      ],
      "name": "assertedPolicies",
      "outputs": [
        {
          "internalType": "bytes32",
          "name": "",
          "type": "bytes32"
        }
      ],
      "stateMutability": "view",
      "type": "function"
    },
    {
      "inputs": [
        {
          "internalType": "bytes32",
          "name": "assertionId",
          "type": "bytes32"
        }
      ],
      "name": "assertionDisputedCallback",
      "outputs": [],
      "stateMutability": "nonpayable",
      "type": "function"
    },
    {
      "inputs": [],
      "name": "assertionLiveness",
      "outputs": [
        {
          "internalType": "uint64",
          "name": "",
          "type": "uint64"
        }
      ],
      "stateMutability": "view",
      "type": "function"
    },
    {
      "inputs": [
        {
          "internalType": "bytes32",
          "name": "assertionId",
          "type": "bytes32"
        },
        {
          "internalType": "bool",
          "name": "assertedTruthfully",
          "type": "bool"
        }
      ],
      "name": "assertionResolvedCallback",
      "outputs": [],
      "stateMutability": "nonpayable",
      "type": "function"
    },
    {
      "inputs": [],
      "name": "defaultCurrency",
      "outputs": [
        {
          "internalType": "contract IERC20",
          "name": "",
          "type": "address"
        }
      ],
      "stateMutability": "view",
      "type": "function"
    },
    {
      "inputs": [],
      "name": "defaultIdentifier",
      "outputs": [
        {
          "internalType": "bytes32",
          "name": "",
          "type": "bytes32"
        }
      ],
      "stateMutability": "view",
      "type": "function"
    },
    {
      "inputs": [
        {
          "internalType": "uint256",
          "name": "insuranceAmount",
          "type": "uint256"
        },
        {
          "internalType": "address",
          "name": "payoutAddress",
          "type": "address"
        },
        {
          "internalType": "bytes",
          "name": "insuredEvent",
          "type": "bytes"
        }
      ],
      "name": "issueInsurance",
      "outputs": [
        {
          "internalType": "bytes32",
          "name": "policyId",
          "type": "bytes32"
        }
      ],
      "stateMutability": "nonpayable",
      "type": "function"
    },
    {
      "inputs": [],
      "name": "oo",
      "outputs": [
        {
          "internalType": "contract OptimisticOracleV3Interface",
          "name": "",
          "type": "address"
        }
      ],
      "stateMutability": "view",
      "type": "function"
    },
    {
      "inputs": [
        {
          "internalType": "bytes32",
          "name": "",
          "type": "bytes32"
        }
      ],
      "name": "policies",
      "outputs": [
        {
          "internalType": "uint256",
          "name": "insuranceAmount",
          "type": "uint256"
        },
        {
          "internalType": "address",
          "name": "payoutAddress",
          "type": "address"
        },
        {
          "internalType": "bytes",
          "name": "insuredEvent",
          "type": "bytes"
        },
        {
          "internalType": "bool",
          "name": "settled",
          "type": "bool"
        }
      ],
      "stateMutability": "view",
      "type": "function"
    },
    {
      "inputs": [
        {
          "internalType": "bytes32",
          "name": "policyId",
          "type": "bytes32"
        }
      ],
      "name": "requestPayout",
      "outputs": [
        {
          "internalType": "bytes32",
          "name": "assertionId",
          "type": "bytes32"
        }
      ],
      "stateMutability": "nonpayable",
      "type": "function"
    }
  ],
  "bytecode": "0x60e06040523480156200001157600080fd5b50604051620026283803806200262883398181016040528101906200003791906200018c565b8173ffffffffffffffffffffffffffffffffffffffff1660808173ffffffffffffffffffffffffffffffffffffffff16815250508073ffffffffffffffffffffffffffffffffffffffff1660a08173ffffffffffffffffffffffffffffffffffffffff168152505060a05173ffffffffffffffffffffffffffffffffffffffff1663d509b0176040518163ffffffff1660e01b8152600401602060405180830381865afa158015620000ed573d6000803e3d6000fd5b505050506040513d601f19601f820116820180604052508101906200011391906200020e565b60c08181525050505062000240565b600080fd5b600073ffffffffffffffffffffffffffffffffffffffff82169050919050565b6000620001548262000127565b9050919050565b620001668162000147565b81146200017257600080fd5b50565b60008151905062000186816200015b565b92915050565b60008060408385031215620001a657620001a562000122565b5b6000620001b68582860162000175565b9250506020620001c98582860162000175565b9150509250929050565b6000819050919050565b620001e881620001d3565b8114620001f457600080fd5b50565b6000815190506200020881620001dd565b92915050565b60006020828403121562000227576200022662000122565b5b60006200023784828501620001f7565b91505092915050565b60805160a05160c05161236b620002bd60003960008181610774015261085001526000818161048a0152818161055c01528181610668015281816106d00152610959015260008181610218015281816103eb015281816105980152818161061e0152818161068a015281816107520152610dd3015261236b6000f3fe608060405234801561001057600080fd5b506004361061009e5760003560e01c8063d448a4ec11610066578063d448a4ec1461015d578063d509b01714610179578063ddbfd8ef14610197578063f1b156b2146101ca578063f320b51f146101e65761009e565b806320402e1d146100a35780633ed477e8146100c15780638921a614146100f1578063b75d4e241461010f578063bfde89941461012d575b600080fd5b6100ab610216565b6040516100b891906111bd565b60405180910390f35b6100db60048036038101906100d691906113a6565b61023a565b6040516100e8919061142e565b60405180910390f35b6100f9610488565b604051610106919061146a565b60405180910390f35b6101176104ac565b60405161012491906114a8565b60405180910390f35b610147600480360381019061014291906114ef565b6104b2565b604051610154919061142e565b60405180910390f35b610177600480360381019061017291906114ef565b61084b565b005b61018161084e565b60405161018e919061142e565b60405180910390f35b6101b160048036038101906101ac91906114ef565b610872565b6040516101c194939291906115d4565b60405180910390f35b6101e460048036038101906101df919061164c565b610957565b005b61020060048036038101906101fb91906114ef565b6109c3565b60405161020d919061142e565b60405180910390f35b7f000000000000000000000000000000000000000000000000000000000000000081565b6000818360405160200161024f92919061168c565b604051602081830303815290604052805190602001209050600073ffffffffffffffffffffffffffffffffffffffff166001600083815260200190815260200160002060010160009054906101000a900473ffffffffffffffffffffffffffffffffffffffff1673ffffffffffffffffffffffffffffffffffffffff161461030c576040517f08c379a000000000000000000000000000000000000000000000000000000000815260040161030390611719565b60405180910390fd5b60405180608001604052808581526020018473ffffffffffffffffffffffffffffffffffffffff16815260200183815260200160001515815250600160008381526020019081526020016000206000820151816000015560208201518160010160006101000a81548173ffffffffffffffffffffffffffffffffffffffff021916908373ffffffffffffffffffffffffffffffffffffffff16021790555060408201518160020190816103bf919061193b565b5060608201518160030160006101000a81548160ff0219169083151502179055509050506104303330867f000000000000000000000000000000000000000000000000000000000000000073ffffffffffffffffffffffffffffffffffffffff166109db909392919063ffffffff16565b8273ffffffffffffffffffffffffffffffffffffffff16817fcd7813100f7685a8719d7a7817cd7f20e0029ad0f3749a9ed424fc557afc427d8487604051610479929190611a0d565b60405180910390a39392505050565b7f000000000000000000000000000000000000000000000000000000000000000081565b611c2081565b60008073ffffffffffffffffffffffffffffffffffffffff166001600084815260200190815260200160002060010160009054906101000a900473ffffffffffffffffffffffffffffffffffffffff1673ffffffffffffffffffffffffffffffffffffffff1603610558576040517f08c379a000000000000000000000000000000000000000000000000000000000815260040161054f90611a89565b60405180910390fd5b60007f000000000000000000000000000000000000000000000000000000000000000073ffffffffffffffffffffffffffffffffffffffff16634360af3d7f00000000000000000000000000000000000000000000000000000000000000006040518263ffffffff1660e01b81526004016105d39190611aa9565b602060405180830381865afa1580156105f0573d6000803e3d6000fd5b505050506040513d601f19601f820116820180604052508101906106149190611ad9565b90506106633330837f000000000000000000000000000000000000000000000000000000000000000073ffffffffffffffffffffffffffffffffffffffff166109db909392919063ffffffff16565b6106ce7f0000000000000000000000000000000000000000000000000000000000000000827f000000000000000000000000000000000000000000000000000000000000000073ffffffffffffffffffffffffffffffffffffffff16610a649092919063ffffffff16565b7f000000000000000000000000000000000000000000000000000000000000000073ffffffffffffffffffffffffffffffffffffffff16636457c9796001600086815260200190815260200160002060020161072942610bb3565b60405160200161073a929190611cda565b60405160208183030381529060405233306000611c207f0000000000000000000000000000000000000000000000000000000000000000887f00000000000000000000000000000000000000000000000000000000000000006000801b6040518a63ffffffff1660e01b81526004016107bb99989796959493929190611d1f565b6020604051808303816000875af11580156107da573d6000803e3d6000fd5b505050506040513d601f19601f820116820180604052508101906107fe9190611dc8565b9150826000808481526020019081526020016000208190555081837fc1eda11098b83348acd1b176ba62fc292b9eaa8ba8245754f98c4cccc370886f60405160405180910390a350919050565b50565b7f000000000000000000000000000000000000000000000000000000000000000081565b60016020528060005260406000206000915090508060000154908060010160009054906101000a900473ffffffffffffffffffffffffffffffffffffffff16908060020180546108c190611768565b80601f01602080910402602001604051908101604052809291908181526020018280546108ed90611768565b801561093a5780601f1061090f5761010080835404028352916020019161093a565b820191906000526020600020905b81548152906001019060200180831161091d57829003601f168201915b5050505050908060030160009054906101000a900460ff16905084565b7f000000000000000000000000000000000000000000000000000000000000000073ffffffffffffffffffffffffffffffffffffffff163373ffffffffffffffffffffffffffffffffffffffff16146109af57600080fd5b80156109bf576109be82610d3b565b5b5050565b60006020528060005260406000206000915090505481565b610a5e846323b872dd60e01b8585856040516024016109fc93929190611df5565b604051602081830303815290604052907bffffffffffffffffffffffffffffffffffffffffffffffffffffffff19166020820180517bffffffffffffffffffffffffffffffffffffffffffffffffffffffff8381831617835250505050610e4b565b50505050565b6000811480610aee575060008373ffffffffffffffffffffffffffffffffffffffff1663dd62ed3e30856040518363ffffffff1660e01b8152600401610aab929190611e2c565b602060405180830381865afa158015610ac8573d6000803e3d6000fd5b505050506040513d601f19601f82011682018060405250810190610aec9190611ad9565b145b610b2d576040517f08c379a0000000000000000000000000000000000000000000000000000000008152600401610b2490611ec7565b60405180910390fd5b610bae8363095ea7b360e01b8484604051602401610b4c929190611ee7565b604051602081830303815290604052907bffffffffffffffffffffffffffffffffffffffffffffffffffffffff19166020820180517bffffffffffffffffffffffffffffffffffffffffffffffffffffffff8381831617835250505050610e4b565b505050565b606060008203610bfa576040518060400160405280600181526020017f30000000000000000000000000000000000000000000000000000000000000008152509050610d36565b600082905060005b60008214610c2c578080610c1590611f3f565b915050600a82610c259190611fb6565b9150610c02565b60008167ffffffffffffffff811115610c4857610c4761127b565b5b6040519080825280601f01601f191660200182016040528015610c7a5781602001600182028036833780820191505090505b50905060008290505b60008614610d2e57600181610c989190611fe7565b90506000600a8088610caa9190611fb6565b610cb4919061201b565b87610cbf9190611fe7565b6030610ccb9190612082565b905060008160f81b905080848481518110610ce957610ce86120b7565b5b60200101907effffffffffffffffffffffffffffffffffffffffffffffffffffffffffffff1916908160001a905350600a88610d259190611fb6565b97505050610c83565b819450505050505b919050565b600080600083815260200190815260200160002054905060006001600083815260200190815260200160002090508060030160009054906101000a900460ff1615610d87575050610e48565b60018160030160006101000a81548160ff021916908315150217905550610e178160010160009054906101000a900473ffffffffffffffffffffffffffffffffffffffff1682600001547f000000000000000000000000000000000000000000000000000000000000000073ffffffffffffffffffffffffffffffffffffffff16610f129092919063ffffffff16565b82827f739229fb16695cefea41eb5f349a160530d8efc01c9f49bebdeb3c68c55dc7ea60405160405180910390a350505b50565b6000610ead826040518060400160405280602081526020017f5361666545524332303a206c6f772d6c6576656c2063616c6c206661696c65648152508573ffffffffffffffffffffffffffffffffffffffff16610f989092919063ffffffff16565b9050600081511115610f0d5780806020019051810190610ecd91906120fb565b610f0c576040517f08c379a0000000000000000000000000000000000000000000000000000000008152600401610f039061219a565b60405180910390fd5b5b505050565b610f938363a9059cbb60e01b8484604051602401610f31929190611ee7565b604051602081830303815290604052907bffffffffffffffffffffffffffffffffffffffffffffffffffffffff19166020820180517bffffffffffffffffffffffffffffffffffffffffffffffffffffffff8381831617835250505050610e4b565b505050565b6060610fa78484600085610fb0565b90509392505050565b606082471015610ff5576040517f08c379a0000000000000000000000000000000000000000000000000000000008152600401610fec9061222c565b60405180910390fd5b610ffe856110c4565b61103d576040517f08c379a000000000000000000000000000000000000000000000000000000000815260040161103490612298565b60405180910390fd5b6000808673ffffffffffffffffffffffffffffffffffffffff16858760405161106691906122b8565b60006040518083038185875af1925050503d80600081146110a3576040519150601f19603f3d011682016040523d82523d6000602084013e6110a8565b606091505b50915091506110b88282866110d7565b92505050949350505050565b600080823b905060008111915050919050565b606083156110e757829050611137565b6000835111156110fa5782518084602001fd5b816040517f08c379a000000000000000000000000000000000000000000000000000000000815260040161112e9190612313565b60405180910390fd5b9392505050565b600073ffffffffffffffffffffffffffffffffffffffff82169050919050565b6000819050919050565b600061118361117e6111798461113e565b61115e565b61113e565b9050919050565b600061119582611168565b9050919050565b60006111a78261118a565b9050919050565b6111b78161119c565b82525050565b60006020820190506111d260008301846111ae565b92915050565b6000604051905090565b600080fd5b600080fd5b6000819050919050565b6111ff816111ec565b811461120a57600080fd5b50565b60008135905061121c816111f6565b92915050565b600061122d8261113e565b9050919050565b61123d81611222565b811461124857600080fd5b50565b60008135905061125a81611234565b92915050565b600080fd5b600080fd5b6000601f19601f8301169050919050565b7f4e487b7100000000000000000000000000000000000000000000000000000000600052604160045260246000fd5b6112b38261126a565b810181811067ffffffffffffffff821117156112d2576112d161127b565b5b80604052505050565b60006112e56111d8565b90506112f182826112aa565b919050565b600067ffffffffffffffff8211156113115761131061127b565b5b61131a8261126a565b9050602081019050919050565b82818337600083830152505050565b6000611349611344846112f6565b6112db565b90508281526020810184848401111561136557611364611265565b5b611370848285611327565b509392505050565b600082601f83011261138d5761138c611260565b5b813561139d848260208601611336565b91505092915050565b6000806000606084860312156113bf576113be6111e2565b5b60006113cd8682870161120d565b93505060206113de8682870161124b565b925050604084013567ffffffffffffffff8111156113ff576113fe6111e7565b5b61140b86828701611378565b9150509250925092565b6000819050919050565b61142881611415565b82525050565b6000602082019050611443600083018461141f565b92915050565b60006114548261118a565b9050919050565b61146481611449565b82525050565b600060208201905061147f600083018461145b565b92915050565b600067ffffffffffffffff82169050919050565b6114a281611485565b82525050565b60006020820190506114bd6000830184611499565b92915050565b6114cc81611415565b81146114d757600080fd5b50565b6000813590506114e9816114c3565b92915050565b600060208284031215611505576115046111e2565b5b6000611513848285016114da565b91505092915050565b611525816111ec565b82525050565b61153481611222565b82525050565b600081519050919050565b600082825260208201905092915050565b60005b83811015611574578082015181840152602081019050611559565b60008484015250505050565b600061158b8261153a565b6115958185611545565b93506115a5818560208601611556565b6115ae8161126a565b840191505092915050565b60008115159050919050565b6115ce816115b9565b82525050565b60006080820190506115e9600083018761151c565b6115f6602083018661152b565b81810360408301526116088185611580565b905061161760608301846115c5565b95945050505050565b611629816115b9565b811461163457600080fd5b50565b60008135905061164681611620565b92915050565b60008060408385031215611663576116626111e2565b5b6000611671858286016114da565b925050602061168285828601611637565b9150509250929050565b600060408201905081810360008301526116a68185611580565b90506116b5602083018461152b565b9392505050565b600082825260208201905092915050565b7f506f6c69637920616c7265616479206578697374730000000000000000000000600082015250565b60006117036015836116bc565b915061170e826116cd565b602082019050919050565b60006020820190508181036000830152611732816116f6565b9050919050565b7f4e487b7100000000000000000000000000000000000000000000000000000000600052602260045260246000fd5b6000600282049050600182168061178057607f821691505b60208210810361179357611792611739565b5b50919050565b60008190508160005260206000209050919050565b60006020601f8301049050919050565b600082821b905092915050565b6000600883026117fb7fffffffffffffffffffffffffffffffffffffffffffffffffffffffffffffffff826117be565b61180586836117be565b95508019841693508086168417925050509392505050565b600061183861183361182e846111ec565b61115e565b6111ec565b9050919050565b6000819050919050565b6118528361181d565b61186661185e8261183f565b8484546117cb565b825550505050565b600090565b61187b61186e565b611886818484611849565b505050565b5b818110156118aa5761189f600082611873565b60018101905061188c565b5050565b601f8211156118ef576118c081611799565b6118c9846117ae565b810160208510156118d8578190505b6118ec6118e4856117ae565b83018261188b565b50505b505050565b600082821c905092915050565b6000611912600019846008026118f4565b1980831691505092915050565b600061192b8383611901565b9150826002028217905092915050565b6119448261153a565b67ffffffffffffffff81111561195d5761195c61127b565b5b6119678254611768565b6119728282856118ae565b600060209050601f8311600181146119a55760008415611993578287015190505b61199d858261191f565b865550611a05565b601f1984166119b386611799565b60005b828110156119db578489015182556001820191506020850194506020810190506119b6565b868310156119f857848901516119f4601f891682611901565b8355505b6001600288020188555050505b505050505050565b60006040820190508181036000830152611a278185611580565b9050611a36602083018461151c565b9392505050565b7f506f6c69637920646f6573206e6f742065786973740000000000000000000000600082015250565b6000611a736015836116bc565b9150611a7e82611a3d565b602082019050919050565b60006020820190508181036000830152611aa281611a66565b9050919050565b6000602082019050611abe600083018461152b565b92915050565b600081519050611ad3816111f6565b92915050565b600060208284031215611aef57611aee6111e2565b5b6000611afd84828501611ac4565b91505092915050565b600081905092915050565b7f496e737572616e636520636f6e747261637420697320636c61696d696e67207460008201527f68617420696e737572616e6365206576656e7420000000000000000000000000602082015250565b6000611b6d603483611b06565b9150611b7882611b11565b603482019050919050565b600081905092915050565b60008154611b9b81611768565b611ba58186611b83565b94506001821660008114611bc05760018114611bd557611c08565b60ff1983168652811515820286019350611c08565b611bde85611799565b60005b83811015611c0057815481890152600182019150602081019050611be1565b838801955050505b50505092915050565b7f20686164206f63637572726564206173206f6620000000000000000000000000600082015250565b6000611c47601483611b06565b9150611c5282611c11565b601482019050919050565b6000611c688261153a565b611c728185611b83565b9350611c82818560208601611556565b80840191505092915050565b7f2e00000000000000000000000000000000000000000000000000000000000000600082015250565b6000611cc4600183611b06565b9150611ccf82611c8e565b600182019050919050565b6000611ce582611b60565b9150611cf18285611b8e565b9150611cfc82611c3a565b9150611d088284611c5d565b9150611d1382611cb7565b91508190509392505050565b6000610120820190508181036000830152611d3a818c611580565b9050611d49602083018b61152b565b611d56604083018a61152b565b611d63606083018961152b565b611d706080830188611499565b611d7d60a08301876111ae565b611d8a60c083018661151c565b611d9760e083018561141f565b611da561010083018461141f565b9a9950505050505050505050565b600081519050611dc2816114c3565b92915050565b600060208284031215611dde57611ddd6111e2565b5b6000611dec84828501611db3565b91505092915050565b6000606082019050611e0a600083018661152b565b611e17602083018561152b565b611e24604083018461151c565b949350505050565b6000604082019050611e41600083018561152b565b611e4e602083018461152b565b9392505050565b7f5361666545524332303a20617070726f76652066726f6d206e6f6e2d7a65726f60008201527f20746f206e6f6e2d7a65726f20616c6c6f77616e636500000000000000000000602082015250565b6000611eb16036836116bc565b9150611ebc82611e55565b604082019050919050565b60006020820190508181036000830152611ee081611ea4565b9050919050565b6000604082019050611efc600083018561152b565b611f09602083018461151c565b9392505050565b7f4e487b7100000000000000000000000000000000000000000000000000000000600052601160045260246000fd5b6000611f4a826111ec565b91507fffffffffffffffffffffffffffffffffffffffffffffffffffffffffffffffff8203611f7c57611f7b611f10565b5b600182019050919050565b7f4e487b7100000000000000000000000000000000000000000000000000000000600052601260045260246000fd5b6000611fc1826111ec565b9150611fcc836111ec565b925082611fdc57611fdb611f87565b5b828204905092915050565b6000611ff2826111ec565b9150611ffd836111ec565b925082820390508181111561201557612014611f10565b5b92915050565b6000612026826111ec565b9150612031836111ec565b9250817fffffffffffffffffffffffffffffffffffffffffffffffffffffffffffffffff048311821515161561206a57612069611f10565b5b828202905092915050565b600060ff82169050919050565b600061208d82612075565b915061209883612075565b9250828201905060ff8111156120b1576120b0611f10565b5b92915050565b7f4e487b7100000000000000000000000000000000000000000000000000000000600052603260045260246000fd5b6000815190506120f581611620565b92915050565b600060208284031215612111576121106111e2565b5b600061211f848285016120e6565b91505092915050565b7f5361666545524332303a204552433230206f7065726174696f6e20646964206e60008201527f6f74207375636365656400000000000000000000000000000000000000000000602082015250565b6000612184602a836116bc565b915061218f82612128565b604082019050919050565b600060208201905081810360008301526121b381612177565b9050919050565b7f416464726573733a20696e73756666696369656e742062616c616e636520666f60008201527f722063616c6c0000000000000000000000000000000000000000000000000000602082015250565b60006122166026836116bc565b9150612221826121ba565b604082019050919050565b6000602082019050818103600083015261224581612209565b9050919050565b7f416464726573733a2063616c6c20746f206e6f6e2d636f6e7472616374000000600082015250565b6000612282601d836116bc565b915061228d8261224c565b602082019050919050565b600060208201905081810360008301526122b181612275565b9050919050565b60006122c48284611c5d565b915081905092915050565b600081519050919050565b60006122e5826122cf565b6122ef81856116bc565b93506122ff818560208601611556565b6123088161126a565b840191505092915050565b6000602082019050818103600083015261232d81846122da565b90509291505056fea2646970667358221220dfb5b498128801eb2020af3553dfa36208146423d0ad818cdc8ff5b40e1b44aa64736f6c63430008100033",
  "linkReferences": {},
  "deployedLinkReferences": {}
}