{
  "_format": "hh-sol-artifact-1",
  "contractName": "PromiseEscrow",
  "sourceName": "contracts/PromiseEscrow.sol",
  "abi": [
    {
      "inputs": [
        {
          "internalType": "address",
          "name": "_currency",
          "type": "address"
        },
        {
          "internalType": "address",
          "name": "_optimisticOracleV3",
          "type": "address"
        },
        {
          "internalType": "address",
          "name": "_sismoVerifier",
          "type": "address"
        }
      ],
      "stateMutability": "nonpayable",
      "type": "constructor"
    },
    {
      "anonymous": false,
      "inputs": [
        {
          "indexed": true,
          "internalType": "bytes32",
          "name": "promiseId",
          "type": "bytes32"
        },
        {
          "indexed": false,
          "internalType": "string",
          "name": "assertedOutcome",
          "type": "string"
        },
        {
          "indexed": true,
          "internalType": "bytes32",
          "name": "assertionId",
          "type": "bytes32"
        }
      ],
      "name": "promiseAsserted",
      "type": "event"
    },
    {
      "anonymous": false,
      "inputs": [
        {
          "indexed": true,
          "internalType": "bytes32",
          "name": "promiseId",
          "type": "bytes32"
        },
        {
          "indexed": false,
          "internalType": "string",
          "name": "outcome1",
          "type": "string"
        },
        {
          "indexed": false,
          "internalType": "string",
          "name": "outcome2",
          "type": "string"
        },
        {
          "indexed": false,
          "internalType": "string",
          "name": "description",
          "type": "string"
        },
        {
          "indexed": false,
          "internalType": "address",
          "name": "outcome1Token",
          "type": "address"
        },
        {
          "indexed": false,
          "internalType": "address",
          "name": "outcome2Token",
          "type": "address"
        },
        {
          "indexed": false,
          "internalType": "uint256",
          "name": "reward",
          "type": "uint256"
        },
        {
          "indexed": false,
          "internalType": "uint256",
          "name": "requiredBond",
          "type": "uint256"
        }
      ],
      "name": "promiseInitialized",
      "type": "event"
    },
    {
      "anonymous": false,
      "inputs": [
        {
          "indexed": true,
          "internalType": "bytes32",
          "name": "promiseId",
          "type": "bytes32"
        }
      ],
      "name": "promiseResolved",
      "type": "event"
    },
    {
      "inputs": [
        {
          "internalType": "bytes32",
          "name": "promiseId",
          "type": "bytes32"
        },
        {
          "internalType": "uint32",
          "name": "assertedOutcome",
          "type": "uint32"
        }
      ],
      "name": "assertPromise",
      "outputs": [
        {
          "internalType": "bytes32",
          "name": "assertionId",
          "type": "bytes32"
        }
      ],
      "stateMutability": "nonpayable",
      "type": "function"
    },
    {
      "inputs": [
        {
          "internalType": "bytes32",
          "name": "",
          "type": "bytes32"
        }
      ],
      "name": "assertedPromises",
      "outputs": [
        {
          "internalType": "address",
          "name": "asserter",
          "type": "address"
        },
        {
          "internalType": "bytes32",
          "name": "promiseId",
          "type": "bytes32"
        }
      ],
      "stateMutability": "view",
      "type": "function"
    },
    {
      "inputs": [
        {
          "internalType": "bytes32",
          "name": "assertionId",
          "type": "bytes32"
        }
      ],
      "name": "assertionDisputedCallback",
      "outputs": [],
      "stateMutability": "nonpayable",
      "type": "function"
    },
    {
      "inputs": [
        {
          "internalType": "bytes32",
          "name": "assertionId",
          "type": "bytes32"
        },
        {
          "internalType": "bool",
          "name": "assertedTruthfully",
          "type": "bool"
        }
      ],
      "name": "assertionResolvedCallback",
      "outputs": [],
      "stateMutability": "nonpayable",
      "type": "function"
    },
    {
      "inputs": [
        {
          "internalType": "string",
          "name": "statement",
          "type": "string"
        },
        {
          "internalType": "string",
          "name": "sismoSignature",
          "type": "string"
        },
        {
          "internalType": "bytes",
          "name": "responseSismo",
          "type": "bytes"
        }
      ],
      "name": "createPromise",
      "outputs": [
        {
          "internalType": "bytes32",
          "name": "promiseId",
          "type": "bytes32"
        }
      ],
      "stateMutability": "nonpayable",
      "type": "function"
    },
    {
      "inputs": [],
      "name": "currency",
      "outputs": [
        {
          "internalType": "contract IERC20",
          "name": "",
          "type": "address"
        }
      ],
      "stateMutability": "view",
      "type": "function"
    },
    {
      "inputs": [],
      "name": "defaultIdentifier",
      "outputs": [
        {
          "internalType": "bytes32",
          "name": "",
          "type": "bytes32"
        }
      ],
      "stateMutability": "view",
      "type": "function"
    },
    {
      "inputs": [],
      "name": "oneDayInBlocks",
      "outputs": [
        {
          "internalType": "uint64",
          "name": "",
          "type": "uint64"
        }
      ],
      "stateMutability": "view",
      "type": "function"
    },
    {
      "inputs": [],
      "name": "oo",
      "outputs": [
        {
          "internalType": "contract OptimisticOracleV3Interface",
          "name": "",
          "type": "address"
        }
      ],
      "stateMutability": "view",
      "type": "function"
    },
    {
      "inputs": [
        {
          "internalType": "uint256",
          "name": "",
          "type": "uint256"
        }
      ],
      "name": "promiseArr",
      "outputs": [
        {
          "internalType": "bytes32",
          "name": "promiseId",
          "type": "bytes32"
        },
        {
          "internalType": "address",
          "name": "politician",
          "type": "address"
        },
        {
          "internalType": "string",
          "name": "statement",
          "type": "string"
        },
        {
          "internalType": "uint256",
          "name": "stake",
          "type": "uint256"
        },
        {
          "internalType": "uint32",
          "name": "assertedOutcome",
          "type": "uint32"
        },
        {
          "internalType": "uint32",
          "name": "payedOutcome",
          "type": "uint32"
        },
        {
          "internalType": "bool",
          "name": "resolved",
          "type": "bool"
        }
      ],
      "stateMutability": "view",
      "type": "function"
    },
    {
      "inputs": [
        {
          "internalType": "bytes32",
          "name": "",
          "type": "bytes32"
        }
      ],
      "name": "promises",
      "outputs": [
        {
          "internalType": "bytes32",
          "name": "promiseId",
          "type": "bytes32"
        },
        {
          "internalType": "address",
          "name": "politician",
          "type": "address"
        },
        {
          "internalType": "string",
          "name": "statement",
          "type": "string"
        },
        {
          "internalType": "uint256",
          "name": "stake",
          "type": "uint256"
        },
        {
          "internalType": "uint32",
          "name": "assertedOutcome",
          "type": "uint32"
        },
        {
          "internalType": "uint32",
          "name": "payedOutcome",
          "type": "uint32"
        },
        {
          "internalType": "bool",
          "name": "resolved",
          "type": "bool"
        }
      ],
      "stateMutability": "view",
      "type": "function"
    },
    {
      "inputs": [],
      "name": "sismoVerifier",
      "outputs": [
        {
          "internalType": "contract ISismoVerifier",
          "name": "",
          "type": "address"
        }
      ],
      "stateMutability": "view",
      "type": "function"
    },
    {
      "inputs": [
        {
          "internalType": "bytes32",
          "name": "promiseId",
          "type": "bytes32"
        },
        {
          "internalType": "string",
          "name": "sismoSignature",
          "type": "string"
        },
        {
          "internalType": "bytes",
          "name": "responseSismo",
          "type": "bytes"
        }
      ],
      "name": "stakeForPromise",
      "outputs": [],
      "stateMutability": "payable",
      "type": "function"
    }
  ],
  "bytecode": "0x60e06040523480156200001157600080fd5b5060405162001d8f38038062001d8f8339810160408190526200003491620000f4565b6001600160a01b03808416608052821660a08190526040805163d509b01760e01b8152905163d509b017916004808201926020929091908290030181865afa15801562000085573d6000803e3d6000fd5b505050506040513d601f19601f82011682018060405250810190620000ab91906200013e565b60c052600080546001600160a01b0319166001600160a01b039290921691909117905550620001589050565b80516001600160a01b0381168114620000ef57600080fd5b919050565b6000806000606084860312156200010a57600080fd5b6200011584620000d7565b92506200012560208501620000d7565b91506200013560408501620000d7565b90509250925092565b6000602082840312156200015157600080fd5b5051919050565b60805160a05160c051611bc1620001ce6000396000818161021e01526110aa01526000818161018c015281816104a70152818161061201528181610ceb015261104d0152600081816102b101528181610471015281816105bb015281816105f001528181610dff01526110860152611bc16000f3fe6080604052600436106100c25760003560e01c8063cc2f84cb1161007f578063dbb6b00f11610059578063dbb6b00f14610240578063e5a6b10f1461029f578063f1b156b2146102d3578063f2978d98146102f357600080fd5b8063cc2f84cb146101ce578063d448a4ec146101ee578063d509b0171461020c57600080fd5b806309c977e4146100c7578063162a11f5146100fa578063199206a41461013257806335c63e93146101475780638921a6141461017a5780639c2494c7146101ae575b600080fd5b3480156100d357600080fd5b506100e76100e2366004611398565b610322565b6040519081526020015b60405180910390f35b34801561010657600080fd5b5060005461011a906001600160a01b031681565b6040516001600160a01b0390911681526020016100f1565b610145610140366004611474565b6106d9565b005b34801561015357600080fd5b506101676101623660046114e1565b610848565b6040516100f1979695949392919061154a565b34801561018657600080fd5b5061011a7f000000000000000000000000000000000000000000000000000000000000000081565b3480156101ba57600080fd5b506100e76101c93660046115a3565b61093a565b3480156101da57600080fd5b506101676101e93660046114e1565b610cad565b3480156101fa57600080fd5b506101456102093660046114e1565b50565b34801561021857600080fd5b506100e77f000000000000000000000000000000000000000000000000000000000000000081565b34801561024c57600080fd5b5061028061025b3660046114e1565b600260205260009081526040902080546001909101546001600160a01b039091169082565b604080516001600160a01b0390931683526020830191909152016100f1565b3480156102ab57600080fd5b5061011a7f000000000000000000000000000000000000000000000000000000000000000081565b3480156102df57600080fd5b506101456102ee366004611600565b610ce0565b3480156102ff57600080fd5b50610309611c2081565b60405167ffffffffffffffff90911681526020016100f1565b60008281526001602081905260408220908101546001600160a01b03166103895760405162461bcd60e51b81526020600482015260166024820152751c1c9bdb5a5cd948191bd95cc81b9bdd08195e1a5cdd60521b60448201526064015b60405180910390fd5b60008363ffffffff161180156103a6575060648363ffffffff1611155b6103f25760405162461bcd60e51b815260206004820152601e60248201527f70657263656e74616765206f7574736964652076616c69642072616e676500006044820152606401610380565b600481015463ffffffff161561044a5760405162461bcd60e51b815260206004820152601c60248201527f417373657274696f6e20616374697665206f72207265736f6c766564000000006044820152606401610380565b6004818101805463ffffffff191663ffffffff8616179055604051634360af3d60e01b81527f00000000000000000000000000000000000000000000000000000000000000006001600160a01b03908116928201929092526000917f00000000000000000000000000000000000000000000000000000000000000001690634360af3d90602401602060405180830381865afa1580156104ee573d6000803e3d6000fd5b505050506040513d601f19601f820116820180604052508101906105129190611625565b905060006105ac858460020180546105299061163e565b80601f01602080910402602001604051908101604052809291908181526020018280546105559061163e565b80156105a25780601f10610577576101008083540402835291602001916105a2565b820191906000526020600020905b81548152906001019060200180831161058557829003601f168201915b5050505050610e7b565b90506105e36001600160a01b037f000000000000000000000000000000000000000000000000000000000000000016333085610ea8565b6106376001600160a01b037f0000000000000000000000000000000000000000000000000000000000000000167f000000000000000000000000000000000000000000000000000000000000000084610f19565b6106418183611033565b60408051808201825233815260208082018a815260008581526002808452858220945185546001600160a01b0319166001600160a01b0390911617855591516001948501558b815292909152908290209151929650869289927ffc277fb088ac1d3decd10c06016f23f6e0376fe72677c7779352ad11947b3539926106c892910190611678565b60405180910390a350505092915050565b6000546040516001600160a01b03909116906381d6ef2d908390610701908690602001611703565b6040516020818303038152906040526040518363ffffffff1660e01b815260040161072d92919061171f565b600060405180830381600087803b15801561074757600080fd5b505af115801561075b573d6000803e3d6000fd5b505050600084815260016020819052604090912001546001600160a01b031690506107c15760405162461bcd60e51b8152602060048201526016602482015275141c9bdb5a5cd948191bd95cc81b9bdd08195e1a5cdd60521b6044820152606401610380565b6000341161081d5760405162461bcd60e51b8152602060048201526024808201527f4d7573742073656e642045544820746f207374616b6520666f7220612070726f6044820152636d69736560e01b6064820152608401610380565b6000838152600160205260408120600301805434929061083e908490611763565b9091555050505050565b6003818154811061085857600080fd5b60009182526020909120600590910201805460018201546002830180549294506001600160a01b03909116929161088e9061163e565b80601f01602080910402602001604051908101604052809291908181526020018280546108ba9061163e565b80156109075780601f106108dc57610100808354040283529160200191610907565b820191906000526020600020905b8154815290600101906020018083116108ea57829003601f168201915b50505050600383015460049093015491929163ffffffff808216925064010000000082041690600160401b900460ff1687565b600080546040516001600160a01b039091169063bbc4cf0c908490610963908790602001611776565b6040516020818303038152906040526040518363ffffffff1660e01b815260040161098f92919061171f565b600060405180830381600087803b1580156109a957600080fd5b505af11580156109bd573d6000803e3d6000fd5b5050505083336040516020016109d4929190611789565b60408051601f198184030181529181528151602092830120600081815260019384905291909120909101549091506001600160a01b031615610a515760405162461bcd60e51b815260206004820152601660248201527570726f6d69736520616c72656164792065786973747360501b6044820152606401610380565b6040805160e0810182528281523360208083019182528284018881526000606085018190526080850181905260a0850181905260c085018190528681526001928390529490942083518155915190820180546001600160a01b0319166001600160a01b0390921691909117905591519091906002820190610ad29082611801565b50606082015160038083019190915560808301516004909201805460a085015160c0909501511515600160401b0260ff60401b1963ffffffff9687166401000000000267ffffffffffffffff1990931696909516959095171792909216929092179055600082815260016020819052604082208354808301855593909252815460059093027fc2575a0e9e593c00f959f8c92f12db2869c3395a3b0502d05e2516446f71f85b8101938455908201547fc2575a0e9e593c00f959f8c92f12db2869c3395a3b0502d05e2516446f71f85c820180546001600160a01b0319166001600160a01b039092169190911790559091907fc2575a0e9e593c00f959f8c92f12db2869c3395a3b0502d05e2516446f71f85d01610bf360028401826118c1565b50600382810154908201556004918201805492909101805463ffffffff93841663ffffffff19821681178355835467ffffffffffffffff1990921617640100000000918290049094160292909217808355905460ff60401b19909116600160401b9182900460ff16151590910217905560405181907f35c188503eac0a4579ece673a6b5c27145329435947ac3b24b9b6ce1f07df8ac90610c9e90879060009081908190819061199c565b60405180910390a29392505050565b60016020819052600091825260409091208054918101546002820180546001600160a01b03909216929161088e9061163e565b336001600160a01b037f00000000000000000000000000000000000000000000000000000000000000001614610d495760405162461bcd60e51b815260206004820152600e60248201526d139bdd08185d5d1a1bdc9a5e995960921b6044820152606401610380565b6000828152600260209081526040808320600190810154845290915290208115610e695760048101805460ff60401b1916600160401b179055600381015415610e2e576003810154600482015460009190610db49063ffffffff640100000000820481169116611a15565b63ffffffff16610dc49190611a39565b60048301805467ffffffff0000000019811663ffffffff91821664010000000002179091556001840154919250610e2c916001600160a01b037f0000000000000000000000000000000000000000000000000000000000000000811692911690849061111e16565b505b60008381526002602052604080822060010154905190917fbe0f41ebe98cbb9d779ee222989fb0ca4862011ce32be4371c9e7518958a7b0d91a25b600401805463ffffffff191690555050565b60608282604051602001610e90929190611a58565b60405160208183030381529060405290505b92915050565b6040516001600160a01b0380851660248301528316604482015260648101829052610f139085906323b872dd60e01b906084015b60408051601f198184030181529190526020810180516001600160e01b03166001600160e01b03199093169290921790915261114e565b50505050565b801580610f935750604051636eb1769f60e11b81523060048201526001600160a01b03838116602483015284169063dd62ed3e90604401602060405180830381865afa158015610f6d573d6000803e3d6000fd5b505050506040513d601f19601f82011682018060405250810190610f919190611625565b155b610ffe5760405162461bcd60e51b815260206004820152603660248201527f5361666545524332303a20617070726f76652066726f6d206e6f6e2d7a65726f60448201527520746f206e6f6e2d7a65726f20616c6c6f77616e636560501b6064820152608401610380565b6040516001600160a01b03831660248201526044810182905261102e90849063095ea7b360e01b90606401610edc565b505050565b604051636457c97960e01b81526000906001600160a01b037f00000000000000000000000000000000000000000000000000000000000000001690636457c979906110d4908690339030908790611c20907f0000000000000000000000000000000000000000000000000000000000000000908b907f0000000000000000000000000000000000000000000000000000000000000000908590600401611b00565b6020604051808303816000875af11580156110f3573d6000803e3d6000fd5b505050506040513d601f19601f820116820180604052508101906111179190611625565b9392505050565b6040516001600160a01b03831660248201526044810182905261102e90849063a9059cbb60e01b90606401610edc565b60006111a3826040518060400160405280602081526020017f5361666545524332303a206c6f772d6c6576656c2063616c6c206661696c6564815250856001600160a01b03166112209092919063ffffffff16565b80519091501561102e57808060200190518101906111c19190611b6e565b61102e5760405162461bcd60e51b815260206004820152602a60248201527f5361666545524332303a204552433230206f7065726174696f6e20646964206e6044820152691bdd081cdd58d8d9595960b21b6064820152608401610380565b606061122f8484600085611237565b949350505050565b6060824710156112985760405162461bcd60e51b815260206004820152602660248201527f416464726573733a20696e73756666696369656e742062616c616e636520666f6044820152651c8818d85b1b60d21b6064820152608401610380565b843b6112e65760405162461bcd60e51b815260206004820152601d60248201527f416464726573733a2063616c6c20746f206e6f6e2d636f6e74726163740000006044820152606401610380565b600080866001600160a01b031685876040516113029190611703565b60006040518083038185875af1925050503d806000811461133f576040519150601f19603f3d011682016040523d82523d6000602084013e611344565b606091505b509150915061135482828661135f565b979650505050505050565b6060831561136e575081611117565b82511561137e5782518084602001fd5b8160405162461bcd60e51b81526004016103809190611776565b600080604083850312156113ab57600080fd5b82359150602083013563ffffffff811681146113c657600080fd5b809150509250929050565b634e487b7160e01b600052604160045260246000fd5b600082601f8301126113f857600080fd5b813567ffffffffffffffff80821115611413576114136113d1565b604051601f8301601f19908116603f0116810190828211818310171561143b5761143b6113d1565b8160405283815286602085880101111561145457600080fd5b836020870160208301376000602085830101528094505050505092915050565b60008060006060848603121561148957600080fd5b83359250602084013567ffffffffffffffff808211156114a857600080fd5b6114b4878388016113e7565b935060408601359150808211156114ca57600080fd5b506114d7868287016113e7565b9150509250925092565b6000602082840312156114f357600080fd5b5035919050565b60005b838110156115155781810151838201526020016114fd565b50506000910152565b600081518084526115368160208601602086016114fa565b601f01601f19169290920160200192915050565b8781526001600160a01b038716602082015260e0604082018190526000906115749083018861151e565b60608301969096525063ffffffff93841660808201529190921660a082015290151560c0909101529392505050565b6000806000606084860312156115b857600080fd5b833567ffffffffffffffff808211156115d057600080fd5b6115dc878388016113e7565b945060208601359150808211156114a857600080fd5b801515811461020957600080fd5b6000806040838503121561161357600080fd5b8235915060208301356113c6816115f2565b60006020828403121561163757600080fd5b5051919050565b600181811c9082168061165257607f821691505b60208210810361167257634e487b7160e01b600052602260045260246000fd5b50919050565b600060208083526000845461168c8161163e565b808487015260406001808416600081146116ad57600181146116c7576116f5565b60ff1985168984015283151560051b8901830195506116f5565b896000528660002060005b858110156116ed5781548b82018601529083019088016116d2565b8a0184019650505b509398975050505050505050565b600082516117158184602087016114fa565b9190910192915050565b604081526000611732604083018561151e565b8281036020840152611744818561151e565b95945050505050565b634e487b7160e01b600052601160045260246000fd5b80820180821115610ea257610ea261174d565b602081526000611117602083018461151e565b60408152600061179c604083018561151e565b905060018060a01b03831660208301529392505050565b601f82111561102e57600081815260208120601f850160051c810160208610156117da5750805b601f850160051c820191505b818110156117f9578281556001016117e6565b505050505050565b815167ffffffffffffffff81111561181b5761181b6113d1565b61182f81611829845461163e565b846117b3565b602080601f831160018114611864576000841561184c5750858301515b600019600386901b1c1916600185901b1785556117f9565b600085815260208120601f198616915b8281101561189357888601518255948401946001909101908401611874565b50858210156118b15787850151600019600388901b60f8161c191681555b5050505050600190811b01905550565b8181036118cc575050565b6118d6825461163e565b67ffffffffffffffff8111156118ee576118ee6113d1565b6118fc81611829845461163e565b6000601f82116001811461193057600083156119185750848201545b600019600385901b1c1916600184901b178455611995565b600085815260209020601f19841690600086815260209020845b8381101561196a578286015482556001958601959091019060200161194a565b50858310156119885781850154600019600388901b60f8161c191681555b50505060018360011b0184555b5050505050565b60e08152600360e08201526259657360e81b610100820152600061012080602084015260028184015250614e6f60f01b6101408301526101608060408401526119e78184018961151e565b6001600160a01b0397881660608501529590961660808301525060a081019290925260c09091015292915050565b63ffffffff828116828216039080821115611a3257611a3261174d565b5092915050565b6000816000190483118215151615611a5357611a5361174d565b500290565b7f447572696e672074686520656c656374656420706572696f642074686520646581527f736372696265642070726f6d69736520686173206265656e2066756c66696c6c602082015264656420746f60d81b604082015263ffffffff60e01b8360e01b1660458201527201296103a343290383937b6b4b9b29034b99d1606d1b604982015260008251611af281605c8501602087016114fa565b91909101605c019392505050565b6000610120808352611b148184018d61151e565b6001600160a01b039b8c166020850152998b1660408401525050958816606087015267ffffffffffffffff9490941660808601529190951660a084015260c083019490945260e08201939093526101000191909152919050565b600060208284031215611b8057600080fd5b8151611117816115f256fea26469706673582212205fcbd457abb579e9b0e0e0b31261b9c41aa3729f7b7c8d7bdbfe84417bc03a2864736f6c63430008100033",
  "linkReferences": {},
  "deployedLinkReferences": {}
}