{
  "_format": "hh-sol-artifact-1",
  "contractName": "PromiseEscrow",
  "sourceName": "contracts/PromiseEscrow.sol",
  "abi": [
    {
      "inputs": [
        {
          "internalType": "address",
          "name": "_collectionA",
          "type": "address"
        },
        {
          "internalType": "address",
          "name": "_collectionB",
          "type": "address"
        }
      ],
      "stateMutability": "nonpayable",
      "type": "constructor"
    },
    {
      "inputs": [],
      "name": "collectionA",
      "outputs": [
        {
          "internalType": "contract IERC721",
          "name": "",
          "type": "address"
        }
      ],
      "stateMutability": "view",
      "type": "function"
    },
    {
      "inputs": [],
      "name": "collectionB",
      "outputs": [
        {
          "internalType": "contract IERC721",
          "name": "",
          "type": "address"
        }
      ],
      "stateMutability": "view",
      "type": "function"
    },
    {
      "inputs": [
        {
          "internalType": "string",
          "name": "statement",
          "type": "string"
        },
        {
          "internalType": "uint256",
          "name": "_endBlock",
          "type": "uint256"
        }
      ],
      "name": "createPromise",
      "outputs": [],
      "stateMutability": "nonpayable",
      "type": "function"
    },
    {
      "inputs": [],
      "name": "promiseCount",
      "outputs": [
        {
          "internalType": "uint256",
          "name": "",
          "type": "uint256"
        }
      ],
      "stateMutability": "view",
      "type": "function"
    },
    {
      "inputs": [
        {
          "internalType": "uint256",
          "name": "",
          "type": "uint256"
        }
      ],
      "name": "promises",
      "outputs": [
        {
          "internalType": "string",
          "name": "statement",
          "type": "string"
        },
        {
          "internalType": "address",
          "name": "politician",
          "type": "address"
        },
        {
          "internalType": "uint256",
          "name": "endBlock",
          "type": "uint256"
        },
        {
          "internalType": "uint256",
          "name": "stake",
          "type": "uint256"
        }
      ],
      "stateMutability": "view",
      "type": "function"
    },
    {
      "inputs": [
        {
          "internalType": "uint256",
          "name": "promiseID",
          "type": "uint256"
        }
      ],
      "name": "stakeForPromise",
      "outputs": [],
      "stateMutability": "payable",
      "type": "function"
    },
    {
      "inputs": [
        {
          "internalType": "uint256",
          "name": "promiseID",
          "type": "uint256"
        },
        {
          "internalType": "bool",
          "name": "vote",
          "type": "bool"
        }
      ],
      "name": "voteForPromise",
      "outputs": [],
      "stateMutability": "nonpayable",
      "type": "function"
    },
    {
      "inputs": [
        {
          "internalType": "uint256",
          "name": "",
          "type": "uint256"
        }
      ],
      "name": "votes",
      "outputs": [
        {
          "internalType": "uint256",
          "name": "totalVotes",
          "type": "uint256"
        },
        {
          "internalType": "uint256",
          "name": "positiveVotes",
          "type": "uint256"
        }
      ],
      "stateMutability": "view",
      "type": "function"
    },
    {
      "inputs": [
        {
          "internalType": "uint256",
          "name": "promiseID",
          "type": "uint256"
        }
      ],
      "name": "withdraw",
      "outputs": [],
      "stateMutability": "nonpayable",
      "type": "function"
    }
  ],
  "bytecode": "0x608060405260006002553480156200001657600080fd5b5060405162001bc238038062001bc283398181016040528101906200003c91906200012f565b816000806101000a81548173ffffffffffffffffffffffffffffffffffffffff021916908373ffffffffffffffffffffffffffffffffffffffff16021790555080600160006101000a81548173ffffffffffffffffffffffffffffffffffffffff021916908373ffffffffffffffffffffffffffffffffffffffff160217905550505062000176565b600080fd5b600073ffffffffffffffffffffffffffffffffffffffff82169050919050565b6000620000f782620000ca565b9050919050565b6200010981620000ea565b81146200011557600080fd5b50565b6000815190506200012981620000fe565b92915050565b60008060408385031215620001495762000148620000c5565b5b6000620001598582860162000118565b92505060206200016c8582860162000118565b9150509250929050565b611a3c80620001866000396000f3fe6080604052600436106100865760003560e01c80635df81330116100595780635df813301461013b57806365019bd914610179578063ba85bc94146101a4578063c838e6b8146101cf578063d692d350146101f857610086565b80631338e8731461008b5780631f06c859146100a757806322261431146100e75780632e1a7d4d14610112575b600080fd5b6100a560048036038101906100a09190610cac565b610221565b005b3480156100b357600080fd5b506100ce60048036038101906100c99190610cac565b6103b7565b6040516100de9493929190610db9565b60405180910390f35b3480156100f357600080fd5b506100fc61048f565b6040516101099190610e05565b60405180910390f35b34801561011e57600080fd5b5061013960048036038101906101349190610cac565b610495565b005b34801561014757600080fd5b50610162600480360381019061015d9190610cac565b61077b565b604051610170929190610e20565b60405180910390f35b34801561018557600080fd5b5061018e61079f565b60405161019b9190610ea8565b60405180910390f35b3480156101b057600080fd5b506101b96107c3565b6040516101c69190610ea8565b60405180910390f35b3480156101db57600080fd5b506101f660048036038101906101f19190610efb565b6107e9565b005b34801561020457600080fd5b5061021f600480360381019061021a9190611070565b610aa8565b005b600254811015610266576040517f08c379a000000000000000000000000000000000000000000000000000000000815260040161025d90611118565b60405180910390fd5b6000600160009054906101000a900473ffffffffffffffffffffffffffffffffffffffff1673ffffffffffffffffffffffffffffffffffffffff166370a08231336040518263ffffffff1660e01b81526004016102c39190611138565b602060405180830381865afa1580156102e0573d6000803e3d6000fd5b505050506040513d601f19601f820116820180604052508101906103049190611168565b11610344576040517f08c379a000000000000000000000000000000000000000000000000000000000815260040161033b90611207565b60405180910390fd5b60003411610387576040517f08c379a000000000000000000000000000000000000000000000000000000000815260040161037e90611299565b60405180910390fd5b346003600083815260200190815260200160002060030160008282546103ad91906112e8565b9250508190555050565b60036020528060005260406000206000915090508060000180546103da9061134b565b80601f01602080910402602001604051908101604052809291908181526020018280546104069061134b565b80156104535780601f1061042857610100808354040283529160200191610453565b820191906000526020600020905b81548152906001019060200180831161043657829003601f168201915b5050505050908060010160009054906101000a900473ffffffffffffffffffffffffffffffffffffffff16908060020154908060030154905084565b60025481565b6002548110156104da576040517f08c379a00000000000000000000000000000000000000000000000000000000081526004016104d190611118565b60405180910390fd5b6000600360008381526020019081526020016000206003015411610533576040517f08c379a000000000000000000000000000000000000000000000000000000000815260040161052a906113ee565b60405180910390fd5b6064600360008381526020019081526020016000206002015461055691906112e8565b431015610598576040517f08c379a000000000000000000000000000000000000000000000000000000000815260040161058f9061145a565b60405180910390fd5b600060046000838152602001908152602001600020905060008160000154116105f6576040517f08c379a00000000000000000000000000000000000000000000000000000000081526004016105ed906114c6565b60405180910390fd5b80600001546002826001015461060c91906114e6565b10610717576003600083815260200190815260200160002060010160009054906101000a900473ffffffffffffffffffffffffffffffffffffffff1673ffffffffffffffffffffffffffffffffffffffff163373ffffffffffffffffffffffffffffffffffffffff16146106b5576040517f08c379a00000000000000000000000000000000000000000000000000000000081526004016106ac9061159a565b60405180910390fd5b3373ffffffffffffffffffffffffffffffffffffffff166108fc60036000858152602001908152602001600020600301549081150290604051600060405180830381858888f19350505050158015610711573d6000803e3d6000fd5b50610777565b61dead73ffffffffffffffffffffffffffffffffffffffff166108fc60036000858152602001908152602001600020600301549081150290604051600060405180830381858888f19350505050158015610775573d6000803e3d6000fd5b505b5050565b60046020528060005260406000206000915090508060000154908060010154905082565b60008054906101000a900473ffffffffffffffffffffffffffffffffffffffff1681565b600160009054906101000a900473ffffffffffffffffffffffffffffffffffffffff1681565b60025482101561082e576040517f08c379a000000000000000000000000000000000000000000000000000000000815260040161082590611118565b60405180910390fd5b43600360008481526020019081526020016000206002015411610886576040517f08c379a000000000000000000000000000000000000000000000000000000000815260040161087d9061162c565b60405180910390fd5b6000600160009054906101000a900473ffffffffffffffffffffffffffffffffffffffff1673ffffffffffffffffffffffffffffffffffffffff166370a08231336040518263ffffffff1660e01b81526004016108e39190611138565b602060405180830381865afa158015610900573d6000803e3d6000fd5b505050506040513d601f19601f820116820180604052508101906109249190611168565b11610964576040517f08c379a000000000000000000000000000000000000000000000000000000000815260040161095b90611207565b60405180910390fd5b60006004600084815260200190815260200160002090508060020160003373ffffffffffffffffffffffffffffffffffffffff1673ffffffffffffffffffffffffffffffffffffffff16815260200190815260200160002060009054906101000a900460ff1615610a0a576040517f08c379a0000000000000000000000000000000000000000000000000000000008152600401610a0190611698565b60405180910390fd5b60018160020160003373ffffffffffffffffffffffffffffffffffffffff1673ffffffffffffffffffffffffffffffffffffffff16815260200190815260200160002060006101000a81548160ff0219169083151502179055506001816000016000828254610a7991906112e8565b925050819055508115610aa3576001816001016000828254610a9b91906112e8565b925050819055505b505050565b60008060009054906101000a900473ffffffffffffffffffffffffffffffffffffffff1673ffffffffffffffffffffffffffffffffffffffff166370a08231336040518263ffffffff1660e01b8152600401610b049190611138565b602060405180830381865afa158015610b21573d6000803e3d6000fd5b505050506040513d601f19601f82011682018060405250810190610b459190611168565b11610b85576040517f08c379a0000000000000000000000000000000000000000000000000000000008152600401610b7c9061172a565b60405180910390fd5b60405180608001604052808381526020013373ffffffffffffffffffffffffffffffffffffffff16815260200182815260200160008152506003600060025481526020019081526020016000206000820151816000019081610be791906118ec565b5060208201518160010160006101000a81548173ffffffffffffffffffffffffffffffffffffffff021916908373ffffffffffffffffffffffffffffffffffffffff160217905550604082015181600201556060820151816003015590505060026000815480929190610c59906119be565b91905055505050565b6000604051905090565b600080fd5b600080fd5b6000819050919050565b610c8981610c76565b8114610c9457600080fd5b50565b600081359050610ca681610c80565b92915050565b600060208284031215610cc257610cc1610c6c565b5b6000610cd084828501610c97565b91505092915050565b600081519050919050565b600082825260208201905092915050565b60005b83811015610d13578082015181840152602081019050610cf8565b60008484015250505050565b6000601f19601f8301169050919050565b6000610d3b82610cd9565b610d458185610ce4565b9350610d55818560208601610cf5565b610d5e81610d1f565b840191505092915050565b600073ffffffffffffffffffffffffffffffffffffffff82169050919050565b6000610d9482610d69565b9050919050565b610da481610d89565b82525050565b610db381610c76565b82525050565b60006080820190508181036000830152610dd38187610d30565b9050610de26020830186610d9b565b610def6040830185610daa565b610dfc6060830184610daa565b95945050505050565b6000602082019050610e1a6000830184610daa565b92915050565b6000604082019050610e356000830185610daa565b610e426020830184610daa565b9392505050565b6000819050919050565b6000610e6e610e69610e6484610d69565b610e49565b610d69565b9050919050565b6000610e8082610e53565b9050919050565b6000610e9282610e75565b9050919050565b610ea281610e87565b82525050565b6000602082019050610ebd6000830184610e99565b92915050565b60008115159050919050565b610ed881610ec3565b8114610ee357600080fd5b50565b600081359050610ef581610ecf565b92915050565b60008060408385031215610f1257610f11610c6c565b5b6000610f2085828601610c97565b9250506020610f3185828601610ee6565b9150509250929050565b600080fd5b600080fd5b7f4e487b7100000000000000000000000000000000000000000000000000000000600052604160045260246000fd5b610f7d82610d1f565b810181811067ffffffffffffffff82111715610f9c57610f9b610f45565b5b80604052505050565b6000610faf610c62565b9050610fbb8282610f74565b919050565b600067ffffffffffffffff821115610fdb57610fda610f45565b5b610fe482610d1f565b9050602081019050919050565b82818337600083830152505050565b600061101361100e84610fc0565b610fa5565b90508281526020810184848401111561102f5761102e610f40565b5b61103a848285610ff1565b509392505050565b600082601f83011261105757611056610f3b565b5b8135611067848260208601611000565b91505092915050565b6000806040838503121561108757611086610c6c565b5b600083013567ffffffffffffffff8111156110a5576110a4610c71565b5b6110b185828601611042565b92505060206110c285828601610c97565b9150509250929050565b7f50726f6d69736520646f6573206e6f7420657869737400000000000000000000600082015250565b6000611102601683610ce4565b915061110d826110cc565b602082019050919050565b60006020820190508181036000830152611131816110f5565b9050919050565b600060208201905061114d6000830184610d9b565b92915050565b60008151905061116281610c80565b92915050565b60006020828403121561117e5761117d610c6c565b5b600061118c84828501611153565b91505092915050565b7f4d757374206f776e20616e204e46542066726f6d20636f6c6c656374696f6e2060008201527f4200000000000000000000000000000000000000000000000000000000000000602082015250565b60006111f1602183610ce4565b91506111fc82611195565b604082019050919050565b60006020820190508181036000830152611220816111e4565b9050919050565b7f4d7573742073656e642045544820746f207374616b6520666f7220612070726f60008201527f6d69736500000000000000000000000000000000000000000000000000000000602082015250565b6000611283602483610ce4565b915061128e82611227565b604082019050919050565b600060208201905081810360008301526112b281611276565b9050919050565b7f4e487b7100000000000000000000000000000000000000000000000000000000600052601160045260246000fd5b60006112f382610c76565b91506112fe83610c76565b9250828201905080821115611316576113156112b9565b5b92915050565b7f4e487b7100000000000000000000000000000000000000000000000000000000600052602260045260246000fd5b6000600282049050600182168061136357607f821691505b6020821081036113765761137561131c565b5b50919050565b7f4e6f20455448206465706f736974656420666f7220746869732070726f6d697360008201527f6500000000000000000000000000000000000000000000000000000000000000602082015250565b60006113d8602183610ce4565b91506113e38261137c565b604082019050919050565b60006020820190508181036000830152611407816113cb565b9050919050565b7f566f74696e6720706572696f6420686173206e6f7420656e6465642079657400600082015250565b6000611444601f83610ce4565b915061144f8261140e565b602082019050919050565b6000602082019050818103600083015261147381611437565b9050919050565b7f4e6f20766f746573206361737420666f7220746869732070726f6d6973650000600082015250565b60006114b0601e83610ce4565b91506114bb8261147a565b602082019050919050565b600060208201905081810360008301526114df816114a3565b9050919050565b60006114f182610c76565b91506114fc83610c76565b925082820261150a81610c76565b91508282048414831517611521576115206112b9565b5b5092915050565b7f4f6e6c79207468652070726f6d69736527732063726561746f722063616e207760008201527f6974686472617700000000000000000000000000000000000000000000000000602082015250565b6000611584602783610ce4565b915061158f82611528565b604082019050919050565b600060208201905081810360008301526115b381611577565b9050919050565b7f566f74696e6720706572696f6420686173206e6f74207374617274656420796560008201527f7400000000000000000000000000000000000000000000000000000000000000602082015250565b6000611616602183610ce4565b9150611621826115ba565b604082019050919050565b6000602082019050818103600083015261164581611609565b9050919050565b7f596f75206861766520616c726561647920766f74656400000000000000000000600082015250565b6000611682601683610ce4565b915061168d8261164c565b602082019050919050565b600060208201905081810360008301526116b181611675565b9050919050565b7f4d757374206f776e20616e204e46542066726f6d20636f6c6c656374696f6e2060008201527f4100000000000000000000000000000000000000000000000000000000000000602082015250565b6000611714602183610ce4565b915061171f826116b8565b604082019050919050565b6000602082019050818103600083015261174381611707565b9050919050565b60008190508160005260206000209050919050565b60006020601f8301049050919050565b600082821b905092915050565b6000600883026117ac7fffffffffffffffffffffffffffffffffffffffffffffffffffffffffffffffff8261176f565b6117b6868361176f565b95508019841693508086168417925050509392505050565b60006117e96117e46117df84610c76565b610e49565b610c76565b9050919050565b6000819050919050565b611803836117ce565b61181761180f826117f0565b84845461177c565b825550505050565b600090565b61182c61181f565b6118378184846117fa565b505050565b5b8181101561185b57611850600082611824565b60018101905061183d565b5050565b601f8211156118a0576118718161174a565b61187a8461175f565b81016020851015611889578190505b61189d6118958561175f565b83018261183c565b50505b505050565b600082821c905092915050565b60006118c3600019846008026118a5565b1980831691505092915050565b60006118dc83836118b2565b9150826002028217905092915050565b6118f582610cd9565b67ffffffffffffffff81111561190e5761190d610f45565b5b611918825461134b565b61192382828561185f565b600060209050601f8311600181146119565760008415611944578287015190505b61194e85826118d0565b8655506119b6565b601f1984166119648661174a565b60005b8281101561198c57848901518255600182019150602085019450602081019050611967565b868310156119a957848901516119a5601f8916826118b2565b8355505b6001600288020188555050505b505050505050565b60006119c982610c76565b91507fffffffffffffffffffffffffffffffffffffffffffffffffffffffffffffffff82036119fb576119fa6112b9565b5b60018201905091905056fea26469706673582212202a0f71c3f0e8272dfbb4b31b6540f1cfadf31e7d61fc13bed79b2c4263ab419164736f6c63430008110033",
  "linkReferences": {},
  "deployedLinkReferences": {}
}