{
  "_format": "hh-sol-artifact-1",
  "contractName": "PromiseEscrow",
  "sourceName": "contracts/PromiseEscrow.sol",
  "abi": [
    {
      "inputs": [
        {
          "internalType": "address",
          "name": "_currency",
          "type": "address"
        },
        {
          "internalType": "address",
          "name": "_optimisticOracleV3",
          "type": "address"
        },
        {
          "internalType": "address",
          "name": "_sismoVerifier",
          "type": "address"
        }
      ],
      "stateMutability": "nonpayable",
      "type": "constructor"
    },
    {
      "anonymous": false,
      "inputs": [
        {
          "indexed": true,
          "internalType": "bytes32",
          "name": "promiseId",
          "type": "bytes32"
        },
        {
          "indexed": true,
          "internalType": "address",
          "name": "account",
          "type": "address"
        },
        {
          "indexed": false,
          "internalType": "uint256",
          "name": "tokensCreated",
          "type": "uint256"
        }
      ],
      "name": "TokensCreated",
      "type": "event"
    },
    {
      "anonymous": false,
      "inputs": [
        {
          "indexed": true,
          "internalType": "bytes32",
          "name": "promiseId",
          "type": "bytes32"
        },
        {
          "indexed": true,
          "internalType": "address",
          "name": "account",
          "type": "address"
        },
        {
          "indexed": false,
          "internalType": "uint256",
          "name": "tokensRedeemed",
          "type": "uint256"
        }
      ],
      "name": "TokensRedeemed",
      "type": "event"
    },
    {
      "anonymous": false,
      "inputs": [
        {
          "indexed": true,
          "internalType": "bytes32",
          "name": "promiseId",
          "type": "bytes32"
        },
        {
          "indexed": true,
          "internalType": "address",
          "name": "account",
          "type": "address"
        },
        {
          "indexed": false,
          "internalType": "uint256",
          "name": "payout",
          "type": "uint256"
        },
        {
          "indexed": false,
          "internalType": "uint256",
          "name": "outcome1Tokens",
          "type": "uint256"
        },
        {
          "indexed": false,
          "internalType": "uint256",
          "name": "outcome2Tokens",
          "type": "uint256"
        }
      ],
      "name": "TokensSettled",
      "type": "event"
    },
    {
      "anonymous": false,
      "inputs": [
        {
          "indexed": true,
          "internalType": "bytes32",
          "name": "promiseId",
          "type": "bytes32"
        },
        {
          "indexed": false,
          "internalType": "string",
          "name": "assertedOutcome",
          "type": "string"
        },
        {
          "indexed": true,
          "internalType": "bytes32",
          "name": "assertionId",
          "type": "bytes32"
        }
      ],
      "name": "promiseAsserted",
      "type": "event"
    },
    {
      "anonymous": false,
      "inputs": [
        {
          "indexed": true,
          "internalType": "bytes32",
          "name": "promiseId",
          "type": "bytes32"
        },
        {
          "indexed": false,
          "internalType": "string",
          "name": "outcome1",
          "type": "string"
        },
        {
          "indexed": false,
          "internalType": "string",
          "name": "outcome2",
          "type": "string"
        },
        {
          "indexed": false,
          "internalType": "string",
          "name": "description",
          "type": "string"
        },
        {
          "indexed": false,
          "internalType": "address",
          "name": "outcome1Token",
          "type": "address"
        },
        {
          "indexed": false,
          "internalType": "address",
          "name": "outcome2Token",
          "type": "address"
        },
        {
          "indexed": false,
          "internalType": "uint256",
          "name": "reward",
          "type": "uint256"
        },
        {
          "indexed": false,
          "internalType": "uint256",
          "name": "requiredBond",
          "type": "uint256"
        }
      ],
      "name": "promiseInitialized",
      "type": "event"
    },
    {
      "anonymous": false,
      "inputs": [
        {
          "indexed": true,
          "internalType": "bytes32",
          "name": "promiseId",
          "type": "bytes32"
        }
      ],
      "name": "promiseResolved",
      "type": "event"
    },
    {
      "inputs": [
        {
          "internalType": "bytes32",
          "name": "promiseId",
          "type": "bytes32"
        },
        {
          "internalType": "uint32",
          "name": "assertedOutcome",
          "type": "uint32"
        }
      ],
      "name": "assertPromise",
      "outputs": [
        {
          "internalType": "bytes32",
          "name": "assertionId",
          "type": "bytes32"
        }
      ],
      "stateMutability": "nonpayable",
      "type": "function"
    },
    {
      "inputs": [
        {
          "internalType": "bytes32",
          "name": "",
          "type": "bytes32"
        }
      ],
      "name": "assertedPromises",
      "outputs": [
        {
          "internalType": "address",
          "name": "asserter",
          "type": "address"
        },
        {
          "internalType": "bytes32",
          "name": "promiseId",
          "type": "bytes32"
        }
      ],
      "stateMutability": "view",
      "type": "function"
    },
    {
      "inputs": [
        {
          "internalType": "bytes32",
          "name": "assertionId",
          "type": "bytes32"
        }
      ],
      "name": "assertionDisputedCallback",
      "outputs": [],
      "stateMutability": "nonpayable",
      "type": "function"
    },
    {
      "inputs": [
        {
          "internalType": "bytes32",
          "name": "assertionId",
          "type": "bytes32"
        },
        {
          "internalType": "bool",
          "name": "assertedTruthfully",
          "type": "bool"
        }
      ],
      "name": "assertionResolvedCallback",
      "outputs": [],
      "stateMutability": "nonpayable",
      "type": "function"
    },
    {
      "inputs": [
        {
          "internalType": "string",
          "name": "statement",
          "type": "string"
        }
      ],
      "name": "createPromise",
      "outputs": [
        {
          "internalType": "bytes32",
          "name": "promiseId",
          "type": "bytes32"
        }
      ],
      "stateMutability": "nonpayable",
      "type": "function"
    },
    {
      "inputs": [],
      "name": "currency",
      "outputs": [
        {
          "internalType": "contract IERC20",
          "name": "",
          "type": "address"
        }
      ],
      "stateMutability": "view",
      "type": "function"
    },
    {
      "inputs": [],
      "name": "defaultIdentifier",
      "outputs": [
        {
          "internalType": "bytes32",
          "name": "",
          "type": "bytes32"
        }
      ],
      "stateMutability": "view",
      "type": "function"
    },
    {
      "inputs": [
        {
          "internalType": "bytes32",
          "name": "promiseId",
          "type": "bytes32"
        }
      ],
      "name": "getPromise",
      "outputs": [
        {
          "components": [
            {
              "internalType": "address",
              "name": "politician",
              "type": "address"
            },
            {
              "internalType": "string",
              "name": "statement",
              "type": "string"
            },
            {
              "internalType": "uint256",
              "name": "stake",
              "type": "uint256"
            },
            {
              "internalType": "uint32",
              "name": "assertedOutcome",
              "type": "uint32"
            },
            {
              "internalType": "uint32",
              "name": "payedOutcome",
              "type": "uint32"
            },
            {
              "internalType": "bool",
              "name": "resolved",
              "type": "bool"
            }
          ],
          "internalType": "struct PromiseEscrow.Promise",
          "name": "",
          "type": "tuple"
        }
      ],
      "stateMutability": "view",
      "type": "function"
    },
    {
      "inputs": [],
      "name": "oneDayInBlocks",
      "outputs": [
        {
          "internalType": "uint64",
          "name": "",
          "type": "uint64"
        }
      ],
      "stateMutability": "view",
      "type": "function"
    },
    {
      "inputs": [],
      "name": "oo",
      "outputs": [
        {
          "internalType": "contract OptimisticOracleV3Interface",
          "name": "",
          "type": "address"
        }
      ],
      "stateMutability": "view",
      "type": "function"
    },
    {
      "inputs": [
        {
          "internalType": "bytes32",
          "name": "",
          "type": "bytes32"
        }
      ],
      "name": "promises",
      "outputs": [
        {
          "internalType": "address",
          "name": "politician",
          "type": "address"
        },
        {
          "internalType": "string",
          "name": "statement",
          "type": "string"
        },
        {
          "internalType": "uint256",
          "name": "stake",
          "type": "uint256"
        },
        {
          "internalType": "uint32",
          "name": "assertedOutcome",
          "type": "uint32"
        },
        {
          "internalType": "uint32",
          "name": "payedOutcome",
          "type": "uint32"
        },
        {
          "internalType": "bool",
          "name": "resolved",
          "type": "bool"
        }
      ],
      "stateMutability": "view",
      "type": "function"
    },
    {
      "inputs": [],
      "name": "sismoVerifier",
      "outputs": [
        {
          "internalType": "contract SismoVerifier",
          "name": "",
          "type": "address"
        }
      ],
      "stateMutability": "view",
      "type": "function"
    },
    {
      "inputs": [
        {
          "internalType": "bytes32",
          "name": "promiseId",
          "type": "bytes32"
        },
        {
          "internalType": "bytes",
          "name": "responseSismo",
          "type": "bytes"
        }
      ],
      "name": "stakeForPromise",
      "outputs": [],
      "stateMutability": "payable",
      "type": "function"
    }
  ],
  "bytecode": "0x60e06040523480156200001157600080fd5b5060405162001cbc38038062001cbc8339810160408190526200003491620000f4565b6001600160a01b03808416608052821660a08190526040805163d509b01760e01b8152905163d509b017916004808201926020929091908290030181865afa15801562000085573d6000803e3d6000fd5b505050506040513d601f19601f82011682018060405250810190620000ab91906200013e565b60c052600080546001600160a01b0319166001600160a01b039290921691909117905550620001589050565b80516001600160a01b0381168114620000ef57600080fd5b919050565b6000806000606084860312156200010a57600080fd5b6200011584620000d7565b92506200012560208501620000d7565b91506200013560408501620000d7565b90509250925092565b6000602082840312156200015157600080fd5b5051919050565b60805160a05160c051611aee620001ce6000396000818161022a015261100b0152600081816101a60152818161068c015281816107f901528181610c4f0152610fae0152600081816102bd01528181610658015281816107a2015281816107d701528181610d600152610fe70152611aee6000f3fe6080604052600436106100c25760003560e01c8063cc2f84cb1161007f578063dbb6b00f11610059578063dbb6b00f1461024c578063e5a6b10f146102ab578063f1b156b2146102df578063f2978d98146102ff57600080fd5b8063cc2f84cb146101c8578063d448a4ec146101fa578063d509b0171461021857600080fd5b8063028f62e8146100c757806309c977e4146100fa578063162a11f51461011a5780635dd51ddd146101525780638528f1dd1461017f5780638921a61414610194575b600080fd5b3480156100d357600080fd5b506100e76100e2366004611385565b61032e565b6040519081526020015b60405180910390f35b34801561010657600080fd5b506100e76101153660046113ce565b610513565b34801561012657600080fd5b5060005461013a906001600160a01b031681565b6040516001600160a01b0390911681526020016100f1565b34801561015e57600080fd5b5061017261016d366004611407565b6108be565b6040516100f19190611470565b61019261018d3660046114e0565b6109ef565b005b3480156101a057600080fd5b5061013a7f000000000000000000000000000000000000000000000000000000000000000081565b3480156101d457600080fd5b506101e86101e3366004611407565b610b6b565b6040516100f19695949392919061153b565b34801561020657600080fd5b50610192610215366004611407565b50565b34801561022457600080fd5b506100e77f000000000000000000000000000000000000000000000000000000000000000081565b34801561025857600080fd5b5061028c610267366004611407565b600260205260009081526040902080546001909101546001600160a01b039091169082565b604080516001600160a01b0390931683526020830191909152016100f1565b3480156102b757600080fd5b5061013a7f000000000000000000000000000000000000000000000000000000000000000081565b3480156102eb57600080fd5b506101926102fa36600461159b565b610c44565b34801561030b57600080fd5b50610315611c2081565b60405167ffffffffffffffff90911681526020016100f1565b600080546040516001600160a01b039091169063223f82c4906103559085906020016115c0565b6040516020818303038152906040526040518263ffffffff1660e01b815260040161038091906115f9565b600060405180830381600087803b15801561039a57600080fd5b505af11580156103ae573d6000803e3d6000fd5b5050505081336040516020016103c592919061160c565b60408051601f198184030181529181528151602092830120600081815260019093529120549091506001600160a01b0316156104415760405162461bcd60e51b815260206004820152601660248201527570726f6d69736520616c72656164792065786973747360501b60448201526064015b60405180910390fd5b6040805160c08101825233815260208082018581526000838501819052606084018190526080840181905260a0840181905285815260019283905293909320825181546001600160a01b0319166001600160a01b039091161781559251919291908201906104af90826116be565b5060408201516002820155606082015160039091018054608084015160a0909401511515600160401b0260ff60401b1963ffffffff9586166401000000000267ffffffffffffffff1990931695909416949094171791909116919091179055919050565b600082815260016020526040812080546001600160a01b03166105715760405162461bcd60e51b81526020600482015260166024820152751c1c9bdb5a5cd948191bd95cc81b9bdd08195e1a5cdd60521b6044820152606401610438565b60008363ffffffff1611801561058e575060648363ffffffff1611155b6105da5760405162461bcd60e51b815260206004820152601e60248201527f70657263656e74616765206f7574736964652076616c69642072616e676500006044820152606401610438565b600381015463ffffffff16156106325760405162461bcd60e51b815260206004820152601c60248201527f417373657274696f6e20616374697665206f72207265736f6c766564000000006044820152606401610438565b60038101805463ffffffff191663ffffffff8516179055604051634360af3d60e01b81527f00000000000000000000000000000000000000000000000000000000000000006001600160a01b0390811660048301526000917f000000000000000000000000000000000000000000000000000000000000000090911690634360af3d90602401602060405180830381865afa1580156106d5573d6000803e3d6000fd5b505050506040513d601f19601f820116820180604052508101906106f9919061177e565b905060006107938584600101805461071090611636565b80601f016020809104026020016040519081016040528092919081815260200182805461073c90611636565b80156107895780601f1061075e57610100808354040283529160200191610789565b820191906000526020600020905b81548152906001019060200180831161076c57829003601f168201915b5050505050610ddc565b90506107ca6001600160a01b037f000000000000000000000000000000000000000000000000000000000000000016333085610e09565b61081e6001600160a01b037f0000000000000000000000000000000000000000000000000000000000000000167f000000000000000000000000000000000000000000000000000000000000000084610e7a565b6108288183610f94565b60408051808201825233815260208082018a8152600085815260028352848120935184546001600160a01b0319166001600160a01b0390911617845590516001938401558a8152908290528290209151929650869289927ffc277fb088ac1d3decd10c06016f23f6e0376fe72677c7779352ad11947b3539926108ad92910190611797565b60405180910390a350505092915050565b6040805160c08101825260008082526060602083018190529282018190529181018290526080810182905260a0810191909152600082815260016020818152604092839020835160c0810190945280546001600160a01b0316845291820180549184019161092b90611636565b80601f016020809104026020016040519081016040528092919081815260200182805461095790611636565b80156109a45780601f10610979576101008083540402835291602001916109a4565b820191906000526020600020905b81548152906001019060200180831161098757829003601f168201915b50505091835250506002820154602082015260039091015463ffffffff80821660408401526401000000008204166060830152600160401b900460ff16151560809091015292915050565b600080548382526001602081815260409384902093516001600160a01b03909316936381d6ef2d938693610a299334939091019101611822565b6040516020818303038152906040526040518363ffffffff1660e01b8152600401610a559291906118cf565b600060405180830381600087803b158015610a6f57600080fd5b505af1158015610a83573d6000803e3d6000fd5b5050506000838152600160205260409020546001600160a01b03169050610ae55760405162461bcd60e51b8152602060048201526016602482015275141c9bdb5a5cd948191bd95cc81b9bdd08195e1a5cdd60521b6044820152606401610438565b60003411610b415760405162461bcd60e51b8152602060048201526024808201527f4d7573742073656e642045544820746f207374616b6520666f7220612070726f6044820152636d69736560e01b6064820152608401610438565b60008281526001602052604081206002018054349290610b62908490611913565b90915550505050565b6001602081905260009182526040909120805491810180546001600160a01b0390931692610b9890611636565b80601f0160208091040260200160405190810160405280929190818152602001828054610bc490611636565b8015610c115780601f10610be657610100808354040283529160200191610c11565b820191906000526020600020905b815481529060010190602001808311610bf457829003601f168201915b50505050600283015460039093015491929163ffffffff808216925064010000000082041690600160401b900460ff1686565b336001600160a01b037f00000000000000000000000000000000000000000000000000000000000000001614610cad5760405162461bcd60e51b815260206004820152600e60248201526d139bdd08185d5d1a1bdc9a5e995960921b6044820152606401610438565b6000828152600260209081526040808320600190810154845290915290208115610dca5760038101805460ff60401b1916600160401b179055600281015415610d8f576002810154600382015460009190610d189063ffffffff640100000000820481169116611926565b63ffffffff16610d28919061194a565b60038301805467ffffffff0000000019811663ffffffff91821664010000000002179091558354919250610d8d916001600160a01b037f0000000000000000000000000000000000000000000000000000000000000000811692911690849061107f16565b505b60008381526002602052604080822060010154905190917fbe0f41ebe98cbb9d779ee222989fb0ca4862011ce32be4371c9e7518958a7b0d91a25b600301805463ffffffff191690555050565b60608282604051602001610df1929190611969565b60405160208183030381529060405290505b92915050565b6040516001600160a01b0380851660248301528316604482015260648101829052610e749085906323b872dd60e01b906084015b60408051601f198184030181529190526020810180516001600160e01b03166001600160e01b0319909316929092179091526110af565b50505050565b801580610ef45750604051636eb1769f60e11b81523060048201526001600160a01b03838116602483015284169063dd62ed3e90604401602060405180830381865afa158015610ece573d6000803e3d6000fd5b505050506040513d601f19601f82011682018060405250810190610ef2919061177e565b155b610f5f5760405162461bcd60e51b815260206004820152603660248201527f5361666545524332303a20617070726f76652066726f6d206e6f6e2d7a65726f60448201527520746f206e6f6e2d7a65726f20616c6c6f77616e636560501b6064820152608401610438565b6040516001600160a01b038316602482015260448101829052610f8f90849063095ea7b360e01b90606401610e3d565b505050565b604051636457c97960e01b81526000906001600160a01b037f00000000000000000000000000000000000000000000000000000000000000001690636457c97990611035908690339030908790611c20907f0000000000000000000000000000000000000000000000000000000000000000908b907f0000000000000000000000000000000000000000000000000000000000000000908590600401611a11565b6020604051808303816000875af1158015611054573d6000803e3d6000fd5b505050506040513d601f19601f82011682018060405250810190611078919061177e565b9392505050565b6040516001600160a01b038316602482015260448101829052610f8f90849063a9059cbb60e01b90606401610e3d565b6000611104826040518060400160405280602081526020017f5361666545524332303a206c6f772d6c6576656c2063616c6c206661696c6564815250856001600160a01b03166111819092919063ffffffff16565b805190915015610f8f57808060200190518101906111229190611a7f565b610f8f5760405162461bcd60e51b815260206004820152602a60248201527f5361666545524332303a204552433230206f7065726174696f6e20646964206e6044820152691bdd081cdd58d8d9595960b21b6064820152608401610438565b60606111908484600085611198565b949350505050565b6060824710156111f95760405162461bcd60e51b815260206004820152602660248201527f416464726573733a20696e73756666696369656e742062616c616e636520666f6044820152651c8818d85b1b60d21b6064820152608401610438565b843b6112475760405162461bcd60e51b815260206004820152601d60248201527f416464726573733a2063616c6c20746f206e6f6e2d636f6e74726163740000006044820152606401610438565b600080866001600160a01b031685876040516112639190611a9c565b60006040518083038185875af1925050503d80600081146112a0576040519150601f19603f3d011682016040523d82523d6000602084013e6112a5565b606091505b50915091506112b58282866112c0565b979650505050505050565b606083156112cf575081611078565b8251156112df5782518084602001fd5b8160405162461bcd60e51b815260040161043891906115f9565b634e487b7160e01b600052604160045260246000fd5b600067ffffffffffffffff8084111561132a5761132a6112f9565b604051601f8501601f19908116603f01168101908282118183101715611352576113526112f9565b8160405280935085815286868601111561136b57600080fd5b858560208301376000602087830101525050509392505050565b60006020828403121561139757600080fd5b813567ffffffffffffffff8111156113ae57600080fd5b8201601f810184136113bf57600080fd5b6111908482356020840161130f565b600080604083850312156113e157600080fd5b82359150602083013563ffffffff811681146113fc57600080fd5b809150509250929050565b60006020828403121561141957600080fd5b5035919050565b60005b8381101561143b578181015183820152602001611423565b50506000910152565b6000815180845261145c816020860160208601611420565b601f01601f19169290920160200192915050565b602080825282516001600160a01b03168282015282015160c0604083015260009061149e60e0840182611444565b905060408401516060840152606084015163ffffffff80821660808601528060808701511660a0860152505060a0840151151560c08401528091505092915050565b600080604083850312156114f357600080fd5b82359150602083013567ffffffffffffffff81111561151157600080fd5b8301601f8101851361152257600080fd5b6115318582356020840161130f565b9150509250929050565b6001600160a01b038716815260c06020820181905260009061155f90830188611444565b60408301969096525063ffffffff938416606082015291909216608082015290151560a09091015292915050565b801515811461021557600080fd5b600080604083850312156115ae57600080fd5b8235915060208301356113fc8161158d565b70021b932b0ba34b73390383937b6b4b9b29607d1b8152600082516115ec816011850160208701611420565b9190910160110192915050565b6020815260006110786020830184611444565b60408152600061161f6040830185611444565b905060018060a01b03831660208301529392505050565b600181811c9082168061164a57607f821691505b60208210810361166a57634e487b7160e01b600052602260045260246000fd5b50919050565b601f821115610f8f57600081815260208120601f850160051c810160208610156116975750805b601f850160051c820191505b818110156116b6578281556001016116a3565b505050505050565b815167ffffffffffffffff8111156116d8576116d86112f9565b6116ec816116e68454611636565b84611670565b602080601f83116001811461172157600084156117095750858301515b600019600386901b1c1916600185901b1785556116b6565b600085815260208120601f198616915b8281101561175057888601518255948401946001909101908401611731565b508582101561176e5787850151600019600388901b60f8161c191681555b5050505050600190811b01905550565b60006020828403121561179057600080fd5b5051919050565b60006020808352600084546117ab81611636565b808487015260406001808416600081146117cc57600181146117e657611814565b60ff1985168984015283151560051b890183019550611814565b896000528660002060005b8581101561180c5781548b82018601529083019088016117f1565b8a0184019650505b509398975050505050505050565b67029ba30b5b4b733960c51b81528260088201526c0103337b910383937b6b4b9b29609d1b6028820152600060356000845461185d81611636565b60018281168015611875576001811461188e576118c1565b60ff1984168887015282151583028801860194506118c1565b8860005260208060002060005b858110156118b65781548b82018a015290840190820161189b565b505050858389010194505b509298975050505050505050565b6040815260006118e26040830185611444565b82810360208401526118f48185611444565b95945050505050565b634e487b7160e01b600052601160045260246000fd5b80820180821115610e0357610e036118fd565b63ffffffff828116828216039080821115611943576119436118fd565b5092915050565b6000816000190483118215151615611964576119646118fd565b500290565b7f447572696e672074686520656c656374656420706572696f642074686520646581527f736372696265642070726f6d69736520686173206265656e2066756c66696c6c602082015264656420746f60d81b604082015263ffffffff60e01b8360e01b1660458201527201296103a343290383937b6b4b9b29034b99d1606d1b604982015260008251611a0381605c850160208701611420565b91909101605c019392505050565b6000610120808352611a258184018d611444565b6001600160a01b039b8c166020850152998b1660408401525050958816606087015267ffffffffffffffff9490941660808601529190951660a084015260c083019490945260e08201939093526101000191909152919050565b600060208284031215611a9157600080fd5b81516110788161158d565b60008251611aae818460208701611420565b919091019291505056fea264697066735822122088f11b80a47a093dca232669a09b040596f6acb4cc9107606b0c461bb95ecacc64736f6c63430008100033",
  "linkReferences": {},
  "deployedLinkReferences": {}
}