{
  "_format": "hh-sol-artifact-1",
  "contractName": "PromiseEscrow",
  "sourceName": "contracts/PromiseEscrow.sol",
  "abi": [
    {
      "inputs": [
        {
          "internalType": "address",
          "name": "_currency",
          "type": "address"
        },
        {
          "internalType": "address",
          "name": "_optimisticOracleV3",
          "type": "address"
        }
      ],
      "stateMutability": "nonpayable",
      "type": "constructor"
    },
    {
      "anonymous": false,
      "inputs": [
        {
          "indexed": true,
          "internalType": "bytes32",
          "name": "promiseId",
          "type": "bytes32"
        },
        {
          "indexed": true,
          "internalType": "address",
          "name": "account",
          "type": "address"
        },
        {
          "indexed": false,
          "internalType": "uint256",
          "name": "tokensCreated",
          "type": "uint256"
        }
      ],
      "name": "TokensCreated",
      "type": "event"
    },
    {
      "anonymous": false,
      "inputs": [
        {
          "indexed": true,
          "internalType": "bytes32",
          "name": "promiseId",
          "type": "bytes32"
        },
        {
          "indexed": true,
          "internalType": "address",
          "name": "account",
          "type": "address"
        },
        {
          "indexed": false,
          "internalType": "uint256",
          "name": "tokensRedeemed",
          "type": "uint256"
        }
      ],
      "name": "TokensRedeemed",
      "type": "event"
    },
    {
      "anonymous": false,
      "inputs": [
        {
          "indexed": true,
          "internalType": "bytes32",
          "name": "promiseId",
          "type": "bytes32"
        },
        {
          "indexed": true,
          "internalType": "address",
          "name": "account",
          "type": "address"
        },
        {
          "indexed": false,
          "internalType": "uint256",
          "name": "payout",
          "type": "uint256"
        },
        {
          "indexed": false,
          "internalType": "uint256",
          "name": "outcome1Tokens",
          "type": "uint256"
        },
        {
          "indexed": false,
          "internalType": "uint256",
          "name": "outcome2Tokens",
          "type": "uint256"
        }
      ],
      "name": "TokensSettled",
      "type": "event"
    },
    {
      "anonymous": false,
      "inputs": [
        {
          "indexed": true,
          "internalType": "bytes32",
          "name": "promiseId",
          "type": "bytes32"
        },
        {
          "indexed": false,
          "internalType": "string",
          "name": "assertedOutcome",
          "type": "string"
        },
        {
          "indexed": true,
          "internalType": "bytes32",
          "name": "assertionId",
          "type": "bytes32"
        }
      ],
      "name": "promiseAsserted",
      "type": "event"
    },
    {
      "anonymous": false,
      "inputs": [
        {
          "indexed": true,
          "internalType": "bytes32",
          "name": "promiseId",
          "type": "bytes32"
        },
        {
          "indexed": false,
          "internalType": "string",
          "name": "outcome1",
          "type": "string"
        },
        {
          "indexed": false,
          "internalType": "string",
          "name": "outcome2",
          "type": "string"
        },
        {
          "indexed": false,
          "internalType": "string",
          "name": "description",
          "type": "string"
        },
        {
          "indexed": false,
          "internalType": "address",
          "name": "outcome1Token",
          "type": "address"
        },
        {
          "indexed": false,
          "internalType": "address",
          "name": "outcome2Token",
          "type": "address"
        },
        {
          "indexed": false,
          "internalType": "uint256",
          "name": "reward",
          "type": "uint256"
        },
        {
          "indexed": false,
          "internalType": "uint256",
          "name": "requiredBond",
          "type": "uint256"
        }
      ],
      "name": "promiseInitialized",
      "type": "event"
    },
    {
      "anonymous": false,
      "inputs": [
        {
          "indexed": true,
          "internalType": "bytes32",
          "name": "promiseId",
          "type": "bytes32"
        }
      ],
      "name": "promiseResolved",
      "type": "event"
    },
    {
      "inputs": [
        {
          "internalType": "bytes32",
          "name": "promiseId",
          "type": "bytes32"
        },
        {
          "internalType": "uint32",
          "name": "assertedOutcome",
          "type": "uint32"
        }
      ],
      "name": "assertPromise",
      "outputs": [
        {
          "internalType": "bytes32",
          "name": "assertionId",
          "type": "bytes32"
        }
      ],
      "stateMutability": "nonpayable",
      "type": "function"
    },
    {
      "inputs": [
        {
          "internalType": "bytes32",
          "name": "",
          "type": "bytes32"
        }
      ],
      "name": "assertedPromises",
      "outputs": [
        {
          "internalType": "address",
          "name": "asserter",
          "type": "address"
        },
        {
          "internalType": "bytes32",
          "name": "promiseId",
          "type": "bytes32"
        }
      ],
      "stateMutability": "view",
      "type": "function"
    },
    {
      "inputs": [
        {
          "internalType": "bytes32",
          "name": "assertionId",
          "type": "bytes32"
        }
      ],
      "name": "assertionDisputedCallback",
      "outputs": [],
      "stateMutability": "nonpayable",
      "type": "function"
    },
    {
      "inputs": [
        {
          "internalType": "bytes32",
          "name": "assertionId",
          "type": "bytes32"
        },
        {
          "internalType": "bool",
          "name": "assertedTruthfully",
          "type": "bool"
        }
      ],
      "name": "assertionResolvedCallback",
      "outputs": [],
      "stateMutability": "nonpayable",
      "type": "function"
    },
    {
      "inputs": [
        {
          "internalType": "string",
          "name": "statement",
          "type": "string"
        }
      ],
      "name": "createPromise",
      "outputs": [
        {
          "internalType": "bytes32",
          "name": "promiseId",
          "type": "bytes32"
        }
      ],
      "stateMutability": "nonpayable",
      "type": "function"
    },
    {
      "inputs": [],
      "name": "currency",
      "outputs": [
        {
          "internalType": "contract IERC20",
          "name": "",
          "type": "address"
        }
      ],
      "stateMutability": "view",
      "type": "function"
    },
    {
      "inputs": [],
      "name": "defaultIdentifier",
      "outputs": [
        {
          "internalType": "bytes32",
          "name": "",
          "type": "bytes32"
        }
      ],
      "stateMutability": "view",
      "type": "function"
    },
    {
      "inputs": [
        {
          "internalType": "bytes32",
          "name": "promiseId",
          "type": "bytes32"
        }
      ],
      "name": "getPromise",
      "outputs": [
        {
          "components": [
            {
              "internalType": "address",
              "name": "politician",
              "type": "address"
            },
            {
              "internalType": "string",
              "name": "statement",
              "type": "string"
            },
            {
              "internalType": "uint256",
              "name": "stake",
              "type": "uint256"
            },
            {
              "internalType": "uint32",
              "name": "assertedOutcome",
              "type": "uint32"
            },
            {
              "internalType": "uint32",
              "name": "payedOutcome",
              "type": "uint32"
            },
            {
              "internalType": "bool",
              "name": "resolved",
              "type": "bool"
            }
          ],
          "internalType": "struct PromiseEscrow.Promise",
          "name": "",
          "type": "tuple"
        }
      ],
      "stateMutability": "view",
      "type": "function"
    },
    {
      "inputs": [],
      "name": "oneDayInBlocks",
      "outputs": [
        {
          "internalType": "uint64",
          "name": "",
          "type": "uint64"
        }
      ],
      "stateMutability": "view",
      "type": "function"
    },
    {
      "inputs": [],
      "name": "oo",
      "outputs": [
        {
          "internalType": "contract OptimisticOracleV3Interface",
          "name": "",
          "type": "address"
        }
      ],
      "stateMutability": "view",
      "type": "function"
    },
    {
      "inputs": [
        {
          "internalType": "bytes32",
          "name": "",
          "type": "bytes32"
        }
      ],
      "name": "promises",
      "outputs": [
        {
          "internalType": "address",
          "name": "politician",
          "type": "address"
        },
        {
          "internalType": "string",
          "name": "statement",
          "type": "string"
        },
        {
          "internalType": "uint256",
          "name": "stake",
          "type": "uint256"
        },
        {
          "internalType": "uint32",
          "name": "assertedOutcome",
          "type": "uint32"
        },
        {
          "internalType": "uint32",
          "name": "payedOutcome",
          "type": "uint32"
        },
        {
          "internalType": "bool",
          "name": "resolved",
          "type": "bool"
        }
      ],
      "stateMutability": "view",
      "type": "function"
    },
    {
      "inputs": [
        {
          "internalType": "bytes32",
          "name": "promiseId",
          "type": "bytes32"
        },
        {
          "internalType": "bytes",
          "name": "responseSismo",
          "type": "bytes"
        }
      ],
      "name": "stakeForPromise",
      "outputs": [],
      "stateMutability": "payable",
      "type": "function"
    }
  ],
  "bytecode": "0x60e06040523480156200001157600080fd5b5060405162001a1f38038062001a1f8339810160408190526200003491620000d4565b6001600160a01b03808316608052811660a08190526040805163d509b01760e01b8152905163d509b017916004808201926020929091908290030181865afa15801562000085573d6000803e3d6000fd5b505050506040513d601f19601f82011682018060405250810190620000ab91906200010c565b60c05250620001269050565b80516001600160a01b0381168114620000cf57600080fd5b919050565b60008060408385031215620000e857600080fd5b620000f383620000b7565b91506200010360208401620000b7565b90509250929050565b6000602082840312156200011f57600080fd5b5051919050565b60805160a05160c0516118836200019c600039600081816101ef0152610eb4015260008181610153015281816105cc0152818161073901528181610af80152610e5701526000818161028201528181610598015281816106e20152818161071701528181610c070152610e9001526118836000f3fe6080604052600436106100a75760003560e01c8063d448a4ec11610064578063d448a4ec146101bf578063d509b017146101dd578063dbb6b00f14610211578063e5a6b10f14610270578063f1b156b2146102a4578063f2978d98146102c457600080fd5b8063028f62e8146100ac57806309c977e4146100df5780635dd51ddd146100ff5780638528f1dd1461012c5780638921a61414610141578063cc2f84cb1461018d575b600080fd5b3480156100b857600080fd5b506100cc6100c736600461122e565b6102f3565b6040519081526020015b60405180910390f35b3480156100eb57600080fd5b506100cc6100fa366004611277565b610453565b34801561010b57600080fd5b5061011f61011a3660046112b0565b610801565b6040516100d69190611319565b61013f61013a366004611389565b610932565b005b34801561014d57600080fd5b506101757f000000000000000000000000000000000000000000000000000000000000000081565b6040516001600160a01b0390911681526020016100d6565b34801561019957600080fd5b506101ad6101a83660046112b0565b610a15565b6040516100d6969594939291906113e4565b3480156101cb57600080fd5b5061013f6101da3660046112b0565b50565b3480156101e957600080fd5b506100cc7f000000000000000000000000000000000000000000000000000000000000000081565b34801561021d57600080fd5b5061025161022c3660046112b0565b600160208190526000918252604090912080549101546001600160a01b039091169082565b604080516001600160a01b0390931683526020830191909152016100d6565b34801561027c57600080fd5b506101757f000000000000000000000000000000000000000000000000000000000000000081565b3480156102b057600080fd5b5061013f6102bf366004611444565b610aed565b3480156102d057600080fd5b506102da611c2081565b60405167ffffffffffffffff90911681526020016100d6565b60008133604051602001610308929190611469565b60408051601f1981840301815291815281516020928301206000818152928390529120549091506001600160a01b0316156103835760405162461bcd60e51b815260206004820152601660248201527570726f6d69736520616c72656164792065786973747360501b60448201526064015b60405180910390fd5b6040805160c08101825233815260208082018581526000838501819052606084018190526080840181905260a0840181905285815291829052929020815181546001600160a01b0319166001600160a01b03909116178155915190919060018201906103ef908261151b565b5060408201516002820155606082015160039091018054608084015160a0909401511515600160401b0260ff60401b1963ffffffff9586166401000000000267ffffffffffffffff1990931695909416949094171791909116919091179055919050565b600082815260208190526040812080546001600160a01b03166104b15760405162461bcd60e51b81526020600482015260166024820152751c1c9bdb5a5cd948191bd95cc81b9bdd08195e1a5cdd60521b604482015260640161037a565b60008363ffffffff161180156104ce575060648363ffffffff1611155b61051a5760405162461bcd60e51b815260206004820152601e60248201527f70657263656e74616765206f7574736964652076616c69642072616e67650000604482015260640161037a565b600381015463ffffffff16156105725760405162461bcd60e51b815260206004820152601c60248201527f417373657274696f6e20616374697665206f72207265736f6c76656400000000604482015260640161037a565b60038101805463ffffffff191663ffffffff8516179055604051634360af3d60e01b81527f00000000000000000000000000000000000000000000000000000000000000006001600160a01b0390811660048301526000917f000000000000000000000000000000000000000000000000000000000000000090911690634360af3d90602401602060405180830381865afa158015610615573d6000803e3d6000fd5b505050506040513d601f19601f8201168201806040525081019061063991906115db565b905060006106d38584600101805461065090611493565b80601f016020809104026020016040519081016040528092919081815260200182805461067c90611493565b80156106c95780601f1061069e576101008083540402835291602001916106c9565b820191906000526020600020905b8154815290600101906020018083116106ac57829003601f168201915b5050505050610c85565b905061070a6001600160a01b037f000000000000000000000000000000000000000000000000000000000000000016333085610cb2565b61075e6001600160a01b037f0000000000000000000000000000000000000000000000000000000000000000167f000000000000000000000000000000000000000000000000000000000000000084610d23565b6107688183610e3d565b60408051808201825233815260208082018a815260008581526001808452858220945185546001600160a01b0319166001600160a01b039091161785559151938201939093558a835290829052908290209151929650869289927ffc277fb088ac1d3decd10c06016f23f6e0376fe72677c7779352ad11947b3539926107f0929101906115f4565b60405180910390a350505092915050565b6040805160c08101825260008082526060602083018190529282018190529181018290526080810182905260a081019190915260008281526020818152604091829020825160c0810190935280546001600160a01b03168352600181018054919284019161086e90611493565b80601f016020809104026020016040519081016040528092919081815260200182805461089a90611493565b80156108e75780601f106108bc576101008083540402835291602001916108e7565b820191906000526020600020905b8154815290600101906020018083116108ca57829003601f168201915b50505091835250506002820154602082015260039091015463ffffffff80821660408401526401000000008204166060830152600160401b900460ff16151560809091015292915050565b6000828152602081905260409020546001600160a01b031661098f5760405162461bcd60e51b8152602060048201526016602482015275141c9bdb5a5cd948191bd95cc81b9bdd08195e1a5cdd60521b604482015260640161037a565b600034116109eb5760405162461bcd60e51b8152602060048201526024808201527f4d7573742073656e642045544820746f207374616b6520666f7220612070726f6044820152636d69736560e01b606482015260840161037a565b60008281526020819052604081206002018054349290610a0c908490611695565b90915550505050565b600060208190529081526040902080546001820180546001600160a01b039092169291610a4190611493565b80601f0160208091040260200160405190810160405280929190818152602001828054610a6d90611493565b8015610aba5780601f10610a8f57610100808354040283529160200191610aba565b820191906000526020600020905b815481529060010190602001808311610a9d57829003601f168201915b50505050600283015460039093015491929163ffffffff808216925064010000000082041690600160401b900460ff1686565b336001600160a01b037f00000000000000000000000000000000000000000000000000000000000000001614610b565760405162461bcd60e51b815260206004820152600e60248201526d139bdd08185d5d1a1bdc9a5e995960921b604482015260640161037a565b600082815260016020818152604080842090920154835282905290208115610c735760038101805460ff60401b1916600160401b179055600281015415610c36576002810154600382015460009190610bbf9063ffffffff6401000000008204811691166116a8565b63ffffffff16610bcf91906116cc565b60038301805467ffffffff0000000019811663ffffffff91821664010000000002179091558354919250610c34916001600160a01b037f00000000000000000000000000000000000000000000000000000000000000008116929116908490610f2816565b505b600083815260016020819052604080832090910154905190917fbe0f41ebe98cbb9d779ee222989fb0ca4862011ce32be4371c9e7518958a7b0d91a25b600301805463ffffffff191690555050565b60608282604051602001610c9a9291906116eb565b60405160208183030381529060405290505b92915050565b6040516001600160a01b0380851660248301528316604482015260648101829052610d1d9085906323b872dd60e01b906084015b60408051601f198184030181529190526020810180516001600160e01b03166001600160e01b031990931692909217909152610f58565b50505050565b801580610d9d5750604051636eb1769f60e11b81523060048201526001600160a01b03838116602483015284169063dd62ed3e90604401602060405180830381865afa158015610d77573d6000803e3d6000fd5b505050506040513d601f19601f82011682018060405250810190610d9b91906115db565b155b610e085760405162461bcd60e51b815260206004820152603660248201527f5361666545524332303a20617070726f76652066726f6d206e6f6e2d7a65726f60448201527520746f206e6f6e2d7a65726f20616c6c6f77616e636560501b606482015260840161037a565b6040516001600160a01b038316602482015260448101829052610e3890849063095ea7b360e01b90606401610ce6565b505050565b604051636457c97960e01b81526000906001600160a01b037f00000000000000000000000000000000000000000000000000000000000000001690636457c97990610ede908690339030908790611c20907f0000000000000000000000000000000000000000000000000000000000000000908b907f0000000000000000000000000000000000000000000000000000000000000000908590600401611793565b6020604051808303816000875af1158015610efd573d6000803e3d6000fd5b505050506040513d601f19601f82011682018060405250810190610f2191906115db565b9392505050565b6040516001600160a01b038316602482015260448101829052610e3890849063a9059cbb60e01b90606401610ce6565b6000610fad826040518060400160405280602081526020017f5361666545524332303a206c6f772d6c6576656c2063616c6c206661696c6564815250856001600160a01b031661102a9092919063ffffffff16565b805190915015610e385780806020019051810190610fcb9190611801565b610e385760405162461bcd60e51b815260206004820152602a60248201527f5361666545524332303a204552433230206f7065726174696f6e20646964206e6044820152691bdd081cdd58d8d9595960b21b606482015260840161037a565b60606110398484600085611041565b949350505050565b6060824710156110a25760405162461bcd60e51b815260206004820152602660248201527f416464726573733a20696e73756666696369656e742062616c616e636520666f6044820152651c8818d85b1b60d21b606482015260840161037a565b843b6110f05760405162461bcd60e51b815260206004820152601d60248201527f416464726573733a2063616c6c20746f206e6f6e2d636f6e7472616374000000604482015260640161037a565b600080866001600160a01b0316858760405161110c919061181e565b60006040518083038185875af1925050503d8060008114611149576040519150601f19603f3d011682016040523d82523d6000602084013e61114e565b606091505b509150915061115e828286611169565b979650505050505050565b60608315611178575081610f21565b8251156111885782518084602001fd5b8160405162461bcd60e51b815260040161037a919061183a565b634e487b7160e01b600052604160045260246000fd5b600067ffffffffffffffff808411156111d3576111d36111a2565b604051601f8501601f19908116603f011681019082821181831017156111fb576111fb6111a2565b8160405280935085815286868601111561121457600080fd5b858560208301376000602087830101525050509392505050565b60006020828403121561124057600080fd5b813567ffffffffffffffff81111561125757600080fd5b8201601f8101841361126857600080fd5b611039848235602084016111b8565b6000806040838503121561128a57600080fd5b82359150602083013563ffffffff811681146112a557600080fd5b809150509250929050565b6000602082840312156112c257600080fd5b5035919050565b60005b838110156112e45781810151838201526020016112cc565b50506000910152565b600081518084526113058160208601602086016112c9565b601f01601f19169290920160200192915050565b602080825282516001600160a01b03168282015282015160c0604083015260009061134760e08401826112ed565b905060408401516060840152606084015163ffffffff80821660808601528060808701511660a0860152505060a0840151151560c08401528091505092915050565b6000806040838503121561139c57600080fd5b82359150602083013567ffffffffffffffff8111156113ba57600080fd5b8301601f810185136113cb57600080fd5b6113da858235602084016111b8565b9150509250929050565b6001600160a01b038716815260c060208201819052600090611408908301886112ed565b60408301969096525063ffffffff938416606082015291909216608082015290151560a09091015292915050565b80151581146101da57600080fd5b6000806040838503121561145757600080fd5b8235915060208301356112a581611436565b60408152600061147c60408301856112ed565b905060018060a01b03831660208301529392505050565b600181811c908216806114a757607f821691505b6020821081036114c757634e487b7160e01b600052602260045260246000fd5b50919050565b601f821115610e3857600081815260208120601f850160051c810160208610156114f45750805b601f850160051c820191505b8181101561151357828155600101611500565b505050505050565b815167ffffffffffffffff811115611535576115356111a2565b611549816115438454611493565b846114cd565b602080601f83116001811461157e57600084156115665750858301515b600019600386901b1c1916600185901b178555611513565b600085815260208120601f198616915b828110156115ad5788860151825594840194600190910190840161158e565b50858210156115cb5787850151600019600388901b60f8161c191681555b5050505050600190811b01905550565b6000602082840312156115ed57600080fd5b5051919050565b600060208083526000845461160881611493565b80848701526040600180841660008114611629576001811461164357611671565b60ff1985168984015283151560051b890183019550611671565b896000528660002060005b858110156116695781548b820186015290830190880161164e565b8a0184019650505b509398975050505050505050565b634e487b7160e01b600052601160045260246000fd5b80820180821115610cac57610cac61167f565b63ffffffff8281168282160390808211156116c5576116c561167f565b5092915050565b60008160001904831182151516156116e6576116e661167f565b500290565b7f447572696e672074686520656c656374656420706572696f642074686520646581527f736372696265642070726f6d69736520686173206265656e2066756c66696c6c602082015264656420746f60d81b604082015263ffffffff60e01b8360e01b1660458201527201296103a343290383937b6b4b9b29034b99d1606d1b60498201526000825161178581605c8501602087016112c9565b91909101605c019392505050565b60006101208083526117a78184018d6112ed565b6001600160a01b039b8c166020850152998b1660408401525050958816606087015267ffffffffffffffff9490941660808601529190951660a084015260c083019490945260e08201939093526101000191909152919050565b60006020828403121561181357600080fd5b8151610f2181611436565b600082516118308184602087016112c9565b9190910192915050565b602081526000610f2160208301846112ed56fea26469706673582212201d6ccddbaa707013d3db1cd64c7361dc4a776c8d20f85a4c3d4ffa8280a28ff464736f6c63430008100033",
  "linkReferences": {},
  "deployedLinkReferences": {}
}