{
  "_format": "hh-sol-artifact-1",
  "contractName": "PromiseEscrow",
  "sourceName": "contracts/PromiseEscrow.sol",
  "abi": [
    {
      "inputs": [
        {
          "internalType": "address",
          "name": "_currency",
          "type": "address"
        },
        {
          "internalType": "address",
          "name": "_optimisticOracleV3",
          "type": "address"
        },
        {
          "internalType": "address",
          "name": "_sismoVerifier",
          "type": "address"
        }
      ],
      "stateMutability": "nonpayable",
      "type": "constructor"
    },
    {
      "anonymous": false,
      "inputs": [
        {
          "indexed": true,
          "internalType": "bytes32",
          "name": "promiseId",
          "type": "bytes32"
        },
        {
          "indexed": false,
          "internalType": "string",
          "name": "assertedOutcome",
          "type": "string"
        },
        {
          "indexed": true,
          "internalType": "bytes32",
          "name": "assertionId",
          "type": "bytes32"
        }
      ],
      "name": "promiseAsserted",
      "type": "event"
    },
    {
      "anonymous": false,
      "inputs": [
        {
          "indexed": true,
          "internalType": "bytes32",
          "name": "promiseId",
          "type": "bytes32"
        },
        {
          "indexed": false,
          "internalType": "string",
          "name": "outcome1",
          "type": "string"
        },
        {
          "indexed": false,
          "internalType": "string",
          "name": "outcome2",
          "type": "string"
        },
        {
          "indexed": false,
          "internalType": "string",
          "name": "description",
          "type": "string"
        },
        {
          "indexed": false,
          "internalType": "address",
          "name": "outcome1Token",
          "type": "address"
        },
        {
          "indexed": false,
          "internalType": "address",
          "name": "outcome2Token",
          "type": "address"
        },
        {
          "indexed": false,
          "internalType": "uint256",
          "name": "reward",
          "type": "uint256"
        },
        {
          "indexed": false,
          "internalType": "uint256",
          "name": "requiredBond",
          "type": "uint256"
        }
      ],
      "name": "promiseInitialized",
      "type": "event"
    },
    {
      "anonymous": false,
      "inputs": [
        {
          "indexed": true,
          "internalType": "bytes32",
          "name": "promiseId",
          "type": "bytes32"
        }
      ],
      "name": "promiseResolved",
      "type": "event"
    },
    {
      "inputs": [
        {
          "internalType": "bytes32",
          "name": "promiseId",
          "type": "bytes32"
        },
        {
          "internalType": "uint32",
          "name": "assertedOutcome",
          "type": "uint32"
        }
      ],
      "name": "assertPromise",
      "outputs": [
        {
          "internalType": "bytes32",
          "name": "assertionId",
          "type": "bytes32"
        }
      ],
      "stateMutability": "nonpayable",
      "type": "function"
    },
    {
      "inputs": [
        {
          "internalType": "bytes32",
          "name": "",
          "type": "bytes32"
        }
      ],
      "name": "assertedPromises",
      "outputs": [
        {
          "internalType": "address",
          "name": "asserter",
          "type": "address"
        },
        {
          "internalType": "bytes32",
          "name": "promiseId",
          "type": "bytes32"
        }
      ],
      "stateMutability": "view",
      "type": "function"
    },
    {
      "inputs": [
        {
          "internalType": "bytes32",
          "name": "assertionId",
          "type": "bytes32"
        }
      ],
      "name": "assertionDisputedCallback",
      "outputs": [],
      "stateMutability": "nonpayable",
      "type": "function"
    },
    {
      "inputs": [
        {
          "internalType": "bytes32",
          "name": "assertionId",
          "type": "bytes32"
        },
        {
          "internalType": "bool",
          "name": "assertedTruthfully",
          "type": "bool"
        }
      ],
      "name": "assertionResolvedCallback",
      "outputs": [],
      "stateMutability": "nonpayable",
      "type": "function"
    },
    {
      "inputs": [
        {
          "internalType": "string",
          "name": "statement",
          "type": "string"
        },
        {
          "internalType": "bytes",
          "name": "responseSismo",
          "type": "bytes"
        }
      ],
      "name": "createPromise",
      "outputs": [
        {
          "internalType": "bytes32",
          "name": "promiseId",
          "type": "bytes32"
        }
      ],
      "stateMutability": "nonpayable",
      "type": "function"
    },
    {
      "inputs": [],
      "name": "currency",
      "outputs": [
        {
          "internalType": "contract IERC20",
          "name": "",
          "type": "address"
        }
      ],
      "stateMutability": "view",
      "type": "function"
    },
    {
      "inputs": [],
      "name": "defaultIdentifier",
      "outputs": [
        {
          "internalType": "bytes32",
          "name": "",
          "type": "bytes32"
        }
      ],
      "stateMutability": "view",
      "type": "function"
    },
    {
      "inputs": [
        {
          "internalType": "bytes32",
          "name": "promiseId",
          "type": "bytes32"
        }
      ],
      "name": "getPromise",
      "outputs": [
        {
          "components": [
            {
              "internalType": "address",
              "name": "politician",
              "type": "address"
            },
            {
              "internalType": "string",
              "name": "statement",
              "type": "string"
            },
            {
              "internalType": "uint256",
              "name": "stake",
              "type": "uint256"
            },
            {
              "internalType": "uint32",
              "name": "assertedOutcome",
              "type": "uint32"
            },
            {
              "internalType": "uint32",
              "name": "payedOutcome",
              "type": "uint32"
            },
            {
              "internalType": "bool",
              "name": "resolved",
              "type": "bool"
            }
          ],
          "internalType": "struct PromiseEscrow.Promise",
          "name": "",
          "type": "tuple"
        }
      ],
      "stateMutability": "view",
      "type": "function"
    },
    {
      "inputs": [],
      "name": "oneDayInBlocks",
      "outputs": [
        {
          "internalType": "uint64",
          "name": "",
          "type": "uint64"
        }
      ],
      "stateMutability": "view",
      "type": "function"
    },
    {
      "inputs": [],
      "name": "oo",
      "outputs": [
        {
          "internalType": "contract OptimisticOracleV3Interface",
          "name": "",
          "type": "address"
        }
      ],
      "stateMutability": "view",
      "type": "function"
    },
    {
      "inputs": [
        {
          "internalType": "bytes32",
          "name": "",
          "type": "bytes32"
        }
      ],
      "name": "promises",
      "outputs": [
        {
          "internalType": "address",
          "name": "politician",
          "type": "address"
        },
        {
          "internalType": "string",
          "name": "statement",
          "type": "string"
        },
        {
          "internalType": "uint256",
          "name": "stake",
          "type": "uint256"
        },
        {
          "internalType": "uint32",
          "name": "assertedOutcome",
          "type": "uint32"
        },
        {
          "internalType": "uint32",
          "name": "payedOutcome",
          "type": "uint32"
        },
        {
          "internalType": "bool",
          "name": "resolved",
          "type": "bool"
        }
      ],
      "stateMutability": "view",
      "type": "function"
    },
    {
      "inputs": [],
      "name": "sismoVerifier",
      "outputs": [
        {
          "internalType": "contract ISismoVerifier",
          "name": "",
          "type": "address"
        }
      ],
      "stateMutability": "view",
      "type": "function"
    },
    {
      "inputs": [
        {
          "internalType": "bytes32",
          "name": "promiseId",
          "type": "bytes32"
        },
        {
          "internalType": "bytes",
          "name": "responseSismo",
          "type": "bytes"
        }
      ],
      "name": "stakeForPromise",
      "outputs": [],
      "stateMutability": "payable",
      "type": "function"
    }
  ],
  "bytecode": "0x60e06040523480156200001157600080fd5b5060405162001daf38038062001daf8339810160408190526200003491620000f4565b6001600160a01b03808416608052821660a08190526040805163d509b01760e01b8152905163d509b017916004808201926020929091908290030181865afa15801562000085573d6000803e3d6000fd5b505050506040513d601f19601f82011682018060405250810190620000ab91906200013e565b60c052600080546001600160a01b0319166001600160a01b039290921691909117905550620001589050565b80516001600160a01b0381168114620000ef57600080fd5b919050565b6000806000606084860312156200010a57600080fd5b6200011584620000d7565b92506200012560208501620000d7565b91506200013560408501620000d7565b90509250925092565b6000602082840312156200015157600080fd5b5051919050565b60805160a05160c051611be1620001ce6000396000818161022a0152611051015260008181610186015281816104ac0152818161061901528181610c950152610ff40152600081816102bd01528181610478015281816105c2015281816105f701528181610da6015261102d0152611be16000f3fe6080604052600436106100c25760003560e01c8063cc2f84cb1161007f578063dbb6b00f11610059578063dbb6b00f1461024c578063e5a6b10f146102ab578063f1b156b2146102df578063f2978d98146102ff57600080fd5b8063cc2f84cb146101c8578063d448a4ec146101fa578063d509b0171461021857600080fd5b806309c977e4146100c7578063162a11f5146100fa5780635dd51ddd146101325780638528f1dd1461015f5780638921a61414610174578063ad00ff08146101a8575b600080fd5b3480156100d357600080fd5b506100e76100e236600461133f565b61032e565b6040519081526020015b60405180910390f35b34801561010657600080fd5b5060005461011a906001600160a01b031681565b6040516001600160a01b0390911681526020016100f1565b34801561013e57600080fd5b5061015261014d366004611378565b6106de565b6040516100f191906113e1565b61017261016d3660046114fd565b61080f565b005b34801561018057600080fd5b5061011a7f000000000000000000000000000000000000000000000000000000000000000081565b3480156101b457600080fd5b506100e76101c3366004611544565b61098b565b3480156101d457600080fd5b506101e86101e3366004611378565b610bb1565b6040516100f1969594939291906115b5565b34801561020657600080fd5b50610172610215366004611378565b50565b34801561022457600080fd5b506100e77f000000000000000000000000000000000000000000000000000000000000000081565b34801561025857600080fd5b5061028c610267366004611378565b600260205260009081526040902080546001909101546001600160a01b039091169082565b604080516001600160a01b0390931683526020830191909152016100f1565b3480156102b757600080fd5b5061011a7f000000000000000000000000000000000000000000000000000000000000000081565b3480156102eb57600080fd5b506101726102fa366004611615565b610c8a565b34801561030b57600080fd5b50610315611c2081565b60405167ffffffffffffffff90911681526020016100f1565b600082815260016020526040812080546001600160a01b03166103915760405162461bcd60e51b81526020600482015260166024820152751c1c9bdb5a5cd948191bd95cc81b9bdd08195e1a5cdd60521b60448201526064015b60405180910390fd5b60008363ffffffff161180156103ae575060648363ffffffff1611155b6103fa5760405162461bcd60e51b815260206004820152601e60248201527f70657263656e74616765206f7574736964652076616c69642072616e676500006044820152606401610388565b600381015463ffffffff16156104525760405162461bcd60e51b815260206004820152601c60248201527f417373657274696f6e20616374697665206f72207265736f6c766564000000006044820152606401610388565b60038101805463ffffffff191663ffffffff8516179055604051634360af3d60e01b81527f00000000000000000000000000000000000000000000000000000000000000006001600160a01b0390811660048301526000917f000000000000000000000000000000000000000000000000000000000000000090911690634360af3d90602401602060405180830381865afa1580156104f5573d6000803e3d6000fd5b505050506040513d601f19601f82011682018060405250810190610519919061163a565b905060006105b38584600101805461053090611653565b80601f016020809104026020016040519081016040528092919081815260200182805461055c90611653565b80156105a95780601f1061057e576101008083540402835291602001916105a9565b820191906000526020600020905b81548152906001019060200180831161058c57829003601f168201915b5050505050610e22565b90506105ea6001600160a01b037f000000000000000000000000000000000000000000000000000000000000000016333085610e4f565b61063e6001600160a01b037f0000000000000000000000000000000000000000000000000000000000000000167f000000000000000000000000000000000000000000000000000000000000000084610ec0565b6106488183610fda565b60408051808201825233815260208082018a8152600085815260028352848120935184546001600160a01b0319166001600160a01b0390911617845590516001938401558a8152908290528290209151929650869289927ffc277fb088ac1d3decd10c06016f23f6e0376fe72677c7779352ad11947b3539926106cd9291019061168d565b60405180910390a350505092915050565b6040805160c08101825260008082526060602083018190529282018190529181018290526080810182905260a0810191909152600082815260016020818152604092839020835160c0810190945280546001600160a01b0316845291820180549184019161074b90611653565b80601f016020809104026020016040519081016040528092919081815260200182805461077790611653565b80156107c45780601f10610799576101008083540402835291602001916107c4565b820191906000526020600020905b8154815290600101906020018083116107a757829003601f168201915b50505091835250506002820154602082015260039091015463ffffffff80821660408401526401000000008204166060830152600160401b900460ff16151560809091015292915050565b600080548382526001602081815260409384902093516001600160a01b03909316936381d6ef2d9386936108499334939091019101611718565b6040516020818303038152906040526040518363ffffffff1660e01b81526004016108759291906117c5565b600060405180830381600087803b15801561088f57600080fd5b505af11580156108a3573d6000803e3d6000fd5b5050506000838152600160205260409020546001600160a01b031690506109055760405162461bcd60e51b8152602060048201526016602482015275141c9bdb5a5cd948191bd95cc81b9bdd08195e1a5cdd60521b6044820152606401610388565b600034116109615760405162461bcd60e51b8152602060048201526024808201527f4d7573742073656e642045544820746f207374616b6520666f7220612070726f6044820152636d69736560e01b6064820152608401610388565b60008281526001602052604081206002018054349290610982908490611809565b90915550505050565b600080546040516001600160a01b039091169063bbc4cf0c9084906109b490879060200161181c565b6040516020818303038152906040526040518363ffffffff1660e01b81526004016109e09291906117c5565b600060405180830381600087803b1580156109fa57600080fd5b505af1158015610a0e573d6000803e3d6000fd5b505050508233604051602001610a25929190611855565b60408051601f198184030181529181528151602092830120600081815260019093529120549091506001600160a01b031615610a9c5760405162461bcd60e51b815260206004820152601660248201527570726f6d69736520616c72656164792065786973747360501b6044820152606401610388565b6040805160c08101825233815260208082018681526000838501819052606084018190526080840181905260a0840181905285815260019283905293909320825181546001600160a01b0319166001600160a01b03909116178155925191929190820190610b0a90826118cd565b506040828101516002830155606083015160039092018054608085015160a0909501511515600160401b0260ff60401b1963ffffffff9687166401000000000267ffffffffffffffff19909316969095169590951717929092169290921790555181907f35c188503eac0a4579ece673a6b5c27145329435947ac3b24b9b6ce1f07df8ac90610ba390869060009081908190819061198d565b60405180910390a292915050565b6001602081905260009182526040909120805491810180546001600160a01b0390931692610bde90611653565b80601f0160208091040260200160405190810160405280929190818152602001828054610c0a90611653565b8015610c575780601f10610c2c57610100808354040283529160200191610c57565b820191906000526020600020905b815481529060010190602001808311610c3a57829003601f168201915b50505050600283015460039093015491929163ffffffff808216925064010000000082041690600160401b900460ff1686565b336001600160a01b037f00000000000000000000000000000000000000000000000000000000000000001614610cf35760405162461bcd60e51b815260206004820152600e60248201526d139bdd08185d5d1a1bdc9a5e995960921b6044820152606401610388565b6000828152600260209081526040808320600190810154845290915290208115610e105760038101805460ff60401b1916600160401b179055600281015415610dd5576002810154600382015460009190610d5e9063ffffffff640100000000820481169116611a06565b63ffffffff16610d6e9190611a2a565b60038301805467ffffffff0000000019811663ffffffff91821664010000000002179091558354919250610dd3916001600160a01b037f000000000000000000000000000000000000000000000000000000000000000081169291169084906110c516565b505b60008381526002602052604080822060010154905190917fbe0f41ebe98cbb9d779ee222989fb0ca4862011ce32be4371c9e7518958a7b0d91a25b600301805463ffffffff191690555050565b60608282604051602001610e37929190611a49565b60405160208183030381529060405290505b92915050565b6040516001600160a01b0380851660248301528316604482015260648101829052610eba9085906323b872dd60e01b906084015b60408051601f198184030181529190526020810180516001600160e01b03166001600160e01b0319909316929092179091526110f5565b50505050565b801580610f3a5750604051636eb1769f60e11b81523060048201526001600160a01b03838116602483015284169063dd62ed3e90604401602060405180830381865afa158015610f14573d6000803e3d6000fd5b505050506040513d601f19601f82011682018060405250810190610f38919061163a565b155b610fa55760405162461bcd60e51b815260206004820152603660248201527f5361666545524332303a20617070726f76652066726f6d206e6f6e2d7a65726f60448201527520746f206e6f6e2d7a65726f20616c6c6f77616e636560501b6064820152608401610388565b6040516001600160a01b038316602482015260448101829052610fd590849063095ea7b360e01b90606401610e83565b505050565b604051636457c97960e01b81526000906001600160a01b037f00000000000000000000000000000000000000000000000000000000000000001690636457c9799061107b908690339030908790611c20907f0000000000000000000000000000000000000000000000000000000000000000908b907f0000000000000000000000000000000000000000000000000000000000000000908590600401611af1565b6020604051808303816000875af115801561109a573d6000803e3d6000fd5b505050506040513d601f19601f820116820180604052508101906110be919061163a565b9392505050565b6040516001600160a01b038316602482015260448101829052610fd590849063a9059cbb60e01b90606401610e83565b600061114a826040518060400160405280602081526020017f5361666545524332303a206c6f772d6c6576656c2063616c6c206661696c6564815250856001600160a01b03166111c79092919063ffffffff16565b805190915015610fd557808060200190518101906111689190611b5f565b610fd55760405162461bcd60e51b815260206004820152602a60248201527f5361666545524332303a204552433230206f7065726174696f6e20646964206e6044820152691bdd081cdd58d8d9595960b21b6064820152608401610388565b60606111d684846000856111de565b949350505050565b60608247101561123f5760405162461bcd60e51b815260206004820152602660248201527f416464726573733a20696e73756666696369656e742062616c616e636520666f6044820152651c8818d85b1b60d21b6064820152608401610388565b843b61128d5760405162461bcd60e51b815260206004820152601d60248201527f416464726573733a2063616c6c20746f206e6f6e2d636f6e74726163740000006044820152606401610388565b600080866001600160a01b031685876040516112a99190611b7c565b60006040518083038185875af1925050503d80600081146112e6576040519150601f19603f3d011682016040523d82523d6000602084013e6112eb565b606091505b50915091506112fb828286611306565b979650505050505050565b606083156113155750816110be565b8251156113255782518084602001fd5b8160405162461bcd60e51b81526004016103889190611b98565b6000806040838503121561135257600080fd5b82359150602083013563ffffffff8116811461136d57600080fd5b809150509250929050565b60006020828403121561138a57600080fd5b5035919050565b60005b838110156113ac578181015183820152602001611394565b50506000910152565b600081518084526113cd816020860160208601611391565b601f01601f19169290920160200192915050565b602080825282516001600160a01b03168282015282015160c0604083015260009061140f60e08401826113b5565b905060408401516060840152606084015163ffffffff80821660808601528060808701511660a0860152505060a0840151151560c08401528091505092915050565b634e487b7160e01b600052604160045260246000fd5b600067ffffffffffffffff8084111561148257611482611451565b604051601f8501601f19908116603f011681019082821181831017156114aa576114aa611451565b816040528093508581528686860111156114c357600080fd5b858560208301376000602087830101525050509392505050565b600082601f8301126114ee57600080fd5b6110be83833560208501611467565b6000806040838503121561151057600080fd5b82359150602083013567ffffffffffffffff81111561152e57600080fd5b61153a858286016114dd565b9150509250929050565b6000806040838503121561155757600080fd5b823567ffffffffffffffff8082111561156f57600080fd5b818501915085601f83011261158357600080fd5b61159286833560208501611467565b935060208501359150808211156115a857600080fd5b5061153a858286016114dd565b6001600160a01b038716815260c0602082018190526000906115d9908301886113b5565b60408301969096525063ffffffff938416606082015291909216608082015290151560a09091015292915050565b801515811461021557600080fd5b6000806040838503121561162857600080fd5b82359150602083013561136d81611607565b60006020828403121561164c57600080fd5b5051919050565b600181811c9082168061166757607f821691505b60208210810361168757634e487b7160e01b600052602260045260246000fd5b50919050565b60006020808352600084546116a181611653565b808487015260406001808416600081146116c257600181146116dc5761170a565b60ff1985168984015283151560051b89018301955061170a565b896000528660002060005b858110156117025781548b82018601529083019088016116e7565b8a0184019650505b509398975050505050505050565b67029ba30b5b4b733960c51b81528260088201526c0103337b910383937b6b4b9b29609d1b6028820152600060356000845461175381611653565b6001828116801561176b5760018114611784576117b7565b60ff1984168887015282151583028801860194506117b7565b8860005260208060002060005b858110156117ac5781548b82018a0152908401908201611791565b505050858389010194505b509298975050505050505050565b6040815260006117d860408301856113b5565b82810360208401526117ea81856113b5565b95945050505050565b634e487b7160e01b600052601160045260246000fd5b80820180821115610e4957610e496117f3565b70021b932b0ba34b73390383937b6b4b9b29607d1b815260008251611848816011850160208701611391565b9190910160110192915050565b60408152600061186860408301856113b5565b905060018060a01b03831660208301529392505050565b601f821115610fd557600081815260208120601f850160051c810160208610156118a65750805b601f850160051c820191505b818110156118c5578281556001016118b2565b505050505050565b815167ffffffffffffffff8111156118e7576118e7611451565b6118fb816118f58454611653565b8461187f565b602080601f83116001811461193057600084156119185750858301515b600019600386901b1c1916600185901b1785556118c5565b600085815260208120601f198616915b8281101561195f57888601518255948401946001909101908401611940565b508582101561197d5787850151600019600388901b60f8161c191681555b5050505050600190811b01905550565b60e08152600360e08201526259657360e81b610100820152600061012080602084015260028184015250614e6f60f01b6101408301526101608060408401526119d8818401896113b5565b6001600160a01b0397881660608501529590961660808301525060a081019290925260c09091015292915050565b63ffffffff828116828216039080821115611a2357611a236117f3565b5092915050565b6000816000190483118215151615611a4457611a446117f3565b500290565b7f447572696e672074686520656c656374656420706572696f642074686520646581527f736372696265642070726f6d69736520686173206265656e2066756c66696c6c602082015264656420746f60d81b604082015263ffffffff60e01b8360e01b1660458201527201296103a343290383937b6b4b9b29034b99d1606d1b604982015260008251611ae381605c850160208701611391565b91909101605c019392505050565b6000610120808352611b058184018d6113b5565b6001600160a01b039b8c166020850152998b1660408401525050958816606087015267ffffffffffffffff9490941660808601529190951660a084015260c083019490945260e08201939093526101000191909152919050565b600060208284031215611b7157600080fd5b81516110be81611607565b60008251611b8e818460208701611391565b9190910192915050565b6020815260006110be60208301846113b556fea2646970667358221220d9af93c6943fa789aaf10620e204eba60c68efba12e0f791ab78f6e90a3856c064736f6c63430008100033",
  "linkReferences": {},
  "deployedLinkReferences": {}
}