{
  "_format": "hh-sol-artifact-1",
  "contractName": "SismoVerifier",
  "sourceName": "contracts/SismoVerifier.sol",
  "abi": [
    {
      "inputs": [],
      "stateMutability": "nonpayable",
      "type": "constructor"
    },
    {
      "anonymous": false,
      "inputs": [
        {
          "components": [
            {
              "internalType": "bytes16",
              "name": "appId",
              "type": "bytes16"
            },
            {
              "internalType": "bytes16",
              "name": "namespace",
              "type": "bytes16"
            },
            {
              "internalType": "bytes32",
              "name": "version",
              "type": "bytes32"
            },
            {
              "components": [
                {
                  "internalType": "enum AuthType",
                  "name": "authType",
                  "type": "uint8"
                },
                {
                  "internalType": "bool",
                  "name": "isAnon",
                  "type": "bool"
                },
                {
                  "internalType": "uint256",
                  "name": "userId",
                  "type": "uint256"
                },
                {
                  "internalType": "bytes",
                  "name": "extraData",
                  "type": "bytes"
                },
                {
                  "internalType": "bytes",
                  "name": "proofData",
                  "type": "bytes"
                }
              ],
              "internalType": "struct VerifiedAuth[]",
              "name": "auths",
              "type": "tuple[]"
            },
            {
              "components": [
                {
                  "internalType": "enum ClaimType",
                  "name": "claimType",
                  "type": "uint8"
                },
                {
                  "internalType": "bytes16",
                  "name": "groupId",
                  "type": "bytes16"
                },
                {
                  "internalType": "bytes16",
                  "name": "groupTimestamp",
                  "type": "bytes16"
                },
                {
                  "internalType": "uint256",
                  "name": "value",
                  "type": "uint256"
                },
                {
                  "internalType": "bytes",
                  "name": "extraData",
                  "type": "bytes"
                },
                {
                  "internalType": "uint256",
                  "name": "proofId",
                  "type": "uint256"
                },
                {
                  "internalType": "bytes",
                  "name": "proofData",
                  "type": "bytes"
                }
              ],
              "internalType": "struct VerifiedClaim[]",
              "name": "claims",
              "type": "tuple[]"
            },
            {
              "internalType": "bytes",
              "name": "signedMessage",
              "type": "bytes"
            }
          ],
          "indexed": false,
          "internalType": "struct SismoConnectVerifiedResult",
          "name": "result",
          "type": "tuple"
        }
      ],
      "name": "ResponseVerified",
      "type": "event"
    },
    {
      "inputs": [],
      "name": "ADDRESSES_PROVIDER_V2",
      "outputs": [
        {
          "internalType": "contract IAddressesProvider",
          "name": "",
          "type": "address"
        }
      ],
      "stateMutability": "view",
      "type": "function"
    },
    {
      "inputs": [],
      "name": "APP_ID",
      "outputs": [
        {
          "internalType": "bytes16",
          "name": "",
          "type": "bytes16"
        }
      ],
      "stateMutability": "view",
      "type": "function"
    },
    {
      "inputs": [],
      "name": "IS_IMPERSONATION_MODE",
      "outputs": [
        {
          "internalType": "bool",
          "name": "",
          "type": "bool"
        }
      ],
      "stateMutability": "view",
      "type": "function"
    },
    {
      "inputs": [],
      "name": "SISMO_CONNECT_LIB_VERSION",
      "outputs": [
        {
          "internalType": "uint256",
          "name": "",
          "type": "uint256"
        }
      ],
      "stateMutability": "view",
      "type": "function"
    },
    {
      "inputs": [],
      "name": "config",
      "outputs": [
        {
          "components": [
            {
              "internalType": "bytes16",
              "name": "appId",
              "type": "bytes16"
            },
            {
              "components": [
                {
                  "internalType": "bool",
                  "name": "isImpersonationMode",
                  "type": "bool"
                }
              ],
              "internalType": "struct VaultConfig",
              "name": "vault",
              "type": "tuple"
            }
          ],
          "internalType": "struct SismoConnectConfig",
          "name": "",
          "type": "tuple"
        }
      ],
      "stateMutability": "view",
      "type": "function"
    },
    {
      "inputs": [
        {
          "internalType": "bytes",
          "name": "response",
          "type": "bytes"
        },
        {
          "internalType": "bytes",
          "name": "message",
          "type": "bytes"
        }
      ],
      "name": "verifyCitizen",
      "outputs": [],
      "stateMutability": "nonpayable",
      "type": "function"
    },
    {
      "inputs": [
        {
          "internalType": "bytes",
          "name": "response",
          "type": "bytes"
        },
        {
          "internalType": "bytes",
          "name": "message",
          "type": "bytes"
        }
      ],
      "name": "verifyPolitician",
      "outputs": [],
      "stateMutability": "nonpayable",
      "type": "function"
    }
  ],
  "bytecode": "0x6101606040523480156200001257600080fd5b50620000336ff4977993e52606cfd67b7a1cde71706960801b6001620003fb565b80516001600160801b0319166101205260208082015151151561014052604080518082018252601981527f7369736d6f436f6e6e65637456657269666965722d76312e3200000000000000928101929092525163349f642f60e11b8152733cd5334eb64ebbd4003b72022cc25465f1bfcee69163693ec85e91620000bb91906004016200045d565b602060405180830381865afa158015620000d9573d6000803e3d6000fd5b505050506040513d601f19601f82011682018060405250810190620000ff9190620004ad565b6001600160a01b0316608052604080518082018252601781527f61757468526571756573744275696c6465722d76312e310000000000000000006020820152905163349f642f60e11b8152733cd5334eb64ebbd4003b72022cc25465f1bfcee69163693ec85e916200017591906004016200045d565b602060405180830381865afa15801562000193573d6000803e3d6000fd5b505050506040513d601f19601f82011682018060405250810190620001b99190620004ad565b6001600160a01b031660a052604080518082018252601881527f636c61696d526571756573744275696c6465722d76312e3100000000000000006020820152905163349f642f60e11b8152733cd5334eb64ebbd4003b72022cc25465f1bfcee69163693ec85e916200022f91906004016200045d565b602060405180830381865afa1580156200024d573d6000803e3d6000fd5b505050506040513d601f19601f82011682018060405250810190620002739190620004ad565b6001600160a01b031660c052604080518082018252601581527f7369676e61747572654275696c6465722d76312e3100000000000000000000006020820152905163349f642f60e11b8152733cd5334eb64ebbd4003b72022cc25465f1bfcee69163693ec85e91620002e991906004016200045d565b602060405180830381865afa15801562000307573d6000803e3d6000fd5b505050506040513d601f19601f820116820180604052508101906200032d9190620004ad565b6001600160a01b031660e052604080518082018252601381527f726571756573744275696c6465722d76312e31000000000000000000000000006020820152905163349f642f60e11b8152733cd5334eb64ebbd4003b72022cc25465f1bfcee69163693ec85e91620003a391906004016200045d565b602060405180830381865afa158015620003c1573d6000803e3d6000fd5b505050506040513d601f19601f82011682018060405250810190620003e79190620004ad565b6001600160a01b03166101005250620004df565b62000422604080518082018252600080825282516020818101909452908152909182015290565b506040805180820182526001600160801b03199390931683528051602080820183526000909152815180820190925291151581529082015290565b600060208083528351808285015260005b818110156200048c578581018301518582016040015282016200046e565b506000604082860101526040601f19601f8301168501019250505092915050565b600060208284031215620004c057600080fd5b81516001600160a01b0381168114620004d857600080fd5b9392505050565b60805160a05160c05160e051610100516101205161014051611ba0620005446000396000818160e901526101d001526000818161013301526101af015260006105e001526000610440015260006103a2015260005050600061051b0152611ba06000f3fe608060405234801561001057600080fd5b506004361061007d5760003560e01c8063a183dc271161005b578063a183dc27146100e4578063bbc4cf0c1461011b578063c187bbc11461012e578063c9512d991461016e57600080fd5b8063469163011461008257806379502c55146100ba57806381d6ef2d146100cf575b600080fd5b61009d733cd5334eb64ebbd4003b72022cc25465f1bfcee681565b6040516001600160a01b0390911681526020015b60405180910390f35b6100c2610184565b6040516100b191906106f8565b6100e26100dd36600461086d565b6101f9565b005b61010b7f000000000000000000000000000000000000000000000000000000000000000081565b60405190151581526020016100b1565b6100e261012936600461086d565b6102bb565b6101557f000000000000000000000000000000000000000000000000000000000000000081565b6040516001600160801b031990911681526020016100b1565b610176600281565b6040519081526020016100b1565b6101aa604080518082018252600080825282516020818101909452908152909182015290565b6101f47f00000000000000000000000000000000000000000000000000000000000000007f000000000000000000000000000000000000000000000000000000000000000061030b565b905090565b604080516001808252818301909252600091816020015b610218610668565b8152602001906001900390816102105790505090506102496f6e41539fdb94fe30e82d46d7f664860f60801b61037b565b8160008151811061025c5761025c6108d0565b6020026020010181905250600061027c848361027786610419565b6104c2565b90507f9289e35b3d969e3d006d5d4306119c6719c081660cf5b89a43654f2420a06668816040516102ad9190610a37565b60405180910390a150505050565b604080516001808252818301909252600091816020015b6102da610668565b8152602001906001900390816102d25790505090506102496fe57abdb9acb2d308d4ec1a12833e1c9f60801b61037b565b610331604080518082018252600080825282516020818101909452908152909182015290565b6040518060400160405280846001600160801b031916815260200161037084604080516020808201835260009091528151908101909152901515815290565b905290505b92915050565b610383610668565b6040516338de608760e21b81526001600160801b0319831660048201527f00000000000000000000000000000000000000000000000000000000000000006001600160a01b03169063e379821c90602401600060405180830381865afa1580156103f1573d6000803e3d6000fd5b505050506040513d6000823e601f3d908101601f191682016040526103759190810190610c8e565b604080516060808201835280825260006020830152818301529051631a0d7ccb60e21b81527f00000000000000000000000000000000000000000000000000000000000000006001600160a01b031690636835f32c9061047d908590600401610cc2565b600060405180830381865afa15801561049a573d6000803e3d6000fd5b505050506040513d6000823e601f3d908101601f191682016040526103759190810190610d6f565b6040805160c0810182526000808252602082018190529181019190915260608082018190526080820181905260a08201526000848060200190518101906105099190610fe2565b9050600061051785856105c1565b90507f00000000000000000000000000000000000000000000000000000000000000006001600160a01b03166312b037ff8383610552610184565b6040518463ffffffff1660e01b81526004016105709392919061142f565b6000604051808303816000875af115801561058f573d6000803e3d6000fd5b505050506040513d6000823e601f3d908101601f191682016040526105b79190810190611831565b9695505050505050565b6105c96106a8565b60405163b5ae258760e01b81526001600160a01b037f0000000000000000000000000000000000000000000000000000000000000000169063b5ae2587906106179086908690600401611911565b600060405180830381865afa158015610634573d6000803e3d6000fd5b505050506040513d6000823e601f3d908101601f1916820160405261065c91908101906119b5565b9392505050565b905290565b6040805160e0810190915280600081526000602082018190526040820181905260608083018290526080830182905260a083019190915260c09091015290565b604051806080016040528060006001600160801b03191681526020016060815260200160608152602001610663604051806060016040528060608152602001600015158152602001606081525090565b81516001600160801b03191681526020808301515115159082015260408101610375565b634e487b7160e01b600052604160045260246000fd5b60405160e081016001600160401b03811182821017156107545761075461071c565b60405290565b60405160a081016001600160401b03811182821017156107545761075461071c565b60405160c081016001600160401b03811182821017156107545761075461071c565b604051608081016001600160401b03811182821017156107545761075461071c565b604051601f8201601f191681016001600160401b03811182821017156107e8576107e861071c565b604052919050565b60006001600160401b038211156108095761080961071c565b50601f01601f191660200190565b600082601f83011261082857600080fd5b813561083b610836826107f0565b6107c0565b81815284602083860101111561085057600080fd5b816020850160208301376000918101602001919091529392505050565b6000806040838503121561088057600080fd5b82356001600160401b038082111561089757600080fd5b6108a386838701610817565b935060208501359150808211156108b957600080fd5b506108c685828601610817565b9150509250929050565b634e487b7160e01b600052603260045260246000fd5b634e487b7160e01b600052602160045260246000fd5b6006811061090c5761090c6108e6565b9052565b60005b8381101561092b578181015183820152602001610913565b50506000910152565b6000815180845261094c816020860160208601610910565b601f01601f19169290920160200192915050565b6005811061090c5761090c6108e6565b600081518084526020808501808196508360051b8101915082860160005b85811015610a2a578284038952815160e06109aa868351610960565b818701516001600160801b03199081168789015260408084015190911690870152606080830151908701526080808301518188018390526109ed83890182610934565b9250505060a080830151818801525060c08083015192508682038188015250610a168183610934565b9a87019a955050509084019060010161098e565b5091979650505050505050565b6000602080835260e083016001600160801b0319808651168386015282860151604082821681880152808801519250606091508282880152818801519250608060c0818901528484518087526101009650868a019150868160051b8b01019650878601955060005b81811015610b145760ff198b8903018352865160a0610abf8a83516108fc565b8a82015115158b8b015286820151878b01528782015181898c0152610ae6828c0182610934565b915050858201519150898103868b0152610b008183610934565b995050509588019591880191600101610a9f565b50505080890151955050505050601f19808583030160a0860152610b388284610970565b925060a08601519150808584030160c086015250610b568282610934565b95945050505050565b805160058110610b6e57600080fd5b919050565b80516001600160801b031981168114610b6e57600080fd5b80518015158114610b6e57600080fd5b600082601f830112610bac57600080fd5b8151610bba610836826107f0565b818152846020838601011115610bcf57600080fd5b610be0826020830160208701610910565b949350505050565b600060e08284031215610bfa57600080fd5b610c02610732565b9050610c0d82610b5f565b8152610c1b60208301610b73565b6020820152610c2c60408301610b73565b604082015260608201516060820152610c4760808301610b8b565b6080820152610c5860a08301610b8b565b60a082015260c08201516001600160401b03811115610c7657600080fd5b610c8284828501610b9b565b60c08301525092915050565b600060208284031215610ca057600080fd5b81516001600160401b03811115610cb657600080fd5b610be084828501610be8565b60208152600061065c6020830184610934565b600060608284031215610ce757600080fd5b604051606081016001600160401b038282108183111715610d0a57610d0a61071c565b816040528293508451915080821115610d2257600080fd5b610d2e86838701610b9b565b8352610d3c60208601610b8b565b60208401526040850151915080821115610d5557600080fd5b50610d6285828601610b9b565b6040830152505092915050565b600060208284031215610d8157600080fd5b81516001600160401b03811115610d9757600080fd5b610be084828501610cd5565b60006001600160401b03821115610dbc57610dbc61071c565b5060051b60200190565b805160068110610b6e57600080fd5b600082601f830112610de657600080fd5b81516020610df661083683610da3565b82815260059290921b84018101918181019086841115610e1557600080fd5b8286015b84811015610ecd5780516001600160401b0380821115610e395760008081fd5b9088019060a0828b03601f1901811315610e535760008081fd5b610e5b61075a565b610e66888501610dc6565b81526040610e75818601610b8b565b898301526060610e86818701610b8b565b828401526080915081860151818401525082850151925083831115610eab5760008081fd5b610eb98d8a85880101610b9b565b908201528652505050918301918301610e19565b509695505050505050565b600082601f830112610ee957600080fd5b81516020610ef961083683610da3565b82815260059290921b84018101918181019086841115610f1857600080fd5b8286015b84811015610ecd5780516001600160401b0380821115610f3c5760008081fd5b9088019060c0828b03601f1901811315610f565760008081fd5b610f5e61077c565b610f69888501610b5f565b81526040610f78818601610b73565b898301526060610f89818701610b73565b8284015260809150610f9c828701610b8b565b9083015260a08581015182840152928501519284841115610fbf57600091508182fd5b610fcd8e8b86890101610b9b565b90830152508652505050918301918301610f1c565b60006020808385031215610ff557600080fd5b82516001600160401b038082111561100c57600080fd5b9084019060a0828703121561102057600080fd5b61102861075a565b61103183610b73565b815261103e848401610b73565b848201526040830151604082015260608301518281111561105e57600080fd5b61106a88828601610b9b565b6060830152506080808401518381111561108357600080fd5b80850194505087601f85011261109857600080fd5b83516110a661083682610da3565b81815260059190911b8501860190868101908a8311156110c557600080fd5b8787015b838110156111ad578051878111156110e15760008081fd5b880160a0818e03601f190112156110f85760008081fd5b61110061075a565b8a820151898111156111125760008081fd5b6111208f8d83860101610dd5565b8252506040820151898111156111365760008081fd5b6111448f8d83860101610ed8565b8c830152506060820151604082015286820151898111156111655760008081fd5b6111738f8d83860101610b9b565b60608301525060a08201518981111561118c5760008081fd5b61119a8f8d83860101610b9b565b82890152508452509188019188016110c9565b50928401929092525090979650505050505050565b600081518084526020808501808196508360051b8101915082860160005b85811015610a2a578284038952815160c06111fc868351610960565b818701516001600160801b031990811687890152604080840151909116908701526060808301511515908701526080808301519087015260a09182015191860181905261124b81870183610934565b9a87019a95505050908401906001016111e0565b600081518084526020808501808196508360051b8101915082860160005b85811015610a2a578284038952815160e0611299868351610960565b818701516001600160801b031990811687890152604080840151909116908701526060808301519087015260808083015115159087015260a08083015115159087015260c0918201519186018190526112f481870183610934565b9a87019a955050509084019060010161127d565b600081516060845261131d6060850182610934565b905060208301511515602085015260408301518482036040860152610b568282610934565b600060808084016001600160801b03198451168552602080850151838288015282815180855260a094508489019150848160051b8a0101848401935060005b828110156113f657609f198b8303018452845160c06113a18483516108fc565b81880151848901526040808301511515908501526060808301511515908501528982015115158a85015290880151888401829052906113e281850183610934565b968801969588019593505050600101611381565b506040890151965089810360408b0152611410818861125f565b965050505050505060608301518482036060860152610b568282611308565b600060808083526001600160801b0319808751168285015260208088015182811660a087015250604088015191508160c08601526060880151915060a060e086015261147f610120860183610934565b88840151868203607f1901610100880152805180835291935082019082840190600581901b8501840160005b828110156115b857601f198783030184528451805160a0808552815190850181905260c0600582901b86018101928a01919086019060005b8181101561154d5760bf1988860301835283516115018682516108fc565b8c81015115158d870152604081015115156040870152606081015160608701528e810151905060a08f87015261153a60a0870182610934565b955050928b0192918b01916001016114e3565b50505050878201518482038986015261156682826111c2565b915050604082015160408501526060820151848203606086015261158a8282610934565b9150508982015191508381038a8501526115a48183610934565b9688019695880195935050506001016114ab565b50888103858a01526115ca818c611342565b8a516001600160801b03191660408b015260208b015151151560608b01529750610be09650505050505050565b600082601f83011261160857600080fd5b8151602061161861083683610da3565b82815260059290921b8401810191818101908684111561163757600080fd5b8286015b84811015610ecd5780516001600160401b038082111561165b5760008081fd5b9088019060a0828b03601f19018113156116755760008081fd5b61167d61075a565b611688888501610dc6565b81526040611697818601610b8b565b89830152606080860151828401526080915081860151858111156116bb5760008081fd5b6116c98f8c838a0101610b9b565b828501525050828501519250838311156116e35760008081fd5b6116f18d8a85880101610b9b565b90820152865250505091830191830161163b565b600082601f83011261171657600080fd5b8151602061172661083683610da3565b82815260059290921b8401810191818101908684111561174557600080fd5b8286015b84811015610ecd5780516001600160401b03808211156117695760008081fd5b9088019060e0828b03601f19018113156117835760008081fd5b61178b610732565b611796888501610b5f565b815260406117a5818601610b73565b8983015260606117b6818701610b73565b828401526080915081860151818401525060a080860151858111156117db5760008081fd5b6117e98f8c838a0101610b9b565b838501525060c091508186015181840152508285015192508383111561180f5760008081fd5b61181d8d8a85880101610b9b565b908201528652505050918301918301611749565b60006020828403121561184357600080fd5b81516001600160401b038082111561185a57600080fd5b9083019060c0828603121561186e57600080fd5b61187661077c565b61187f83610b73565b815261188d60208401610b73565b6020820152604083015160408201526060830151828111156118ae57600080fd5b6118ba878286016115f7565b6060830152506080830151828111156118d257600080fd5b6118de87828601611705565b60808301525060a0830151828111156118f657600080fd5b61190287828601610b9b565b60a08301525095945050505050565b604081526000611924604083018561125f565b8281036020840152610b568185611308565b600082601f83011261194757600080fd5b8151602061195761083683610da3565b82815260059290921b8401810191818101908684111561197657600080fd5b8286015b84811015610ecd5780516001600160401b038111156119995760008081fd5b6119a78986838b0101610be8565b84525091830191830161197a565b600060208083850312156119c857600080fd5b82516001600160401b03808211156119df57600080fd5b90840190608082870312156119f357600080fd5b6119fb61079e565b611a0483610b73565b81528383015182811115611a1757600080fd5b8301601f81018813611a2857600080fd5b8051611a3661083682610da3565b81815260059190911b8201860190868101908a831115611a5557600080fd5b8784015b83811015611b0c57805187811115611a7057600080fd5b850160c0818e03601f19011215611a8657600080fd5b611a8e61077c565b611a998b8301610dc6565b815260408201518b820152611ab060608301610b8b565b6040820152611ac160808301610b8b565b6060820152611ad260a08301610b8b565b608082015260c082015189811115611aea5760008081fd5b611af88f8d83860101610b9b565b60a083015250845250918801918801611a59565b508088860152505050506040830151935081841115611b2a57600080fd5b611b3687858501611936565b60408201526060830151935081841115611b4f57600080fd5b611b5b87858501610cd5565b6060820152969550505050505056fea2646970667358221220b41c350e6e5e82ad1f6a68b8063aa6a7d0f6816a70d039b3d2773b04321f58cd64736f6c63430008110033",
  "linkReferences": {},
  "deployedLinkReferences": {}
}