{
  "_format": "hh-sol-artifact-1",
  "contractName": "SismoVerifier",
  "sourceName": "contracts/SismoVerifier.sol",
  "abi": [
    {
      "inputs": [],
      "stateMutability": "nonpayable",
      "type": "constructor"
    },
    {
      "anonymous": false,
      "inputs": [
        {
          "components": [
            {
              "internalType": "bytes16",
              "name": "appId",
              "type": "bytes16"
            },
            {
              "internalType": "bytes16",
              "name": "namespace",
              "type": "bytes16"
            },
            {
              "internalType": "bytes32",
              "name": "version",
              "type": "bytes32"
            },
            {
              "components": [
                {
                  "internalType": "enum AuthType",
                  "name": "authType",
                  "type": "uint8"
                },
                {
                  "internalType": "bool",
                  "name": "isAnon",
                  "type": "bool"
                },
                {
                  "internalType": "uint256",
                  "name": "userId",
                  "type": "uint256"
                },
                {
                  "internalType": "bytes",
                  "name": "extraData",
                  "type": "bytes"
                },
                {
                  "internalType": "bytes",
                  "name": "proofData",
                  "type": "bytes"
                }
              ],
              "internalType": "struct VerifiedAuth[]",
              "name": "auths",
              "type": "tuple[]"
            },
            {
              "components": [
                {
                  "internalType": "enum ClaimType",
                  "name": "claimType",
                  "type": "uint8"
                },
                {
                  "internalType": "bytes16",
                  "name": "groupId",
                  "type": "bytes16"
                },
                {
                  "internalType": "bytes16",
                  "name": "groupTimestamp",
                  "type": "bytes16"
                },
                {
                  "internalType": "uint256",
                  "name": "value",
                  "type": "uint256"
                },
                {
                  "internalType": "bytes",
                  "name": "extraData",
                  "type": "bytes"
                },
                {
                  "internalType": "uint256",
                  "name": "proofId",
                  "type": "uint256"
                },
                {
                  "internalType": "bytes",
                  "name": "proofData",
                  "type": "bytes"
                }
              ],
              "internalType": "struct VerifiedClaim[]",
              "name": "claims",
              "type": "tuple[]"
            },
            {
              "internalType": "bytes",
              "name": "signedMessage",
              "type": "bytes"
            }
          ],
          "indexed": false,
          "internalType": "struct SismoConnectVerifiedResult",
          "name": "result",
          "type": "tuple"
        }
      ],
      "name": "ResponseVerified",
      "type": "event"
    },
    {
      "inputs": [],
      "name": "ADDRESSES_PROVIDER_V2",
      "outputs": [
        {
          "internalType": "contract IAddressesProvider",
          "name": "",
          "type": "address"
        }
      ],
      "stateMutability": "view",
      "type": "function"
    },
    {
      "inputs": [],
      "name": "APP_ID",
      "outputs": [
        {
          "internalType": "bytes16",
          "name": "",
          "type": "bytes16"
        }
      ],
      "stateMutability": "view",
      "type": "function"
    },
    {
      "inputs": [],
      "name": "IS_IMPERSONATION_MODE",
      "outputs": [
        {
          "internalType": "bool",
          "name": "",
          "type": "bool"
        }
      ],
      "stateMutability": "view",
      "type": "function"
    },
    {
      "inputs": [],
      "name": "SISMO_CONNECT_LIB_VERSION",
      "outputs": [
        {
          "internalType": "uint256",
          "name": "",
          "type": "uint256"
        }
      ],
      "stateMutability": "view",
      "type": "function"
    },
    {
      "inputs": [],
      "name": "config",
      "outputs": [
        {
          "components": [
            {
              "internalType": "bytes16",
              "name": "appId",
              "type": "bytes16"
            },
            {
              "components": [
                {
                  "internalType": "bool",
                  "name": "isImpersonationMode",
                  "type": "bool"
                }
              ],
              "internalType": "struct VaultConfig",
              "name": "vault",
              "type": "tuple"
            }
          ],
          "internalType": "struct SismoConnectConfig",
          "name": "",
          "type": "tuple"
        }
      ],
      "stateMutability": "view",
      "type": "function"
    },
    {
      "inputs": [
        {
          "internalType": "bytes",
          "name": "response",
          "type": "bytes"
        },
        {
          "internalType": "bytes",
          "name": "message",
          "type": "bytes"
        }
      ],
      "name": "verifyCitizen",
      "outputs": [],
      "stateMutability": "nonpayable",
      "type": "function"
    },
    {
      "inputs": [
        {
          "internalType": "bytes",
          "name": "response",
          "type": "bytes"
        },
        {
          "internalType": "bytes",
          "name": "message",
          "type": "bytes"
        }
      ],
      "name": "verifyPolitician",
      "outputs": [],
      "stateMutability": "nonpayable",
      "type": "function"
    }
  ],
  "bytecode": "0x610160604052600080546001600160881b031916700132403ced4b65f2079eda77c84e7d2be61790553480156200003557600080fd5b506000546200005490608081901b90600160801b900460ff166200041c565b80516001600160801b0319166101205260208082015151151561014052604080518082018252601981527f7369736d6f436f6e6e65637456657269666965722d76312e3200000000000000928101929092525163349f642f60e11b8152733cd5334eb64ebbd4003b72022cc25465f1bfcee69163693ec85e91620000dc91906004016200047e565b602060405180830381865afa158015620000fa573d6000803e3d6000fd5b505050506040513d601f19601f82011682018060405250810190620001209190620004ce565b6001600160a01b0316608052604080518082018252601781527f61757468526571756573744275696c6465722d76312e310000000000000000006020820152905163349f642f60e11b8152733cd5334eb64ebbd4003b72022cc25465f1bfcee69163693ec85e916200019691906004016200047e565b602060405180830381865afa158015620001b4573d6000803e3d6000fd5b505050506040513d601f19601f82011682018060405250810190620001da9190620004ce565b6001600160a01b031660a052604080518082018252601881527f636c61696d526571756573744275696c6465722d76312e3100000000000000006020820152905163349f642f60e11b8152733cd5334eb64ebbd4003b72022cc25465f1bfcee69163693ec85e916200025091906004016200047e565b602060405180830381865afa1580156200026e573d6000803e3d6000fd5b505050506040513d601f19601f82011682018060405250810190620002949190620004ce565b6001600160a01b031660c052604080518082018252601581527f7369676e61747572654275696c6465722d76312e3100000000000000000000006020820152905163349f642f60e11b8152733cd5334eb64ebbd4003b72022cc25465f1bfcee69163693ec85e916200030a91906004016200047e565b602060405180830381865afa15801562000328573d6000803e3d6000fd5b505050506040513d601f19601f820116820180604052508101906200034e9190620004ce565b6001600160a01b031660e052604080518082018252601381527f726571756573744275696c6465722d76312e31000000000000000000000000006020820152905163349f642f60e11b8152733cd5334eb64ebbd4003b72022cc25465f1bfcee69163693ec85e91620003c491906004016200047e565b602060405180830381865afa158015620003e2573d6000803e3d6000fd5b505050506040513d601f19601f82011682018060405250810190620004089190620004ce565b6001600160a01b0316610100525062000500565b62000443604080518082018252600080825282516020818101909452908152909182015290565b506040805180820182526001600160801b03199390931683528051602080820183526000909152815180820190925291151581529082015290565b600060208083528351808285015260005b81811015620004ad578581018301518582016040015282016200048f565b506000604082860101526040601f19601f8301168501019250505092915050565b600060208284031215620004e157600080fd5b81516001600160a01b0381168114620004f957600080fd5b9392505050565b60805160a05160c05160e051610100516101205161014051611dbe620005686000396000818160e901526101d001526000818161013301526101af015260006106a7015260006107660152600061048e01526000610524015260006105f70152611dbe6000f3fe608060405234801561001057600080fd5b506004361061007d5760003560e01c8063a183dc271161005b578063a183dc27146100e4578063bbc4cf0c1461011b578063c187bbc11461012e578063c9512d991461016e57600080fd5b8063469163011461008257806379502c55146100ba57806381d6ef2d146100cf575b600080fd5b61009d733cd5334eb64ebbd4003b72022cc25465f1bfcee681565b6040516001600160a01b0390911681526020015b60405180910390f35b6100c2610184565b6040516100b191906108bc565b6100e26100dd366004610a31565b6101f9565b005b61010b7f000000000000000000000000000000000000000000000000000000000000000081565b60405190151581526020016100b1565b6100e2610129366004610a31565b610310565b6101557f000000000000000000000000000000000000000000000000000000000000000081565b6040516001600160801b031990911681526020016100b1565b610176600281565b6040519081526020016100b1565b6101aa604080518082018252600080825282516020818101909452908152909182015290565b6101f47f00000000000000000000000000000000000000000000000000000000000000007f00000000000000000000000000000000000000000000000000000000000000006103f7565b905090565b604080516001808252818301909252600091816020015b6102186107ef565b8152602001906001900390816102105790505090506102496f6e41539fdb94fe30e82d46d7f664860f60801b610467565b8160008151811061025c5761025c610a94565b6020908102919091010152604080516001808252818301909252600091816020015b61028661082f565b81526020019060019003908161027e5790505090506102a56001610505565b816000815181106102b8576102b8610a94565b602002602001018190525060006102d085838561059e565b90507f9289e35b3d969e3d006d5d4306119c6719c081660cf5b89a43654f2420a06668816040516103019190610bfb565b60405180910390a15050505050565b60408051600280825260608201909252600091816020015b6103306107ef565b8152602001906001900390816103285790505090506103616f6e41539fdb94fe30e82d46d7f664860f60801b610467565b8160008151811061037457610374610a94565b602090810291909101015261039b6fe57abdb9acb2d308d4ec1a12833e1c9f60801b610467565b816001815181106103ae576103ae610a94565b6020908102919091010152604080516001808252818301909252600091816020015b6103d861082f565b8152602001906001900390816103d05790505090506102a56001610505565b61041d604080518082018252600080825282516020818101909452908152909182015290565b6040518060400160405280846001600160801b031916815260200161045c84604080516020808201835260009091528151908101909152901515815290565b905290505b92915050565b61046f6107ef565b6040516338de608760e21b81526001600160801b0319831660048201527f00000000000000000000000000000000000000000000000000000000000000006001600160a01b03169063e379821c90602401600060405180830381865afa1580156104dd573d6000803e3d6000fd5b505050506040513d6000823e601f3d908101601f191682016040526104619190810190610e52565b61050d61082f565b604051633a0ba6ff60e01b81526001600160a01b037f00000000000000000000000000000000000000000000000000000000000000001690633a0ba6ff90610559908590600401610e86565b600060405180830381865afa158015610576573d6000803e3d6000fd5b505050506040513d6000823e601f3d908101601f191682016040526104619190810190610f38565b6040805160c0810182526000808252602082018190529181019190915260608082018190526080820181905260a08201526000848060200190518101906105e5919061119c565b905060006105f3858561069d565b90507f00000000000000000000000000000000000000000000000000000000000000006001600160a01b03166312b037ff838361062e610184565b6040518463ffffffff1660e01b815260040161064c939291906115ea565b6000604051808303816000875af115801561066b573d6000803e3d6000fd5b505050506040513d6000823e601f3d908101601f1916820160405261069391908101906119ec565b9695505050505050565b6106a561086c565b7f00000000000000000000000000000000000000000000000000000000000000006001600160a01b0316639924033684846106de610748565b6040518463ffffffff1660e01b81526004016106fc93929190611acc565b600060405180830381865afa158015610719573d6000803e3d6000fd5b505050506040513d6000823e601f3d908101601f191682016040526107419190810190611c1e565b9392505050565b604080516060808201835280825260006020830152918101919091527f00000000000000000000000000000000000000000000000000000000000000006001600160a01b031663800e65f26040518163ffffffff1660e01b8152600401600060405180830381865afa1580156107c2573d6000803e3d6000fd5b505050506040513d6000823e601f3d908101601f191682016040526101f49190810190611d54565b905290565b6040805160e0810190915280600081526000602082018190526040820181905260608083018290526080830182905260a083019190915260c09091015290565b6040805160c08101909152806000815260200160008152602001600015158152602001600015158152602001600015158152602001606081525090565b604051806080016040528060006001600160801b031916815260200160608152602001606081526020016107ea604051806060016040528060608152602001600015158152602001606081525090565b81516001600160801b03191681526020808301515115159082015260408101610461565b634e487b7160e01b600052604160045260246000fd5b60405160e081016001600160401b0381118282101715610918576109186108e0565b60405290565b60405160c081016001600160401b0381118282101715610918576109186108e0565b60405160a081016001600160401b0381118282101715610918576109186108e0565b604051608081016001600160401b0381118282101715610918576109186108e0565b604051601f8201601f191681016001600160401b03811182821017156109ac576109ac6108e0565b604052919050565b60006001600160401b038211156109cd576109cd6108e0565b50601f01601f191660200190565b600082601f8301126109ec57600080fd5b81356109ff6109fa826109b4565b610984565b818152846020838601011115610a1457600080fd5b816020850160208301376000918101602001919091529392505050565b60008060408385031215610a4457600080fd5b82356001600160401b0380821115610a5b57600080fd5b610a67868387016109db565b93506020850135915080821115610a7d57600080fd5b50610a8a858286016109db565b9150509250929050565b634e487b7160e01b600052603260045260246000fd5b634e487b7160e01b600052602160045260246000fd5b60068110610ad057610ad0610aaa565b9052565b60005b83811015610aef578181015183820152602001610ad7565b50506000910152565b60008151808452610b10816020860160208601610ad4565b601f01601f19169290920160200192915050565b60058110610ad057610ad0610aaa565b600081518084526020808501808196508360051b8101915082860160005b85811015610bee578284038952815160e0610b6e868351610b24565b818701516001600160801b0319908116878901526040808401519091169087015260608083015190870152608080830151818801839052610bb183890182610af8565b9250505060a080830151818801525060c08083015192508682038188015250610bda8183610af8565b9a87019a9550505090840190600101610b52565b5091979650505050505050565b6000602080835260e083016001600160801b0319808651168386015282860151604082821681880152808801519250606091508282880152818801519250608060c0818901528484518087526101009650868a019150868160051b8b01019650878601955060005b81811015610cd85760ff198b8903018352865160a0610c838a8351610ac0565b8a82015115158b8b015286820151878b01528782015181898c0152610caa828c0182610af8565b915050858201519150898103868b0152610cc48183610af8565b995050509588019591880191600101610c63565b50505080890151955050505050601f19808583030160a0860152610cfc8284610b34565b925060a08601519150808584030160c086015250610d1a8282610af8565b95945050505050565b805160058110610d3257600080fd5b919050565b80516001600160801b031981168114610d3257600080fd5b80518015158114610d3257600080fd5b600082601f830112610d7057600080fd5b8151610d7e6109fa826109b4565b818152846020838601011115610d9357600080fd5b610da4826020830160208701610ad4565b949350505050565b600060e08284031215610dbe57600080fd5b610dc66108f6565b9050610dd182610d23565b8152610ddf60208301610d37565b6020820152610df060408301610d37565b604082015260608201516060820152610e0b60808301610d4f565b6080820152610e1c60a08301610d4f565b60a082015260c08201516001600160401b03811115610e3a57600080fd5b610e4684828501610d5f565b60c08301525092915050565b600060208284031215610e6457600080fd5b81516001600160401b03811115610e7a57600080fd5b610da484828501610dac565b602081016104618284610ac0565b805160068110610d3257600080fd5b600060c08284031215610eb557600080fd5b610ebd61091e565b9050610ec882610e94565b815260208201516020820152610ee060408301610d4f565b6040820152610ef160608301610d4f565b6060820152610f0260808301610d4f565b608082015260a08201516001600160401b03811115610f2057600080fd5b610f2c84828501610d5f565b60a08301525092915050565b600060208284031215610f4a57600080fd5b81516001600160401b03811115610f6057600080fd5b610da484828501610ea3565b60006001600160401b03821115610f8557610f856108e0565b5060051b60200190565b600082601f830112610fa057600080fd5b81516020610fb06109fa83610f6c565b82815260059290921b84018101918181019086841115610fcf57600080fd5b8286015b848110156110875780516001600160401b0380821115610ff35760008081fd5b9088019060a0828b03601f190181131561100d5760008081fd5b611015610940565b611020888501610e94565b8152604061102f818601610d4f565b898301526060611040818701610d4f565b8284015260809150818601518184015250828501519250838311156110655760008081fd5b6110738d8a85880101610d5f565b908201528652505050918301918301610fd3565b509695505050505050565b600082601f8301126110a357600080fd5b815160206110b36109fa83610f6c565b82815260059290921b840181019181810190868411156110d257600080fd5b8286015b848110156110875780516001600160401b03808211156110f65760008081fd5b9088019060c0828b03601f19018113156111105760008081fd5b61111861091e565b611123888501610d23565b81526040611132818601610d37565b898301526060611143818701610d37565b8284015260809150611156828701610d4f565b9083015260a0858101518284015292850151928484111561117957600091508182fd5b6111878e8b86890101610d5f565b908301525086525050509183019183016110d6565b600060208083850312156111af57600080fd5b82516001600160401b03808211156111c657600080fd5b9084019060a082870312156111da57600080fd5b6111e2610940565b6111eb83610d37565b81526111f8848401610d37565b848201526040830151604082015260608301518281111561121857600080fd5b61122488828601610d5f565b6060830152506080808401518381111561123d57600080fd5b80850194505087601f85011261125257600080fd5b83516112606109fa82610f6c565b81815260059190911b8501860190868101908a83111561127f57600080fd5b8787015b838110156113675780518781111561129b5760008081fd5b880160a0818e03601f190112156112b25760008081fd5b6112ba610940565b8a820151898111156112cc5760008081fd5b6112da8f8d83860101610f8f565b8252506040820151898111156112f05760008081fd5b6112fe8f8d83860101611092565b8c8301525060608201516040820152868201518981111561131f5760008081fd5b61132d8f8d83860101610d5f565b60608301525060a0820151898111156113465760008081fd5b6113548f8d83860101610d5f565b8289015250845250918801918801611283565b50928401929092525090979650505050505050565b600081518084526020808501808196508360051b8101915082860160005b85811015610bee578284038952815160c06113b6868351610b24565b818701516001600160801b031990811687890152604080840151909116908701526060808301511515908701526080808301519087015260a09182015191860181905261140581870183610af8565b9a87019a955050509084019060010161139a565b600081518084526020808501808196508360051b8101915082860160005b85811015610bee578284038952815160c0611453868351610ac0565b818701518688015260408083015115159087015260608083015115159087015260808083015115159087015260a09182015191860181905261149781870183610af8565b9a87019a9550505090840190600101611437565b600081518084526020808501808196508360051b8101915082860160005b85811015610bee578284038952815160e06114e5868351610b24565b818701516001600160801b031990811687890152604080840151909116908701526060808301519087015260808083015115159087015260a08083015115159087015260c09182015191860181905261154081870183610af8565b9a87019a95505050908401906001016114c9565b60008151606084526115696060850182610af8565b905060208301511515602085015260408301518482036040860152610d1a8282610af8565b6001600160801b0319815116825260006020820151608060208501526115b76080850182611419565b9050604083015184820360408601526115d082826114ab565b91505060608301518482036060860152610d1a8282611554565b600060808083526001600160801b0319808751168285015260208088015182811660a087015250604088015191508160c08601526060880151915060a060e086015261163a610120860183610af8565b88840151868203607f1901610100880152805180835291935082019082840190600581901b8501840160005b8281101561177357601f198783030184528451805160a0808552815190850181905260c0600582901b86018101928a01919086019060005b818110156117085760bf1988860301835283516116bc868251610ac0565b8c81015115158d870152604081015115156040870152606081015160608701528e810151905060a08f8701526116f560a0870182610af8565b955050928b0192918b019160010161169e565b505050508782015184820389860152611721828261137c565b91505060408201516040850152606082015184820360608601526117458282610af8565b9150508982015191508381038a85015261175f8183610af8565b968801969588019593505050600101611666565b50888103858a0152611785818c61158e565b8a516001600160801b03191660408b015260208b015151151560608b01529750610da49650505050505050565b600082601f8301126117c357600080fd5b815160206117d36109fa83610f6c565b82815260059290921b840181019181810190868411156117f257600080fd5b8286015b848110156110875780516001600160401b03808211156118165760008081fd5b9088019060a0828b03601f19018113156118305760008081fd5b611838610940565b611843888501610e94565b81526040611852818601610d4f565b89830152606080860151828401526080915081860151858111156118765760008081fd5b6118848f8c838a0101610d5f565b8285015250508285015192508383111561189e5760008081fd5b6118ac8d8a85880101610d5f565b9082015286525050509183019183016117f6565b600082601f8301126118d157600080fd5b815160206118e16109fa83610f6c565b82815260059290921b8401810191818101908684111561190057600080fd5b8286015b848110156110875780516001600160401b03808211156119245760008081fd5b9088019060e0828b03601f190181131561193e5760008081fd5b6119466108f6565b611951888501610d23565b81526040611960818601610d37565b898301526060611971818701610d37565b828401526080915081860151818401525060a080860151858111156119965760008081fd5b6119a48f8c838a0101610d5f565b838501525060c09150818601518184015250828501519250838311156119ca5760008081fd5b6119d88d8a85880101610d5f565b908201528652505050918301918301611904565b6000602082840312156119fe57600080fd5b81516001600160401b0380821115611a1557600080fd5b9083019060c08286031215611a2957600080fd5b611a3161091e565b611a3a83610d37565b8152611a4860208401610d37565b602082015260408301516040820152606083015182811115611a6957600080fd5b611a75878286016117b2565b606083015250608083015182811115611a8d57600080fd5b611a99878286016118c0565b60808301525060a083015182811115611ab157600080fd5b611abd87828601610d5f565b60a08301525095945050505050565b606081526000611adf6060830186611419565b8281036020840152611af181866114ab565b905082810360408401526106938185611554565b600082601f830112611b1657600080fd5b81516020611b266109fa83610f6c565b82815260059290921b84018101918181019086841115611b4557600080fd5b8286015b848110156110875780516001600160401b03811115611b685760008081fd5b611b768986838b0101610dac565b845250918301918301611b49565b600060608284031215611b9657600080fd5b604051606081016001600160401b038282108183111715611bb957611bb96108e0565b816040528293508451915080821115611bd157600080fd5b611bdd86838701610d5f565b8352611beb60208601610d4f565b60208401526040850151915080821115611c0457600080fd5b50611c1185828601610d5f565b6040830152505092915050565b60006020808385031215611c3157600080fd5b82516001600160401b0380821115611c4857600080fd5b9084019060808287031215611c5c57600080fd5b611c64610962565b611c6d83610d37565b81528383015182811115611c8057600080fd5b8301601f81018813611c9157600080fd5b8051611c9f6109fa82610f6c565b81815260059190911b8201860190868101908a831115611cbe57600080fd5b8784015b83811015611cf657805187811115611cda5760008081fd5b611ce88d8b83890101610ea3565b845250918801918801611cc2565b508088860152505050506040830151935081841115611d1457600080fd5b611d2087858501611b05565b60408201526060830151935081841115611d3957600080fd5b611d4587858501611b84565b60608201529695505050505050565b600060208284031215611d6657600080fd5b81516001600160401b03811115611d7c57600080fd5b610da484828501611b8456fea264697066735822122092670b99ffa927170b87a08e8a41d92fce81e6e77bb03ab3d2d660a8fab2fef464736f6c63430008110033",
  "linkReferences": {},
  "deployedLinkReferences": {}
}