{
  "_format": "hh-sol-artifact-1",
  "contractName": "OptimisticOracleConstraints",
  "sourceName": "@uma/core/contracts/data-verification-mechanism/implementation/Constants.sol",
  "abi": [
    {
      "inputs": [],
      "name": "ancillaryBytesLimit",
      "outputs": [
        {
          "internalType": "uint256",
          "name": "",
          "type": "uint256"
        }
      ],
      "stateMutability": "view",
      "type": "function"
    }
  ],
  "bytecode": "0x60be610052600b82828239805160001a607314610045577f4e487b7100000000000000000000000000000000000000000000000000000000600052600060045260246000fd5b30600052607381538281f3fe730000000000000000000000000000000000000000301460806040526004361060335760003560e01c8063c371dda7146038575b600080fd5b603e6052565b60405160499190606f565b60405180910390f35b61200081565b6000819050919050565b6069816058565b82525050565b6000602082019050608260008301846062565b9291505056fea26469706673582212208556832f5e87d3d897ef30cba7ca61043f59c3d0094c49192bd24fd52e4d9f3764736f6c63430008100033",
  "linkReferences": {},
  "deployedLinkReferences": {}
}