{
  "_format": "hh-sol-artifact-1",
  "contractName": "OracleInterfaces",
  "sourceName": "@uma/core/contracts/data-verification-mechanism/implementation/Constants.sol",
  "abi": [
    {
      "inputs": [],
      "name": "Bridge",
      "outputs": [
        {
          "internalType": "bytes32",
          "name": "",
          "type": "bytes32"
        }
      ],
      "stateMutability": "view",
      "type": "function"
    },
    {
      "inputs": [],
      "name": "ChildMessenger",
      "outputs": [
        {
          "internalType": "bytes32",
          "name": "",
          "type": "bytes32"
        }
      ],
      "stateMutability": "view",
      "type": "function"
    },
    {
      "inputs": [],
      "name": "CollateralWhitelist",
      "outputs": [
        {
          "internalType": "bytes32",
          "name": "",
          "type": "bytes32"
        }
      ],
      "stateMutability": "view",
      "type": "function"
    },
    {
      "inputs": [],
      "name": "FinancialContractsAdmin",
      "outputs": [
        {
          "internalType": "bytes32",
          "name": "",
          "type": "bytes32"
        }
      ],
      "stateMutability": "view",
      "type": "function"
    },
    {
      "inputs": [],
      "name": "GenericHandler",
      "outputs": [
        {
          "internalType": "bytes32",
          "name": "",
          "type": "bytes32"
        }
      ],
      "stateMutability": "view",
      "type": "function"
    },
    {
      "inputs": [],
      "name": "IdentifierWhitelist",
      "outputs": [
        {
          "internalType": "bytes32",
          "name": "",
          "type": "bytes32"
        }
      ],
      "stateMutability": "view",
      "type": "function"
    },
    {
      "inputs": [],
      "name": "OptimisticOracle",
      "outputs": [
        {
          "internalType": "bytes32",
          "name": "",
          "type": "bytes32"
        }
      ],
      "stateMutability": "view",
      "type": "function"
    },
    {
      "inputs": [],
      "name": "OptimisticOracleV2",
      "outputs": [
        {
          "internalType": "bytes32",
          "name": "",
          "type": "bytes32"
        }
      ],
      "stateMutability": "view",
      "type": "function"
    },
    {
      "inputs": [],
      "name": "OptimisticOracleV3",
      "outputs": [
        {
          "internalType": "bytes32",
          "name": "",
          "type": "bytes32"
        }
      ],
      "stateMutability": "view",
      "type": "function"
    },
    {
      "inputs": [],
      "name": "Oracle",
      "outputs": [
        {
          "internalType": "bytes32",
          "name": "",
          "type": "bytes32"
        }
      ],
      "stateMutability": "view",
      "type": "function"
    },
    {
      "inputs": [],
      "name": "OracleHub",
      "outputs": [
        {
          "internalType": "bytes32",
          "name": "",
          "type": "bytes32"
        }
      ],
      "stateMutability": "view",
      "type": "function"
    },
    {
      "inputs": [],
      "name": "OracleSpoke",
      "outputs": [
        {
          "internalType": "bytes32",
          "name": "",
          "type": "bytes32"
        }
      ],
      "stateMutability": "view",
      "type": "function"
    },
    {
      "inputs": [],
      "name": "Registry",
      "outputs": [
        {
          "internalType": "bytes32",
          "name": "",
          "type": "bytes32"
        }
      ],
      "stateMutability": "view",
      "type": "function"
    },
    {
      "inputs": [],
      "name": "SkinnyOptimisticOracle",
      "outputs": [
        {
          "internalType": "bytes32",
          "name": "",
          "type": "bytes32"
        }
      ],
      "stateMutability": "view",
      "type": "function"
    },
    {
      "inputs": [],
      "name": "Store",
      "outputs": [
        {
          "internalType": "bytes32",
          "name": "",
          "type": "bytes32"
        }
      ],
      "stateMutability": "view",
      "type": "function"
    }
  ],
  "bytecode": "0x61054c610053600b82828239805160001a607314610046577f4e487b7100000000000000000000000000000000000000000000000000000000600052600060045260246000fd5b30600052607381538281f3fe73000000000000000000000000000000000000000030146080604052600436106100ff5760003560e01c80634f4a180b116100a15780637db9743b116100705780637db9743b1461024e5780638adca47f1461026c578063f02f8e831461028a578063f24a534e146102a8576100ff565b80634f4a180b146101d6578063598dd097146101f45780635fa2ef10146102125780637608ea2f14610230576100ff565b80632a71e5b3116100dd5780632a71e5b31461015e57806342e90c331461017c5780634596ac9b1461019a578063473e7ccd146101b8576100ff565b8063079b6c63146101045780631a0fbfb3146101225780631a4dbd1c14610140575b600080fd5b61010c6102c6565b60405161011991906104fb565b60405180910390f35b61012a6102ea565b60405161013791906104fb565b60405180910390f35b61014861030e565b60405161015591906104fb565b60405180910390f35b610166610332565b60405161017391906104fb565b60405180910390f35b610184610356565b60405161019191906104fb565b60405180910390f35b6101a261037a565b6040516101af91906104fb565b60405180910390f35b6101c061039e565b6040516101cd91906104fb565b60405180910390f35b6101de6103c2565b6040516101eb91906104fb565b60405180910390f35b6101fc6103e6565b60405161020991906104fb565b60405180910390f35b61021a61040a565b60405161022791906104fb565b60405180910390f35b61023861042e565b60405161024591906104fb565b60405180910390f35b610256610452565b60405161026391906104fb565b60405180910390f35b610274610476565b60405161028191906104fb565b60405180910390f35b61029261049a565b60405161029f91906104fb565b60405180910390f35b6102b06104be565b6040516102bd91906104fb565b60405180910390f35b7f47656e6572696348616e646c657200000000000000000000000000000000000081565b7f4368696c644d657373656e67657200000000000000000000000000000000000081565b7f4f7074696d69737469634f7261636c650000000000000000000000000000000081565b7f46696e616e6369616c436f6e74726163747341646d696e00000000000000000081565b7f53746f726500000000000000000000000000000000000000000000000000000081565b7f536b696e6e794f7074696d69737469634f7261636c650000000000000000000081565b7f4f7074696d69737469634f7261636c655632000000000000000000000000000081565b7f4964656e74696669657257686974656c6973740000000000000000000000000081565b7f436f6c6c61746572616c57686974656c6973740000000000000000000000000081565b7f427269646765000000000000000000000000000000000000000000000000000081565b7f4f7261636c65487562000000000000000000000000000000000000000000000081565b7f526567697374727900000000000000000000000000000000000000000000000081565b7f4f7261636c6553706f6b6500000000000000000000000000000000000000000081565b7f4f7074696d69737469634f7261636c655633000000000000000000000000000081565b7f4f7261636c65000000000000000000000000000000000000000000000000000081565b6000819050919050565b6104f5816104e2565b82525050565b600060208201905061051060008301846104ec565b9291505056fea26469706673582212203ecff3f1d3d1ef7356b29c28e9d501a30fd3ac78b9588abedce6d272e39d364264736f6c63430008100033",
  "linkReferences": {},
  "deployedLinkReferences": {}
}